{
	"data": {
		"bytecode": {
			"linkReferences": {},
			"object": "6000600890815560098054735e17b14add6c386305a32928f985b29bba34eff56001600160a01b03199091161760ff60a01b1916600360a11b179081905560ff600160a01b90910416600a90810a8082556064808204600b55919004600c55600d80546107cf61ffff199091161765ffffffff00001916640f4240000017600160301b600160781b03191690556301abbc00600e556201fa40600f90815560016101208181526101409190915260c861016052608090815260026101808181526101a09190915260966101c05260a05260036101e09081526007610200526102209390935260c0929092526102409283526102605260326102805260e09190915261030060405260106102a081815260146102c08190526102e052610100526200012b91600562000875565b506040805161010081018252600954600160a01b900460ff16600a90810a613a9881026080808501918252606460a0860181905260c08601819052601e60e087015291855285518082018752611d4c84028152603260208083018290528289019190915260146060808401919091528188019290925287518084018952610dac860281526019818301819052818a0152808301879052878901528751928301885292909302815260059181018290529485019290925283810191909152810191909152620001fe906022906004620008d3565b503480156200020c57600080fd5b506040518060400160405280600b81526020016a544c42205374616b696e6760a81b815250604051806040016040528060038152602001622a262160e91b815250600464519577b0006000620002676200069260201b60201c565b600080546001600160a01b0319166001600160a01b0383169081178255604051929350917f8be0079c531659141344cd1fd0a4f28419497f9722a3daafe3b4186f6b6457e0908290a3508351620002c69060059060208701906200092d565b508251620002dc9060069060208601906200092d565b506007805460ff191660ff9390931692909217909155600455506000905060646200030662000696565b601402816200031157fe5b0490506200032033826200069c565b601d6040518060a00160405280600160ff16815260200160c88152602001601060ff168152602001600260ff168152602001610898815250908060018154018082558091505060019003906000526020600020906004020160009091909190915060008201518160000160006101000a81548160ff021916908360ff1602179055506020820151816001015560408201518160020160006101000a81548160ff021916908360ff16021790555060608201518160020160016101000a81548160ff021916908360ff160217905550608082015181600301555050601d6040518060a00160405280600260ff1681526020016103e98152602001600c60ff168152602001600360ff168152602001610834815250908060018154018082558091505060019003906000526020600020906004020160009091909190915060008201518160000160006101000a81548160ff021916908360ff1602179055506020820151816001015560408201518160020160006101000a81548160ff021916908360ff16021790555060608201518160020160016101000a81548160ff021916908360ff160217905550608082015181600301555050601d6040518060a00160405280600360ff1681526020016107d18152602001600a60ff168152602001600460ff1681526020016107d0815250908060018154018082558091505060019003906000526020600020906004020160009091909190915060008201518160000160006101000a81548160ff021916908360ff1602179055506020820151816001015560408201518160020160006101000a81548160ff021916908360ff16021790555060608201518160020160016101000a81548160ff021916908360ff160217905550608082015181600301555050601d6040518060a00160405280600460ff1681526020016113898152602001600860ff168152602001600560ff16815260200161076c815250908060018154018082558091505060019003906000526020600020906004020160009091909190915060008201518160000160006101000a81548160ff021916908360ff1602179055506020820151816001015560408201518160020160006101000a81548160ff021916908360ff16021790555060608201518160020160016101000a81548160ff021916908360ff1602179055506080820151816003015550505062000b52565b3390565b60045490565b6001600160a01b038216620006f8576040805162461bcd60e51b815260206004820152601f60248201527f48524332303a206d696e7420746f20746865207a65726f206164647265737300604482015290519081900360640190fd5b60045462000717826003546200081360201b620022611790919060201c565b106200076a576040805162461bcd60e51b815260206004820181905260248201527f48524332303a20616c72656164792072656163686564206d6178537570706c79604482015290519081900360640190fd5b62000786816003546200081360201b620022611790919060201c565b6003556001600160a01b038216600090815260016020908152604090912054620007bb9183906200226162000813821b17901c565b6001600160a01b03831660008181526001602090815260408083209490945583518581529351929391927fddf252ad1be2c89b69c2b068fc378daa952ba7f163c4a11628f55a4df523b3ef9281900390910190a35050565b6000828201838110156200086e576040805162461bcd60e51b815260206004820152601b60248201527f536166654d6174683a206164646974696f6e206f766572666c6f770000000000604482015290519081900360640190fd5b9392505050565b828054828255906000526020600020908101928215620008c1579160200282015b82811115620008c1578251620008b09083906003620009ae565b509160200191906001019062000896565b50620008cf92915062000a57565b5090565b8280548282559060005260206000209081019282156200091f579160200282015b828111156200091f5782516200090e908390600462000a78565b5091602001919060010190620008f4565b50620008cf92915062000ab5565b828054600181600116156101000203166002900490600052602060002090601f016020900481019282601f106200097057805160ff1916838001178555620009a0565b82800160010185558215620009a0579182015b82811115620009a057825182559160200191906001019062000983565b50620008cf92915062000ad6565b82805482825590600052602060002090601f0160209004810192821562000a495791602002820160005b8382111562000a1857835183826101000a81548160ff021916908360ff1602179055509260200192600101602081600001049283019260010302620009d8565b801562000a475782816101000a81549060ff021916905560010160208160000104928301926001030262000a18565b505b50620008cf92915062000aed565b80821115620008cf57600062000a6e828262000b08565b5060010162000a57565b828054828255906000526020600020908101928215620009a05791602002820182811115620009a057825182559160200191906001019062000983565b80821115620008cf57600062000acc828262000b32565b5060010162000ab5565b5b80821115620008cf576000815560010162000ad7565b5b80821115620008cf57805460ff1916815560010162000aee565b50805460008255601f01602090049060005260206000209081019062000b2f919062000ad6565b50565b508054600082559060005260206000209081019062000b2f919062000ad6565b6145ab8062000b626000396000f3fe608060405234801561001057600080fd5b50600436106103275760003560e01c80637195fd1a116101b8578063a4d5f17811610104578063d5abeb01116100a2578063e2cde6b71161007c578063e2cde6b7146108df578063ea06427114610905578063f2fde38b1461092b578063ffe20a891461095157610327565b8063d5abeb01146108a1578063dd62ed3e146108a9578063e1b0e802146108d757610327565b8063bff1f9e1116100de578063bff1f9e11461084a578063c0bc43bb1461086b578063c29b2a1314610873578063c2bf23bd1461089957610327565b8063a4d5f178146107d2578063a9059cbb146107f8578063adbd5ff91461082457610327565b8063966ff65011610171578063a01a58ff1161014b578063a01a58ff14610764578063a035b1fe14610781578063a0712d6814610789578063a457c2d7146107a657610327565b8063966ff6501461073457806399f50b761461073c5780639ca260fa1461074457610327565b80637195fd1a1461069257806382492a76146106d1578063893d20e8146106f05780638a43bb01146106f85780638da5cb5b1461072457806395d89b411461072c57610327565b8063393319a8116102775780636466be46116102305780636e9960c31161020a5780636e9960c314610636578063704b6c021461063e57806370a0823114610664578063715018a61461068a57610327565b80636466be461461061e5780636c58c80d146106265780636d1da4311461062e57610327565b8063393319a81461057157806339509351146105975780633ccfd60b146105c35780633eaaf86b146105cd57806347e7ef24146105d55780635fd358541461060157610327565b806321c12e44116102e4578063255b9b72116102be578063255b9b72146104bb57806326f30460146104e1578063313ce5671461052f5780633558dcf11461054d57610327565b806321c12e441461045757806322f4596f1461047d57806323b872dd1461048557610327565b80630373c9091461032c57806306fdde0314610346578063095ea7b3146103c3578063129db3a61461040357806318160ddd146104295780631d62ebd914610431575b600080fd5b610334610977565b60408051918252519081900360200190f35b61034e61097e565b6040805160208082528351818301528351919283929083019185019080838360005b83811015610388578181015183820152602001610370565b50505050905090810190601f1680156103b55780820380516001836020036101000a031916815260200191505b509250505060405180910390f35b6103ef600480360360408110156103d957600080fd5b506001600160a01b038135169060200135610a14565b604080519115158252519081900360200190f35b6103ef6004803603602081101561041957600080fd5b50356001600160a01b0316610a32565b610334610a6e565b6103346004803603602081101561044757600080fd5b50356001600160a01b0316610a74565b6103346004803603602081101561046d57600080fd5b50356001600160a01b0316610b81565b610334610b9c565b6103ef6004803603606081101561049b57600080fd5b506001600160a01b03813581169160208101359091169060400135610ba2565b610334600480360360208110156104d157600080fd5b50356001600160a01b0316610c29565b610507600480360360208110156104f757600080fd5b50356001600160a01b0316610c93565b6040805194151585526020850193909352838301919091526060830152519081900360800190f35b610537610d89565b6040805160ff9092168252519081900360200190f35b610555610d92565b604080516001600160a01b039092168252519081900360200190f35b6105556004803603602081101561058757600080fd5b50356001600160a01b0316610da1565b6103ef600480360360408110156105ad57600080fd5b506001600160a01b038135169060200135610dc6565b6105cb610e14565b005b610334610eba565b6105cb600480360360408110156105eb57600080fd5b506001600160a01b038135169060200135610ec0565b6103346004803603602081101561061757600080fd5b5035611229565b610555611247565b610555611256565b610334611265565b61055561126b565b6105cb6004803603602081101561065457600080fd5b50356001600160a01b031661127a565b6103346004803603602081101561067a57600080fd5b50356001600160a01b031661132d565b6105cb611348565b610334600480360360808110156106a857600080fd5b506001600160a01b03813581169160208101359091169060ff60408201351690606001356113ea565b6106d96116b8565b6040805161ffff9092168252519081900360200190f35b6105556116c2565b6103346004803603604081101561070e57600080fd5b506001600160a01b0381351690602001356116d1565b6105556117ef565b61034e6117fe565b61033461185f565b6106d9611865565b6103346004803603602081101561075a57600080fd5b503560ff16611876565b6103346004803603602081101561077a57600080fd5b5035611922565b610334611975565b6103ef6004803603602081101561079f57600080fd5b503561197b565b6103ef600480360360408110156107bc57600080fd5b506001600160a01b0381351690602001356119ee565b610334600480360360208110156107e857600080fd5b50356001600160a01b0316611a56565b6103ef6004803603604081101561080e57600080fd5b506001600160a01b038135169060200135611ae7565b6105cb6004803603602081101561083a57600080fd5b50356001600160a01b0316611afb565b610852611bab565b6040805163ffffffff9092168252519081900360200190f35b610334611bbe565b6105cb6004803603602081101561088957600080fd5b50356001600160a01b0316611bc4565b6105cb611c74565b610334611d92565b610334600480360360408110156108bf57600080fd5b506001600160a01b0381358116916020013516611d98565b610852611dc3565b610334600480360360208110156108f557600080fd5b50356001600160a01b0316611dd5565b6103346004803603602081101561091b57600080fd5b50356001600160a01b031661215f565b6105cb6004803603602081101561094157600080fd5b50356001600160a01b03166121f2565b6103346004803603602081101561096757600080fd5b50356001600160a01b0316612253565b601e545b90565b60058054604080516020601f6002600019610100600188161502019095169490940493840181900481028201810190925282815260609390929091830182828015610a0a5780601f106109df57610100808354040283529160200191610a0a565b820191906000526020600020905b8154815290600101906020018083116109ed57829003601f168201915b5050505050905090565b6000610a28610a216122bb565b84846122bf565b5060015b92915050565b6000610a3c6123ab565b80610a6657506001600160a01b0382166000908152601c6020526040902054600160e01b900460ff165b90505b919050565b60035490565b6001600160a01b0381166000908152601c60205260408120600581015481546103e6600160201b90910461ffff16118015610abd575081546103ea600160201b90910461ffff16105b15610b7a576008820180546000908015610b1f5760001981015b8015610b1d576000846001830381548110610aee57fe5b90600052602060002090600402019050600081600201541215610b1357549250610b1d565b5060001901610ad7565b505b60005b602154811015610b7557600060218281548110610b3b57fe5b906000526020600020906004020190508381600001541115610b6c57610bb6816001015481610b6657fe5b04860195505b50600101610b22565b505050505b9392505050565b6001600160a01b031660009081526024602052604090205490565b60045481565b6000610baf848484612460565b610c1f84610bbb6122bb565b610c1a856040518060600160405280602881526020016143a7602891396001600160a01b038a16600090815260026020526040812090610bf96122bb565b6001600160a01b0316815260208101919091526040016000205491906125b2565b6122bf565b5060019392505050565b6001600160a01b0381166000908152602360205260408120600181015415610c8d5760255481546201518090910290600160a01b900460ff16610c6a610d89565b60ff16600a0a8360010154420361bb8002020281610c8457fe5b04915050610a69565b50919050565b6001600160a01b0381166000908152601c60205260408120805482918291829190600160d81b900460ff1615801590610cd0575060008160040154115b15610d72576000610ce087610a32565b90506000610ced88612253565b90506000610cfa89611dd5565b90506000610d078a610a74565b905083610d61578454601d80546103e89260001960ff600160d81b90920482160116908110610d3257fe5b90600052602060002090600402016003015486600401540281610d5157fe5b0481838588600401540101011193505b92975090955093509150610d829050565b6000806000809450945094509450505b9193509193565b60075460ff1690565b6017546001600160a01b031690565b6001600160a01b039081166000908152601c6020526040902054600160301b90041690565b6000610a28610dd36122bb565b84610c1a8560026000610de46122bb565b6001600160a01b03908116825260208083019390935260409182016000908120918c168152925290205490612261565b6000610e1e6122bb565b90506001600160a01b038116610e69576040805162461bcd60e51b815260206004820152601d6024820152600080516020614556833981519152604482015290519081900360640190fd5b6000610e758242612649565b90508015610eb6576000610e8883611a56565b600954909150610ea2906001600160a01b03168484612d7d565b610eac8382612ee7565b6008805490910190555b5050565b60035481565b6000610eca6122bb565b90506001600160a01b038116610f15576040805162461bcd60e51b815260206004820152601d6024820152600080516020614556833981519152604482015290519081900360640190fd5b6000610f1f611bab565b9050610f29611dc3565b63ffffffff168163ffffffff1610610f88576040805162461bcd60e51b815260206004820152601960248201527f506c61736d6174696347616d653a2066756c6c5f757365727300000000000000604482015290519081900360640190fd5b63ffffffff8116610ff5576000610f9d61126b565b9050806001600160a01b0316856001600160a01b031614610fef5760405162461bcd60e51b81526004018080602001828103825260278152602001806144a16027913960400191505060405180910390fd5b506110a5565b600a8163ffffffff16101561106057600061100e611256565b9050806001600160a01b0316856001600160a01b031614610fef5760405162461bcd60e51b815260040180806020018281038252602781526020018061447a6027913960400191505060405180910390fd5b61106a8285612fd7565b6110a55760405162461bcd60e51b81526004018080602001828103825260238152602001806144146023913960400191505060405180910390fd5b60006110b083613051565b90508061111857600a546064028185031015611113576040805162461bcd60e51b815260206004820152601d60248201527f506c61736d6174696347616d653a20546f6f5f4c6f775f496e76657374000000604482015290519081900360640190fd5b611172565b600a5460c802841015611172576040805162461bcd60e51b815260206004820152601d60248201527f506c61736d6174696347616d653a20546f6f5f4c6f775f496e76657374000000604482015290519081900360640190fd5b600061117c610d89565b60ff16600a0a61118b86611229565b029050806111988561132d565b10156111eb576040805162461bcd60e51b815260206004820152601b60248201527f506c61736d6174696347616d653a204e6565645f3130255f5450530000000000604482015290519081900360640190fd5b600954611203906001600160a01b031685308861306f565b61120d8482612ee7565b6008805482019055611221848787426131c4565b505050505050565b6000600c54600a838161123857fe5b048161124057fe5b0492915050565b6014546001600160a01b031690565b601a546001600160a01b031690565b60265490565b6011546001600160a01b031690565b6112826122bb565b6000546001600160a01b039081169116146112d2576040805162461bcd60e51b81526020600482018190526024820152600080516020614437833981519152604482015290519081900360640190fd5b60006112dc61126b565b6001600160a01b0316146113215760405162461bcd60e51b81526004018080602001828103825260248152602001806143f06024913960400191505060405180910390fd5b61132a816138ea565b50565b6001600160a01b031660009081526001602052604090205490565b6113506122bb565b6000546001600160a01b039081169116146113a0576040805162461bcd60e51b81526020600482018190526024820152600080516020614437833981519152604482015290519081900360640190fd5b600080546040516001600160a01b03909116907f8be0079c531659141344cd1fd0a4f28419497f9722a3daafe3b4186f6b6457e0908390a3600080546001600160a01b0319169055565b60006113f461428b565b611401868460140361390c565b60115490915060009081906001600160a01b038881169116141561142757506013611444565b506001600160a01b0386166000908152601c602052604090206008015b80546000811561145557600161145a565b600182035b90505b80156116aa576000808080856114ac5760009350429250601d60018d0360ff168154811061148757fe5b6000918252602082206002600490920201015460ff6101009091041692509050611543565b60008760018703815481106114bd57fe5b90600052602060002090600402019050806000015494508686146114fe578786815481106114e757fe5b906000526020600020906004020160000154611500565b425b9350601d60018260030154038154811061151657fe5b906000526020600020906004020160020160019054906101000a900460ff1660ff16925080600201549150505b8a5b8281116116865760006010828154811061155b57fe5b9060005260206000200160008154811061157157fe5b60009182526020918290209181049091015460ff601f9092166101000a90041690505b601082815481106115a157fe5b906000526020600020016001815481106115b757fe5b60009182526020918290209181049091015460ff601f9092166101000a900416811161167d5760008b6000198301601481106115ef57fe5b60200201516001600160a01b0316146116755760006010838154811061161157fe5b9060005260206000200160028154811061162757fe5b60009182526020808320908204015460ff601f9092166101000a90041691506116658d60001985016014811061165957fe5b602002015189896139cf565b90506103e8828202048c019b5050505b600101611594565b50600101611545565b50600081121561169957505050506116aa565b5050600019909201915061145d9050565b509198975050505050505050565b600d5461ffff1690565b60006116cc6117ef565b905090565b6000806116dc6122bb565b90506001600160a01b038116611727576040805162461bcd60e51b815260206004820152601d6024820152600080516020614556833981519152604482015290519081900360640190fd5b60008061173385613b05565b9150915060008260ff161161178f576040805162461bcd60e51b815260206004820152601d60248201527f506c61736d6174696347616d653a20496e76616c69645f616d6f756e74000000604482015290519081900360640190fd5b6009546103e882870204906117b9906001600160a01b03168530848a036064600a8702040161306f565b6009546117d7906001600160a01b031685896064605a86020461306f565b6117e5848888868542613c51565b5050505092915050565b6000546001600160a01b031690565b60068054604080516020601f6002600019610100600188161502019095169490940493840181900481028201810190925282815260609390929091830182828015610a0a5780601f106109df57610100808354040283529160200191610a0a565b60085490565b600d54600160501b900461ffff1690565b6000808260ff1611801561188d575060048260ff16105b1561191a57600d54602280546103e892600160501b900461ffff16919060ff86169081106118b757fe5b906000526020600020016000815481106118cd57fe5b906000526020600020015402816118e057fe5b0460228360ff16815481106118f157fe5b9060005260206000200160008154811061190757fe5b9060005260206000200154019050610a69565b506000919050565b60008061192d6122bb565b90506000611939610d89565b60ff16600a0a61194885611229565b60095491029150611964906001600160a01b031683308761306f565b61196e8282613dd9565b5050919050565b600c5490565b60006119856122bb565b6000546001600160a01b039081169116146119d5576040805162461bcd60e51b81526020600482018190526024820152600080516020614437833981519152604482015290519081900360640190fd5b6119e66119e06122bb565b83613dd9565b506001919050565b6000610a286119fb6122bb565b84610c1a856040518060600160405280602581526020016143826025913960026000611a256122bb565b6001600160a01b03908116825260208083019390935260409182016000908120918d168152925290205491906125b2565b6014546000906001600160a01b0383811691161480611a8257506017546001600160a01b038381169116145b80611a9a57506011546001600160a01b038381169116145b15611aa757506000610a69565b6001600160a01b0382166000908152601c60205260409020546103e9600160201b90910461ffff1610611adb576002611ade565b60055b60ff1692915050565b6000610a28611af46122bb565b8484612460565b611b036122bb565b6000546001600160a01b03908116911614611b53576040805162461bcd60e51b81526020600482018190526024820152600080516020614437833981519152604482015290519081900360640190fd5b6000611b5d611247565b6001600160a01b031614611ba25760405162461bcd60e51b81526004018080602001828103825260248152602001806144c86024913960400191505060405180910390fd5b61132a81613f21565b600d54600160301b900463ffffffff1690565b60255490565b611bcc6122bb565b6000546001600160a01b03908116911614611c1c576040805162461bcd60e51b81526020600482018190526024820152600080516020614437833981519152604482015290519081900360640190fd5b6000611c26610d92565b6001600160a01b031614611c6b5760405162461bcd60e51b81526004018080602001828103825260228152602001806143606022913960400191505060405180910390fd5b61132a81613f43565b6000611c7e6122bb565b90506001600160a01b038116611cc9576040805162461bcd60e51b815260206004820152601d6024820152600080516020614556833981519152604482015290519081900360640190fd5b6001600160a01b038116600090815260236020526040812090611ceb83610c29565b905060008111611d30576040805162461bcd60e51b815260206004820152601d6024820152600080516020614556833981519152604482015290519081900360640190fd5b600e5460275482011115611d755760405162461bcd60e51b815260040180806020018281038252602281526020018061433e6022913960400191505060405180910390fd5b4260018301556027805482019055611d8d8382613dd9565b505050565b60045490565b6001600160a01b03918216600090815260026020908152604080832093909416825291909152205490565b600d5462010000900463ffffffff1690565b601a546000906001600160a01b0316611df057506000610a69565b6014546000906001600160a01b0384811691161415611e13575050601554610a69565b6017546001600160a01b0384811691161415611e33575050601854610a69565b6011546001600160a01b03848116911614156120535760135460008115611e5b576001611e60565b600182035b90505b8015611fe057600080808085611ead5760009350429250601d600381548110611e8857fe5b6000918252602082206002600490920201015460ff6101009091041692509050611f4a565b600060116002016001870381548110611ec257fe5b9060005260206000209060040201905080600001549450868614611f05576013805487908110611eee57fe5b906000526020600020906004020160000154611f07565b425b9350601d600182600301540381548110611f1d57fe5b906000526020600020906004020160020160019054906101000a900460ff1660ff16925080600201549150505b601a54600090611f64906001600160a01b031686866139cf565b90506103e86010600081548110611f7757fe5b90600052602060002001600281548110611f8d57fe5b60009182526020918290209181049091015460ff601f9092166101000a900416820281611fb657fe5b04880197506000821215611fce575050505050611fe0565b50506000199093019250611e63915050565b50601a546001600160a01b03166000908152601c60205260408120905b600782015481101561204b5761203f82600701828154811061201b57fe5b60009182526020909120600290910201546001600160a01b031687600460016113ea565b90930192600101611ffd565b505050610a66565b601a546001600160a01b03848116911614156120d6576001600160a01b0383166000908152601c60205260408120905b60078201548110156120cf576120c38260070182815481106120a157fe5b600091825260208220600290910201546001600160a01b0316908790806113ea565b90920191600101612083565b5050610a66565b6001600160a01b0383166000908152601c602052604090206006810154600361ffff600160a01b9092048216041680156121575760005b818110156121555761214983600701828154811061212757fe5b600091825260208220600290910201546001600160a01b0316908890806113ea565b9093019260010161210d565b505b505092915050565b600080805b6001600160a01b0384166000908152602460205260409020548110156121eb576001600160a01b038416600090815260246020526040812080546023918391859081106121ad57fe5b60009182526020808320909101546001600160a01b0316835282019290925260400190205460ff600160a01b90910416929092019150600101612164565b5092915050565b6121fa6122bb565b6000546001600160a01b0390811691161461224a576040805162461bcd60e51b81526020600482018190526024820152600080516020614437833981519152604482015290519081900360640190fd5b61132a81613f65565b6000610a66826000806139cf565b600082820183811015610b7a576040805162461bcd60e51b815260206004820152601b60248201527f536166654d6174683a206164646974696f6e206f766572666c6f770000000000604482015290519081900360640190fd5b3390565b6001600160a01b0383166123045760405162461bcd60e51b815260040180806020018281038252602481526020018061450e6024913960400191505060405180910390fd5b6001600160a01b0382166123495760405162461bcd60e51b81526004018080602001828103825260228152602001806142ab6022913960400191505060405180910390fd5b6001600160a01b03808416600081815260026020908152604080832094871680845294825291829020859055815185815291517f8c5be1e5ebec7d5bd14f71427d1e84f3dd0314c0f7b2291e5b200ac8c7c3b9259281900390910190a3505050565b600d54600090600160701b900460ff16156123c85750600161097b565b6020546001811115612458576000602060018303815481106123e657fe5b9060005260206000209060040201600101546020600284038154811061240857fe5b9060005260206000209060040201600101546020600185038154811061242a57fe5b906000526020600020906004020160010154036103e8028161244857fe5b049050600a81109250505061097b565b600091505090565b6001600160a01b0383166124a55760405162461bcd60e51b81526004018080602001828103825260258152602001806142f36025913960400191505060405180910390fd5b6001600160a01b0382166124ea5760405162461bcd60e51b81526004018080602001828103825260238152602001806144576023913960400191505060405180910390fd5b61252781604051806060016040528060268152602001614318602691396001600160a01b03861660009081526001602052604090205491906125b2565b6001600160a01b0380851660009081526001602052604080822093909355908416815220546125569082612261565b6001600160a01b0380841660008181526001602090815260409182902094909455805185815290519193928716927fddf252ad1be2c89b69c2b068fc378daa952ba7f163c4a11628f55a4df523b3ef92918290030190a3505050565b600081848411156126415760405162461bcd60e51b81526004018080602001828103825283818151815260200191508051906020019080838360005b838110156126065781810151838201526020016125ee565b50505050905090810190601f1680156126335780820380516001836020036101000a031916815260200191505b509250505060405180910390fd5b505050900390565b60115460009081906001600160a01b03858116911614156127ae57600061266f85610a32565b905080156126c0576040805162461bcd60e51b8152602060048201526019602482015278141b185cdb585d1a58d1d85b594e8813dd995c999b1bddd959603a1b604482015290519081900360640190fd5b6126c985611dd5565b60128054600091829055604080516080810182528881526020810184815294909201808403918301918252600460608401818152601380546001810182559652935194027f66de8ffda797e3de9c05e8fc57b3bf0ec28a930d40b0d285d93c06501cf6a09081019490945593517f66de8ffda797e3de9c05e8fc57b3bf0ec28a930d40b0d285d93c06501cf6a091840155517f66de8ffda797e3de9c05e8fc57b3bf0ec28a930d40b0d285d93c06501cf6a092830155517f66de8ffda797e3de9c05e8fc57b3bf0ec28a930d40b0d285d93c06501cf6a093909101559150610b7a9050565b6014546001600160a01b03858116911614156129025760006127cf85610a32565b90508015612820576040805162461bcd60e51b8152602060048201526019602482015278141b185cdb585d1a58d1d85b594e8813dd995c999b1bddd959603a1b604482015290519081900360640190fd5b5050601580546000918290556040805160808101825285815260208101848152838503928201928352600460608301818152601680546001810182559752925195027fd833147d7dc355ba459fc788f669e58cfaf9dc25ddcd0702e87d69c7b5124289810195909555517fd833147d7dc355ba459fc788f669e58cfaf9dc25ddcd0702e87d69c7b512428a85015590517fd833147d7dc355ba459fc788f669e58cfaf9dc25ddcd0702e87d69c7b512428b840155517fd833147d7dc355ba459fc788f669e58cfaf9dc25ddcd0702e87d69c7b512428c90920191909155610b7a565b6017546001600160a01b0385811691161415612a5657600061292385610a32565b90508015612974576040805162461bcd60e51b8152602060048201526019602482015278141b185cdb585d1a58d1d85b594e8813dd995c999b1bddd959603a1b604482015290519081900360640190fd5b5050601880546000918290556040805160808101825285815260208101848152838503928201928352600460608301818152601980546001810182559752925195027f944998273e477b495144fb8794c914197f3ccb46be2900f4698fd0ef743c9695810195909555517f944998273e477b495144fb8794c914197f3ccb46be2900f4698fd0ef743c969685015590517f944998273e477b495144fb8794c914197f3ccb46be2900f4698fd0ef743c9697840155517f944998273e477b495144fb8794c914197f3ccb46be2900f4698fd0ef743c969890920191909155610b7a565b6001600160a01b0384166000908152601c60205260409020600481015415612d7557600080600080612a8789610c93565b93509350935093508315612ade576040805162461bcd60e51b8152602060048201526019602482015278141b185cdb585d1a58d1d85b594e8813dd995c999b1bddd959603a1b604482015290519081900360640190fd5b8454828401906005600160201b90910461ffff161015612b0a57816103e8610352830204019650612b3f565b85546103e6600160201b90910461ffff161115612b33576103e861035282840102049650612b3f565b6103e861035282020496505b600486015460028383010490811015612bf25760048701805482900390819055600090612b6b90614005565b885490915060ff808316600160d81b9092041614612be057875460ff808316600160d81b0260ff60d81b19909216919091178955601d80546103e892600019850116908110612bb657fe5b90600052602060002090600402016003015489600401540281612bd557fe5b046003890155612bec565b60038801805483900390555b50612c0c565b865460ff60d81b1916875560006004880181905560038801555b86546103e7600160201b90910461ffff161015612d5e576107cf600052601b6020527f35cc04406a5fee7700a35e1408c1d2adb28971293db432080f1ea695c756246c546103e8604b840204906001600160a01b03168015612c8a576001600160a01b038d166000908152601c602052604090206005018054830190555b50604080516080810182528c81526020810192835260009181018281526060820183815260218054600181018255945291517f3a6357012c1a3ae0a17d304c9920310382d968ebcc4b1771f41c6b304205b57060049094029384015592517f3a6357012c1a3ae0a17d304c9920310382d968ebcc4b1771f41c6b304205b57183015591517f3a6357012c1a3ae0a17d304c9920310382d968ebcc4b1771f41c6b304205b57282015590517f3a6357012c1a3ae0a17d304c9920310382d968ebcc4b1771f41c6b304205b57390910155612d6e565b601e80546103e860968502040190555b5050505050505b509392505050565b604080516001600160a01b038481166024830152604480830185905283518084039091018152606490920183526020820180516001600160e01b031663a9059cbb60e01b178152925182516000946060949389169392918291908083835b60208310612dfa5780518252601f199092019160209182019101612ddb565b6001836020036101000a0380198251168184511680821785525050505050509050019150506000604051808303816000865af19150503d8060008114612e5c576040519150601f19603f3d011682016040523d82523d6000602084013e612e61565b606091505b5091509150818015612e8f575080511580612e8f5750808060200190516020811015612e8c57600080fd5b50515b612ee0576040805162461bcd60e51b815260206004820152601f60248201527f5472616e7366657248656c7065723a205452414e534645525f4641494c454400604482015290519081900360640190fd5b5050505050565b6001600160a01b038216612f2c5760405162461bcd60e51b81526004018080602001828103825260218152602001806143cf6021913960400191505060405180910390fd5b612f69816040518060600160405280602281526020016144ec602291396001600160a01b03851660009081526001602052604090205491906125b2565b6001600160a01b038316600090815260016020526040902055600354612f8f908261405b565b6003556040805182815290516000916001600160a01b038516917fddf252ad1be2c89b69c2b068fc378daa952ba7f163c4a11628f55a4df523b3ef9181900360200190a35050565b6001600160a01b0381166000908152601c6020526040812060010154612fff57506000610a2c565b6001600160a01b0383166000908152601c602052604090206001015461302757506001610a2c565b506001600160a01b039182166000908152601c6020526040902054600160301b9004821691161490565b6001600160a01b03166000908152601c602052604090206001015490565b604080516001600160a01b0385811660248301528481166044830152606480830185905283518084039091018152608490920183526020820180516001600160e01b03166323b872dd60e01b17815292518251600094606094938a169392918291908083835b602083106130f45780518252601f1990920191602091820191016130d5565b6001836020036101000a0380198251168184511680821785525050505050509050019150506000604051808303816000865af19150503d8060008114613156576040519150601f19603f3d011682016040523d82523d6000602084013e61315b565b606091505b5091509150818015613189575080511580613189575080806020019051602081101561318657600080fd5b50515b6112215760405162461bcd60e51b81526004018080602001828103825260248152602001806145326024913960400191505060405180910390fd5b6001600160a01b038085166000908152601c6020526040808220928616825290206131ee8661409d565b6134e85760006131fc6140bd565b90506000600d60069054906101000a900463ffffffff1663ffffffff166001141561324e5750825460ff60d01b19168355601a80546001600160a01b0319166001600160a01b038916179055856133e9565b600d546005600160501b90910461ffff1610156132e55750825460ff60d01b1916600160d01b1783556001600160a01b038681166000908152601c6020908152604080832081518083019092528b851682528183018981526007909101805460018181018355918652939094209151600290930290910180546001600160a01b0319169290941691909117835551910155856133e9565b835460ff60d01b1916600160d11b17845560068301546003600160a01b90910461ffff9081168281049290069081166133da5788925061ffff82161561336d576001600160a01b0383166000908152601c60205260409020600701805442919061ffff60001986011690811061335757fe5b9060005260206000209060020201600101819055505b6001600160a01b038381166000908152601c6020908152604080832081518083019092528e851682528183018481526007909101805460018082018355918652939094209151600290930290910180546001600160a01b03191692909416919091178355519101556133e6565b6133e3896141d0565b92505b50505b60068084018054600161ffff600160a01b808404821692909201811690910261ffff60a01b1992831617909255865463ffffffff861663ffffffff196001600160a01b03808e16600160301b026601000000000000600160d01b031990941693909317168117808a55600d5460048b018d905560ff60e01b19600160201b600160501b9092049096160265ffff0000000019909116179390931688556000600589015592870180549385166001600160a01b031990941693909317169091556207aae710156134e15763ffffffff82166000908152601b6020526040902080546001600160a01b0319166001600160a01b038a161790555b50506134f3565b600482018054850190555b60006135028360040154614005565b90506103e8601d6001830360ff168154811061351a57fe5b9060005260206000209060040201600301548460040154028161353957fe5b046003840155825460ff828116600160d81b0260ff60d81b19909216919091178455601e80546103e86012898102829004909201909255601f805460208a0284900401905580546014890283900401905560158054600f89029290920491820190556018805490910190558354600291600160d01b90910416818111156135bc57fe5b141561362157600060018354600160d01b900460ff1660028111156135dd57fe5b14156135ea575081613610565b60006135f588614234565b6001600160a01b03166000908152601c602052604090209150505b60050180546103e860288802040190555b600183810186905560028085018690556040805160808101825287815260048088015460208084019182529383018b81528954600160d81b900460ff166060850190815260088b018054808a018255600091825287822096519502909501938455915196830196909655945193810193909355925160039092019190915554600f5490919042816136ae57fe5b06420390508161378b576040805160808101825282815260208082018a815260009383018481526060840185815283546001810185559390955292517fc97bfaf2f8ee708c303a06d134f5ecd8389ae0432af62dc132a24118292866bb600490930292830155517fc97bfaf2f8ee708c303a06d134f5ecd8389ae0432af62dc132a24118292866bc82015590517fc97bfaf2f8ee708c303a06d134f5ecd8389ae0432af62dc132a24118292866bd82015590517fc97bfaf2f8ee708c303a06d134f5ecd8389ae0432af62dc132a24118292866be909101556138df565b60006137b8602060018503815481106137a057fe5b90600052602060002090600402016001015489612261565b905081602060018503815481106137cb57fe5b906000526020600020906004020160000154141561380e5780602060018503815481106137f457fe5b9060005260206000209060040201600101819055506138dd565b60408051608081018252838152602080820184815260009383018481526060840185815283546001810185559390955292517fc97bfaf2f8ee708c303a06d134f5ecd8389ae0432af62dc132a24118292866bb600490930292830155517fc97bfaf2f8ee708c303a06d134f5ecd8389ae0432af62dc132a24118292866bc82015590517fc97bfaf2f8ee708c303a06d134f5ecd8389ae0432af62dc132a24118292866bd82015590517fc97bfaf2f8ee708c303a06d134f5ecd8389ae0432af62dc132a24118292866be909101555b505b505050505050505050565b601180546001600160a01b0319166001600160a01b0392909216919091179055565b61391461428b565b61391c61428b565b6001600160a01b0384166000818152601c602052604090209082528060015b60078201541580159061394d57508581105b156139c45760008260070160008154811061396457fe5b600091825260209091206002909102015460018301926001600160a01b039091169150819086906014811061399557fe5b6001600160a01b039283166020918202929092019190915291166000908152601c90915260409020915061393b565b509195945050505050565b6001600160a01b0383166000908152601c602052604081206008810154829190805b8015613af9576000836008016001830381548110613a0b57fe5b600091825260208220600490910201805490925090838514613a4d57856008018481548110613a3657fe5b906000526020600020906004020160000154613a4f565b425b9050808a1180613a5e57508189105b15613a6b57505050613af1565b89821015613a77578991505b88811115613a825750875b60008282039050613ad4886305265c0083601d600189600301540381548110613aa757fe5b6000918252602090912060026004909202010154600189015460ff909116020281613ace57fe5b04612261565b9750600084600201541215613aec5750505050613af9565b505050505b6001016139f1565b50919695505050505050565b60008060005b602254811015613c4357600060228281548110613b2457fe5b90600052602060002001600081548110613b3a57fe5b6000918252602082200154600d549092506103e890600160501b900461ffff168302048201905085811415613c3957600d546064600160501b90910461ffff161115613be85760228381548110613b8d57fe5b90600052602060002001600181548110613ba357fe5b906000526020600020015460228481548110613bbb57fe5b90600052602060002001600381548110613bd157fe5b906000526020600020015494509450505050613c4c565b60228381548110613bf557fe5b90600052602060002001600181548110613c0b57fe5b906000526020600020015460228481548110613c2357fe5b90600052602060002001600281548110613bd157fe5b5050600101613b0b565b50600080915091505b915091565b6001600160a01b038087166000908152602360205260409020805490911615613d22578054600160a01b900460ff1615613cdc5780546001600160a01b03878116911614613cdc576040805162461bcd60e51b8152602060048201526013602482015272496e76616c69645f5265666572616c4c696e6b60681b604482015290519081900360640190fd5b6001600160a01b038087166000818152602460209081526040822080546001810182559083529120018054928a166001600160a01b031993841617905582549091161781555b8054600160a01b900460ff1615613d5f57805460ff60a01b1916600160a01b60ff8616021781556001808201839055602680549091019055613d80565b805460ff600160a01b808304821687019091160260ff60a01b199091161781555b50506025805460ff93909316909201909155601e80546064600a909302929092049091019055601280546103e86014840281900490910190915560158054600f9093029190910491820190556018805490910190555050565b6001600160a01b038216613e34576040805162461bcd60e51b815260206004820152601f60248201527f48524332303a206d696e7420746f20746865207a65726f206164647265737300604482015290519081900360640190fd5b600454600354613e449083612261565b10613e96576040805162461bcd60e51b815260206004820181905260248201527f48524332303a20616c72656164792072656163686564206d6178537570706c79604482015290519081900360640190fd5b600354613ea39082612261565b6003556001600160a01b038216600090815260016020526040902054613ec99082612261565b6001600160a01b03831660008181526001602090815260408083209490945583518581529351929391927fddf252ad1be2c89b69c2b068fc378daa952ba7f163c4a11628f55a4df523b3ef9281900390910190a35050565b601480546001600160a01b0319166001600160a01b0392909216919091179055565b601780546001600160a01b0319166001600160a01b0392909216919091179055565b6001600160a01b038116613faa5760405162461bcd60e51b81526004018080602001828103825260268152602001806142cd6026913960400191505060405180910390fd5b600080546040516001600160a01b03808516939216917f8be0079c531659141344cd1fd0a4f28419497f9722a3daafe3b4186f6b6457e091a3600080546001600160a01b0319166001600160a01b0392909216919091179055565b600080805b601d548110156121eb57601d805482810391600091600019840190811061402d57fe5b906000526020600020906004020190508060010154861115614051575091506121eb565b505060010161400a565b6000610b7a83836040518060400160405280601e81526020017f536166654d6174683a207375627472616374696f6e206f766572666c6f7700008152506125b2565b6001600160a01b03166000908152601c6020526040902060010154151590565b6000806103e9600d600a9054906101000a900461ffff1661ffff16106140f457600d54600160501b900461ffff166107d003614103565b600d54600160501b900461ffff165b600d5461ffff9182169250600160601b90041681141561416f57600d8054600161ffff600160501b808404821692909201160261ffff60501b19909116179055600c54600b546141539190612261565b600c55600d805461ffff60601b1916600160601b179055614196565b600d8054600161ffff600160601b808404821692909201160261ffff60601b199091161790555b5050600d805469ffffffff000000000000198116600160301b9182900463ffffffff90811660010181168302919091179283905591041690565b6001600160a01b0381166000908152601c6020526040812060078101546141fa5782915050610a69565b61422c8160070160008154811061420d57fe5b60009182526020909120600290910201546001600160a01b03166141d0565b915050610a69565b6001600160a01b0381166000908152601c6020526040812060018154600160d01b900460ff16600281111561426557fe5b14156142745782915050610a69565b600681015461422c906001600160a01b0316614234565b604051806102800160405280601490602082028036833750919291505056fe48524332303a20617070726f766520746f20746865207a65726f20616464726573734f776e61626c653a206e6577206f776e657220697320746865207a65726f206164647265737348524332303a207472616e736665722066726f6d20746865207a65726f206164647265737348524332303a207472616e7366657220616d6f756e7420657863656564732062616c616e6365506c61736d6174696347616d653a206f766572666c6f775f746f74616c5f6d696e65506c61736d6174696347616d653a20416c72656164795f446566696e65645f4c656548524332303a2064656372656173656420616c6c6f77616e63652062656c6f77207a65726f48524332303a207472616e7366657220616d6f756e74206578636565647320616c6c6f77616e636548524332303a206275726e2066726f6d20746865207a65726f2061646472657373506c61736d6174696347616d653a20416c72656164795f446566696e65645f41646d696e506c61736d6174696347616d653a20696e76616c69645f7265666572616c5f6c696e6b4f776e61626c653a2063616c6c6572206973206e6f7420746865206f776e657248524332303a207472616e7366657220746f20746865207a65726f2061646472657373506c61736d6174696347616d653a204e6565645f504e6f64655f726566657265616c5f6c696e6b506c61736d6174696347616d653a204e6565645f41646d696e5f726566657265616c5f6c696e6b506c61736d6174696347616d653a20416c72656164795f446566696e65645f5a68616e6748524332303a206275726e20616d6f756e7420657863656564732062616c616e636548524332303a20617070726f76652066726f6d20746865207a65726f20616464726573735472616e7366657248656c7065723a205452414e534645525f46524f4d5f4641494c4544506c61736d6174696347616d653a20496e76616c69645f73656e646572000000a2646970667358221220dd0637cb70da27637b4d8a97dfe9b8177832e6326563ebdbea570486cbfd170364736f6c634300060c0033",
			"opcodes": "PUSH1 0x0 PUSH1 0x8 SWAP1 DUP2 SSTORE PUSH1 0x9 DUP1 SLOAD PUSH20 0x5E17B14ADD6C386305A32928F985B29BBA34EFF5 PUSH1 0x1 PUSH1 0x1 PUSH1 0xA0 SHL SUB NOT SWAP1 SWAP2 AND OR PUSH1 0xFF PUSH1 0xA0 SHL NOT AND PUSH1 0x3 PUSH1 0xA1 SHL OR SWAP1 DUP2 SWAP1 SSTORE PUSH1 0xFF PUSH1 0x1 PUSH1 0xA0 SHL SWAP1 SWAP2 DIV AND PUSH1 0xA SWAP1 DUP2 EXP DUP1 DUP3 SSTORE PUSH1 0x64 DUP1 DUP3 DIV PUSH1 0xB SSTORE SWAP2 SWAP1 DIV PUSH1 0xC SSTORE PUSH1 0xD DUP1 SLOAD PUSH2 0x7CF PUSH2 0xFFFF NOT SWAP1 SWAP2 AND OR PUSH6 0xFFFFFFFF0000 NOT AND PUSH5 0xF42400000 OR PUSH1 0x1 PUSH1 0x30 SHL PUSH1 0x1 PUSH1 0x78 SHL SUB NOT AND SWAP1 SSTORE PUSH4 0x1ABBC00 PUSH1 0xE SSTORE PUSH3 0x1FA40 PUSH1 0xF SWAP1 DUP2 SSTORE PUSH1 0x1 PUSH2 0x120 DUP2 DUP2 MSTORE PUSH2 0x140 SWAP2 SWAP1 SWAP2 MSTORE PUSH1 0xC8 PUSH2 0x160 MSTORE PUSH1 0x80 SWAP1 DUP2 MSTORE PUSH1 0x2 PUSH2 0x180 DUP2 DUP2 MSTORE PUSH2 0x1A0 SWAP2 SWAP1 SWAP2 MSTORE PUSH1 0x96 PUSH2 0x1C0 MSTORE PUSH1 0xA0 MSTORE PUSH1 0x3 PUSH2 0x1E0 SWAP1 DUP2 MSTORE PUSH1 0x7 PUSH2 0x200 MSTORE PUSH2 0x220 SWAP4 SWAP1 SWAP4 MSTORE PUSH1 0xC0 SWAP3 SWAP1 SWAP3 MSTORE PUSH2 0x240 SWAP3 DUP4 MSTORE PUSH2 0x260 MSTORE PUSH1 0x32 PUSH2 0x280 MSTORE PUSH1 0xE0 SWAP2 SWAP1 SWAP2 MSTORE PUSH2 0x300 PUSH1 0x40 MSTORE PUSH1 0x10 PUSH2 0x2A0 DUP2 DUP2 MSTORE PUSH1 0x14 PUSH2 0x2C0 DUP2 SWAP1 MSTORE PUSH2 0x2E0 MSTORE PUSH2 0x100 MSTORE PUSH3 0x12B SWAP2 PUSH1 0x5 PUSH3 0x875 JUMP JUMPDEST POP PUSH1 0x40 DUP1 MLOAD PUSH2 0x100 DUP2 ADD DUP3 MSTORE PUSH1 0x9 SLOAD PUSH1 0x1 PUSH1 0xA0 SHL SWAP1 DIV PUSH1 0xFF AND PUSH1 0xA SWAP1 DUP2 EXP PUSH2 0x3A98 DUP2 MUL PUSH1 0x80 DUP1 DUP6 ADD SWAP2 DUP3 MSTORE PUSH1 0x64 PUSH1 0xA0 DUP7 ADD DUP2 SWAP1 MSTORE PUSH1 0xC0 DUP7 ADD DUP2 SWAP1 MSTORE PUSH1 0x1E PUSH1 0xE0 DUP8 ADD MSTORE SWAP2 DUP6 MSTORE DUP6 MLOAD DUP1 DUP3 ADD DUP8 MSTORE PUSH2 0x1D4C DUP5 MUL DUP2 MSTORE PUSH1 0x32 PUSH1 0x20 DUP1 DUP4 ADD DUP3 SWAP1 MSTORE DUP3 DUP10 ADD SWAP2 SWAP1 SWAP2 MSTORE PUSH1 0x14 PUSH1 0x60 DUP1 DUP5 ADD SWAP2 SWAP1 SWAP2 MSTORE DUP2 DUP9 ADD SWAP3 SWAP1 SWAP3 MSTORE DUP8 MLOAD DUP1 DUP5 ADD DUP10 MSTORE PUSH2 0xDAC DUP7 MUL DUP2 MSTORE PUSH1 0x19 DUP2 DUP4 ADD DUP2 SWAP1 MSTORE DUP2 DUP11 ADD MSTORE DUP1 DUP4 ADD DUP8 SWAP1 MSTORE DUP8 DUP10 ADD MSTORE DUP8 MLOAD SWAP3 DUP4 ADD DUP9 MSTORE SWAP3 SWAP1 SWAP4 MUL DUP2 MSTORE PUSH1 0x5 SWAP2 DUP2 ADD DUP3 SWAP1 MSTORE SWAP5 DUP6 ADD SWAP3 SWAP1 SWAP3 MSTORE DUP4 DUP2 ADD SWAP2 SWAP1 SWAP2 MSTORE DUP2 ADD SWAP2 SWAP1 SWAP2 MSTORE PUSH3 0x1FE SWAP1 PUSH1 0x22 SWAP1 PUSH1 0x4 PUSH3 0x8D3 JUMP JUMPDEST POP CALLVALUE DUP1 ISZERO PUSH3 0x20C JUMPI PUSH1 0x0 DUP1 REVERT JUMPDEST POP PUSH1 0x40 MLOAD DUP1 PUSH1 0x40 ADD PUSH1 0x40 MSTORE DUP1 PUSH1 0xB DUP2 MSTORE PUSH1 0x20 ADD PUSH11 0x544C42205374616B696E67 PUSH1 0xA8 SHL DUP2 MSTORE POP PUSH1 0x40 MLOAD DUP1 PUSH1 0x40 ADD PUSH1 0x40 MSTORE DUP1 PUSH1 0x3 DUP2 MSTORE PUSH1 0x20 ADD PUSH3 0x2A2621 PUSH1 0xE9 SHL DUP2 MSTORE POP PUSH1 0x4 PUSH5 0x519577B000 PUSH1 0x0 PUSH3 0x267 PUSH3 0x692 PUSH1 0x20 SHL PUSH1 0x20 SHR JUMP JUMPDEST PUSH1 0x0 DUP1 SLOAD PUSH1 0x1 PUSH1 0x1 PUSH1 0xA0 SHL SUB NOT AND PUSH1 0x1 PUSH1 0x1 PUSH1 0xA0 SHL SUB DUP4 AND SWAP1 DUP2 OR DUP3 SSTORE PUSH1 0x40 MLOAD SWAP3 SWAP4 POP SWAP2 PUSH32 0x8BE0079C531659141344CD1FD0A4F28419497F9722A3DAAFE3B4186F6B6457E0 SWAP1 DUP3 SWAP1 LOG3 POP DUP4 MLOAD PUSH3 0x2C6 SWAP1 PUSH1 0x5 SWAP1 PUSH1 0x20 DUP8 ADD SWAP1 PUSH3 0x92D JUMP JUMPDEST POP DUP3 MLOAD PUSH3 0x2DC SWAP1 PUSH1 0x6 SWAP1 PUSH1 0x20 DUP7 ADD SWAP1 PUSH3 0x92D JUMP JUMPDEST POP PUSH1 0x7 DUP1 SLOAD PUSH1 0xFF NOT AND PUSH1 0xFF SWAP4 SWAP1 SWAP4 AND SWAP3 SWAP1 SWAP3 OR SWAP1 SWAP2 SSTORE PUSH1 0x4 SSTORE POP PUSH1 0x0 SWAP1 POP PUSH1 0x64 PUSH3 0x306 PUSH3 0x696 JUMP JUMPDEST PUSH1 0x14 MUL DUP2 PUSH3 0x311 JUMPI INVALID JUMPDEST DIV SWAP1 POP PUSH3 0x320 CALLER DUP3 PUSH3 0x69C JUMP JUMPDEST PUSH1 0x1D PUSH1 0x40 MLOAD DUP1 PUSH1 0xA0 ADD PUSH1 0x40 MSTORE DUP1 PUSH1 0x1 PUSH1 0xFF AND DUP2 MSTORE PUSH1 0x20 ADD PUSH1 0xC8 DUP2 MSTORE PUSH1 0x20 ADD PUSH1 0x10 PUSH1 0xFF AND DUP2 MSTORE PUSH1 0x20 ADD PUSH1 0x2 PUSH1 0xFF AND DUP2 MSTORE PUSH1 0x20 ADD PUSH2 0x898 DUP2 MSTORE POP SWAP1 DUP1 PUSH1 0x1 DUP2 SLOAD ADD DUP1 DUP3 SSTORE DUP1 SWAP2 POP POP PUSH1 0x1 SWAP1 SUB SWAP1 PUSH1 0x0 MSTORE PUSH1 0x20 PUSH1 0x0 KECCAK256 SWAP1 PUSH1 0x4 MUL ADD PUSH1 0x0 SWAP1 SWAP2 SWAP1 SWAP2 SWAP1 SWAP2 POP PUSH1 0x0 DUP3 ADD MLOAD DUP2 PUSH1 0x0 ADD PUSH1 0x0 PUSH2 0x100 EXP DUP2 SLOAD DUP2 PUSH1 0xFF MUL NOT AND SWAP1 DUP4 PUSH1 0xFF AND MUL OR SWAP1 SSTORE POP PUSH1 0x20 DUP3 ADD MLOAD DUP2 PUSH1 0x1 ADD SSTORE PUSH1 0x40 DUP3 ADD MLOAD DUP2 PUSH1 0x2 ADD PUSH1 0x0 PUSH2 0x100 EXP DUP2 SLOAD DUP2 PUSH1 0xFF MUL NOT AND SWAP1 DUP4 PUSH1 0xFF AND MUL OR SWAP1 SSTORE POP PUSH1 0x60 DUP3 ADD MLOAD DUP2 PUSH1 0x2 ADD PUSH1 0x1 PUSH2 0x100 EXP DUP2 SLOAD DUP2 PUSH1 0xFF MUL NOT AND SWAP1 DUP4 PUSH1 0xFF AND MUL OR SWAP1 SSTORE POP PUSH1 0x80 DUP3 ADD MLOAD DUP2 PUSH1 0x3 ADD SSTORE POP POP PUSH1 0x1D PUSH1 0x40 MLOAD DUP1 PUSH1 0xA0 ADD PUSH1 0x40 MSTORE DUP1 PUSH1 0x2 PUSH1 0xFF AND DUP2 MSTORE PUSH1 0x20 ADD PUSH2 0x3E9 DUP2 MSTORE PUSH1 0x20 ADD PUSH1 0xC PUSH1 0xFF AND DUP2 MSTORE PUSH1 0x20 ADD PUSH1 0x3 PUSH1 0xFF AND DUP2 MSTORE PUSH1 0x20 ADD PUSH2 0x834 DUP2 MSTORE POP SWAP1 DUP1 PUSH1 0x1 DUP2 SLOAD ADD DUP1 DUP3 SSTORE DUP1 SWAP2 POP POP PUSH1 0x1 SWAP1 SUB SWAP1 PUSH1 0x0 MSTORE PUSH1 0x20 PUSH1 0x0 KECCAK256 SWAP1 PUSH1 0x4 MUL ADD PUSH1 0x0 SWAP1 SWAP2 SWAP1 SWAP2 SWAP1 SWAP2 POP PUSH1 0x0 DUP3 ADD MLOAD DUP2 PUSH1 0x0 ADD PUSH1 0x0 PUSH2 0x100 EXP DUP2 SLOAD DUP2 PUSH1 0xFF MUL NOT AND SWAP1 DUP4 PUSH1 0xFF AND MUL OR SWAP1 SSTORE POP PUSH1 0x20 DUP3 ADD MLOAD DUP2 PUSH1 0x1 ADD SSTORE PUSH1 0x40 DUP3 ADD MLOAD DUP2 PUSH1 0x2 ADD PUSH1 0x0 PUSH2 0x100 EXP DUP2 SLOAD DUP2 PUSH1 0xFF MUL NOT AND SWAP1 DUP4 PUSH1 0xFF AND MUL OR SWAP1 SSTORE POP PUSH1 0x60 DUP3 ADD MLOAD DUP2 PUSH1 0x2 ADD PUSH1 0x1 PUSH2 0x100 EXP DUP2 SLOAD DUP2 PUSH1 0xFF MUL NOT AND SWAP1 DUP4 PUSH1 0xFF AND MUL OR SWAP1 SSTORE POP PUSH1 0x80 DUP3 ADD MLOAD DUP2 PUSH1 0x3 ADD SSTORE POP POP PUSH1 0x1D PUSH1 0x40 MLOAD DUP1 PUSH1 0xA0 ADD PUSH1 0x40 MSTORE DUP1 PUSH1 0x3 PUSH1 0xFF AND DUP2 MSTORE PUSH1 0x20 ADD PUSH2 0x7D1 DUP2 MSTORE PUSH1 0x20 ADD PUSH1 0xA PUSH1 0xFF AND DUP2 MSTORE PUSH1 0x20 ADD PUSH1 0x4 PUSH1 0xFF AND DUP2 MSTORE PUSH1 0x20 ADD PUSH2 0x7D0 DUP2 MSTORE POP SWAP1 DUP1 PUSH1 0x1 DUP2 SLOAD ADD DUP1 DUP3 SSTORE DUP1 SWAP2 POP POP PUSH1 0x1 SWAP1 SUB SWAP1 PUSH1 0x0 MSTORE PUSH1 0x20 PUSH1 0x0 KECCAK256 SWAP1 PUSH1 0x4 MUL ADD PUSH1 0x0 SWAP1 SWAP2 SWAP1 SWAP2 SWAP1 SWAP2 POP PUSH1 0x0 DUP3 ADD MLOAD DUP2 PUSH1 0x0 ADD PUSH1 0x0 PUSH2 0x100 EXP DUP2 SLOAD DUP2 PUSH1 0xFF MUL NOT AND SWAP1 DUP4 PUSH1 0xFF AND MUL OR SWAP1 SSTORE POP PUSH1 0x20 DUP3 ADD MLOAD DUP2 PUSH1 0x1 ADD SSTORE PUSH1 0x40 DUP3 ADD MLOAD DUP2 PUSH1 0x2 ADD PUSH1 0x0 PUSH2 0x100 EXP DUP2 SLOAD DUP2 PUSH1 0xFF MUL NOT AND SWAP1 DUP4 PUSH1 0xFF AND MUL OR SWAP1 SSTORE POP PUSH1 0x60 DUP3 ADD MLOAD DUP2 PUSH1 0x2 ADD PUSH1 0x1 PUSH2 0x100 EXP DUP2 SLOAD DUP2 PUSH1 0xFF MUL NOT AND SWAP1 DUP4 PUSH1 0xFF AND MUL OR SWAP1 SSTORE POP PUSH1 0x80 DUP3 ADD MLOAD DUP2 PUSH1 0x3 ADD SSTORE POP POP PUSH1 0x1D PUSH1 0x40 MLOAD DUP1 PUSH1 0xA0 ADD PUSH1 0x40 MSTORE DUP1 PUSH1 0x4 PUSH1 0xFF AND DUP2 MSTORE PUSH1 0x20 ADD PUSH2 0x1389 DUP2 MSTORE PUSH1 0x20 ADD PUSH1 0x8 PUSH1 0xFF AND DUP2 MSTORE PUSH1 0x20 ADD PUSH1 0x5 PUSH1 0xFF AND DUP2 MSTORE PUSH1 0x20 ADD PUSH2 0x76C DUP2 MSTORE POP SWAP1 DUP1 PUSH1 0x1 DUP2 SLOAD ADD DUP1 DUP3 SSTORE DUP1 SWAP2 POP POP PUSH1 0x1 SWAP1 SUB SWAP1 PUSH1 0x0 MSTORE PUSH1 0x20 PUSH1 0x0 KECCAK256 SWAP1 PUSH1 0x4 MUL ADD PUSH1 0x0 SWAP1 SWAP2 SWAP1 SWAP2 SWAP1 SWAP2 POP PUSH1 0x0 DUP3 ADD MLOAD DUP2 PUSH1 0x0 ADD PUSH1 0x0 PUSH2 0x100 EXP DUP2 SLOAD DUP2 PUSH1 0xFF MUL NOT AND SWAP1 DUP4 PUSH1 0xFF AND MUL OR SWAP1 SSTORE POP PUSH1 0x20 DUP3 ADD MLOAD DUP2 PUSH1 0x1 ADD SSTORE PUSH1 0x40 DUP3 ADD MLOAD DUP2 PUSH1 0x2 ADD PUSH1 0x0 PUSH2 0x100 EXP DUP2 SLOAD DUP2 PUSH1 0xFF MUL NOT AND SWAP1 DUP4 PUSH1 0xFF AND MUL OR SWAP1 SSTORE POP PUSH1 0x60 DUP3 ADD MLOAD DUP2 PUSH1 0x2 ADD PUSH1 0x1 PUSH2 0x100 EXP DUP2 SLOAD DUP2 PUSH1 0xFF MUL NOT AND SWAP1 DUP4 PUSH1 0xFF AND MUL OR SWAP1 SSTORE POP PUSH1 0x80 DUP3 ADD MLOAD DUP2 PUSH1 0x3 ADD SSTORE POP POP POP PUSH3 0xB52 JUMP JUMPDEST CALLER SWAP1 JUMP JUMPDEST PUSH1 0x4 SLOAD SWAP1 JUMP JUMPDEST PUSH1 0x1 PUSH1 0x1 PUSH1 0xA0 SHL SUB DUP3 AND PUSH3 0x6F8 JUMPI PUSH1 0x40 DUP1 MLOAD PUSH3 0x461BCD PUSH1 0xE5 SHL DUP2 MSTORE PUSH1 0x20 PUSH1 0x4 DUP3 ADD MSTORE PUSH1 0x1F PUSH1 0x24 DUP3 ADD MSTORE PUSH32 0x48524332303A206D696E7420746F20746865207A65726F206164647265737300 PUSH1 0x44 DUP3 ADD MSTORE SWAP1 MLOAD SWAP1 DUP2 SWAP1 SUB PUSH1 0x64 ADD SWAP1 REVERT JUMPDEST PUSH1 0x4 SLOAD PUSH3 0x717 DUP3 PUSH1 0x3 SLOAD PUSH3 0x813 PUSH1 0x20 SHL PUSH3 0x2261 OR SWAP1 SWAP2 SWAP1 PUSH1 0x20 SHR JUMP JUMPDEST LT PUSH3 0x76A JUMPI PUSH1 0x40 DUP1 MLOAD PUSH3 0x461BCD PUSH1 0xE5 SHL DUP2 MSTORE PUSH1 0x20 PUSH1 0x4 DUP3 ADD DUP2 SWAP1 MSTORE PUSH1 0x24 DUP3 ADD MSTORE PUSH32 0x48524332303A20616C72656164792072656163686564206D6178537570706C79 PUSH1 0x44 DUP3 ADD MSTORE SWAP1 MLOAD SWAP1 DUP2 SWAP1 SUB PUSH1 0x64 ADD SWAP1 REVERT JUMPDEST PUSH3 0x786 DUP2 PUSH1 0x3 SLOAD PUSH3 0x813 PUSH1 0x20 SHL PUSH3 0x2261 OR SWAP1 SWAP2 SWAP1 PUSH1 0x20 SHR JUMP JUMPDEST PUSH1 0x3 SSTORE PUSH1 0x1 PUSH1 0x1 PUSH1 0xA0 SHL SUB DUP3 AND PUSH1 0x0 SWAP1 DUP2 MSTORE PUSH1 0x1 PUSH1 0x20 SWAP1 DUP2 MSTORE PUSH1 0x40 SWAP1 SWAP2 KECCAK256 SLOAD PUSH3 0x7BB SWAP2 DUP4 SWAP1 PUSH3 0x2261 PUSH3 0x813 DUP3 SHL OR SWAP1 SHR JUMP JUMPDEST PUSH1 0x1 PUSH1 0x1 PUSH1 0xA0 SHL SUB DUP4 AND PUSH1 0x0 DUP2 DUP2 MSTORE PUSH1 0x1 PUSH1 0x20 SWAP1 DUP2 MSTORE PUSH1 0x40 DUP1 DUP4 KECCAK256 SWAP5 SWAP1 SWAP5 SSTORE DUP4 MLOAD DUP6 DUP2 MSTORE SWAP4 MLOAD SWAP3 SWAP4 SWAP2 SWAP3 PUSH32 0xDDF252AD1BE2C89B69C2B068FC378DAA952BA7F163C4A11628F55A4DF523B3EF SWAP3 DUP2 SWAP1 SUB SWAP1 SWAP2 ADD SWAP1 LOG3 POP POP JUMP JUMPDEST PUSH1 0x0 DUP3 DUP3 ADD DUP4 DUP2 LT ISZERO PUSH3 0x86E JUMPI PUSH1 0x40 DUP1 MLOAD PUSH3 0x461BCD PUSH1 0xE5 SHL DUP2 MSTORE PUSH1 0x20 PUSH1 0x4 DUP3 ADD MSTORE PUSH1 0x1B PUSH1 0x24 DUP3 ADD MSTORE PUSH32 0x536166654D6174683A206164646974696F6E206F766572666C6F770000000000 PUSH1 0x44 DUP3 ADD MSTORE SWAP1 MLOAD SWAP1 DUP2 SWAP1 SUB PUSH1 0x64 ADD SWAP1 REVERT JUMPDEST SWAP4 SWAP3 POP POP POP JUMP JUMPDEST DUP3 DUP1 SLOAD DUP3 DUP3 SSTORE SWAP1 PUSH1 0x0 MSTORE PUSH1 0x20 PUSH1 0x0 KECCAK256 SWAP1 DUP2 ADD SWAP3 DUP3 ISZERO PUSH3 0x8C1 JUMPI SWAP2 PUSH1 0x20 MUL DUP3 ADD JUMPDEST DUP3 DUP2 GT ISZERO PUSH3 0x8C1 JUMPI DUP3 MLOAD PUSH3 0x8B0 SWAP1 DUP4 SWAP1 PUSH1 0x3 PUSH3 0x9AE JUMP JUMPDEST POP SWAP2 PUSH1 0x20 ADD SWAP2 SWAP1 PUSH1 0x1 ADD SWAP1 PUSH3 0x896 JUMP JUMPDEST POP PUSH3 0x8CF SWAP3 SWAP2 POP PUSH3 0xA57 JUMP JUMPDEST POP SWAP1 JUMP JUMPDEST DUP3 DUP1 SLOAD DUP3 DUP3 SSTORE SWAP1 PUSH1 0x0 MSTORE PUSH1 0x20 PUSH1 0x0 KECCAK256 SWAP1 DUP2 ADD SWAP3 DUP3 ISZERO PUSH3 0x91F JUMPI SWAP2 PUSH1 0x20 MUL DUP3 ADD JUMPDEST DUP3 DUP2 GT ISZERO PUSH3 0x91F JUMPI DUP3 MLOAD PUSH3 0x90E SWAP1 DUP4 SWAP1 PUSH1 0x4 PUSH3 0xA78 JUMP JUMPDEST POP SWAP2 PUSH1 0x20 ADD SWAP2 SWAP1 PUSH1 0x1 ADD SWAP1 PUSH3 0x8F4 JUMP JUMPDEST POP PUSH3 0x8CF SWAP3 SWAP2 POP PUSH3 0xAB5 JUMP JUMPDEST DUP3 DUP1 SLOAD PUSH1 0x1 DUP2 PUSH1 0x1 AND ISZERO PUSH2 0x100 MUL SUB AND PUSH1 0x2 SWAP1 DIV SWAP1 PUSH1 0x0 MSTORE PUSH1 0x20 PUSH1 0x0 KECCAK256 SWAP1 PUSH1 0x1F ADD PUSH1 0x20 SWAP1 DIV DUP2 ADD SWAP3 DUP3 PUSH1 0x1F LT PUSH3 0x970 JUMPI DUP1 MLOAD PUSH1 0xFF NOT AND DUP4 DUP1 ADD OR DUP6 SSTORE PUSH3 0x9A0 JUMP JUMPDEST DUP3 DUP1 ADD PUSH1 0x1 ADD DUP6 SSTORE DUP3 ISZERO PUSH3 0x9A0 JUMPI SWAP2 DUP3 ADD JUMPDEST DUP3 DUP2 GT ISZERO PUSH3 0x9A0 JUMPI DUP3 MLOAD DUP3 SSTORE SWAP2 PUSH1 0x20 ADD SWAP2 SWAP1 PUSH1 0x1 ADD SWAP1 PUSH3 0x983 JUMP JUMPDEST POP PUSH3 0x8CF SWAP3 SWAP2 POP PUSH3 0xAD6 JUMP JUMPDEST DUP3 DUP1 SLOAD DUP3 DUP3 SSTORE SWAP1 PUSH1 0x0 MSTORE PUSH1 0x20 PUSH1 0x0 KECCAK256 SWAP1 PUSH1 0x1F ADD PUSH1 0x20 SWAP1 DIV DUP2 ADD SWAP3 DUP3 ISZERO PUSH3 0xA49 JUMPI SWAP2 PUSH1 0x20 MUL DUP3 ADD PUSH1 0x0 JUMPDEST DUP4 DUP3 GT ISZERO PUSH3 0xA18 JUMPI DUP4 MLOAD DUP4 DUP3 PUSH2 0x100 EXP DUP2 SLOAD DUP2 PUSH1 0xFF MUL NOT AND SWAP1 DUP4 PUSH1 0xFF AND MUL OR SWAP1 SSTORE POP SWAP3 PUSH1 0x20 ADD SWAP3 PUSH1 0x1 ADD PUSH1 0x20 DUP2 PUSH1 0x0 ADD DIV SWAP3 DUP4 ADD SWAP3 PUSH1 0x1 SUB MUL PUSH3 0x9D8 JUMP JUMPDEST DUP1 ISZERO PUSH3 0xA47 JUMPI DUP3 DUP2 PUSH2 0x100 EXP DUP2 SLOAD SWAP1 PUSH1 0xFF MUL NOT AND SWAP1 SSTORE PUSH1 0x1 ADD PUSH1 0x20 DUP2 PUSH1 0x0 ADD DIV SWAP3 DUP4 ADD SWAP3 PUSH1 0x1 SUB MUL PUSH3 0xA18 JUMP JUMPDEST POP JUMPDEST POP PUSH3 0x8CF SWAP3 SWAP2 POP PUSH3 0xAED JUMP JUMPDEST DUP1 DUP3 GT ISZERO PUSH3 0x8CF JUMPI PUSH1 0x0 PUSH3 0xA6E DUP3 DUP3 PUSH3 0xB08 JUMP JUMPDEST POP PUSH1 0x1 ADD PUSH3 0xA57 JUMP JUMPDEST DUP3 DUP1 SLOAD DUP3 DUP3 SSTORE SWAP1 PUSH1 0x0 MSTORE PUSH1 0x20 PUSH1 0x0 KECCAK256 SWAP1 DUP2 ADD SWAP3 DUP3 ISZERO PUSH3 0x9A0 JUMPI SWAP2 PUSH1 0x20 MUL DUP3 ADD DUP3 DUP2 GT ISZERO PUSH3 0x9A0 JUMPI DUP3 MLOAD DUP3 SSTORE SWAP2 PUSH1 0x20 ADD SWAP2 SWAP1 PUSH1 0x1 ADD SWAP1 PUSH3 0x983 JUMP JUMPDEST DUP1 DUP3 GT ISZERO PUSH3 0x8CF JUMPI PUSH1 0x0 PUSH3 0xACC DUP3 DUP3 PUSH3 0xB32 JUMP JUMPDEST POP PUSH1 0x1 ADD PUSH3 0xAB5 JUMP JUMPDEST JUMPDEST DUP1 DUP3 GT ISZERO PUSH3 0x8CF JUMPI PUSH1 0x0 DUP2 SSTORE PUSH1 0x1 ADD PUSH3 0xAD7 JUMP JUMPDEST JUMPDEST DUP1 DUP3 GT ISZERO PUSH3 0x8CF JUMPI DUP1 SLOAD PUSH1 0xFF NOT AND DUP2 SSTORE PUSH1 0x1 ADD PUSH3 0xAEE JUMP JUMPDEST POP DUP1 SLOAD PUSH1 0x0 DUP3 SSTORE PUSH1 0x1F ADD PUSH1 0x20 SWAP1 DIV SWAP1 PUSH1 0x0 MSTORE PUSH1 0x20 PUSH1 0x0 KECCAK256 SWAP1 DUP2 ADD SWAP1 PUSH3 0xB2F SWAP2 SWAP1 PUSH3 0xAD6 JUMP JUMPDEST POP JUMP JUMPDEST POP DUP1 SLOAD PUSH1 0x0 DUP3 SSTORE SWAP1 PUSH1 0x0 MSTORE PUSH1 0x20 PUSH1 0x0 KECCAK256 SWAP1 DUP2 ADD SWAP1 PUSH3 0xB2F SWAP2 SWAP1 PUSH3 0xAD6 JUMP JUMPDEST PUSH2 0x45AB DUP1 PUSH3 0xB62 PUSH1 0x0 CODECOPY PUSH1 0x0 RETURN INVALID PUSH1 0x80 PUSH1 0x40 MSTORE CALLVALUE DUP1 ISZERO PUSH2 0x10 JUMPI PUSH1 0x0 DUP1 REVERT JUMPDEST POP PUSH1 0x4 CALLDATASIZE LT PUSH2 0x327 JUMPI PUSH1 0x0 CALLDATALOAD PUSH1 0xE0 SHR DUP1 PUSH4 0x7195FD1A GT PUSH2 0x1B8 JUMPI DUP1 PUSH4 0xA4D5F178 GT PUSH2 0x104 JUMPI DUP1 PUSH4 0xD5ABEB01 GT PUSH2 0xA2 JUMPI DUP1 PUSH4 0xE2CDE6B7 GT PUSH2 0x7C JUMPI DUP1 PUSH4 0xE2CDE6B7 EQ PUSH2 0x8DF JUMPI DUP1 PUSH4 0xEA064271 EQ PUSH2 0x905 JUMPI DUP1 PUSH4 0xF2FDE38B EQ PUSH2 0x92B JUMPI DUP1 PUSH4 0xFFE20A89 EQ PUSH2 0x951 JUMPI PUSH2 0x327 JUMP JUMPDEST DUP1 PUSH4 0xD5ABEB01 EQ PUSH2 0x8A1 JUMPI DUP1 PUSH4 0xDD62ED3E EQ PUSH2 0x8A9 JUMPI DUP1 PUSH4 0xE1B0E802 EQ PUSH2 0x8D7 JUMPI PUSH2 0x327 JUMP JUMPDEST DUP1 PUSH4 0xBFF1F9E1 GT PUSH2 0xDE JUMPI DUP1 PUSH4 0xBFF1F9E1 EQ PUSH2 0x84A JUMPI DUP1 PUSH4 0xC0BC43BB EQ PUSH2 0x86B JUMPI DUP1 PUSH4 0xC29B2A13 EQ PUSH2 0x873 JUMPI DUP1 PUSH4 0xC2BF23BD EQ PUSH2 0x899 JUMPI PUSH2 0x327 JUMP JUMPDEST DUP1 PUSH4 0xA4D5F178 EQ PUSH2 0x7D2 JUMPI DUP1 PUSH4 0xA9059CBB EQ PUSH2 0x7F8 JUMPI DUP1 PUSH4 0xADBD5FF9 EQ PUSH2 0x824 JUMPI PUSH2 0x327 JUMP JUMPDEST DUP1 PUSH4 0x966FF650 GT PUSH2 0x171 JUMPI DUP1 PUSH4 0xA01A58FF GT PUSH2 0x14B JUMPI DUP1 PUSH4 0xA01A58FF EQ PUSH2 0x764 JUMPI DUP1 PUSH4 0xA035B1FE EQ PUSH2 0x781 JUMPI DUP1 PUSH4 0xA0712D68 EQ PUSH2 0x789 JUMPI DUP1 PUSH4 0xA457C2D7 EQ PUSH2 0x7A6 JUMPI PUSH2 0x327 JUMP JUMPDEST DUP1 PUSH4 0x966FF650 EQ PUSH2 0x734 JUMPI DUP1 PUSH4 0x99F50B76 EQ PUSH2 0x73C JUMPI DUP1 PUSH4 0x9CA260FA EQ PUSH2 0x744 JUMPI PUSH2 0x327 JUMP JUMPDEST DUP1 PUSH4 0x7195FD1A EQ PUSH2 0x692 JUMPI DUP1 PUSH4 0x82492A76 EQ PUSH2 0x6D1 JUMPI DUP1 PUSH4 0x893D20E8 EQ PUSH2 0x6F0 JUMPI DUP1 PUSH4 0x8A43BB01 EQ PUSH2 0x6F8 JUMPI DUP1 PUSH4 0x8DA5CB5B EQ PUSH2 0x724 JUMPI DUP1 PUSH4 0x95D89B41 EQ PUSH2 0x72C JUMPI PUSH2 0x327 JUMP JUMPDEST DUP1 PUSH4 0x393319A8 GT PUSH2 0x277 JUMPI DUP1 PUSH4 0x6466BE46 GT PUSH2 0x230 JUMPI DUP1 PUSH4 0x6E9960C3 GT PUSH2 0x20A JUMPI DUP1 PUSH4 0x6E9960C3 EQ PUSH2 0x636 JUMPI DUP1 PUSH4 0x704B6C02 EQ PUSH2 0x63E JUMPI DUP1 PUSH4 0x70A08231 EQ PUSH2 0x664 JUMPI DUP1 PUSH4 0x715018A6 EQ PUSH2 0x68A JUMPI PUSH2 0x327 JUMP JUMPDEST DUP1 PUSH4 0x6466BE46 EQ PUSH2 0x61E JUMPI DUP1 PUSH4 0x6C58C80D EQ PUSH2 0x626 JUMPI DUP1 PUSH4 0x6D1DA431 EQ PUSH2 0x62E JUMPI PUSH2 0x327 JUMP JUMPDEST DUP1 PUSH4 0x393319A8 EQ PUSH2 0x571 JUMPI DUP1 PUSH4 0x39509351 EQ PUSH2 0x597 JUMPI DUP1 PUSH4 0x3CCFD60B EQ PUSH2 0x5C3 JUMPI DUP1 PUSH4 0x3EAAF86B EQ PUSH2 0x5CD JUMPI DUP1 PUSH4 0x47E7EF24 EQ PUSH2 0x5D5 JUMPI DUP1 PUSH4 0x5FD35854 EQ PUSH2 0x601 JUMPI PUSH2 0x327 JUMP JUMPDEST DUP1 PUSH4 0x21C12E44 GT PUSH2 0x2E4 JUMPI DUP1 PUSH4 0x255B9B72 GT PUSH2 0x2BE JUMPI DUP1 PUSH4 0x255B9B72 EQ PUSH2 0x4BB JUMPI DUP1 PUSH4 0x26F30460 EQ PUSH2 0x4E1 JUMPI DUP1 PUSH4 0x313CE567 EQ PUSH2 0x52F JUMPI DUP1 PUSH4 0x3558DCF1 EQ PUSH2 0x54D JUMPI PUSH2 0x327 JUMP JUMPDEST DUP1 PUSH4 0x21C12E44 EQ PUSH2 0x457 JUMPI DUP1 PUSH4 0x22F4596F EQ PUSH2 0x47D JUMPI DUP1 PUSH4 0x23B872DD EQ PUSH2 0x485 JUMPI PUSH2 0x327 JUMP JUMPDEST DUP1 PUSH4 0x373C909 EQ PUSH2 0x32C JUMPI DUP1 PUSH4 0x6FDDE03 EQ PUSH2 0x346 JUMPI DUP1 PUSH4 0x95EA7B3 EQ PUSH2 0x3C3 JUMPI DUP1 PUSH4 0x129DB3A6 EQ PUSH2 0x403 JUMPI DUP1 PUSH4 0x18160DDD EQ PUSH2 0x429 JUMPI DUP1 PUSH4 0x1D62EBD9 EQ PUSH2 0x431 JUMPI JUMPDEST PUSH1 0x0 DUP1 REVERT JUMPDEST PUSH2 0x334 PUSH2 0x977 JUMP JUMPDEST PUSH1 0x40 DUP1 MLOAD SWAP2 DUP3 MSTORE MLOAD SWAP1 DUP2 SWAP1 SUB PUSH1 0x20 ADD SWAP1 RETURN JUMPDEST PUSH2 0x34E PUSH2 0x97E JUMP JUMPDEST PUSH1 0x40 DUP1 MLOAD PUSH1 0x20 DUP1 DUP3 MSTORE DUP4 MLOAD DUP2 DUP4 ADD MSTORE DUP4 MLOAD SWAP2 SWAP3 DUP4 SWAP3 SWAP1 DUP4 ADD SWAP2 DUP6 ADD SWAP1 DUP1 DUP4 DUP4 PUSH1 0x0 JUMPDEST DUP4 DUP2 LT ISZERO PUSH2 0x388 JUMPI DUP2 DUP2 ADD MLOAD DUP4 DUP3 ADD MSTORE PUSH1 0x20 ADD PUSH2 0x370 JUMP JUMPDEST POP POP POP POP SWAP1 POP SWAP1 DUP2 ADD SWAP1 PUSH1 0x1F AND DUP1 ISZERO PUSH2 0x3B5 JUMPI DUP1 DUP3 SUB DUP1 MLOAD PUSH1 0x1 DUP4 PUSH1 0x20 SUB PUSH2 0x100 EXP SUB NOT AND DUP2 MSTORE PUSH1 0x20 ADD SWAP2 POP JUMPDEST POP SWAP3 POP POP POP PUSH1 0x40 MLOAD DUP1 SWAP2 SUB SWAP1 RETURN JUMPDEST PUSH2 0x3EF PUSH1 0x4 DUP1 CALLDATASIZE SUB PUSH1 0x40 DUP2 LT ISZERO PUSH2 0x3D9 JUMPI PUSH1 0x0 DUP1 REVERT JUMPDEST POP PUSH1 0x1 PUSH1 0x1 PUSH1 0xA0 SHL SUB DUP2 CALLDATALOAD AND SWAP1 PUSH1 0x20 ADD CALLDATALOAD PUSH2 0xA14 JUMP JUMPDEST PUSH1 0x40 DUP1 MLOAD SWAP2 ISZERO ISZERO DUP3 MSTORE MLOAD SWAP1 DUP2 SWAP1 SUB PUSH1 0x20 ADD SWAP1 RETURN JUMPDEST PUSH2 0x3EF PUSH1 0x4 DUP1 CALLDATASIZE SUB PUSH1 0x20 DUP2 LT ISZERO PUSH2 0x419 JUMPI PUSH1 0x0 DUP1 REVERT JUMPDEST POP CALLDATALOAD PUSH1 0x1 PUSH1 0x1 PUSH1 0xA0 SHL SUB AND PUSH2 0xA32 JUMP JUMPDEST PUSH2 0x334 PUSH2 0xA6E JUMP JUMPDEST PUSH2 0x334 PUSH1 0x4 DUP1 CALLDATASIZE SUB PUSH1 0x20 DUP2 LT ISZERO PUSH2 0x447 JUMPI PUSH1 0x0 DUP1 REVERT JUMPDEST POP CALLDATALOAD PUSH1 0x1 PUSH1 0x1 PUSH1 0xA0 SHL SUB AND PUSH2 0xA74 JUMP JUMPDEST PUSH2 0x334 PUSH1 0x4 DUP1 CALLDATASIZE SUB PUSH1 0x20 DUP2 LT ISZERO PUSH2 0x46D JUMPI PUSH1 0x0 DUP1 REVERT JUMPDEST POP CALLDATALOAD PUSH1 0x1 PUSH1 0x1 PUSH1 0xA0 SHL SUB AND PUSH2 0xB81 JUMP JUMPDEST PUSH2 0x334 PUSH2 0xB9C JUMP JUMPDEST PUSH2 0x3EF PUSH1 0x4 DUP1 CALLDATASIZE SUB PUSH1 0x60 DUP2 LT ISZERO PUSH2 0x49B JUMPI PUSH1 0x0 DUP1 REVERT JUMPDEST POP PUSH1 0x1 PUSH1 0x1 PUSH1 0xA0 SHL SUB DUP2 CALLDATALOAD DUP2 AND SWAP2 PUSH1 0x20 DUP2 ADD CALLDATALOAD SWAP1 SWAP2 AND SWAP1 PUSH1 0x40 ADD CALLDATALOAD PUSH2 0xBA2 JUMP JUMPDEST PUSH2 0x334 PUSH1 0x4 DUP1 CALLDATASIZE SUB PUSH1 0x20 DUP2 LT ISZERO PUSH2 0x4D1 JUMPI PUSH1 0x0 DUP1 REVERT JUMPDEST POP CALLDATALOAD PUSH1 0x1 PUSH1 0x1 PUSH1 0xA0 SHL SUB AND PUSH2 0xC29 JUMP JUMPDEST PUSH2 0x507 PUSH1 0x4 DUP1 CALLDATASIZE SUB PUSH1 0x20 DUP2 LT ISZERO PUSH2 0x4F7 JUMPI PUSH1 0x0 DUP1 REVERT JUMPDEST POP CALLDATALOAD PUSH1 0x1 PUSH1 0x1 PUSH1 0xA0 SHL SUB AND PUSH2 0xC93 JUMP JUMPDEST PUSH1 0x40 DUP1 MLOAD SWAP5 ISZERO ISZERO DUP6 MSTORE PUSH1 0x20 DUP6 ADD SWAP4 SWAP1 SWAP4 MSTORE DUP4 DUP4 ADD SWAP2 SWAP1 SWAP2 MSTORE PUSH1 0x60 DUP4 ADD MSTORE MLOAD SWAP1 DUP2 SWAP1 SUB PUSH1 0x80 ADD SWAP1 RETURN JUMPDEST PUSH2 0x537 PUSH2 0xD89 JUMP JUMPDEST PUSH1 0x40 DUP1 MLOAD PUSH1 0xFF SWAP1 SWAP3 AND DUP3 MSTORE MLOAD SWAP1 DUP2 SWAP1 SUB PUSH1 0x20 ADD SWAP1 RETURN JUMPDEST PUSH2 0x555 PUSH2 0xD92 JUMP JUMPDEST PUSH1 0x40 DUP1 MLOAD PUSH1 0x1 PUSH1 0x1 PUSH1 0xA0 SHL SUB SWAP1 SWAP3 AND DUP3 MSTORE MLOAD SWAP1 DUP2 SWAP1 SUB PUSH1 0x20 ADD SWAP1 RETURN JUMPDEST PUSH2 0x555 PUSH1 0x4 DUP1 CALLDATASIZE SUB PUSH1 0x20 DUP2 LT ISZERO PUSH2 0x587 JUMPI PUSH1 0x0 DUP1 REVERT JUMPDEST POP CALLDATALOAD PUSH1 0x1 PUSH1 0x1 PUSH1 0xA0 SHL SUB AND PUSH2 0xDA1 JUMP JUMPDEST PUSH2 0x3EF PUSH1 0x4 DUP1 CALLDATASIZE SUB PUSH1 0x40 DUP2 LT ISZERO PUSH2 0x5AD JUMPI PUSH1 0x0 DUP1 REVERT JUMPDEST POP PUSH1 0x1 PUSH1 0x1 PUSH1 0xA0 SHL SUB DUP2 CALLDATALOAD AND SWAP1 PUSH1 0x20 ADD CALLDATALOAD PUSH2 0xDC6 JUMP JUMPDEST PUSH2 0x5CB PUSH2 0xE14 JUMP JUMPDEST STOP JUMPDEST PUSH2 0x334 PUSH2 0xEBA JUMP JUMPDEST PUSH2 0x5CB PUSH1 0x4 DUP1 CALLDATASIZE SUB PUSH1 0x40 DUP2 LT ISZERO PUSH2 0x5EB JUMPI PUSH1 0x0 DUP1 REVERT JUMPDEST POP PUSH1 0x1 PUSH1 0x1 PUSH1 0xA0 SHL SUB DUP2 CALLDATALOAD AND SWAP1 PUSH1 0x20 ADD CALLDATALOAD PUSH2 0xEC0 JUMP JUMPDEST PUSH2 0x334 PUSH1 0x4 DUP1 CALLDATASIZE SUB PUSH1 0x20 DUP2 LT ISZERO PUSH2 0x617 JUMPI PUSH1 0x0 DUP1 REVERT JUMPDEST POP CALLDATALOAD PUSH2 0x1229 JUMP JUMPDEST PUSH2 0x555 PUSH2 0x1247 JUMP JUMPDEST PUSH2 0x555 PUSH2 0x1256 JUMP JUMPDEST PUSH2 0x334 PUSH2 0x1265 JUMP JUMPDEST PUSH2 0x555 PUSH2 0x126B JUMP JUMPDEST PUSH2 0x5CB PUSH1 0x4 DUP1 CALLDATASIZE SUB PUSH1 0x20 DUP2 LT ISZERO PUSH2 0x654 JUMPI PUSH1 0x0 DUP1 REVERT JUMPDEST POP CALLDATALOAD PUSH1 0x1 PUSH1 0x1 PUSH1 0xA0 SHL SUB AND PUSH2 0x127A JUMP JUMPDEST PUSH2 0x334 PUSH1 0x4 DUP1 CALLDATASIZE SUB PUSH1 0x20 DUP2 LT ISZERO PUSH2 0x67A JUMPI PUSH1 0x0 DUP1 REVERT JUMPDEST POP CALLDATALOAD PUSH1 0x1 PUSH1 0x1 PUSH1 0xA0 SHL SUB AND PUSH2 0x132D JUMP JUMPDEST PUSH2 0x5CB PUSH2 0x1348 JUMP JUMPDEST PUSH2 0x334 PUSH1 0x4 DUP1 CALLDATASIZE SUB PUSH1 0x80 DUP2 LT ISZERO PUSH2 0x6A8 JUMPI PUSH1 0x0 DUP1 REVERT JUMPDEST POP PUSH1 0x1 PUSH1 0x1 PUSH1 0xA0 SHL SUB DUP2 CALLDATALOAD DUP2 AND SWAP2 PUSH1 0x20 DUP2 ADD CALLDATALOAD SWAP1 SWAP2 AND SWAP1 PUSH1 0xFF PUSH1 0x40 DUP3 ADD CALLDATALOAD AND SWAP1 PUSH1 0x60 ADD CALLDATALOAD PUSH2 0x13EA JUMP JUMPDEST PUSH2 0x6D9 PUSH2 0x16B8 JUMP JUMPDEST PUSH1 0x40 DUP1 MLOAD PUSH2 0xFFFF SWAP1 SWAP3 AND DUP3 MSTORE MLOAD SWAP1 DUP2 SWAP1 SUB PUSH1 0x20 ADD SWAP1 RETURN JUMPDEST PUSH2 0x555 PUSH2 0x16C2 JUMP JUMPDEST PUSH2 0x334 PUSH1 0x4 DUP1 CALLDATASIZE SUB PUSH1 0x40 DUP2 LT ISZERO PUSH2 0x70E JUMPI PUSH1 0x0 DUP1 REVERT JUMPDEST POP PUSH1 0x1 PUSH1 0x1 PUSH1 0xA0 SHL SUB DUP2 CALLDATALOAD AND SWAP1 PUSH1 0x20 ADD CALLDATALOAD PUSH2 0x16D1 JUMP JUMPDEST PUSH2 0x555 PUSH2 0x17EF JUMP JUMPDEST PUSH2 0x34E PUSH2 0x17FE JUMP JUMPDEST PUSH2 0x334 PUSH2 0x185F JUMP JUMPDEST PUSH2 0x6D9 PUSH2 0x1865 JUMP JUMPDEST PUSH2 0x334 PUSH1 0x4 DUP1 CALLDATASIZE SUB PUSH1 0x20 DUP2 LT ISZERO PUSH2 0x75A JUMPI PUSH1 0x0 DUP1 REVERT JUMPDEST POP CALLDATALOAD PUSH1 0xFF AND PUSH2 0x1876 JUMP JUMPDEST PUSH2 0x334 PUSH1 0x4 DUP1 CALLDATASIZE SUB PUSH1 0x20 DUP2 LT ISZERO PUSH2 0x77A JUMPI PUSH1 0x0 DUP1 REVERT JUMPDEST POP CALLDATALOAD PUSH2 0x1922 JUMP JUMPDEST PUSH2 0x334 PUSH2 0x1975 JUMP JUMPDEST PUSH2 0x3EF PUSH1 0x4 DUP1 CALLDATASIZE SUB PUSH1 0x20 DUP2 LT ISZERO PUSH2 0x79F JUMPI PUSH1 0x0 DUP1 REVERT JUMPDEST POP CALLDATALOAD PUSH2 0x197B JUMP JUMPDEST PUSH2 0x3EF PUSH1 0x4 DUP1 CALLDATASIZE SUB PUSH1 0x40 DUP2 LT ISZERO PUSH2 0x7BC JUMPI PUSH1 0x0 DUP1 REVERT JUMPDEST POP PUSH1 0x1 PUSH1 0x1 PUSH1 0xA0 SHL SUB DUP2 CALLDATALOAD AND SWAP1 PUSH1 0x20 ADD CALLDATALOAD PUSH2 0x19EE JUMP JUMPDEST PUSH2 0x334 PUSH1 0x4 DUP1 CALLDATASIZE SUB PUSH1 0x20 DUP2 LT ISZERO PUSH2 0x7E8 JUMPI PUSH1 0x0 DUP1 REVERT JUMPDEST POP CALLDATALOAD PUSH1 0x1 PUSH1 0x1 PUSH1 0xA0 SHL SUB AND PUSH2 0x1A56 JUMP JUMPDEST PUSH2 0x3EF PUSH1 0x4 DUP1 CALLDATASIZE SUB PUSH1 0x40 DUP2 LT ISZERO PUSH2 0x80E JUMPI PUSH1 0x0 DUP1 REVERT JUMPDEST POP PUSH1 0x1 PUSH1 0x1 PUSH1 0xA0 SHL SUB DUP2 CALLDATALOAD AND SWAP1 PUSH1 0x20 ADD CALLDATALOAD PUSH2 0x1AE7 JUMP JUMPDEST PUSH2 0x5CB PUSH1 0x4 DUP1 CALLDATASIZE SUB PUSH1 0x20 DUP2 LT ISZERO PUSH2 0x83A JUMPI PUSH1 0x0 DUP1 REVERT JUMPDEST POP CALLDATALOAD PUSH1 0x1 PUSH1 0x1 PUSH1 0xA0 SHL SUB AND PUSH2 0x1AFB JUMP JUMPDEST PUSH2 0x852 PUSH2 0x1BAB JUMP JUMPDEST PUSH1 0x40 DUP1 MLOAD PUSH4 0xFFFFFFFF SWAP1 SWAP3 AND DUP3 MSTORE MLOAD SWAP1 DUP2 SWAP1 SUB PUSH1 0x20 ADD SWAP1 RETURN JUMPDEST PUSH2 0x334 PUSH2 0x1BBE JUMP JUMPDEST PUSH2 0x5CB PUSH1 0x4 DUP1 CALLDATASIZE SUB PUSH1 0x20 DUP2 LT ISZERO PUSH2 0x889 JUMPI PUSH1 0x0 DUP1 REVERT JUMPDEST POP CALLDATALOAD PUSH1 0x1 PUSH1 0x1 PUSH1 0xA0 SHL SUB AND PUSH2 0x1BC4 JUMP JUMPDEST PUSH2 0x5CB PUSH2 0x1C74 JUMP JUMPDEST PUSH2 0x334 PUSH2 0x1D92 JUMP JUMPDEST PUSH2 0x334 PUSH1 0x4 DUP1 CALLDATASIZE SUB PUSH1 0x40 DUP2 LT ISZERO PUSH2 0x8BF JUMPI PUSH1 0x0 DUP1 REVERT JUMPDEST POP PUSH1 0x1 PUSH1 0x1 PUSH1 0xA0 SHL SUB DUP2 CALLDATALOAD DUP2 AND SWAP2 PUSH1 0x20 ADD CALLDATALOAD AND PUSH2 0x1D98 JUMP JUMPDEST PUSH2 0x852 PUSH2 0x1DC3 JUMP JUMPDEST PUSH2 0x334 PUSH1 0x4 DUP1 CALLDATASIZE SUB PUSH1 0x20 DUP2 LT ISZERO PUSH2 0x8F5 JUMPI PUSH1 0x0 DUP1 REVERT JUMPDEST POP CALLDATALOAD PUSH1 0x1 PUSH1 0x1 PUSH1 0xA0 SHL SUB AND PUSH2 0x1DD5 JUMP JUMPDEST PUSH2 0x334 PUSH1 0x4 DUP1 CALLDATASIZE SUB PUSH1 0x20 DUP2 LT ISZERO PUSH2 0x91B JUMPI PUSH1 0x0 DUP1 REVERT JUMPDEST POP CALLDATALOAD PUSH1 0x1 PUSH1 0x1 PUSH1 0xA0 SHL SUB AND PUSH2 0x215F JUMP JUMPDEST PUSH2 0x5CB PUSH1 0x4 DUP1 CALLDATASIZE SUB PUSH1 0x20 DUP2 LT ISZERO PUSH2 0x941 JUMPI PUSH1 0x0 DUP1 REVERT JUMPDEST POP CALLDATALOAD PUSH1 0x1 PUSH1 0x1 PUSH1 0xA0 SHL SUB AND PUSH2 0x21F2 JUMP JUMPDEST PUSH2 0x334 PUSH1 0x4 DUP1 CALLDATASIZE SUB PUSH1 0x20 DUP2 LT ISZERO PUSH2 0x967 JUMPI PUSH1 0x0 DUP1 REVERT JUMPDEST POP CALLDATALOAD PUSH1 0x1 PUSH1 0x1 PUSH1 0xA0 SHL SUB AND PUSH2 0x2253 JUMP JUMPDEST PUSH1 0x1E SLOAD JUMPDEST SWAP1 JUMP JUMPDEST PUSH1 0x5 DUP1 SLOAD PUSH1 0x40 DUP1 MLOAD PUSH1 0x20 PUSH1 0x1F PUSH1 0x2 PUSH1 0x0 NOT PUSH2 0x100 PUSH1 0x1 DUP9 AND ISZERO MUL ADD SWAP1 SWAP6 AND SWAP5 SWAP1 SWAP5 DIV SWAP4 DUP5 ADD DUP2 SWAP1 DIV DUP2 MUL DUP3 ADD DUP2 ADD SWAP1 SWAP3 MSTORE DUP3 DUP2 MSTORE PUSH1 0x60 SWAP4 SWAP1 SWAP3 SWAP1 SWAP2 DUP4 ADD DUP3 DUP3 DUP1 ISZERO PUSH2 0xA0A JUMPI DUP1 PUSH1 0x1F LT PUSH2 0x9DF JUMPI PUSH2 0x100 DUP1 DUP4 SLOAD DIV MUL DUP4 MSTORE SWAP2 PUSH1 0x20 ADD SWAP2 PUSH2 0xA0A JUMP JUMPDEST DUP3 ADD SWAP2 SWAP1 PUSH1 0x0 MSTORE PUSH1 0x20 PUSH1 0x0 KECCAK256 SWAP1 JUMPDEST DUP2 SLOAD DUP2 MSTORE SWAP1 PUSH1 0x1 ADD SWAP1 PUSH1 0x20 ADD DUP1 DUP4 GT PUSH2 0x9ED JUMPI DUP3 SWAP1 SUB PUSH1 0x1F AND DUP3 ADD SWAP2 JUMPDEST POP POP POP POP POP SWAP1 POP SWAP1 JUMP JUMPDEST PUSH1 0x0 PUSH2 0xA28 PUSH2 0xA21 PUSH2 0x22BB JUMP JUMPDEST DUP5 DUP5 PUSH2 0x22BF JUMP JUMPDEST POP PUSH1 0x1 JUMPDEST SWAP3 SWAP2 POP POP JUMP JUMPDEST PUSH1 0x0 PUSH2 0xA3C PUSH2 0x23AB JUMP JUMPDEST DUP1 PUSH2 0xA66 JUMPI POP PUSH1 0x1 PUSH1 0x1 PUSH1 0xA0 SHL SUB DUP3 AND PUSH1 0x0 SWAP1 DUP2 MSTORE PUSH1 0x1C PUSH1 0x20 MSTORE PUSH1 0x40 SWAP1 KECCAK256 SLOAD PUSH1 0x1 PUSH1 0xE0 SHL SWAP1 DIV PUSH1 0xFF AND JUMPDEST SWAP1 POP JUMPDEST SWAP2 SWAP1 POP JUMP JUMPDEST PUSH1 0x3 SLOAD SWAP1 JUMP JUMPDEST PUSH1 0x1 PUSH1 0x1 PUSH1 0xA0 SHL SUB DUP2 AND PUSH1 0x0 SWAP1 DUP2 MSTORE PUSH1 0x1C PUSH1 0x20 MSTORE PUSH1 0x40 DUP2 KECCAK256 PUSH1 0x5 DUP2 ADD SLOAD DUP2 SLOAD PUSH2 0x3E6 PUSH1 0x1 PUSH1 0x20 SHL SWAP1 SWAP2 DIV PUSH2 0xFFFF AND GT DUP1 ISZERO PUSH2 0xABD JUMPI POP DUP2 SLOAD PUSH2 0x3EA PUSH1 0x1 PUSH1 0x20 SHL SWAP1 SWAP2 DIV PUSH2 0xFFFF AND LT JUMPDEST ISZERO PUSH2 0xB7A JUMPI PUSH1 0x8 DUP3 ADD DUP1 SLOAD PUSH1 0x0 SWAP1 DUP1 ISZERO PUSH2 0xB1F JUMPI PUSH1 0x0 NOT DUP2 ADD JUMPDEST DUP1 ISZERO PUSH2 0xB1D JUMPI PUSH1 0x0 DUP5 PUSH1 0x1 DUP4 SUB DUP2 SLOAD DUP2 LT PUSH2 0xAEE JUMPI INVALID JUMPDEST SWAP1 PUSH1 0x0 MSTORE PUSH1 0x20 PUSH1 0x0 KECCAK256 SWAP1 PUSH1 0x4 MUL ADD SWAP1 POP PUSH1 0x0 DUP2 PUSH1 0x2 ADD SLOAD SLT ISZERO PUSH2 0xB13 JUMPI SLOAD SWAP3 POP PUSH2 0xB1D JUMP JUMPDEST POP PUSH1 0x0 NOT ADD PUSH2 0xAD7 JUMP JUMPDEST POP JUMPDEST PUSH1 0x0 JUMPDEST PUSH1 0x21 SLOAD DUP2 LT ISZERO PUSH2 0xB75 JUMPI PUSH1 0x0 PUSH1 0x21 DUP3 DUP2 SLOAD DUP2 LT PUSH2 0xB3B JUMPI INVALID JUMPDEST SWAP1 PUSH1 0x0 MSTORE PUSH1 0x20 PUSH1 0x0 KECCAK256 SWAP1 PUSH1 0x4 MUL ADD SWAP1 POP DUP4 DUP2 PUSH1 0x0 ADD SLOAD GT ISZERO PUSH2 0xB6C JUMPI PUSH2 0xBB6 DUP2 PUSH1 0x1 ADD SLOAD DUP2 PUSH2 0xB66 JUMPI INVALID JUMPDEST DIV DUP7 ADD SWAP6 POP JUMPDEST POP PUSH1 0x1 ADD PUSH2 0xB22 JUMP JUMPDEST POP POP POP POP JUMPDEST SWAP4 SWAP3 POP POP POP JUMP JUMPDEST PUSH1 0x1 PUSH1 0x1 PUSH1 0xA0 SHL SUB AND PUSH1 0x0 SWAP1 DUP2 MSTORE PUSH1 0x24 PUSH1 0x20 MSTORE PUSH1 0x40 SWAP1 KECCAK256 SLOAD SWAP1 JUMP JUMPDEST PUSH1 0x4 SLOAD DUP2 JUMP JUMPDEST PUSH1 0x0 PUSH2 0xBAF DUP5 DUP5 DUP5 PUSH2 0x2460 JUMP JUMPDEST PUSH2 0xC1F DUP5 PUSH2 0xBBB PUSH2 0x22BB JUMP JUMPDEST PUSH2 0xC1A DUP6 PUSH1 0x40 MLOAD DUP1 PUSH1 0x60 ADD PUSH1 0x40 MSTORE DUP1 PUSH1 0x28 DUP2 MSTORE PUSH1 0x20 ADD PUSH2 0x43A7 PUSH1 0x28 SWAP2 CODECOPY PUSH1 0x1 PUSH1 0x1 PUSH1 0xA0 SHL SUB DUP11 AND PUSH1 0x0 SWAP1 DUP2 MSTORE PUSH1 0x2 PUSH1 0x20 MSTORE PUSH1 0x40 DUP2 KECCAK256 SWAP1 PUSH2 0xBF9 PUSH2 0x22BB JUMP JUMPDEST PUSH1 0x1 PUSH1 0x1 PUSH1 0xA0 SHL SUB AND DUP2 MSTORE PUSH1 0x20 DUP2 ADD SWAP2 SWAP1 SWAP2 MSTORE PUSH1 0x40 ADD PUSH1 0x0 KECCAK256 SLOAD SWAP2 SWAP1 PUSH2 0x25B2 JUMP JUMPDEST PUSH2 0x22BF JUMP JUMPDEST POP PUSH1 0x1 SWAP4 SWAP3 POP POP POP JUMP JUMPDEST PUSH1 0x1 PUSH1 0x1 PUSH1 0xA0 SHL SUB DUP2 AND PUSH1 0x0 SWAP1 DUP2 MSTORE PUSH1 0x23 PUSH1 0x20 MSTORE PUSH1 0x40 DUP2 KECCAK256 PUSH1 0x1 DUP2 ADD SLOAD ISZERO PUSH2 0xC8D JUMPI PUSH1 0x25 SLOAD DUP2 SLOAD PUSH3 0x15180 SWAP1 SWAP2 MUL SWAP1 PUSH1 0x1 PUSH1 0xA0 SHL SWAP1 DIV PUSH1 0xFF AND PUSH2 0xC6A PUSH2 0xD89 JUMP JUMPDEST PUSH1 0xFF AND PUSH1 0xA EXP DUP4 PUSH1 0x1 ADD SLOAD TIMESTAMP SUB PUSH2 0xBB80 MUL MUL MUL DUP2 PUSH2 0xC84 JUMPI INVALID JUMPDEST DIV SWAP2 POP POP PUSH2 0xA69 JUMP JUMPDEST POP SWAP2 SWAP1 POP JUMP JUMPDEST PUSH1 0x1 PUSH1 0x1 PUSH1 0xA0 SHL SUB DUP2 AND PUSH1 0x0 SWAP1 DUP2 MSTORE PUSH1 0x1C PUSH1 0x20 MSTORE PUSH1 0x40 DUP2 KECCAK256 DUP1 SLOAD DUP3 SWAP2 DUP3 SWAP2 DUP3 SWAP2 SWAP1 PUSH1 0x1 PUSH1 0xD8 SHL SWAP1 DIV PUSH1 0xFF AND ISZERO DUP1 ISZERO SWAP1 PUSH2 0xCD0 JUMPI POP PUSH1 0x0 DUP2 PUSH1 0x4 ADD SLOAD GT JUMPDEST ISZERO PUSH2 0xD72 JUMPI PUSH1 0x0 PUSH2 0xCE0 DUP8 PUSH2 0xA32 JUMP JUMPDEST SWAP1 POP PUSH1 0x0 PUSH2 0xCED DUP9 PUSH2 0x2253 JUMP JUMPDEST SWAP1 POP PUSH1 0x0 PUSH2 0xCFA DUP10 PUSH2 0x1DD5 JUMP JUMPDEST SWAP1 POP PUSH1 0x0 PUSH2 0xD07 DUP11 PUSH2 0xA74 JUMP JUMPDEST SWAP1 POP DUP4 PUSH2 0xD61 JUMPI DUP5 SLOAD PUSH1 0x1D DUP1 SLOAD PUSH2 0x3E8 SWAP3 PUSH1 0x0 NOT PUSH1 0xFF PUSH1 0x1 PUSH1 0xD8 SHL SWAP1 SWAP3 DIV DUP3 AND ADD AND SWAP1 DUP2 LT PUSH2 0xD32 JUMPI INVALID JUMPDEST SWAP1 PUSH1 0x0 MSTORE PUSH1 0x20 PUSH1 0x0 KECCAK256 SWAP1 PUSH1 0x4 MUL ADD PUSH1 0x3 ADD SLOAD DUP7 PUSH1 0x4 ADD SLOAD MUL DUP2 PUSH2 0xD51 JUMPI INVALID JUMPDEST DIV DUP2 DUP4 DUP6 DUP9 PUSH1 0x4 ADD SLOAD ADD ADD ADD GT SWAP4 POP JUMPDEST SWAP3 SWAP8 POP SWAP1 SWAP6 POP SWAP4 POP SWAP2 POP PUSH2 0xD82 SWAP1 POP JUMP JUMPDEST PUSH1 0x0 DUP1 PUSH1 0x0 DUP1 SWAP5 POP SWAP5 POP SWAP5 POP SWAP5 POP POP JUMPDEST SWAP2 SWAP4 POP SWAP2 SWAP4 JUMP JUMPDEST PUSH1 0x7 SLOAD PUSH1 0xFF AND SWAP1 JUMP JUMPDEST PUSH1 0x17 SLOAD PUSH1 0x1 PUSH1 0x1 PUSH1 0xA0 SHL SUB AND SWAP1 JUMP JUMPDEST PUSH1 0x1 PUSH1 0x1 PUSH1 0xA0 SHL SUB SWAP1 DUP2 AND PUSH1 0x0 SWAP1 DUP2 MSTORE PUSH1 0x1C PUSH1 0x20 MSTORE PUSH1 0x40 SWAP1 KECCAK256 SLOAD PUSH1 0x1 PUSH1 0x30 SHL SWAP1 DIV AND SWAP1 JUMP JUMPDEST PUSH1 0x0 PUSH2 0xA28 PUSH2 0xDD3 PUSH2 0x22BB JUMP JUMPDEST DUP5 PUSH2 0xC1A DUP6 PUSH1 0x2 PUSH1 0x0 PUSH2 0xDE4 PUSH2 0x22BB JUMP JUMPDEST PUSH1 0x1 PUSH1 0x1 PUSH1 0xA0 SHL SUB SWAP1 DUP2 AND DUP3 MSTORE PUSH1 0x20 DUP1 DUP4 ADD SWAP4 SWAP1 SWAP4 MSTORE PUSH1 0x40 SWAP2 DUP3 ADD PUSH1 0x0 SWAP1 DUP2 KECCAK256 SWAP2 DUP13 AND DUP2 MSTORE SWAP3 MSTORE SWAP1 KECCAK256 SLOAD SWAP1 PUSH2 0x2261 JUMP JUMPDEST PUSH1 0x0 PUSH2 0xE1E PUSH2 0x22BB JUMP JUMPDEST SWAP1 POP PUSH1 0x1 PUSH1 0x1 PUSH1 0xA0 SHL SUB DUP2 AND PUSH2 0xE69 JUMPI PUSH1 0x40 DUP1 MLOAD PUSH3 0x461BCD PUSH1 0xE5 SHL DUP2 MSTORE PUSH1 0x20 PUSH1 0x4 DUP3 ADD MSTORE PUSH1 0x1D PUSH1 0x24 DUP3 ADD MSTORE PUSH1 0x0 DUP1 MLOAD PUSH1 0x20 PUSH2 0x4556 DUP4 CODECOPY DUP2 MLOAD SWAP2 MSTORE PUSH1 0x44 DUP3 ADD MSTORE SWAP1 MLOAD SWAP1 DUP2 SWAP1 SUB PUSH1 0x64 ADD SWAP1 REVERT JUMPDEST PUSH1 0x0 PUSH2 0xE75 DUP3 TIMESTAMP PUSH2 0x2649 JUMP JUMPDEST SWAP1 POP DUP1 ISZERO PUSH2 0xEB6 JUMPI PUSH1 0x0 PUSH2 0xE88 DUP4 PUSH2 0x1A56 JUMP JUMPDEST PUSH1 0x9 SLOAD SWAP1 SWAP2 POP PUSH2 0xEA2 SWAP1 PUSH1 0x1 PUSH1 0x1 PUSH1 0xA0 SHL SUB AND DUP5 DUP5 PUSH2 0x2D7D JUMP JUMPDEST PUSH2 0xEAC DUP4 DUP3 PUSH2 0x2EE7 JUMP JUMPDEST PUSH1 0x8 DUP1 SLOAD SWAP1 SWAP2 ADD SWAP1 SSTORE JUMPDEST POP POP JUMP JUMPDEST PUSH1 0x3 SLOAD DUP2 JUMP JUMPDEST PUSH1 0x0 PUSH2 0xECA PUSH2 0x22BB JUMP JUMPDEST SWAP1 POP PUSH1 0x1 PUSH1 0x1 PUSH1 0xA0 SHL SUB DUP2 AND PUSH2 0xF15 JUMPI PUSH1 0x40 DUP1 MLOAD PUSH3 0x461BCD PUSH1 0xE5 SHL DUP2 MSTORE PUSH1 0x20 PUSH1 0x4 DUP3 ADD MSTORE PUSH1 0x1D PUSH1 0x24 DUP3 ADD MSTORE PUSH1 0x0 DUP1 MLOAD PUSH1 0x20 PUSH2 0x4556 DUP4 CODECOPY DUP2 MLOAD SWAP2 MSTORE PUSH1 0x44 DUP3 ADD MSTORE SWAP1 MLOAD SWAP1 DUP2 SWAP1 SUB PUSH1 0x64 ADD SWAP1 REVERT JUMPDEST PUSH1 0x0 PUSH2 0xF1F PUSH2 0x1BAB JUMP JUMPDEST SWAP1 POP PUSH2 0xF29 PUSH2 0x1DC3 JUMP JUMPDEST PUSH4 0xFFFFFFFF AND DUP2 PUSH4 0xFFFFFFFF AND LT PUSH2 0xF88 JUMPI PUSH1 0x40 DUP1 MLOAD PUSH3 0x461BCD PUSH1 0xE5 SHL DUP2 MSTORE PUSH1 0x20 PUSH1 0x4 DUP3 ADD MSTORE PUSH1 0x19 PUSH1 0x24 DUP3 ADD MSTORE PUSH32 0x506C61736D6174696347616D653A2066756C6C5F757365727300000000000000 PUSH1 0x44 DUP3 ADD MSTORE SWAP1 MLOAD SWAP1 DUP2 SWAP1 SUB PUSH1 0x64 ADD SWAP1 REVERT JUMPDEST PUSH4 0xFFFFFFFF DUP2 AND PUSH2 0xFF5 JUMPI PUSH1 0x0 PUSH2 0xF9D PUSH2 0x126B JUMP JUMPDEST SWAP1 POP DUP1 PUSH1 0x1 PUSH1 0x1 PUSH1 0xA0 SHL SUB AND DUP6 PUSH1 0x1 PUSH1 0x1 PUSH1 0xA0 SHL SUB AND EQ PUSH2 0xFEF JUMPI PUSH1 0x40 MLOAD PUSH3 0x461BCD PUSH1 0xE5 SHL DUP2 MSTORE PUSH1 0x4 ADD DUP1 DUP1 PUSH1 0x20 ADD DUP3 DUP2 SUB DUP3 MSTORE PUSH1 0x27 DUP2 MSTORE PUSH1 0x20 ADD DUP1 PUSH2 0x44A1 PUSH1 0x27 SWAP2 CODECOPY PUSH1 0x40 ADD SWAP2 POP POP PUSH1 0x40 MLOAD DUP1 SWAP2 SUB SWAP1 REVERT JUMPDEST POP PUSH2 0x10A5 JUMP JUMPDEST PUSH1 0xA DUP2 PUSH4 0xFFFFFFFF AND LT ISZERO PUSH2 0x1060 JUMPI PUSH1 0x0 PUSH2 0x100E PUSH2 0x1256 JUMP JUMPDEST SWAP1 POP DUP1 PUSH1 0x1 PUSH1 0x1 PUSH1 0xA0 SHL SUB AND DUP6 PUSH1 0x1 PUSH1 0x1 PUSH1 0xA0 SHL SUB AND EQ PUSH2 0xFEF JUMPI PUSH1 0x40 MLOAD PUSH3 0x461BCD PUSH1 0xE5 SHL DUP2 MSTORE PUSH1 0x4 ADD DUP1 DUP1 PUSH1 0x20 ADD DUP3 DUP2 SUB DUP3 MSTORE PUSH1 0x27 DUP2 MSTORE PUSH1 0x20 ADD DUP1 PUSH2 0x447A PUSH1 0x27 SWAP2 CODECOPY PUSH1 0x40 ADD SWAP2 POP POP PUSH1 0x40 MLOAD DUP1 SWAP2 SUB SWAP1 REVERT JUMPDEST PUSH2 0x106A DUP3 DUP6 PUSH2 0x2FD7 JUMP JUMPDEST PUSH2 0x10A5 JUMPI PUSH1 0x40 MLOAD PUSH3 0x461BCD PUSH1 0xE5 SHL DUP2 MSTORE PUSH1 0x4 ADD DUP1 DUP1 PUSH1 0x20 ADD DUP3 DUP2 SUB DUP3 MSTORE PUSH1 0x23 DUP2 MSTORE PUSH1 0x20 ADD DUP1 PUSH2 0x4414 PUSH1 0x23 SWAP2 CODECOPY PUSH1 0x40 ADD SWAP2 POP POP PUSH1 0x40 MLOAD DUP1 SWAP2 SUB SWAP1 REVERT JUMPDEST PUSH1 0x0 PUSH2 0x10B0 DUP4 PUSH2 0x3051 JUMP JUMPDEST SWAP1 POP DUP1 PUSH2 0x1118 JUMPI PUSH1 0xA SLOAD PUSH1 0x64 MUL DUP2 DUP6 SUB LT ISZERO PUSH2 0x1113 JUMPI PUSH1 0x40 DUP1 MLOAD PUSH3 0x461BCD PUSH1 0xE5 SHL DUP2 MSTORE PUSH1 0x20 PUSH1 0x4 DUP3 ADD MSTORE PUSH1 0x1D PUSH1 0x24 DUP3 ADD MSTORE PUSH32 0x506C61736D6174696347616D653A20546F6F5F4C6F775F496E76657374000000 PUSH1 0x44 DUP3 ADD MSTORE SWAP1 MLOAD SWAP1 DUP2 SWAP1 SUB PUSH1 0x64 ADD SWAP1 REVERT JUMPDEST PUSH2 0x1172 JUMP JUMPDEST PUSH1 0xA SLOAD PUSH1 0xC8 MUL DUP5 LT ISZERO PUSH2 0x1172 JUMPI PUSH1 0x40 DUP1 MLOAD PUSH3 0x461BCD PUSH1 0xE5 SHL DUP2 MSTORE PUSH1 0x20 PUSH1 0x4 DUP3 ADD MSTORE PUSH1 0x1D PUSH1 0x24 DUP3 ADD MSTORE PUSH32 0x506C61736D6174696347616D653A20546F6F5F4C6F775F496E76657374000000 PUSH1 0x44 DUP3 ADD MSTORE SWAP1 MLOAD SWAP1 DUP2 SWAP1 SUB PUSH1 0x64 ADD SWAP1 REVERT JUMPDEST PUSH1 0x0 PUSH2 0x117C PUSH2 0xD89 JUMP JUMPDEST PUSH1 0xFF AND PUSH1 0xA EXP PUSH2 0x118B DUP7 PUSH2 0x1229 JUMP JUMPDEST MUL SWAP1 POP DUP1 PUSH2 0x1198 DUP6 PUSH2 0x132D JUMP JUMPDEST LT ISZERO PUSH2 0x11EB JUMPI PUSH1 0x40 DUP1 MLOAD PUSH3 0x461BCD PUSH1 0xE5 SHL DUP2 MSTORE PUSH1 0x20 PUSH1 0x4 DUP3 ADD MSTORE PUSH1 0x1B PUSH1 0x24 DUP3 ADD MSTORE PUSH32 0x506C61736D6174696347616D653A204E6565645F3130255F5450530000000000 PUSH1 0x44 DUP3 ADD MSTORE SWAP1 MLOAD SWAP1 DUP2 SWAP1 SUB PUSH1 0x64 ADD SWAP1 REVERT JUMPDEST PUSH1 0x9 SLOAD PUSH2 0x1203 SWAP1 PUSH1 0x1 PUSH1 0x1 PUSH1 0xA0 SHL SUB AND DUP6 ADDRESS DUP9 PUSH2 0x306F JUMP JUMPDEST PUSH2 0x120D DUP5 DUP3 PUSH2 0x2EE7 JUMP JUMPDEST PUSH1 0x8 DUP1 SLOAD DUP3 ADD SWAP1 SSTORE PUSH2 0x1221 DUP5 DUP8 DUP8 TIMESTAMP PUSH2 0x31C4 JUMP JUMPDEST POP POP POP POP POP POP JUMP JUMPDEST PUSH1 0x0 PUSH1 0xC SLOAD PUSH1 0xA DUP4 DUP2 PUSH2 0x1238 JUMPI INVALID JUMPDEST DIV DUP2 PUSH2 0x1240 JUMPI INVALID JUMPDEST DIV SWAP3 SWAP2 POP POP JUMP JUMPDEST PUSH1 0x14 SLOAD PUSH1 0x1 PUSH1 0x1 PUSH1 0xA0 SHL SUB AND SWAP1 JUMP JUMPDEST PUSH1 0x1A SLOAD PUSH1 0x1 PUSH1 0x1 PUSH1 0xA0 SHL SUB AND SWAP1 JUMP JUMPDEST PUSH1 0x26 SLOAD SWAP1 JUMP JUMPDEST PUSH1 0x11 SLOAD PUSH1 0x1 PUSH1 0x1 PUSH1 0xA0 SHL SUB AND SWAP1 JUMP JUMPDEST PUSH2 0x1282 PUSH2 0x22BB JUMP JUMPDEST PUSH1 0x0 SLOAD PUSH1 0x1 PUSH1 0x1 PUSH1 0xA0 SHL SUB SWAP1 DUP2 AND SWAP2 AND EQ PUSH2 0x12D2 JUMPI PUSH1 0x40 DUP1 MLOAD PUSH3 0x461BCD PUSH1 0xE5 SHL DUP2 MSTORE PUSH1 0x20 PUSH1 0x4 DUP3 ADD DUP2 SWAP1 MSTORE PUSH1 0x24 DUP3 ADD MSTORE PUSH1 0x0 DUP1 MLOAD PUSH1 0x20 PUSH2 0x4437 DUP4 CODECOPY DUP2 MLOAD SWAP2 MSTORE PUSH1 0x44 DUP3 ADD MSTORE SWAP1 MLOAD SWAP1 DUP2 SWAP1 SUB PUSH1 0x64 ADD SWAP1 REVERT JUMPDEST PUSH1 0x0 PUSH2 0x12DC PUSH2 0x126B JUMP JUMPDEST PUSH1 0x1 PUSH1 0x1 PUSH1 0xA0 SHL SUB AND EQ PUSH2 0x1321 JUMPI PUSH1 0x40 MLOAD PUSH3 0x461BCD PUSH1 0xE5 SHL DUP2 MSTORE PUSH1 0x4 ADD DUP1 DUP1 PUSH1 0x20 ADD DUP3 DUP2 SUB DUP3 MSTORE PUSH1 0x24 DUP2 MSTORE PUSH1 0x20 ADD DUP1 PUSH2 0x43F0 PUSH1 0x24 SWAP2 CODECOPY PUSH1 0x40 ADD SWAP2 POP POP PUSH1 0x40 MLOAD DUP1 SWAP2 SUB SWAP1 REVERT JUMPDEST PUSH2 0x132A DUP2 PUSH2 0x38EA JUMP JUMPDEST POP JUMP JUMPDEST PUSH1 0x1 PUSH1 0x1 PUSH1 0xA0 SHL SUB AND PUSH1 0x0 SWAP1 DUP2 MSTORE PUSH1 0x1 PUSH1 0x20 MSTORE PUSH1 0x40 SWAP1 KECCAK256 SLOAD SWAP1 JUMP JUMPDEST PUSH2 0x1350 PUSH2 0x22BB JUMP JUMPDEST PUSH1 0x0 SLOAD PUSH1 0x1 PUSH1 0x1 PUSH1 0xA0 SHL SUB SWAP1 DUP2 AND SWAP2 AND EQ PUSH2 0x13A0 JUMPI PUSH1 0x40 DUP1 MLOAD PUSH3 0x461BCD PUSH1 0xE5 SHL DUP2 MSTORE PUSH1 0x20 PUSH1 0x4 DUP3 ADD DUP2 SWAP1 MSTORE PUSH1 0x24 DUP3 ADD MSTORE PUSH1 0x0 DUP1 MLOAD PUSH1 0x20 PUSH2 0x4437 DUP4 CODECOPY DUP2 MLOAD SWAP2 MSTORE PUSH1 0x44 DUP3 ADD MSTORE SWAP1 MLOAD SWAP1 DUP2 SWAP1 SUB PUSH1 0x64 ADD SWAP1 REVERT JUMPDEST PUSH1 0x0 DUP1 SLOAD PUSH1 0x40 MLOAD PUSH1 0x1 PUSH1 0x1 PUSH1 0xA0 SHL SUB SWAP1 SWAP2 AND SWAP1 PUSH32 0x8BE0079C531659141344CD1FD0A4F28419497F9722A3DAAFE3B4186F6B6457E0 SWAP1 DUP4 SWAP1 LOG3 PUSH1 0x0 DUP1 SLOAD PUSH1 0x1 PUSH1 0x1 PUSH1 0xA0 SHL SUB NOT AND SWAP1 SSTORE JUMP JUMPDEST PUSH1 0x0 PUSH2 0x13F4 PUSH2 0x428B JUMP JUMPDEST PUSH2 0x1401 DUP7 DUP5 PUSH1 0x14 SUB PUSH2 0x390C JUMP JUMPDEST PUSH1 0x11 SLOAD SWAP1 SWAP2 POP PUSH1 0x0 SWAP1 DUP2 SWAP1 PUSH1 0x1 PUSH1 0x1 PUSH1 0xA0 SHL SUB DUP9 DUP2 AND SWAP2 AND EQ ISZERO PUSH2 0x1427 JUMPI POP PUSH1 0x13 PUSH2 0x1444 JUMP JUMPDEST POP PUSH1 0x1 PUSH1 0x1 PUSH1 0xA0 SHL SUB DUP7 AND PUSH1 0x0 SWAP1 DUP2 MSTORE PUSH1 0x1C PUSH1 0x20 MSTORE PUSH1 0x40 SWAP1 KECCAK256 PUSH1 0x8 ADD JUMPDEST DUP1 SLOAD PUSH1 0x0 DUP2 ISZERO PUSH2 0x1455 JUMPI PUSH1 0x1 PUSH2 0x145A JUMP JUMPDEST PUSH1 0x1 DUP3 SUB JUMPDEST SWAP1 POP JUMPDEST DUP1 ISZERO PUSH2 0x16AA JUMPI PUSH1 0x0 DUP1 DUP1 DUP1 DUP6 PUSH2 0x14AC JUMPI PUSH1 0x0 SWAP4 POP TIMESTAMP SWAP3 POP PUSH1 0x1D PUSH1 0x1 DUP14 SUB PUSH1 0xFF AND DUP2 SLOAD DUP2 LT PUSH2 0x1487 JUMPI INVALID JUMPDEST PUSH1 0x0 SWAP2 DUP3 MSTORE PUSH1 0x20 DUP3 KECCAK256 PUSH1 0x2 PUSH1 0x4 SWAP1 SWAP3 MUL ADD ADD SLOAD PUSH1 0xFF PUSH2 0x100 SWAP1 SWAP2 DIV AND SWAP3 POP SWAP1 POP PUSH2 0x1543 JUMP JUMPDEST PUSH1 0x0 DUP8 PUSH1 0x1 DUP8 SUB DUP2 SLOAD DUP2 LT PUSH2 0x14BD JUMPI INVALID JUMPDEST SWAP1 PUSH1 0x0 MSTORE PUSH1 0x20 PUSH1 0x0 KECCAK256 SWAP1 PUSH1 0x4 MUL ADD SWAP1 POP DUP1 PUSH1 0x0 ADD SLOAD SWAP5 POP DUP7 DUP7 EQ PUSH2 0x14FE JUMPI DUP8 DUP7 DUP2 SLOAD DUP2 LT PUSH2 0x14E7 JUMPI INVALID JUMPDEST SWAP1 PUSH1 0x0 MSTORE PUSH1 0x20 PUSH1 0x0 KECCAK256 SWAP1 PUSH1 0x4 MUL ADD PUSH1 0x0 ADD SLOAD PUSH2 0x1500 JUMP JUMPDEST TIMESTAMP JUMPDEST SWAP4 POP PUSH1 0x1D PUSH1 0x1 DUP3 PUSH1 0x3 ADD SLOAD SUB DUP2 SLOAD DUP2 LT PUSH2 0x1516 JUMPI INVALID JUMPDEST SWAP1 PUSH1 0x0 MSTORE PUSH1 0x20 PUSH1 0x0 KECCAK256 SWAP1 PUSH1 0x4 MUL ADD PUSH1 0x2 ADD PUSH1 0x1 SWAP1 SLOAD SWAP1 PUSH2 0x100 EXP SWAP1 DIV PUSH1 0xFF AND PUSH1 0xFF AND SWAP3 POP DUP1 PUSH1 0x2 ADD SLOAD SWAP2 POP POP JUMPDEST DUP11 JUMPDEST DUP3 DUP2 GT PUSH2 0x1686 JUMPI PUSH1 0x0 PUSH1 0x10 DUP3 DUP2 SLOAD DUP2 LT PUSH2 0x155B JUMPI INVALID JUMPDEST SWAP1 PUSH1 0x0 MSTORE PUSH1 0x20 PUSH1 0x0 KECCAK256 ADD PUSH1 0x0 DUP2 SLOAD DUP2 LT PUSH2 0x1571 JUMPI INVALID JUMPDEST PUSH1 0x0 SWAP2 DUP3 MSTORE PUSH1 0x20 SWAP2 DUP3 SWAP1 KECCAK256 SWAP2 DUP2 DIV SWAP1 SWAP2 ADD SLOAD PUSH1 0xFF PUSH1 0x1F SWAP1 SWAP3 AND PUSH2 0x100 EXP SWAP1 DIV AND SWAP1 POP JUMPDEST PUSH1 0x10 DUP3 DUP2 SLOAD DUP2 LT PUSH2 0x15A1 JUMPI INVALID JUMPDEST SWAP1 PUSH1 0x0 MSTORE PUSH1 0x20 PUSH1 0x0 KECCAK256 ADD PUSH1 0x1 DUP2 SLOAD DUP2 LT PUSH2 0x15B7 JUMPI INVALID JUMPDEST PUSH1 0x0 SWAP2 DUP3 MSTORE PUSH1 0x20 SWAP2 DUP3 SWAP1 KECCAK256 SWAP2 DUP2 DIV SWAP1 SWAP2 ADD SLOAD PUSH1 0xFF PUSH1 0x1F SWAP1 SWAP3 AND PUSH2 0x100 EXP SWAP1 DIV AND DUP2 GT PUSH2 0x167D JUMPI PUSH1 0x0 DUP12 PUSH1 0x0 NOT DUP4 ADD PUSH1 0x14 DUP2 LT PUSH2 0x15EF JUMPI INVALID JUMPDEST PUSH1 0x20 MUL ADD MLOAD PUSH1 0x1 PUSH1 0x1 PUSH1 0xA0 SHL SUB AND EQ PUSH2 0x1675 JUMPI PUSH1 0x0 PUSH1 0x10 DUP4 DUP2 SLOAD DUP2 LT PUSH2 0x1611 JUMPI INVALID JUMPDEST SWAP1 PUSH1 0x0 MSTORE PUSH1 0x20 PUSH1 0x0 KECCAK256 ADD PUSH1 0x2 DUP2 SLOAD DUP2 LT PUSH2 0x1627 JUMPI INVALID JUMPDEST PUSH1 0x0 SWAP2 DUP3 MSTORE PUSH1 0x20 DUP1 DUP4 KECCAK256 SWAP1 DUP3 DIV ADD SLOAD PUSH1 0xFF PUSH1 0x1F SWAP1 SWAP3 AND PUSH2 0x100 EXP SWAP1 DIV AND SWAP2 POP PUSH2 0x1665 DUP14 PUSH1 0x0 NOT DUP6 ADD PUSH1 0x14 DUP2 LT PUSH2 0x1659 JUMPI INVALID JUMPDEST PUSH1 0x20 MUL ADD MLOAD DUP10 DUP10 PUSH2 0x39CF JUMP JUMPDEST SWAP1 POP PUSH2 0x3E8 DUP3 DUP3 MUL DIV DUP13 ADD SWAP12 POP POP POP JUMPDEST PUSH1 0x1 ADD PUSH2 0x1594 JUMP JUMPDEST POP PUSH1 0x1 ADD PUSH2 0x1545 JUMP JUMPDEST POP PUSH1 0x0 DUP2 SLT ISZERO PUSH2 0x1699 JUMPI POP POP POP POP PUSH2 0x16AA JUMP JUMPDEST POP POP PUSH1 0x0 NOT SWAP1 SWAP3 ADD SWAP2 POP PUSH2 0x145D SWAP1 POP JUMP JUMPDEST POP SWAP2 SWAP9 SWAP8 POP POP POP POP POP POP POP POP JUMP JUMPDEST PUSH1 0xD SLOAD PUSH2 0xFFFF AND SWAP1 JUMP JUMPDEST PUSH1 0x0 PUSH2 0x16CC PUSH2 0x17EF JUMP JUMPDEST SWAP1 POP SWAP1 JUMP JUMPDEST PUSH1 0x0 DUP1 PUSH2 0x16DC PUSH2 0x22BB JUMP JUMPDEST SWAP1 POP PUSH1 0x1 PUSH1 0x1 PUSH1 0xA0 SHL SUB DUP2 AND PUSH2 0x1727 JUMPI PUSH1 0x40 DUP1 MLOAD PUSH3 0x461BCD PUSH1 0xE5 SHL DUP2 MSTORE PUSH1 0x20 PUSH1 0x4 DUP3 ADD MSTORE PUSH1 0x1D PUSH1 0x24 DUP3 ADD MSTORE PUSH1 0x0 DUP1 MLOAD PUSH1 0x20 PUSH2 0x4556 DUP4 CODECOPY DUP2 MLOAD SWAP2 MSTORE PUSH1 0x44 DUP3 ADD MSTORE SWAP1 MLOAD SWAP1 DUP2 SWAP1 SUB PUSH1 0x64 ADD SWAP1 REVERT JUMPDEST PUSH1 0x0 DUP1 PUSH2 0x1733 DUP6 PUSH2 0x3B05 JUMP JUMPDEST SWAP2 POP SWAP2 POP PUSH1 0x0 DUP3 PUSH1 0xFF AND GT PUSH2 0x178F JUMPI PUSH1 0x40 DUP1 MLOAD PUSH3 0x461BCD PUSH1 0xE5 SHL DUP2 MSTORE PUSH1 0x20 PUSH1 0x4 DUP3 ADD MSTORE PUSH1 0x1D PUSH1 0x24 DUP3 ADD MSTORE PUSH32 0x506C61736D6174696347616D653A20496E76616C69645F616D6F756E74000000 PUSH1 0x44 DUP3 ADD MSTORE SWAP1 MLOAD SWAP1 DUP2 SWAP1 SUB PUSH1 0x64 ADD SWAP1 REVERT JUMPDEST PUSH1 0x9 SLOAD PUSH2 0x3E8 DUP3 DUP8 MUL DIV SWAP1 PUSH2 0x17B9 SWAP1 PUSH1 0x1 PUSH1 0x1 PUSH1 0xA0 SHL SUB AND DUP6 ADDRESS DUP5 DUP11 SUB PUSH1 0x64 PUSH1 0xA DUP8 MUL DIV ADD PUSH2 0x306F JUMP JUMPDEST PUSH1 0x9 SLOAD PUSH2 0x17D7 SWAP1 PUSH1 0x1 PUSH1 0x1 PUSH1 0xA0 SHL SUB AND DUP6 DUP10 PUSH1 0x64 PUSH1 0x5A DUP7 MUL DIV PUSH2 0x306F JUMP JUMPDEST PUSH2 0x17E5 DUP5 DUP9 DUP9 DUP7 DUP6 TIMESTAMP PUSH2 0x3C51 JUMP JUMPDEST POP POP POP POP SWAP3 SWAP2 POP POP JUMP JUMPDEST PUSH1 0x0 SLOAD PUSH1 0x1 PUSH1 0x1 PUSH1 0xA0 SHL SUB AND SWAP1 JUMP JUMPDEST PUSH1 0x6 DUP1 SLOAD PUSH1 0x40 DUP1 MLOAD PUSH1 0x20 PUSH1 0x1F PUSH1 0x2 PUSH1 0x0 NOT PUSH2 0x100 PUSH1 0x1 DUP9 AND ISZERO MUL ADD SWAP1 SWAP6 AND SWAP5 SWAP1 SWAP5 DIV SWAP4 DUP5 ADD DUP2 SWAP1 DIV DUP2 MUL DUP3 ADD DUP2 ADD SWAP1 SWAP3 MSTORE DUP3 DUP2 MSTORE PUSH1 0x60 SWAP4 SWAP1 SWAP3 SWAP1 SWAP2 DUP4 ADD DUP3 DUP3 DUP1 ISZERO PUSH2 0xA0A JUMPI DUP1 PUSH1 0x1F LT PUSH2 0x9DF JUMPI PUSH2 0x100 DUP1 DUP4 SLOAD DIV MUL DUP4 MSTORE SWAP2 PUSH1 0x20 ADD SWAP2 PUSH2 0xA0A JUMP JUMPDEST PUSH1 0x8 SLOAD SWAP1 JUMP JUMPDEST PUSH1 0xD SLOAD PUSH1 0x1 PUSH1 0x50 SHL SWAP1 DIV PUSH2 0xFFFF AND SWAP1 JUMP JUMPDEST PUSH1 0x0 DUP1 DUP3 PUSH1 0xFF AND GT DUP1 ISZERO PUSH2 0x188D JUMPI POP PUSH1 0x4 DUP3 PUSH1 0xFF AND LT JUMPDEST ISZERO PUSH2 0x191A JUMPI PUSH1 0xD SLOAD PUSH1 0x22 DUP1 SLOAD PUSH2 0x3E8 SWAP3 PUSH1 0x1 PUSH1 0x50 SHL SWAP1 DIV PUSH2 0xFFFF AND SWAP2 SWAP1 PUSH1 0xFF DUP7 AND SWAP1 DUP2 LT PUSH2 0x18B7 JUMPI INVALID JUMPDEST SWAP1 PUSH1 0x0 MSTORE PUSH1 0x20 PUSH1 0x0 KECCAK256 ADD PUSH1 0x0 DUP2 SLOAD DUP2 LT PUSH2 0x18CD JUMPI INVALID JUMPDEST SWAP1 PUSH1 0x0 MSTORE PUSH1 0x20 PUSH1 0x0 KECCAK256 ADD SLOAD MUL DUP2 PUSH2 0x18E0 JUMPI INVALID JUMPDEST DIV PUSH1 0x22 DUP4 PUSH1 0xFF AND DUP2 SLOAD DUP2 LT PUSH2 0x18F1 JUMPI INVALID JUMPDEST SWAP1 PUSH1 0x0 MSTORE PUSH1 0x20 PUSH1 0x0 KECCAK256 ADD PUSH1 0x0 DUP2 SLOAD DUP2 LT PUSH2 0x1907 JUMPI INVALID JUMPDEST SWAP1 PUSH1 0x0 MSTORE PUSH1 0x20 PUSH1 0x0 KECCAK256 ADD SLOAD ADD SWAP1 POP PUSH2 0xA69 JUMP JUMPDEST POP PUSH1 0x0 SWAP2 SWAP1 POP JUMP JUMPDEST PUSH1 0x0 DUP1 PUSH2 0x192D PUSH2 0x22BB JUMP JUMPDEST SWAP1 POP PUSH1 0x0 PUSH2 0x1939 PUSH2 0xD89 JUMP JUMPDEST PUSH1 0xFF AND PUSH1 0xA EXP PUSH2 0x1948 DUP6 PUSH2 0x1229 JUMP JUMPDEST PUSH1 0x9 SLOAD SWAP2 MUL SWAP2 POP PUSH2 0x1964 SWAP1 PUSH1 0x1 PUSH1 0x1 PUSH1 0xA0 SHL SUB AND DUP4 ADDRESS DUP8 PUSH2 0x306F JUMP JUMPDEST PUSH2 0x196E DUP3 DUP3 PUSH2 0x3DD9 JUMP JUMPDEST POP POP SWAP2 SWAP1 POP JUMP JUMPDEST PUSH1 0xC SLOAD SWAP1 JUMP JUMPDEST PUSH1 0x0 PUSH2 0x1985 PUSH2 0x22BB JUMP JUMPDEST PUSH1 0x0 SLOAD PUSH1 0x1 PUSH1 0x1 PUSH1 0xA0 SHL SUB SWAP1 DUP2 AND SWAP2 AND EQ PUSH2 0x19D5 JUMPI PUSH1 0x40 DUP1 MLOAD PUSH3 0x461BCD PUSH1 0xE5 SHL DUP2 MSTORE PUSH1 0x20 PUSH1 0x4 DUP3 ADD DUP2 SWAP1 MSTORE PUSH1 0x24 DUP3 ADD MSTORE PUSH1 0x0 DUP1 MLOAD PUSH1 0x20 PUSH2 0x4437 DUP4 CODECOPY DUP2 MLOAD SWAP2 MSTORE PUSH1 0x44 DUP3 ADD MSTORE SWAP1 MLOAD SWAP1 DUP2 SWAP1 SUB PUSH1 0x64 ADD SWAP1 REVERT JUMPDEST PUSH2 0x19E6 PUSH2 0x19E0 PUSH2 0x22BB JUMP JUMPDEST DUP4 PUSH2 0x3DD9 JUMP JUMPDEST POP PUSH1 0x1 SWAP2 SWAP1 POP JUMP JUMPDEST PUSH1 0x0 PUSH2 0xA28 PUSH2 0x19FB PUSH2 0x22BB JUMP JUMPDEST DUP5 PUSH2 0xC1A DUP6 PUSH1 0x40 MLOAD DUP1 PUSH1 0x60 ADD PUSH1 0x40 MSTORE DUP1 PUSH1 0x25 DUP2 MSTORE PUSH1 0x20 ADD PUSH2 0x4382 PUSH1 0x25 SWAP2 CODECOPY PUSH1 0x2 PUSH1 0x0 PUSH2 0x1A25 PUSH2 0x22BB JUMP JUMPDEST PUSH1 0x1 PUSH1 0x1 PUSH1 0xA0 SHL SUB SWAP1 DUP2 AND DUP3 MSTORE PUSH1 0x20 DUP1 DUP4 ADD SWAP4 SWAP1 SWAP4 MSTORE PUSH1 0x40 SWAP2 DUP3 ADD PUSH1 0x0 SWAP1 DUP2 KECCAK256 SWAP2 DUP14 AND DUP2 MSTORE SWAP3 MSTORE SWAP1 KECCAK256 SLOAD SWAP2 SWAP1 PUSH2 0x25B2 JUMP JUMPDEST PUSH1 0x14 SLOAD PUSH1 0x0 SWAP1 PUSH1 0x1 PUSH1 0x1 PUSH1 0xA0 SHL SUB DUP4 DUP2 AND SWAP2 AND EQ DUP1 PUSH2 0x1A82 JUMPI POP PUSH1 0x17 SLOAD PUSH1 0x1 PUSH1 0x1 PUSH1 0xA0 SHL SUB DUP4 DUP2 AND SWAP2 AND EQ JUMPDEST DUP1 PUSH2 0x1A9A JUMPI POP PUSH1 0x11 SLOAD PUSH1 0x1 PUSH1 0x1 PUSH1 0xA0 SHL SUB DUP4 DUP2 AND SWAP2 AND EQ JUMPDEST ISZERO PUSH2 0x1AA7 JUMPI POP PUSH1 0x0 PUSH2 0xA69 JUMP JUMPDEST PUSH1 0x1 PUSH1 0x1 PUSH1 0xA0 SHL SUB DUP3 AND PUSH1 0x0 SWAP1 DUP2 MSTORE PUSH1 0x1C PUSH1 0x20 MSTORE PUSH1 0x40 SWAP1 KECCAK256 SLOAD PUSH2 0x3E9 PUSH1 0x1 PUSH1 0x20 SHL SWAP1 SWAP2 DIV PUSH2 0xFFFF AND LT PUSH2 0x1ADB JUMPI PUSH1 0x2 PUSH2 0x1ADE JUMP JUMPDEST PUSH1 0x5 JUMPDEST PUSH1 0xFF AND SWAP3 SWAP2 POP POP JUMP JUMPDEST PUSH1 0x0 PUSH2 0xA28 PUSH2 0x1AF4 PUSH2 0x22BB JUMP JUMPDEST DUP5 DUP5 PUSH2 0x2460 JUMP JUMPDEST PUSH2 0x1B03 PUSH2 0x22BB JUMP JUMPDEST PUSH1 0x0 SLOAD PUSH1 0x1 PUSH1 0x1 PUSH1 0xA0 SHL SUB SWAP1 DUP2 AND SWAP2 AND EQ PUSH2 0x1B53 JUMPI PUSH1 0x40 DUP1 MLOAD PUSH3 0x461BCD PUSH1 0xE5 SHL DUP2 MSTORE PUSH1 0x20 PUSH1 0x4 DUP3 ADD DUP2 SWAP1 MSTORE PUSH1 0x24 DUP3 ADD MSTORE PUSH1 0x0 DUP1 MLOAD PUSH1 0x20 PUSH2 0x4437 DUP4 CODECOPY DUP2 MLOAD SWAP2 MSTORE PUSH1 0x44 DUP3 ADD MSTORE SWAP1 MLOAD SWAP1 DUP2 SWAP1 SUB PUSH1 0x64 ADD SWAP1 REVERT JUMPDEST PUSH1 0x0 PUSH2 0x1B5D PUSH2 0x1247 JUMP JUMPDEST PUSH1 0x1 PUSH1 0x1 PUSH1 0xA0 SHL SUB AND EQ PUSH2 0x1BA2 JUMPI PUSH1 0x40 MLOAD PUSH3 0x461BCD PUSH1 0xE5 SHL DUP2 MSTORE PUSH1 0x4 ADD DUP1 DUP1 PUSH1 0x20 ADD DUP3 DUP2 SUB DUP3 MSTORE PUSH1 0x24 DUP2 MSTORE PUSH1 0x20 ADD DUP1 PUSH2 0x44C8 PUSH1 0x24 SWAP2 CODECOPY PUSH1 0x40 ADD SWAP2 POP POP PUSH1 0x40 MLOAD DUP1 SWAP2 SUB SWAP1 REVERT JUMPDEST PUSH2 0x132A DUP2 PUSH2 0x3F21 JUMP JUMPDEST PUSH1 0xD SLOAD PUSH1 0x1 PUSH1 0x30 SHL SWAP1 DIV PUSH4 0xFFFFFFFF AND SWAP1 JUMP JUMPDEST PUSH1 0x25 SLOAD SWAP1 JUMP JUMPDEST PUSH2 0x1BCC PUSH2 0x22BB JUMP JUMPDEST PUSH1 0x0 SLOAD PUSH1 0x1 PUSH1 0x1 PUSH1 0xA0 SHL SUB SWAP1 DUP2 AND SWAP2 AND EQ PUSH2 0x1C1C JUMPI PUSH1 0x40 DUP1 MLOAD PUSH3 0x461BCD PUSH1 0xE5 SHL DUP2 MSTORE PUSH1 0x20 PUSH1 0x4 DUP3 ADD DUP2 SWAP1 MSTORE PUSH1 0x24 DUP3 ADD MSTORE PUSH1 0x0 DUP1 MLOAD PUSH1 0x20 PUSH2 0x4437 DUP4 CODECOPY DUP2 MLOAD SWAP2 MSTORE PUSH1 0x44 DUP3 ADD MSTORE SWAP1 MLOAD SWAP1 DUP2 SWAP1 SUB PUSH1 0x64 ADD SWAP1 REVERT JUMPDEST PUSH1 0x0 PUSH2 0x1C26 PUSH2 0xD92 JUMP JUMPDEST PUSH1 0x1 PUSH1 0x1 PUSH1 0xA0 SHL SUB AND EQ PUSH2 0x1C6B JUMPI PUSH1 0x40 MLOAD PUSH3 0x461BCD PUSH1 0xE5 SHL DUP2 MSTORE PUSH1 0x4 ADD DUP1 DUP1 PUSH1 0x20 ADD DUP3 DUP2 SUB DUP3 MSTORE PUSH1 0x22 DUP2 MSTORE PUSH1 0x20 ADD DUP1 PUSH2 0x4360 PUSH1 0x22 SWAP2 CODECOPY PUSH1 0x40 ADD SWAP2 POP POP PUSH1 0x40 MLOAD DUP1 SWAP2 SUB SWAP1 REVERT JUMPDEST PUSH2 0x132A DUP2 PUSH2 0x3F43 JUMP JUMPDEST PUSH1 0x0 PUSH2 0x1C7E PUSH2 0x22BB JUMP JUMPDEST SWAP1 POP PUSH1 0x1 PUSH1 0x1 PUSH1 0xA0 SHL SUB DUP2 AND PUSH2 0x1CC9 JUMPI PUSH1 0x40 DUP1 MLOAD PUSH3 0x461BCD PUSH1 0xE5 SHL DUP2 MSTORE PUSH1 0x20 PUSH1 0x4 DUP3 ADD MSTORE PUSH1 0x1D PUSH1 0x24 DUP3 ADD MSTORE PUSH1 0x0 DUP1 MLOAD PUSH1 0x20 PUSH2 0x4556 DUP4 CODECOPY DUP2 MLOAD SWAP2 MSTORE PUSH1 0x44 DUP3 ADD MSTORE SWAP1 MLOAD SWAP1 DUP2 SWAP1 SUB PUSH1 0x64 ADD SWAP1 REVERT JUMPDEST PUSH1 0x1 PUSH1 0x1 PUSH1 0xA0 SHL SUB DUP2 AND PUSH1 0x0 SWAP1 DUP2 MSTORE PUSH1 0x23 PUSH1 0x20 MSTORE PUSH1 0x40 DUP2 KECCAK256 SWAP1 PUSH2 0x1CEB DUP4 PUSH2 0xC29 JUMP JUMPDEST SWAP1 POP PUSH1 0x0 DUP2 GT PUSH2 0x1D30 JUMPI PUSH1 0x40 DUP1 MLOAD PUSH3 0x461BCD PUSH1 0xE5 SHL DUP2 MSTORE PUSH1 0x20 PUSH1 0x4 DUP3 ADD MSTORE PUSH1 0x1D PUSH1 0x24 DUP3 ADD MSTORE PUSH1 0x0 DUP1 MLOAD PUSH1 0x20 PUSH2 0x4556 DUP4 CODECOPY DUP2 MLOAD SWAP2 MSTORE PUSH1 0x44 DUP3 ADD MSTORE SWAP1 MLOAD SWAP1 DUP2 SWAP1 SUB PUSH1 0x64 ADD SWAP1 REVERT JUMPDEST PUSH1 0xE SLOAD PUSH1 0x27 SLOAD DUP3 ADD GT ISZERO PUSH2 0x1D75 JUMPI PUSH1 0x40 MLOAD PUSH3 0x461BCD PUSH1 0xE5 SHL DUP2 MSTORE PUSH1 0x4 ADD DUP1 DUP1 PUSH1 0x20 ADD DUP3 DUP2 SUB DUP3 MSTORE PUSH1 0x22 DUP2 MSTORE PUSH1 0x20 ADD DUP1 PUSH2 0x433E PUSH1 0x22 SWAP2 CODECOPY PUSH1 0x40 ADD SWAP2 POP POP PUSH1 0x40 MLOAD DUP1 SWAP2 SUB SWAP1 REVERT JUMPDEST TIMESTAMP PUSH1 0x1 DUP4 ADD SSTORE PUSH1 0x27 DUP1 SLOAD DUP3 ADD SWAP1 SSTORE PUSH2 0x1D8D DUP4 DUP3 PUSH2 0x3DD9 JUMP JUMPDEST POP POP POP JUMP JUMPDEST PUSH1 0x4 SLOAD SWAP1 JUMP JUMPDEST PUSH1 0x1 PUSH1 0x1 PUSH1 0xA0 SHL SUB SWAP2 DUP3 AND PUSH1 0x0 SWAP1 DUP2 MSTORE PUSH1 0x2 PUSH1 0x20 SWAP1 DUP2 MSTORE PUSH1 0x40 DUP1 DUP4 KECCAK256 SWAP4 SWAP1 SWAP5 AND DUP3 MSTORE SWAP2 SWAP1 SWAP2 MSTORE KECCAK256 SLOAD SWAP1 JUMP JUMPDEST PUSH1 0xD SLOAD PUSH3 0x10000 SWAP1 DIV PUSH4 0xFFFFFFFF AND SWAP1 JUMP JUMPDEST PUSH1 0x1A SLOAD PUSH1 0x0 SWAP1 PUSH1 0x1 PUSH1 0x1 PUSH1 0xA0 SHL SUB AND PUSH2 0x1DF0 JUMPI POP PUSH1 0x0 PUSH2 0xA69 JUMP JUMPDEST PUSH1 0x14 SLOAD PUSH1 0x0 SWAP1 PUSH1 0x1 PUSH1 0x1 PUSH1 0xA0 SHL SUB DUP5 DUP2 AND SWAP2 AND EQ ISZERO PUSH2 0x1E13 JUMPI POP POP PUSH1 0x15 SLOAD PUSH2 0xA69 JUMP JUMPDEST PUSH1 0x17 SLOAD PUSH1 0x1 PUSH1 0x1 PUSH1 0xA0 SHL SUB DUP5 DUP2 AND SWAP2 AND EQ ISZERO PUSH2 0x1E33 JUMPI POP POP PUSH1 0x18 SLOAD PUSH2 0xA69 JUMP JUMPDEST PUSH1 0x11 SLOAD PUSH1 0x1 PUSH1 0x1 PUSH1 0xA0 SHL SUB DUP5 DUP2 AND SWAP2 AND EQ ISZERO PUSH2 0x2053 JUMPI PUSH1 0x13 SLOAD PUSH1 0x0 DUP2 ISZERO PUSH2 0x1E5B JUMPI PUSH1 0x1 PUSH2 0x1E60 JUMP JUMPDEST PUSH1 0x1 DUP3 SUB JUMPDEST SWAP1 POP JUMPDEST DUP1 ISZERO PUSH2 0x1FE0 JUMPI PUSH1 0x0 DUP1 DUP1 DUP1 DUP6 PUSH2 0x1EAD JUMPI PUSH1 0x0 SWAP4 POP TIMESTAMP SWAP3 POP PUSH1 0x1D PUSH1 0x3 DUP2 SLOAD DUP2 LT PUSH2 0x1E88 JUMPI INVALID JUMPDEST PUSH1 0x0 SWAP2 DUP3 MSTORE PUSH1 0x20 DUP3 KECCAK256 PUSH1 0x2 PUSH1 0x4 SWAP1 SWAP3 MUL ADD ADD SLOAD PUSH1 0xFF PUSH2 0x100 SWAP1 SWAP2 DIV AND SWAP3 POP SWAP1 POP PUSH2 0x1F4A JUMP JUMPDEST PUSH1 0x0 PUSH1 0x11 PUSH1 0x2 ADD PUSH1 0x1 DUP8 SUB DUP2 SLOAD DUP2 LT PUSH2 0x1EC2 JUMPI INVALID JUMPDEST SWAP1 PUSH1 0x0 MSTORE PUSH1 0x20 PUSH1 0x0 KECCAK256 SWAP1 PUSH1 0x4 MUL ADD SWAP1 POP DUP1 PUSH1 0x0 ADD SLOAD SWAP5 POP DUP7 DUP7 EQ PUSH2 0x1F05 JUMPI PUSH1 0x13 DUP1 SLOAD DUP8 SWAP1 DUP2 LT PUSH2 0x1EEE JUMPI INVALID JUMPDEST SWAP1 PUSH1 0x0 MSTORE PUSH1 0x20 PUSH1 0x0 KECCAK256 SWAP1 PUSH1 0x4 MUL ADD PUSH1 0x0 ADD SLOAD PUSH2 0x1F07 JUMP JUMPDEST TIMESTAMP JUMPDEST SWAP4 POP PUSH1 0x1D PUSH1 0x1 DUP3 PUSH1 0x3 ADD SLOAD SUB DUP2 SLOAD DUP2 LT PUSH2 0x1F1D JUMPI INVALID JUMPDEST SWAP1 PUSH1 0x0 MSTORE PUSH1 0x20 PUSH1 0x0 KECCAK256 SWAP1 PUSH1 0x4 MUL ADD PUSH1 0x2 ADD PUSH1 0x1 SWAP1 SLOAD SWAP1 PUSH2 0x100 EXP SWAP1 DIV PUSH1 0xFF AND PUSH1 0xFF AND SWAP3 POP DUP1 PUSH1 0x2 ADD SLOAD SWAP2 POP POP JUMPDEST PUSH1 0x1A SLOAD PUSH1 0x0 SWAP1 PUSH2 0x1F64 SWAP1 PUSH1 0x1 PUSH1 0x1 PUSH1 0xA0 SHL SUB AND DUP7 DUP7 PUSH2 0x39CF JUMP JUMPDEST SWAP1 POP PUSH2 0x3E8 PUSH1 0x10 PUSH1 0x0 DUP2 SLOAD DUP2 LT PUSH2 0x1F77 JUMPI INVALID JUMPDEST SWAP1 PUSH1 0x0 MSTORE PUSH1 0x20 PUSH1 0x0 KECCAK256 ADD PUSH1 0x2 DUP2 SLOAD DUP2 LT PUSH2 0x1F8D JUMPI INVALID JUMPDEST PUSH1 0x0 SWAP2 DUP3 MSTORE PUSH1 0x20 SWAP2 DUP3 SWAP1 KECCAK256 SWAP2 DUP2 DIV SWAP1 SWAP2 ADD SLOAD PUSH1 0xFF PUSH1 0x1F SWAP1 SWAP3 AND PUSH2 0x100 EXP SWAP1 DIV AND DUP3 MUL DUP2 PUSH2 0x1FB6 JUMPI INVALID JUMPDEST DIV DUP9 ADD SWAP8 POP PUSH1 0x0 DUP3 SLT ISZERO PUSH2 0x1FCE JUMPI POP POP POP POP POP PUSH2 0x1FE0 JUMP JUMPDEST POP POP PUSH1 0x0 NOT SWAP1 SWAP4 ADD SWAP3 POP PUSH2 0x1E63 SWAP2 POP POP JUMP JUMPDEST POP PUSH1 0x1A SLOAD PUSH1 0x1 PUSH1 0x1 PUSH1 0xA0 SHL SUB AND PUSH1 0x0 SWAP1 DUP2 MSTORE PUSH1 0x1C PUSH1 0x20 MSTORE PUSH1 0x40 DUP2 KECCAK256 SWAP1 JUMPDEST PUSH1 0x7 DUP3 ADD SLOAD DUP2 LT ISZERO PUSH2 0x204B JUMPI PUSH2 0x203F DUP3 PUSH1 0x7 ADD DUP3 DUP2 SLOAD DUP2 LT PUSH2 0x201B JUMPI INVALID JUMPDEST PUSH1 0x0 SWAP2 DUP3 MSTORE PUSH1 0x20 SWAP1 SWAP2 KECCAK256 PUSH1 0x2 SWAP1 SWAP2 MUL ADD SLOAD PUSH1 0x1 PUSH1 0x1 PUSH1 0xA0 SHL SUB AND DUP8 PUSH1 0x4 PUSH1 0x1 PUSH2 0x13EA JUMP JUMPDEST SWAP1 SWAP4 ADD SWAP3 PUSH1 0x1 ADD PUSH2 0x1FFD JUMP JUMPDEST POP POP POP PUSH2 0xA66 JUMP JUMPDEST PUSH1 0x1A SLOAD PUSH1 0x1 PUSH1 0x1 PUSH1 0xA0 SHL SUB DUP5 DUP2 AND SWAP2 AND EQ ISZERO PUSH2 0x20D6 JUMPI PUSH1 0x1 PUSH1 0x1 PUSH1 0xA0 SHL SUB DUP4 AND PUSH1 0x0 SWAP1 DUP2 MSTORE PUSH1 0x1C PUSH1 0x20 MSTORE PUSH1 0x40 DUP2 KECCAK256 SWAP1 JUMPDEST PUSH1 0x7 DUP3 ADD SLOAD DUP2 LT ISZERO PUSH2 0x20CF JUMPI PUSH2 0x20C3 DUP3 PUSH1 0x7 ADD DUP3 DUP2 SLOAD DUP2 LT PUSH2 0x20A1 JUMPI INVALID JUMPDEST PUSH1 0x0 SWAP2 DUP3 MSTORE PUSH1 0x20 DUP3 KECCAK256 PUSH1 0x2 SWAP1 SWAP2 MUL ADD SLOAD PUSH1 0x1 PUSH1 0x1 PUSH1 0xA0 SHL SUB AND SWAP1 DUP8 SWAP1 DUP1 PUSH2 0x13EA JUMP JUMPDEST SWAP1 SWAP3 ADD SWAP2 PUSH1 0x1 ADD PUSH2 0x2083 JUMP JUMPDEST POP POP PUSH2 0xA66 JUMP JUMPDEST PUSH1 0x1 PUSH1 0x1 PUSH1 0xA0 SHL SUB DUP4 AND PUSH1 0x0 SWAP1 DUP2 MSTORE PUSH1 0x1C PUSH1 0x20 MSTORE PUSH1 0x40 SWAP1 KECCAK256 PUSH1 0x6 DUP2 ADD SLOAD PUSH1 0x3 PUSH2 0xFFFF PUSH1 0x1 PUSH1 0xA0 SHL SWAP1 SWAP3 DIV DUP3 AND DIV AND DUP1 ISZERO PUSH2 0x2157 JUMPI PUSH1 0x0 JUMPDEST DUP2 DUP2 LT ISZERO PUSH2 0x2155 JUMPI PUSH2 0x2149 DUP4 PUSH1 0x7 ADD DUP3 DUP2 SLOAD DUP2 LT PUSH2 0x2127 JUMPI INVALID JUMPDEST PUSH1 0x0 SWAP2 DUP3 MSTORE PUSH1 0x20 DUP3 KECCAK256 PUSH1 0x2 SWAP1 SWAP2 MUL ADD SLOAD PUSH1 0x1 PUSH1 0x1 PUSH1 0xA0 SHL SUB AND SWAP1 DUP9 SWAP1 DUP1 PUSH2 0x13EA JUMP JUMPDEST SWAP1 SWAP4 ADD SWAP3 PUSH1 0x1 ADD PUSH2 0x210D JUMP JUMPDEST POP JUMPDEST POP POP SWAP3 SWAP2 POP POP JUMP JUMPDEST PUSH1 0x0 DUP1 DUP1 JUMPDEST PUSH1 0x1 PUSH1 0x1 PUSH1 0xA0 SHL SUB DUP5 AND PUSH1 0x0 SWAP1 DUP2 MSTORE PUSH1 0x24 PUSH1 0x20 MSTORE PUSH1 0x40 SWAP1 KECCAK256 SLOAD DUP2 LT ISZERO PUSH2 0x21EB JUMPI PUSH1 0x1 PUSH1 0x1 PUSH1 0xA0 SHL SUB DUP5 AND PUSH1 0x0 SWAP1 DUP2 MSTORE PUSH1 0x24 PUSH1 0x20 MSTORE PUSH1 0x40 DUP2 KECCAK256 DUP1 SLOAD PUSH1 0x23 SWAP2 DUP4 SWAP2 DUP6 SWAP1 DUP2 LT PUSH2 0x21AD JUMPI INVALID JUMPDEST PUSH1 0x0 SWAP2 DUP3 MSTORE PUSH1 0x20 DUP1 DUP4 KECCAK256 SWAP1 SWAP2 ADD SLOAD PUSH1 0x1 PUSH1 0x1 PUSH1 0xA0 SHL SUB AND DUP4 MSTORE DUP3 ADD SWAP3 SWAP1 SWAP3 MSTORE PUSH1 0x40 ADD SWAP1 KECCAK256 SLOAD PUSH1 0xFF PUSH1 0x1 PUSH1 0xA0 SHL SWAP1 SWAP2 DIV AND SWAP3 SWAP1 SWAP3 ADD SWAP2 POP PUSH1 0x1 ADD PUSH2 0x2164 JUMP JUMPDEST POP SWAP3 SWAP2 POP POP JUMP JUMPDEST PUSH2 0x21FA PUSH2 0x22BB JUMP JUMPDEST PUSH1 0x0 SLOAD PUSH1 0x1 PUSH1 0x1 PUSH1 0xA0 SHL SUB SWAP1 DUP2 AND SWAP2 AND EQ PUSH2 0x224A JUMPI PUSH1 0x40 DUP1 MLOAD PUSH3 0x461BCD PUSH1 0xE5 SHL DUP2 MSTORE PUSH1 0x20 PUSH1 0x4 DUP3 ADD DUP2 SWAP1 MSTORE PUSH1 0x24 DUP3 ADD MSTORE PUSH1 0x0 DUP1 MLOAD PUSH1 0x20 PUSH2 0x4437 DUP4 CODECOPY DUP2 MLOAD SWAP2 MSTORE PUSH1 0x44 DUP3 ADD MSTORE SWAP1 MLOAD SWAP1 DUP2 SWAP1 SUB PUSH1 0x64 ADD SWAP1 REVERT JUMPDEST PUSH2 0x132A DUP2 PUSH2 0x3F65 JUMP JUMPDEST PUSH1 0x0 PUSH2 0xA66 DUP3 PUSH1 0x0 DUP1 PUSH2 0x39CF JUMP JUMPDEST PUSH1 0x0 DUP3 DUP3 ADD DUP4 DUP2 LT ISZERO PUSH2 0xB7A JUMPI PUSH1 0x40 DUP1 MLOAD PUSH3 0x461BCD PUSH1 0xE5 SHL DUP2 MSTORE PUSH1 0x20 PUSH1 0x4 DUP3 ADD MSTORE PUSH1 0x1B PUSH1 0x24 DUP3 ADD MSTORE PUSH32 0x536166654D6174683A206164646974696F6E206F766572666C6F770000000000 PUSH1 0x44 DUP3 ADD MSTORE SWAP1 MLOAD SWAP1 DUP2 SWAP1 SUB PUSH1 0x64 ADD SWAP1 REVERT JUMPDEST CALLER SWAP1 JUMP JUMPDEST PUSH1 0x1 PUSH1 0x1 PUSH1 0xA0 SHL SUB DUP4 AND PUSH2 0x2304 JUMPI PUSH1 0x40 MLOAD PUSH3 0x461BCD PUSH1 0xE5 SHL DUP2 MSTORE PUSH1 0x4 ADD DUP1 DUP1 PUSH1 0x20 ADD DUP3 DUP2 SUB DUP3 MSTORE PUSH1 0x24 DUP2 MSTORE PUSH1 0x20 ADD DUP1 PUSH2 0x450E PUSH1 0x24 SWAP2 CODECOPY PUSH1 0x40 ADD SWAP2 POP POP PUSH1 0x40 MLOAD DUP1 SWAP2 SUB SWAP1 REVERT JUMPDEST PUSH1 0x1 PUSH1 0x1 PUSH1 0xA0 SHL SUB DUP3 AND PUSH2 0x2349 JUMPI PUSH1 0x40 MLOAD PUSH3 0x461BCD PUSH1 0xE5 SHL DUP2 MSTORE PUSH1 0x4 ADD DUP1 DUP1 PUSH1 0x20 ADD DUP3 DUP2 SUB DUP3 MSTORE PUSH1 0x22 DUP2 MSTORE PUSH1 0x20 ADD DUP1 PUSH2 0x42AB PUSH1 0x22 SWAP2 CODECOPY PUSH1 0x40 ADD SWAP2 POP POP PUSH1 0x40 MLOAD DUP1 SWAP2 SUB SWAP1 REVERT JUMPDEST PUSH1 0x1 PUSH1 0x1 PUSH1 0xA0 SHL SUB DUP1 DUP5 AND PUSH1 0x0 DUP2 DUP2 MSTORE PUSH1 0x2 PUSH1 0x20 SWAP1 DUP2 MSTORE PUSH1 0x40 DUP1 DUP4 KECCAK256 SWAP5 DUP8 AND DUP1 DUP5 MSTORE SWAP5 DUP3 MSTORE SWAP2 DUP3 SWAP1 KECCAK256 DUP6 SWAP1 SSTORE DUP2 MLOAD DUP6 DUP2 MSTORE SWAP2 MLOAD PUSH32 0x8C5BE1E5EBEC7D5BD14F71427D1E84F3DD0314C0F7B2291E5B200AC8C7C3B925 SWAP3 DUP2 SWAP1 SUB SWAP1 SWAP2 ADD SWAP1 LOG3 POP POP POP JUMP JUMPDEST PUSH1 0xD SLOAD PUSH1 0x0 SWAP1 PUSH1 0x1 PUSH1 0x70 SHL SWAP1 DIV PUSH1 0xFF AND ISZERO PUSH2 0x23C8 JUMPI POP PUSH1 0x1 PUSH2 0x97B JUMP JUMPDEST PUSH1 0x20 SLOAD PUSH1 0x1 DUP2 GT ISZERO PUSH2 0x2458 JUMPI PUSH1 0x0 PUSH1 0x20 PUSH1 0x1 DUP4 SUB DUP2 SLOAD DUP2 LT PUSH2 0x23E6 JUMPI INVALID JUMPDEST SWAP1 PUSH1 0x0 MSTORE PUSH1 0x20 PUSH1 0x0 KECCAK256 SWAP1 PUSH1 0x4 MUL ADD PUSH1 0x1 ADD SLOAD PUSH1 0x20 PUSH1 0x2 DUP5 SUB DUP2 SLOAD DUP2 LT PUSH2 0x2408 JUMPI INVALID JUMPDEST SWAP1 PUSH1 0x0 MSTORE PUSH1 0x20 PUSH1 0x0 KECCAK256 SWAP1 PUSH1 0x4 MUL ADD PUSH1 0x1 ADD SLOAD PUSH1 0x20 PUSH1 0x1 DUP6 SUB DUP2 SLOAD DUP2 LT PUSH2 0x242A JUMPI INVALID JUMPDEST SWAP1 PUSH1 0x0 MSTORE PUSH1 0x20 PUSH1 0x0 KECCAK256 SWAP1 PUSH1 0x4 MUL ADD PUSH1 0x1 ADD SLOAD SUB PUSH2 0x3E8 MUL DUP2 PUSH2 0x2448 JUMPI INVALID JUMPDEST DIV SWAP1 POP PUSH1 0xA DUP2 LT SWAP3 POP POP POP PUSH2 0x97B JUMP JUMPDEST PUSH1 0x0 SWAP2 POP POP SWAP1 JUMP JUMPDEST PUSH1 0x1 PUSH1 0x1 PUSH1 0xA0 SHL SUB DUP4 AND PUSH2 0x24A5 JUMPI PUSH1 0x40 MLOAD PUSH3 0x461BCD PUSH1 0xE5 SHL DUP2 MSTORE PUSH1 0x4 ADD DUP1 DUP1 PUSH1 0x20 ADD DUP3 DUP2 SUB DUP3 MSTORE PUSH1 0x25 DUP2 MSTORE PUSH1 0x20 ADD DUP1 PUSH2 0x42F3 PUSH1 0x25 SWAP2 CODECOPY PUSH1 0x40 ADD SWAP2 POP POP PUSH1 0x40 MLOAD DUP1 SWAP2 SUB SWAP1 REVERT JUMPDEST PUSH1 0x1 PUSH1 0x1 PUSH1 0xA0 SHL SUB DUP3 AND PUSH2 0x24EA JUMPI PUSH1 0x40 MLOAD PUSH3 0x461BCD PUSH1 0xE5 SHL DUP2 MSTORE PUSH1 0x4 ADD DUP1 DUP1 PUSH1 0x20 ADD DUP3 DUP2 SUB DUP3 MSTORE PUSH1 0x23 DUP2 MSTORE PUSH1 0x20 ADD DUP1 PUSH2 0x4457 PUSH1 0x23 SWAP2 CODECOPY PUSH1 0x40 ADD SWAP2 POP POP PUSH1 0x40 MLOAD DUP1 SWAP2 SUB SWAP1 REVERT JUMPDEST PUSH2 0x2527 DUP2 PUSH1 0x40 MLOAD DUP1 PUSH1 0x60 ADD PUSH1 0x40 MSTORE DUP1 PUSH1 0x26 DUP2 MSTORE PUSH1 0x20 ADD PUSH2 0x4318 PUSH1 0x26 SWAP2 CODECOPY PUSH1 0x1 PUSH1 0x1 PUSH1 0xA0 SHL SUB DUP7 AND PUSH1 0x0 SWAP1 DUP2 MSTORE PUSH1 0x1 PUSH1 0x20 MSTORE PUSH1 0x40 SWAP1 KECCAK256 SLOAD SWAP2 SWAP1 PUSH2 0x25B2 JUMP JUMPDEST PUSH1 0x1 PUSH1 0x1 PUSH1 0xA0 SHL SUB DUP1 DUP6 AND PUSH1 0x0 SWAP1 DUP2 MSTORE PUSH1 0x1 PUSH1 0x20 MSTORE PUSH1 0x40 DUP1 DUP3 KECCAK256 SWAP4 SWAP1 SWAP4 SSTORE SWAP1 DUP5 AND DUP2 MSTORE KECCAK256 SLOAD PUSH2 0x2556 SWAP1 DUP3 PUSH2 0x2261 JUMP JUMPDEST PUSH1 0x1 PUSH1 0x1 PUSH1 0xA0 SHL SUB DUP1 DUP5 AND PUSH1 0x0 DUP2 DUP2 MSTORE PUSH1 0x1 PUSH1 0x20 SWAP1 DUP2 MSTORE PUSH1 0x40 SWAP2 DUP3 SWAP1 KECCAK256 SWAP5 SWAP1 SWAP5 SSTORE DUP1 MLOAD DUP6 DUP2 MSTORE SWAP1 MLOAD SWAP2 SWAP4 SWAP3 DUP8 AND SWAP3 PUSH32 0xDDF252AD1BE2C89B69C2B068FC378DAA952BA7F163C4A11628F55A4DF523B3EF SWAP3 SWAP2 DUP3 SWAP1 SUB ADD SWAP1 LOG3 POP POP POP JUMP JUMPDEST PUSH1 0x0 DUP2 DUP5 DUP5 GT ISZERO PUSH2 0x2641 JUMPI PUSH1 0x40 MLOAD PUSH3 0x461BCD PUSH1 0xE5 SHL DUP2 MSTORE PUSH1 0x4 ADD DUP1 DUP1 PUSH1 0x20 ADD DUP3 DUP2 SUB DUP3 MSTORE DUP4 DUP2 DUP2 MLOAD DUP2 MSTORE PUSH1 0x20 ADD SWAP2 POP DUP1 MLOAD SWAP1 PUSH1 0x20 ADD SWAP1 DUP1 DUP4 DUP4 PUSH1 0x0 JUMPDEST DUP4 DUP2 LT ISZERO PUSH2 0x2606 JUMPI DUP2 DUP2 ADD MLOAD DUP4 DUP3 ADD MSTORE PUSH1 0x20 ADD PUSH2 0x25EE JUMP JUMPDEST POP POP POP POP SWAP1 POP SWAP1 DUP2 ADD SWAP1 PUSH1 0x1F AND DUP1 ISZERO PUSH2 0x2633 JUMPI DUP1 DUP3 SUB DUP1 MLOAD PUSH1 0x1 DUP4 PUSH1 0x20 SUB PUSH2 0x100 EXP SUB NOT AND DUP2 MSTORE PUSH1 0x20 ADD SWAP2 POP JUMPDEST POP SWAP3 POP POP POP PUSH1 0x40 MLOAD DUP1 SWAP2 SUB SWAP1 REVERT JUMPDEST POP POP POP SWAP1 SUB SWAP1 JUMP JUMPDEST PUSH1 0x11 SLOAD PUSH1 0x0 SWAP1 DUP2 SWAP1 PUSH1 0x1 PUSH1 0x1 PUSH1 0xA0 SHL SUB DUP6 DUP2 AND SWAP2 AND EQ ISZERO PUSH2 0x27AE JUMPI PUSH1 0x0 PUSH2 0x266F DUP6 PUSH2 0xA32 JUMP JUMPDEST SWAP1 POP DUP1 ISZERO PUSH2 0x26C0 JUMPI PUSH1 0x40 DUP1 MLOAD PUSH3 0x461BCD PUSH1 0xE5 SHL DUP2 MSTORE PUSH1 0x20 PUSH1 0x4 DUP3 ADD MSTORE PUSH1 0x19 PUSH1 0x24 DUP3 ADD MSTORE PUSH25 0x141B185CDB585D1A58D1D85B594E8813DD995C999B1BDDD959 PUSH1 0x3A SHL PUSH1 0x44 DUP3 ADD MSTORE SWAP1 MLOAD SWAP1 DUP2 SWAP1 SUB PUSH1 0x64 ADD SWAP1 REVERT JUMPDEST PUSH2 0x26C9 DUP6 PUSH2 0x1DD5 JUMP JUMPDEST PUSH1 0x12 DUP1 SLOAD PUSH1 0x0 SWAP2 DUP3 SWAP1 SSTORE PUSH1 0x40 DUP1 MLOAD PUSH1 0x80 DUP2 ADD DUP3 MSTORE DUP9 DUP2 MSTORE PUSH1 0x20 DUP2 ADD DUP5 DUP2 MSTORE SWAP5 SWAP1 SWAP3 ADD DUP1 DUP5 SUB SWAP2 DUP4 ADD SWAP2 DUP3 MSTORE PUSH1 0x4 PUSH1 0x60 DUP5 ADD DUP2 DUP2 MSTORE PUSH1 0x13 DUP1 SLOAD PUSH1 0x1 DUP2 ADD DUP3 SSTORE SWAP7 MSTORE SWAP4 MLOAD SWAP5 MUL PUSH32 0x66DE8FFDA797E3DE9C05E8FC57B3BF0EC28A930D40B0D285D93C06501CF6A090 DUP2 ADD SWAP5 SWAP1 SWAP5 SSTORE SWAP4 MLOAD PUSH32 0x66DE8FFDA797E3DE9C05E8FC57B3BF0EC28A930D40B0D285D93C06501CF6A091 DUP5 ADD SSTORE MLOAD PUSH32 0x66DE8FFDA797E3DE9C05E8FC57B3BF0EC28A930D40B0D285D93C06501CF6A092 DUP4 ADD SSTORE MLOAD PUSH32 0x66DE8FFDA797E3DE9C05E8FC57B3BF0EC28A930D40B0D285D93C06501CF6A093 SWAP1 SWAP2 ADD SSTORE SWAP2 POP PUSH2 0xB7A SWAP1 POP JUMP JUMPDEST PUSH1 0x14 SLOAD PUSH1 0x1 PUSH1 0x1 PUSH1 0xA0 SHL SUB DUP6 DUP2 AND SWAP2 AND EQ ISZERO PUSH2 0x2902 JUMPI PUSH1 0x0 PUSH2 0x27CF DUP6 PUSH2 0xA32 JUMP JUMPDEST SWAP1 POP DUP1 ISZERO PUSH2 0x2820 JUMPI PUSH1 0x40 DUP1 MLOAD PUSH3 0x461BCD PUSH1 0xE5 SHL DUP2 MSTORE PUSH1 0x20 PUSH1 0x4 DUP3 ADD MSTORE PUSH1 0x19 PUSH1 0x24 DUP3 ADD MSTORE PUSH25 0x141B185CDB585D1A58D1D85B594E8813DD995C999B1BDDD959 PUSH1 0x3A SHL PUSH1 0x44 DUP3 ADD MSTORE SWAP1 MLOAD SWAP1 DUP2 SWAP1 SUB PUSH1 0x64 ADD SWAP1 REVERT JUMPDEST POP POP PUSH1 0x15 DUP1 SLOAD PUSH1 0x0 SWAP2 DUP3 SWAP1 SSTORE PUSH1 0x40 DUP1 MLOAD PUSH1 0x80 DUP2 ADD DUP3 MSTORE DUP6 DUP2 MSTORE PUSH1 0x20 DUP2 ADD DUP5 DUP2 MSTORE DUP4 DUP6 SUB SWAP3 DUP3 ADD SWAP3 DUP4 MSTORE PUSH1 0x4 PUSH1 0x60 DUP4 ADD DUP2 DUP2 MSTORE PUSH1 0x16 DUP1 SLOAD PUSH1 0x1 DUP2 ADD DUP3 SSTORE SWAP8 MSTORE SWAP3 MLOAD SWAP6 MUL PUSH32 0xD833147D7DC355BA459FC788F669E58CFAF9DC25DDCD0702E87D69C7B5124289 DUP2 ADD SWAP6 SWAP1 SWAP6 SSTORE MLOAD PUSH32 0xD833147D7DC355BA459FC788F669E58CFAF9DC25DDCD0702E87D69C7B512428A DUP6 ADD SSTORE SWAP1 MLOAD PUSH32 0xD833147D7DC355BA459FC788F669E58CFAF9DC25DDCD0702E87D69C7B512428B DUP5 ADD SSTORE MLOAD PUSH32 0xD833147D7DC355BA459FC788F669E58CFAF9DC25DDCD0702E87D69C7B512428C SWAP1 SWAP3 ADD SWAP2 SWAP1 SWAP2 SSTORE PUSH2 0xB7A JUMP JUMPDEST PUSH1 0x17 SLOAD PUSH1 0x1 PUSH1 0x1 PUSH1 0xA0 SHL SUB DUP6 DUP2 AND SWAP2 AND EQ ISZERO PUSH2 0x2A56 JUMPI PUSH1 0x0 PUSH2 0x2923 DUP6 PUSH2 0xA32 JUMP JUMPDEST SWAP1 POP DUP1 ISZERO PUSH2 0x2974 JUMPI PUSH1 0x40 DUP1 MLOAD PUSH3 0x461BCD PUSH1 0xE5 SHL DUP2 MSTORE PUSH1 0x20 PUSH1 0x4 DUP3 ADD MSTORE PUSH1 0x19 PUSH1 0x24 DUP3 ADD MSTORE PUSH25 0x141B185CDB585D1A58D1D85B594E8813DD995C999B1BDDD959 PUSH1 0x3A SHL PUSH1 0x44 DUP3 ADD MSTORE SWAP1 MLOAD SWAP1 DUP2 SWAP1 SUB PUSH1 0x64 ADD SWAP1 REVERT JUMPDEST POP POP PUSH1 0x18 DUP1 SLOAD PUSH1 0x0 SWAP2 DUP3 SWAP1 SSTORE PUSH1 0x40 DUP1 MLOAD PUSH1 0x80 DUP2 ADD DUP3 MSTORE DUP6 DUP2 MSTORE PUSH1 0x20 DUP2 ADD DUP5 DUP2 MSTORE DUP4 DUP6 SUB SWAP3 DUP3 ADD SWAP3 DUP4 MSTORE PUSH1 0x4 PUSH1 0x60 DUP4 ADD DUP2 DUP2 MSTORE PUSH1 0x19 DUP1 SLOAD PUSH1 0x1 DUP2 ADD DUP3 SSTORE SWAP8 MSTORE SWAP3 MLOAD SWAP6 MUL PUSH32 0x944998273E477B495144FB8794C914197F3CCB46BE2900F4698FD0EF743C9695 DUP2 ADD SWAP6 SWAP1 SWAP6 SSTORE MLOAD PUSH32 0x944998273E477B495144FB8794C914197F3CCB46BE2900F4698FD0EF743C9696 DUP6 ADD SSTORE SWAP1 MLOAD PUSH32 0x944998273E477B495144FB8794C914197F3CCB46BE2900F4698FD0EF743C9697 DUP5 ADD SSTORE MLOAD PUSH32 0x944998273E477B495144FB8794C914197F3CCB46BE2900F4698FD0EF743C9698 SWAP1 SWAP3 ADD SWAP2 SWAP1 SWAP2 SSTORE PUSH2 0xB7A JUMP JUMPDEST PUSH1 0x1 PUSH1 0x1 PUSH1 0xA0 SHL SUB DUP5 AND PUSH1 0x0 SWAP1 DUP2 MSTORE PUSH1 0x1C PUSH1 0x20 MSTORE PUSH1 0x40 SWAP1 KECCAK256 PUSH1 0x4 DUP2 ADD SLOAD ISZERO PUSH2 0x2D75 JUMPI PUSH1 0x0 DUP1 PUSH1 0x0 DUP1 PUSH2 0x2A87 DUP10 PUSH2 0xC93 JUMP JUMPDEST SWAP4 POP SWAP4 POP SWAP4 POP SWAP4 POP DUP4 ISZERO PUSH2 0x2ADE JUMPI PUSH1 0x40 DUP1 MLOAD PUSH3 0x461BCD PUSH1 0xE5 SHL DUP2 MSTORE PUSH1 0x20 PUSH1 0x4 DUP3 ADD MSTORE PUSH1 0x19 PUSH1 0x24 DUP3 ADD MSTORE PUSH25 0x141B185CDB585D1A58D1D85B594E8813DD995C999B1BDDD959 PUSH1 0x3A SHL PUSH1 0x44 DUP3 ADD MSTORE SWAP1 MLOAD SWAP1 DUP2 SWAP1 SUB PUSH1 0x64 ADD SWAP1 REVERT JUMPDEST DUP5 SLOAD DUP3 DUP5 ADD SWAP1 PUSH1 0x5 PUSH1 0x1 PUSH1 0x20 SHL SWAP1 SWAP2 DIV PUSH2 0xFFFF AND LT ISZERO PUSH2 0x2B0A JUMPI DUP2 PUSH2 0x3E8 PUSH2 0x352 DUP4 MUL DIV ADD SWAP7 POP PUSH2 0x2B3F JUMP JUMPDEST DUP6 SLOAD PUSH2 0x3E6 PUSH1 0x1 PUSH1 0x20 SHL SWAP1 SWAP2 DIV PUSH2 0xFFFF AND GT ISZERO PUSH2 0x2B33 JUMPI PUSH2 0x3E8 PUSH2 0x352 DUP3 DUP5 ADD MUL DIV SWAP7 POP PUSH2 0x2B3F JUMP JUMPDEST PUSH2 0x3E8 PUSH2 0x352 DUP3 MUL DIV SWAP7 POP JUMPDEST PUSH1 0x4 DUP7 ADD SLOAD PUSH1 0x2 DUP4 DUP4 ADD DIV SWAP1 DUP2 LT ISZERO PUSH2 0x2BF2 JUMPI PUSH1 0x4 DUP8 ADD DUP1 SLOAD DUP3 SWAP1 SUB SWAP1 DUP2 SWAP1 SSTORE PUSH1 0x0 SWAP1 PUSH2 0x2B6B SWAP1 PUSH2 0x4005 JUMP JUMPDEST DUP9 SLOAD SWAP1 SWAP2 POP PUSH1 0xFF DUP1 DUP4 AND PUSH1 0x1 PUSH1 0xD8 SHL SWAP1 SWAP3 DIV AND EQ PUSH2 0x2BE0 JUMPI DUP8 SLOAD PUSH1 0xFF DUP1 DUP4 AND PUSH1 0x1 PUSH1 0xD8 SHL MUL PUSH1 0xFF PUSH1 0xD8 SHL NOT SWAP1 SWAP3 AND SWAP2 SWAP1 SWAP2 OR DUP10 SSTORE PUSH1 0x1D DUP1 SLOAD PUSH2 0x3E8 SWAP3 PUSH1 0x0 NOT DUP6 ADD AND SWAP1 DUP2 LT PUSH2 0x2BB6 JUMPI INVALID JUMPDEST SWAP1 PUSH1 0x0 MSTORE PUSH1 0x20 PUSH1 0x0 KECCAK256 SWAP1 PUSH1 0x4 MUL ADD PUSH1 0x3 ADD SLOAD DUP10 PUSH1 0x4 ADD SLOAD MUL DUP2 PUSH2 0x2BD5 JUMPI INVALID JUMPDEST DIV PUSH1 0x3 DUP10 ADD SSTORE PUSH2 0x2BEC JUMP JUMPDEST PUSH1 0x3 DUP9 ADD DUP1 SLOAD DUP4 SWAP1 SUB SWAP1 SSTORE JUMPDEST POP PUSH2 0x2C0C JUMP JUMPDEST DUP7 SLOAD PUSH1 0xFF PUSH1 0xD8 SHL NOT AND DUP8 SSTORE PUSH1 0x0 PUSH1 0x4 DUP9 ADD DUP2 SWAP1 SSTORE PUSH1 0x3 DUP9 ADD SSTORE JUMPDEST DUP7 SLOAD PUSH2 0x3E7 PUSH1 0x1 PUSH1 0x20 SHL SWAP1 SWAP2 DIV PUSH2 0xFFFF AND LT ISZERO PUSH2 0x2D5E JUMPI PUSH2 0x7CF PUSH1 0x0 MSTORE PUSH1 0x1B PUSH1 0x20 MSTORE PUSH32 0x35CC04406A5FEE7700A35E1408C1D2ADB28971293DB432080F1EA695C756246C SLOAD PUSH2 0x3E8 PUSH1 0x4B DUP5 MUL DIV SWAP1 PUSH1 0x1 PUSH1 0x1 PUSH1 0xA0 SHL SUB AND DUP1 ISZERO PUSH2 0x2C8A JUMPI PUSH1 0x1 PUSH1 0x1 PUSH1 0xA0 SHL SUB DUP14 AND PUSH1 0x0 SWAP1 DUP2 MSTORE PUSH1 0x1C PUSH1 0x20 MSTORE PUSH1 0x40 SWAP1 KECCAK256 PUSH1 0x5 ADD DUP1 SLOAD DUP4 ADD SWAP1 SSTORE JUMPDEST POP PUSH1 0x40 DUP1 MLOAD PUSH1 0x80 DUP2 ADD DUP3 MSTORE DUP13 DUP2 MSTORE PUSH1 0x20 DUP2 ADD SWAP3 DUP4 MSTORE PUSH1 0x0 SWAP2 DUP2 ADD DUP3 DUP2 MSTORE PUSH1 0x60 DUP3 ADD DUP4 DUP2 MSTORE PUSH1 0x21 DUP1 SLOAD PUSH1 0x1 DUP2 ADD DUP3 SSTORE SWAP5 MSTORE SWAP2 MLOAD PUSH32 0x3A6357012C1A3AE0A17D304C9920310382D968EBCC4B1771F41C6B304205B570 PUSH1 0x4 SWAP1 SWAP5 MUL SWAP4 DUP5 ADD SSTORE SWAP3 MLOAD PUSH32 0x3A6357012C1A3AE0A17D304C9920310382D968EBCC4B1771F41C6B304205B571 DUP4 ADD SSTORE SWAP2 MLOAD PUSH32 0x3A6357012C1A3AE0A17D304C9920310382D968EBCC4B1771F41C6B304205B572 DUP3 ADD SSTORE SWAP1 MLOAD PUSH32 0x3A6357012C1A3AE0A17D304C9920310382D968EBCC4B1771F41C6B304205B573 SWAP1 SWAP2 ADD SSTORE PUSH2 0x2D6E JUMP JUMPDEST PUSH1 0x1E DUP1 SLOAD PUSH2 0x3E8 PUSH1 0x96 DUP6 MUL DIV ADD SWAP1 SSTORE JUMPDEST POP POP POP POP POP POP JUMPDEST POP SWAP4 SWAP3 POP POP POP JUMP JUMPDEST PUSH1 0x40 DUP1 MLOAD PUSH1 0x1 PUSH1 0x1 PUSH1 0xA0 SHL SUB DUP5 DUP2 AND PUSH1 0x24 DUP4 ADD MSTORE PUSH1 0x44 DUP1 DUP4 ADD DUP6 SWAP1 MSTORE DUP4 MLOAD DUP1 DUP5 SUB SWAP1 SWAP2 ADD DUP2 MSTORE PUSH1 0x64 SWAP1 SWAP3 ADD DUP4 MSTORE PUSH1 0x20 DUP3 ADD DUP1 MLOAD PUSH1 0x1 PUSH1 0x1 PUSH1 0xE0 SHL SUB AND PUSH4 0xA9059CBB PUSH1 0xE0 SHL OR DUP2 MSTORE SWAP3 MLOAD DUP3 MLOAD PUSH1 0x0 SWAP5 PUSH1 0x60 SWAP5 SWAP4 DUP10 AND SWAP4 SWAP3 SWAP2 DUP3 SWAP2 SWAP1 DUP1 DUP4 DUP4 JUMPDEST PUSH1 0x20 DUP4 LT PUSH2 0x2DFA JUMPI DUP1 MLOAD DUP3 MSTORE PUSH1 0x1F NOT SWAP1 SWAP3 ADD SWAP2 PUSH1 0x20 SWAP2 DUP3 ADD SWAP2 ADD PUSH2 0x2DDB JUMP JUMPDEST PUSH1 0x1 DUP4 PUSH1 0x20 SUB PUSH2 0x100 EXP SUB DUP1 NOT DUP3 MLOAD AND DUP2 DUP5 MLOAD AND DUP1 DUP3 OR DUP6 MSTORE POP POP POP POP POP POP SWAP1 POP ADD SWAP2 POP POP PUSH1 0x0 PUSH1 0x40 MLOAD DUP1 DUP4 SUB DUP2 PUSH1 0x0 DUP7 GAS CALL SWAP2 POP POP RETURNDATASIZE DUP1 PUSH1 0x0 DUP2 EQ PUSH2 0x2E5C JUMPI PUSH1 0x40 MLOAD SWAP2 POP PUSH1 0x1F NOT PUSH1 0x3F RETURNDATASIZE ADD AND DUP3 ADD PUSH1 0x40 MSTORE RETURNDATASIZE DUP3 MSTORE RETURNDATASIZE PUSH1 0x0 PUSH1 0x20 DUP5 ADD RETURNDATACOPY PUSH2 0x2E61 JUMP JUMPDEST PUSH1 0x60 SWAP2 POP JUMPDEST POP SWAP2 POP SWAP2 POP DUP2 DUP1 ISZERO PUSH2 0x2E8F JUMPI POP DUP1 MLOAD ISZERO DUP1 PUSH2 0x2E8F JUMPI POP DUP1 DUP1 PUSH1 0x20 ADD SWAP1 MLOAD PUSH1 0x20 DUP2 LT ISZERO PUSH2 0x2E8C JUMPI PUSH1 0x0 DUP1 REVERT JUMPDEST POP MLOAD JUMPDEST PUSH2 0x2EE0 JUMPI PUSH1 0x40 DUP1 MLOAD PUSH3 0x461BCD PUSH1 0xE5 SHL DUP2 MSTORE PUSH1 0x20 PUSH1 0x4 DUP3 ADD MSTORE PUSH1 0x1F PUSH1 0x24 DUP3 ADD MSTORE PUSH32 0x5472616E7366657248656C7065723A205452414E534645525F4641494C454400 PUSH1 0x44 DUP3 ADD MSTORE SWAP1 MLOAD SWAP1 DUP2 SWAP1 SUB PUSH1 0x64 ADD SWAP1 REVERT JUMPDEST POP POP POP POP POP JUMP JUMPDEST PUSH1 0x1 PUSH1 0x1 PUSH1 0xA0 SHL SUB DUP3 AND PUSH2 0x2F2C JUMPI PUSH1 0x40 MLOAD PUSH3 0x461BCD PUSH1 0xE5 SHL DUP2 MSTORE PUSH1 0x4 ADD DUP1 DUP1 PUSH1 0x20 ADD DUP3 DUP2 SUB DUP3 MSTORE PUSH1 0x21 DUP2 MSTORE PUSH1 0x20 ADD DUP1 PUSH2 0x43CF PUSH1 0x21 SWAP2 CODECOPY PUSH1 0x40 ADD SWAP2 POP POP PUSH1 0x40 MLOAD DUP1 SWAP2 SUB SWAP1 REVERT JUMPDEST PUSH2 0x2F69 DUP2 PUSH1 0x40 MLOAD DUP1 PUSH1 0x60 ADD PUSH1 0x40 MSTORE DUP1 PUSH1 0x22 DUP2 MSTORE PUSH1 0x20 ADD PUSH2 0x44EC PUSH1 0x22 SWAP2 CODECOPY PUSH1 0x1 PUSH1 0x1 PUSH1 0xA0 SHL SUB DUP6 AND PUSH1 0x0 SWAP1 DUP2 MSTORE PUSH1 0x1 PUSH1 0x20 MSTORE PUSH1 0x40 SWAP1 KECCAK256 SLOAD SWAP2 SWAP1 PUSH2 0x25B2 JUMP JUMPDEST PUSH1 0x1 PUSH1 0x1 PUSH1 0xA0 SHL SUB DUP4 AND PUSH1 0x0 SWAP1 DUP2 MSTORE PUSH1 0x1 PUSH1 0x20 MSTORE PUSH1 0x40 SWAP1 KECCAK256 SSTORE PUSH1 0x3 SLOAD PUSH2 0x2F8F SWAP1 DUP3 PUSH2 0x405B JUMP JUMPDEST PUSH1 0x3 SSTORE PUSH1 0x40 DUP1 MLOAD DUP3 DUP2 MSTORE SWAP1 MLOAD PUSH1 0x0 SWAP2 PUSH1 0x1 PUSH1 0x1 PUSH1 0xA0 SHL SUB DUP6 AND SWAP2 PUSH32 0xDDF252AD1BE2C89B69C2B068FC378DAA952BA7F163C4A11628F55A4DF523B3EF SWAP2 DUP2 SWAP1 SUB PUSH1 0x20 ADD SWAP1 LOG3 POP POP JUMP JUMPDEST PUSH1 0x1 PUSH1 0x1 PUSH1 0xA0 SHL SUB DUP2 AND PUSH1 0x0 SWAP1 DUP2 MSTORE PUSH1 0x1C PUSH1 0x20 MSTORE PUSH1 0x40 DUP2 KECCAK256 PUSH1 0x1 ADD SLOAD PUSH2 0x2FFF JUMPI POP PUSH1 0x0 PUSH2 0xA2C JUMP JUMPDEST PUSH1 0x1 PUSH1 0x1 PUSH1 0xA0 SHL SUB DUP4 AND PUSH1 0x0 SWAP1 DUP2 MSTORE PUSH1 0x1C PUSH1 0x20 MSTORE PUSH1 0x40 SWAP1 KECCAK256 PUSH1 0x1 ADD SLOAD PUSH2 0x3027 JUMPI POP PUSH1 0x1 PUSH2 0xA2C JUMP JUMPDEST POP PUSH1 0x1 PUSH1 0x1 PUSH1 0xA0 SHL SUB SWAP2 DUP3 AND PUSH1 0x0 SWAP1 DUP2 MSTORE PUSH1 0x1C PUSH1 0x20 MSTORE PUSH1 0x40 SWAP1 KECCAK256 SLOAD PUSH1 0x1 PUSH1 0x30 SHL SWAP1 DIV DUP3 AND SWAP2 AND EQ SWAP1 JUMP JUMPDEST PUSH1 0x1 PUSH1 0x1 PUSH1 0xA0 SHL SUB AND PUSH1 0x0 SWAP1 DUP2 MSTORE PUSH1 0x1C PUSH1 0x20 MSTORE PUSH1 0x40 SWAP1 KECCAK256 PUSH1 0x1 ADD SLOAD SWAP1 JUMP JUMPDEST PUSH1 0x40 DUP1 MLOAD PUSH1 0x1 PUSH1 0x1 PUSH1 0xA0 SHL SUB DUP6 DUP2 AND PUSH1 0x24 DUP4 ADD MSTORE DUP5 DUP2 AND PUSH1 0x44 DUP4 ADD MSTORE PUSH1 0x64 DUP1 DUP4 ADD DUP6 SWAP1 MSTORE DUP4 MLOAD DUP1 DUP5 SUB SWAP1 SWAP2 ADD DUP2 MSTORE PUSH1 0x84 SWAP1 SWAP3 ADD DUP4 MSTORE PUSH1 0x20 DUP3 ADD DUP1 MLOAD PUSH1 0x1 PUSH1 0x1 PUSH1 0xE0 SHL SUB AND PUSH4 0x23B872DD PUSH1 0xE0 SHL OR DUP2 MSTORE SWAP3 MLOAD DUP3 MLOAD PUSH1 0x0 SWAP5 PUSH1 0x60 SWAP5 SWAP4 DUP11 AND SWAP4 SWAP3 SWAP2 DUP3 SWAP2 SWAP1 DUP1 DUP4 DUP4 JUMPDEST PUSH1 0x20 DUP4 LT PUSH2 0x30F4 JUMPI DUP1 MLOAD DUP3 MSTORE PUSH1 0x1F NOT SWAP1 SWAP3 ADD SWAP2 PUSH1 0x20 SWAP2 DUP3 ADD SWAP2 ADD PUSH2 0x30D5 JUMP JUMPDEST PUSH1 0x1 DUP4 PUSH1 0x20 SUB PUSH2 0x100 EXP SUB DUP1 NOT DUP3 MLOAD AND DUP2 DUP5 MLOAD AND DUP1 DUP3 OR DUP6 MSTORE POP POP POP POP POP POP SWAP1 POP ADD SWAP2 POP POP PUSH1 0x0 PUSH1 0x40 MLOAD DUP1 DUP4 SUB DUP2 PUSH1 0x0 DUP7 GAS CALL SWAP2 POP POP RETURNDATASIZE DUP1 PUSH1 0x0 DUP2 EQ PUSH2 0x3156 JUMPI PUSH1 0x40 MLOAD SWAP2 POP PUSH1 0x1F NOT PUSH1 0x3F RETURNDATASIZE ADD AND DUP3 ADD PUSH1 0x40 MSTORE RETURNDATASIZE DUP3 MSTORE RETURNDATASIZE PUSH1 0x0 PUSH1 0x20 DUP5 ADD RETURNDATACOPY PUSH2 0x315B JUMP JUMPDEST PUSH1 0x60 SWAP2 POP JUMPDEST POP SWAP2 POP SWAP2 POP DUP2 DUP1 ISZERO PUSH2 0x3189 JUMPI POP DUP1 MLOAD ISZERO DUP1 PUSH2 0x3189 JUMPI POP DUP1 DUP1 PUSH1 0x20 ADD SWAP1 MLOAD PUSH1 0x20 DUP2 LT ISZERO PUSH2 0x3186 JUMPI PUSH1 0x0 DUP1 REVERT JUMPDEST POP MLOAD JUMPDEST PUSH2 0x1221 JUMPI PUSH1 0x40 MLOAD PUSH3 0x461BCD PUSH1 0xE5 SHL DUP2 MSTORE PUSH1 0x4 ADD DUP1 DUP1 PUSH1 0x20 ADD DUP3 DUP2 SUB DUP3 MSTORE PUSH1 0x24 DUP2 MSTORE PUSH1 0x20 ADD DUP1 PUSH2 0x4532 PUSH1 0x24 SWAP2 CODECOPY PUSH1 0x40 ADD SWAP2 POP POP PUSH1 0x40 MLOAD DUP1 SWAP2 SUB SWAP1 REVERT JUMPDEST PUSH1 0x1 PUSH1 0x1 PUSH1 0xA0 SHL SUB DUP1 DUP6 AND PUSH1 0x0 SWAP1 DUP2 MSTORE PUSH1 0x1C PUSH1 0x20 MSTORE PUSH1 0x40 DUP1 DUP3 KECCAK256 SWAP3 DUP7 AND DUP3 MSTORE SWAP1 KECCAK256 PUSH2 0x31EE DUP7 PUSH2 0x409D JUMP JUMPDEST PUSH2 0x34E8 JUMPI PUSH1 0x0 PUSH2 0x31FC PUSH2 0x40BD JUMP JUMPDEST SWAP1 POP PUSH1 0x0 PUSH1 0xD PUSH1 0x6 SWAP1 SLOAD SWAP1 PUSH2 0x100 EXP SWAP1 DIV PUSH4 0xFFFFFFFF AND PUSH4 0xFFFFFFFF AND PUSH1 0x1 EQ ISZERO PUSH2 0x324E JUMPI POP DUP3 SLOAD PUSH1 0xFF PUSH1 0xD0 SHL NOT AND DUP4 SSTORE PUSH1 0x1A DUP1 SLOAD PUSH1 0x1 PUSH1 0x1 PUSH1 0xA0 SHL SUB NOT AND PUSH1 0x1 PUSH1 0x1 PUSH1 0xA0 SHL SUB DUP10 AND OR SWAP1 SSTORE DUP6 PUSH2 0x33E9 JUMP JUMPDEST PUSH1 0xD SLOAD PUSH1 0x5 PUSH1 0x1 PUSH1 0x50 SHL SWAP1 SWAP2 DIV PUSH2 0xFFFF AND LT ISZERO PUSH2 0x32E5 JUMPI POP DUP3 SLOAD PUSH1 0xFF PUSH1 0xD0 SHL NOT AND PUSH1 0x1 PUSH1 0xD0 SHL OR DUP4 SSTORE PUSH1 0x1 PUSH1 0x1 PUSH1 0xA0 SHL SUB DUP7 DUP2 AND PUSH1 0x0 SWAP1 DUP2 MSTORE PUSH1 0x1C PUSH1 0x20 SWAP1 DUP2 MSTORE PUSH1 0x40 DUP1 DUP4 KECCAK256 DUP2 MLOAD DUP1 DUP4 ADD SWAP1 SWAP3 MSTORE DUP12 DUP6 AND DUP3 MSTORE DUP2 DUP4 ADD DUP10 DUP2 MSTORE PUSH1 0x7 SWAP1 SWAP2 ADD DUP1 SLOAD PUSH1 0x1 DUP2 DUP2 ADD DUP4 SSTORE SWAP2 DUP7 MSTORE SWAP4 SWAP1 SWAP5 KECCAK256 SWAP2 MLOAD PUSH1 0x2 SWAP1 SWAP4 MUL SWAP1 SWAP2 ADD DUP1 SLOAD PUSH1 0x1 PUSH1 0x1 PUSH1 0xA0 SHL SUB NOT AND SWAP3 SWAP1 SWAP5 AND SWAP2 SWAP1 SWAP2 OR DUP4 SSTORE MLOAD SWAP2 ADD SSTORE DUP6 PUSH2 0x33E9 JUMP JUMPDEST DUP4 SLOAD PUSH1 0xFF PUSH1 0xD0 SHL NOT AND PUSH1 0x1 PUSH1 0xD1 SHL OR DUP5 SSTORE PUSH1 0x6 DUP4 ADD SLOAD PUSH1 0x3 PUSH1 0x1 PUSH1 0xA0 SHL SWAP1 SWAP2 DIV PUSH2 0xFFFF SWAP1 DUP2 AND DUP3 DUP2 DIV SWAP3 SWAP1 MOD SWAP1 DUP2 AND PUSH2 0x33DA JUMPI DUP9 SWAP3 POP PUSH2 0xFFFF DUP3 AND ISZERO PUSH2 0x336D JUMPI PUSH1 0x1 PUSH1 0x1 PUSH1 0xA0 SHL SUB DUP4 AND PUSH1 0x0 SWAP1 DUP2 MSTORE PUSH1 0x1C PUSH1 0x20 MSTORE PUSH1 0x40 SWAP1 KECCAK256 PUSH1 0x7 ADD DUP1 SLOAD TIMESTAMP SWAP2 SWAP1 PUSH2 0xFFFF PUSH1 0x0 NOT DUP7 ADD AND SWAP1 DUP2 LT PUSH2 0x3357 JUMPI INVALID JUMPDEST SWAP1 PUSH1 0x0 MSTORE PUSH1 0x20 PUSH1 0x0 KECCAK256 SWAP1 PUSH1 0x2 MUL ADD PUSH1 0x1 ADD DUP2 SWAP1 SSTORE POP JUMPDEST PUSH1 0x1 PUSH1 0x1 PUSH1 0xA0 SHL SUB DUP4 DUP2 AND PUSH1 0x0 SWAP1 DUP2 MSTORE PUSH1 0x1C PUSH1 0x20 SWAP1 DUP2 MSTORE PUSH1 0x40 DUP1 DUP4 KECCAK256 DUP2 MLOAD DUP1 DUP4 ADD SWAP1 SWAP3 MSTORE DUP15 DUP6 AND DUP3 MSTORE DUP2 DUP4 ADD DUP5 DUP2 MSTORE PUSH1 0x7 SWAP1 SWAP2 ADD DUP1 SLOAD PUSH1 0x1 DUP1 DUP3 ADD DUP4 SSTORE SWAP2 DUP7 MSTORE SWAP4 SWAP1 SWAP5 KECCAK256 SWAP2 MLOAD PUSH1 0x2 SWAP1 SWAP4 MUL SWAP1 SWAP2 ADD DUP1 SLOAD PUSH1 0x1 PUSH1 0x1 PUSH1 0xA0 SHL SUB NOT AND SWAP3 SWAP1 SWAP5 AND SWAP2 SWAP1 SWAP2 OR DUP4 SSTORE MLOAD SWAP2 ADD SSTORE PUSH2 0x33E6 JUMP JUMPDEST PUSH2 0x33E3 DUP10 PUSH2 0x41D0 JUMP JUMPDEST SWAP3 POP JUMPDEST POP POP JUMPDEST PUSH1 0x6 DUP1 DUP5 ADD DUP1 SLOAD PUSH1 0x1 PUSH2 0xFFFF PUSH1 0x1 PUSH1 0xA0 SHL DUP1 DUP5 DIV DUP3 AND SWAP3 SWAP1 SWAP3 ADD DUP2 AND SWAP1 SWAP2 MUL PUSH2 0xFFFF PUSH1 0xA0 SHL NOT SWAP3 DUP4 AND OR SWAP1 SWAP3 SSTORE DUP7 SLOAD PUSH4 0xFFFFFFFF DUP7 AND PUSH4 0xFFFFFFFF NOT PUSH1 0x1 PUSH1 0x1 PUSH1 0xA0 SHL SUB DUP1 DUP15 AND PUSH1 0x1 PUSH1 0x30 SHL MUL PUSH7 0x1000000000000 PUSH1 0x1 PUSH1 0xD0 SHL SUB NOT SWAP1 SWAP5 AND SWAP4 SWAP1 SWAP4 OR AND DUP2 OR DUP1 DUP11 SSTORE PUSH1 0xD SLOAD PUSH1 0x4 DUP12 ADD DUP14 SWAP1 SSTORE PUSH1 0xFF PUSH1 0xE0 SHL NOT PUSH1 0x1 PUSH1 0x20 SHL PUSH1 0x1 PUSH1 0x50 SHL SWAP1 SWAP3 DIV SWAP1 SWAP7 AND MUL PUSH6 0xFFFF00000000 NOT SWAP1 SWAP2 AND OR SWAP4 SWAP1 SWAP4 AND DUP9 SSTORE PUSH1 0x0 PUSH1 0x5 DUP10 ADD SSTORE SWAP3 DUP8 ADD DUP1 SLOAD SWAP4 DUP6 AND PUSH1 0x1 PUSH1 0x1 PUSH1 0xA0 SHL SUB NOT SWAP1 SWAP5 AND SWAP4 SWAP1 SWAP4 OR AND SWAP1 SWAP2 SSTORE PUSH3 0x7AAE7 LT ISZERO PUSH2 0x34E1 JUMPI PUSH4 0xFFFFFFFF DUP3 AND PUSH1 0x0 SWAP1 DUP2 MSTORE PUSH1 0x1B PUSH1 0x20 MSTORE PUSH1 0x40 SWAP1 KECCAK256 DUP1 SLOAD PUSH1 0x1 PUSH1 0x1 PUSH1 0xA0 SHL SUB NOT AND PUSH1 0x1 PUSH1 0x1 PUSH1 0xA0 SHL SUB DUP11 AND OR SWAP1 SSTORE JUMPDEST POP POP PUSH2 0x34F3 JUMP JUMPDEST PUSH1 0x4 DUP3 ADD DUP1 SLOAD DUP6 ADD SWAP1 SSTORE JUMPDEST PUSH1 0x0 PUSH2 0x3502 DUP4 PUSH1 0x4 ADD SLOAD PUSH2 0x4005 JUMP JUMPDEST SWAP1 POP PUSH2 0x3E8 PUSH1 0x1D PUSH1 0x1 DUP4 SUB PUSH1 0xFF AND DUP2 SLOAD DUP2 LT PUSH2 0x351A JUMPI INVALID JUMPDEST SWAP1 PUSH1 0x0 MSTORE PUSH1 0x20 PUSH1 0x0 KECCAK256 SWAP1 PUSH1 0x4 MUL ADD PUSH1 0x3 ADD SLOAD DUP5 PUSH1 0x4 ADD SLOAD MUL DUP2 PUSH2 0x3539 JUMPI INVALID JUMPDEST DIV PUSH1 0x3 DUP5 ADD SSTORE DUP3 SLOAD PUSH1 0xFF DUP3 DUP2 AND PUSH1 0x1 PUSH1 0xD8 SHL MUL PUSH1 0xFF PUSH1 0xD8 SHL NOT SWAP1 SWAP3 AND SWAP2 SWAP1 SWAP2 OR DUP5 SSTORE PUSH1 0x1E DUP1 SLOAD PUSH2 0x3E8 PUSH1 0x12 DUP10 DUP2 MUL DUP3 SWAP1 DIV SWAP1 SWAP3 ADD SWAP1 SWAP3 SSTORE PUSH1 0x1F DUP1 SLOAD PUSH1 0x20 DUP11 MUL DUP5 SWAP1 DIV ADD SWAP1 SSTORE DUP1 SLOAD PUSH1 0x14 DUP10 MUL DUP4 SWAP1 DIV ADD SWAP1 SSTORE PUSH1 0x15 DUP1 SLOAD PUSH1 0xF DUP10 MUL SWAP3 SWAP1 SWAP3 DIV SWAP2 DUP3 ADD SWAP1 SSTORE PUSH1 0x18 DUP1 SLOAD SWAP1 SWAP2 ADD SWAP1 SSTORE DUP4 SLOAD PUSH1 0x2 SWAP2 PUSH1 0x1 PUSH1 0xD0 SHL SWAP1 SWAP2 DIV AND DUP2 DUP2 GT ISZERO PUSH2 0x35BC JUMPI INVALID JUMPDEST EQ ISZERO PUSH2 0x3621 JUMPI PUSH1 0x0 PUSH1 0x1 DUP4 SLOAD PUSH1 0x1 PUSH1 0xD0 SHL SWAP1 DIV PUSH1 0xFF AND PUSH1 0x2 DUP2 GT ISZERO PUSH2 0x35DD JUMPI INVALID JUMPDEST EQ ISZERO PUSH2 0x35EA JUMPI POP DUP2 PUSH2 0x3610 JUMP JUMPDEST PUSH1 0x0 PUSH2 0x35F5 DUP9 PUSH2 0x4234 JUMP JUMPDEST PUSH1 0x1 PUSH1 0x1 PUSH1 0xA0 SHL SUB AND PUSH1 0x0 SWAP1 DUP2 MSTORE PUSH1 0x1C PUSH1 0x20 MSTORE PUSH1 0x40 SWAP1 KECCAK256 SWAP2 POP POP JUMPDEST PUSH1 0x5 ADD DUP1 SLOAD PUSH2 0x3E8 PUSH1 0x28 DUP9 MUL DIV ADD SWAP1 SSTORE JUMPDEST PUSH1 0x1 DUP4 DUP2 ADD DUP7 SWAP1 SSTORE PUSH1 0x2 DUP1 DUP6 ADD DUP7 SWAP1 SSTORE PUSH1 0x40 DUP1 MLOAD PUSH1 0x80 DUP2 ADD DUP3 MSTORE DUP8 DUP2 MSTORE PUSH1 0x4 DUP1 DUP9 ADD SLOAD PUSH1 0x20 DUP1 DUP5 ADD SWAP2 DUP3 MSTORE SWAP4 DUP4 ADD DUP12 DUP2 MSTORE DUP10 SLOAD PUSH1 0x1 PUSH1 0xD8 SHL SWAP1 DIV PUSH1 0xFF AND PUSH1 0x60 DUP6 ADD SWAP1 DUP2 MSTORE PUSH1 0x8 DUP12 ADD DUP1 SLOAD DUP1 DUP11 ADD DUP3 SSTORE PUSH1 0x0 SWAP2 DUP3 MSTORE DUP8 DUP3 KECCAK256 SWAP7 MLOAD SWAP6 MUL SWAP1 SWAP6 ADD SWAP4 DUP5 SSTORE SWAP2 MLOAD SWAP7 DUP4 ADD SWAP7 SWAP1 SWAP7 SSTORE SWAP5 MLOAD SWAP4 DUP2 ADD SWAP4 SWAP1 SWAP4 SSTORE SWAP3 MLOAD PUSH1 0x3 SWAP1 SWAP3 ADD SWAP2 SWAP1 SWAP2 SSTORE SLOAD PUSH1 0xF SLOAD SWAP1 SWAP2 SWAP1 TIMESTAMP DUP2 PUSH2 0x36AE JUMPI INVALID JUMPDEST MOD TIMESTAMP SUB SWAP1 POP DUP2 PUSH2 0x378B JUMPI PUSH1 0x40 DUP1 MLOAD PUSH1 0x80 DUP2 ADD DUP3 MSTORE DUP3 DUP2 MSTORE PUSH1 0x20 DUP1 DUP3 ADD DUP11 DUP2 MSTORE PUSH1 0x0 SWAP4 DUP4 ADD DUP5 DUP2 MSTORE PUSH1 0x60 DUP5 ADD DUP6 DUP2 MSTORE DUP4 SLOAD PUSH1 0x1 DUP2 ADD DUP6 SSTORE SWAP4 SWAP1 SWAP6 MSTORE SWAP3 MLOAD PUSH32 0xC97BFAF2F8EE708C303A06D134F5ECD8389AE0432AF62DC132A24118292866BB PUSH1 0x4 SWAP1 SWAP4 MUL SWAP3 DUP4 ADD SSTORE MLOAD PUSH32 0xC97BFAF2F8EE708C303A06D134F5ECD8389AE0432AF62DC132A24118292866BC DUP3 ADD SSTORE SWAP1 MLOAD PUSH32 0xC97BFAF2F8EE708C303A06D134F5ECD8389AE0432AF62DC132A24118292866BD DUP3 ADD SSTORE SWAP1 MLOAD PUSH32 0xC97BFAF2F8EE708C303A06D134F5ECD8389AE0432AF62DC132A24118292866BE SWAP1 SWAP2 ADD SSTORE PUSH2 0x38DF JUMP JUMPDEST PUSH1 0x0 PUSH2 0x37B8 PUSH1 0x20 PUSH1 0x1 DUP6 SUB DUP2 SLOAD DUP2 LT PUSH2 0x37A0 JUMPI INVALID JUMPDEST SWAP1 PUSH1 0x0 MSTORE PUSH1 0x20 PUSH1 0x0 KECCAK256 SWAP1 PUSH1 0x4 MUL ADD PUSH1 0x1 ADD SLOAD DUP10 PUSH2 0x2261 JUMP JUMPDEST SWAP1 POP DUP2 PUSH1 0x20 PUSH1 0x1 DUP6 SUB DUP2 SLOAD DUP2 LT PUSH2 0x37CB JUMPI INVALID JUMPDEST SWAP1 PUSH1 0x0 MSTORE PUSH1 0x20 PUSH1 0x0 KECCAK256 SWAP1 PUSH1 0x4 MUL ADD PUSH1 0x0 ADD SLOAD EQ ISZERO PUSH2 0x380E JUMPI DUP1 PUSH1 0x20 PUSH1 0x1 DUP6 SUB DUP2 SLOAD DUP2 LT PUSH2 0x37F4 JUMPI INVALID JUMPDEST SWAP1 PUSH1 0x0 MSTORE PUSH1 0x20 PUSH1 0x0 KECCAK256 SWAP1 PUSH1 0x4 MUL ADD PUSH1 0x1 ADD DUP2 SWAP1 SSTORE POP PUSH2 0x38DD JUMP JUMPDEST PUSH1 0x40 DUP1 MLOAD PUSH1 0x80 DUP2 ADD DUP3 MSTORE DUP4 DUP2 MSTORE PUSH1 0x20 DUP1 DUP3 ADD DUP5 DUP2 MSTORE PUSH1 0x0 SWAP4 DUP4 ADD DUP5 DUP2 MSTORE PUSH1 0x60 DUP5 ADD DUP6 DUP2 MSTORE DUP4 SLOAD PUSH1 0x1 DUP2 ADD DUP6 SSTORE SWAP4 SWAP1 SWAP6 MSTORE SWAP3 MLOAD PUSH32 0xC97BFAF2F8EE708C303A06D134F5ECD8389AE0432AF62DC132A24118292866BB PUSH1 0x4 SWAP1 SWAP4 MUL SWAP3 DUP4 ADD SSTORE MLOAD PUSH32 0xC97BFAF2F8EE708C303A06D134F5ECD8389AE0432AF62DC132A24118292866BC DUP3 ADD SSTORE SWAP1 MLOAD PUSH32 0xC97BFAF2F8EE708C303A06D134F5ECD8389AE0432AF62DC132A24118292866BD DUP3 ADD SSTORE SWAP1 MLOAD PUSH32 0xC97BFAF2F8EE708C303A06D134F5ECD8389AE0432AF62DC132A24118292866BE SWAP1 SWAP2 ADD SSTORE JUMPDEST POP JUMPDEST POP POP POP POP POP POP POP POP POP JUMP JUMPDEST PUSH1 0x11 DUP1 SLOAD PUSH1 0x1 PUSH1 0x1 PUSH1 0xA0 SHL SUB NOT AND PUSH1 0x1 PUSH1 0x1 PUSH1 0xA0 SHL SUB SWAP3 SWAP1 SWAP3 AND SWAP2 SWAP1 SWAP2 OR SWAP1 SSTORE JUMP JUMPDEST PUSH2 0x3914 PUSH2 0x428B JUMP JUMPDEST PUSH2 0x391C PUSH2 0x428B JUMP JUMPDEST PUSH1 0x1 PUSH1 0x1 PUSH1 0xA0 SHL SUB DUP5 AND PUSH1 0x0 DUP2 DUP2 MSTORE PUSH1 0x1C PUSH1 0x20 MSTORE PUSH1 0x40 SWAP1 KECCAK256 SWAP1 DUP3 MSTORE DUP1 PUSH1 0x1 JUMPDEST PUSH1 0x7 DUP3 ADD SLOAD ISZERO DUP1 ISZERO SWAP1 PUSH2 0x394D JUMPI POP DUP6 DUP2 LT JUMPDEST ISZERO PUSH2 0x39C4 JUMPI PUSH1 0x0 DUP3 PUSH1 0x7 ADD PUSH1 0x0 DUP2 SLOAD DUP2 LT PUSH2 0x3964 JUMPI INVALID JUMPDEST PUSH1 0x0 SWAP2 DUP3 MSTORE PUSH1 0x20 SWAP1 SWAP2 KECCAK256 PUSH1 0x2 SWAP1 SWAP2 MUL ADD SLOAD PUSH1 0x1 DUP4 ADD SWAP3 PUSH1 0x1 PUSH1 0x1 PUSH1 0xA0 SHL SUB SWAP1 SWAP2 AND SWAP2 POP DUP2 SWAP1 DUP7 SWAP1 PUSH1 0x14 DUP2 LT PUSH2 0x3995 JUMPI INVALID JUMPDEST PUSH1 0x1 PUSH1 0x1 PUSH1 0xA0 SHL SUB SWAP3 DUP4 AND PUSH1 0x20 SWAP2 DUP3 MUL SWAP3 SWAP1 SWAP3 ADD SWAP2 SWAP1 SWAP2 MSTORE SWAP2 AND PUSH1 0x0 SWAP1 DUP2 MSTORE PUSH1 0x1C SWAP1 SWAP2 MSTORE PUSH1 0x40 SWAP1 KECCAK256 SWAP2 POP PUSH2 0x393B JUMP JUMPDEST POP SWAP2 SWAP6 SWAP5 POP POP POP POP POP JUMP JUMPDEST PUSH1 0x1 PUSH1 0x1 PUSH1 0xA0 SHL SUB DUP4 AND PUSH1 0x0 SWAP1 DUP2 MSTORE PUSH1 0x1C PUSH1 0x20 MSTORE PUSH1 0x40 DUP2 KECCAK256 PUSH1 0x8 DUP2 ADD SLOAD DUP3 SWAP2 SWAP1 DUP1 JUMPDEST DUP1 ISZERO PUSH2 0x3AF9 JUMPI PUSH1 0x0 DUP4 PUSH1 0x8 ADD PUSH1 0x1 DUP4 SUB DUP2 SLOAD DUP2 LT PUSH2 0x3A0B JUMPI INVALID JUMPDEST PUSH1 0x0 SWAP2 DUP3 MSTORE PUSH1 0x20 DUP3 KECCAK256 PUSH1 0x4 SWAP1 SWAP2 MUL ADD DUP1 SLOAD SWAP1 SWAP3 POP SWAP1 DUP4 DUP6 EQ PUSH2 0x3A4D JUMPI DUP6 PUSH1 0x8 ADD DUP5 DUP2 SLOAD DUP2 LT PUSH2 0x3A36 JUMPI INVALID JUMPDEST SWAP1 PUSH1 0x0 MSTORE PUSH1 0x20 PUSH1 0x0 KECCAK256 SWAP1 PUSH1 0x4 MUL ADD PUSH1 0x0 ADD SLOAD PUSH2 0x3A4F JUMP JUMPDEST TIMESTAMP JUMPDEST SWAP1 POP DUP1 DUP11 GT DUP1 PUSH2 0x3A5E JUMPI POP DUP2 DUP10 LT JUMPDEST ISZERO PUSH2 0x3A6B JUMPI POP POP POP PUSH2 0x3AF1 JUMP JUMPDEST DUP10 DUP3 LT ISZERO PUSH2 0x3A77 JUMPI DUP10 SWAP2 POP JUMPDEST DUP9 DUP2 GT ISZERO PUSH2 0x3A82 JUMPI POP DUP8 JUMPDEST PUSH1 0x0 DUP3 DUP3 SUB SWAP1 POP PUSH2 0x3AD4 DUP9 PUSH4 0x5265C00 DUP4 PUSH1 0x1D PUSH1 0x1 DUP10 PUSH1 0x3 ADD SLOAD SUB DUP2 SLOAD DUP2 LT PUSH2 0x3AA7 JUMPI INVALID JUMPDEST PUSH1 0x0 SWAP2 DUP3 MSTORE PUSH1 0x20 SWAP1 SWAP2 KECCAK256 PUSH1 0x2 PUSH1 0x4 SWAP1 SWAP3 MUL ADD ADD SLOAD PUSH1 0x1 DUP10 ADD SLOAD PUSH1 0xFF SWAP1 SWAP2 AND MUL MUL DUP2 PUSH2 0x3ACE JUMPI INVALID JUMPDEST DIV PUSH2 0x2261 JUMP JUMPDEST SWAP8 POP PUSH1 0x0 DUP5 PUSH1 0x2 ADD SLOAD SLT ISZERO PUSH2 0x3AEC JUMPI POP POP POP POP PUSH2 0x3AF9 JUMP JUMPDEST POP POP POP POP JUMPDEST PUSH1 0x1 ADD PUSH2 0x39F1 JUMP JUMPDEST POP SWAP2 SWAP7 SWAP6 POP POP POP POP POP POP JUMP JUMPDEST PUSH1 0x0 DUP1 PUSH1 0x0 JUMPDEST PUSH1 0x22 SLOAD DUP2 LT ISZERO PUSH2 0x3C43 JUMPI PUSH1 0x0 PUSH1 0x22 DUP3 DUP2 SLOAD DUP2 LT PUSH2 0x3B24 JUMPI INVALID JUMPDEST SWAP1 PUSH1 0x0 MSTORE PUSH1 0x20 PUSH1 0x0 KECCAK256 ADD PUSH1 0x0 DUP2 SLOAD DUP2 LT PUSH2 0x3B3A JUMPI INVALID JUMPDEST PUSH1 0x0 SWAP2 DUP3 MSTORE PUSH1 0x20 DUP3 KECCAK256 ADD SLOAD PUSH1 0xD SLOAD SWAP1 SWAP3 POP PUSH2 0x3E8 SWAP1 PUSH1 0x1 PUSH1 0x50 SHL SWAP1 DIV PUSH2 0xFFFF AND DUP4 MUL DIV DUP3 ADD SWAP1 POP DUP6 DUP2 EQ ISZERO PUSH2 0x3C39 JUMPI PUSH1 0xD SLOAD PUSH1 0x64 PUSH1 0x1 PUSH1 0x50 SHL SWAP1 SWAP2 DIV PUSH2 0xFFFF AND GT ISZERO PUSH2 0x3BE8 JUMPI PUSH1 0x22 DUP4 DUP2 SLOAD DUP2 LT PUSH2 0x3B8D JUMPI INVALID JUMPDEST SWAP1 PUSH1 0x0 MSTORE PUSH1 0x20 PUSH1 0x0 KECCAK256 ADD PUSH1 0x1 DUP2 SLOAD DUP2 LT PUSH2 0x3BA3 JUMPI INVALID JUMPDEST SWAP1 PUSH1 0x0 MSTORE PUSH1 0x20 PUSH1 0x0 KECCAK256 ADD SLOAD PUSH1 0x22 DUP5 DUP2 SLOAD DUP2 LT PUSH2 0x3BBB JUMPI INVALID JUMPDEST SWAP1 PUSH1 0x0 MSTORE PUSH1 0x20 PUSH1 0x0 KECCAK256 ADD PUSH1 0x3 DUP2 SLOAD DUP2 LT PUSH2 0x3BD1 JUMPI INVALID JUMPDEST SWAP1 PUSH1 0x0 MSTORE PUSH1 0x20 PUSH1 0x0 KECCAK256 ADD SLOAD SWAP5 POP SWAP5 POP POP POP POP PUSH2 0x3C4C JUMP JUMPDEST PUSH1 0x22 DUP4 DUP2 SLOAD DUP2 LT PUSH2 0x3BF5 JUMPI INVALID JUMPDEST SWAP1 PUSH1 0x0 MSTORE PUSH1 0x20 PUSH1 0x0 KECCAK256 ADD PUSH1 0x1 DUP2 SLOAD DUP2 LT PUSH2 0x3C0B JUMPI INVALID JUMPDEST SWAP1 PUSH1 0x0 MSTORE PUSH1 0x20 PUSH1 0x0 KECCAK256 ADD SLOAD PUSH1 0x22 DUP5 DUP2 SLOAD DUP2 LT PUSH2 0x3C23 JUMPI INVALID JUMPDEST SWAP1 PUSH1 0x0 MSTORE PUSH1 0x20 PUSH1 0x0 KECCAK256 ADD PUSH1 0x2 DUP2 SLOAD DUP2 LT PUSH2 0x3BD1 JUMPI INVALID JUMPDEST POP POP PUSH1 0x1 ADD PUSH2 0x3B0B JUMP JUMPDEST POP PUSH1 0x0 DUP1 SWAP2 POP SWAP2 POP JUMPDEST SWAP2 POP SWAP2 JUMP JUMPDEST PUSH1 0x1 PUSH1 0x1 PUSH1 0xA0 SHL SUB DUP1 DUP8 AND PUSH1 0x0 SWAP1 DUP2 MSTORE PUSH1 0x23 PUSH1 0x20 MSTORE PUSH1 0x40 SWAP1 KECCAK256 DUP1 SLOAD SWAP1 SWAP2 AND ISZERO PUSH2 0x3D22 JUMPI DUP1 SLOAD PUSH1 0x1 PUSH1 0xA0 SHL SWAP1 DIV PUSH1 0xFF AND ISZERO PUSH2 0x3CDC JUMPI DUP1 SLOAD PUSH1 0x1 PUSH1 0x1 PUSH1 0xA0 SHL SUB DUP8 DUP2 AND SWAP2 AND EQ PUSH2 0x3CDC JUMPI PUSH1 0x40 DUP1 MLOAD PUSH3 0x461BCD PUSH1 0xE5 SHL DUP2 MSTORE PUSH1 0x20 PUSH1 0x4 DUP3 ADD MSTORE PUSH1 0x13 PUSH1 0x24 DUP3 ADD MSTORE PUSH19 0x496E76616C69645F5265666572616C4C696E6B PUSH1 0x68 SHL PUSH1 0x44 DUP3 ADD MSTORE SWAP1 MLOAD SWAP1 DUP2 SWAP1 SUB PUSH1 0x64 ADD SWAP1 REVERT JUMPDEST PUSH1 0x1 PUSH1 0x1 PUSH1 0xA0 SHL SUB DUP1 DUP8 AND PUSH1 0x0 DUP2 DUP2 MSTORE PUSH1 0x24 PUSH1 0x20 SWAP1 DUP2 MSTORE PUSH1 0x40 DUP3 KECCAK256 DUP1 SLOAD PUSH1 0x1 DUP2 ADD DUP3 SSTORE SWAP1 DUP4 MSTORE SWAP2 KECCAK256 ADD DUP1 SLOAD SWAP3 DUP11 AND PUSH1 0x1 PUSH1 0x1 PUSH1 0xA0 SHL SUB NOT SWAP4 DUP5 AND OR SWAP1 SSTORE DUP3 SLOAD SWAP1 SWAP2 AND OR DUP2 SSTORE JUMPDEST DUP1 SLOAD PUSH1 0x1 PUSH1 0xA0 SHL SWAP1 DIV PUSH1 0xFF AND ISZERO PUSH2 0x3D5F JUMPI DUP1 SLOAD PUSH1 0xFF PUSH1 0xA0 SHL NOT AND PUSH1 0x1 PUSH1 0xA0 SHL PUSH1 0xFF DUP7 AND MUL OR DUP2 SSTORE PUSH1 0x1 DUP1 DUP3 ADD DUP4 SWAP1 SSTORE PUSH1 0x26 DUP1 SLOAD SWAP1 SWAP2 ADD SWAP1 SSTORE PUSH2 0x3D80 JUMP JUMPDEST DUP1 SLOAD PUSH1 0xFF PUSH1 0x1 PUSH1 0xA0 SHL DUP1 DUP4 DIV DUP3 AND DUP8 ADD SWAP1 SWAP2 AND MUL PUSH1 0xFF PUSH1 0xA0 SHL NOT SWAP1 SWAP2 AND OR DUP2 SSTORE JUMPDEST POP POP PUSH1 0x25 DUP1 SLOAD PUSH1 0xFF SWAP4 SWAP1 SWAP4 AND SWAP1 SWAP3 ADD SWAP1 SWAP2 SSTORE PUSH1 0x1E DUP1 SLOAD PUSH1 0x64 PUSH1 0xA SWAP1 SWAP4 MUL SWAP3 SWAP1 SWAP3 DIV SWAP1 SWAP2 ADD SWAP1 SSTORE PUSH1 0x12 DUP1 SLOAD PUSH2 0x3E8 PUSH1 0x14 DUP5 MUL DUP2 SWAP1 DIV SWAP1 SWAP2 ADD SWAP1 SWAP2 SSTORE PUSH1 0x15 DUP1 SLOAD PUSH1 0xF SWAP1 SWAP4 MUL SWAP2 SWAP1 SWAP2 DIV SWAP2 DUP3 ADD SWAP1 SSTORE PUSH1 0x18 DUP1 SLOAD SWAP1 SWAP2 ADD SWAP1 SSTORE POP POP JUMP JUMPDEST PUSH1 0x1 PUSH1 0x1 PUSH1 0xA0 SHL SUB DUP3 AND PUSH2 0x3E34 JUMPI PUSH1 0x40 DUP1 MLOAD PUSH3 0x461BCD PUSH1 0xE5 SHL DUP2 MSTORE PUSH1 0x20 PUSH1 0x4 DUP3 ADD MSTORE PUSH1 0x1F PUSH1 0x24 DUP3 ADD MSTORE PUSH32 0x48524332303A206D696E7420746F20746865207A65726F206164647265737300 PUSH1 0x44 DUP3 ADD MSTORE SWAP1 MLOAD SWAP1 DUP2 SWAP1 SUB PUSH1 0x64 ADD SWAP1 REVERT JUMPDEST PUSH1 0x4 SLOAD PUSH1 0x3 SLOAD PUSH2 0x3E44 SWAP1 DUP4 PUSH2 0x2261 JUMP JUMPDEST LT PUSH2 0x3E96 JUMPI PUSH1 0x40 DUP1 MLOAD PUSH3 0x461BCD PUSH1 0xE5 SHL DUP2 MSTORE PUSH1 0x20 PUSH1 0x4 DUP3 ADD DUP2 SWAP1 MSTORE PUSH1 0x24 DUP3 ADD MSTORE PUSH32 0x48524332303A20616C72656164792072656163686564206D6178537570706C79 PUSH1 0x44 DUP3 ADD MSTORE SWAP1 MLOAD SWAP1 DUP2 SWAP1 SUB PUSH1 0x64 ADD SWAP1 REVERT JUMPDEST PUSH1 0x3 SLOAD PUSH2 0x3EA3 SWAP1 DUP3 PUSH2 0x2261 JUMP JUMPDEST PUSH1 0x3 SSTORE PUSH1 0x1 PUSH1 0x1 PUSH1 0xA0 SHL SUB DUP3 AND PUSH1 0x0 SWAP1 DUP2 MSTORE PUSH1 0x1 PUSH1 0x20 MSTORE PUSH1 0x40 SWAP1 KECCAK256 SLOAD PUSH2 0x3EC9 SWAP1 DUP3 PUSH2 0x2261 JUMP JUMPDEST PUSH1 0x1 PUSH1 0x1 PUSH1 0xA0 SHL SUB DUP4 AND PUSH1 0x0 DUP2 DUP2 MSTORE PUSH1 0x1 PUSH1 0x20 SWAP1 DUP2 MSTORE PUSH1 0x40 DUP1 DUP4 KECCAK256 SWAP5 SWAP1 SWAP5 SSTORE DUP4 MLOAD DUP6 DUP2 MSTORE SWAP4 MLOAD SWAP3 SWAP4 SWAP2 SWAP3 PUSH32 0xDDF252AD1BE2C89B69C2B068FC378DAA952BA7F163C4A11628F55A4DF523B3EF SWAP3 DUP2 SWAP1 SUB SWAP1 SWAP2 ADD SWAP1 LOG3 POP POP JUMP JUMPDEST PUSH1 0x14 DUP1 SLOAD PUSH1 0x1 PUSH1 0x1 PUSH1 0xA0 SHL SUB NOT AND PUSH1 0x1 PUSH1 0x1 PUSH1 0xA0 SHL SUB SWAP3 SWAP1 SWAP3 AND SWAP2 SWAP1 SWAP2 OR SWAP1 SSTORE JUMP JUMPDEST PUSH1 0x17 DUP1 SLOAD PUSH1 0x1 PUSH1 0x1 PUSH1 0xA0 SHL SUB NOT AND PUSH1 0x1 PUSH1 0x1 PUSH1 0xA0 SHL SUB SWAP3 SWAP1 SWAP3 AND SWAP2 SWAP1 SWAP2 OR SWAP1 SSTORE JUMP JUMPDEST PUSH1 0x1 PUSH1 0x1 PUSH1 0xA0 SHL SUB DUP2 AND PUSH2 0x3FAA JUMPI PUSH1 0x40 MLOAD PUSH3 0x461BCD PUSH1 0xE5 SHL DUP2 MSTORE PUSH1 0x4 ADD DUP1 DUP1 PUSH1 0x20 ADD DUP3 DUP2 SUB DUP3 MSTORE PUSH1 0x26 DUP2 MSTORE PUSH1 0x20 ADD DUP1 PUSH2 0x42CD PUSH1 0x26 SWAP2 CODECOPY PUSH1 0x40 ADD SWAP2 POP POP PUSH1 0x40 MLOAD DUP1 SWAP2 SUB SWAP1 REVERT JUMPDEST PUSH1 0x0 DUP1 SLOAD PUSH1 0x40 MLOAD PUSH1 0x1 PUSH1 0x1 PUSH1 0xA0 SHL SUB DUP1 DUP6 AND SWAP4 SWAP3 AND SWAP2 PUSH32 0x8BE0079C531659141344CD1FD0A4F28419497F9722A3DAAFE3B4186F6B6457E0 SWAP2 LOG3 PUSH1 0x0 DUP1 SLOAD PUSH1 0x1 PUSH1 0x1 PUSH1 0xA0 SHL SUB NOT AND PUSH1 0x1 PUSH1 0x1 PUSH1 0xA0 SHL SUB SWAP3 SWAP1 SWAP3 AND SWAP2 SWAP1 SWAP2 OR SWAP1 SSTORE JUMP JUMPDEST PUSH1 0x0 DUP1 DUP1 JUMPDEST PUSH1 0x1D SLOAD DUP2 LT ISZERO PUSH2 0x21EB JUMPI PUSH1 0x1D DUP1 SLOAD DUP3 DUP2 SUB SWAP2 PUSH1 0x0 SWAP2 PUSH1 0x0 NOT DUP5 ADD SWAP1 DUP2 LT PUSH2 0x402D JUMPI INVALID JUMPDEST SWAP1 PUSH1 0x0 MSTORE PUSH1 0x20 PUSH1 0x0 KECCAK256 SWAP1 PUSH1 0x4 MUL ADD SWAP1 POP DUP1 PUSH1 0x1 ADD SLOAD DUP7 GT ISZERO PUSH2 0x4051 JUMPI POP SWAP2 POP PUSH2 0x21EB JUMP JUMPDEST POP POP PUSH1 0x1 ADD PUSH2 0x400A JUMP JUMPDEST PUSH1 0x0 PUSH2 0xB7A DUP4 DUP4 PUSH1 0x40 MLOAD DUP1 PUSH1 0x40 ADD PUSH1 0x40 MSTORE DUP1 PUSH1 0x1E DUP2 MSTORE PUSH1 0x20 ADD PUSH32 0x536166654D6174683A207375627472616374696F6E206F766572666C6F770000 DUP2 MSTORE POP PUSH2 0x25B2 JUMP JUMPDEST PUSH1 0x1 PUSH1 0x1 PUSH1 0xA0 SHL SUB AND PUSH1 0x0 SWAP1 DUP2 MSTORE PUSH1 0x1C PUSH1 0x20 MSTORE PUSH1 0x40 SWAP1 KECCAK256 PUSH1 0x1 ADD SLOAD ISZERO ISZERO SWAP1 JUMP JUMPDEST PUSH1 0x0 DUP1 PUSH2 0x3E9 PUSH1 0xD PUSH1 0xA SWAP1 SLOAD SWAP1 PUSH2 0x100 EXP SWAP1 DIV PUSH2 0xFFFF AND PUSH2 0xFFFF AND LT PUSH2 0x40F4 JUMPI PUSH1 0xD SLOAD PUSH1 0x1 PUSH1 0x50 SHL SWAP1 DIV PUSH2 0xFFFF AND PUSH2 0x7D0 SUB PUSH2 0x4103 JUMP JUMPDEST PUSH1 0xD SLOAD PUSH1 0x1 PUSH1 0x50 SHL SWAP1 DIV PUSH2 0xFFFF AND JUMPDEST PUSH1 0xD SLOAD PUSH2 0xFFFF SWAP2 DUP3 AND SWAP3 POP PUSH1 0x1 PUSH1 0x60 SHL SWAP1 DIV AND DUP2 EQ ISZERO PUSH2 0x416F JUMPI PUSH1 0xD DUP1 SLOAD PUSH1 0x1 PUSH2 0xFFFF PUSH1 0x1 PUSH1 0x50 SHL DUP1 DUP5 DIV DUP3 AND SWAP3 SWAP1 SWAP3 ADD AND MUL PUSH2 0xFFFF PUSH1 0x50 SHL NOT SWAP1 SWAP2 AND OR SWAP1 SSTORE PUSH1 0xC SLOAD PUSH1 0xB SLOAD PUSH2 0x4153 SWAP2 SWAP1 PUSH2 0x2261 JUMP JUMPDEST PUSH1 0xC SSTORE PUSH1 0xD DUP1 SLOAD PUSH2 0xFFFF PUSH1 0x60 SHL NOT AND PUSH1 0x1 PUSH1 0x60 SHL OR SWAP1 SSTORE PUSH2 0x4196 JUMP JUMPDEST PUSH1 0xD DUP1 SLOAD PUSH1 0x1 PUSH2 0xFFFF PUSH1 0x1 PUSH1 0x60 SHL DUP1 DUP5 DIV DUP3 AND SWAP3 SWAP1 SWAP3 ADD AND MUL PUSH2 0xFFFF PUSH1 0x60 SHL NOT SWAP1 SWAP2 AND OR SWAP1 SSTORE JUMPDEST POP POP PUSH1 0xD DUP1 SLOAD PUSH10 0xFFFFFFFF000000000000 NOT DUP2 AND PUSH1 0x1 PUSH1 0x30 SHL SWAP2 DUP3 SWAP1 DIV PUSH4 0xFFFFFFFF SWAP1 DUP2 AND PUSH1 0x1 ADD DUP2 AND DUP4 MUL SWAP2 SWAP1 SWAP2 OR SWAP3 DUP4 SWAP1 SSTORE SWAP2 DIV AND SWAP1 JUMP JUMPDEST PUSH1 0x1 PUSH1 0x1 PUSH1 0xA0 SHL SUB DUP2 AND PUSH1 0x0 SWAP1 DUP2 MSTORE PUSH1 0x1C PUSH1 0x20 MSTORE PUSH1 0x40 DUP2 KECCAK256 PUSH1 0x7 DUP2 ADD SLOAD PUSH2 0x41FA JUMPI DUP3 SWAP2 POP POP PUSH2 0xA69 JUMP JUMPDEST PUSH2 0x422C DUP2 PUSH1 0x7 ADD PUSH1 0x0 DUP2 SLOAD DUP2 LT PUSH2 0x420D JUMPI INVALID JUMPDEST PUSH1 0x0 SWAP2 DUP3 MSTORE PUSH1 0x20 SWAP1 SWAP2 KECCAK256 PUSH1 0x2 SWAP1 SWAP2 MUL ADD SLOAD PUSH1 0x1 PUSH1 0x1 PUSH1 0xA0 SHL SUB AND PUSH2 0x41D0 JUMP JUMPDEST SWAP2 POP POP PUSH2 0xA69 JUMP JUMPDEST PUSH1 0x1 PUSH1 0x1 PUSH1 0xA0 SHL SUB DUP2 AND PUSH1 0x0 SWAP1 DUP2 MSTORE PUSH1 0x1C PUSH1 0x20 MSTORE PUSH1 0x40 DUP2 KECCAK256 PUSH1 0x1 DUP2 SLOAD PUSH1 0x1 PUSH1 0xD0 SHL SWAP1 DIV PUSH1 0xFF AND PUSH1 0x2 DUP2 GT ISZERO PUSH2 0x4265 JUMPI INVALID JUMPDEST EQ ISZERO PUSH2 0x4274 JUMPI DUP3 SWAP2 POP POP PUSH2 0xA69 JUMP JUMPDEST PUSH1 0x6 DUP2 ADD SLOAD PUSH2 0x422C SWAP1 PUSH1 0x1 PUSH1 0x1 PUSH1 0xA0 SHL SUB AND PUSH2 0x4234 JUMP JUMPDEST PUSH1 0x40 MLOAD DUP1 PUSH2 0x280 ADD PUSH1 0x40 MSTORE DUP1 PUSH1 0x14 SWAP1 PUSH1 0x20 DUP3 MUL DUP1 CALLDATASIZE DUP4 CALLDATACOPY POP SWAP2 SWAP3 SWAP2 POP POP JUMP INVALID 0x48 MSTORE NUMBER ORIGIN ADDRESS GASPRICE KECCAK256 PUSH2 0x7070 PUSH19 0x6F766520746F20746865207A65726F20616464 PUSH19 0x6573734F776E61626C653A206E6577206F776E PUSH6 0x722069732074 PUSH9 0x65207A65726F206164 PUSH5 0x7265737348 MSTORE NUMBER ORIGIN ADDRESS GASPRICE KECCAK256 PUSH21 0x72616E736665722066726F6D20746865207A65726F KECCAK256 PUSH2 0x6464 PUSH19 0x65737348524332303A207472616E7366657220 PUSH2 0x6D6F PUSH22 0x6E7420657863656564732062616C616E6365506C6173 PUSH14 0x6174696347616D653A206F766572 PUSH7 0x6C6F775F746F74 PUSH2 0x6C5F PUSH14 0x696E65506C61736D617469634761 PUSH14 0x653A20416C72656164795F446566 PUSH10 0x6E65645F4C6565485243 ORIGIN ADDRESS GASPRICE KECCAK256 PUSH5 0x6563726561 PUSH20 0x656420616C6C6F77616E63652062656C6F77207A PUSH6 0x726F48524332 ADDRESS GASPRICE KECCAK256 PUSH21 0x72616E7366657220616D6F756E7420657863656564 PUSH20 0x20616C6C6F77616E636548524332303A20627572 PUSH15 0x2066726F6D20746865207A65726F20 PUSH2 0x6464 PUSH19 0x657373506C61736D6174696347616D653A2041 PUSH13 0x72656164795F446566696E6564 0x5F COINBASE PUSH5 0x6D696E506C PUSH2 0x736D PUSH2 0x7469 PUSH4 0x47616D65 GASPRICE KECCAK256 PUSH10 0x6E76616C69645F726566 PUSH6 0x72616C5F6C69 PUSH15 0x6B4F776E61626C653A2063616C6C65 PUSH19 0x206973206E6F7420746865206F776E65724852 NUMBER ORIGIN ADDRESS GASPRICE KECCAK256 PUSH21 0x72616E7366657220746F20746865207A65726F2061 PUSH5 0x6472657373 POP PUSH13 0x61736D6174696347616D653A20 0x4E PUSH6 0x65645F504E6F PUSH5 0x655F726566 PUSH6 0x7265616C5F6C PUSH10 0x6E6B506C61736D617469 PUSH4 0x47616D65 GASPRICE KECCAK256 0x4E PUSH6 0x65645F41646D PUSH10 0x6E5F726566657265616C 0x5F PUSH13 0x696E6B506C61736D6174696347 PUSH2 0x6D65 GASPRICE KECCAK256 COINBASE PUSH13 0x72656164795F446566696E6564 0x5F GAS PUSH9 0x616E6748524332303A KECCAK256 PUSH3 0x75726E KECCAK256 PUSH2 0x6D6F PUSH22 0x6E7420657863656564732062616C616E636548524332 ADDRESS GASPRICE KECCAK256 PUSH2 0x7070 PUSH19 0x6F76652066726F6D20746865207A65726F2061 PUSH5 0x6472657373 SLOAD PUSH19 0x616E7366657248656C7065723A205452414E53 CHAINID GASLIMIT MSTORE 0x5F CHAINID MSTORE 0x4F 0x4D 0x5F CHAINID COINBASE 0x49 0x4C GASLIMIT DIFFICULTY POP PUSH13 0x61736D6174696347616D653A20 0x49 PUSH15 0x76616C69645F73656E646572000000 LOG2 PUSH5 0x6970667358 0x22 SLT KECCAK256 0xDD MOD CALLDATACOPY 0xCB PUSH17 0xDA27637B4D8A97DFE9B8177832E6326563 0xEB 0xDB 0xEA JUMPI DIV DUP7 0xCB REVERT OR SUB PUSH5 0x736F6C6343 STOP MOD 0xC STOP CALLER "
		},
		"gasEstimates": {
			"creation": {
				"codeDepositCost": "3567000",
				"executionCost": "infinite",
				"totalCost": "infinite"
			},
			"external": {
				"_dynamicRewardOf(address,address,uint8,uint256)": "infinite",
				"_maxSupply()": "1089",
				"_neededTPSForDeposit(uint256)": "1256",
				"_neededTPSForWithdraw(address)": "3855",
				"_totalSupply()": "1110",
				"allRewardOf(address)": "infinite",
				"allowance(address,address)": "1339",
				"approve(address,uint256)": "infinite",
				"balanceOf(address)": "1253",
				"buyMiner(address,uint256)": "infinite",
				"buyTPS(uint256)": "infinite",
				"decimals()": "1125",
				"decreaseAllowance(address,uint256)": "infinite",
				"deposit(address,uint256)": "infinite",
				"dynamicRewardOf(address)": "infinite",
				"getAdmin()": "1104",
				"getLee()": "1171",
				"getOwner()": "1162",
				"getPNode()": "1127",
				"getZhang()": "1105",
				"increaseAllowance(address,uint256)": "infinite",
				"isOverFlowed(address)": "8213",
				"layer()": "1120",
				"maxLayers()": "1081",
				"maxSupply()": "1065",
				"maxUsers()": "1135",
				"minerCount()": "1110",
				"minerPrice(uint8)": "6457",
				"mint(uint256)": "infinite",
				"name()": "infinite",
				"owner()": "1171",
				"pendingTLB(address)": "6217",
				"price()": "1087",
				"redeemAmount()": "1046",
				"referedMinersOf(address)": "1211",
				"refererOf(address)": "1235",
				"renounceOwnership()": "infinite",
				"rewardOf(address)": "infinite",
				"setAdmin(address)": "infinite",
				"setLee(address)": "infinite",
				"setZhang(address)": "infinite",
				"staticRewardOf(address)": "infinite",
				"symbol()": "infinite",
				"totalBurnt()": "1066",
				"totalMinePower()": "1087",
				"totalReferedMinerPowerOf(address)": "infinite",
				"totalSupply()": "1133",
				"totalUsers()": "1097",
				"transfer(address,uint256)": "infinite",
				"transferFrom(address,address,uint256)": "infinite",
				"transferOwnership(address)": "infinite",
				"withdraw()": "infinite",
				"withdrawTLBFromPool()": "infinite"
			},
			"internal": {
				"_addMiner(address,address,uint256,uint8,uint256,uint256)": "infinite",
				"_branchMembers(address,uint256)": "infinite",
				"_isTriggeredInsurance()": "6881",
				"_lastDeposit(address)": "911",
				"_setAdmin(address)": "20878",
				"_setInsurance(bool)": "infinite",
				"_setLee(address)": "20878",
				"_setZhang(address)": "20878",
				"_staticRewardOf(address,uint256,uint256)": "infinite",
				"_withdrawal(address,uint256)": "infinite",
				"addUserToPrism()": "infinite",
				"existNode(address)": "917",
				"getLastInBranch(address)": "infinite",
				"getShareholderInBranch(address)": "infinite",
				"getTier(uint256)": "infinite",
				"isValidReferer(address,address)": "2765",
				"minerTierInfo(uint256)": "infinite",
				"updateNodeInDeposit(address,address,uint256,uint256)": "infinite"
			}
		},
		"methodIdentifiers": {
			"_dynamicRewardOf(address,address,uint8,uint256)": "7195fd1a",
			"_maxSupply()": "22f4596f",
			"_neededTPSForDeposit(uint256)": "5fd35854",
			"_neededTPSForWithdraw(address)": "a4d5f178",
			"_totalSupply()": "3eaaf86b",
			"allRewardOf(address)": "26f30460",
			"allowance(address,address)": "dd62ed3e",
			"approve(address,uint256)": "095ea7b3",
			"balanceOf(address)": "70a08231",
			"buyMiner(address,uint256)": "8a43bb01",
			"buyTPS(uint256)": "a01a58ff",
			"decimals()": "313ce567",
			"decreaseAllowance(address,uint256)": "a457c2d7",
			"deposit(address,uint256)": "47e7ef24",
			"dynamicRewardOf(address)": "e2cde6b7",
			"getAdmin()": "6e9960c3",
			"getLee()": "3558dcf1",
			"getOwner()": "893d20e8",
			"getPNode()": "6c58c80d",
			"getZhang()": "6466be46",
			"increaseAllowance(address,uint256)": "39509351",
			"isOverFlowed(address)": "129db3a6",
			"layer()": "99f50b76",
			"maxLayers()": "82492a76",
			"maxSupply()": "d5abeb01",
			"maxUsers()": "e1b0e802",
			"minerCount()": "6d1da431",
			"minerPrice(uint8)": "9ca260fa",
			"mint(uint256)": "a0712d68",
			"name()": "06fdde03",
			"owner()": "8da5cb5b",
			"pendingTLB(address)": "255b9b72",
			"price()": "a035b1fe",
			"redeemAmount()": "0373c909",
			"referedMinersOf(address)": "21c12e44",
			"refererOf(address)": "393319a8",
			"renounceOwnership()": "715018a6",
			"rewardOf(address)": "1d62ebd9",
			"setAdmin(address)": "704b6c02",
			"setLee(address)": "c29b2a13",
			"setZhang(address)": "adbd5ff9",
			"staticRewardOf(address)": "ffe20a89",
			"symbol()": "95d89b41",
			"totalBurnt()": "966ff650",
			"totalMinePower()": "c0bc43bb",
			"totalReferedMinerPowerOf(address)": "ea064271",
			"totalSupply()": "18160ddd",
			"totalUsers()": "bff1f9e1",
			"transfer(address,uint256)": "a9059cbb",
			"transferFrom(address,address,uint256)": "23b872dd",
			"transferOwnership(address)": "f2fde38b",
			"withdraw()": "3ccfd60b",
			"withdrawTLBFromPool()": "c2bf23bd"
		}
	},
	"abi": [
		{
			"inputs": [],
			"stateMutability": "nonpayable",
			"type": "constructor"
		},
		{
			"anonymous": false,
			"inputs": [
				{
					"indexed": true,
					"internalType": "address",
					"name": "owner",
					"type": "address"
				},
				{
					"indexed": true,
					"internalType": "address",
					"name": "spender",
					"type": "address"
				},
				{
					"indexed": false,
					"internalType": "uint256",
					"name": "value",
					"type": "uint256"
				}
			],
			"name": "Approval",
			"type": "event"
		},
		{
			"anonymous": false,
			"inputs": [
				{
					"indexed": false,
					"internalType": "address",
					"name": "guest",
					"type": "address"
				},
				{
					"indexed": false,
					"internalType": "uint256",
					"name": "amount",
					"type": "uint256"
				}
			],
			"name": "GuestAdded",
			"type": "event"
		},
		{
			"anonymous": false,
			"inputs": [
				{
					"indexed": false,
					"internalType": "address",
					"name": "guest",
					"type": "address"
				},
				{
					"indexed": false,
					"internalType": "uint256",
					"name": "amount",
					"type": "uint256"
				}
			],
			"name": "GuestUpdated",
			"type": "event"
		},
		{
			"anonymous": false,
			"inputs": [
				{
					"indexed": true,
					"internalType": "address",
					"name": "previousOwner",
					"type": "address"
				},
				{
					"indexed": true,
					"internalType": "address",
					"name": "newOwner",
					"type": "address"
				}
			],
			"name": "OwnershipTransferred",
			"type": "event"
		},
		{
			"anonymous": false,
			"inputs": [
				{
					"indexed": false,
					"internalType": "uint256",
					"name": "amount",
					"type": "uint256"
				}
			],
			"name": "TokensBurnt",
			"type": "event"
		},
		{
			"anonymous": false,
			"inputs": [
				{
					"indexed": false,
					"internalType": "address",
					"name": "guest",
					"type": "address"
				},
				{
					"indexed": false,
					"internalType": "uint256",
					"name": "amountUSDT",
					"type": "uint256"
				}
			],
			"name": "TokensBuy",
			"type": "event"
		},
		{
			"anonymous": false,
			"inputs": [
				{
					"indexed": true,
					"internalType": "address",
					"name": "from",
					"type": "address"
				},
				{
					"indexed": true,
					"internalType": "address",
					"name": "to",
					"type": "address"
				},
				{
					"indexed": false,
					"internalType": "uint256",
					"name": "value",
					"type": "uint256"
				}
			],
			"name": "Transfer",
			"type": "event"
		},
		{
			"inputs": [
				{
					"internalType": "address",
					"name": "firstChild",
					"type": "address"
				},
				{
					"internalType": "address",
					"name": "sender",
					"type": "address"
				},
				{
					"internalType": "uint8",
					"name": "tier",
					"type": "uint8"
				},
				{
					"internalType": "uint256",
					"name": "tierStart",
					"type": "uint256"
				}
			],
			"name": "_dynamicRewardOf",
			"outputs": [
				{
					"internalType": "uint256",
					"name": "",
					"type": "uint256"
				}
			],
			"stateMutability": "view",
			"type": "function"
		},
		{
			"inputs": [],
			"name": "_maxSupply",
			"outputs": [
				{
					"internalType": "uint256",
					"name": "",
					"type": "uint256"
				}
			],
			"stateMutability": "view",
			"type": "function"
		},
		{
			"inputs": [
				{
					"internalType": "uint256",
					"name": "amount",
					"type": "uint256"
				}
			],
			"name": "_neededTPSForDeposit",
			"outputs": [
				{
					"internalType": "uint256",
					"name": "",
					"type": "uint256"
				}
			],
			"stateMutability": "view",
			"type": "function"
		},
		{
			"inputs": [
				{
					"internalType": "address",
					"name": "account",
					"type": "address"
				}
			],
			"name": "_neededTPSForWithdraw",
			"outputs": [
				{
					"internalType": "uint256",
					"name": "",
					"type": "uint256"
				}
			],
			"stateMutability": "view",
			"type": "function"
		},
		{
			"inputs": [],
			"name": "_totalSupply",
			"outputs": [
				{
					"internalType": "uint256",
					"name": "",
					"type": "uint256"
				}
			],
			"stateMutability": "view",
			"type": "function"
		},
		{
			"inputs": [
				{
					"internalType": "address",
					"name": "sender",
					"type": "address"
				}
			],
			"name": "allRewardOf",
			"outputs": [
				{
					"internalType": "bool",
					"name": "",
					"type": "bool"
				},
				{
					"internalType": "uint256",
					"name": "",
					"type": "uint256"
				},
				{
					"internalType": "uint256",
					"name": "",
					"type": "uint256"
				},
				{
					"internalType": "uint256",
					"name": "",
					"type": "uint256"
				}
			],
			"stateMutability": "view",
			"type": "function"
		},
		{
			"inputs": [
				{
					"internalType": "address",
					"name": "owner",
					"type": "address"
				},
				{
					"internalType": "address",
					"name": "spender",
					"type": "address"
				}
			],
			"name": "allowance",
			"outputs": [
				{
					"internalType": "uint256",
					"name": "",
					"type": "uint256"
				}
			],
			"stateMutability": "view",
			"type": "function"
		},
		{
			"inputs": [
				{
					"internalType": "address",
					"name": "spender",
					"type": "address"
				},
				{
					"internalType": "uint256",
					"name": "amount",
					"type": "uint256"
				}
			],
			"name": "approve",
			"outputs": [
				{
					"internalType": "bool",
					"name": "",
					"type": "bool"
				}
			],
			"stateMutability": "nonpayable",
			"type": "function"
		},
		{
			"inputs": [
				{
					"internalType": "address",
					"name": "account",
					"type": "address"
				}
			],
			"name": "balanceOf",
			"outputs": [
				{
					"internalType": "uint256",
					"name": "",
					"type": "uint256"
				}
			],
			"stateMutability": "view",
			"type": "function"
		},
		{
			"inputs": [
				{
					"internalType": "address",
					"name": "referalLink",
					"type": "address"
				},
				{
					"internalType": "uint256",
					"name": "amountUsdt",
					"type": "uint256"
				}
			],
			"name": "buyMiner",
			"outputs": [
				{
					"internalType": "uint256",
					"name": "",
					"type": "uint256"
				}
			],
			"stateMutability": "nonpayable",
			"type": "function"
		},
		{
			"inputs": [
				{
					"internalType": "uint256",
					"name": "amountUsdt",
					"type": "uint256"
				}
			],
			"name": "buyTPS",
			"outputs": [
				{
					"internalType": "uint256",
					"name": "",
					"type": "uint256"
				}
			],
			"stateMutability": "nonpayable",
			"type": "function"
		},
		{
			"inputs": [],
			"name": "decimals",
			"outputs": [
				{
					"internalType": "uint8",
					"name": "",
					"type": "uint8"
				}
			],
			"stateMutability": "view",
			"type": "function"
		},
		{
			"inputs": [
				{
					"internalType": "address",
					"name": "spender",
					"type": "address"
				},
				{
					"internalType": "uint256",
					"name": "subtractedValue",
					"type": "uint256"
				}
			],
			"name": "decreaseAllowance",
			"outputs": [
				{
					"internalType": "bool",
					"name": "",
					"type": "bool"
				}
			],
			"stateMutability": "nonpayable",
			"type": "function"
		},
		{
			"inputs": [
				{
					"internalType": "address",
					"name": "referalLink",
					"type": "address"
				},
				{
					"internalType": "uint256",
					"name": "amount",
					"type": "uint256"
				}
			],
			"name": "deposit",
			"outputs": [],
			"stateMutability": "nonpayable",
			"type": "function"
		},
		{
			"inputs": [
				{
					"internalType": "address",
					"name": "sender",
					"type": "address"
				}
			],
			"name": "dynamicRewardOf",
			"outputs": [
				{
					"internalType": "uint256",
					"name": "",
					"type": "uint256"
				}
			],
			"stateMutability": "view",
			"type": "function"
		},
		{
			"inputs": [],
			"name": "getAdmin",
			"outputs": [
				{
					"internalType": "address",
					"name": "",
					"type": "address"
				}
			],
			"stateMutability": "view",
			"type": "function"
		},
		{
			"inputs": [],
			"name": "getLee",
			"outputs": [
				{
					"internalType": "address",
					"name": "",
					"type": "address"
				}
			],
			"stateMutability": "view",
			"type": "function"
		},
		{
			"inputs": [],
			"name": "getOwner",
			"outputs": [
				{
					"internalType": "address",
					"name": "",
					"type": "address"
				}
			],
			"stateMutability": "view",
			"type": "function"
		},
		{
			"inputs": [],
			"name": "getPNode",
			"outputs": [
				{
					"internalType": "address",
					"name": "",
					"type": "address"
				}
			],
			"stateMutability": "view",
			"type": "function"
		},
		{
			"inputs": [],
			"name": "getZhang",
			"outputs": [
				{
					"internalType": "address",
					"name": "",
					"type": "address"
				}
			],
			"stateMutability": "view",
			"type": "function"
		},
		{
			"inputs": [
				{
					"internalType": "address",
					"name": "spender",
					"type": "address"
				},
				{
					"internalType": "uint256",
					"name": "addedValue",
					"type": "uint256"
				}
			],
			"name": "increaseAllowance",
			"outputs": [
				{
					"internalType": "bool",
					"name": "",
					"type": "bool"
				}
			],
			"stateMutability": "nonpayable",
			"type": "function"
		},
		{
			"inputs": [
				{
					"internalType": "address",
					"name": "sender",
					"type": "address"
				}
			],
			"name": "isOverFlowed",
			"outputs": [
				{
					"internalType": "bool",
					"name": "",
					"type": "bool"
				}
			],
			"stateMutability": "view",
			"type": "function"
		},
		{
			"inputs": [],
			"name": "layer",
			"outputs": [
				{
					"internalType": "uint16",
					"name": "",
					"type": "uint16"
				}
			],
			"stateMutability": "view",
			"type": "function"
		},
		{
			"inputs": [],
			"name": "maxLayers",
			"outputs": [
				{
					"internalType": "uint16",
					"name": "",
					"type": "uint16"
				}
			],
			"stateMutability": "view",
			"type": "function"
		},
		{
			"inputs": [],
			"name": "maxSupply",
			"outputs": [
				{
					"internalType": "uint256",
					"name": "",
					"type": "uint256"
				}
			],
			"stateMutability": "view",
			"type": "function"
		},
		{
			"inputs": [],
			"name": "maxUsers",
			"outputs": [
				{
					"internalType": "uint32",
					"name": "",
					"type": "uint32"
				}
			],
			"stateMutability": "view",
			"type": "function"
		},
		{
			"inputs": [],
			"name": "minerCount",
			"outputs": [
				{
					"internalType": "uint256",
					"name": "",
					"type": "uint256"
				}
			],
			"stateMutability": "view",
			"type": "function"
		},
		{
			"inputs": [
				{
					"internalType": "uint8",
					"name": "tier",
					"type": "uint8"
				}
			],
			"name": "minerPrice",
			"outputs": [
				{
					"internalType": "uint256",
					"name": "",
					"type": "uint256"
				}
			],
			"stateMutability": "view",
			"type": "function"
		},
		{
			"inputs": [
				{
					"internalType": "uint256",
					"name": "amount",
					"type": "uint256"
				}
			],
			"name": "mint",
			"outputs": [
				{
					"internalType": "bool",
					"name": "",
					"type": "bool"
				}
			],
			"stateMutability": "nonpayable",
			"type": "function"
		},
		{
			"inputs": [],
			"name": "name",
			"outputs": [
				{
					"internalType": "string",
					"name": "",
					"type": "string"
				}
			],
			"stateMutability": "view",
			"type": "function"
		},
		{
			"inputs": [],
			"name": "owner",
			"outputs": [
				{
					"internalType": "address payable",
					"name": "",
					"type": "address"
				}
			],
			"stateMutability": "view",
			"type": "function"
		},
		{
			"inputs": [
				{
					"internalType": "address",
					"name": "account",
					"type": "address"
				}
			],
			"name": "pendingTLB",
			"outputs": [
				{
					"internalType": "uint256",
					"name": "",
					"type": "uint256"
				}
			],
			"stateMutability": "view",
			"type": "function"
		},
		{
			"inputs": [],
			"name": "price",
			"outputs": [
				{
					"internalType": "uint256",
					"name": "",
					"type": "uint256"
				}
			],
			"stateMutability": "view",
			"type": "function"
		},
		{
			"inputs": [],
			"name": "redeemAmount",
			"outputs": [
				{
					"internalType": "uint256",
					"name": "",
					"type": "uint256"
				}
			],
			"stateMutability": "view",
			"type": "function"
		},
		{
			"inputs": [
				{
					"internalType": "address",
					"name": "account",
					"type": "address"
				}
			],
			"name": "referedMinersOf",
			"outputs": [
				{
					"internalType": "uint256",
					"name": "",
					"type": "uint256"
				}
			],
			"stateMutability": "view",
			"type": "function"
		},
		{
			"inputs": [
				{
					"internalType": "address",
					"name": "sender",
					"type": "address"
				}
			],
			"name": "refererOf",
			"outputs": [
				{
					"internalType": "address",
					"name": "",
					"type": "address"
				}
			],
			"stateMutability": "view",
			"type": "function"
		},
		{
			"inputs": [],
			"name": "renounceOwnership",
			"outputs": [],
			"stateMutability": "nonpayable",
			"type": "function"
		},
		{
			"inputs": [
				{
					"internalType": "address",
					"name": "sender",
					"type": "address"
				}
			],
			"name": "rewardOf",
			"outputs": [
				{
					"internalType": "uint256",
					"name": "",
					"type": "uint256"
				}
			],
			"stateMutability": "view",
			"type": "function"
		},
		{
			"inputs": [
				{
					"internalType": "address",
					"name": "account",
					"type": "address"
				}
			],
			"name": "setAdmin",
			"outputs": [],
			"stateMutability": "nonpayable",
			"type": "function"
		},
		{
			"inputs": [
				{
					"internalType": "address",
					"name": "account",
					"type": "address"
				}
			],
			"name": "setLee",
			"outputs": [],
			"stateMutability": "nonpayable",
			"type": "function"
		},
		{
			"inputs": [
				{
					"internalType": "address",
					"name": "account",
					"type": "address"
				}
			],
			"name": "setZhang",
			"outputs": [],
			"stateMutability": "nonpayable",
			"type": "function"
		},
		{
			"inputs": [
				{
					"internalType": "address",
					"name": "sender",
					"type": "address"
				}
			],
			"name": "staticRewardOf",
			"outputs": [
				{
					"internalType": "uint256",
					"name": "",
					"type": "uint256"
				}
			],
			"stateMutability": "view",
			"type": "function"
		},
		{
			"inputs": [],
			"name": "symbol",
			"outputs": [
				{
					"internalType": "string",
					"name": "",
					"type": "string"
				}
			],
			"stateMutability": "view",
			"type": "function"
		},
		{
			"inputs": [],
			"name": "totalBurnt",
			"outputs": [
				{
					"internalType": "uint256",
					"name": "",
					"type": "uint256"
				}
			],
			"stateMutability": "view",
			"type": "function"
		},
		{
			"inputs": [],
			"name": "totalMinePower",
			"outputs": [
				{
					"internalType": "uint256",
					"name": "",
					"type": "uint256"
				}
			],
			"stateMutability": "view",
			"type": "function"
		},
		{
			"inputs": [
				{
					"internalType": "address",
					"name": "account",
					"type": "address"
				}
			],
			"name": "totalReferedMinerPowerOf",
			"outputs": [
				{
					"internalType": "uint256",
					"name": "",
					"type": "uint256"
				}
			],
			"stateMutability": "view",
			"type": "function"
		},
		{
			"inputs": [],
			"name": "totalSupply",
			"outputs": [
				{
					"internalType": "uint256",
					"name": "",
					"type": "uint256"
				}
			],
			"stateMutability": "view",
			"type": "function"
		},
		{
			"inputs": [],
			"name": "totalUsers",
			"outputs": [
				{
					"internalType": "uint32",
					"name": "",
					"type": "uint32"
				}
			],
			"stateMutability": "view",
			"type": "function"
		},
		{
			"inputs": [
				{
					"internalType": "address",
					"name": "recipient",
					"type": "address"
				},
				{
					"internalType": "uint256",
					"name": "amount",
					"type": "uint256"
				}
			],
			"name": "transfer",
			"outputs": [
				{
					"internalType": "bool",
					"name": "",
					"type": "bool"
				}
			],
			"stateMutability": "nonpayable",
			"type": "function"
		},
		{
			"inputs": [
				{
					"internalType": "address",
					"name": "sender",
					"type": "address"
				},
				{
					"internalType": "address",
					"name": "recipient",
					"type": "address"
				},
				{
					"internalType": "uint256",
					"name": "amount",
					"type": "uint256"
				}
			],
			"name": "transferFrom",
			"outputs": [
				{
					"internalType": "bool",
					"name": "",
					"type": "bool"
				}
			],
			"stateMutability": "nonpayable",
			"type": "function"
		},
		{
			"inputs": [
				{
					"internalType": "address payable",
					"name": "newOwner",
					"type": "address"
				}
			],
			"name": "transferOwnership",
			"outputs": [],
			"stateMutability": "nonpayable",
			"type": "function"
		},
		{
			"inputs": [],
			"name": "withdraw",
			"outputs": [],
			"stateMutability": "nonpayable",
			"type": "function"
		},
		{
			"inputs": [],
			"name": "withdrawTLBFromPool",
			"outputs": [],
			"stateMutability": "nonpayable",
			"type": "function"
		}
	]
}