{
	"data": {
		"bytecode": {
			"linkReferences": {},
			"object": "608060405260078054610100600160a81b031916749defb199a6cdbfbaffe8c1c712f469e5c900a4de001760ff60a81b1916600160a91b179081905560ff600160a81b90910416600a0a600881905561271060095560649004601655600a600854816200006857fe5b046017556018805465ffffffffffff60201b1963ffffffff19909116620f42401716905560006019819055601a805461ffff191690556301abbc00601b55601c81905542601d55610e10601e55601f81905560209081556040805161010081018252600160a0820181815260c083019190915260c860e08301528152815160608181018452600280835282860152609682850152828501919091528251808201845260038152600781860152606481850152828401528251808201845260088152600f8186015260328185015281830152825190810183526010815260149381018490529182019290925260808201526200016890604690600562000884565b50600060515560006052556000605355600060555560405180608001604052806040518060800160405280600854613a980281526020016064815260200160648152602001601e81525081526020016040518060800160405280600854611d4c0281526020016032815260200160328152602001601481525081526020016040518060800160405280600854610dac0281526020016019815260200160198152602001600a81525081526020016040518060800160405280600854606402815260200160058152602001600a81526020016005815250815250605790600462000253929190620008e2565b5060408051600a8082526101608201909252906020820161014080368337505081516200028892605d9250602001906200093c565b503480156200029657600080fd5b506040518060400160405280600b81526020016a544c42205374616b696e6760a81b815250604051806040016040528060038152602001622a262160e91b815250600464519577b0006000620002f16200072c60201b60201c565b600080546001600160a01b0319166001600160a01b0383169081178255604051929350917f8be0079c531659141344cd1fd0a4f28419497f9722a3daafe3b4186f6b6457e0908290a350835162000350906005906020870190620009a2565b50825162000366906006906020860190620009a2565b506007805460ff191660ff9390931692909217909155600455506000905060646200039062000730565b601402816200039b57fe5b049050620003aa338262000736565b604a6040518060a00160405280600160ff16815260200160085460c8028152602001601060ff168152602001600160ff168152602001610898815250908060018154018082558091505060019003906000526020600020906004020160009091909190915060008201518160000160006101000a81548160ff021916908360ff1602179055506020820151816001015560408201518160020160006101000a81548160ff021916908360ff16021790555060608201518160020160016101000a81548160ff021916908360ff160217905550608082015181600301555050604a6040518060a00160405280600260ff1681526020016008546103e9028152602001600e60ff168152602001600260ff168152602001610834815250908060018154018082558091505060019003906000526020600020906004020160009091909190915060008201518160000160006101000a81548160ff021916908360ff1602179055506020820151816001015560408201518160020160006101000a81548160ff021916908360ff16021790555060608201518160020160016101000a81548160ff021916908360ff160217905550608082015181600301555050604a6040518060a00160405280600360ff1681526020016008546107d1028152602001600c60ff168152602001600360ff1681526020016107d0815250908060018154018082558091505060019003906000526020600020906004020160009091909190915060008201518160000160006101000a81548160ff021916908360ff1602179055506020820151816001015560408201518160020160006101000a81548160ff021916908360ff16021790555060608201518160020160016101000a81548160ff021916908360ff160217905550608082015181600301555050604a6040518060a00160405280600460ff168152602001600854611389028152602001600a60ff168152602001600460ff16815260200161076c815250908060018154018082558091505060019003906000526020600020906004020160009091909190915060008201518160000160006101000a81548160ff021916908360ff1602179055506020820151816001015560408201518160020160006101000a81548160ff021916908360ff16021790555060608201518160020160016101000a81548160ff021916908360ff1602179055506080820151816003015550505062000c94565b3390565b60045490565b6001600160a01b038216620007685760405162461bcd60e51b81526004016200075f9062000c1f565b60405180910390fd5b60045462000787826003546200085560201b620020581790919060201c565b10620007a75760405162461bcd60e51b81526004016200075f9062000c56565b620007c3816003546200085560201b620020581790919060201c565b6003556001600160a01b038216600090815260016020908152604090912054620007f89183906200205862000855821b17901c565b6001600160a01b0383166000818152600160205260408082209390935591519091907fddf252ad1be2c89b69c2b068fc378daa952ba7f163c4a11628f55a4df523b3ef906200084990859062000c8b565b60405180910390a35050565b6000828201838110156200087d5760405162461bcd60e51b81526004016200075f9062000be8565b9392505050565b828054828255906000526020600020908101928215620008d0579160200282015b82811115620008d0578251620008bf908390600362000a23565b5091602001919060010190620008a5565b50620008de92915062000acc565b5090565b8280548282559060005260206000209081019282156200092e579160200282015b828111156200092e5782516200091d908390600462000aed565b509160200191906001019062000903565b50620008de92915062000b2a565b82805482825590600052602060002090810192821562000994579160200282015b828111156200099457825182546001600160a01b0319166001600160a01b039091161782556020909201916001909101906200095d565b50620008de92915062000b4b565b828054600181600116156101000203166002900490600052602060002090601f016020900481019282601f10620009e557805160ff191683800117855562000a15565b8280016001018555821562000a15579182015b8281111562000a15578251825591602001919060010190620009f8565b50620008de92915062000b6c565b82805482825590600052602060002090601f0160209004810192821562000abe5791602002820160005b8382111562000a8d57835183826101000a81548160ff021916908360ff160217905550926020019260010160208160000104928301926001030262000a4d565b801562000abc5782816101000a81549060ff021916905560010160208160000104928301926001030262000a8d565b505b50620008de92915062000b83565b80821115620008de57600062000ae3828262000b9e565b5060010162000acc565b82805482825590600052602060002090810192821562000a15579160200282018281111562000a15578251825591602001919060010190620009f8565b80821115620008de57600062000b41828262000bc8565b5060010162000b2a565b5b80821115620008de5780546001600160a01b031916815560010162000b4c565b5b80821115620008de576000815560010162000b6d565b5b80821115620008de57805460ff1916815560010162000b84565b50805460008255601f01602090049060005260206000209081019062000bc5919062000b6c565b50565b508054600082559060005260206000209081019062000bc5919062000b6c565b6020808252601b908201527f536166654d6174683a206164646974696f6e206f766572666c6f770000000000604082015260600190565b6020808252601f908201527f48524332303a206d696e7420746f20746865207a65726f206164647265737300604082015260600190565b6020808252818101527f48524332303a20616c72656164792072656163686564206d6178537570706c79604082015260600190565b90815260200190565b61503c8062000ca46000396000f3fe608060405234801561001057600080fd5b50600436106102a05760003560e01c8063893d20e811610167578063cc85f080116100ce578063ed73ee2511610087578063ed73ee2514610597578063f2218f561461059f578063f2fde38b146105b2578063f656f562146105c5578063f697ddb2146105d8578063fd125ece146105e0576102a0565b8063cc85f0801461051b578063d5abeb011461053f578063d96a094a14610547578063dd62ed3e1461055a578063e4849b321461056d578063e87f2cce14610580576102a0565b8063a0712d6811610120578063a0712d681461049c578063a457c2d7146104af578063a7310b58146104c2578063a9059cbb146104e2578063bdc42a7a146104f5578063c711106314610508576102a0565b8063893d20e81461043e5780638a43bb01146104535780638da5cb5b1461046657806395d89b411461046e57806399eb9576146104765780639bf0011714610489576102a0565b806336fdde7c1161020b57806347e7ef24116101c457806347e7ef24146103dd5780635da4c926146103f05780635ee4462c146104035780636cb444281461040b57806370a0823114610423578063715018a614610436576102a0565b806336fdde7c14610397578063395093511461039f57806339b50688146103b25780633ccfd60b146103ba5780633eaaf86b146103c2578063440565af146103ca576102a0565b80631e71615b1161025d5780631e71615b1461034057806322f4596f1461035557806323b872dd1461035d57806326621f9e1461037057806326c0e5c51461037a578063313ce56714610382576102a0565b806306fdde03146102a5578063095ea7b3146102c35780630e25a441146102e357806315c43aaf146103035780631701a82a1461031857806318160ddd14610338575b600080fd5b6102ad610602565b6040516102ba9190614894565b60405180910390f35b6102d66102d13660046145bc565b610698565b6040516102ba9190614864565b6102f66102f136600461445d565b6106b6565b6040516102ba9190614ecb565b61030b61075f565b6040516102ba9190614812565b61032b61032636600461445d565b6107fe565b6040516102ba91906147e0565b6102f6610973565b610348610979565b6040516102ba9190614778565b6102f6610b34565b6102d661036b36600461457c565b610b3a565b610378610bc1565b005b610378610c48565b61038a610d14565b6040516102ba9190614f22565b610378610d1d565b6102d66103ad3660046145bc565b610de5565b610378610e33565b610378610ef1565b6102f66112bc565b6103786103d836600461457c565b6112c2565b6103786103eb3660046145bc565b6112d6565b6103786103fe3660046145bc565b61133a565b610378611344565b6104136113f6565b6040516102ba9493929190614f07565b6102f661043136600461445d565b611457565b610378611472565b6104466114f1565b6040516102ba91906146c5565b6103786104613660046145bc565b611500565b61044661156f565b6102ad61157e565b6102f6610484366004614607565b6115df565b61037861049736600461457c565b6115fa565b6102d66104aa366004614607565b611605565b6102d66104bd3660046145bc565b611655565b6104d56104d036600461445d565b6116bd565b6040516102ba919061483b565b6102d66104f03660046145bc565b61183c565b6102f6610503366004614607565b611850565b61037861051636600461457c565b61185b565b61052e61052936600461445d565b611867565b6040516102ba95949392919061486f565b6102f6611bf1565b610378610555366004614607565b611bf7565b6102f6610568366004614479565b611c33565b61037861057b366004614607565b611c5e565b610588611c9a565b6040516102ba93929190614735565b610378611e45565b6103786105ad3660046144b1565b611e83565b6103786105c036600461445d565b611f02565b6103786105d336600461450c565b611f40565b610446611fa9565b6105f36105ee36600461445d565b611fb8565b6040516102ba93929190614ed4565b60058054604080516020601f600260001961010060018816150201909516949094049384018190048102820181019092528281526060939092909183018282801561068e5780601f106106635761010080835404028352916020019161068e565b820191906000526020600020905b81548152906001019060200180831161067157829003601f168201915b5050505050905090565b60006106ac6106a5612084565b8484612088565b5060015b92915050565b600e546000906001600160a01b03838116911614806106e257506012546001600160a01b038381169116145b806106fa5750600a546001600160a01b038381169116145b156107075750600061075a565b61070f610d14565b6001600160a01b03831660009081526049602052604090206001015460ff91909116600a0a906103e9600160201b90910461ffff1610610750576002610753565b60055b60ff160290505b919050565b6107676143c1565b604051806101a001604052806017548152602001601c548152602001605054815260200160035481526020016019548152602001601d5481526020016107ab61213c565b8152602001605b548152602001605a5481526020016107ca6000612159565b81526020016107d96001612159565b81526020016107e86002612159565b81526020016107f76003612159565b9052905090565b6108066143e0565b6001600160a01b0382166000908152605960205260408120805490919081805b8454811015610874576058600086838154811061083f57fe5b60009182526020808320909101546001600160a01b031683528201929092526040019020600201549390930192600101610826565b506001600160a01b03861660009081526058602052604090206003810154156108c55780546108c05761258081600301544303106108b35760006108b6565b60015b60ff1691506108c5565b600191505b6000806108d1896121fe565b915091506000605a54600014156108e9576000610906565b605a5461708002600954856002015461bb8002028161090457fe5b045b6040805161016081018252600287015481526020810192909252855490820152606081019690965250608085019590955260a0840192909252600381015460c0840152600681015460e0840152600401546101008301526101208201526101408101919091529392505050565b60035490565b60606000600a6055541161098f57605554610992565b600a5b905060608167ffffffffffffffff811180156109ad57600080fd5b506040519080825280602002602001820160405280156109e757816020015b6109d46143ff565b8152602001906001900390816109cc5790505b50905060005b82811015610b2d5760548181548110610a0257fe5b600091825260208220600a909102010154828281518110610a1f57fe5b6020026020010151600060048110610a3357fe5b60200201526054805482908110610a4657fe5b90600052602060002090600a02016001600a8110610a6057fe5b0154828281518110610a6e57fe5b6020026020010151600160048110610a8257fe5b60200201526054805482908110610a9557fe5b90600052602060002090600a02016002600a8110610aaf57fe5b0154828281518110610abd57fe5b6020026020010151600260048110610ad157fe5b60200201526054805482908110610ae457fe5b90600052602060002090600a02016003600a8110610afe57fe5b0154828281518110610b0c57fe5b6020026020010151600360048110610b2057fe5b60200201526001016109ed565b5091505090565b60045481565b6000610b4784848461227f565b610bb784610b53612084565b610bb285604051806060016040528060288152602001614fbd602891396001600160a01b038a16600090815260026020526040812090610b91612084565b6001600160a01b031681526020810191909152604001600020549190612389565b612088565b5060019392505050565b6000610bcb612084565b90506001600160a01b038116610bfc5760405162461bcd60e51b8152600401610bf390614b3f565b60405180910390fd5b6001600160a01b0381166000908152605660205260409020600281015415610c2c57610c2c8282600201546123b5565b600481015415610c4457610c448282600401546126b5565b5050565b6000610c52612084565b90506001600160a01b038116610c7a5760405162461bcd60e51b8152600401610bf390614b3f565b6001600160a01b038116600090815260586020526040812090610c9c836121fe565b91505060008111610cbf5760405162461bcd60e51b8152600401610bf390614b3f565b601b5481605c54011115610ce55760405162461bcd60e51b8152600401610bf390614e8d565b600060038301819055600483018054830190556005830155605c805482019055610d0f838261299a565b505050565b60075460ff1690565b601e54601d54420310610de3576014601c546020546103e80281610d3d57fe5b041015610dd457601e54601d5401601f556000610d5861213c565b905060646014820204610dac605083020460005b604554811015610dcf5760006049600060218460248110610d8957fe5b01546001600160a01b031681526020810191909152604001600020601f546001016006820155905060238214610dbf5782610dc1565b835b600b90910155600101610d6c565b505050505b42601d55600060208190556045555b565b60006106ac610df2612084565b84610bb28560026000610e03612084565b6001600160a01b03908116825260208083019390935260409182016000908120918c168152925290205490612058565b6000610e3d612084565b90506001600160a01b038116610e655760405162461bcd60e51b8152600401610bf390614b3f565b6001600160a01b0381166000908152605660205260409020600281015415610ee9576000818101556000816001015560008160020155610eaa3083836002015461227f565b7fa21a2a879c924a525cd3d043187d43e34b2573d79532750b8792307a7c2feadb828260025b0154604051610ee09291906146fd565b60405180910390a15b610c44612a7b565b6000610efb612084565b90506001600160a01b038116610f235760405162461bcd60e51b8152600401610bf390614b3f565b6000806000806000610f3486611867565b945094509450945094508415610f5c5760405162461bcd60e51b8152600401610bf390614a87565b600a546001600160a01b0387811691161415610f88576000600b55600c80548201905542600d5561126a565b600e546001600160a01b0387811691161415610fb4576000600f5560108054820190554260115561126a565b6012546001600160a01b0387811691161415610fe057600060135560148054820190554260155561126a565b6001600160a01b0386166000908152604960205260409020600a81015415611268576003810180548301905542600682015560006007820181905560088201819055600b82018190556001820154858701919060029083906005600160201b90910461ffff16106110515786611054565b60005b018161105c57fe5b0490508083600a0154111561110e57600a830180548290039081905560009061108490612aac565b600185015490915060ff808316600160381b90920416146110fc57808460010160076101000a81548160ff021916908360ff1602179055506103e8604a6001830360ff16815481106110d257fe5b90600052602060002090600402016003015485600a015402816110f157fe5b046009850155611108565b60098401805483900390555b5061112c565b60018301805460ff60381b191690556000600a840181905560098401555b60018301546103e7600160201b90910461ffff1610156112555760018301546018546103e8604b8502049163ffffffff908116620f42400391828216600160201b90910490911611156111ae5763ffffffff81166000908152604860209081526040808320546001600160a01b0316835260499091529020600b018054830190555b5060408051606081018252428152602081019283526000918101828152604e8054600181018255935290517f9b65e484ce3d961a557081a44c6c68a0a27eca0b88fce820bdd99c3dc223dcc760039093029283015591517f9b65e484ce3d961a557081a44c6c68a0a27eca0b88fce820bdd99c3dc223dcc882015590517f9b65e484ce3d961a557081a44c6c68a0a27eca0b88fce820bdd99c3dc223dcc990910155611265565b605080546103e860968502040190555b50505b505b80156112b45760075461128c9061010090046001600160a01b03168783612afa565b6000611297876106b6565b905080156112b2576112a98782612be8565b60198054820190555b505b505050505050565b60035481565b6112cd838383612cb2565b610d0f83612f34565b60006112e0612084565b90506001600160a01b0381166113085760405162461bcd60e51b8152600401610bf390614b3f565b6001600160a01b03831661132e5760405162461bcd60e51b8152600401610bf390614933565b610d0f818484426130c8565b610c44828261299a565b600061134e612084565b90506001600160a01b0381166113765760405162461bcd60e51b8152600401610bf390614b3f565b6001600160a01b0381166000908152605660205260409020600481015415610ee95760008181015560008160030155600081600401556007546113cc9061010090046001600160a01b0316838360040154612afa565b7f866cb17a996e44fad30a4450e43850706bfa73cbc9cc00561c44cd87e9f1503f82826004610ed0565b60008080803361140461156f565b6001600160a01b03161461142a5760405162461bcd60e51b8152600401610bf390614c8f565b5050601854601b54601f54600160401b830461ffff1695600160201b90930463ffffffff16945090925090565b6001600160a01b031660009081526001602052604090205490565b61147a612084565b6000546001600160a01b039081169116146114a75760405162461bcd60e51b8152600401610bf390614c8f565b600080546040516001600160a01b03909116907f8be0079c531659141344cd1fd0a4f28419497f9722a3daafe3b4186f6b6457e0908390a3600080546001600160a01b0319169055565b60006114fb61156f565b905090565b600061150a612084565b90506001600160a01b0381166115325760405162461bcd60e51b8152600401610bf390614963565b826001600160a01b0316816001600160a01b031614156115645760405162461bcd60e51b8152600401610bf390614d83565b610d0f818484612cb2565b6000546001600160a01b031690565b60068054604080516020601f600260001961010060018816150201909516949094049384018190048102820181019092528281526060939092909183018282801561068e5780601f106106635761010080835404028352916020019161068e565b6000601754600a026009548302816115f357fe5b0492915050565b610d0f838383612088565b600061160f612084565b6000546001600160a01b0390811691161461163c5760405162461bcd60e51b8152600401610bf390614c8f565b61164d611647612084565b8361299a565b506001919050565b60006106ac611662612084565b84610bb285604051806060016040528060258152602001614f98602591396002600061168c612084565b6001600160a01b03908116825260208083019390935260409182016000908120918d16815292529020549190612389565b6116c561441d565b6001600160a01b0382166116eb5760405162461bcd60e51b8152600401610bf390614d5a565b6000806000806000806000806117008a611457565b600a549091506001600160a01b038b81169116141561176b57600c54604754909650600090819061173b906001600160a01b031660016138f8565b6047546001600160a01b0316600090815260496020526040902060020154600190920196500193506117f8915050565b600e546001600160a01b038b81169116141561178b57600c5495506117f8565b6012546001600160a01b038b8116911614156117ab57600c5495506117f8565b6001600160a01b038a16600090815260496020526040812080546005820154600383015460028401546009850154939d509b5099509097509550906117f1908c906138f8565b9094509250505b604080516101008101825298895260208901919091528701929092526060860194909452608085019290925260a084015260c083019190915260e082015292915050565b60006106ac611849612084565b848461227f565b60006106b082612159565b610d0f838383426130c8565b600a546000908190819081908190819081908190819081906001600160a01b038c81169116141561194a576047546001600160a01b031660009081526049602052604081206046805491926103e8926118bc57fe5b906000526020600020016002815481106118d257fe5b90600052602060002090602091828204019190069054906101000a900460ff1660ff166119038384600601546139d0565b028161190b57fe5b04600a6001015401915061191d61443c565b604754600683015461193c916001600160a01b03169060016013613a79565b604001519450611bdf915050565b600e546001600160a01b038c8116911614156119695750600f54611bdf565b6012546001600160a01b038c8116911614156119885750601354611bdf565b6001600160a01b038b166000908152604960205260409020601f54600682015410955085156119c95760405162461bcd60e51b8152600401610bf390614ae4565b6001810154600160381b900460ff166119f45760405162461bcd60e51b8152600401610bf390614d2d565b80600b015492506000604a60018360010160079054906101000a900460ff160360ff1681548110611a2157fe5b90600052602060002090600402019050611a3961443c565b611aa08e8460060154600060468660020160019054906101000a900460ff1660ff1681548110611a6557fe5b90600052602060002001600181548110611a7b57fe5b60009182526020918290209181049091015460ff601f9092166101000a900416613a79565b9050611ab08384600601546139d0565b6040820151600185015491985096506103e6600160201b90910461ffff16118015611aec575060018301546103ea600160201b90910461ffff16105b15611b4b5760005b604e54811015611b49576000604e8281548110611b0d57fe5b90600052602060002090600302019050846006015481600001541115611b4057610bb6816001015481611b3c57fe5b0496505b50600101611af4565b505b6103e8826003015484600a01540281611b6057fe5b0485826040015189010111975087611bdb5760018301546005600160201b90910461ffff161015611b9f57846103e86103528989010204019350611bdb565b60018301546103e6600160201b90910461ffff161115611bcd576103e8610352888801870102049350611bdb565b6103e8610352888801020493505b5050505b939a9299509097509550909350915050565b60045490565b6000611c01612084565b90506001600160a01b038116611c295760405162461bcd60e51b8152600401610bf390614b3f565b610c4481836126b5565b6001600160a01b03918216600090815260026020908152604080832093909416825291909152205490565b6000611c68612084565b90506001600160a01b038116611c905760405162461bcd60e51b8152600401610bf390614b3f565b610c4481836123b5565b60408051600a8082526101608201909252606091829182918291906020820161014080368337505060408051600a808252610160820190925292935060609291506020820161014080368337505060408051600a808252610160820190925292935060609291506020820161014080368337019050509050600080805b600a811015611e3557605d8181548110611d2d57fe5b6000918252602090912001546001600160a01b031691508115801590611d7357506001600160a01b03821660009081526058602052604090206003015443612580909101115b15611e2d5781868481518110611d8557fe5b60200260200101906001600160a01b031690816001600160a01b03168152505060586000836001600160a01b03166001600160a01b0316815260200190815260200160002060020154858481518110611dda57fe5b60200260200101818152505060586000836001600160a01b03166001600160a01b0316815260200190815260200160002060030154848481518110611e1b57fe5b60209081029190910101526001909201915b600101611d17565b5093965091945092505050909192565b6000611e4f612084565b90506001600160a01b038116611e775760405162461bcd60e51b8152600401610bf390614b3f565b611e8081612f34565b50565b33611e8c61156f565b6001600160a01b031614611eb25760405162461bcd60e51b8152600401610bf390614c8f565b600a80546001600160a01b039586166001600160a01b0319918216179091556012805494861694821694909417909355600e805492851692841692909217909155604f8054919093169116179055565b611f0a612084565b6000546001600160a01b03908116911614611f375760405162461bcd60e51b8152600401610bf390614c8f565b611e8081613d95565b600780546001600160a01b0396871661010002610100600160a81b0319909116179055600a80549486166001600160a01b03199586161790556012805493861693851693909317909255600e8054918516918416919091179055604f8054919093169116179055565b6047546001600160a01b031681565b6001600160a01b038082166000908152604960209081526040808320600d810154600e90910180548351818602810186019094528084529495869560609561ffff600160a01b8604169594909216939183919083018282801561204457602002820191906000526020600020905b81546001600160a01b03168152600190910190602001808311612026575b505050505090509250925092509193909250565b60008282018381101561207d5760405162461bcd60e51b8152600401610bf390614aad565b9392505050565b3390565b6001600160a01b0383166120ae5760405162461bcd60e51b8152600401610bf390614e05565b6001600160a01b0382166120d45760405162461bcd60e51b8152600401610bf3906149ba565b6001600160a01b0380841660008181526002602090815260408083209487168084529490915290819020849055517f8c5be1e5ebec7d5bd14f71427d1e84f3dd0314c0f7b2291e5b200ac8c7c3b9259061212f908590614ecb565b60405180910390a3505050565b60006103e8612149613e16565b6032028161215357fe5b04905090565b6000600382111561217c5760405162461bcd60e51b8152600401610bf390614c69565b601854605780546103e892600160401b900461ffff1691908590811061219e57fe5b906000526020600020016000815481106121b457fe5b906000526020600020015402816121c757fe5b04605783815481106121d557fe5b906000526020600020016000815481106121eb57fe5b9060005260206000200154019050919050565b6001600160a01b038116600090815260586020526040812060038101548291901561226f57805461226f576003810154430361258081111561223f57506125805b80605a546170800283600201546009548461bb800202028161225d57fe5b0483600501540193509350505061227a565b600501546000925090505b915091565b6001600160a01b0383166122a55760405162461bcd60e51b8152600401610bf390614a42565b6001600160a01b0382166122cb5760405162461bcd60e51b8152600401610bf390614cc4565b61230881604051806060016040528060268152602001614f72602691396001600160a01b0386166000908152600160205260409020549190612389565b6001600160a01b0380851660009081526001602052604080822093909355908416815220546123379082612058565b6001600160a01b0380841660008181526001602052604090819020939093559151908516907fddf252ad1be2c89b69c2b068fc378daa952ba7f163c4a11628f55a4df523b3ef9061212f908590614ecb565b600081848411156123ad5760405162461bcd60e51b8152600401610bf39190614894565b505050900390565b60006009546017548302816123c657fe5b0490506123d483308461227f565b600081605254106123f15750605280548290039055600090612401565b5060528054600090915590819003905b801561265e5760075461242b9061010090046001600160a01b0316856103e86103e6850204612afa565b6009605554111561258d5760005b600981101561258b576054816001018154811061245257fe5b600091825260208220600a9091020101546054828154811061247057fe5b600091825260208220600a909102010155605480546001830190811061249257fe5b90600052602060002090600a02016001600a81106124ac57fe5b0154605482815481106124bb57fe5b90600052602060002090600a02016001600a81106124d557fe5b015560548054600183019081106124e857fe5b90600052602060002090600a02016002600a811061250257fe5b01546054828154811061251157fe5b90600052602060002090600a02016002600a811061252b57fe5b0155605480546001830190811061253e57fe5b90600052602060002090600a02016003600a811061255857fe5b01546054828154811061256757fe5b90600052602060002090600a02016003600a811061258157fe5b0155600101612439565b505b60006009605554116125a1576055546125a4565b60095b905060555461271101605482815481106125ba57fe5b600091825260208220600a9091020101819055506001605482815481106125dd57fe5b90600052602060002090600a02016001600a81106125f757fe5b0181905550816054828154811061260a57fe5b90600052602060002090600a02016002600a811061262457fe5b0181905550426054828154811061263757fe5b90600052602060002090600a02016003600a811061265157fe5b0155506055805460010190555b81156126a7576001600160a01b03841660009081526056602052604090204281556001810180548501905560175460095484028161269857fe5b048160025b0180549091019055505b6126af612a7b565b50505050565b6007546126d29061010090046001600160a01b0316833084613e9c565b60006017546009548302816126e357fe5b049050600081605354106127035750605380548290039055600090612713565b5060538054600090915590819003905b80156129575761272430858361227f565b600960555411156128865760005b6009811015612884576054816001018154811061274b57fe5b600091825260208220600a9091020101546054828154811061276957fe5b600091825260208220600a909102010155605480546001830190811061278b57fe5b90600052602060002090600a02016001600a81106127a557fe5b0154605482815481106127b457fe5b90600052602060002090600a02016001600a81106127ce57fe5b015560548054600183019081106127e157fe5b90600052602060002090600a02016002600a81106127fb57fe5b01546054828154811061280a57fe5b90600052602060002090600a02016002600a811061282457fe5b0155605480546001830190811061283757fe5b90600052602060002090600a02016003600a811061285157fe5b01546054828154811061286057fe5b90600052602060002090600a02016003600a811061287a57fe5b0155600101612732565b505b600060096055541161289a5760555461289d565b60095b905060555461271101605482815481106128b357fe5b600091825260208220600a9091020101819055506001605482815481106128d657fe5b90600052602060002090600a02016001600a81106128f057fe5b0181905550816054828154811061290357fe5b90600052602060002090600a02016002600a811061291d57fe5b0181905550426054828154811061293057fe5b90600052602060002090600a02016003600a811061294a57fe5b0155506055805460010190555b81156126a7576001600160a01b03841660009081526056602052604090204281556003810180548501905560095460175484028161299157fe5b0481600461269d565b6001600160a01b0382166129c05760405162461bcd60e51b8152600401610bf390614b08565b6004546003546129d09083612058565b106129ed5760405162461bcd60e51b8152600401610bf390614c34565b6003546129fa9082612058565b6003556001600160a01b038216600090815260016020526040902054612a209082612058565b6001600160a01b0383166000818152600160205260408082209390935591519091907fddf252ad1be2c89b69c2b068fc378daa952ba7f163c4a11628f55a4df523b3ef90612a6f908590614ecb565b60405180910390a35050565b605154612a8b5742605155610de3565b6201518060515442031115610de35760505460528054909101905542605155565b604a546000905b8015612af157604a6001820381548110612ac957fe5b9060005260206000209060040201600101548310612ae857905061075a565b60001901612ab3565b50600092915050565b60006060846001600160a01b031663a9059cbb8585604051602401612b209291906146fd565b6040516020818303038152906040529060e01b6020820180516001600160e01b038381831617835250505050604051612b5991906146a9565b6000604051808303816000865af19150503d8060008114612b96576040519150601f19603f3d011682016040523d82523d6000602084013e612b9b565b606091505b5091509150818015612bc5575080511580612bc5575080806020019051810190612bc591906145e7565b612be15760405162461bcd60e51b8152600401610bf3906148c7565b5050505050565b6001600160a01b038216612c0e5760405162461bcd60e51b8152600401610bf390614bf3565b612c4b81604051806060016040528060228152602001614fe5602291396001600160a01b0385166000908152600160205260409020549190612389565b6001600160a01b038316600090815260016020526040902055600354612c719082613f85565b6003556040516000906001600160a01b038416907fddf252ad1be2c89b69c2b068fc378daa952ba7f163c4a11628f55a4df523b3ef90612a6f908590614ecb565b6001600160a01b03831660009081526058602052604081206057805491929184908110612cdb57fe5b90600052602060002001600181548110612cf157fe5b600091825260209091200154600a549091506001600160a01b03868116911614612ece57600080612d2185612159565b905060006064601860089054906101000a900461ffff1661ffff161115612d755760578681548110612d4f57fe5b90600052602060002001600381548110612d6557fe5b9060005260206000200154612da4565b60578681548110612d8257fe5b90600052602060002001600281548110612d9857fe5b90600052602060002001545b6007546103e8828502049450909150612dcd9061010090046001600160a01b0316893085613e9c565b6001600160a01b03871615612e89576007546064605a85020490612e009061010090046001600160a01b03168983612afa565b6002860154612e58576001600160a01b038089166000818152605960209081526040822080546001818101835591845291909220018054938d166001600160a01b031994851617905588018054909216179055612e87565b60018601546001600160a01b03898116911614612e875760405162461bcd60e51b8152600401610bf39061498d565b505b50605080546064600a9490940293909304909201909155600b80546103e860148402819004909101909155600f80549281029190910491820190556013805490910190555b6002820154612ef0576000825560028201819055605b80546001019055612f18565b600382015415612f0d576000612f05866121fe565b600585015550505b600282018054820190555b605a805490910190556000600382015542600690910155505050565b6001600160a01b03811660009081526058602052604090206002810154612f6d5760405162461bcd60e51b8152600401610bf390614db2565b600381015415612f8f5760405162461bcd60e51b8152600401610bf390614bc8565b60005b600a8110156130615760006001600160a01b0316605d8281548110612fb357fe5b6000918252602090912001546001600160a01b031614801590613013575060586000605d600081548110612fe357fe5b60009182526020808320909101546001600160a01b03168352820192909252604001902060029081015490830154115b156130595782605d828154811061302657fe5b9060005260206000200160006101000a8154816001600160a01b0302191690836001600160a01b03160217905550613061565b600101612f92565b80600a14156130a85782605d60008154811061307957fe5b9060005260206000200160006101000a8154816001600160a01b0302191690836001600160a01b031602179055505b60006130b3846121fe565b60058501555050436003909201919091555050565b60185463ffffffff600160201b82048116911681106130f95760405162461bcd60e51b8152600401610bf390614d07565b63ffffffff811661313657600a546001600160a01b038581169116146131315760405162461bcd60e51b8152600401610bf390614b91565b6131d2565b600a8163ffffffff161015613172576047546001600160a01b038581169116146131315760405162461bcd60e51b8152600401610bf3906148fe565b6001600160a01b038516600090815260496020526040902060050154156131d2576001600160a01b038581166000908152604960205260409020600c01548116908516146131d25760405162461bcd60e51b8152600401610bf390614933565b6001600160a01b038516600090815260496020526040902060050154801561322a576127108410156132255760085460640281850310156132255760405162461bcd60e51b8152600401610bf390614ddb565b61324f565b60085460c80284101561324f5760405162461bcd60e51b8152600401610bf390614ddb565b600061325a856115df565b90508061326688611457565b10156132845760405162461bcd60e51b8152600401610bf390614b69565b6007546132a19061010090046001600160a01b0316883088613e9c565b6132ab8782612be8565b60198054820190556001600160a01b0380881660009081526049602052604080822092891682529020600682015461363b5760006132e7613fc7565b90506000601860049054906101000a900463ffffffff1663ffffffff166001141561333d575060018301805460ff60301b19169055604780546001600160a01b0319166001600160a01b038c161790558861346b565b6018546005600160401b90910461ffff1610156133b257506001838101805460ff60301b1916600160301b1790556001600160a01b038a811660009081526049602090815260408220600e01805494850181558252902090910180546001600160a01b031916918c169190911790558861346b565b60018401805460ff60301b19166602000000000000179055600d8301546003600160a01b90910461ffff9081168281049290069081166133f4578b9250613427565b61342485600e018361ffff168154811061340a57fe5b6000918252602090912001546001600160a01b0316614101565b92505b50506001600160a01b0381811660009081526049602090815260408220600e01805460018101825590835291200180546001600160a01b031916918d169190911790555b82600d01601481819054906101000a900461ffff168092919060010191906101000a81548161ffff021916908361ffff16021790555050866306034e8b0163ffffffff1684600001819055508984600c0160006101000a8154816001600160a01b0302191690836001600160a01b03160217905550818460010160006101000a81548163ffffffff021916908363ffffffff160217905550601860089054906101000a900461ffff168460010160046101000a81548161ffff021916908361ffff1602179055508884600a018190555060008460040160006101000a81548160ff021916908315150217905550600084600b01819055508084600d0160006101000a8154816001600160a01b0302191690836001600160a01b03160217905550600084600d0160146101000a81548161ffff021916908361ffff1602179055506207aae78263ffffffff1611156135eb5763ffffffff8216600090815260486020526040902080546001600160a01b0319166001600160a01b038d161790555b6018546040517f6932ac5f42401e77c40344f612fa5558d62470f6a92606e938a4743c566e6ce89161362c918e91600160201b900463ffffffff1690614716565b60405180910390a150506136bb565b600482015460ff168061365357508160060154601e54115b1561366b5760006007830181905560088301556136b0565b6000806136778b611867565b5050509150915081156136975760006007850181905560088501556136ad565b6007840181905580156136ad576136ad84614142565b50505b600a82018054880190555b600582018790556006820186905560028201805488019055601c805488019055602080548801905542601d55600a8201546000906136f890612aac565b90506103e8604a6001830360ff168154811061371057fe5b90600052602060002090600402016003015484600a0154028161372f57fe5b04600984015560018301805460ff808416600160381b0260ff60381b19909216919091179091556004840154161561376e5760048301805460ff191690555b605080546103e860128b02819004909101909155604b805460208b02839004019055600b805460148b02839004019055600f8054818b02929092049182019055601380549091019055604554602414156138295760015b60455481101561382257602160018203602481106137df57fe5b01546001600160a01b031660216000198301602481106137fb57fe5b0180546001600160a01b0319166001600160a01b03929092169190911790556001016137c5565b5060236045555b8960216045546024811061383957fe5b0180546001600160a01b0319166001600160a01b039290921691909117905560458054600101905560026001840154600160301b900460ff16600281111561387d57fe5b14156138e4576000600180840154600160301b900460ff1660028111156138a057fe5b14156138ad5750816138d3565b60006138b88b614372565b6001600160a01b031660009081526049602052604090209150505b600b0180546103e860288b02040190555b6138ec610d1d565b50505050505050505050565b6001600160a01b038216600090815260496020526040812081908180805b600e8401548110156139c357600084600e01828154811061393357fe5b6000918252602082200154600e870180546001600160a01b0390921693506049918391908690811061396157fe5b60009182526020808320909101546001600160a01b031683528201929092526040019020905060138910156139ab576000806139a0848c6001016138f8565b970196959095019450505b60020154600194850194930192919091019050613916565b5090969095509350505050565b600082600601548210156139e657826006015491505b601f548210156139f8575060006106b0565b6000603c83420381613a0657fe5b049050601f548310613a6e576215f90081604a60018760010160079054906101000a900460ff160360ff1681548110613a3b57fe5b6000918252602090912060026004909202010154600a87015460ff909116020281613a6257fe5b04846007015401613a71565b60005b949350505050565b613a8161443c565b6001600160a01b03851660009081526049602052604081209084151580613ab557506047546001600160a01b038881169116145b613ad657600d820154600390600160a01b900461ffff160461ffff16613adc565b600e8201545b905060008060008060005b85811015613d6f57600087600e018281548110613b0057fe5b6000918252602082200154600e8a0180546001600160a01b03909216935060499183919086908110613b2e57fe5b60009182526020808320909101546001600160a01b031683528201929092526040019020600481015490915060ff16613d6557613b6b818e6139d0565b60018a810154919850600160381b90910460ff1610801590613b8b57508b155b15613bea576103e86046600081548110613ba157fe5b90600052602060002001600281548110613bb757fe5b60009182526020918290209181049091015460ff601f9092166101000a900416880281613be057fe5b0485019450613d13565b600189810154600160381b900460ff1610801590613c0857508b6001145b15613c1e576103e86046600181548110613ba157fe5b60018901546002600160381b90910460ff1610801590613c3f575060028c10155b8015613c4c575060068c11155b15613c62576103e86046600281548110613ba157fe5b60018901546003600160381b90910460ff1610801590613c83575060078c10155b8015613c905750600f8c11155b15613ca6576103e86046600381548110613ba157fe5b60018901546004600160381b90910460ff1610613d13576103e86046600481548110613cce57fe5b90600052602060002001600281548110613ce457fe5b60009182526020918290209181049091015460ff601f9092166101000a900416880281613d0d57fe5b04850194505b60018b038c1015613d5457613d2661443c565b613d35838f8f6001018f613a79565b9050806000015185019450806020015187019650806040015186019550505b600281015495909501946001909301925b5050600101613ae7565b506040805160608101825291825260208201939093529182015298975050505050505050565b6001600160a01b038116613dbb5760405162461bcd60e51b8152600401610bf3906149fc565b600080546040516001600160a01b03808516939216917f8be0079c531659141344cd1fd0a4f28419497f9722a3daafe3b4186f6b6457e091a3600080546001600160a01b0319166001600160a01b0392909216919091179055565b6007546040516370a0823160e01b815260009161010090046001600160a01b0316906370a0823190613e4c9030906004016146c5565b60206040518083038186803b158015613e6457600080fd5b505afa158015613e78573d6000803e3d6000fd5b505050506040513d601f19601f820116820180604052508101906114fb919061461f565b60006060856001600160a01b03166323b872dd868686604051602401613ec4939291906146d9565b6040516020818303038152906040529060e01b6020820180516001600160e01b038381831617835250505050604051613efd91906146a9565b6000604051808303816000865af19150503d8060008114613f3a576040519150601f19603f3d011682016040523d82523d6000602084013e613f3f565b606091505b5091509150818015613f69575080511580613f69575080806020019051810190613f6991906145e7565b6112b45760405162461bcd60e51b8152600401610bf390614e49565b600061207d83836040518060400160405280601e81526020017f536166654d6174683a207375627472616374696f6e206f766572666c6f770000815250612389565b6000806103e9601860089054906101000a900461ffff1661ffff1610613ffe57601854600160401b900461ffff166107d00361400d565b601854600160401b900461ffff165b601a5461ffff9182169250168114156140b0576018805469ffff0000000000000000198116600160401b9182900461ffff9081166001018116830291909117928390556040517f66d08156b35a3ddc911dafbc8b10ffdc4e5126b090253256cfa71a80f87aefee9361408493900490911690614ebc565b60405180910390a161409a601754601654612058565b601755601a805461ffff191660011790556140c9565b601a805461ffff8082166001011661ffff199091161790555b50506018805467ffffffff00000000198116600160201b9182900463ffffffff90811660010181168302919091179283905591041690565b6001600160a01b0381166000908152604960205260408120600e8101541561413b5761413681600e0160008154811061340a57fe5b61207d565b5090919050565b600080805b60148110156126af57600a54600d8501546001600160a01b0390811691161461419957600d8401546001600160a01b0316600090815260496020526040902060010154600160381b900460ff1661419c565b60045b925060018360ff16101580156141b25750806001145b15614216576103e860466000815481106141c857fe5b906000526020600020016002815481106141de57fe5b90600052602060002090602091828204019190069054906101000a900460ff1660ff168560070154028161420e57fe5b049150614316565b60018360ff161015801561422a5750806002145b15614240576103e860466001815481106141c857fe5b60028360ff1610158015614255575060038110155b8015614262575060078111155b15614278576103e860466002815481106141c857fe5b60038360ff161015801561428d575060088110155b801561429a575060108111155b156142b0576103e860466003815481106141c857fe5b60048360ff1610614316576103e860466004815481106142cc57fe5b906000526020600020016002815481106142e257fe5b90600052602060002090602091828204019190069054906101000a900460ff1660ff168560070154028161431257fe5b0491505b811561436a57600a54600d8501546001600160a01b039081169116141561434457600b8054830190556126af565b600d8401546001600160a01b031660009081526049602052604090206008018054830190555b600101614147565b6001600160a01b0381166000908152604960205260408120600180820154600160301b900460ff1660028111156143a557fe5b1461413b57600d810154614136906001600160a01b0316614372565b604051806101a00160405280600d906020820280368337509192915050565b604051806101600160405280600b906020820280368337509192915050565b60405180608001604052806004906020820280368337509192915050565b6040518061010001604052806008906020820280368337509192915050565b60405180606001604052806000815260200160008152602001600081525090565b60006020828403121561446e578081fd5b813561207d81614f5c565b6000806040838503121561448b578081fd5b823561449681614f5c565b915060208301356144a681614f5c565b809150509250929050565b600080600080608085870312156144c6578182fd5b84356144d181614f5c565b935060208501356144e181614f5c565b925060408501356144f181614f5c565b9150606085013561450181614f5c565b939692955090935050565b600080600080600060a08688031215614523578081fd5b853561452e81614f5c565b9450602086013561453e81614f5c565b9350604086013561454e81614f5c565b9250606086013561455e81614f5c565b9150608086013561456e81614f5c565b809150509295509295909350565b600080600060608486031215614590578283fd5b833561459b81614f5c565b925060208401356145ab81614f5c565b929592945050506040919091013590565b600080604083850312156145ce578182fd5b82356145d981614f5c565b946020939093013593505050565b6000602082840312156145f8578081fd5b8151801515811461207d578182fd5b600060208284031215614618578081fd5b5035919050565b600060208284031215614630578081fd5b5051919050565b6000815180845260208085019450808401835b8381101561466f5781516001600160a01b03168752958201959082019060010161464a565b509495945050505050565b6000815180845260208085019450808401835b8381101561466f5781518752958201959082019060010161468d565b600082516146bb818460208701614f30565b9190910192915050565b6001600160a01b0391909116815260200190565b6001600160a01b039384168152919092166020820152604081019190915260600190565b6001600160a01b03929092168252602082015260400190565b6001600160a01b0392909216825263ffffffff16602082015260400190565b6000606082526147486060830186614637565b828103602084015261475a818661467a565b9050828103604084015261476e818561467a565b9695505050505050565b6020808252825182820181905260009190848201906040850190845b818110156147d457835183875b60048110156147be578251825291870191908701906001016147a1565b5050509284019260809290920191600101614794565b50909695505050505050565b6101608101818360005b600b8110156148095781518352602092830192909101906001016147ea565b50505092915050565b6101a08101818360005b600d81101561480957815183526020928301929091019060010161481c565b6101008101818360005b6008811015614809578151835260209283019290910190600101614845565b901515815260200190565b9415158552602085019390935260408401919091526060830152608082015260a00190565b60006020825282518060208401526148b3816040850160208701614f30565b601f01601f19169190910160400192915050565b6020808252601f908201527f5472616e7366657248656c7065723a205452414e534645525f4641494c454400604082015260600190565b6020808252818101527f23204e656564704e6f64655f726566657265616c5f6c696e6b41646472657373604082015260600190565b6020808252601690820152752320696e76616c69645f7265666572616c5f6c696e6b60501b604082015260600190565b60208082526010908201526f119034b73b30b634b22fb9b2b73232b960811b604082015260600190565b602080825260139082015272496e76616c69645f5265666572616c4c696e6b60681b604082015260600190565b60208082526022908201527f48524332303a20617070726f766520746f20746865207a65726f206164647265604082015261737360f01b606082015260800190565b60208082526026908201527f4f776e61626c653a206e6577206f776e657220697320746865207a65726f206160408201526564647265737360d01b606082015260800190565b60208082526025908201527f48524332303a207472616e736665722066726f6d20746865207a65726f206164604082015264647265737360d81b606082015260800190565b6020808252600c908201526b08c813dd995c999b1bddd95960a21b604082015260600190565b6020808252601b908201527f536166654d6174683a206164646974696f6e206f766572666c6f770000000000604082015260600190565b6020808252600a908201526913dd995c999b1bddd95960b21b604082015260600190565b6020808252601f908201527f48524332303a206d696e7420746f20746865207a65726f206164647265737300604082015260600190565b60208082526010908201526f119024b73b30b634b22fb9b2b73232b960811b604082015260600190565b6020808252600e908201526d11902732b2b22f989812afaa363160911b604082015260600190565b6020808252601a908201527f23204e6565645f41646d696e5f726566657265616c5f6c696e6b000000000000604082015260600190565b60208082526011908201527008c8105b1c9958591e57dcdd185c9d1959607a1b604082015260600190565b60208082526021908201527f48524332303a206275726e2066726f6d20746865207a65726f206164647265736040820152607360f81b606082015260800190565b6020808252818101527f48524332303a20616c72656164792072656163686564206d6178537570706c79604082015260600190565b6020808252600c908201526b34b73b30b634b22fba34b2b960a11b604082015260600190565b6020808252818101527f4f776e61626c653a2063616c6c6572206973206e6f7420746865206f776e6572604082015260600190565b60208082526023908201527f48524332303a207472616e7366657220746f20746865207a65726f206164647260408201526265737360e81b606082015260800190565b6020808252600c908201526b232066756c6c5f757365727360a01b604082015260600190565b60208082526013908201527232bc3832b1ba32b22fbb30b634b22fba34b2b960691b604082015260600190565b6020808252600f908201526e1a5b9d985b1a5917d858d8dbdd5b9d608a1b604082015260600190565b6020808252601590820152742320696e76616c69645f7265666572616c4c696e6b60581b604082015260600190565b6020808252600f908201526e119024b73b30b634b22fb6b4b732b960891b604082015260600190565b60208082526010908201526f08c8151bdbd7d31bddd7d25b9d995cdd60821b604082015260600190565b60208082526024908201527f48524332303a20617070726f76652066726f6d20746865207a65726f206164646040820152637265737360e01b606082015260800190565b60208082526024908201527f5472616e7366657248656c7065723a205452414e534645525f46524f4d5f46416040820152631253115160e21b606082015260800190565b60208082526015908201527423206f766572666c6f775f746f74616c5f6d696e6560581b604082015260600190565b61ffff91909116815260200190565b90815260200190565b8381526001600160a01b0383166020820152606060408201819052600090614efe90830184614637565b95945050505050565b93845260208401929092526040830152606082015260800190565b60ff91909116815260200190565b60005b83811015614f4b578181015183820152602001614f33565b838111156126af5750506000910152565b6001600160a01b0381168114611e8057600080fdfe48524332303a207472616e7366657220616d6f756e7420657863656564732062616c616e636548524332303a2064656372656173656420616c6c6f77616e63652062656c6f77207a65726f48524332303a207472616e7366657220616d6f756e74206578636565647320616c6c6f77616e636548524332303a206275726e20616d6f756e7420657863656564732062616c616e6365a2646970667358221220afcb5308deca8ebce7659a8db9b5886ddffa406771befdb7cf688be3d06852d164736f6c634300060c0033",
			"opcodes": "PUSH1 0x80 PUSH1 0x40 MSTORE PUSH1 0x7 DUP1 SLOAD PUSH2 0x100 PUSH1 0x1 PUSH1 0xA8 SHL SUB NOT AND PUSH21 0x9DEFB199A6CDBFBAFFE8C1C712F469E5C900A4DE00 OR PUSH1 0xFF PUSH1 0xA8 SHL NOT AND PUSH1 0x1 PUSH1 0xA9 SHL OR SWAP1 DUP2 SWAP1 SSTORE PUSH1 0xFF PUSH1 0x1 PUSH1 0xA8 SHL SWAP1 SWAP2 DIV AND PUSH1 0xA EXP PUSH1 0x8 DUP2 SWAP1 SSTORE PUSH2 0x2710 PUSH1 0x9 SSTORE PUSH1 0x64 SWAP1 DIV PUSH1 0x16 SSTORE PUSH1 0xA PUSH1 0x8 SLOAD DUP2 PUSH3 0x68 JUMPI INVALID JUMPDEST DIV PUSH1 0x17 SSTORE PUSH1 0x18 DUP1 SLOAD PUSH6 0xFFFFFFFFFFFF PUSH1 0x20 SHL NOT PUSH4 0xFFFFFFFF NOT SWAP1 SWAP2 AND PUSH3 0xF4240 OR AND SWAP1 SSTORE PUSH1 0x0 PUSH1 0x19 DUP2 SWAP1 SSTORE PUSH1 0x1A DUP1 SLOAD PUSH2 0xFFFF NOT AND SWAP1 SSTORE PUSH4 0x1ABBC00 PUSH1 0x1B SSTORE PUSH1 0x1C DUP2 SWAP1 SSTORE TIMESTAMP PUSH1 0x1D SSTORE PUSH2 0xE10 PUSH1 0x1E SSTORE PUSH1 0x1F DUP2 SWAP1 SSTORE PUSH1 0x20 SWAP1 DUP2 SSTORE PUSH1 0x40 DUP1 MLOAD PUSH2 0x100 DUP2 ADD DUP3 MSTORE PUSH1 0x1 PUSH1 0xA0 DUP3 ADD DUP2 DUP2 MSTORE PUSH1 0xC0 DUP4 ADD SWAP2 SWAP1 SWAP2 MSTORE PUSH1 0xC8 PUSH1 0xE0 DUP4 ADD MSTORE DUP2 MSTORE DUP2 MLOAD PUSH1 0x60 DUP2 DUP2 ADD DUP5 MSTORE PUSH1 0x2 DUP1 DUP4 MSTORE DUP3 DUP7 ADD MSTORE PUSH1 0x96 DUP3 DUP6 ADD MSTORE DUP3 DUP6 ADD SWAP2 SWAP1 SWAP2 MSTORE DUP3 MLOAD DUP1 DUP3 ADD DUP5 MSTORE PUSH1 0x3 DUP2 MSTORE PUSH1 0x7 DUP2 DUP7 ADD MSTORE PUSH1 0x64 DUP2 DUP6 ADD MSTORE DUP3 DUP5 ADD MSTORE DUP3 MLOAD DUP1 DUP3 ADD DUP5 MSTORE PUSH1 0x8 DUP2 MSTORE PUSH1 0xF DUP2 DUP7 ADD MSTORE PUSH1 0x32 DUP2 DUP6 ADD MSTORE DUP2 DUP4 ADD MSTORE DUP3 MLOAD SWAP1 DUP2 ADD DUP4 MSTORE PUSH1 0x10 DUP2 MSTORE PUSH1 0x14 SWAP4 DUP2 ADD DUP5 SWAP1 MSTORE SWAP2 DUP3 ADD SWAP3 SWAP1 SWAP3 MSTORE PUSH1 0x80 DUP3 ADD MSTORE PUSH3 0x168 SWAP1 PUSH1 0x46 SWAP1 PUSH1 0x5 PUSH3 0x884 JUMP JUMPDEST POP PUSH1 0x0 PUSH1 0x51 SSTORE PUSH1 0x0 PUSH1 0x52 SSTORE PUSH1 0x0 PUSH1 0x53 SSTORE PUSH1 0x0 PUSH1 0x55 SSTORE PUSH1 0x40 MLOAD DUP1 PUSH1 0x80 ADD PUSH1 0x40 MSTORE DUP1 PUSH1 0x40 MLOAD DUP1 PUSH1 0x80 ADD PUSH1 0x40 MSTORE DUP1 PUSH1 0x8 SLOAD PUSH2 0x3A98 MUL DUP2 MSTORE PUSH1 0x20 ADD PUSH1 0x64 DUP2 MSTORE PUSH1 0x20 ADD PUSH1 0x64 DUP2 MSTORE PUSH1 0x20 ADD PUSH1 0x1E DUP2 MSTORE POP DUP2 MSTORE PUSH1 0x20 ADD PUSH1 0x40 MLOAD DUP1 PUSH1 0x80 ADD PUSH1 0x40 MSTORE DUP1 PUSH1 0x8 SLOAD PUSH2 0x1D4C MUL DUP2 MSTORE PUSH1 0x20 ADD PUSH1 0x32 DUP2 MSTORE PUSH1 0x20 ADD PUSH1 0x32 DUP2 MSTORE PUSH1 0x20 ADD PUSH1 0x14 DUP2 MSTORE POP DUP2 MSTORE PUSH1 0x20 ADD PUSH1 0x40 MLOAD DUP1 PUSH1 0x80 ADD PUSH1 0x40 MSTORE DUP1 PUSH1 0x8 SLOAD PUSH2 0xDAC MUL DUP2 MSTORE PUSH1 0x20 ADD PUSH1 0x19 DUP2 MSTORE PUSH1 0x20 ADD PUSH1 0x19 DUP2 MSTORE PUSH1 0x20 ADD PUSH1 0xA DUP2 MSTORE POP DUP2 MSTORE PUSH1 0x20 ADD PUSH1 0x40 MLOAD DUP1 PUSH1 0x80 ADD PUSH1 0x40 MSTORE DUP1 PUSH1 0x8 SLOAD PUSH1 0x64 MUL DUP2 MSTORE PUSH1 0x20 ADD PUSH1 0x5 DUP2 MSTORE PUSH1 0x20 ADD PUSH1 0xA DUP2 MSTORE PUSH1 0x20 ADD PUSH1 0x5 DUP2 MSTORE POP DUP2 MSTORE POP PUSH1 0x57 SWAP1 PUSH1 0x4 PUSH3 0x253 SWAP3 SWAP2 SWAP1 PUSH3 0x8E2 JUMP JUMPDEST POP PUSH1 0x40 DUP1 MLOAD PUSH1 0xA DUP1 DUP3 MSTORE PUSH2 0x160 DUP3 ADD SWAP1 SWAP3 MSTORE SWAP1 PUSH1 0x20 DUP3 ADD PUSH2 0x140 DUP1 CALLDATASIZE DUP4 CALLDATACOPY POP POP DUP2 MLOAD PUSH3 0x288 SWAP3 PUSH1 0x5D SWAP3 POP PUSH1 0x20 ADD SWAP1 PUSH3 0x93C JUMP JUMPDEST POP CALLVALUE DUP1 ISZERO PUSH3 0x296 JUMPI PUSH1 0x0 DUP1 REVERT JUMPDEST POP PUSH1 0x40 MLOAD DUP1 PUSH1 0x40 ADD PUSH1 0x40 MSTORE DUP1 PUSH1 0xB DUP2 MSTORE PUSH1 0x20 ADD PUSH11 0x544C42205374616B696E67 PUSH1 0xA8 SHL DUP2 MSTORE POP PUSH1 0x40 MLOAD DUP1 PUSH1 0x40 ADD PUSH1 0x40 MSTORE DUP1 PUSH1 0x3 DUP2 MSTORE PUSH1 0x20 ADD PUSH3 0x2A2621 PUSH1 0xE9 SHL DUP2 MSTORE POP PUSH1 0x4 PUSH5 0x519577B000 PUSH1 0x0 PUSH3 0x2F1 PUSH3 0x72C PUSH1 0x20 SHL PUSH1 0x20 SHR JUMP JUMPDEST PUSH1 0x0 DUP1 SLOAD PUSH1 0x1 PUSH1 0x1 PUSH1 0xA0 SHL SUB NOT AND PUSH1 0x1 PUSH1 0x1 PUSH1 0xA0 SHL SUB DUP4 AND SWAP1 DUP2 OR DUP3 SSTORE PUSH1 0x40 MLOAD SWAP3 SWAP4 POP SWAP2 PUSH32 0x8BE0079C531659141344CD1FD0A4F28419497F9722A3DAAFE3B4186F6B6457E0 SWAP1 DUP3 SWAP1 LOG3 POP DUP4 MLOAD PUSH3 0x350 SWAP1 PUSH1 0x5 SWAP1 PUSH1 0x20 DUP8 ADD SWAP1 PUSH3 0x9A2 JUMP JUMPDEST POP DUP3 MLOAD PUSH3 0x366 SWAP1 PUSH1 0x6 SWAP1 PUSH1 0x20 DUP7 ADD SWAP1 PUSH3 0x9A2 JUMP JUMPDEST POP PUSH1 0x7 DUP1 SLOAD PUSH1 0xFF NOT AND PUSH1 0xFF SWAP4 SWAP1 SWAP4 AND SWAP3 SWAP1 SWAP3 OR SWAP1 SWAP2 SSTORE PUSH1 0x4 SSTORE POP PUSH1 0x0 SWAP1 POP PUSH1 0x64 PUSH3 0x390 PUSH3 0x730 JUMP JUMPDEST PUSH1 0x14 MUL DUP2 PUSH3 0x39B JUMPI INVALID JUMPDEST DIV SWAP1 POP PUSH3 0x3AA CALLER DUP3 PUSH3 0x736 JUMP JUMPDEST PUSH1 0x4A PUSH1 0x40 MLOAD DUP1 PUSH1 0xA0 ADD PUSH1 0x40 MSTORE DUP1 PUSH1 0x1 PUSH1 0xFF AND DUP2 MSTORE PUSH1 0x20 ADD PUSH1 0x8 SLOAD PUSH1 0xC8 MUL DUP2 MSTORE PUSH1 0x20 ADD PUSH1 0x10 PUSH1 0xFF AND DUP2 MSTORE PUSH1 0x20 ADD PUSH1 0x1 PUSH1 0xFF AND DUP2 MSTORE PUSH1 0x20 ADD PUSH2 0x898 DUP2 MSTORE POP SWAP1 DUP1 PUSH1 0x1 DUP2 SLOAD ADD DUP1 DUP3 SSTORE DUP1 SWAP2 POP POP PUSH1 0x1 SWAP1 SUB SWAP1 PUSH1 0x0 MSTORE PUSH1 0x20 PUSH1 0x0 KECCAK256 SWAP1 PUSH1 0x4 MUL ADD PUSH1 0x0 SWAP1 SWAP2 SWAP1 SWAP2 SWAP1 SWAP2 POP PUSH1 0x0 DUP3 ADD MLOAD DUP2 PUSH1 0x0 ADD PUSH1 0x0 PUSH2 0x100 EXP DUP2 SLOAD DUP2 PUSH1 0xFF MUL NOT AND SWAP1 DUP4 PUSH1 0xFF AND MUL OR SWAP1 SSTORE POP PUSH1 0x20 DUP3 ADD MLOAD DUP2 PUSH1 0x1 ADD SSTORE PUSH1 0x40 DUP3 ADD MLOAD DUP2 PUSH1 0x2 ADD PUSH1 0x0 PUSH2 0x100 EXP DUP2 SLOAD DUP2 PUSH1 0xFF MUL NOT AND SWAP1 DUP4 PUSH1 0xFF AND MUL OR SWAP1 SSTORE POP PUSH1 0x60 DUP3 ADD MLOAD DUP2 PUSH1 0x2 ADD PUSH1 0x1 PUSH2 0x100 EXP DUP2 SLOAD DUP2 PUSH1 0xFF MUL NOT AND SWAP1 DUP4 PUSH1 0xFF AND MUL OR SWAP1 SSTORE POP PUSH1 0x80 DUP3 ADD MLOAD DUP2 PUSH1 0x3 ADD SSTORE POP POP PUSH1 0x4A PUSH1 0x40 MLOAD DUP1 PUSH1 0xA0 ADD PUSH1 0x40 MSTORE DUP1 PUSH1 0x2 PUSH1 0xFF AND DUP2 MSTORE PUSH1 0x20 ADD PUSH1 0x8 SLOAD PUSH2 0x3E9 MUL DUP2 MSTORE PUSH1 0x20 ADD PUSH1 0xE PUSH1 0xFF AND DUP2 MSTORE PUSH1 0x20 ADD PUSH1 0x2 PUSH1 0xFF AND DUP2 MSTORE PUSH1 0x20 ADD PUSH2 0x834 DUP2 MSTORE POP SWAP1 DUP1 PUSH1 0x1 DUP2 SLOAD ADD DUP1 DUP3 SSTORE DUP1 SWAP2 POP POP PUSH1 0x1 SWAP1 SUB SWAP1 PUSH1 0x0 MSTORE PUSH1 0x20 PUSH1 0x0 KECCAK256 SWAP1 PUSH1 0x4 MUL ADD PUSH1 0x0 SWAP1 SWAP2 SWAP1 SWAP2 SWAP1 SWAP2 POP PUSH1 0x0 DUP3 ADD MLOAD DUP2 PUSH1 0x0 ADD PUSH1 0x0 PUSH2 0x100 EXP DUP2 SLOAD DUP2 PUSH1 0xFF MUL NOT AND SWAP1 DUP4 PUSH1 0xFF AND MUL OR SWAP1 SSTORE POP PUSH1 0x20 DUP3 ADD MLOAD DUP2 PUSH1 0x1 ADD SSTORE PUSH1 0x40 DUP3 ADD MLOAD DUP2 PUSH1 0x2 ADD PUSH1 0x0 PUSH2 0x100 EXP DUP2 SLOAD DUP2 PUSH1 0xFF MUL NOT AND SWAP1 DUP4 PUSH1 0xFF AND MUL OR SWAP1 SSTORE POP PUSH1 0x60 DUP3 ADD MLOAD DUP2 PUSH1 0x2 ADD PUSH1 0x1 PUSH2 0x100 EXP DUP2 SLOAD DUP2 PUSH1 0xFF MUL NOT AND SWAP1 DUP4 PUSH1 0xFF AND MUL OR SWAP1 SSTORE POP PUSH1 0x80 DUP3 ADD MLOAD DUP2 PUSH1 0x3 ADD SSTORE POP POP PUSH1 0x4A PUSH1 0x40 MLOAD DUP1 PUSH1 0xA0 ADD PUSH1 0x40 MSTORE DUP1 PUSH1 0x3 PUSH1 0xFF AND DUP2 MSTORE PUSH1 0x20 ADD PUSH1 0x8 SLOAD PUSH2 0x7D1 MUL DUP2 MSTORE PUSH1 0x20 ADD PUSH1 0xC PUSH1 0xFF AND DUP2 MSTORE PUSH1 0x20 ADD PUSH1 0x3 PUSH1 0xFF AND DUP2 MSTORE PUSH1 0x20 ADD PUSH2 0x7D0 DUP2 MSTORE POP SWAP1 DUP1 PUSH1 0x1 DUP2 SLOAD ADD DUP1 DUP3 SSTORE DUP1 SWAP2 POP POP PUSH1 0x1 SWAP1 SUB SWAP1 PUSH1 0x0 MSTORE PUSH1 0x20 PUSH1 0x0 KECCAK256 SWAP1 PUSH1 0x4 MUL ADD PUSH1 0x0 SWAP1 SWAP2 SWAP1 SWAP2 SWAP1 SWAP2 POP PUSH1 0x0 DUP3 ADD MLOAD DUP2 PUSH1 0x0 ADD PUSH1 0x0 PUSH2 0x100 EXP DUP2 SLOAD DUP2 PUSH1 0xFF MUL NOT AND SWAP1 DUP4 PUSH1 0xFF AND MUL OR SWAP1 SSTORE POP PUSH1 0x20 DUP3 ADD MLOAD DUP2 PUSH1 0x1 ADD SSTORE PUSH1 0x40 DUP3 ADD MLOAD DUP2 PUSH1 0x2 ADD PUSH1 0x0 PUSH2 0x100 EXP DUP2 SLOAD DUP2 PUSH1 0xFF MUL NOT AND SWAP1 DUP4 PUSH1 0xFF AND MUL OR SWAP1 SSTORE POP PUSH1 0x60 DUP3 ADD MLOAD DUP2 PUSH1 0x2 ADD PUSH1 0x1 PUSH2 0x100 EXP DUP2 SLOAD DUP2 PUSH1 0xFF MUL NOT AND SWAP1 DUP4 PUSH1 0xFF AND MUL OR SWAP1 SSTORE POP PUSH1 0x80 DUP3 ADD MLOAD DUP2 PUSH1 0x3 ADD SSTORE POP POP PUSH1 0x4A PUSH1 0x40 MLOAD DUP1 PUSH1 0xA0 ADD PUSH1 0x40 MSTORE DUP1 PUSH1 0x4 PUSH1 0xFF AND DUP2 MSTORE PUSH1 0x20 ADD PUSH1 0x8 SLOAD PUSH2 0x1389 MUL DUP2 MSTORE PUSH1 0x20 ADD PUSH1 0xA PUSH1 0xFF AND DUP2 MSTORE PUSH1 0x20 ADD PUSH1 0x4 PUSH1 0xFF AND DUP2 MSTORE PUSH1 0x20 ADD PUSH2 0x76C DUP2 MSTORE POP SWAP1 DUP1 PUSH1 0x1 DUP2 SLOAD ADD DUP1 DUP3 SSTORE DUP1 SWAP2 POP POP PUSH1 0x1 SWAP1 SUB SWAP1 PUSH1 0x0 MSTORE PUSH1 0x20 PUSH1 0x0 KECCAK256 SWAP1 PUSH1 0x4 MUL ADD PUSH1 0x0 SWAP1 SWAP2 SWAP1 SWAP2 SWAP1 SWAP2 POP PUSH1 0x0 DUP3 ADD MLOAD DUP2 PUSH1 0x0 ADD PUSH1 0x0 PUSH2 0x100 EXP DUP2 SLOAD DUP2 PUSH1 0xFF MUL NOT AND SWAP1 DUP4 PUSH1 0xFF AND MUL OR SWAP1 SSTORE POP PUSH1 0x20 DUP3 ADD MLOAD DUP2 PUSH1 0x1 ADD SSTORE PUSH1 0x40 DUP3 ADD MLOAD DUP2 PUSH1 0x2 ADD PUSH1 0x0 PUSH2 0x100 EXP DUP2 SLOAD DUP2 PUSH1 0xFF MUL NOT AND SWAP1 DUP4 PUSH1 0xFF AND MUL OR SWAP1 SSTORE POP PUSH1 0x60 DUP3 ADD MLOAD DUP2 PUSH1 0x2 ADD PUSH1 0x1 PUSH2 0x100 EXP DUP2 SLOAD DUP2 PUSH1 0xFF MUL NOT AND SWAP1 DUP4 PUSH1 0xFF AND MUL OR SWAP1 SSTORE POP PUSH1 0x80 DUP3 ADD MLOAD DUP2 PUSH1 0x3 ADD SSTORE POP POP POP PUSH3 0xC94 JUMP JUMPDEST CALLER SWAP1 JUMP JUMPDEST PUSH1 0x4 SLOAD SWAP1 JUMP JUMPDEST PUSH1 0x1 PUSH1 0x1 PUSH1 0xA0 SHL SUB DUP3 AND PUSH3 0x768 JUMPI PUSH1 0x40 MLOAD PUSH3 0x461BCD PUSH1 0xE5 SHL DUP2 MSTORE PUSH1 0x4 ADD PUSH3 0x75F SWAP1 PUSH3 0xC1F JUMP JUMPDEST PUSH1 0x40 MLOAD DUP1 SWAP2 SUB SWAP1 REVERT JUMPDEST PUSH1 0x4 SLOAD PUSH3 0x787 DUP3 PUSH1 0x3 SLOAD PUSH3 0x855 PUSH1 0x20 SHL PUSH3 0x2058 OR SWAP1 SWAP2 SWAP1 PUSH1 0x20 SHR JUMP JUMPDEST LT PUSH3 0x7A7 JUMPI PUSH1 0x40 MLOAD PUSH3 0x461BCD PUSH1 0xE5 SHL DUP2 MSTORE PUSH1 0x4 ADD PUSH3 0x75F SWAP1 PUSH3 0xC56 JUMP JUMPDEST PUSH3 0x7C3 DUP2 PUSH1 0x3 SLOAD PUSH3 0x855 PUSH1 0x20 SHL PUSH3 0x2058 OR SWAP1 SWAP2 SWAP1 PUSH1 0x20 SHR JUMP JUMPDEST PUSH1 0x3 SSTORE PUSH1 0x1 PUSH1 0x1 PUSH1 0xA0 SHL SUB DUP3 AND PUSH1 0x0 SWAP1 DUP2 MSTORE PUSH1 0x1 PUSH1 0x20 SWAP1 DUP2 MSTORE PUSH1 0x40 SWAP1 SWAP2 KECCAK256 SLOAD PUSH3 0x7F8 SWAP2 DUP4 SWAP1 PUSH3 0x2058 PUSH3 0x855 DUP3 SHL OR SWAP1 SHR JUMP JUMPDEST PUSH1 0x1 PUSH1 0x1 PUSH1 0xA0 SHL SUB DUP4 AND PUSH1 0x0 DUP2 DUP2 MSTORE PUSH1 0x1 PUSH1 0x20 MSTORE PUSH1 0x40 DUP1 DUP3 KECCAK256 SWAP4 SWAP1 SWAP4 SSTORE SWAP2 MLOAD SWAP1 SWAP2 SWAP1 PUSH32 0xDDF252AD1BE2C89B69C2B068FC378DAA952BA7F163C4A11628F55A4DF523B3EF SWAP1 PUSH3 0x849 SWAP1 DUP6 SWAP1 PUSH3 0xC8B JUMP JUMPDEST PUSH1 0x40 MLOAD DUP1 SWAP2 SUB SWAP1 LOG3 POP POP JUMP JUMPDEST PUSH1 0x0 DUP3 DUP3 ADD DUP4 DUP2 LT ISZERO PUSH3 0x87D JUMPI PUSH1 0x40 MLOAD PUSH3 0x461BCD PUSH1 0xE5 SHL DUP2 MSTORE PUSH1 0x4 ADD PUSH3 0x75F SWAP1 PUSH3 0xBE8 JUMP JUMPDEST SWAP4 SWAP3 POP POP POP JUMP JUMPDEST DUP3 DUP1 SLOAD DUP3 DUP3 SSTORE SWAP1 PUSH1 0x0 MSTORE PUSH1 0x20 PUSH1 0x0 KECCAK256 SWAP1 DUP2 ADD SWAP3 DUP3 ISZERO PUSH3 0x8D0 JUMPI SWAP2 PUSH1 0x20 MUL DUP3 ADD JUMPDEST DUP3 DUP2 GT ISZERO PUSH3 0x8D0 JUMPI DUP3 MLOAD PUSH3 0x8BF SWAP1 DUP4 SWAP1 PUSH1 0x3 PUSH3 0xA23 JUMP JUMPDEST POP SWAP2 PUSH1 0x20 ADD SWAP2 SWAP1 PUSH1 0x1 ADD SWAP1 PUSH3 0x8A5 JUMP JUMPDEST POP PUSH3 0x8DE SWAP3 SWAP2 POP PUSH3 0xACC JUMP JUMPDEST POP SWAP1 JUMP JUMPDEST DUP3 DUP1 SLOAD DUP3 DUP3 SSTORE SWAP1 PUSH1 0x0 MSTORE PUSH1 0x20 PUSH1 0x0 KECCAK256 SWAP1 DUP2 ADD SWAP3 DUP3 ISZERO PUSH3 0x92E JUMPI SWAP2 PUSH1 0x20 MUL DUP3 ADD JUMPDEST DUP3 DUP2 GT ISZERO PUSH3 0x92E JUMPI DUP3 MLOAD PUSH3 0x91D SWAP1 DUP4 SWAP1 PUSH1 0x4 PUSH3 0xAED JUMP JUMPDEST POP SWAP2 PUSH1 0x20 ADD SWAP2 SWAP1 PUSH1 0x1 ADD SWAP1 PUSH3 0x903 JUMP JUMPDEST POP PUSH3 0x8DE SWAP3 SWAP2 POP PUSH3 0xB2A JUMP JUMPDEST DUP3 DUP1 SLOAD DUP3 DUP3 SSTORE SWAP1 PUSH1 0x0 MSTORE PUSH1 0x20 PUSH1 0x0 KECCAK256 SWAP1 DUP2 ADD SWAP3 DUP3 ISZERO PUSH3 0x994 JUMPI SWAP2 PUSH1 0x20 MUL DUP3 ADD JUMPDEST DUP3 DUP2 GT ISZERO PUSH3 0x994 JUMPI DUP3 MLOAD DUP3 SLOAD PUSH1 0x1 PUSH1 0x1 PUSH1 0xA0 SHL SUB NOT AND PUSH1 0x1 PUSH1 0x1 PUSH1 0xA0 SHL SUB SWAP1 SWAP2 AND OR DUP3 SSTORE PUSH1 0x20 SWAP1 SWAP3 ADD SWAP2 PUSH1 0x1 SWAP1 SWAP2 ADD SWAP1 PUSH3 0x95D JUMP JUMPDEST POP PUSH3 0x8DE SWAP3 SWAP2 POP PUSH3 0xB4B JUMP JUMPDEST DUP3 DUP1 SLOAD PUSH1 0x1 DUP2 PUSH1 0x1 AND ISZERO PUSH2 0x100 MUL SUB AND PUSH1 0x2 SWAP1 DIV SWAP1 PUSH1 0x0 MSTORE PUSH1 0x20 PUSH1 0x0 KECCAK256 SWAP1 PUSH1 0x1F ADD PUSH1 0x20 SWAP1 DIV DUP2 ADD SWAP3 DUP3 PUSH1 0x1F LT PUSH3 0x9E5 JUMPI DUP1 MLOAD PUSH1 0xFF NOT AND DUP4 DUP1 ADD OR DUP6 SSTORE PUSH3 0xA15 JUMP JUMPDEST DUP3 DUP1 ADD PUSH1 0x1 ADD DUP6 SSTORE DUP3 ISZERO PUSH3 0xA15 JUMPI SWAP2 DUP3 ADD JUMPDEST DUP3 DUP2 GT ISZERO PUSH3 0xA15 JUMPI DUP3 MLOAD DUP3 SSTORE SWAP2 PUSH1 0x20 ADD SWAP2 SWAP1 PUSH1 0x1 ADD SWAP1 PUSH3 0x9F8 JUMP JUMPDEST POP PUSH3 0x8DE SWAP3 SWAP2 POP PUSH3 0xB6C JUMP JUMPDEST DUP3 DUP1 SLOAD DUP3 DUP3 SSTORE SWAP1 PUSH1 0x0 MSTORE PUSH1 0x20 PUSH1 0x0 KECCAK256 SWAP1 PUSH1 0x1F ADD PUSH1 0x20 SWAP1 DIV DUP2 ADD SWAP3 DUP3 ISZERO PUSH3 0xABE JUMPI SWAP2 PUSH1 0x20 MUL DUP3 ADD PUSH1 0x0 JUMPDEST DUP4 DUP3 GT ISZERO PUSH3 0xA8D JUMPI DUP4 MLOAD DUP4 DUP3 PUSH2 0x100 EXP DUP2 SLOAD DUP2 PUSH1 0xFF MUL NOT AND SWAP1 DUP4 PUSH1 0xFF AND MUL OR SWAP1 SSTORE POP SWAP3 PUSH1 0x20 ADD SWAP3 PUSH1 0x1 ADD PUSH1 0x20 DUP2 PUSH1 0x0 ADD DIV SWAP3 DUP4 ADD SWAP3 PUSH1 0x1 SUB MUL PUSH3 0xA4D JUMP JUMPDEST DUP1 ISZERO PUSH3 0xABC JUMPI DUP3 DUP2 PUSH2 0x100 EXP DUP2 SLOAD SWAP1 PUSH1 0xFF MUL NOT AND SWAP1 SSTORE PUSH1 0x1 ADD PUSH1 0x20 DUP2 PUSH1 0x0 ADD DIV SWAP3 DUP4 ADD SWAP3 PUSH1 0x1 SUB MUL PUSH3 0xA8D JUMP JUMPDEST POP JUMPDEST POP PUSH3 0x8DE SWAP3 SWAP2 POP PUSH3 0xB83 JUMP JUMPDEST DUP1 DUP3 GT ISZERO PUSH3 0x8DE JUMPI PUSH1 0x0 PUSH3 0xAE3 DUP3 DUP3 PUSH3 0xB9E JUMP JUMPDEST POP PUSH1 0x1 ADD PUSH3 0xACC JUMP JUMPDEST DUP3 DUP1 SLOAD DUP3 DUP3 SSTORE SWAP1 PUSH1 0x0 MSTORE PUSH1 0x20 PUSH1 0x0 KECCAK256 SWAP1 DUP2 ADD SWAP3 DUP3 ISZERO PUSH3 0xA15 JUMPI SWAP2 PUSH1 0x20 MUL DUP3 ADD DUP3 DUP2 GT ISZERO PUSH3 0xA15 JUMPI DUP3 MLOAD DUP3 SSTORE SWAP2 PUSH1 0x20 ADD SWAP2 SWAP1 PUSH1 0x1 ADD SWAP1 PUSH3 0x9F8 JUMP JUMPDEST DUP1 DUP3 GT ISZERO PUSH3 0x8DE JUMPI PUSH1 0x0 PUSH3 0xB41 DUP3 DUP3 PUSH3 0xBC8 JUMP JUMPDEST POP PUSH1 0x1 ADD PUSH3 0xB2A JUMP JUMPDEST JUMPDEST DUP1 DUP3 GT ISZERO PUSH3 0x8DE JUMPI DUP1 SLOAD PUSH1 0x1 PUSH1 0x1 PUSH1 0xA0 SHL SUB NOT AND DUP2 SSTORE PUSH1 0x1 ADD PUSH3 0xB4C JUMP JUMPDEST JUMPDEST DUP1 DUP3 GT ISZERO PUSH3 0x8DE JUMPI PUSH1 0x0 DUP2 SSTORE PUSH1 0x1 ADD PUSH3 0xB6D JUMP JUMPDEST JUMPDEST DUP1 DUP3 GT ISZERO PUSH3 0x8DE JUMPI DUP1 SLOAD PUSH1 0xFF NOT AND DUP2 SSTORE PUSH1 0x1 ADD PUSH3 0xB84 JUMP JUMPDEST POP DUP1 SLOAD PUSH1 0x0 DUP3 SSTORE PUSH1 0x1F ADD PUSH1 0x20 SWAP1 DIV SWAP1 PUSH1 0x0 MSTORE PUSH1 0x20 PUSH1 0x0 KECCAK256 SWAP1 DUP2 ADD SWAP1 PUSH3 0xBC5 SWAP2 SWAP1 PUSH3 0xB6C JUMP JUMPDEST POP JUMP JUMPDEST POP DUP1 SLOAD PUSH1 0x0 DUP3 SSTORE SWAP1 PUSH1 0x0 MSTORE PUSH1 0x20 PUSH1 0x0 KECCAK256 SWAP1 DUP2 ADD SWAP1 PUSH3 0xBC5 SWAP2 SWAP1 PUSH3 0xB6C JUMP JUMPDEST PUSH1 0x20 DUP1 DUP3 MSTORE PUSH1 0x1B SWAP1 DUP3 ADD MSTORE PUSH32 0x536166654D6174683A206164646974696F6E206F766572666C6F770000000000 PUSH1 0x40 DUP3 ADD MSTORE PUSH1 0x60 ADD SWAP1 JUMP JUMPDEST PUSH1 0x20 DUP1 DUP3 MSTORE PUSH1 0x1F SWAP1 DUP3 ADD MSTORE PUSH32 0x48524332303A206D696E7420746F20746865207A65726F206164647265737300 PUSH1 0x40 DUP3 ADD MSTORE PUSH1 0x60 ADD SWAP1 JUMP JUMPDEST PUSH1 0x20 DUP1 DUP3 MSTORE DUP2 DUP2 ADD MSTORE PUSH32 0x48524332303A20616C72656164792072656163686564206D6178537570706C79 PUSH1 0x40 DUP3 ADD MSTORE PUSH1 0x60 ADD SWAP1 JUMP JUMPDEST SWAP1 DUP2 MSTORE PUSH1 0x20 ADD SWAP1 JUMP JUMPDEST PUSH2 0x503C DUP1 PUSH3 0xCA4 PUSH1 0x0 CODECOPY PUSH1 0x0 RETURN INVALID PUSH1 0x80 PUSH1 0x40 MSTORE CALLVALUE DUP1 ISZERO PUSH2 0x10 JUMPI PUSH1 0x0 DUP1 REVERT JUMPDEST POP PUSH1 0x4 CALLDATASIZE LT PUSH2 0x2A0 JUMPI PUSH1 0x0 CALLDATALOAD PUSH1 0xE0 SHR DUP1 PUSH4 0x893D20E8 GT PUSH2 0x167 JUMPI DUP1 PUSH4 0xCC85F080 GT PUSH2 0xCE JUMPI DUP1 PUSH4 0xED73EE25 GT PUSH2 0x87 JUMPI DUP1 PUSH4 0xED73EE25 EQ PUSH2 0x597 JUMPI DUP1 PUSH4 0xF2218F56 EQ PUSH2 0x59F JUMPI DUP1 PUSH4 0xF2FDE38B EQ PUSH2 0x5B2 JUMPI DUP1 PUSH4 0xF656F562 EQ PUSH2 0x5C5 JUMPI DUP1 PUSH4 0xF697DDB2 EQ PUSH2 0x5D8 JUMPI DUP1 PUSH4 0xFD125ECE EQ PUSH2 0x5E0 JUMPI PUSH2 0x2A0 JUMP JUMPDEST DUP1 PUSH4 0xCC85F080 EQ PUSH2 0x51B JUMPI DUP1 PUSH4 0xD5ABEB01 EQ PUSH2 0x53F JUMPI DUP1 PUSH4 0xD96A094A EQ PUSH2 0x547 JUMPI DUP1 PUSH4 0xDD62ED3E EQ PUSH2 0x55A JUMPI DUP1 PUSH4 0xE4849B32 EQ PUSH2 0x56D JUMPI DUP1 PUSH4 0xE87F2CCE EQ PUSH2 0x580 JUMPI PUSH2 0x2A0 JUMP JUMPDEST DUP1 PUSH4 0xA0712D68 GT PUSH2 0x120 JUMPI DUP1 PUSH4 0xA0712D68 EQ PUSH2 0x49C JUMPI DUP1 PUSH4 0xA457C2D7 EQ PUSH2 0x4AF JUMPI DUP1 PUSH4 0xA7310B58 EQ PUSH2 0x4C2 JUMPI DUP1 PUSH4 0xA9059CBB EQ PUSH2 0x4E2 JUMPI DUP1 PUSH4 0xBDC42A7A EQ PUSH2 0x4F5 JUMPI DUP1 PUSH4 0xC7111063 EQ PUSH2 0x508 JUMPI PUSH2 0x2A0 JUMP JUMPDEST DUP1 PUSH4 0x893D20E8 EQ PUSH2 0x43E JUMPI DUP1 PUSH4 0x8A43BB01 EQ PUSH2 0x453 JUMPI DUP1 PUSH4 0x8DA5CB5B EQ PUSH2 0x466 JUMPI DUP1 PUSH4 0x95D89B41 EQ PUSH2 0x46E JUMPI DUP1 PUSH4 0x99EB9576 EQ PUSH2 0x476 JUMPI DUP1 PUSH4 0x9BF00117 EQ PUSH2 0x489 JUMPI PUSH2 0x2A0 JUMP JUMPDEST DUP1 PUSH4 0x36FDDE7C GT PUSH2 0x20B JUMPI DUP1 PUSH4 0x47E7EF24 GT PUSH2 0x1C4 JUMPI DUP1 PUSH4 0x47E7EF24 EQ PUSH2 0x3DD JUMPI DUP1 PUSH4 0x5DA4C926 EQ PUSH2 0x3F0 JUMPI DUP1 PUSH4 0x5EE4462C EQ PUSH2 0x403 JUMPI DUP1 PUSH4 0x6CB44428 EQ PUSH2 0x40B JUMPI DUP1 PUSH4 0x70A08231 EQ PUSH2 0x423 JUMPI DUP1 PUSH4 0x715018A6 EQ PUSH2 0x436 JUMPI PUSH2 0x2A0 JUMP JUMPDEST DUP1 PUSH4 0x36FDDE7C EQ PUSH2 0x397 JUMPI DUP1 PUSH4 0x39509351 EQ PUSH2 0x39F JUMPI DUP1 PUSH4 0x39B50688 EQ PUSH2 0x3B2 JUMPI DUP1 PUSH4 0x3CCFD60B EQ PUSH2 0x3BA JUMPI DUP1 PUSH4 0x3EAAF86B EQ PUSH2 0x3C2 JUMPI DUP1 PUSH4 0x440565AF EQ PUSH2 0x3CA JUMPI PUSH2 0x2A0 JUMP JUMPDEST DUP1 PUSH4 0x1E71615B GT PUSH2 0x25D JUMPI DUP1 PUSH4 0x1E71615B EQ PUSH2 0x340 JUMPI DUP1 PUSH4 0x22F4596F EQ PUSH2 0x355 JUMPI DUP1 PUSH4 0x23B872DD EQ PUSH2 0x35D JUMPI DUP1 PUSH4 0x26621F9E EQ PUSH2 0x370 JUMPI DUP1 PUSH4 0x26C0E5C5 EQ PUSH2 0x37A JUMPI DUP1 PUSH4 0x313CE567 EQ PUSH2 0x382 JUMPI PUSH2 0x2A0 JUMP JUMPDEST DUP1 PUSH4 0x6FDDE03 EQ PUSH2 0x2A5 JUMPI DUP1 PUSH4 0x95EA7B3 EQ PUSH2 0x2C3 JUMPI DUP1 PUSH4 0xE25A441 EQ PUSH2 0x2E3 JUMPI DUP1 PUSH4 0x15C43AAF EQ PUSH2 0x303 JUMPI DUP1 PUSH4 0x1701A82A EQ PUSH2 0x318 JUMPI DUP1 PUSH4 0x18160DDD EQ PUSH2 0x338 JUMPI JUMPDEST PUSH1 0x0 DUP1 REVERT JUMPDEST PUSH2 0x2AD PUSH2 0x602 JUMP JUMPDEST PUSH1 0x40 MLOAD PUSH2 0x2BA SWAP2 SWAP1 PUSH2 0x4894 JUMP JUMPDEST PUSH1 0x40 MLOAD DUP1 SWAP2 SUB SWAP1 RETURN JUMPDEST PUSH2 0x2D6 PUSH2 0x2D1 CALLDATASIZE PUSH1 0x4 PUSH2 0x45BC JUMP JUMPDEST PUSH2 0x698 JUMP JUMPDEST PUSH1 0x40 MLOAD PUSH2 0x2BA SWAP2 SWAP1 PUSH2 0x4864 JUMP JUMPDEST PUSH2 0x2F6 PUSH2 0x2F1 CALLDATASIZE PUSH1 0x4 PUSH2 0x445D JUMP JUMPDEST PUSH2 0x6B6 JUMP JUMPDEST PUSH1 0x40 MLOAD PUSH2 0x2BA SWAP2 SWAP1 PUSH2 0x4ECB JUMP JUMPDEST PUSH2 0x30B PUSH2 0x75F JUMP JUMPDEST PUSH1 0x40 MLOAD PUSH2 0x2BA SWAP2 SWAP1 PUSH2 0x4812 JUMP JUMPDEST PUSH2 0x32B PUSH2 0x326 CALLDATASIZE PUSH1 0x4 PUSH2 0x445D JUMP JUMPDEST PUSH2 0x7FE JUMP JUMPDEST PUSH1 0x40 MLOAD PUSH2 0x2BA SWAP2 SWAP1 PUSH2 0x47E0 JUMP JUMPDEST PUSH2 0x2F6 PUSH2 0x973 JUMP JUMPDEST PUSH2 0x348 PUSH2 0x979 JUMP JUMPDEST PUSH1 0x40 MLOAD PUSH2 0x2BA SWAP2 SWAP1 PUSH2 0x4778 JUMP JUMPDEST PUSH2 0x2F6 PUSH2 0xB34 JUMP JUMPDEST PUSH2 0x2D6 PUSH2 0x36B CALLDATASIZE PUSH1 0x4 PUSH2 0x457C JUMP JUMPDEST PUSH2 0xB3A JUMP JUMPDEST PUSH2 0x378 PUSH2 0xBC1 JUMP JUMPDEST STOP JUMPDEST PUSH2 0x378 PUSH2 0xC48 JUMP JUMPDEST PUSH2 0x38A PUSH2 0xD14 JUMP JUMPDEST PUSH1 0x40 MLOAD PUSH2 0x2BA SWAP2 SWAP1 PUSH2 0x4F22 JUMP JUMPDEST PUSH2 0x378 PUSH2 0xD1D JUMP JUMPDEST PUSH2 0x2D6 PUSH2 0x3AD CALLDATASIZE PUSH1 0x4 PUSH2 0x45BC JUMP JUMPDEST PUSH2 0xDE5 JUMP JUMPDEST PUSH2 0x378 PUSH2 0xE33 JUMP JUMPDEST PUSH2 0x378 PUSH2 0xEF1 JUMP JUMPDEST PUSH2 0x2F6 PUSH2 0x12BC JUMP JUMPDEST PUSH2 0x378 PUSH2 0x3D8 CALLDATASIZE PUSH1 0x4 PUSH2 0x457C JUMP JUMPDEST PUSH2 0x12C2 JUMP JUMPDEST PUSH2 0x378 PUSH2 0x3EB CALLDATASIZE PUSH1 0x4 PUSH2 0x45BC JUMP JUMPDEST PUSH2 0x12D6 JUMP JUMPDEST PUSH2 0x378 PUSH2 0x3FE CALLDATASIZE PUSH1 0x4 PUSH2 0x45BC JUMP JUMPDEST PUSH2 0x133A JUMP JUMPDEST PUSH2 0x378 PUSH2 0x1344 JUMP JUMPDEST PUSH2 0x413 PUSH2 0x13F6 JUMP JUMPDEST PUSH1 0x40 MLOAD PUSH2 0x2BA SWAP5 SWAP4 SWAP3 SWAP2 SWAP1 PUSH2 0x4F07 JUMP JUMPDEST PUSH2 0x2F6 PUSH2 0x431 CALLDATASIZE PUSH1 0x4 PUSH2 0x445D JUMP JUMPDEST PUSH2 0x1457 JUMP JUMPDEST PUSH2 0x378 PUSH2 0x1472 JUMP JUMPDEST PUSH2 0x446 PUSH2 0x14F1 JUMP JUMPDEST PUSH1 0x40 MLOAD PUSH2 0x2BA SWAP2 SWAP1 PUSH2 0x46C5 JUMP JUMPDEST PUSH2 0x378 PUSH2 0x461 CALLDATASIZE PUSH1 0x4 PUSH2 0x45BC JUMP JUMPDEST PUSH2 0x1500 JUMP JUMPDEST PUSH2 0x446 PUSH2 0x156F JUMP JUMPDEST PUSH2 0x2AD PUSH2 0x157E JUMP JUMPDEST PUSH2 0x2F6 PUSH2 0x484 CALLDATASIZE PUSH1 0x4 PUSH2 0x4607 JUMP JUMPDEST PUSH2 0x15DF JUMP JUMPDEST PUSH2 0x378 PUSH2 0x497 CALLDATASIZE PUSH1 0x4 PUSH2 0x457C JUMP JUMPDEST PUSH2 0x15FA JUMP JUMPDEST PUSH2 0x2D6 PUSH2 0x4AA CALLDATASIZE PUSH1 0x4 PUSH2 0x4607 JUMP JUMPDEST PUSH2 0x1605 JUMP JUMPDEST PUSH2 0x2D6 PUSH2 0x4BD CALLDATASIZE PUSH1 0x4 PUSH2 0x45BC JUMP JUMPDEST PUSH2 0x1655 JUMP JUMPDEST PUSH2 0x4D5 PUSH2 0x4D0 CALLDATASIZE PUSH1 0x4 PUSH2 0x445D JUMP JUMPDEST PUSH2 0x16BD JUMP JUMPDEST PUSH1 0x40 MLOAD PUSH2 0x2BA SWAP2 SWAP1 PUSH2 0x483B JUMP JUMPDEST PUSH2 0x2D6 PUSH2 0x4F0 CALLDATASIZE PUSH1 0x4 PUSH2 0x45BC JUMP JUMPDEST PUSH2 0x183C JUMP JUMPDEST PUSH2 0x2F6 PUSH2 0x503 CALLDATASIZE PUSH1 0x4 PUSH2 0x4607 JUMP JUMPDEST PUSH2 0x1850 JUMP JUMPDEST PUSH2 0x378 PUSH2 0x516 CALLDATASIZE PUSH1 0x4 PUSH2 0x457C JUMP JUMPDEST PUSH2 0x185B JUMP JUMPDEST PUSH2 0x52E PUSH2 0x529 CALLDATASIZE PUSH1 0x4 PUSH2 0x445D JUMP JUMPDEST PUSH2 0x1867 JUMP JUMPDEST PUSH1 0x40 MLOAD PUSH2 0x2BA SWAP6 SWAP5 SWAP4 SWAP3 SWAP2 SWAP1 PUSH2 0x486F JUMP JUMPDEST PUSH2 0x2F6 PUSH2 0x1BF1 JUMP JUMPDEST PUSH2 0x378 PUSH2 0x555 CALLDATASIZE PUSH1 0x4 PUSH2 0x4607 JUMP JUMPDEST PUSH2 0x1BF7 JUMP JUMPDEST PUSH2 0x2F6 PUSH2 0x568 CALLDATASIZE PUSH1 0x4 PUSH2 0x4479 JUMP JUMPDEST PUSH2 0x1C33 JUMP JUMPDEST PUSH2 0x378 PUSH2 0x57B CALLDATASIZE PUSH1 0x4 PUSH2 0x4607 JUMP JUMPDEST PUSH2 0x1C5E JUMP JUMPDEST PUSH2 0x588 PUSH2 0x1C9A JUMP JUMPDEST PUSH1 0x40 MLOAD PUSH2 0x2BA SWAP4 SWAP3 SWAP2 SWAP1 PUSH2 0x4735 JUMP JUMPDEST PUSH2 0x378 PUSH2 0x1E45 JUMP JUMPDEST PUSH2 0x378 PUSH2 0x5AD CALLDATASIZE PUSH1 0x4 PUSH2 0x44B1 JUMP JUMPDEST PUSH2 0x1E83 JUMP JUMPDEST PUSH2 0x378 PUSH2 0x5C0 CALLDATASIZE PUSH1 0x4 PUSH2 0x445D JUMP JUMPDEST PUSH2 0x1F02 JUMP JUMPDEST PUSH2 0x378 PUSH2 0x5D3 CALLDATASIZE PUSH1 0x4 PUSH2 0x450C JUMP JUMPDEST PUSH2 0x1F40 JUMP JUMPDEST PUSH2 0x446 PUSH2 0x1FA9 JUMP JUMPDEST PUSH2 0x5F3 PUSH2 0x5EE CALLDATASIZE PUSH1 0x4 PUSH2 0x445D JUMP JUMPDEST PUSH2 0x1FB8 JUMP JUMPDEST PUSH1 0x40 MLOAD PUSH2 0x2BA SWAP4 SWAP3 SWAP2 SWAP1 PUSH2 0x4ED4 JUMP JUMPDEST PUSH1 0x5 DUP1 SLOAD PUSH1 0x40 DUP1 MLOAD PUSH1 0x20 PUSH1 0x1F PUSH1 0x2 PUSH1 0x0 NOT PUSH2 0x100 PUSH1 0x1 DUP9 AND ISZERO MUL ADD SWAP1 SWAP6 AND SWAP5 SWAP1 SWAP5 DIV SWAP4 DUP5 ADD DUP2 SWAP1 DIV DUP2 MUL DUP3 ADD DUP2 ADD SWAP1 SWAP3 MSTORE DUP3 DUP2 MSTORE PUSH1 0x60 SWAP4 SWAP1 SWAP3 SWAP1 SWAP2 DUP4 ADD DUP3 DUP3 DUP1 ISZERO PUSH2 0x68E JUMPI DUP1 PUSH1 0x1F LT PUSH2 0x663 JUMPI PUSH2 0x100 DUP1 DUP4 SLOAD DIV MUL DUP4 MSTORE SWAP2 PUSH1 0x20 ADD SWAP2 PUSH2 0x68E JUMP JUMPDEST DUP3 ADD SWAP2 SWAP1 PUSH1 0x0 MSTORE PUSH1 0x20 PUSH1 0x0 KECCAK256 SWAP1 JUMPDEST DUP2 SLOAD DUP2 MSTORE SWAP1 PUSH1 0x1 ADD SWAP1 PUSH1 0x20 ADD DUP1 DUP4 GT PUSH2 0x671 JUMPI DUP3 SWAP1 SUB PUSH1 0x1F AND DUP3 ADD SWAP2 JUMPDEST POP POP POP POP POP SWAP1 POP SWAP1 JUMP JUMPDEST PUSH1 0x0 PUSH2 0x6AC PUSH2 0x6A5 PUSH2 0x2084 JUMP JUMPDEST DUP5 DUP5 PUSH2 0x2088 JUMP JUMPDEST POP PUSH1 0x1 JUMPDEST SWAP3 SWAP2 POP POP JUMP JUMPDEST PUSH1 0xE SLOAD PUSH1 0x0 SWAP1 PUSH1 0x1 PUSH1 0x1 PUSH1 0xA0 SHL SUB DUP4 DUP2 AND SWAP2 AND EQ DUP1 PUSH2 0x6E2 JUMPI POP PUSH1 0x12 SLOAD PUSH1 0x1 PUSH1 0x1 PUSH1 0xA0 SHL SUB DUP4 DUP2 AND SWAP2 AND EQ JUMPDEST DUP1 PUSH2 0x6FA JUMPI POP PUSH1 0xA SLOAD PUSH1 0x1 PUSH1 0x1 PUSH1 0xA0 SHL SUB DUP4 DUP2 AND SWAP2 AND EQ JUMPDEST ISZERO PUSH2 0x707 JUMPI POP PUSH1 0x0 PUSH2 0x75A JUMP JUMPDEST PUSH2 0x70F PUSH2 0xD14 JUMP JUMPDEST PUSH1 0x1 PUSH1 0x1 PUSH1 0xA0 SHL SUB DUP4 AND PUSH1 0x0 SWAP1 DUP2 MSTORE PUSH1 0x49 PUSH1 0x20 MSTORE PUSH1 0x40 SWAP1 KECCAK256 PUSH1 0x1 ADD SLOAD PUSH1 0xFF SWAP2 SWAP1 SWAP2 AND PUSH1 0xA EXP SWAP1 PUSH2 0x3E9 PUSH1 0x1 PUSH1 0x20 SHL SWAP1 SWAP2 DIV PUSH2 0xFFFF AND LT PUSH2 0x750 JUMPI PUSH1 0x2 PUSH2 0x753 JUMP JUMPDEST PUSH1 0x5 JUMPDEST PUSH1 0xFF AND MUL SWAP1 POP JUMPDEST SWAP2 SWAP1 POP JUMP JUMPDEST PUSH2 0x767 PUSH2 0x43C1 JUMP JUMPDEST PUSH1 0x40 MLOAD DUP1 PUSH2 0x1A0 ADD PUSH1 0x40 MSTORE DUP1 PUSH1 0x17 SLOAD DUP2 MSTORE PUSH1 0x20 ADD PUSH1 0x1C SLOAD DUP2 MSTORE PUSH1 0x20 ADD PUSH1 0x50 SLOAD DUP2 MSTORE PUSH1 0x20 ADD PUSH1 0x3 SLOAD DUP2 MSTORE PUSH1 0x20 ADD PUSH1 0x19 SLOAD DUP2 MSTORE PUSH1 0x20 ADD PUSH1 0x1D SLOAD DUP2 MSTORE PUSH1 0x20 ADD PUSH2 0x7AB PUSH2 0x213C JUMP JUMPDEST DUP2 MSTORE PUSH1 0x20 ADD PUSH1 0x5B SLOAD DUP2 MSTORE PUSH1 0x20 ADD PUSH1 0x5A SLOAD DUP2 MSTORE PUSH1 0x20 ADD PUSH2 0x7CA PUSH1 0x0 PUSH2 0x2159 JUMP JUMPDEST DUP2 MSTORE PUSH1 0x20 ADD PUSH2 0x7D9 PUSH1 0x1 PUSH2 0x2159 JUMP JUMPDEST DUP2 MSTORE PUSH1 0x20 ADD PUSH2 0x7E8 PUSH1 0x2 PUSH2 0x2159 JUMP JUMPDEST DUP2 MSTORE PUSH1 0x20 ADD PUSH2 0x7F7 PUSH1 0x3 PUSH2 0x2159 JUMP JUMPDEST SWAP1 MSTORE SWAP1 POP SWAP1 JUMP JUMPDEST PUSH2 0x806 PUSH2 0x43E0 JUMP JUMPDEST PUSH1 0x1 PUSH1 0x1 PUSH1 0xA0 SHL SUB DUP3 AND PUSH1 0x0 SWAP1 DUP2 MSTORE PUSH1 0x59 PUSH1 0x20 MSTORE PUSH1 0x40 DUP2 KECCAK256 DUP1 SLOAD SWAP1 SWAP2 SWAP1 DUP2 DUP1 JUMPDEST DUP5 SLOAD DUP2 LT ISZERO PUSH2 0x874 JUMPI PUSH1 0x58 PUSH1 0x0 DUP7 DUP4 DUP2 SLOAD DUP2 LT PUSH2 0x83F JUMPI INVALID JUMPDEST PUSH1 0x0 SWAP2 DUP3 MSTORE PUSH1 0x20 DUP1 DUP4 KECCAK256 SWAP1 SWAP2 ADD SLOAD PUSH1 0x1 PUSH1 0x1 PUSH1 0xA0 SHL SUB AND DUP4 MSTORE DUP3 ADD SWAP3 SWAP1 SWAP3 MSTORE PUSH1 0x40 ADD SWAP1 KECCAK256 PUSH1 0x2 ADD SLOAD SWAP4 SWAP1 SWAP4 ADD SWAP3 PUSH1 0x1 ADD PUSH2 0x826 JUMP JUMPDEST POP PUSH1 0x1 PUSH1 0x1 PUSH1 0xA0 SHL SUB DUP7 AND PUSH1 0x0 SWAP1 DUP2 MSTORE PUSH1 0x58 PUSH1 0x20 MSTORE PUSH1 0x40 SWAP1 KECCAK256 PUSH1 0x3 DUP2 ADD SLOAD ISZERO PUSH2 0x8C5 JUMPI DUP1 SLOAD PUSH2 0x8C0 JUMPI PUSH2 0x2580 DUP2 PUSH1 0x3 ADD SLOAD NUMBER SUB LT PUSH2 0x8B3 JUMPI PUSH1 0x0 PUSH2 0x8B6 JUMP JUMPDEST PUSH1 0x1 JUMPDEST PUSH1 0xFF AND SWAP2 POP PUSH2 0x8C5 JUMP JUMPDEST PUSH1 0x1 SWAP2 POP JUMPDEST PUSH1 0x0 DUP1 PUSH2 0x8D1 DUP10 PUSH2 0x21FE JUMP JUMPDEST SWAP2 POP SWAP2 POP PUSH1 0x0 PUSH1 0x5A SLOAD PUSH1 0x0 EQ ISZERO PUSH2 0x8E9 JUMPI PUSH1 0x0 PUSH2 0x906 JUMP JUMPDEST PUSH1 0x5A SLOAD PUSH2 0x7080 MUL PUSH1 0x9 SLOAD DUP6 PUSH1 0x2 ADD SLOAD PUSH2 0xBB80 MUL MUL DUP2 PUSH2 0x904 JUMPI INVALID JUMPDEST DIV JUMPDEST PUSH1 0x40 DUP1 MLOAD PUSH2 0x160 DUP2 ADD DUP3 MSTORE PUSH1 0x2 DUP8 ADD SLOAD DUP2 MSTORE PUSH1 0x20 DUP2 ADD SWAP3 SWAP1 SWAP3 MSTORE DUP6 SLOAD SWAP1 DUP3 ADD MSTORE PUSH1 0x60 DUP2 ADD SWAP7 SWAP1 SWAP7 MSTORE POP PUSH1 0x80 DUP6 ADD SWAP6 SWAP1 SWAP6 MSTORE PUSH1 0xA0 DUP5 ADD SWAP3 SWAP1 SWAP3 MSTORE PUSH1 0x3 DUP2 ADD SLOAD PUSH1 0xC0 DUP5 ADD MSTORE PUSH1 0x6 DUP2 ADD SLOAD PUSH1 0xE0 DUP5 ADD MSTORE PUSH1 0x4 ADD SLOAD PUSH2 0x100 DUP4 ADD MSTORE PUSH2 0x120 DUP3 ADD MSTORE PUSH2 0x140 DUP2 ADD SWAP2 SWAP1 SWAP2 MSTORE SWAP4 SWAP3 POP POP POP JUMP JUMPDEST PUSH1 0x3 SLOAD SWAP1 JUMP JUMPDEST PUSH1 0x60 PUSH1 0x0 PUSH1 0xA PUSH1 0x55 SLOAD GT PUSH2 0x98F JUMPI PUSH1 0x55 SLOAD PUSH2 0x992 JUMP JUMPDEST PUSH1 0xA JUMPDEST SWAP1 POP PUSH1 0x60 DUP2 PUSH8 0xFFFFFFFFFFFFFFFF DUP2 GT DUP1 ISZERO PUSH2 0x9AD JUMPI PUSH1 0x0 DUP1 REVERT JUMPDEST POP PUSH1 0x40 MLOAD SWAP1 DUP1 DUP3 MSTORE DUP1 PUSH1 0x20 MUL PUSH1 0x20 ADD DUP3 ADD PUSH1 0x40 MSTORE DUP1 ISZERO PUSH2 0x9E7 JUMPI DUP2 PUSH1 0x20 ADD JUMPDEST PUSH2 0x9D4 PUSH2 0x43FF JUMP JUMPDEST DUP2 MSTORE PUSH1 0x20 ADD SWAP1 PUSH1 0x1 SWAP1 SUB SWAP1 DUP2 PUSH2 0x9CC JUMPI SWAP1 POP JUMPDEST POP SWAP1 POP PUSH1 0x0 JUMPDEST DUP3 DUP2 LT ISZERO PUSH2 0xB2D JUMPI PUSH1 0x54 DUP2 DUP2 SLOAD DUP2 LT PUSH2 0xA02 JUMPI INVALID JUMPDEST PUSH1 0x0 SWAP2 DUP3 MSTORE PUSH1 0x20 DUP3 KECCAK256 PUSH1 0xA SWAP1 SWAP2 MUL ADD ADD SLOAD DUP3 DUP3 DUP2 MLOAD DUP2 LT PUSH2 0xA1F JUMPI INVALID JUMPDEST PUSH1 0x20 MUL PUSH1 0x20 ADD ADD MLOAD PUSH1 0x0 PUSH1 0x4 DUP2 LT PUSH2 0xA33 JUMPI INVALID JUMPDEST PUSH1 0x20 MUL ADD MSTORE PUSH1 0x54 DUP1 SLOAD DUP3 SWAP1 DUP2 LT PUSH2 0xA46 JUMPI INVALID JUMPDEST SWAP1 PUSH1 0x0 MSTORE PUSH1 0x20 PUSH1 0x0 KECCAK256 SWAP1 PUSH1 0xA MUL ADD PUSH1 0x1 PUSH1 0xA DUP2 LT PUSH2 0xA60 JUMPI INVALID JUMPDEST ADD SLOAD DUP3 DUP3 DUP2 MLOAD DUP2 LT PUSH2 0xA6E JUMPI INVALID JUMPDEST PUSH1 0x20 MUL PUSH1 0x20 ADD ADD MLOAD PUSH1 0x1 PUSH1 0x4 DUP2 LT PUSH2 0xA82 JUMPI INVALID JUMPDEST PUSH1 0x20 MUL ADD MSTORE PUSH1 0x54 DUP1 SLOAD DUP3 SWAP1 DUP2 LT PUSH2 0xA95 JUMPI INVALID JUMPDEST SWAP1 PUSH1 0x0 MSTORE PUSH1 0x20 PUSH1 0x0 KECCAK256 SWAP1 PUSH1 0xA MUL ADD PUSH1 0x2 PUSH1 0xA DUP2 LT PUSH2 0xAAF JUMPI INVALID JUMPDEST ADD SLOAD DUP3 DUP3 DUP2 MLOAD DUP2 LT PUSH2 0xABD JUMPI INVALID JUMPDEST PUSH1 0x20 MUL PUSH1 0x20 ADD ADD MLOAD PUSH1 0x2 PUSH1 0x4 DUP2 LT PUSH2 0xAD1 JUMPI INVALID JUMPDEST PUSH1 0x20 MUL ADD MSTORE PUSH1 0x54 DUP1 SLOAD DUP3 SWAP1 DUP2 LT PUSH2 0xAE4 JUMPI INVALID JUMPDEST SWAP1 PUSH1 0x0 MSTORE PUSH1 0x20 PUSH1 0x0 KECCAK256 SWAP1 PUSH1 0xA MUL ADD PUSH1 0x3 PUSH1 0xA DUP2 LT PUSH2 0xAFE JUMPI INVALID JUMPDEST ADD SLOAD DUP3 DUP3 DUP2 MLOAD DUP2 LT PUSH2 0xB0C JUMPI INVALID JUMPDEST PUSH1 0x20 MUL PUSH1 0x20 ADD ADD MLOAD PUSH1 0x3 PUSH1 0x4 DUP2 LT PUSH2 0xB20 JUMPI INVALID JUMPDEST PUSH1 0x20 MUL ADD MSTORE PUSH1 0x1 ADD PUSH2 0x9ED JUMP JUMPDEST POP SWAP2 POP POP SWAP1 JUMP JUMPDEST PUSH1 0x4 SLOAD DUP2 JUMP JUMPDEST PUSH1 0x0 PUSH2 0xB47 DUP5 DUP5 DUP5 PUSH2 0x227F JUMP JUMPDEST PUSH2 0xBB7 DUP5 PUSH2 0xB53 PUSH2 0x2084 JUMP JUMPDEST PUSH2 0xBB2 DUP6 PUSH1 0x40 MLOAD DUP1 PUSH1 0x60 ADD PUSH1 0x40 MSTORE DUP1 PUSH1 0x28 DUP2 MSTORE PUSH1 0x20 ADD PUSH2 0x4FBD PUSH1 0x28 SWAP2 CODECOPY PUSH1 0x1 PUSH1 0x1 PUSH1 0xA0 SHL SUB DUP11 AND PUSH1 0x0 SWAP1 DUP2 MSTORE PUSH1 0x2 PUSH1 0x20 MSTORE PUSH1 0x40 DUP2 KECCAK256 SWAP1 PUSH2 0xB91 PUSH2 0x2084 JUMP JUMPDEST PUSH1 0x1 PUSH1 0x1 PUSH1 0xA0 SHL SUB AND DUP2 MSTORE PUSH1 0x20 DUP2 ADD SWAP2 SWAP1 SWAP2 MSTORE PUSH1 0x40 ADD PUSH1 0x0 KECCAK256 SLOAD SWAP2 SWAP1 PUSH2 0x2389 JUMP JUMPDEST PUSH2 0x2088 JUMP JUMPDEST POP PUSH1 0x1 SWAP4 SWAP3 POP POP POP JUMP JUMPDEST PUSH1 0x0 PUSH2 0xBCB PUSH2 0x2084 JUMP JUMPDEST SWAP1 POP PUSH1 0x1 PUSH1 0x1 PUSH1 0xA0 SHL SUB DUP2 AND PUSH2 0xBFC JUMPI PUSH1 0x40 MLOAD PUSH3 0x461BCD PUSH1 0xE5 SHL DUP2 MSTORE PUSH1 0x4 ADD PUSH2 0xBF3 SWAP1 PUSH2 0x4B3F JUMP JUMPDEST PUSH1 0x40 MLOAD DUP1 SWAP2 SUB SWAP1 REVERT JUMPDEST PUSH1 0x1 PUSH1 0x1 PUSH1 0xA0 SHL SUB DUP2 AND PUSH1 0x0 SWAP1 DUP2 MSTORE PUSH1 0x56 PUSH1 0x20 MSTORE PUSH1 0x40 SWAP1 KECCAK256 PUSH1 0x2 DUP2 ADD SLOAD ISZERO PUSH2 0xC2C JUMPI PUSH2 0xC2C DUP3 DUP3 PUSH1 0x2 ADD SLOAD PUSH2 0x23B5 JUMP JUMPDEST PUSH1 0x4 DUP2 ADD SLOAD ISZERO PUSH2 0xC44 JUMPI PUSH2 0xC44 DUP3 DUP3 PUSH1 0x4 ADD SLOAD PUSH2 0x26B5 JUMP JUMPDEST POP POP JUMP JUMPDEST PUSH1 0x0 PUSH2 0xC52 PUSH2 0x2084 JUMP JUMPDEST SWAP1 POP PUSH1 0x1 PUSH1 0x1 PUSH1 0xA0 SHL SUB DUP2 AND PUSH2 0xC7A JUMPI PUSH1 0x40 MLOAD PUSH3 0x461BCD PUSH1 0xE5 SHL DUP2 MSTORE PUSH1 0x4 ADD PUSH2 0xBF3 SWAP1 PUSH2 0x4B3F JUMP JUMPDEST PUSH1 0x1 PUSH1 0x1 PUSH1 0xA0 SHL SUB DUP2 AND PUSH1 0x0 SWAP1 DUP2 MSTORE PUSH1 0x58 PUSH1 0x20 MSTORE PUSH1 0x40 DUP2 KECCAK256 SWAP1 PUSH2 0xC9C DUP4 PUSH2 0x21FE JUMP JUMPDEST SWAP2 POP POP PUSH1 0x0 DUP2 GT PUSH2 0xCBF JUMPI PUSH1 0x40 MLOAD PUSH3 0x461BCD PUSH1 0xE5 SHL DUP2 MSTORE PUSH1 0x4 ADD PUSH2 0xBF3 SWAP1 PUSH2 0x4B3F JUMP JUMPDEST PUSH1 0x1B SLOAD DUP2 PUSH1 0x5C SLOAD ADD GT ISZERO PUSH2 0xCE5 JUMPI PUSH1 0x40 MLOAD PUSH3 0x461BCD PUSH1 0xE5 SHL DUP2 MSTORE PUSH1 0x4 ADD PUSH2 0xBF3 SWAP1 PUSH2 0x4E8D JUMP JUMPDEST PUSH1 0x0 PUSH1 0x3 DUP4 ADD DUP2 SWAP1 SSTORE PUSH1 0x4 DUP4 ADD DUP1 SLOAD DUP4 ADD SWAP1 SSTORE PUSH1 0x5 DUP4 ADD SSTORE PUSH1 0x5C DUP1 SLOAD DUP3 ADD SWAP1 SSTORE PUSH2 0xD0F DUP4 DUP3 PUSH2 0x299A JUMP JUMPDEST POP POP POP JUMP JUMPDEST PUSH1 0x7 SLOAD PUSH1 0xFF AND SWAP1 JUMP JUMPDEST PUSH1 0x1E SLOAD PUSH1 0x1D SLOAD TIMESTAMP SUB LT PUSH2 0xDE3 JUMPI PUSH1 0x14 PUSH1 0x1C SLOAD PUSH1 0x20 SLOAD PUSH2 0x3E8 MUL DUP2 PUSH2 0xD3D JUMPI INVALID JUMPDEST DIV LT ISZERO PUSH2 0xDD4 JUMPI PUSH1 0x1E SLOAD PUSH1 0x1D SLOAD ADD PUSH1 0x1F SSTORE PUSH1 0x0 PUSH2 0xD58 PUSH2 0x213C JUMP JUMPDEST SWAP1 POP PUSH1 0x64 PUSH1 0x14 DUP3 MUL DIV PUSH2 0xDAC PUSH1 0x50 DUP4 MUL DIV PUSH1 0x0 JUMPDEST PUSH1 0x45 SLOAD DUP2 LT ISZERO PUSH2 0xDCF JUMPI PUSH1 0x0 PUSH1 0x49 PUSH1 0x0 PUSH1 0x21 DUP5 PUSH1 0x24 DUP2 LT PUSH2 0xD89 JUMPI INVALID JUMPDEST ADD SLOAD PUSH1 0x1 PUSH1 0x1 PUSH1 0xA0 SHL SUB AND DUP2 MSTORE PUSH1 0x20 DUP2 ADD SWAP2 SWAP1 SWAP2 MSTORE PUSH1 0x40 ADD PUSH1 0x0 KECCAK256 PUSH1 0x1F SLOAD PUSH1 0x1 ADD PUSH1 0x6 DUP3 ADD SSTORE SWAP1 POP PUSH1 0x23 DUP3 EQ PUSH2 0xDBF JUMPI DUP3 PUSH2 0xDC1 JUMP JUMPDEST DUP4 JUMPDEST PUSH1 0xB SWAP1 SWAP2 ADD SSTORE PUSH1 0x1 ADD PUSH2 0xD6C JUMP JUMPDEST POP POP POP POP JUMPDEST TIMESTAMP PUSH1 0x1D SSTORE PUSH1 0x0 PUSH1 0x20 DUP2 SWAP1 SSTORE PUSH1 0x45 SSTORE JUMPDEST JUMP JUMPDEST PUSH1 0x0 PUSH2 0x6AC PUSH2 0xDF2 PUSH2 0x2084 JUMP JUMPDEST DUP5 PUSH2 0xBB2 DUP6 PUSH1 0x2 PUSH1 0x0 PUSH2 0xE03 PUSH2 0x2084 JUMP JUMPDEST PUSH1 0x1 PUSH1 0x1 PUSH1 0xA0 SHL SUB SWAP1 DUP2 AND DUP3 MSTORE PUSH1 0x20 DUP1 DUP4 ADD SWAP4 SWAP1 SWAP4 MSTORE PUSH1 0x40 SWAP2 DUP3 ADD PUSH1 0x0 SWAP1 DUP2 KECCAK256 SWAP2 DUP13 AND DUP2 MSTORE SWAP3 MSTORE SWAP1 KECCAK256 SLOAD SWAP1 PUSH2 0x2058 JUMP JUMPDEST PUSH1 0x0 PUSH2 0xE3D PUSH2 0x2084 JUMP JUMPDEST SWAP1 POP PUSH1 0x1 PUSH1 0x1 PUSH1 0xA0 SHL SUB DUP2 AND PUSH2 0xE65 JUMPI PUSH1 0x40 MLOAD PUSH3 0x461BCD PUSH1 0xE5 SHL DUP2 MSTORE PUSH1 0x4 ADD PUSH2 0xBF3 SWAP1 PUSH2 0x4B3F JUMP JUMPDEST PUSH1 0x1 PUSH1 0x1 PUSH1 0xA0 SHL SUB DUP2 AND PUSH1 0x0 SWAP1 DUP2 MSTORE PUSH1 0x56 PUSH1 0x20 MSTORE PUSH1 0x40 SWAP1 KECCAK256 PUSH1 0x2 DUP2 ADD SLOAD ISZERO PUSH2 0xEE9 JUMPI PUSH1 0x0 DUP2 DUP2 ADD SSTORE PUSH1 0x0 DUP2 PUSH1 0x1 ADD SSTORE PUSH1 0x0 DUP2 PUSH1 0x2 ADD SSTORE PUSH2 0xEAA ADDRESS DUP4 DUP4 PUSH1 0x2 ADD SLOAD PUSH2 0x227F JUMP JUMPDEST PUSH32 0xA21A2A879C924A525CD3D043187D43E34B2573D79532750B8792307A7C2FEADB DUP3 DUP3 PUSH1 0x2 JUMPDEST ADD SLOAD PUSH1 0x40 MLOAD PUSH2 0xEE0 SWAP3 SWAP2 SWAP1 PUSH2 0x46FD JUMP JUMPDEST PUSH1 0x40 MLOAD DUP1 SWAP2 SUB SWAP1 LOG1 JUMPDEST PUSH2 0xC44 PUSH2 0x2A7B JUMP JUMPDEST PUSH1 0x0 PUSH2 0xEFB PUSH2 0x2084 JUMP JUMPDEST SWAP1 POP PUSH1 0x1 PUSH1 0x1 PUSH1 0xA0 SHL SUB DUP2 AND PUSH2 0xF23 JUMPI PUSH1 0x40 MLOAD PUSH3 0x461BCD PUSH1 0xE5 SHL DUP2 MSTORE PUSH1 0x4 ADD PUSH2 0xBF3 SWAP1 PUSH2 0x4B3F JUMP JUMPDEST PUSH1 0x0 DUP1 PUSH1 0x0 DUP1 PUSH1 0x0 PUSH2 0xF34 DUP7 PUSH2 0x1867 JUMP JUMPDEST SWAP5 POP SWAP5 POP SWAP5 POP SWAP5 POP SWAP5 POP DUP5 ISZERO PUSH2 0xF5C JUMPI PUSH1 0x40 MLOAD PUSH3 0x461BCD PUSH1 0xE5 SHL DUP2 MSTORE PUSH1 0x4 ADD PUSH2 0xBF3 SWAP1 PUSH2 0x4A87 JUMP JUMPDEST PUSH1 0xA SLOAD PUSH1 0x1 PUSH1 0x1 PUSH1 0xA0 SHL SUB DUP8 DUP2 AND SWAP2 AND EQ ISZERO PUSH2 0xF88 JUMPI PUSH1 0x0 PUSH1 0xB SSTORE PUSH1 0xC DUP1 SLOAD DUP3 ADD SWAP1 SSTORE TIMESTAMP PUSH1 0xD SSTORE PUSH2 0x126A JUMP JUMPDEST PUSH1 0xE SLOAD PUSH1 0x1 PUSH1 0x1 PUSH1 0xA0 SHL SUB DUP8 DUP2 AND SWAP2 AND EQ ISZERO PUSH2 0xFB4 JUMPI PUSH1 0x0 PUSH1 0xF SSTORE PUSH1 0x10 DUP1 SLOAD DUP3 ADD SWAP1 SSTORE TIMESTAMP PUSH1 0x11 SSTORE PUSH2 0x126A JUMP JUMPDEST PUSH1 0x12 SLOAD PUSH1 0x1 PUSH1 0x1 PUSH1 0xA0 SHL SUB DUP8 DUP2 AND SWAP2 AND EQ ISZERO PUSH2 0xFE0 JUMPI PUSH1 0x0 PUSH1 0x13 SSTORE PUSH1 0x14 DUP1 SLOAD DUP3 ADD SWAP1 SSTORE TIMESTAMP PUSH1 0x15 SSTORE PUSH2 0x126A JUMP JUMPDEST PUSH1 0x1 PUSH1 0x1 PUSH1 0xA0 SHL SUB DUP7 AND PUSH1 0x0 SWAP1 DUP2 MSTORE PUSH1 0x49 PUSH1 0x20 MSTORE PUSH1 0x40 SWAP1 KECCAK256 PUSH1 0xA DUP2 ADD SLOAD ISZERO PUSH2 0x1268 JUMPI PUSH1 0x3 DUP2 ADD DUP1 SLOAD DUP4 ADD SWAP1 SSTORE TIMESTAMP PUSH1 0x6 DUP3 ADD SSTORE PUSH1 0x0 PUSH1 0x7 DUP3 ADD DUP2 SWAP1 SSTORE PUSH1 0x8 DUP3 ADD DUP2 SWAP1 SSTORE PUSH1 0xB DUP3 ADD DUP2 SWAP1 SSTORE PUSH1 0x1 DUP3 ADD SLOAD DUP6 DUP8 ADD SWAP2 SWAP1 PUSH1 0x2 SWAP1 DUP4 SWAP1 PUSH1 0x5 PUSH1 0x1 PUSH1 0x20 SHL SWAP1 SWAP2 DIV PUSH2 0xFFFF AND LT PUSH2 0x1051 JUMPI DUP7 PUSH2 0x1054 JUMP JUMPDEST PUSH1 0x0 JUMPDEST ADD DUP2 PUSH2 0x105C JUMPI INVALID JUMPDEST DIV SWAP1 POP DUP1 DUP4 PUSH1 0xA ADD SLOAD GT ISZERO PUSH2 0x110E JUMPI PUSH1 0xA DUP4 ADD DUP1 SLOAD DUP3 SWAP1 SUB SWAP1 DUP2 SWAP1 SSTORE PUSH1 0x0 SWAP1 PUSH2 0x1084 SWAP1 PUSH2 0x2AAC JUMP JUMPDEST PUSH1 0x1 DUP6 ADD SLOAD SWAP1 SWAP2 POP PUSH1 0xFF DUP1 DUP4 AND PUSH1 0x1 PUSH1 0x38 SHL SWAP1 SWAP3 DIV AND EQ PUSH2 0x10FC JUMPI DUP1 DUP5 PUSH1 0x1 ADD PUSH1 0x7 PUSH2 0x100 EXP DUP2 SLOAD DUP2 PUSH1 0xFF MUL NOT AND SWAP1 DUP4 PUSH1 0xFF AND MUL OR SWAP1 SSTORE POP PUSH2 0x3E8 PUSH1 0x4A PUSH1 0x1 DUP4 SUB PUSH1 0xFF AND DUP2 SLOAD DUP2 LT PUSH2 0x10D2 JUMPI INVALID JUMPDEST SWAP1 PUSH1 0x0 MSTORE PUSH1 0x20 PUSH1 0x0 KECCAK256 SWAP1 PUSH1 0x4 MUL ADD PUSH1 0x3 ADD SLOAD DUP6 PUSH1 0xA ADD SLOAD MUL DUP2 PUSH2 0x10F1 JUMPI INVALID JUMPDEST DIV PUSH1 0x9 DUP6 ADD SSTORE PUSH2 0x1108 JUMP JUMPDEST PUSH1 0x9 DUP5 ADD DUP1 SLOAD DUP4 SWAP1 SUB SWAP1 SSTORE JUMPDEST POP PUSH2 0x112C JUMP JUMPDEST PUSH1 0x1 DUP4 ADD DUP1 SLOAD PUSH1 0xFF PUSH1 0x38 SHL NOT AND SWAP1 SSTORE PUSH1 0x0 PUSH1 0xA DUP5 ADD DUP2 SWAP1 SSTORE PUSH1 0x9 DUP5 ADD SSTORE JUMPDEST PUSH1 0x1 DUP4 ADD SLOAD PUSH2 0x3E7 PUSH1 0x1 PUSH1 0x20 SHL SWAP1 SWAP2 DIV PUSH2 0xFFFF AND LT ISZERO PUSH2 0x1255 JUMPI PUSH1 0x1 DUP4 ADD SLOAD PUSH1 0x18 SLOAD PUSH2 0x3E8 PUSH1 0x4B DUP6 MUL DIV SWAP2 PUSH4 0xFFFFFFFF SWAP1 DUP2 AND PUSH3 0xF4240 SUB SWAP2 DUP3 DUP3 AND PUSH1 0x1 PUSH1 0x20 SHL SWAP1 SWAP2 DIV SWAP1 SWAP2 AND GT ISZERO PUSH2 0x11AE JUMPI PUSH4 0xFFFFFFFF DUP2 AND PUSH1 0x0 SWAP1 DUP2 MSTORE PUSH1 0x48 PUSH1 0x20 SWAP1 DUP2 MSTORE PUSH1 0x40 DUP1 DUP4 KECCAK256 SLOAD PUSH1 0x1 PUSH1 0x1 PUSH1 0xA0 SHL SUB AND DUP4 MSTORE PUSH1 0x49 SWAP1 SWAP2 MSTORE SWAP1 KECCAK256 PUSH1 0xB ADD DUP1 SLOAD DUP4 ADD SWAP1 SSTORE JUMPDEST POP PUSH1 0x40 DUP1 MLOAD PUSH1 0x60 DUP2 ADD DUP3 MSTORE TIMESTAMP DUP2 MSTORE PUSH1 0x20 DUP2 ADD SWAP3 DUP4 MSTORE PUSH1 0x0 SWAP2 DUP2 ADD DUP3 DUP2 MSTORE PUSH1 0x4E DUP1 SLOAD PUSH1 0x1 DUP2 ADD DUP3 SSTORE SWAP4 MSTORE SWAP1 MLOAD PUSH32 0x9B65E484CE3D961A557081A44C6C68A0A27ECA0B88FCE820BDD99C3DC223DCC7 PUSH1 0x3 SWAP1 SWAP4 MUL SWAP3 DUP4 ADD SSTORE SWAP2 MLOAD PUSH32 0x9B65E484CE3D961A557081A44C6C68A0A27ECA0B88FCE820BDD99C3DC223DCC8 DUP3 ADD SSTORE SWAP1 MLOAD PUSH32 0x9B65E484CE3D961A557081A44C6C68A0A27ECA0B88FCE820BDD99C3DC223DCC9 SWAP1 SWAP2 ADD SSTORE PUSH2 0x1265 JUMP JUMPDEST PUSH1 0x50 DUP1 SLOAD PUSH2 0x3E8 PUSH1 0x96 DUP6 MUL DIV ADD SWAP1 SSTORE JUMPDEST POP POP JUMPDEST POP JUMPDEST DUP1 ISZERO PUSH2 0x12B4 JUMPI PUSH1 0x7 SLOAD PUSH2 0x128C SWAP1 PUSH2 0x100 SWAP1 DIV PUSH1 0x1 PUSH1 0x1 PUSH1 0xA0 SHL SUB AND DUP8 DUP4 PUSH2 0x2AFA JUMP JUMPDEST PUSH1 0x0 PUSH2 0x1297 DUP8 PUSH2 0x6B6 JUMP JUMPDEST SWAP1 POP DUP1 ISZERO PUSH2 0x12B2 JUMPI PUSH2 0x12A9 DUP8 DUP3 PUSH2 0x2BE8 JUMP JUMPDEST PUSH1 0x19 DUP1 SLOAD DUP3 ADD SWAP1 SSTORE JUMPDEST POP JUMPDEST POP POP POP POP POP POP JUMP JUMPDEST PUSH1 0x3 SLOAD DUP2 JUMP JUMPDEST PUSH2 0x12CD DUP4 DUP4 DUP4 PUSH2 0x2CB2 JUMP JUMPDEST PUSH2 0xD0F DUP4 PUSH2 0x2F34 JUMP JUMPDEST PUSH1 0x0 PUSH2 0x12E0 PUSH2 0x2084 JUMP JUMPDEST SWAP1 POP PUSH1 0x1 PUSH1 0x1 PUSH1 0xA0 SHL SUB DUP2 AND PUSH2 0x1308 JUMPI PUSH1 0x40 MLOAD PUSH3 0x461BCD PUSH1 0xE5 SHL DUP2 MSTORE PUSH1 0x4 ADD PUSH2 0xBF3 SWAP1 PUSH2 0x4B3F JUMP JUMPDEST PUSH1 0x1 PUSH1 0x1 PUSH1 0xA0 SHL SUB DUP4 AND PUSH2 0x132E JUMPI PUSH1 0x40 MLOAD PUSH3 0x461BCD PUSH1 0xE5 SHL DUP2 MSTORE PUSH1 0x4 ADD PUSH2 0xBF3 SWAP1 PUSH2 0x4933 JUMP JUMPDEST PUSH2 0xD0F DUP2 DUP5 DUP5 TIMESTAMP PUSH2 0x30C8 JUMP JUMPDEST PUSH2 0xC44 DUP3 DUP3 PUSH2 0x299A JUMP JUMPDEST PUSH1 0x0 PUSH2 0x134E PUSH2 0x2084 JUMP JUMPDEST SWAP1 POP PUSH1 0x1 PUSH1 0x1 PUSH1 0xA0 SHL SUB DUP2 AND PUSH2 0x1376 JUMPI PUSH1 0x40 MLOAD PUSH3 0x461BCD PUSH1 0xE5 SHL DUP2 MSTORE PUSH1 0x4 ADD PUSH2 0xBF3 SWAP1 PUSH2 0x4B3F JUMP JUMPDEST PUSH1 0x1 PUSH1 0x1 PUSH1 0xA0 SHL SUB DUP2 AND PUSH1 0x0 SWAP1 DUP2 MSTORE PUSH1 0x56 PUSH1 0x20 MSTORE PUSH1 0x40 SWAP1 KECCAK256 PUSH1 0x4 DUP2 ADD SLOAD ISZERO PUSH2 0xEE9 JUMPI PUSH1 0x0 DUP2 DUP2 ADD SSTORE PUSH1 0x0 DUP2 PUSH1 0x3 ADD SSTORE PUSH1 0x0 DUP2 PUSH1 0x4 ADD SSTORE PUSH1 0x7 SLOAD PUSH2 0x13CC SWAP1 PUSH2 0x100 SWAP1 DIV PUSH1 0x1 PUSH1 0x1 PUSH1 0xA0 SHL SUB AND DUP4 DUP4 PUSH1 0x4 ADD SLOAD PUSH2 0x2AFA JUMP JUMPDEST PUSH32 0x866CB17A996E44FAD30A4450E43850706BFA73CBC9CC00561C44CD87E9F1503F DUP3 DUP3 PUSH1 0x4 PUSH2 0xED0 JUMP JUMPDEST PUSH1 0x0 DUP1 DUP1 DUP1 CALLER PUSH2 0x1404 PUSH2 0x156F JUMP JUMPDEST PUSH1 0x1 PUSH1 0x1 PUSH1 0xA0 SHL SUB AND EQ PUSH2 0x142A JUMPI PUSH1 0x40 MLOAD PUSH3 0x461BCD PUSH1 0xE5 SHL DUP2 MSTORE PUSH1 0x4 ADD PUSH2 0xBF3 SWAP1 PUSH2 0x4C8F JUMP JUMPDEST POP POP PUSH1 0x18 SLOAD PUSH1 0x1B SLOAD PUSH1 0x1F SLOAD PUSH1 0x1 PUSH1 0x40 SHL DUP4 DIV PUSH2 0xFFFF AND SWAP6 PUSH1 0x1 PUSH1 0x20 SHL SWAP1 SWAP4 DIV PUSH4 0xFFFFFFFF AND SWAP5 POP SWAP1 SWAP3 POP SWAP1 JUMP JUMPDEST PUSH1 0x1 PUSH1 0x1 PUSH1 0xA0 SHL SUB AND PUSH1 0x0 SWAP1 DUP2 MSTORE PUSH1 0x1 PUSH1 0x20 MSTORE PUSH1 0x40 SWAP1 KECCAK256 SLOAD SWAP1 JUMP JUMPDEST PUSH2 0x147A PUSH2 0x2084 JUMP JUMPDEST PUSH1 0x0 SLOAD PUSH1 0x1 PUSH1 0x1 PUSH1 0xA0 SHL SUB SWAP1 DUP2 AND SWAP2 AND EQ PUSH2 0x14A7 JUMPI PUSH1 0x40 MLOAD PUSH3 0x461BCD PUSH1 0xE5 SHL DUP2 MSTORE PUSH1 0x4 ADD PUSH2 0xBF3 SWAP1 PUSH2 0x4C8F JUMP JUMPDEST PUSH1 0x0 DUP1 SLOAD PUSH1 0x40 MLOAD PUSH1 0x1 PUSH1 0x1 PUSH1 0xA0 SHL SUB SWAP1 SWAP2 AND SWAP1 PUSH32 0x8BE0079C531659141344CD1FD0A4F28419497F9722A3DAAFE3B4186F6B6457E0 SWAP1 DUP4 SWAP1 LOG3 PUSH1 0x0 DUP1 SLOAD PUSH1 0x1 PUSH1 0x1 PUSH1 0xA0 SHL SUB NOT AND SWAP1 SSTORE JUMP JUMPDEST PUSH1 0x0 PUSH2 0x14FB PUSH2 0x156F JUMP JUMPDEST SWAP1 POP SWAP1 JUMP JUMPDEST PUSH1 0x0 PUSH2 0x150A PUSH2 0x2084 JUMP JUMPDEST SWAP1 POP PUSH1 0x1 PUSH1 0x1 PUSH1 0xA0 SHL SUB DUP2 AND PUSH2 0x1532 JUMPI PUSH1 0x40 MLOAD PUSH3 0x461BCD PUSH1 0xE5 SHL DUP2 MSTORE PUSH1 0x4 ADD PUSH2 0xBF3 SWAP1 PUSH2 0x4963 JUMP JUMPDEST DUP3 PUSH1 0x1 PUSH1 0x1 PUSH1 0xA0 SHL SUB AND DUP2 PUSH1 0x1 PUSH1 0x1 PUSH1 0xA0 SHL SUB AND EQ ISZERO PUSH2 0x1564 JUMPI PUSH1 0x40 MLOAD PUSH3 0x461BCD PUSH1 0xE5 SHL DUP2 MSTORE PUSH1 0x4 ADD PUSH2 0xBF3 SWAP1 PUSH2 0x4D83 JUMP JUMPDEST PUSH2 0xD0F DUP2 DUP5 DUP5 PUSH2 0x2CB2 JUMP JUMPDEST PUSH1 0x0 SLOAD PUSH1 0x1 PUSH1 0x1 PUSH1 0xA0 SHL SUB AND SWAP1 JUMP JUMPDEST PUSH1 0x6 DUP1 SLOAD PUSH1 0x40 DUP1 MLOAD PUSH1 0x20 PUSH1 0x1F PUSH1 0x2 PUSH1 0x0 NOT PUSH2 0x100 PUSH1 0x1 DUP9 AND ISZERO MUL ADD SWAP1 SWAP6 AND SWAP5 SWAP1 SWAP5 DIV SWAP4 DUP5 ADD DUP2 SWAP1 DIV DUP2 MUL DUP3 ADD DUP2 ADD SWAP1 SWAP3 MSTORE DUP3 DUP2 MSTORE PUSH1 0x60 SWAP4 SWAP1 SWAP3 SWAP1 SWAP2 DUP4 ADD DUP3 DUP3 DUP1 ISZERO PUSH2 0x68E JUMPI DUP1 PUSH1 0x1F LT PUSH2 0x663 JUMPI PUSH2 0x100 DUP1 DUP4 SLOAD DIV MUL DUP4 MSTORE SWAP2 PUSH1 0x20 ADD SWAP2 PUSH2 0x68E JUMP JUMPDEST PUSH1 0x0 PUSH1 0x17 SLOAD PUSH1 0xA MUL PUSH1 0x9 SLOAD DUP4 MUL DUP2 PUSH2 0x15F3 JUMPI INVALID JUMPDEST DIV SWAP3 SWAP2 POP POP JUMP JUMPDEST PUSH2 0xD0F DUP4 DUP4 DUP4 PUSH2 0x2088 JUMP JUMPDEST PUSH1 0x0 PUSH2 0x160F PUSH2 0x2084 JUMP JUMPDEST PUSH1 0x0 SLOAD PUSH1 0x1 PUSH1 0x1 PUSH1 0xA0 SHL SUB SWAP1 DUP2 AND SWAP2 AND EQ PUSH2 0x163C JUMPI PUSH1 0x40 MLOAD PUSH3 0x461BCD PUSH1 0xE5 SHL DUP2 MSTORE PUSH1 0x4 ADD PUSH2 0xBF3 SWAP1 PUSH2 0x4C8F JUMP JUMPDEST PUSH2 0x164D PUSH2 0x1647 PUSH2 0x2084 JUMP JUMPDEST DUP4 PUSH2 0x299A JUMP JUMPDEST POP PUSH1 0x1 SWAP2 SWAP1 POP JUMP JUMPDEST PUSH1 0x0 PUSH2 0x6AC PUSH2 0x1662 PUSH2 0x2084 JUMP JUMPDEST DUP5 PUSH2 0xBB2 DUP6 PUSH1 0x40 MLOAD DUP1 PUSH1 0x60 ADD PUSH1 0x40 MSTORE DUP1 PUSH1 0x25 DUP2 MSTORE PUSH1 0x20 ADD PUSH2 0x4F98 PUSH1 0x25 SWAP2 CODECOPY PUSH1 0x2 PUSH1 0x0 PUSH2 0x168C PUSH2 0x2084 JUMP JUMPDEST PUSH1 0x1 PUSH1 0x1 PUSH1 0xA0 SHL SUB SWAP1 DUP2 AND DUP3 MSTORE PUSH1 0x20 DUP1 DUP4 ADD SWAP4 SWAP1 SWAP4 MSTORE PUSH1 0x40 SWAP2 DUP3 ADD PUSH1 0x0 SWAP1 DUP2 KECCAK256 SWAP2 DUP14 AND DUP2 MSTORE SWAP3 MSTORE SWAP1 KECCAK256 SLOAD SWAP2 SWAP1 PUSH2 0x2389 JUMP JUMPDEST PUSH2 0x16C5 PUSH2 0x441D JUMP JUMPDEST PUSH1 0x1 PUSH1 0x1 PUSH1 0xA0 SHL SUB DUP3 AND PUSH2 0x16EB JUMPI PUSH1 0x40 MLOAD PUSH3 0x461BCD PUSH1 0xE5 SHL DUP2 MSTORE PUSH1 0x4 ADD PUSH2 0xBF3 SWAP1 PUSH2 0x4D5A JUMP JUMPDEST PUSH1 0x0 DUP1 PUSH1 0x0 DUP1 PUSH1 0x0 DUP1 PUSH1 0x0 DUP1 PUSH2 0x1700 DUP11 PUSH2 0x1457 JUMP JUMPDEST PUSH1 0xA SLOAD SWAP1 SWAP2 POP PUSH1 0x1 PUSH1 0x1 PUSH1 0xA0 SHL SUB DUP12 DUP2 AND SWAP2 AND EQ ISZERO PUSH2 0x176B JUMPI PUSH1 0xC SLOAD PUSH1 0x47 SLOAD SWAP1 SWAP7 POP PUSH1 0x0 SWAP1 DUP2 SWAP1 PUSH2 0x173B SWAP1 PUSH1 0x1 PUSH1 0x1 PUSH1 0xA0 SHL SUB AND PUSH1 0x1 PUSH2 0x38F8 JUMP JUMPDEST PUSH1 0x47 SLOAD PUSH1 0x1 PUSH1 0x1 PUSH1 0xA0 SHL SUB AND PUSH1 0x0 SWAP1 DUP2 MSTORE PUSH1 0x49 PUSH1 0x20 MSTORE PUSH1 0x40 SWAP1 KECCAK256 PUSH1 0x2 ADD SLOAD PUSH1 0x1 SWAP1 SWAP3 ADD SWAP7 POP ADD SWAP4 POP PUSH2 0x17F8 SWAP2 POP POP JUMP JUMPDEST PUSH1 0xE SLOAD PUSH1 0x1 PUSH1 0x1 PUSH1 0xA0 SHL SUB DUP12 DUP2 AND SWAP2 AND EQ ISZERO PUSH2 0x178B JUMPI PUSH1 0xC SLOAD SWAP6 POP PUSH2 0x17F8 JUMP JUMPDEST PUSH1 0x12 SLOAD PUSH1 0x1 PUSH1 0x1 PUSH1 0xA0 SHL SUB DUP12 DUP2 AND SWAP2 AND EQ ISZERO PUSH2 0x17AB JUMPI PUSH1 0xC SLOAD SWAP6 POP PUSH2 0x17F8 JUMP JUMPDEST PUSH1 0x1 PUSH1 0x1 PUSH1 0xA0 SHL SUB DUP11 AND PUSH1 0x0 SWAP1 DUP2 MSTORE PUSH1 0x49 PUSH1 0x20 MSTORE PUSH1 0x40 DUP2 KECCAK256 DUP1 SLOAD PUSH1 0x5 DUP3 ADD SLOAD PUSH1 0x3 DUP4 ADD SLOAD PUSH1 0x2 DUP5 ADD SLOAD PUSH1 0x9 DUP6 ADD SLOAD SWAP4 SWAP14 POP SWAP12 POP SWAP10 POP SWAP1 SWAP8 POP SWAP6 POP SWAP1 PUSH2 0x17F1 SWAP1 DUP13 SWAP1 PUSH2 0x38F8 JUMP JUMPDEST SWAP1 SWAP5 POP SWAP3 POP POP JUMPDEST PUSH1 0x40 DUP1 MLOAD PUSH2 0x100 DUP2 ADD DUP3 MSTORE SWAP9 DUP10 MSTORE PUSH1 0x20 DUP10 ADD SWAP2 SWAP1 SWAP2 MSTORE DUP8 ADD SWAP3 SWAP1 SWAP3 MSTORE PUSH1 0x60 DUP7 ADD SWAP5 SWAP1 SWAP5 MSTORE PUSH1 0x80 DUP6 ADD SWAP3 SWAP1 SWAP3 MSTORE PUSH1 0xA0 DUP5 ADD MSTORE PUSH1 0xC0 DUP4 ADD SWAP2 SWAP1 SWAP2 MSTORE PUSH1 0xE0 DUP3 ADD MSTORE SWAP3 SWAP2 POP POP JUMP JUMPDEST PUSH1 0x0 PUSH2 0x6AC PUSH2 0x1849 PUSH2 0x2084 JUMP JUMPDEST DUP5 DUP5 PUSH2 0x227F JUMP JUMPDEST PUSH1 0x0 PUSH2 0x6B0 DUP3 PUSH2 0x2159 JUMP JUMPDEST PUSH2 0xD0F DUP4 DUP4 DUP4 TIMESTAMP PUSH2 0x30C8 JUMP JUMPDEST PUSH1 0xA SLOAD PUSH1 0x0 SWAP1 DUP2 SWAP1 DUP2 SWAP1 DUP2 SWAP1 DUP2 SWAP1 DUP2 SWAP1 DUP2 SWAP1 DUP2 SWAP1 DUP2 SWAP1 DUP2 SWAP1 PUSH1 0x1 PUSH1 0x1 PUSH1 0xA0 SHL SUB DUP13 DUP2 AND SWAP2 AND EQ ISZERO PUSH2 0x194A JUMPI PUSH1 0x47 SLOAD PUSH1 0x1 PUSH1 0x1 PUSH1 0xA0 SHL SUB AND PUSH1 0x0 SWAP1 DUP2 MSTORE PUSH1 0x49 PUSH1 0x20 MSTORE PUSH1 0x40 DUP2 KECCAK256 PUSH1 0x46 DUP1 SLOAD SWAP2 SWAP3 PUSH2 0x3E8 SWAP3 PUSH2 0x18BC JUMPI INVALID JUMPDEST SWAP1 PUSH1 0x0 MSTORE PUSH1 0x20 PUSH1 0x0 KECCAK256 ADD PUSH1 0x2 DUP2 SLOAD DUP2 LT PUSH2 0x18D2 JUMPI INVALID JUMPDEST SWAP1 PUSH1 0x0 MSTORE PUSH1 0x20 PUSH1 0x0 KECCAK256 SWAP1 PUSH1 0x20 SWAP2 DUP3 DUP3 DIV ADD SWAP2 SWAP1 MOD SWAP1 SLOAD SWAP1 PUSH2 0x100 EXP SWAP1 DIV PUSH1 0xFF AND PUSH1 0xFF AND PUSH2 0x1903 DUP4 DUP5 PUSH1 0x6 ADD SLOAD PUSH2 0x39D0 JUMP JUMPDEST MUL DUP2 PUSH2 0x190B JUMPI INVALID JUMPDEST DIV PUSH1 0xA PUSH1 0x1 ADD SLOAD ADD SWAP2 POP PUSH2 0x191D PUSH2 0x443C JUMP JUMPDEST PUSH1 0x47 SLOAD PUSH1 0x6 DUP4 ADD SLOAD PUSH2 0x193C SWAP2 PUSH1 0x1 PUSH1 0x1 PUSH1 0xA0 SHL SUB AND SWAP1 PUSH1 0x1 PUSH1 0x13 PUSH2 0x3A79 JUMP JUMPDEST PUSH1 0x40 ADD MLOAD SWAP5 POP PUSH2 0x1BDF SWAP2 POP POP JUMP JUMPDEST PUSH1 0xE SLOAD PUSH1 0x1 PUSH1 0x1 PUSH1 0xA0 SHL SUB DUP13 DUP2 AND SWAP2 AND EQ ISZERO PUSH2 0x1969 JUMPI POP PUSH1 0xF SLOAD PUSH2 0x1BDF JUMP JUMPDEST PUSH1 0x12 SLOAD PUSH1 0x1 PUSH1 0x1 PUSH1 0xA0 SHL SUB DUP13 DUP2 AND SWAP2 AND EQ ISZERO PUSH2 0x1988 JUMPI POP PUSH1 0x13 SLOAD PUSH2 0x1BDF JUMP JUMPDEST PUSH1 0x1 PUSH1 0x1 PUSH1 0xA0 SHL SUB DUP12 AND PUSH1 0x0 SWAP1 DUP2 MSTORE PUSH1 0x49 PUSH1 0x20 MSTORE PUSH1 0x40 SWAP1 KECCAK256 PUSH1 0x1F SLOAD PUSH1 0x6 DUP3 ADD SLOAD LT SWAP6 POP DUP6 ISZERO PUSH2 0x19C9 JUMPI PUSH1 0x40 MLOAD PUSH3 0x461BCD PUSH1 0xE5 SHL DUP2 MSTORE PUSH1 0x4 ADD PUSH2 0xBF3 SWAP1 PUSH2 0x4AE4 JUMP JUMPDEST PUSH1 0x1 DUP2 ADD SLOAD PUSH1 0x1 PUSH1 0x38 SHL SWAP1 DIV PUSH1 0xFF AND PUSH2 0x19F4 JUMPI PUSH1 0x40 MLOAD PUSH3 0x461BCD PUSH1 0xE5 SHL DUP2 MSTORE PUSH1 0x4 ADD PUSH2 0xBF3 SWAP1 PUSH2 0x4D2D JUMP JUMPDEST DUP1 PUSH1 0xB ADD SLOAD SWAP3 POP PUSH1 0x0 PUSH1 0x4A PUSH1 0x1 DUP4 PUSH1 0x1 ADD PUSH1 0x7 SWAP1 SLOAD SWAP1 PUSH2 0x100 EXP SWAP1 DIV PUSH1 0xFF AND SUB PUSH1 0xFF AND DUP2 SLOAD DUP2 LT PUSH2 0x1A21 JUMPI INVALID JUMPDEST SWAP1 PUSH1 0x0 MSTORE PUSH1 0x20 PUSH1 0x0 KECCAK256 SWAP1 PUSH1 0x4 MUL ADD SWAP1 POP PUSH2 0x1A39 PUSH2 0x443C JUMP JUMPDEST PUSH2 0x1AA0 DUP15 DUP5 PUSH1 0x6 ADD SLOAD PUSH1 0x0 PUSH1 0x46 DUP7 PUSH1 0x2 ADD PUSH1 0x1 SWAP1 SLOAD SWAP1 PUSH2 0x100 EXP SWAP1 DIV PUSH1 0xFF AND PUSH1 0xFF AND DUP2 SLOAD DUP2 LT PUSH2 0x1A65 JUMPI INVALID JUMPDEST SWAP1 PUSH1 0x0 MSTORE PUSH1 0x20 PUSH1 0x0 KECCAK256 ADD PUSH1 0x1 DUP2 SLOAD DUP2 LT PUSH2 0x1A7B JUMPI INVALID JUMPDEST PUSH1 0x0 SWAP2 DUP3 MSTORE PUSH1 0x20 SWAP2 DUP3 SWAP1 KECCAK256 SWAP2 DUP2 DIV SWAP1 SWAP2 ADD SLOAD PUSH1 0xFF PUSH1 0x1F SWAP1 SWAP3 AND PUSH2 0x100 EXP SWAP1 DIV AND PUSH2 0x3A79 JUMP JUMPDEST SWAP1 POP PUSH2 0x1AB0 DUP4 DUP5 PUSH1 0x6 ADD SLOAD PUSH2 0x39D0 JUMP JUMPDEST PUSH1 0x40 DUP3 ADD MLOAD PUSH1 0x1 DUP6 ADD SLOAD SWAP2 SWAP9 POP SWAP7 POP PUSH2 0x3E6 PUSH1 0x1 PUSH1 0x20 SHL SWAP1 SWAP2 DIV PUSH2 0xFFFF AND GT DUP1 ISZERO PUSH2 0x1AEC JUMPI POP PUSH1 0x1 DUP4 ADD SLOAD PUSH2 0x3EA PUSH1 0x1 PUSH1 0x20 SHL SWAP1 SWAP2 DIV PUSH2 0xFFFF AND LT JUMPDEST ISZERO PUSH2 0x1B4B JUMPI PUSH1 0x0 JUMPDEST PUSH1 0x4E SLOAD DUP2 LT ISZERO PUSH2 0x1B49 JUMPI PUSH1 0x0 PUSH1 0x4E DUP3 DUP2 SLOAD DUP2 LT PUSH2 0x1B0D JUMPI INVALID JUMPDEST SWAP1 PUSH1 0x0 MSTORE PUSH1 0x20 PUSH1 0x0 KECCAK256 SWAP1 PUSH1 0x3 MUL ADD SWAP1 POP DUP5 PUSH1 0x6 ADD SLOAD DUP2 PUSH1 0x0 ADD SLOAD GT ISZERO PUSH2 0x1B40 JUMPI PUSH2 0xBB6 DUP2 PUSH1 0x1 ADD SLOAD DUP2 PUSH2 0x1B3C JUMPI INVALID JUMPDEST DIV SWAP7 POP JUMPDEST POP PUSH1 0x1 ADD PUSH2 0x1AF4 JUMP JUMPDEST POP JUMPDEST PUSH2 0x3E8 DUP3 PUSH1 0x3 ADD SLOAD DUP5 PUSH1 0xA ADD SLOAD MUL DUP2 PUSH2 0x1B60 JUMPI INVALID JUMPDEST DIV DUP6 DUP3 PUSH1 0x40 ADD MLOAD DUP10 ADD ADD GT SWAP8 POP DUP8 PUSH2 0x1BDB JUMPI PUSH1 0x1 DUP4 ADD SLOAD PUSH1 0x5 PUSH1 0x1 PUSH1 0x20 SHL SWAP1 SWAP2 DIV PUSH2 0xFFFF AND LT ISZERO PUSH2 0x1B9F JUMPI DUP5 PUSH2 0x3E8 PUSH2 0x352 DUP10 DUP10 ADD MUL DIV ADD SWAP4 POP PUSH2 0x1BDB JUMP JUMPDEST PUSH1 0x1 DUP4 ADD SLOAD PUSH2 0x3E6 PUSH1 0x1 PUSH1 0x20 SHL SWAP1 SWAP2 DIV PUSH2 0xFFFF AND GT ISZERO PUSH2 0x1BCD JUMPI PUSH2 0x3E8 PUSH2 0x352 DUP9 DUP9 ADD DUP8 ADD MUL DIV SWAP4 POP PUSH2 0x1BDB JUMP JUMPDEST PUSH2 0x3E8 PUSH2 0x352 DUP9 DUP9 ADD MUL DIV SWAP4 POP JUMPDEST POP POP POP JUMPDEST SWAP4 SWAP11 SWAP3 SWAP10 POP SWAP1 SWAP8 POP SWAP6 POP SWAP1 SWAP4 POP SWAP2 POP POP JUMP JUMPDEST PUSH1 0x4 SLOAD SWAP1 JUMP JUMPDEST PUSH1 0x0 PUSH2 0x1C01 PUSH2 0x2084 JUMP JUMPDEST SWAP1 POP PUSH1 0x1 PUSH1 0x1 PUSH1 0xA0 SHL SUB DUP2 AND PUSH2 0x1C29 JUMPI PUSH1 0x40 MLOAD PUSH3 0x461BCD PUSH1 0xE5 SHL DUP2 MSTORE PUSH1 0x4 ADD PUSH2 0xBF3 SWAP1 PUSH2 0x4B3F JUMP JUMPDEST PUSH2 0xC44 DUP2 DUP4 PUSH2 0x26B5 JUMP JUMPDEST PUSH1 0x1 PUSH1 0x1 PUSH1 0xA0 SHL SUB SWAP2 DUP3 AND PUSH1 0x0 SWAP1 DUP2 MSTORE PUSH1 0x2 PUSH1 0x20 SWAP1 DUP2 MSTORE PUSH1 0x40 DUP1 DUP4 KECCAK256 SWAP4 SWAP1 SWAP5 AND DUP3 MSTORE SWAP2 SWAP1 SWAP2 MSTORE KECCAK256 SLOAD SWAP1 JUMP JUMPDEST PUSH1 0x0 PUSH2 0x1C68 PUSH2 0x2084 JUMP JUMPDEST SWAP1 POP PUSH1 0x1 PUSH1 0x1 PUSH1 0xA0 SHL SUB DUP2 AND PUSH2 0x1C90 JUMPI PUSH1 0x40 MLOAD PUSH3 0x461BCD PUSH1 0xE5 SHL DUP2 MSTORE PUSH1 0x4 ADD PUSH2 0xBF3 SWAP1 PUSH2 0x4B3F JUMP JUMPDEST PUSH2 0xC44 DUP2 DUP4 PUSH2 0x23B5 JUMP JUMPDEST PUSH1 0x40 DUP1 MLOAD PUSH1 0xA DUP1 DUP3 MSTORE PUSH2 0x160 DUP3 ADD SWAP1 SWAP3 MSTORE PUSH1 0x60 SWAP2 DUP3 SWAP2 DUP3 SWAP2 DUP3 SWAP2 SWAP1 PUSH1 0x20 DUP3 ADD PUSH2 0x140 DUP1 CALLDATASIZE DUP4 CALLDATACOPY POP POP PUSH1 0x40 DUP1 MLOAD PUSH1 0xA DUP1 DUP3 MSTORE PUSH2 0x160 DUP3 ADD SWAP1 SWAP3 MSTORE SWAP3 SWAP4 POP PUSH1 0x60 SWAP3 SWAP2 POP PUSH1 0x20 DUP3 ADD PUSH2 0x140 DUP1 CALLDATASIZE DUP4 CALLDATACOPY POP POP PUSH1 0x40 DUP1 MLOAD PUSH1 0xA DUP1 DUP3 MSTORE PUSH2 0x160 DUP3 ADD SWAP1 SWAP3 MSTORE SWAP3 SWAP4 POP PUSH1 0x60 SWAP3 SWAP2 POP PUSH1 0x20 DUP3 ADD PUSH2 0x140 DUP1 CALLDATASIZE DUP4 CALLDATACOPY ADD SWAP1 POP POP SWAP1 POP PUSH1 0x0 DUP1 DUP1 JUMPDEST PUSH1 0xA DUP2 LT ISZERO PUSH2 0x1E35 JUMPI PUSH1 0x5D DUP2 DUP2 SLOAD DUP2 LT PUSH2 0x1D2D JUMPI INVALID JUMPDEST PUSH1 0x0 SWAP2 DUP3 MSTORE PUSH1 0x20 SWAP1 SWAP2 KECCAK256 ADD SLOAD PUSH1 0x1 PUSH1 0x1 PUSH1 0xA0 SHL SUB AND SWAP2 POP DUP2 ISZERO DUP1 ISZERO SWAP1 PUSH2 0x1D73 JUMPI POP PUSH1 0x1 PUSH1 0x1 PUSH1 0xA0 SHL SUB DUP3 AND PUSH1 0x0 SWAP1 DUP2 MSTORE PUSH1 0x58 PUSH1 0x20 MSTORE PUSH1 0x40 SWAP1 KECCAK256 PUSH1 0x3 ADD SLOAD NUMBER PUSH2 0x2580 SWAP1 SWAP2 ADD GT JUMPDEST ISZERO PUSH2 0x1E2D JUMPI DUP2 DUP7 DUP5 DUP2 MLOAD DUP2 LT PUSH2 0x1D85 JUMPI INVALID JUMPDEST PUSH1 0x20 MUL PUSH1 0x20 ADD ADD SWAP1 PUSH1 0x1 PUSH1 0x1 PUSH1 0xA0 SHL SUB AND SWAP1 DUP2 PUSH1 0x1 PUSH1 0x1 PUSH1 0xA0 SHL SUB AND DUP2 MSTORE POP POP PUSH1 0x58 PUSH1 0x0 DUP4 PUSH1 0x1 PUSH1 0x1 PUSH1 0xA0 SHL SUB AND PUSH1 0x1 PUSH1 0x1 PUSH1 0xA0 SHL SUB AND DUP2 MSTORE PUSH1 0x20 ADD SWAP1 DUP2 MSTORE PUSH1 0x20 ADD PUSH1 0x0 KECCAK256 PUSH1 0x2 ADD SLOAD DUP6 DUP5 DUP2 MLOAD DUP2 LT PUSH2 0x1DDA JUMPI INVALID JUMPDEST PUSH1 0x20 MUL PUSH1 0x20 ADD ADD DUP2 DUP2 MSTORE POP POP PUSH1 0x58 PUSH1 0x0 DUP4 PUSH1 0x1 PUSH1 0x1 PUSH1 0xA0 SHL SUB AND PUSH1 0x1 PUSH1 0x1 PUSH1 0xA0 SHL SUB AND DUP2 MSTORE PUSH1 0x20 ADD SWAP1 DUP2 MSTORE PUSH1 0x20 ADD PUSH1 0x0 KECCAK256 PUSH1 0x3 ADD SLOAD DUP5 DUP5 DUP2 MLOAD DUP2 LT PUSH2 0x1E1B JUMPI INVALID JUMPDEST PUSH1 0x20 SWAP1 DUP2 MUL SWAP2 SWAP1 SWAP2 ADD ADD MSTORE PUSH1 0x1 SWAP1 SWAP3 ADD SWAP2 JUMPDEST PUSH1 0x1 ADD PUSH2 0x1D17 JUMP JUMPDEST POP SWAP4 SWAP7 POP SWAP2 SWAP5 POP SWAP3 POP POP POP SWAP1 SWAP2 SWAP3 JUMP JUMPDEST PUSH1 0x0 PUSH2 0x1E4F PUSH2 0x2084 JUMP JUMPDEST SWAP1 POP PUSH1 0x1 PUSH1 0x1 PUSH1 0xA0 SHL SUB DUP2 AND PUSH2 0x1E77 JUMPI PUSH1 0x40 MLOAD PUSH3 0x461BCD PUSH1 0xE5 SHL DUP2 MSTORE PUSH1 0x4 ADD PUSH2 0xBF3 SWAP1 PUSH2 0x4B3F JUMP JUMPDEST PUSH2 0x1E80 DUP2 PUSH2 0x2F34 JUMP JUMPDEST POP JUMP JUMPDEST CALLER PUSH2 0x1E8C PUSH2 0x156F JUMP JUMPDEST PUSH1 0x1 PUSH1 0x1 PUSH1 0xA0 SHL SUB AND EQ PUSH2 0x1EB2 JUMPI PUSH1 0x40 MLOAD PUSH3 0x461BCD PUSH1 0xE5 SHL DUP2 MSTORE PUSH1 0x4 ADD PUSH2 0xBF3 SWAP1 PUSH2 0x4C8F JUMP JUMPDEST PUSH1 0xA DUP1 SLOAD PUSH1 0x1 PUSH1 0x1 PUSH1 0xA0 SHL SUB SWAP6 DUP7 AND PUSH1 0x1 PUSH1 0x1 PUSH1 0xA0 SHL SUB NOT SWAP2 DUP3 AND OR SWAP1 SWAP2 SSTORE PUSH1 0x12 DUP1 SLOAD SWAP5 DUP7 AND SWAP5 DUP3 AND SWAP5 SWAP1 SWAP5 OR SWAP1 SWAP4 SSTORE PUSH1 0xE DUP1 SLOAD SWAP3 DUP6 AND SWAP3 DUP5 AND SWAP3 SWAP1 SWAP3 OR SWAP1 SWAP2 SSTORE PUSH1 0x4F DUP1 SLOAD SWAP2 SWAP1 SWAP4 AND SWAP2 AND OR SWAP1 SSTORE JUMP JUMPDEST PUSH2 0x1F0A PUSH2 0x2084 JUMP JUMPDEST PUSH1 0x0 SLOAD PUSH1 0x1 PUSH1 0x1 PUSH1 0xA0 SHL SUB SWAP1 DUP2 AND SWAP2 AND EQ PUSH2 0x1F37 JUMPI PUSH1 0x40 MLOAD PUSH3 0x461BCD PUSH1 0xE5 SHL DUP2 MSTORE PUSH1 0x4 ADD PUSH2 0xBF3 SWAP1 PUSH2 0x4C8F JUMP JUMPDEST PUSH2 0x1E80 DUP2 PUSH2 0x3D95 JUMP JUMPDEST PUSH1 0x7 DUP1 SLOAD PUSH1 0x1 PUSH1 0x1 PUSH1 0xA0 SHL SUB SWAP7 DUP8 AND PUSH2 0x100 MUL PUSH2 0x100 PUSH1 0x1 PUSH1 0xA8 SHL SUB NOT SWAP1 SWAP2 AND OR SWAP1 SSTORE PUSH1 0xA DUP1 SLOAD SWAP5 DUP7 AND PUSH1 0x1 PUSH1 0x1 PUSH1 0xA0 SHL SUB NOT SWAP6 DUP7 AND OR SWAP1 SSTORE PUSH1 0x12 DUP1 SLOAD SWAP4 DUP7 AND SWAP4 DUP6 AND SWAP4 SWAP1 SWAP4 OR SWAP1 SWAP3 SSTORE PUSH1 0xE DUP1 SLOAD SWAP2 DUP6 AND SWAP2 DUP5 AND SWAP2 SWAP1 SWAP2 OR SWAP1 SSTORE PUSH1 0x4F DUP1 SLOAD SWAP2 SWAP1 SWAP4 AND SWAP2 AND OR SWAP1 SSTORE JUMP JUMPDEST PUSH1 0x47 SLOAD PUSH1 0x1 PUSH1 0x1 PUSH1 0xA0 SHL SUB AND DUP2 JUMP JUMPDEST PUSH1 0x1 PUSH1 0x1 PUSH1 0xA0 SHL SUB DUP1 DUP3 AND PUSH1 0x0 SWAP1 DUP2 MSTORE PUSH1 0x49 PUSH1 0x20 SWAP1 DUP2 MSTORE PUSH1 0x40 DUP1 DUP4 KECCAK256 PUSH1 0xD DUP2 ADD SLOAD PUSH1 0xE SWAP1 SWAP2 ADD DUP1 SLOAD DUP4 MLOAD DUP2 DUP7 MUL DUP2 ADD DUP7 ADD SWAP1 SWAP5 MSTORE DUP1 DUP5 MSTORE SWAP5 SWAP6 DUP7 SWAP6 PUSH1 0x60 SWAP6 PUSH2 0xFFFF PUSH1 0x1 PUSH1 0xA0 SHL DUP7 DIV AND SWAP6 SWAP5 SWAP1 SWAP3 AND SWAP4 SWAP2 DUP4 SWAP2 SWAP1 DUP4 ADD DUP3 DUP3 DUP1 ISZERO PUSH2 0x2044 JUMPI PUSH1 0x20 MUL DUP3 ADD SWAP2 SWAP1 PUSH1 0x0 MSTORE PUSH1 0x20 PUSH1 0x0 KECCAK256 SWAP1 JUMPDEST DUP2 SLOAD PUSH1 0x1 PUSH1 0x1 PUSH1 0xA0 SHL SUB AND DUP2 MSTORE PUSH1 0x1 SWAP1 SWAP2 ADD SWAP1 PUSH1 0x20 ADD DUP1 DUP4 GT PUSH2 0x2026 JUMPI JUMPDEST POP POP POP POP POP SWAP1 POP SWAP3 POP SWAP3 POP SWAP3 POP SWAP2 SWAP4 SWAP1 SWAP3 POP JUMP JUMPDEST PUSH1 0x0 DUP3 DUP3 ADD DUP4 DUP2 LT ISZERO PUSH2 0x207D JUMPI PUSH1 0x40 MLOAD PUSH3 0x461BCD PUSH1 0xE5 SHL DUP2 MSTORE PUSH1 0x4 ADD PUSH2 0xBF3 SWAP1 PUSH2 0x4AAD JUMP JUMPDEST SWAP4 SWAP3 POP POP POP JUMP JUMPDEST CALLER SWAP1 JUMP JUMPDEST PUSH1 0x1 PUSH1 0x1 PUSH1 0xA0 SHL SUB DUP4 AND PUSH2 0x20AE JUMPI PUSH1 0x40 MLOAD PUSH3 0x461BCD PUSH1 0xE5 SHL DUP2 MSTORE PUSH1 0x4 ADD PUSH2 0xBF3 SWAP1 PUSH2 0x4E05 JUMP JUMPDEST PUSH1 0x1 PUSH1 0x1 PUSH1 0xA0 SHL SUB DUP3 AND PUSH2 0x20D4 JUMPI PUSH1 0x40 MLOAD PUSH3 0x461BCD PUSH1 0xE5 SHL DUP2 MSTORE PUSH1 0x4 ADD PUSH2 0xBF3 SWAP1 PUSH2 0x49BA JUMP JUMPDEST PUSH1 0x1 PUSH1 0x1 PUSH1 0xA0 SHL SUB DUP1 DUP5 AND PUSH1 0x0 DUP2 DUP2 MSTORE PUSH1 0x2 PUSH1 0x20 SWAP1 DUP2 MSTORE PUSH1 0x40 DUP1 DUP4 KECCAK256 SWAP5 DUP8 AND DUP1 DUP5 MSTORE SWAP5 SWAP1 SWAP2 MSTORE SWAP1 DUP2 SWAP1 KECCAK256 DUP5 SWAP1 SSTORE MLOAD PUSH32 0x8C5BE1E5EBEC7D5BD14F71427D1E84F3DD0314C0F7B2291E5B200AC8C7C3B925 SWAP1 PUSH2 0x212F SWAP1 DUP6 SWAP1 PUSH2 0x4ECB JUMP JUMPDEST PUSH1 0x40 MLOAD DUP1 SWAP2 SUB SWAP1 LOG3 POP POP POP JUMP JUMPDEST PUSH1 0x0 PUSH2 0x3E8 PUSH2 0x2149 PUSH2 0x3E16 JUMP JUMPDEST PUSH1 0x32 MUL DUP2 PUSH2 0x2153 JUMPI INVALID JUMPDEST DIV SWAP1 POP SWAP1 JUMP JUMPDEST PUSH1 0x0 PUSH1 0x3 DUP3 GT ISZERO PUSH2 0x217C JUMPI PUSH1 0x40 MLOAD PUSH3 0x461BCD PUSH1 0xE5 SHL DUP2 MSTORE PUSH1 0x4 ADD PUSH2 0xBF3 SWAP1 PUSH2 0x4C69 JUMP JUMPDEST PUSH1 0x18 SLOAD PUSH1 0x57 DUP1 SLOAD PUSH2 0x3E8 SWAP3 PUSH1 0x1 PUSH1 0x40 SHL SWAP1 DIV PUSH2 0xFFFF AND SWAP2 SWAP1 DUP6 SWAP1 DUP2 LT PUSH2 0x219E JUMPI INVALID JUMPDEST SWAP1 PUSH1 0x0 MSTORE PUSH1 0x20 PUSH1 0x0 KECCAK256 ADD PUSH1 0x0 DUP2 SLOAD DUP2 LT PUSH2 0x21B4 JUMPI INVALID JUMPDEST SWAP1 PUSH1 0x0 MSTORE PUSH1 0x20 PUSH1 0x0 KECCAK256 ADD SLOAD MUL DUP2 PUSH2 0x21C7 JUMPI INVALID JUMPDEST DIV PUSH1 0x57 DUP4 DUP2 SLOAD DUP2 LT PUSH2 0x21D5 JUMPI INVALID JUMPDEST SWAP1 PUSH1 0x0 MSTORE PUSH1 0x20 PUSH1 0x0 KECCAK256 ADD PUSH1 0x0 DUP2 SLOAD DUP2 LT PUSH2 0x21EB JUMPI INVALID JUMPDEST SWAP1 PUSH1 0x0 MSTORE PUSH1 0x20 PUSH1 0x0 KECCAK256 ADD SLOAD ADD SWAP1 POP SWAP2 SWAP1 POP JUMP JUMPDEST PUSH1 0x1 PUSH1 0x1 PUSH1 0xA0 SHL SUB DUP2 AND PUSH1 0x0 SWAP1 DUP2 MSTORE PUSH1 0x58 PUSH1 0x20 MSTORE PUSH1 0x40 DUP2 KECCAK256 PUSH1 0x3 DUP2 ADD SLOAD DUP3 SWAP2 SWAP1 ISZERO PUSH2 0x226F JUMPI DUP1 SLOAD PUSH2 0x226F JUMPI PUSH1 0x3 DUP2 ADD SLOAD NUMBER SUB PUSH2 0x2580 DUP2 GT ISZERO PUSH2 0x223F JUMPI POP PUSH2 0x2580 JUMPDEST DUP1 PUSH1 0x5A SLOAD PUSH2 0x7080 MUL DUP4 PUSH1 0x2 ADD SLOAD PUSH1 0x9 SLOAD DUP5 PUSH2 0xBB80 MUL MUL MUL DUP2 PUSH2 0x225D JUMPI INVALID JUMPDEST DIV DUP4 PUSH1 0x5 ADD SLOAD ADD SWAP4 POP SWAP4 POP POP POP PUSH2 0x227A JUMP JUMPDEST PUSH1 0x5 ADD SLOAD PUSH1 0x0 SWAP3 POP SWAP1 POP JUMPDEST SWAP2 POP SWAP2 JUMP JUMPDEST PUSH1 0x1 PUSH1 0x1 PUSH1 0xA0 SHL SUB DUP4 AND PUSH2 0x22A5 JUMPI PUSH1 0x40 MLOAD PUSH3 0x461BCD PUSH1 0xE5 SHL DUP2 MSTORE PUSH1 0x4 ADD PUSH2 0xBF3 SWAP1 PUSH2 0x4A42 JUMP JUMPDEST PUSH1 0x1 PUSH1 0x1 PUSH1 0xA0 SHL SUB DUP3 AND PUSH2 0x22CB JUMPI PUSH1 0x40 MLOAD PUSH3 0x461BCD PUSH1 0xE5 SHL DUP2 MSTORE PUSH1 0x4 ADD PUSH2 0xBF3 SWAP1 PUSH2 0x4CC4 JUMP JUMPDEST PUSH2 0x2308 DUP2 PUSH1 0x40 MLOAD DUP1 PUSH1 0x60 ADD PUSH1 0x40 MSTORE DUP1 PUSH1 0x26 DUP2 MSTORE PUSH1 0x20 ADD PUSH2 0x4F72 PUSH1 0x26 SWAP2 CODECOPY PUSH1 0x1 PUSH1 0x1 PUSH1 0xA0 SHL SUB DUP7 AND PUSH1 0x0 SWAP1 DUP2 MSTORE PUSH1 0x1 PUSH1 0x20 MSTORE PUSH1 0x40 SWAP1 KECCAK256 SLOAD SWAP2 SWAP1 PUSH2 0x2389 JUMP JUMPDEST PUSH1 0x1 PUSH1 0x1 PUSH1 0xA0 SHL SUB DUP1 DUP6 AND PUSH1 0x0 SWAP1 DUP2 MSTORE PUSH1 0x1 PUSH1 0x20 MSTORE PUSH1 0x40 DUP1 DUP3 KECCAK256 SWAP4 SWAP1 SWAP4 SSTORE SWAP1 DUP5 AND DUP2 MSTORE KECCAK256 SLOAD PUSH2 0x2337 SWAP1 DUP3 PUSH2 0x2058 JUMP JUMPDEST PUSH1 0x1 PUSH1 0x1 PUSH1 0xA0 SHL SUB DUP1 DUP5 AND PUSH1 0x0 DUP2 DUP2 MSTORE PUSH1 0x1 PUSH1 0x20 MSTORE PUSH1 0x40 SWAP1 DUP2 SWAP1 KECCAK256 SWAP4 SWAP1 SWAP4 SSTORE SWAP2 MLOAD SWAP1 DUP6 AND SWAP1 PUSH32 0xDDF252AD1BE2C89B69C2B068FC378DAA952BA7F163C4A11628F55A4DF523B3EF SWAP1 PUSH2 0x212F SWAP1 DUP6 SWAP1 PUSH2 0x4ECB JUMP JUMPDEST PUSH1 0x0 DUP2 DUP5 DUP5 GT ISZERO PUSH2 0x23AD JUMPI PUSH1 0x40 MLOAD PUSH3 0x461BCD PUSH1 0xE5 SHL DUP2 MSTORE PUSH1 0x4 ADD PUSH2 0xBF3 SWAP2 SWAP1 PUSH2 0x4894 JUMP JUMPDEST POP POP POP SWAP1 SUB SWAP1 JUMP JUMPDEST PUSH1 0x0 PUSH1 0x9 SLOAD PUSH1 0x17 SLOAD DUP4 MUL DUP2 PUSH2 0x23C6 JUMPI INVALID JUMPDEST DIV SWAP1 POP PUSH2 0x23D4 DUP4 ADDRESS DUP5 PUSH2 0x227F JUMP JUMPDEST PUSH1 0x0 DUP2 PUSH1 0x52 SLOAD LT PUSH2 0x23F1 JUMPI POP PUSH1 0x52 DUP1 SLOAD DUP3 SWAP1 SUB SWAP1 SSTORE PUSH1 0x0 SWAP1 PUSH2 0x2401 JUMP JUMPDEST POP PUSH1 0x52 DUP1 SLOAD PUSH1 0x0 SWAP1 SWAP2 SSTORE SWAP1 DUP2 SWAP1 SUB SWAP1 JUMPDEST DUP1 ISZERO PUSH2 0x265E JUMPI PUSH1 0x7 SLOAD PUSH2 0x242B SWAP1 PUSH2 0x100 SWAP1 DIV PUSH1 0x1 PUSH1 0x1 PUSH1 0xA0 SHL SUB AND DUP6 PUSH2 0x3E8 PUSH2 0x3E6 DUP6 MUL DIV PUSH2 0x2AFA JUMP JUMPDEST PUSH1 0x9 PUSH1 0x55 SLOAD GT ISZERO PUSH2 0x258D JUMPI PUSH1 0x0 JUMPDEST PUSH1 0x9 DUP2 LT ISZERO PUSH2 0x258B JUMPI PUSH1 0x54 DUP2 PUSH1 0x1 ADD DUP2 SLOAD DUP2 LT PUSH2 0x2452 JUMPI INVALID JUMPDEST PUSH1 0x0 SWAP2 DUP3 MSTORE PUSH1 0x20 DUP3 KECCAK256 PUSH1 0xA SWAP1 SWAP2 MUL ADD ADD SLOAD PUSH1 0x54 DUP3 DUP2 SLOAD DUP2 LT PUSH2 0x2470 JUMPI INVALID JUMPDEST PUSH1 0x0 SWAP2 DUP3 MSTORE PUSH1 0x20 DUP3 KECCAK256 PUSH1 0xA SWAP1 SWAP2 MUL ADD ADD SSTORE PUSH1 0x54 DUP1 SLOAD PUSH1 0x1 DUP4 ADD SWAP1 DUP2 LT PUSH2 0x2492 JUMPI INVALID JUMPDEST SWAP1 PUSH1 0x0 MSTORE PUSH1 0x20 PUSH1 0x0 KECCAK256 SWAP1 PUSH1 0xA MUL ADD PUSH1 0x1 PUSH1 0xA DUP2 LT PUSH2 0x24AC JUMPI INVALID JUMPDEST ADD SLOAD PUSH1 0x54 DUP3 DUP2 SLOAD DUP2 LT PUSH2 0x24BB JUMPI INVALID JUMPDEST SWAP1 PUSH1 0x0 MSTORE PUSH1 0x20 PUSH1 0x0 KECCAK256 SWAP1 PUSH1 0xA MUL ADD PUSH1 0x1 PUSH1 0xA DUP2 LT PUSH2 0x24D5 JUMPI INVALID JUMPDEST ADD SSTORE PUSH1 0x54 DUP1 SLOAD PUSH1 0x1 DUP4 ADD SWAP1 DUP2 LT PUSH2 0x24E8 JUMPI INVALID JUMPDEST SWAP1 PUSH1 0x0 MSTORE PUSH1 0x20 PUSH1 0x0 KECCAK256 SWAP1 PUSH1 0xA MUL ADD PUSH1 0x2 PUSH1 0xA DUP2 LT PUSH2 0x2502 JUMPI INVALID JUMPDEST ADD SLOAD PUSH1 0x54 DUP3 DUP2 SLOAD DUP2 LT PUSH2 0x2511 JUMPI INVALID JUMPDEST SWAP1 PUSH1 0x0 MSTORE PUSH1 0x20 PUSH1 0x0 KECCAK256 SWAP1 PUSH1 0xA MUL ADD PUSH1 0x2 PUSH1 0xA DUP2 LT PUSH2 0x252B JUMPI INVALID JUMPDEST ADD SSTORE PUSH1 0x54 DUP1 SLOAD PUSH1 0x1 DUP4 ADD SWAP1 DUP2 LT PUSH2 0x253E JUMPI INVALID JUMPDEST SWAP1 PUSH1 0x0 MSTORE PUSH1 0x20 PUSH1 0x0 KECCAK256 SWAP1 PUSH1 0xA MUL ADD PUSH1 0x3 PUSH1 0xA DUP2 LT PUSH2 0x2558 JUMPI INVALID JUMPDEST ADD SLOAD PUSH1 0x54 DUP3 DUP2 SLOAD DUP2 LT PUSH2 0x2567 JUMPI INVALID JUMPDEST SWAP1 PUSH1 0x0 MSTORE PUSH1 0x20 PUSH1 0x0 KECCAK256 SWAP1 PUSH1 0xA MUL ADD PUSH1 0x3 PUSH1 0xA DUP2 LT PUSH2 0x2581 JUMPI INVALID JUMPDEST ADD SSTORE PUSH1 0x1 ADD PUSH2 0x2439 JUMP JUMPDEST POP JUMPDEST PUSH1 0x0 PUSH1 0x9 PUSH1 0x55 SLOAD GT PUSH2 0x25A1 JUMPI PUSH1 0x55 SLOAD PUSH2 0x25A4 JUMP JUMPDEST PUSH1 0x9 JUMPDEST SWAP1 POP PUSH1 0x55 SLOAD PUSH2 0x2711 ADD PUSH1 0x54 DUP3 DUP2 SLOAD DUP2 LT PUSH2 0x25BA JUMPI INVALID JUMPDEST PUSH1 0x0 SWAP2 DUP3 MSTORE PUSH1 0x20 DUP3 KECCAK256 PUSH1 0xA SWAP1 SWAP2 MUL ADD ADD DUP2 SWAP1 SSTORE POP PUSH1 0x1 PUSH1 0x54 DUP3 DUP2 SLOAD DUP2 LT PUSH2 0x25DD JUMPI INVALID JUMPDEST SWAP1 PUSH1 0x0 MSTORE PUSH1 0x20 PUSH1 0x0 KECCAK256 SWAP1 PUSH1 0xA MUL ADD PUSH1 0x1 PUSH1 0xA DUP2 LT PUSH2 0x25F7 JUMPI INVALID JUMPDEST ADD DUP2 SWAP1 SSTORE POP DUP2 PUSH1 0x54 DUP3 DUP2 SLOAD DUP2 LT PUSH2 0x260A JUMPI INVALID JUMPDEST SWAP1 PUSH1 0x0 MSTORE PUSH1 0x20 PUSH1 0x0 KECCAK256 SWAP1 PUSH1 0xA MUL ADD PUSH1 0x2 PUSH1 0xA DUP2 LT PUSH2 0x2624 JUMPI INVALID JUMPDEST ADD DUP2 SWAP1 SSTORE POP TIMESTAMP PUSH1 0x54 DUP3 DUP2 SLOAD DUP2 LT PUSH2 0x2637 JUMPI INVALID JUMPDEST SWAP1 PUSH1 0x0 MSTORE PUSH1 0x20 PUSH1 0x0 KECCAK256 SWAP1 PUSH1 0xA MUL ADD PUSH1 0x3 PUSH1 0xA DUP2 LT PUSH2 0x2651 JUMPI INVALID JUMPDEST ADD SSTORE POP PUSH1 0x55 DUP1 SLOAD PUSH1 0x1 ADD SWAP1 SSTORE JUMPDEST DUP2 ISZERO PUSH2 0x26A7 JUMPI PUSH1 0x1 PUSH1 0x1 PUSH1 0xA0 SHL SUB DUP5 AND PUSH1 0x0 SWAP1 DUP2 MSTORE PUSH1 0x56 PUSH1 0x20 MSTORE PUSH1 0x40 SWAP1 KECCAK256 TIMESTAMP DUP2 SSTORE PUSH1 0x1 DUP2 ADD DUP1 SLOAD DUP6 ADD SWAP1 SSTORE PUSH1 0x17 SLOAD PUSH1 0x9 SLOAD DUP5 MUL DUP2 PUSH2 0x2698 JUMPI INVALID JUMPDEST DIV DUP2 PUSH1 0x2 JUMPDEST ADD DUP1 SLOAD SWAP1 SWAP2 ADD SWAP1 SSTORE POP JUMPDEST PUSH2 0x26AF PUSH2 0x2A7B JUMP JUMPDEST POP POP POP POP JUMP JUMPDEST PUSH1 0x7 SLOAD PUSH2 0x26D2 SWAP1 PUSH2 0x100 SWAP1 DIV PUSH1 0x1 PUSH1 0x1 PUSH1 0xA0 SHL SUB AND DUP4 ADDRESS DUP5 PUSH2 0x3E9C JUMP JUMPDEST PUSH1 0x0 PUSH1 0x17 SLOAD PUSH1 0x9 SLOAD DUP4 MUL DUP2 PUSH2 0x26E3 JUMPI INVALID JUMPDEST DIV SWAP1 POP PUSH1 0x0 DUP2 PUSH1 0x53 SLOAD LT PUSH2 0x2703 JUMPI POP PUSH1 0x53 DUP1 SLOAD DUP3 SWAP1 SUB SWAP1 SSTORE PUSH1 0x0 SWAP1 PUSH2 0x2713 JUMP JUMPDEST POP PUSH1 0x53 DUP1 SLOAD PUSH1 0x0 SWAP1 SWAP2 SSTORE SWAP1 DUP2 SWAP1 SUB SWAP1 JUMPDEST DUP1 ISZERO PUSH2 0x2957 JUMPI PUSH2 0x2724 ADDRESS DUP6 DUP4 PUSH2 0x227F JUMP JUMPDEST PUSH1 0x9 PUSH1 0x55 SLOAD GT ISZERO PUSH2 0x2886 JUMPI PUSH1 0x0 JUMPDEST PUSH1 0x9 DUP2 LT ISZERO PUSH2 0x2884 JUMPI PUSH1 0x54 DUP2 PUSH1 0x1 ADD DUP2 SLOAD DUP2 LT PUSH2 0x274B JUMPI INVALID JUMPDEST PUSH1 0x0 SWAP2 DUP3 MSTORE PUSH1 0x20 DUP3 KECCAK256 PUSH1 0xA SWAP1 SWAP2 MUL ADD ADD SLOAD PUSH1 0x54 DUP3 DUP2 SLOAD DUP2 LT PUSH2 0x2769 JUMPI INVALID JUMPDEST PUSH1 0x0 SWAP2 DUP3 MSTORE PUSH1 0x20 DUP3 KECCAK256 PUSH1 0xA SWAP1 SWAP2 MUL ADD ADD SSTORE PUSH1 0x54 DUP1 SLOAD PUSH1 0x1 DUP4 ADD SWAP1 DUP2 LT PUSH2 0x278B JUMPI INVALID JUMPDEST SWAP1 PUSH1 0x0 MSTORE PUSH1 0x20 PUSH1 0x0 KECCAK256 SWAP1 PUSH1 0xA MUL ADD PUSH1 0x1 PUSH1 0xA DUP2 LT PUSH2 0x27A5 JUMPI INVALID JUMPDEST ADD SLOAD PUSH1 0x54 DUP3 DUP2 SLOAD DUP2 LT PUSH2 0x27B4 JUMPI INVALID JUMPDEST SWAP1 PUSH1 0x0 MSTORE PUSH1 0x20 PUSH1 0x0 KECCAK256 SWAP1 PUSH1 0xA MUL ADD PUSH1 0x1 PUSH1 0xA DUP2 LT PUSH2 0x27CE JUMPI INVALID JUMPDEST ADD SSTORE PUSH1 0x54 DUP1 SLOAD PUSH1 0x1 DUP4 ADD SWAP1 DUP2 LT PUSH2 0x27E1 JUMPI INVALID JUMPDEST SWAP1 PUSH1 0x0 MSTORE PUSH1 0x20 PUSH1 0x0 KECCAK256 SWAP1 PUSH1 0xA MUL ADD PUSH1 0x2 PUSH1 0xA DUP2 LT PUSH2 0x27FB JUMPI INVALID JUMPDEST ADD SLOAD PUSH1 0x54 DUP3 DUP2 SLOAD DUP2 LT PUSH2 0x280A JUMPI INVALID JUMPDEST SWAP1 PUSH1 0x0 MSTORE PUSH1 0x20 PUSH1 0x0 KECCAK256 SWAP1 PUSH1 0xA MUL ADD PUSH1 0x2 PUSH1 0xA DUP2 LT PUSH2 0x2824 JUMPI INVALID JUMPDEST ADD SSTORE PUSH1 0x54 DUP1 SLOAD PUSH1 0x1 DUP4 ADD SWAP1 DUP2 LT PUSH2 0x2837 JUMPI INVALID JUMPDEST SWAP1 PUSH1 0x0 MSTORE PUSH1 0x20 PUSH1 0x0 KECCAK256 SWAP1 PUSH1 0xA MUL ADD PUSH1 0x3 PUSH1 0xA DUP2 LT PUSH2 0x2851 JUMPI INVALID JUMPDEST ADD SLOAD PUSH1 0x54 DUP3 DUP2 SLOAD DUP2 LT PUSH2 0x2860 JUMPI INVALID JUMPDEST SWAP1 PUSH1 0x0 MSTORE PUSH1 0x20 PUSH1 0x0 KECCAK256 SWAP1 PUSH1 0xA MUL ADD PUSH1 0x3 PUSH1 0xA DUP2 LT PUSH2 0x287A JUMPI INVALID JUMPDEST ADD SSTORE PUSH1 0x1 ADD PUSH2 0x2732 JUMP JUMPDEST POP JUMPDEST PUSH1 0x0 PUSH1 0x9 PUSH1 0x55 SLOAD GT PUSH2 0x289A JUMPI PUSH1 0x55 SLOAD PUSH2 0x289D JUMP JUMPDEST PUSH1 0x9 JUMPDEST SWAP1 POP PUSH1 0x55 SLOAD PUSH2 0x2711 ADD PUSH1 0x54 DUP3 DUP2 SLOAD DUP2 LT PUSH2 0x28B3 JUMPI INVALID JUMPDEST PUSH1 0x0 SWAP2 DUP3 MSTORE PUSH1 0x20 DUP3 KECCAK256 PUSH1 0xA SWAP1 SWAP2 MUL ADD ADD DUP2 SWAP1 SSTORE POP PUSH1 0x1 PUSH1 0x54 DUP3 DUP2 SLOAD DUP2 LT PUSH2 0x28D6 JUMPI INVALID JUMPDEST SWAP1 PUSH1 0x0 MSTORE PUSH1 0x20 PUSH1 0x0 KECCAK256 SWAP1 PUSH1 0xA MUL ADD PUSH1 0x1 PUSH1 0xA DUP2 LT PUSH2 0x28F0 JUMPI INVALID JUMPDEST ADD DUP2 SWAP1 SSTORE POP DUP2 PUSH1 0x54 DUP3 DUP2 SLOAD DUP2 LT PUSH2 0x2903 JUMPI INVALID JUMPDEST SWAP1 PUSH1 0x0 MSTORE PUSH1 0x20 PUSH1 0x0 KECCAK256 SWAP1 PUSH1 0xA MUL ADD PUSH1 0x2 PUSH1 0xA DUP2 LT PUSH2 0x291D JUMPI INVALID JUMPDEST ADD DUP2 SWAP1 SSTORE POP TIMESTAMP PUSH1 0x54 DUP3 DUP2 SLOAD DUP2 LT PUSH2 0x2930 JUMPI INVALID JUMPDEST SWAP1 PUSH1 0x0 MSTORE PUSH1 0x20 PUSH1 0x0 KECCAK256 SWAP1 PUSH1 0xA MUL ADD PUSH1 0x3 PUSH1 0xA DUP2 LT PUSH2 0x294A JUMPI INVALID JUMPDEST ADD SSTORE POP PUSH1 0x55 DUP1 SLOAD PUSH1 0x1 ADD SWAP1 SSTORE JUMPDEST DUP2 ISZERO PUSH2 0x26A7 JUMPI PUSH1 0x1 PUSH1 0x1 PUSH1 0xA0 SHL SUB DUP5 AND PUSH1 0x0 SWAP1 DUP2 MSTORE PUSH1 0x56 PUSH1 0x20 MSTORE PUSH1 0x40 SWAP1 KECCAK256 TIMESTAMP DUP2 SSTORE PUSH1 0x3 DUP2 ADD DUP1 SLOAD DUP6 ADD SWAP1 SSTORE PUSH1 0x9 SLOAD PUSH1 0x17 SLOAD DUP5 MUL DUP2 PUSH2 0x2991 JUMPI INVALID JUMPDEST DIV DUP2 PUSH1 0x4 PUSH2 0x269D JUMP JUMPDEST PUSH1 0x1 PUSH1 0x1 PUSH1 0xA0 SHL SUB DUP3 AND PUSH2 0x29C0 JUMPI PUSH1 0x40 MLOAD PUSH3 0x461BCD PUSH1 0xE5 SHL DUP2 MSTORE PUSH1 0x4 ADD PUSH2 0xBF3 SWAP1 PUSH2 0x4B08 JUMP JUMPDEST PUSH1 0x4 SLOAD PUSH1 0x3 SLOAD PUSH2 0x29D0 SWAP1 DUP4 PUSH2 0x2058 JUMP JUMPDEST LT PUSH2 0x29ED JUMPI PUSH1 0x40 MLOAD PUSH3 0x461BCD PUSH1 0xE5 SHL DUP2 MSTORE PUSH1 0x4 ADD PUSH2 0xBF3 SWAP1 PUSH2 0x4C34 JUMP JUMPDEST PUSH1 0x3 SLOAD PUSH2 0x29FA SWAP1 DUP3 PUSH2 0x2058 JUMP JUMPDEST PUSH1 0x3 SSTORE PUSH1 0x1 PUSH1 0x1 PUSH1 0xA0 SHL SUB DUP3 AND PUSH1 0x0 SWAP1 DUP2 MSTORE PUSH1 0x1 PUSH1 0x20 MSTORE PUSH1 0x40 SWAP1 KECCAK256 SLOAD PUSH2 0x2A20 SWAP1 DUP3 PUSH2 0x2058 JUMP JUMPDEST PUSH1 0x1 PUSH1 0x1 PUSH1 0xA0 SHL SUB DUP4 AND PUSH1 0x0 DUP2 DUP2 MSTORE PUSH1 0x1 PUSH1 0x20 MSTORE PUSH1 0x40 DUP1 DUP3 KECCAK256 SWAP4 SWAP1 SWAP4 SSTORE SWAP2 MLOAD SWAP1 SWAP2 SWAP1 PUSH32 0xDDF252AD1BE2C89B69C2B068FC378DAA952BA7F163C4A11628F55A4DF523B3EF SWAP1 PUSH2 0x2A6F SWAP1 DUP6 SWAP1 PUSH2 0x4ECB JUMP JUMPDEST PUSH1 0x40 MLOAD DUP1 SWAP2 SUB SWAP1 LOG3 POP POP JUMP JUMPDEST PUSH1 0x51 SLOAD PUSH2 0x2A8B JUMPI TIMESTAMP PUSH1 0x51 SSTORE PUSH2 0xDE3 JUMP JUMPDEST PUSH3 0x15180 PUSH1 0x51 SLOAD TIMESTAMP SUB GT ISZERO PUSH2 0xDE3 JUMPI PUSH1 0x50 SLOAD PUSH1 0x52 DUP1 SLOAD SWAP1 SWAP2 ADD SWAP1 SSTORE TIMESTAMP PUSH1 0x51 SSTORE JUMP JUMPDEST PUSH1 0x4A SLOAD PUSH1 0x0 SWAP1 JUMPDEST DUP1 ISZERO PUSH2 0x2AF1 JUMPI PUSH1 0x4A PUSH1 0x1 DUP3 SUB DUP2 SLOAD DUP2 LT PUSH2 0x2AC9 JUMPI INVALID JUMPDEST SWAP1 PUSH1 0x0 MSTORE PUSH1 0x20 PUSH1 0x0 KECCAK256 SWAP1 PUSH1 0x4 MUL ADD PUSH1 0x1 ADD SLOAD DUP4 LT PUSH2 0x2AE8 JUMPI SWAP1 POP PUSH2 0x75A JUMP JUMPDEST PUSH1 0x0 NOT ADD PUSH2 0x2AB3 JUMP JUMPDEST POP PUSH1 0x0 SWAP3 SWAP2 POP POP JUMP JUMPDEST PUSH1 0x0 PUSH1 0x60 DUP5 PUSH1 0x1 PUSH1 0x1 PUSH1 0xA0 SHL SUB AND PUSH4 0xA9059CBB DUP6 DUP6 PUSH1 0x40 MLOAD PUSH1 0x24 ADD PUSH2 0x2B20 SWAP3 SWAP2 SWAP1 PUSH2 0x46FD JUMP JUMPDEST PUSH1 0x40 MLOAD PUSH1 0x20 DUP2 DUP4 SUB SUB DUP2 MSTORE SWAP1 PUSH1 0x40 MSTORE SWAP1 PUSH1 0xE0 SHL PUSH1 0x20 DUP3 ADD DUP1 MLOAD PUSH1 0x1 PUSH1 0x1 PUSH1 0xE0 SHL SUB DUP4 DUP2 DUP4 AND OR DUP4 MSTORE POP POP POP POP PUSH1 0x40 MLOAD PUSH2 0x2B59 SWAP2 SWAP1 PUSH2 0x46A9 JUMP JUMPDEST PUSH1 0x0 PUSH1 0x40 MLOAD DUP1 DUP4 SUB DUP2 PUSH1 0x0 DUP7 GAS CALL SWAP2 POP POP RETURNDATASIZE DUP1 PUSH1 0x0 DUP2 EQ PUSH2 0x2B96 JUMPI PUSH1 0x40 MLOAD SWAP2 POP PUSH1 0x1F NOT PUSH1 0x3F RETURNDATASIZE ADD AND DUP3 ADD PUSH1 0x40 MSTORE RETURNDATASIZE DUP3 MSTORE RETURNDATASIZE PUSH1 0x0 PUSH1 0x20 DUP5 ADD RETURNDATACOPY PUSH2 0x2B9B JUMP JUMPDEST PUSH1 0x60 SWAP2 POP JUMPDEST POP SWAP2 POP SWAP2 POP DUP2 DUP1 ISZERO PUSH2 0x2BC5 JUMPI POP DUP1 MLOAD ISZERO DUP1 PUSH2 0x2BC5 JUMPI POP DUP1 DUP1 PUSH1 0x20 ADD SWAP1 MLOAD DUP2 ADD SWAP1 PUSH2 0x2BC5 SWAP2 SWAP1 PUSH2 0x45E7 JUMP JUMPDEST PUSH2 0x2BE1 JUMPI PUSH1 0x40 MLOAD PUSH3 0x461BCD PUSH1 0xE5 SHL DUP2 MSTORE PUSH1 0x4 ADD PUSH2 0xBF3 SWAP1 PUSH2 0x48C7 JUMP JUMPDEST POP POP POP POP POP JUMP JUMPDEST PUSH1 0x1 PUSH1 0x1 PUSH1 0xA0 SHL SUB DUP3 AND PUSH2 0x2C0E JUMPI PUSH1 0x40 MLOAD PUSH3 0x461BCD PUSH1 0xE5 SHL DUP2 MSTORE PUSH1 0x4 ADD PUSH2 0xBF3 SWAP1 PUSH2 0x4BF3 JUMP JUMPDEST PUSH2 0x2C4B DUP2 PUSH1 0x40 MLOAD DUP1 PUSH1 0x60 ADD PUSH1 0x40 MSTORE DUP1 PUSH1 0x22 DUP2 MSTORE PUSH1 0x20 ADD PUSH2 0x4FE5 PUSH1 0x22 SWAP2 CODECOPY PUSH1 0x1 PUSH1 0x1 PUSH1 0xA0 SHL SUB DUP6 AND PUSH1 0x0 SWAP1 DUP2 MSTORE PUSH1 0x1 PUSH1 0x20 MSTORE PUSH1 0x40 SWAP1 KECCAK256 SLOAD SWAP2 SWAP1 PUSH2 0x2389 JUMP JUMPDEST PUSH1 0x1 PUSH1 0x1 PUSH1 0xA0 SHL SUB DUP4 AND PUSH1 0x0 SWAP1 DUP2 MSTORE PUSH1 0x1 PUSH1 0x20 MSTORE PUSH1 0x40 SWAP1 KECCAK256 SSTORE PUSH1 0x3 SLOAD PUSH2 0x2C71 SWAP1 DUP3 PUSH2 0x3F85 JUMP JUMPDEST PUSH1 0x3 SSTORE PUSH1 0x40 MLOAD PUSH1 0x0 SWAP1 PUSH1 0x1 PUSH1 0x1 PUSH1 0xA0 SHL SUB DUP5 AND SWAP1 PUSH32 0xDDF252AD1BE2C89B69C2B068FC378DAA952BA7F163C4A11628F55A4DF523B3EF SWAP1 PUSH2 0x2A6F SWAP1 DUP6 SWAP1 PUSH2 0x4ECB JUMP JUMPDEST PUSH1 0x1 PUSH1 0x1 PUSH1 0xA0 SHL SUB DUP4 AND PUSH1 0x0 SWAP1 DUP2 MSTORE PUSH1 0x58 PUSH1 0x20 MSTORE PUSH1 0x40 DUP2 KECCAK256 PUSH1 0x57 DUP1 SLOAD SWAP2 SWAP3 SWAP2 DUP5 SWAP1 DUP2 LT PUSH2 0x2CDB JUMPI INVALID JUMPDEST SWAP1 PUSH1 0x0 MSTORE PUSH1 0x20 PUSH1 0x0 KECCAK256 ADD PUSH1 0x1 DUP2 SLOAD DUP2 LT PUSH2 0x2CF1 JUMPI INVALID JUMPDEST PUSH1 0x0 SWAP2 DUP3 MSTORE PUSH1 0x20 SWAP1 SWAP2 KECCAK256 ADD SLOAD PUSH1 0xA SLOAD SWAP1 SWAP2 POP PUSH1 0x1 PUSH1 0x1 PUSH1 0xA0 SHL SUB DUP7 DUP2 AND SWAP2 AND EQ PUSH2 0x2ECE JUMPI PUSH1 0x0 DUP1 PUSH2 0x2D21 DUP6 PUSH2 0x2159 JUMP JUMPDEST SWAP1 POP PUSH1 0x0 PUSH1 0x64 PUSH1 0x18 PUSH1 0x8 SWAP1 SLOAD SWAP1 PUSH2 0x100 EXP SWAP1 DIV PUSH2 0xFFFF AND PUSH2 0xFFFF AND GT ISZERO PUSH2 0x2D75 JUMPI PUSH1 0x57 DUP7 DUP2 SLOAD DUP2 LT PUSH2 0x2D4F JUMPI INVALID JUMPDEST SWAP1 PUSH1 0x0 MSTORE PUSH1 0x20 PUSH1 0x0 KECCAK256 ADD PUSH1 0x3 DUP2 SLOAD DUP2 LT PUSH2 0x2D65 JUMPI INVALID JUMPDEST SWAP1 PUSH1 0x0 MSTORE PUSH1 0x20 PUSH1 0x0 KECCAK256 ADD SLOAD PUSH2 0x2DA4 JUMP JUMPDEST PUSH1 0x57 DUP7 DUP2 SLOAD DUP2 LT PUSH2 0x2D82 JUMPI INVALID JUMPDEST SWAP1 PUSH1 0x0 MSTORE PUSH1 0x20 PUSH1 0x0 KECCAK256 ADD PUSH1 0x2 DUP2 SLOAD DUP2 LT PUSH2 0x2D98 JUMPI INVALID JUMPDEST SWAP1 PUSH1 0x0 MSTORE PUSH1 0x20 PUSH1 0x0 KECCAK256 ADD SLOAD JUMPDEST PUSH1 0x7 SLOAD PUSH2 0x3E8 DUP3 DUP6 MUL DIV SWAP5 POP SWAP1 SWAP2 POP PUSH2 0x2DCD SWAP1 PUSH2 0x100 SWAP1 DIV PUSH1 0x1 PUSH1 0x1 PUSH1 0xA0 SHL SUB AND DUP10 ADDRESS DUP6 PUSH2 0x3E9C JUMP JUMPDEST PUSH1 0x1 PUSH1 0x1 PUSH1 0xA0 SHL SUB DUP8 AND ISZERO PUSH2 0x2E89 JUMPI PUSH1 0x7 SLOAD PUSH1 0x64 PUSH1 0x5A DUP6 MUL DIV SWAP1 PUSH2 0x2E00 SWAP1 PUSH2 0x100 SWAP1 DIV PUSH1 0x1 PUSH1 0x1 PUSH1 0xA0 SHL SUB AND DUP10 DUP4 PUSH2 0x2AFA JUMP JUMPDEST PUSH1 0x2 DUP7 ADD SLOAD PUSH2 0x2E58 JUMPI PUSH1 0x1 PUSH1 0x1 PUSH1 0xA0 SHL SUB DUP1 DUP10 AND PUSH1 0x0 DUP2 DUP2 MSTORE PUSH1 0x59 PUSH1 0x20 SWAP1 DUP2 MSTORE PUSH1 0x40 DUP3 KECCAK256 DUP1 SLOAD PUSH1 0x1 DUP2 DUP2 ADD DUP4 SSTORE SWAP2 DUP5 MSTORE SWAP2 SWAP1 SWAP3 KECCAK256 ADD DUP1 SLOAD SWAP4 DUP14 AND PUSH1 0x1 PUSH1 0x1 PUSH1 0xA0 SHL SUB NOT SWAP5 DUP6 AND OR SWAP1 SSTORE DUP9 ADD DUP1 SLOAD SWAP1 SWAP3 AND OR SWAP1 SSTORE PUSH2 0x2E87 JUMP JUMPDEST PUSH1 0x1 DUP7 ADD SLOAD PUSH1 0x1 PUSH1 0x1 PUSH1 0xA0 SHL SUB DUP10 DUP2 AND SWAP2 AND EQ PUSH2 0x2E87 JUMPI PUSH1 0x40 MLOAD PUSH3 0x461BCD PUSH1 0xE5 SHL DUP2 MSTORE PUSH1 0x4 ADD PUSH2 0xBF3 SWAP1 PUSH2 0x498D JUMP JUMPDEST POP JUMPDEST POP PUSH1 0x50 DUP1 SLOAD PUSH1 0x64 PUSH1 0xA SWAP5 SWAP1 SWAP5 MUL SWAP4 SWAP1 SWAP4 DIV SWAP1 SWAP3 ADD SWAP1 SWAP2 SSTORE PUSH1 0xB DUP1 SLOAD PUSH2 0x3E8 PUSH1 0x14 DUP5 MUL DUP2 SWAP1 DIV SWAP1 SWAP2 ADD SWAP1 SWAP2 SSTORE PUSH1 0xF DUP1 SLOAD SWAP3 DUP2 MUL SWAP2 SWAP1 SWAP2 DIV SWAP2 DUP3 ADD SWAP1 SSTORE PUSH1 0x13 DUP1 SLOAD SWAP1 SWAP2 ADD SWAP1 SSTORE JUMPDEST PUSH1 0x2 DUP3 ADD SLOAD PUSH2 0x2EF0 JUMPI PUSH1 0x0 DUP3 SSTORE PUSH1 0x2 DUP3 ADD DUP2 SWAP1 SSTORE PUSH1 0x5B DUP1 SLOAD PUSH1 0x1 ADD SWAP1 SSTORE PUSH2 0x2F18 JUMP JUMPDEST PUSH1 0x3 DUP3 ADD SLOAD ISZERO PUSH2 0x2F0D JUMPI PUSH1 0x0 PUSH2 0x2F05 DUP7 PUSH2 0x21FE JUMP JUMPDEST PUSH1 0x5 DUP6 ADD SSTORE POP POP JUMPDEST PUSH1 0x2 DUP3 ADD DUP1 SLOAD DUP3 ADD SWAP1 SSTORE JUMPDEST PUSH1 0x5A DUP1 SLOAD SWAP1 SWAP2 ADD SWAP1 SSTORE PUSH1 0x0 PUSH1 0x3 DUP3 ADD SSTORE TIMESTAMP PUSH1 0x6 SWAP1 SWAP2 ADD SSTORE POP POP POP JUMP JUMPDEST PUSH1 0x1 PUSH1 0x1 PUSH1 0xA0 SHL SUB DUP2 AND PUSH1 0x0 SWAP1 DUP2 MSTORE PUSH1 0x58 PUSH1 0x20 MSTORE PUSH1 0x40 SWAP1 KECCAK256 PUSH1 0x2 DUP2 ADD SLOAD PUSH2 0x2F6D JUMPI PUSH1 0x40 MLOAD PUSH3 0x461BCD PUSH1 0xE5 SHL DUP2 MSTORE PUSH1 0x4 ADD PUSH2 0xBF3 SWAP1 PUSH2 0x4DB2 JUMP JUMPDEST PUSH1 0x3 DUP2 ADD SLOAD ISZERO PUSH2 0x2F8F JUMPI PUSH1 0x40 MLOAD PUSH3 0x461BCD PUSH1 0xE5 SHL DUP2 MSTORE PUSH1 0x4 ADD PUSH2 0xBF3 SWAP1 PUSH2 0x4BC8 JUMP JUMPDEST PUSH1 0x0 JUMPDEST PUSH1 0xA DUP2 LT ISZERO PUSH2 0x3061 JUMPI PUSH1 0x0 PUSH1 0x1 PUSH1 0x1 PUSH1 0xA0 SHL SUB AND PUSH1 0x5D DUP3 DUP2 SLOAD DUP2 LT PUSH2 0x2FB3 JUMPI INVALID JUMPDEST PUSH1 0x0 SWAP2 DUP3 MSTORE PUSH1 0x20 SWAP1 SWAP2 KECCAK256 ADD SLOAD PUSH1 0x1 PUSH1 0x1 PUSH1 0xA0 SHL SUB AND EQ DUP1 ISZERO SWAP1 PUSH2 0x3013 JUMPI POP PUSH1 0x58 PUSH1 0x0 PUSH1 0x5D PUSH1 0x0 DUP2 SLOAD DUP2 LT PUSH2 0x2FE3 JUMPI INVALID JUMPDEST PUSH1 0x0 SWAP2 DUP3 MSTORE PUSH1 0x20 DUP1 DUP4 KECCAK256 SWAP1 SWAP2 ADD SLOAD PUSH1 0x1 PUSH1 0x1 PUSH1 0xA0 SHL SUB AND DUP4 MSTORE DUP3 ADD SWAP3 SWAP1 SWAP3 MSTORE PUSH1 0x40 ADD SWAP1 KECCAK256 PUSH1 0x2 SWAP1 DUP2 ADD SLOAD SWAP1 DUP4 ADD SLOAD GT JUMPDEST ISZERO PUSH2 0x3059 JUMPI DUP3 PUSH1 0x5D DUP3 DUP2 SLOAD DUP2 LT PUSH2 0x3026 JUMPI INVALID JUMPDEST SWAP1 PUSH1 0x0 MSTORE PUSH1 0x20 PUSH1 0x0 KECCAK256 ADD PUSH1 0x0 PUSH2 0x100 EXP DUP2 SLOAD DUP2 PUSH1 0x1 PUSH1 0x1 PUSH1 0xA0 SHL SUB MUL NOT AND SWAP1 DUP4 PUSH1 0x1 PUSH1 0x1 PUSH1 0xA0 SHL SUB AND MUL OR SWAP1 SSTORE POP PUSH2 0x3061 JUMP JUMPDEST PUSH1 0x1 ADD PUSH2 0x2F92 JUMP JUMPDEST DUP1 PUSH1 0xA EQ ISZERO PUSH2 0x30A8 JUMPI DUP3 PUSH1 0x5D PUSH1 0x0 DUP2 SLOAD DUP2 LT PUSH2 0x3079 JUMPI INVALID JUMPDEST SWAP1 PUSH1 0x0 MSTORE PUSH1 0x20 PUSH1 0x0 KECCAK256 ADD PUSH1 0x0 PUSH2 0x100 EXP DUP2 SLOAD DUP2 PUSH1 0x1 PUSH1 0x1 PUSH1 0xA0 SHL SUB MUL NOT AND SWAP1 DUP4 PUSH1 0x1 PUSH1 0x1 PUSH1 0xA0 SHL SUB AND MUL OR SWAP1 SSTORE POP JUMPDEST PUSH1 0x0 PUSH2 0x30B3 DUP5 PUSH2 0x21FE JUMP JUMPDEST PUSH1 0x5 DUP6 ADD SSTORE POP POP NUMBER PUSH1 0x3 SWAP1 SWAP3 ADD SWAP2 SWAP1 SWAP2 SSTORE POP POP JUMP JUMPDEST PUSH1 0x18 SLOAD PUSH4 0xFFFFFFFF PUSH1 0x1 PUSH1 0x20 SHL DUP3 DIV DUP2 AND SWAP2 AND DUP2 LT PUSH2 0x30F9 JUMPI PUSH1 0x40 MLOAD PUSH3 0x461BCD PUSH1 0xE5 SHL DUP2 MSTORE PUSH1 0x4 ADD PUSH2 0xBF3 SWAP1 PUSH2 0x4D07 JUMP JUMPDEST PUSH4 0xFFFFFFFF DUP2 AND PUSH2 0x3136 JUMPI PUSH1 0xA SLOAD PUSH1 0x1 PUSH1 0x1 PUSH1 0xA0 SHL SUB DUP6 DUP2 AND SWAP2 AND EQ PUSH2 0x3131 JUMPI PUSH1 0x40 MLOAD PUSH3 0x461BCD PUSH1 0xE5 SHL DUP2 MSTORE PUSH1 0x4 ADD PUSH2 0xBF3 SWAP1 PUSH2 0x4B91 JUMP JUMPDEST PUSH2 0x31D2 JUMP JUMPDEST PUSH1 0xA DUP2 PUSH4 0xFFFFFFFF AND LT ISZERO PUSH2 0x3172 JUMPI PUSH1 0x47 SLOAD PUSH1 0x1 PUSH1 0x1 PUSH1 0xA0 SHL SUB DUP6 DUP2 AND SWAP2 AND EQ PUSH2 0x3131 JUMPI PUSH1 0x40 MLOAD PUSH3 0x461BCD PUSH1 0xE5 SHL DUP2 MSTORE PUSH1 0x4 ADD PUSH2 0xBF3 SWAP1 PUSH2 0x48FE JUMP JUMPDEST PUSH1 0x1 PUSH1 0x1 PUSH1 0xA0 SHL SUB DUP6 AND PUSH1 0x0 SWAP1 DUP2 MSTORE PUSH1 0x49 PUSH1 0x20 MSTORE PUSH1 0x40 SWAP1 KECCAK256 PUSH1 0x5 ADD SLOAD ISZERO PUSH2 0x31D2 JUMPI PUSH1 0x1 PUSH1 0x1 PUSH1 0xA0 SHL SUB DUP6 DUP2 AND PUSH1 0x0 SWAP1 DUP2 MSTORE PUSH1 0x49 PUSH1 0x20 MSTORE PUSH1 0x40 SWAP1 KECCAK256 PUSH1 0xC ADD SLOAD DUP2 AND SWAP1 DUP6 AND EQ PUSH2 0x31D2 JUMPI PUSH1 0x40 MLOAD PUSH3 0x461BCD PUSH1 0xE5 SHL DUP2 MSTORE PUSH1 0x4 ADD PUSH2 0xBF3 SWAP1 PUSH2 0x4933 JUMP JUMPDEST PUSH1 0x1 PUSH1 0x1 PUSH1 0xA0 SHL SUB DUP6 AND PUSH1 0x0 SWAP1 DUP2 MSTORE PUSH1 0x49 PUSH1 0x20 MSTORE PUSH1 0x40 SWAP1 KECCAK256 PUSH1 0x5 ADD SLOAD DUP1 ISZERO PUSH2 0x322A JUMPI PUSH2 0x2710 DUP5 LT ISZERO PUSH2 0x3225 JUMPI PUSH1 0x8 SLOAD PUSH1 0x64 MUL DUP2 DUP6 SUB LT ISZERO PUSH2 0x3225 JUMPI PUSH1 0x40 MLOAD PUSH3 0x461BCD PUSH1 0xE5 SHL DUP2 MSTORE PUSH1 0x4 ADD PUSH2 0xBF3 SWAP1 PUSH2 0x4DDB JUMP JUMPDEST PUSH2 0x324F JUMP JUMPDEST PUSH1 0x8 SLOAD PUSH1 0xC8 MUL DUP5 LT ISZERO PUSH2 0x324F JUMPI PUSH1 0x40 MLOAD PUSH3 0x461BCD PUSH1 0xE5 SHL DUP2 MSTORE PUSH1 0x4 ADD PUSH2 0xBF3 SWAP1 PUSH2 0x4DDB JUMP JUMPDEST PUSH1 0x0 PUSH2 0x325A DUP6 PUSH2 0x15DF JUMP JUMPDEST SWAP1 POP DUP1 PUSH2 0x3266 DUP9 PUSH2 0x1457 JUMP JUMPDEST LT ISZERO PUSH2 0x3284 JUMPI PUSH1 0x40 MLOAD PUSH3 0x461BCD PUSH1 0xE5 SHL DUP2 MSTORE PUSH1 0x4 ADD PUSH2 0xBF3 SWAP1 PUSH2 0x4B69 JUMP JUMPDEST PUSH1 0x7 SLOAD PUSH2 0x32A1 SWAP1 PUSH2 0x100 SWAP1 DIV PUSH1 0x1 PUSH1 0x1 PUSH1 0xA0 SHL SUB AND DUP9 ADDRESS DUP9 PUSH2 0x3E9C JUMP JUMPDEST PUSH2 0x32AB DUP8 DUP3 PUSH2 0x2BE8 JUMP JUMPDEST PUSH1 0x19 DUP1 SLOAD DUP3 ADD SWAP1 SSTORE PUSH1 0x1 PUSH1 0x1 PUSH1 0xA0 SHL SUB DUP1 DUP9 AND PUSH1 0x0 SWAP1 DUP2 MSTORE PUSH1 0x49 PUSH1 0x20 MSTORE PUSH1 0x40 DUP1 DUP3 KECCAK256 SWAP3 DUP10 AND DUP3 MSTORE SWAP1 KECCAK256 PUSH1 0x6 DUP3 ADD SLOAD PUSH2 0x363B JUMPI PUSH1 0x0 PUSH2 0x32E7 PUSH2 0x3FC7 JUMP JUMPDEST SWAP1 POP PUSH1 0x0 PUSH1 0x18 PUSH1 0x4 SWAP1 SLOAD SWAP1 PUSH2 0x100 EXP SWAP1 DIV PUSH4 0xFFFFFFFF AND PUSH4 0xFFFFFFFF AND PUSH1 0x1 EQ ISZERO PUSH2 0x333D JUMPI POP PUSH1 0x1 DUP4 ADD DUP1 SLOAD PUSH1 0xFF PUSH1 0x30 SHL NOT AND SWAP1 SSTORE PUSH1 0x47 DUP1 SLOAD PUSH1 0x1 PUSH1 0x1 PUSH1 0xA0 SHL SUB NOT AND PUSH1 0x1 PUSH1 0x1 PUSH1 0xA0 SHL SUB DUP13 AND OR SWAP1 SSTORE DUP9 PUSH2 0x346B JUMP JUMPDEST PUSH1 0x18 SLOAD PUSH1 0x5 PUSH1 0x1 PUSH1 0x40 SHL SWAP1 SWAP2 DIV PUSH2 0xFFFF AND LT ISZERO PUSH2 0x33B2 JUMPI POP PUSH1 0x1 DUP4 DUP2 ADD DUP1 SLOAD PUSH1 0xFF PUSH1 0x30 SHL NOT AND PUSH1 0x1 PUSH1 0x30 SHL OR SWAP1 SSTORE PUSH1 0x1 PUSH1 0x1 PUSH1 0xA0 SHL SUB DUP11 DUP2 AND PUSH1 0x0 SWAP1 DUP2 MSTORE PUSH1 0x49 PUSH1 0x20 SWAP1 DUP2 MSTORE PUSH1 0x40 DUP3 KECCAK256 PUSH1 0xE ADD DUP1 SLOAD SWAP5 DUP6 ADD DUP2 SSTORE DUP3 MSTORE SWAP1 KECCAK256 SWAP1 SWAP2 ADD DUP1 SLOAD PUSH1 0x1 PUSH1 0x1 PUSH1 0xA0 SHL SUB NOT AND SWAP2 DUP13 AND SWAP2 SWAP1 SWAP2 OR SWAP1 SSTORE DUP9 PUSH2 0x346B JUMP JUMPDEST PUSH1 0x1 DUP5 ADD DUP1 SLOAD PUSH1 0xFF PUSH1 0x30 SHL NOT AND PUSH7 0x2000000000000 OR SWAP1 SSTORE PUSH1 0xD DUP4 ADD SLOAD PUSH1 0x3 PUSH1 0x1 PUSH1 0xA0 SHL SWAP1 SWAP2 DIV PUSH2 0xFFFF SWAP1 DUP2 AND DUP3 DUP2 DIV SWAP3 SWAP1 MOD SWAP1 DUP2 AND PUSH2 0x33F4 JUMPI DUP12 SWAP3 POP PUSH2 0x3427 JUMP JUMPDEST PUSH2 0x3424 DUP6 PUSH1 0xE ADD DUP4 PUSH2 0xFFFF AND DUP2 SLOAD DUP2 LT PUSH2 0x340A JUMPI INVALID JUMPDEST PUSH1 0x0 SWAP2 DUP3 MSTORE PUSH1 0x20 SWAP1 SWAP2 KECCAK256 ADD SLOAD PUSH1 0x1 PUSH1 0x1 PUSH1 0xA0 SHL SUB AND PUSH2 0x4101 JUMP JUMPDEST SWAP3 POP JUMPDEST POP POP PUSH1 0x1 PUSH1 0x1 PUSH1 0xA0 SHL SUB DUP2 DUP2 AND PUSH1 0x0 SWAP1 DUP2 MSTORE PUSH1 0x49 PUSH1 0x20 SWAP1 DUP2 MSTORE PUSH1 0x40 DUP3 KECCAK256 PUSH1 0xE ADD DUP1 SLOAD PUSH1 0x1 DUP2 ADD DUP3 SSTORE SWAP1 DUP4 MSTORE SWAP2 KECCAK256 ADD DUP1 SLOAD PUSH1 0x1 PUSH1 0x1 PUSH1 0xA0 SHL SUB NOT AND SWAP2 DUP14 AND SWAP2 SWAP1 SWAP2 OR SWAP1 SSTORE JUMPDEST DUP3 PUSH1 0xD ADD PUSH1 0x14 DUP2 DUP2 SWAP1 SLOAD SWAP1 PUSH2 0x100 EXP SWAP1 DIV PUSH2 0xFFFF AND DUP1 SWAP3 SWAP2 SWAP1 PUSH1 0x1 ADD SWAP2 SWAP1 PUSH2 0x100 EXP DUP2 SLOAD DUP2 PUSH2 0xFFFF MUL NOT AND SWAP1 DUP4 PUSH2 0xFFFF AND MUL OR SWAP1 SSTORE POP POP DUP7 PUSH4 0x6034E8B ADD PUSH4 0xFFFFFFFF AND DUP5 PUSH1 0x0 ADD DUP2 SWAP1 SSTORE POP DUP10 DUP5 PUSH1 0xC ADD PUSH1 0x0 PUSH2 0x100 EXP DUP2 SLOAD DUP2 PUSH1 0x1 PUSH1 0x1 PUSH1 0xA0 SHL SUB MUL NOT AND SWAP1 DUP4 PUSH1 0x1 PUSH1 0x1 PUSH1 0xA0 SHL SUB AND MUL OR SWAP1 SSTORE POP DUP2 DUP5 PUSH1 0x1 ADD PUSH1 0x0 PUSH2 0x100 EXP DUP2 SLOAD DUP2 PUSH4 0xFFFFFFFF MUL NOT AND SWAP1 DUP4 PUSH4 0xFFFFFFFF AND MUL OR SWAP1 SSTORE POP PUSH1 0x18 PUSH1 0x8 SWAP1 SLOAD SWAP1 PUSH2 0x100 EXP SWAP1 DIV PUSH2 0xFFFF AND DUP5 PUSH1 0x1 ADD PUSH1 0x4 PUSH2 0x100 EXP DUP2 SLOAD DUP2 PUSH2 0xFFFF MUL NOT AND SWAP1 DUP4 PUSH2 0xFFFF AND MUL OR SWAP1 SSTORE POP DUP9 DUP5 PUSH1 0xA ADD DUP2 SWAP1 SSTORE POP PUSH1 0x0 DUP5 PUSH1 0x4 ADD PUSH1 0x0 PUSH2 0x100 EXP DUP2 SLOAD DUP2 PUSH1 0xFF MUL NOT AND SWAP1 DUP4 ISZERO ISZERO MUL OR SWAP1 SSTORE POP PUSH1 0x0 DUP5 PUSH1 0xB ADD DUP2 SWAP1 SSTORE POP DUP1 DUP5 PUSH1 0xD ADD PUSH1 0x0 PUSH2 0x100 EXP DUP2 SLOAD DUP2 PUSH1 0x1 PUSH1 0x1 PUSH1 0xA0 SHL SUB MUL NOT AND SWAP1 DUP4 PUSH1 0x1 PUSH1 0x1 PUSH1 0xA0 SHL SUB AND MUL OR SWAP1 SSTORE POP PUSH1 0x0 DUP5 PUSH1 0xD ADD PUSH1 0x14 PUSH2 0x100 EXP DUP2 SLOAD DUP2 PUSH2 0xFFFF MUL NOT AND SWAP1 DUP4 PUSH2 0xFFFF AND MUL OR SWAP1 SSTORE POP PUSH3 0x7AAE7 DUP3 PUSH4 0xFFFFFFFF AND GT ISZERO PUSH2 0x35EB JUMPI PUSH4 0xFFFFFFFF DUP3 AND PUSH1 0x0 SWAP1 DUP2 MSTORE PUSH1 0x48 PUSH1 0x20 MSTORE PUSH1 0x40 SWAP1 KECCAK256 DUP1 SLOAD PUSH1 0x1 PUSH1 0x1 PUSH1 0xA0 SHL SUB NOT AND PUSH1 0x1 PUSH1 0x1 PUSH1 0xA0 SHL SUB DUP14 AND OR SWAP1 SSTORE JUMPDEST PUSH1 0x18 SLOAD PUSH1 0x40 MLOAD PUSH32 0x6932AC5F42401E77C40344F612FA5558D62470F6A92606E938A4743C566E6CE8 SWAP2 PUSH2 0x362C SWAP2 DUP15 SWAP2 PUSH1 0x1 PUSH1 0x20 SHL SWAP1 DIV PUSH4 0xFFFFFFFF AND SWAP1 PUSH2 0x4716 JUMP JUMPDEST PUSH1 0x40 MLOAD DUP1 SWAP2 SUB SWAP1 LOG1 POP POP PUSH2 0x36BB JUMP JUMPDEST PUSH1 0x4 DUP3 ADD SLOAD PUSH1 0xFF AND DUP1 PUSH2 0x3653 JUMPI POP DUP2 PUSH1 0x6 ADD SLOAD PUSH1 0x1E SLOAD GT JUMPDEST ISZERO PUSH2 0x366B JUMPI PUSH1 0x0 PUSH1 0x7 DUP4 ADD DUP2 SWAP1 SSTORE PUSH1 0x8 DUP4 ADD SSTORE PUSH2 0x36B0 JUMP JUMPDEST PUSH1 0x0 DUP1 PUSH2 0x3677 DUP12 PUSH2 0x1867 JUMP JUMPDEST POP POP POP SWAP2 POP SWAP2 POP DUP2 ISZERO PUSH2 0x3697 JUMPI PUSH1 0x0 PUSH1 0x7 DUP6 ADD DUP2 SWAP1 SSTORE PUSH1 0x8 DUP6 ADD SSTORE PUSH2 0x36AD JUMP JUMPDEST PUSH1 0x7 DUP5 ADD DUP2 SWAP1 SSTORE DUP1 ISZERO PUSH2 0x36AD JUMPI PUSH2 0x36AD DUP5 PUSH2 0x4142 JUMP JUMPDEST POP POP JUMPDEST PUSH1 0xA DUP3 ADD DUP1 SLOAD DUP9 ADD SWAP1 SSTORE JUMPDEST PUSH1 0x5 DUP3 ADD DUP8 SWAP1 SSTORE PUSH1 0x6 DUP3 ADD DUP7 SWAP1 SSTORE PUSH1 0x2 DUP3 ADD DUP1 SLOAD DUP9 ADD SWAP1 SSTORE PUSH1 0x1C DUP1 SLOAD DUP9 ADD SWAP1 SSTORE PUSH1 0x20 DUP1 SLOAD DUP9 ADD SWAP1 SSTORE TIMESTAMP PUSH1 0x1D SSTORE PUSH1 0xA DUP3 ADD SLOAD PUSH1 0x0 SWAP1 PUSH2 0x36F8 SWAP1 PUSH2 0x2AAC JUMP JUMPDEST SWAP1 POP PUSH2 0x3E8 PUSH1 0x4A PUSH1 0x1 DUP4 SUB PUSH1 0xFF AND DUP2 SLOAD DUP2 LT PUSH2 0x3710 JUMPI INVALID JUMPDEST SWAP1 PUSH1 0x0 MSTORE PUSH1 0x20 PUSH1 0x0 KECCAK256 SWAP1 PUSH1 0x4 MUL ADD PUSH1 0x3 ADD SLOAD DUP5 PUSH1 0xA ADD SLOAD MUL DUP2 PUSH2 0x372F JUMPI INVALID JUMPDEST DIV PUSH1 0x9 DUP5 ADD SSTORE PUSH1 0x1 DUP4 ADD DUP1 SLOAD PUSH1 0xFF DUP1 DUP5 AND PUSH1 0x1 PUSH1 0x38 SHL MUL PUSH1 0xFF PUSH1 0x38 SHL NOT SWAP1 SWAP3 AND SWAP2 SWAP1 SWAP2 OR SWAP1 SWAP2 SSTORE PUSH1 0x4 DUP5 ADD SLOAD AND ISZERO PUSH2 0x376E JUMPI PUSH1 0x4 DUP4 ADD DUP1 SLOAD PUSH1 0xFF NOT AND SWAP1 SSTORE JUMPDEST PUSH1 0x50 DUP1 SLOAD PUSH2 0x3E8 PUSH1 0x12 DUP12 MUL DUP2 SWAP1 DIV SWAP1 SWAP2 ADD SWAP1 SWAP2 SSTORE PUSH1 0x4B DUP1 SLOAD PUSH1 0x20 DUP12 MUL DUP4 SWAP1 DIV ADD SWAP1 SSTORE PUSH1 0xB DUP1 SLOAD PUSH1 0x14 DUP12 MUL DUP4 SWAP1 DIV ADD SWAP1 SSTORE PUSH1 0xF DUP1 SLOAD DUP2 DUP12 MUL SWAP3 SWAP1 SWAP3 DIV SWAP2 DUP3 ADD SWAP1 SSTORE PUSH1 0x13 DUP1 SLOAD SWAP1 SWAP2 ADD SWAP1 SSTORE PUSH1 0x45 SLOAD PUSH1 0x24 EQ ISZERO PUSH2 0x3829 JUMPI PUSH1 0x1 JUMPDEST PUSH1 0x45 SLOAD DUP2 LT ISZERO PUSH2 0x3822 JUMPI PUSH1 0x21 PUSH1 0x1 DUP3 SUB PUSH1 0x24 DUP2 LT PUSH2 0x37DF JUMPI INVALID JUMPDEST ADD SLOAD PUSH1 0x1 PUSH1 0x1 PUSH1 0xA0 SHL SUB AND PUSH1 0x21 PUSH1 0x0 NOT DUP4 ADD PUSH1 0x24 DUP2 LT PUSH2 0x37FB JUMPI INVALID JUMPDEST ADD DUP1 SLOAD PUSH1 0x1 PUSH1 0x1 PUSH1 0xA0 SHL SUB NOT AND PUSH1 0x1 PUSH1 0x1 PUSH1 0xA0 SHL SUB SWAP3 SWAP1 SWAP3 AND SWAP2 SWAP1 SWAP2 OR SWAP1 SSTORE PUSH1 0x1 ADD PUSH2 0x37C5 JUMP JUMPDEST POP PUSH1 0x23 PUSH1 0x45 SSTORE JUMPDEST DUP10 PUSH1 0x21 PUSH1 0x45 SLOAD PUSH1 0x24 DUP2 LT PUSH2 0x3839 JUMPI INVALID JUMPDEST ADD DUP1 SLOAD PUSH1 0x1 PUSH1 0x1 PUSH1 0xA0 SHL SUB NOT AND PUSH1 0x1 PUSH1 0x1 PUSH1 0xA0 SHL SUB SWAP3 SWAP1 SWAP3 AND SWAP2 SWAP1 SWAP2 OR SWAP1 SSTORE PUSH1 0x45 DUP1 SLOAD PUSH1 0x1 ADD SWAP1 SSTORE PUSH1 0x2 PUSH1 0x1 DUP5 ADD SLOAD PUSH1 0x1 PUSH1 0x30 SHL SWAP1 DIV PUSH1 0xFF AND PUSH1 0x2 DUP2 GT ISZERO PUSH2 0x387D JUMPI INVALID JUMPDEST EQ ISZERO PUSH2 0x38E4 JUMPI PUSH1 0x0 PUSH1 0x1 DUP1 DUP5 ADD SLOAD PUSH1 0x1 PUSH1 0x30 SHL SWAP1 DIV PUSH1 0xFF AND PUSH1 0x2 DUP2 GT ISZERO PUSH2 0x38A0 JUMPI INVALID JUMPDEST EQ ISZERO PUSH2 0x38AD JUMPI POP DUP2 PUSH2 0x38D3 JUMP JUMPDEST PUSH1 0x0 PUSH2 0x38B8 DUP12 PUSH2 0x4372 JUMP JUMPDEST PUSH1 0x1 PUSH1 0x1 PUSH1 0xA0 SHL SUB AND PUSH1 0x0 SWAP1 DUP2 MSTORE PUSH1 0x49 PUSH1 0x20 MSTORE PUSH1 0x40 SWAP1 KECCAK256 SWAP2 POP POP JUMPDEST PUSH1 0xB ADD DUP1 SLOAD PUSH2 0x3E8 PUSH1 0x28 DUP12 MUL DIV ADD SWAP1 SSTORE JUMPDEST PUSH2 0x38EC PUSH2 0xD1D JUMP JUMPDEST POP POP POP POP POP POP POP POP POP POP JUMP JUMPDEST PUSH1 0x1 PUSH1 0x1 PUSH1 0xA0 SHL SUB DUP3 AND PUSH1 0x0 SWAP1 DUP2 MSTORE PUSH1 0x49 PUSH1 0x20 MSTORE PUSH1 0x40 DUP2 KECCAK256 DUP2 SWAP1 DUP2 DUP1 DUP1 JUMPDEST PUSH1 0xE DUP5 ADD SLOAD DUP2 LT ISZERO PUSH2 0x39C3 JUMPI PUSH1 0x0 DUP5 PUSH1 0xE ADD DUP3 DUP2 SLOAD DUP2 LT PUSH2 0x3933 JUMPI INVALID JUMPDEST PUSH1 0x0 SWAP2 DUP3 MSTORE PUSH1 0x20 DUP3 KECCAK256 ADD SLOAD PUSH1 0xE DUP8 ADD DUP1 SLOAD PUSH1 0x1 PUSH1 0x1 PUSH1 0xA0 SHL SUB SWAP1 SWAP3 AND SWAP4 POP PUSH1 0x49 SWAP2 DUP4 SWAP2 SWAP1 DUP7 SWAP1 DUP2 LT PUSH2 0x3961 JUMPI INVALID JUMPDEST PUSH1 0x0 SWAP2 DUP3 MSTORE PUSH1 0x20 DUP1 DUP4 KECCAK256 SWAP1 SWAP2 ADD SLOAD PUSH1 0x1 PUSH1 0x1 PUSH1 0xA0 SHL SUB AND DUP4 MSTORE DUP3 ADD SWAP3 SWAP1 SWAP3 MSTORE PUSH1 0x40 ADD SWAP1 KECCAK256 SWAP1 POP PUSH1 0x13 DUP10 LT ISZERO PUSH2 0x39AB JUMPI PUSH1 0x0 DUP1 PUSH2 0x39A0 DUP5 DUP13 PUSH1 0x1 ADD PUSH2 0x38F8 JUMP JUMPDEST SWAP8 ADD SWAP7 SWAP6 SWAP1 SWAP6 ADD SWAP5 POP POP JUMPDEST PUSH1 0x2 ADD SLOAD PUSH1 0x1 SWAP5 DUP6 ADD SWAP5 SWAP4 ADD SWAP3 SWAP2 SWAP1 SWAP2 ADD SWAP1 POP PUSH2 0x3916 JUMP JUMPDEST POP SWAP1 SWAP7 SWAP1 SWAP6 POP SWAP4 POP POP POP POP JUMP JUMPDEST PUSH1 0x0 DUP3 PUSH1 0x6 ADD SLOAD DUP3 LT ISZERO PUSH2 0x39E6 JUMPI DUP3 PUSH1 0x6 ADD SLOAD SWAP2 POP JUMPDEST PUSH1 0x1F SLOAD DUP3 LT ISZERO PUSH2 0x39F8 JUMPI POP PUSH1 0x0 PUSH2 0x6B0 JUMP JUMPDEST PUSH1 0x0 PUSH1 0x3C DUP4 TIMESTAMP SUB DUP2 PUSH2 0x3A06 JUMPI INVALID JUMPDEST DIV SWAP1 POP PUSH1 0x1F SLOAD DUP4 LT PUSH2 0x3A6E JUMPI PUSH3 0x15F900 DUP2 PUSH1 0x4A PUSH1 0x1 DUP8 PUSH1 0x1 ADD PUSH1 0x7 SWAP1 SLOAD SWAP1 PUSH2 0x100 EXP SWAP1 DIV PUSH1 0xFF AND SUB PUSH1 0xFF AND DUP2 SLOAD DUP2 LT PUSH2 0x3A3B JUMPI INVALID JUMPDEST PUSH1 0x0 SWAP2 DUP3 MSTORE PUSH1 0x20 SWAP1 SWAP2 KECCAK256 PUSH1 0x2 PUSH1 0x4 SWAP1 SWAP3 MUL ADD ADD SLOAD PUSH1 0xA DUP8 ADD SLOAD PUSH1 0xFF SWAP1 SWAP2 AND MUL MUL DUP2 PUSH2 0x3A62 JUMPI INVALID JUMPDEST DIV DUP5 PUSH1 0x7 ADD SLOAD ADD PUSH2 0x3A71 JUMP JUMPDEST PUSH1 0x0 JUMPDEST SWAP5 SWAP4 POP POP POP POP JUMP JUMPDEST PUSH2 0x3A81 PUSH2 0x443C JUMP JUMPDEST PUSH1 0x1 PUSH1 0x1 PUSH1 0xA0 SHL SUB DUP6 AND PUSH1 0x0 SWAP1 DUP2 MSTORE PUSH1 0x49 PUSH1 0x20 MSTORE PUSH1 0x40 DUP2 KECCAK256 SWAP1 DUP5 ISZERO ISZERO DUP1 PUSH2 0x3AB5 JUMPI POP PUSH1 0x47 SLOAD PUSH1 0x1 PUSH1 0x1 PUSH1 0xA0 SHL SUB DUP9 DUP2 AND SWAP2 AND EQ JUMPDEST PUSH2 0x3AD6 JUMPI PUSH1 0xD DUP3 ADD SLOAD PUSH1 0x3 SWAP1 PUSH1 0x1 PUSH1 0xA0 SHL SWAP1 DIV PUSH2 0xFFFF AND DIV PUSH2 0xFFFF AND PUSH2 0x3ADC JUMP JUMPDEST PUSH1 0xE DUP3 ADD SLOAD JUMPDEST SWAP1 POP PUSH1 0x0 DUP1 PUSH1 0x0 DUP1 PUSH1 0x0 JUMPDEST DUP6 DUP2 LT ISZERO PUSH2 0x3D6F JUMPI PUSH1 0x0 DUP8 PUSH1 0xE ADD DUP3 DUP2 SLOAD DUP2 LT PUSH2 0x3B00 JUMPI INVALID JUMPDEST PUSH1 0x0 SWAP2 DUP3 MSTORE PUSH1 0x20 DUP3 KECCAK256 ADD SLOAD PUSH1 0xE DUP11 ADD DUP1 SLOAD PUSH1 0x1 PUSH1 0x1 PUSH1 0xA0 SHL SUB SWAP1 SWAP3 AND SWAP4 POP PUSH1 0x49 SWAP2 DUP4 SWAP2 SWAP1 DUP7 SWAP1 DUP2 LT PUSH2 0x3B2E JUMPI INVALID JUMPDEST PUSH1 0x0 SWAP2 DUP3 MSTORE PUSH1 0x20 DUP1 DUP4 KECCAK256 SWAP1 SWAP2 ADD SLOAD PUSH1 0x1 PUSH1 0x1 PUSH1 0xA0 SHL SUB AND DUP4 MSTORE DUP3 ADD SWAP3 SWAP1 SWAP3 MSTORE PUSH1 0x40 ADD SWAP1 KECCAK256 PUSH1 0x4 DUP2 ADD SLOAD SWAP1 SWAP2 POP PUSH1 0xFF AND PUSH2 0x3D65 JUMPI PUSH2 0x3B6B DUP2 DUP15 PUSH2 0x39D0 JUMP JUMPDEST PUSH1 0x1 DUP11 DUP2 ADD SLOAD SWAP2 SWAP9 POP PUSH1 0x1 PUSH1 0x38 SHL SWAP1 SWAP2 DIV PUSH1 0xFF AND LT DUP1 ISZERO SWAP1 PUSH2 0x3B8B JUMPI POP DUP12 ISZERO JUMPDEST ISZERO PUSH2 0x3BEA JUMPI PUSH2 0x3E8 PUSH1 0x46 PUSH1 0x0 DUP2 SLOAD DUP2 LT PUSH2 0x3BA1 JUMPI INVALID JUMPDEST SWAP1 PUSH1 0x0 MSTORE PUSH1 0x20 PUSH1 0x0 KECCAK256 ADD PUSH1 0x2 DUP2 SLOAD DUP2 LT PUSH2 0x3BB7 JUMPI INVALID JUMPDEST PUSH1 0x0 SWAP2 DUP3 MSTORE PUSH1 0x20 SWAP2 DUP3 SWAP1 KECCAK256 SWAP2 DUP2 DIV SWAP1 SWAP2 ADD SLOAD PUSH1 0xFF PUSH1 0x1F SWAP1 SWAP3 AND PUSH2 0x100 EXP SWAP1 DIV AND DUP9 MUL DUP2 PUSH2 0x3BE0 JUMPI INVALID JUMPDEST DIV DUP6 ADD SWAP5 POP PUSH2 0x3D13 JUMP JUMPDEST PUSH1 0x1 DUP10 DUP2 ADD SLOAD PUSH1 0x1 PUSH1 0x38 SHL SWAP1 DIV PUSH1 0xFF AND LT DUP1 ISZERO SWAP1 PUSH2 0x3C08 JUMPI POP DUP12 PUSH1 0x1 EQ JUMPDEST ISZERO PUSH2 0x3C1E JUMPI PUSH2 0x3E8 PUSH1 0x46 PUSH1 0x1 DUP2 SLOAD DUP2 LT PUSH2 0x3BA1 JUMPI INVALID JUMPDEST PUSH1 0x1 DUP10 ADD SLOAD PUSH1 0x2 PUSH1 0x1 PUSH1 0x38 SHL SWAP1 SWAP2 DIV PUSH1 0xFF AND LT DUP1 ISZERO SWAP1 PUSH2 0x3C3F JUMPI POP PUSH1 0x2 DUP13 LT ISZERO JUMPDEST DUP1 ISZERO PUSH2 0x3C4C JUMPI POP PUSH1 0x6 DUP13 GT ISZERO JUMPDEST ISZERO PUSH2 0x3C62 JUMPI PUSH2 0x3E8 PUSH1 0x46 PUSH1 0x2 DUP2 SLOAD DUP2 LT PUSH2 0x3BA1 JUMPI INVALID JUMPDEST PUSH1 0x1 DUP10 ADD SLOAD PUSH1 0x3 PUSH1 0x1 PUSH1 0x38 SHL SWAP1 SWAP2 DIV PUSH1 0xFF AND LT DUP1 ISZERO SWAP1 PUSH2 0x3C83 JUMPI POP PUSH1 0x7 DUP13 LT ISZERO JUMPDEST DUP1 ISZERO PUSH2 0x3C90 JUMPI POP PUSH1 0xF DUP13 GT ISZERO JUMPDEST ISZERO PUSH2 0x3CA6 JUMPI PUSH2 0x3E8 PUSH1 0x46 PUSH1 0x3 DUP2 SLOAD DUP2 LT PUSH2 0x3BA1 JUMPI INVALID JUMPDEST PUSH1 0x1 DUP10 ADD SLOAD PUSH1 0x4 PUSH1 0x1 PUSH1 0x38 SHL SWAP1 SWAP2 DIV PUSH1 0xFF AND LT PUSH2 0x3D13 JUMPI PUSH2 0x3E8 PUSH1 0x46 PUSH1 0x4 DUP2 SLOAD DUP2 LT PUSH2 0x3CCE JUMPI INVALID JUMPDEST SWAP1 PUSH1 0x0 MSTORE PUSH1 0x20 PUSH1 0x0 KECCAK256 ADD PUSH1 0x2 DUP2 SLOAD DUP2 LT PUSH2 0x3CE4 JUMPI INVALID JUMPDEST PUSH1 0x0 SWAP2 DUP3 MSTORE PUSH1 0x20 SWAP2 DUP3 SWAP1 KECCAK256 SWAP2 DUP2 DIV SWAP1 SWAP2 ADD SLOAD PUSH1 0xFF PUSH1 0x1F SWAP1 SWAP3 AND PUSH2 0x100 EXP SWAP1 DIV AND DUP9 MUL DUP2 PUSH2 0x3D0D JUMPI INVALID JUMPDEST DIV DUP6 ADD SWAP5 POP JUMPDEST PUSH1 0x1 DUP12 SUB DUP13 LT ISZERO PUSH2 0x3D54 JUMPI PUSH2 0x3D26 PUSH2 0x443C JUMP JUMPDEST PUSH2 0x3D35 DUP4 DUP16 DUP16 PUSH1 0x1 ADD DUP16 PUSH2 0x3A79 JUMP JUMPDEST SWAP1 POP DUP1 PUSH1 0x0 ADD MLOAD DUP6 ADD SWAP5 POP DUP1 PUSH1 0x20 ADD MLOAD DUP8 ADD SWAP7 POP DUP1 PUSH1 0x40 ADD MLOAD DUP7 ADD SWAP6 POP POP JUMPDEST PUSH1 0x2 DUP2 ADD SLOAD SWAP6 SWAP1 SWAP6 ADD SWAP5 PUSH1 0x1 SWAP1 SWAP4 ADD SWAP3 JUMPDEST POP POP PUSH1 0x1 ADD PUSH2 0x3AE7 JUMP JUMPDEST POP PUSH1 0x40 DUP1 MLOAD PUSH1 0x60 DUP2 ADD DUP3 MSTORE SWAP2 DUP3 MSTORE PUSH1 0x20 DUP3 ADD SWAP4 SWAP1 SWAP4 MSTORE SWAP2 DUP3 ADD MSTORE SWAP9 SWAP8 POP POP POP POP POP POP POP POP JUMP JUMPDEST PUSH1 0x1 PUSH1 0x1 PUSH1 0xA0 SHL SUB DUP2 AND PUSH2 0x3DBB JUMPI PUSH1 0x40 MLOAD PUSH3 0x461BCD PUSH1 0xE5 SHL DUP2 MSTORE PUSH1 0x4 ADD PUSH2 0xBF3 SWAP1 PUSH2 0x49FC JUMP JUMPDEST PUSH1 0x0 DUP1 SLOAD PUSH1 0x40 MLOAD PUSH1 0x1 PUSH1 0x1 PUSH1 0xA0 SHL SUB DUP1 DUP6 AND SWAP4 SWAP3 AND SWAP2 PUSH32 0x8BE0079C531659141344CD1FD0A4F28419497F9722A3DAAFE3B4186F6B6457E0 SWAP2 LOG3 PUSH1 0x0 DUP1 SLOAD PUSH1 0x1 PUSH1 0x1 PUSH1 0xA0 SHL SUB NOT AND PUSH1 0x1 PUSH1 0x1 PUSH1 0xA0 SHL SUB SWAP3 SWAP1 SWAP3 AND SWAP2 SWAP1 SWAP2 OR SWAP1 SSTORE JUMP JUMPDEST PUSH1 0x7 SLOAD PUSH1 0x40 MLOAD PUSH4 0x70A08231 PUSH1 0xE0 SHL DUP2 MSTORE PUSH1 0x0 SWAP2 PUSH2 0x100 SWAP1 DIV PUSH1 0x1 PUSH1 0x1 PUSH1 0xA0 SHL SUB AND SWAP1 PUSH4 0x70A08231 SWAP1 PUSH2 0x3E4C SWAP1 ADDRESS SWAP1 PUSH1 0x4 ADD PUSH2 0x46C5 JUMP JUMPDEST PUSH1 0x20 PUSH1 0x40 MLOAD DUP1 DUP4 SUB DUP2 DUP7 DUP1 EXTCODESIZE ISZERO DUP1 ISZERO PUSH2 0x3E64 JUMPI PUSH1 0x0 DUP1 REVERT JUMPDEST POP GAS STATICCALL ISZERO DUP1 ISZERO PUSH2 0x3E78 JUMPI RETURNDATASIZE PUSH1 0x0 DUP1 RETURNDATACOPY RETURNDATASIZE PUSH1 0x0 REVERT JUMPDEST POP POP POP POP PUSH1 0x40 MLOAD RETURNDATASIZE PUSH1 0x1F NOT PUSH1 0x1F DUP3 ADD AND DUP3 ADD DUP1 PUSH1 0x40 MSTORE POP DUP2 ADD SWAP1 PUSH2 0x14FB SWAP2 SWAP1 PUSH2 0x461F JUMP JUMPDEST PUSH1 0x0 PUSH1 0x60 DUP6 PUSH1 0x1 PUSH1 0x1 PUSH1 0xA0 SHL SUB AND PUSH4 0x23B872DD DUP7 DUP7 DUP7 PUSH1 0x40 MLOAD PUSH1 0x24 ADD PUSH2 0x3EC4 SWAP4 SWAP3 SWAP2 SWAP1 PUSH2 0x46D9 JUMP JUMPDEST PUSH1 0x40 MLOAD PUSH1 0x20 DUP2 DUP4 SUB SUB DUP2 MSTORE SWAP1 PUSH1 0x40 MSTORE SWAP1 PUSH1 0xE0 SHL PUSH1 0x20 DUP3 ADD DUP1 MLOAD PUSH1 0x1 PUSH1 0x1 PUSH1 0xE0 SHL SUB DUP4 DUP2 DUP4 AND OR DUP4 MSTORE POP POP POP POP PUSH1 0x40 MLOAD PUSH2 0x3EFD SWAP2 SWAP1 PUSH2 0x46A9 JUMP JUMPDEST PUSH1 0x0 PUSH1 0x40 MLOAD DUP1 DUP4 SUB DUP2 PUSH1 0x0 DUP7 GAS CALL SWAP2 POP POP RETURNDATASIZE DUP1 PUSH1 0x0 DUP2 EQ PUSH2 0x3F3A JUMPI PUSH1 0x40 MLOAD SWAP2 POP PUSH1 0x1F NOT PUSH1 0x3F RETURNDATASIZE ADD AND DUP3 ADD PUSH1 0x40 MSTORE RETURNDATASIZE DUP3 MSTORE RETURNDATASIZE PUSH1 0x0 PUSH1 0x20 DUP5 ADD RETURNDATACOPY PUSH2 0x3F3F JUMP JUMPDEST PUSH1 0x60 SWAP2 POP JUMPDEST POP SWAP2 POP SWAP2 POP DUP2 DUP1 ISZERO PUSH2 0x3F69 JUMPI POP DUP1 MLOAD ISZERO DUP1 PUSH2 0x3F69 JUMPI POP DUP1 DUP1 PUSH1 0x20 ADD SWAP1 MLOAD DUP2 ADD SWAP1 PUSH2 0x3F69 SWAP2 SWAP1 PUSH2 0x45E7 JUMP JUMPDEST PUSH2 0x12B4 JUMPI PUSH1 0x40 MLOAD PUSH3 0x461BCD PUSH1 0xE5 SHL DUP2 MSTORE PUSH1 0x4 ADD PUSH2 0xBF3 SWAP1 PUSH2 0x4E49 JUMP JUMPDEST PUSH1 0x0 PUSH2 0x207D DUP4 DUP4 PUSH1 0x40 MLOAD DUP1 PUSH1 0x40 ADD PUSH1 0x40 MSTORE DUP1 PUSH1 0x1E DUP2 MSTORE PUSH1 0x20 ADD PUSH32 0x536166654D6174683A207375627472616374696F6E206F766572666C6F770000 DUP2 MSTORE POP PUSH2 0x2389 JUMP JUMPDEST PUSH1 0x0 DUP1 PUSH2 0x3E9 PUSH1 0x18 PUSH1 0x8 SWAP1 SLOAD SWAP1 PUSH2 0x100 EXP SWAP1 DIV PUSH2 0xFFFF AND PUSH2 0xFFFF AND LT PUSH2 0x3FFE JUMPI PUSH1 0x18 SLOAD PUSH1 0x1 PUSH1 0x40 SHL SWAP1 DIV PUSH2 0xFFFF AND PUSH2 0x7D0 SUB PUSH2 0x400D JUMP JUMPDEST PUSH1 0x18 SLOAD PUSH1 0x1 PUSH1 0x40 SHL SWAP1 DIV PUSH2 0xFFFF AND JUMPDEST PUSH1 0x1A SLOAD PUSH2 0xFFFF SWAP2 DUP3 AND SWAP3 POP AND DUP2 EQ ISZERO PUSH2 0x40B0 JUMPI PUSH1 0x18 DUP1 SLOAD PUSH10 0xFFFF0000000000000000 NOT DUP2 AND PUSH1 0x1 PUSH1 0x40 SHL SWAP2 DUP3 SWAP1 DIV PUSH2 0xFFFF SWAP1 DUP2 AND PUSH1 0x1 ADD DUP2 AND DUP4 MUL SWAP2 SWAP1 SWAP2 OR SWAP3 DUP4 SWAP1 SSTORE PUSH1 0x40 MLOAD PUSH32 0x66D08156B35A3DDC911DAFBC8B10FFDC4E5126B090253256CFA71A80F87AEFEE SWAP4 PUSH2 0x4084 SWAP4 SWAP1 DIV SWAP1 SWAP2 AND SWAP1 PUSH2 0x4EBC JUMP JUMPDEST PUSH1 0x40 MLOAD DUP1 SWAP2 SUB SWAP1 LOG1 PUSH2 0x409A PUSH1 0x17 SLOAD PUSH1 0x16 SLOAD PUSH2 0x2058 JUMP JUMPDEST PUSH1 0x17 SSTORE PUSH1 0x1A DUP1 SLOAD PUSH2 0xFFFF NOT AND PUSH1 0x1 OR SWAP1 SSTORE PUSH2 0x40C9 JUMP JUMPDEST PUSH1 0x1A DUP1 SLOAD PUSH2 0xFFFF DUP1 DUP3 AND PUSH1 0x1 ADD AND PUSH2 0xFFFF NOT SWAP1 SWAP2 AND OR SWAP1 SSTORE JUMPDEST POP POP PUSH1 0x18 DUP1 SLOAD PUSH8 0xFFFFFFFF00000000 NOT DUP2 AND PUSH1 0x1 PUSH1 0x20 SHL SWAP2 DUP3 SWAP1 DIV PUSH4 0xFFFFFFFF SWAP1 DUP2 AND PUSH1 0x1 ADD DUP2 AND DUP4 MUL SWAP2 SWAP1 SWAP2 OR SWAP3 DUP4 SWAP1 SSTORE SWAP2 DIV AND SWAP1 JUMP JUMPDEST PUSH1 0x1 PUSH1 0x1 PUSH1 0xA0 SHL SUB DUP2 AND PUSH1 0x0 SWAP1 DUP2 MSTORE PUSH1 0x49 PUSH1 0x20 MSTORE PUSH1 0x40 DUP2 KECCAK256 PUSH1 0xE DUP2 ADD SLOAD ISZERO PUSH2 0x413B JUMPI PUSH2 0x4136 DUP2 PUSH1 0xE ADD PUSH1 0x0 DUP2 SLOAD DUP2 LT PUSH2 0x340A JUMPI INVALID JUMPDEST PUSH2 0x207D JUMP JUMPDEST POP SWAP1 SWAP2 SWAP1 POP JUMP JUMPDEST PUSH1 0x0 DUP1 DUP1 JUMPDEST PUSH1 0x14 DUP2 LT ISZERO PUSH2 0x26AF JUMPI PUSH1 0xA SLOAD PUSH1 0xD DUP6 ADD SLOAD PUSH1 0x1 PUSH1 0x1 PUSH1 0xA0 SHL SUB SWAP1 DUP2 AND SWAP2 AND EQ PUSH2 0x4199 JUMPI PUSH1 0xD DUP5 ADD SLOAD PUSH1 0x1 PUSH1 0x1 PUSH1 0xA0 SHL SUB AND PUSH1 0x0 SWAP1 DUP2 MSTORE PUSH1 0x49 PUSH1 0x20 MSTORE PUSH1 0x40 SWAP1 KECCAK256 PUSH1 0x1 ADD SLOAD PUSH1 0x1 PUSH1 0x38 SHL SWAP1 DIV PUSH1 0xFF AND PUSH2 0x419C JUMP JUMPDEST PUSH1 0x4 JUMPDEST SWAP3 POP PUSH1 0x1 DUP4 PUSH1 0xFF AND LT ISZERO DUP1 ISZERO PUSH2 0x41B2 JUMPI POP DUP1 PUSH1 0x1 EQ JUMPDEST ISZERO PUSH2 0x4216 JUMPI PUSH2 0x3E8 PUSH1 0x46 PUSH1 0x0 DUP2 SLOAD DUP2 LT PUSH2 0x41C8 JUMPI INVALID JUMPDEST SWAP1 PUSH1 0x0 MSTORE PUSH1 0x20 PUSH1 0x0 KECCAK256 ADD PUSH1 0x2 DUP2 SLOAD DUP2 LT PUSH2 0x41DE JUMPI INVALID JUMPDEST SWAP1 PUSH1 0x0 MSTORE PUSH1 0x20 PUSH1 0x0 KECCAK256 SWAP1 PUSH1 0x20 SWAP2 DUP3 DUP3 DIV ADD SWAP2 SWAP1 MOD SWAP1 SLOAD SWAP1 PUSH2 0x100 EXP SWAP1 DIV PUSH1 0xFF AND PUSH1 0xFF AND DUP6 PUSH1 0x7 ADD SLOAD MUL DUP2 PUSH2 0x420E JUMPI INVALID JUMPDEST DIV SWAP2 POP PUSH2 0x4316 JUMP JUMPDEST PUSH1 0x1 DUP4 PUSH1 0xFF AND LT ISZERO DUP1 ISZERO PUSH2 0x422A JUMPI POP DUP1 PUSH1 0x2 EQ JUMPDEST ISZERO PUSH2 0x4240 JUMPI PUSH2 0x3E8 PUSH1 0x46 PUSH1 0x1 DUP2 SLOAD DUP2 LT PUSH2 0x41C8 JUMPI INVALID JUMPDEST PUSH1 0x2 DUP4 PUSH1 0xFF AND LT ISZERO DUP1 ISZERO PUSH2 0x4255 JUMPI POP PUSH1 0x3 DUP2 LT ISZERO JUMPDEST DUP1 ISZERO PUSH2 0x4262 JUMPI POP PUSH1 0x7 DUP2 GT ISZERO JUMPDEST ISZERO PUSH2 0x4278 JUMPI PUSH2 0x3E8 PUSH1 0x46 PUSH1 0x2 DUP2 SLOAD DUP2 LT PUSH2 0x41C8 JUMPI INVALID JUMPDEST PUSH1 0x3 DUP4 PUSH1 0xFF AND LT ISZERO DUP1 ISZERO PUSH2 0x428D JUMPI POP PUSH1 0x8 DUP2 LT ISZERO JUMPDEST DUP1 ISZERO PUSH2 0x429A JUMPI POP PUSH1 0x10 DUP2 GT ISZERO JUMPDEST ISZERO PUSH2 0x42B0 JUMPI PUSH2 0x3E8 PUSH1 0x46 PUSH1 0x3 DUP2 SLOAD DUP2 LT PUSH2 0x41C8 JUMPI INVALID JUMPDEST PUSH1 0x4 DUP4 PUSH1 0xFF AND LT PUSH2 0x4316 JUMPI PUSH2 0x3E8 PUSH1 0x46 PUSH1 0x4 DUP2 SLOAD DUP2 LT PUSH2 0x42CC JUMPI INVALID JUMPDEST SWAP1 PUSH1 0x0 MSTORE PUSH1 0x20 PUSH1 0x0 KECCAK256 ADD PUSH1 0x2 DUP2 SLOAD DUP2 LT PUSH2 0x42E2 JUMPI INVALID JUMPDEST SWAP1 PUSH1 0x0 MSTORE PUSH1 0x20 PUSH1 0x0 KECCAK256 SWAP1 PUSH1 0x20 SWAP2 DUP3 DUP3 DIV ADD SWAP2 SWAP1 MOD SWAP1 SLOAD SWAP1 PUSH2 0x100 EXP SWAP1 DIV PUSH1 0xFF AND PUSH1 0xFF AND DUP6 PUSH1 0x7 ADD SLOAD MUL DUP2 PUSH2 0x4312 JUMPI INVALID JUMPDEST DIV SWAP2 POP JUMPDEST DUP2 ISZERO PUSH2 0x436A JUMPI PUSH1 0xA SLOAD PUSH1 0xD DUP6 ADD SLOAD PUSH1 0x1 PUSH1 0x1 PUSH1 0xA0 SHL SUB SWAP1 DUP2 AND SWAP2 AND EQ ISZERO PUSH2 0x4344 JUMPI PUSH1 0xB DUP1 SLOAD DUP4 ADD SWAP1 SSTORE PUSH2 0x26AF JUMP JUMPDEST PUSH1 0xD DUP5 ADD SLOAD PUSH1 0x1 PUSH1 0x1 PUSH1 0xA0 SHL SUB AND PUSH1 0x0 SWAP1 DUP2 MSTORE PUSH1 0x49 PUSH1 0x20 MSTORE PUSH1 0x40 SWAP1 KECCAK256 PUSH1 0x8 ADD DUP1 SLOAD DUP4 ADD SWAP1 SSTORE JUMPDEST PUSH1 0x1 ADD PUSH2 0x4147 JUMP JUMPDEST PUSH1 0x1 PUSH1 0x1 PUSH1 0xA0 SHL SUB DUP2 AND PUSH1 0x0 SWAP1 DUP2 MSTORE PUSH1 0x49 PUSH1 0x20 MSTORE PUSH1 0x40 DUP2 KECCAK256 PUSH1 0x1 DUP1 DUP3 ADD SLOAD PUSH1 0x1 PUSH1 0x30 SHL SWAP1 DIV PUSH1 0xFF AND PUSH1 0x2 DUP2 GT ISZERO PUSH2 0x43A5 JUMPI INVALID JUMPDEST EQ PUSH2 0x413B JUMPI PUSH1 0xD DUP2 ADD SLOAD PUSH2 0x4136 SWAP1 PUSH1 0x1 PUSH1 0x1 PUSH1 0xA0 SHL SUB AND PUSH2 0x4372 JUMP JUMPDEST PUSH1 0x40 MLOAD DUP1 PUSH2 0x1A0 ADD PUSH1 0x40 MSTORE DUP1 PUSH1 0xD SWAP1 PUSH1 0x20 DUP3 MUL DUP1 CALLDATASIZE DUP4 CALLDATACOPY POP SWAP2 SWAP3 SWAP2 POP POP JUMP JUMPDEST PUSH1 0x40 MLOAD DUP1 PUSH2 0x160 ADD PUSH1 0x40 MSTORE DUP1 PUSH1 0xB SWAP1 PUSH1 0x20 DUP3 MUL DUP1 CALLDATASIZE DUP4 CALLDATACOPY POP SWAP2 SWAP3 SWAP2 POP POP JUMP JUMPDEST PUSH1 0x40 MLOAD DUP1 PUSH1 0x80 ADD PUSH1 0x40 MSTORE DUP1 PUSH1 0x4 SWAP1 PUSH1 0x20 DUP3 MUL DUP1 CALLDATASIZE DUP4 CALLDATACOPY POP SWAP2 SWAP3 SWAP2 POP POP JUMP JUMPDEST PUSH1 0x40 MLOAD DUP1 PUSH2 0x100 ADD PUSH1 0x40 MSTORE DUP1 PUSH1 0x8 SWAP1 PUSH1 0x20 DUP3 MUL DUP1 CALLDATASIZE DUP4 CALLDATACOPY POP SWAP2 SWAP3 SWAP2 POP POP JUMP JUMPDEST PUSH1 0x40 MLOAD DUP1 PUSH1 0x60 ADD PUSH1 0x40 MSTORE DUP1 PUSH1 0x0 DUP2 MSTORE PUSH1 0x20 ADD PUSH1 0x0 DUP2 MSTORE PUSH1 0x20 ADD PUSH1 0x0 DUP2 MSTORE POP SWAP1 JUMP JUMPDEST PUSH1 0x0 PUSH1 0x20 DUP3 DUP5 SUB SLT ISZERO PUSH2 0x446E JUMPI DUP1 DUP2 REVERT JUMPDEST DUP2 CALLDATALOAD PUSH2 0x207D DUP2 PUSH2 0x4F5C JUMP JUMPDEST PUSH1 0x0 DUP1 PUSH1 0x40 DUP4 DUP6 SUB SLT ISZERO PUSH2 0x448B JUMPI DUP1 DUP2 REVERT JUMPDEST DUP3 CALLDATALOAD PUSH2 0x4496 DUP2 PUSH2 0x4F5C JUMP JUMPDEST SWAP2 POP PUSH1 0x20 DUP4 ADD CALLDATALOAD PUSH2 0x44A6 DUP2 PUSH2 0x4F5C JUMP JUMPDEST DUP1 SWAP2 POP POP SWAP3 POP SWAP3 SWAP1 POP JUMP JUMPDEST PUSH1 0x0 DUP1 PUSH1 0x0 DUP1 PUSH1 0x80 DUP6 DUP8 SUB SLT ISZERO PUSH2 0x44C6 JUMPI DUP2 DUP3 REVERT JUMPDEST DUP5 CALLDATALOAD PUSH2 0x44D1 DUP2 PUSH2 0x4F5C JUMP JUMPDEST SWAP4 POP PUSH1 0x20 DUP6 ADD CALLDATALOAD PUSH2 0x44E1 DUP2 PUSH2 0x4F5C JUMP JUMPDEST SWAP3 POP PUSH1 0x40 DUP6 ADD CALLDATALOAD PUSH2 0x44F1 DUP2 PUSH2 0x4F5C JUMP JUMPDEST SWAP2 POP PUSH1 0x60 DUP6 ADD CALLDATALOAD PUSH2 0x4501 DUP2 PUSH2 0x4F5C JUMP JUMPDEST SWAP4 SWAP7 SWAP3 SWAP6 POP SWAP1 SWAP4 POP POP JUMP JUMPDEST PUSH1 0x0 DUP1 PUSH1 0x0 DUP1 PUSH1 0x0 PUSH1 0xA0 DUP7 DUP9 SUB SLT ISZERO PUSH2 0x4523 JUMPI DUP1 DUP2 REVERT JUMPDEST DUP6 CALLDATALOAD PUSH2 0x452E DUP2 PUSH2 0x4F5C JUMP JUMPDEST SWAP5 POP PUSH1 0x20 DUP7 ADD CALLDATALOAD PUSH2 0x453E DUP2 PUSH2 0x4F5C JUMP JUMPDEST SWAP4 POP PUSH1 0x40 DUP7 ADD CALLDATALOAD PUSH2 0x454E DUP2 PUSH2 0x4F5C JUMP JUMPDEST SWAP3 POP PUSH1 0x60 DUP7 ADD CALLDATALOAD PUSH2 0x455E DUP2 PUSH2 0x4F5C JUMP JUMPDEST SWAP2 POP PUSH1 0x80 DUP7 ADD CALLDATALOAD PUSH2 0x456E DUP2 PUSH2 0x4F5C JUMP JUMPDEST DUP1 SWAP2 POP POP SWAP3 SWAP6 POP SWAP3 SWAP6 SWAP1 SWAP4 POP JUMP JUMPDEST PUSH1 0x0 DUP1 PUSH1 0x0 PUSH1 0x60 DUP5 DUP7 SUB SLT ISZERO PUSH2 0x4590 JUMPI DUP3 DUP4 REVERT JUMPDEST DUP4 CALLDATALOAD PUSH2 0x459B DUP2 PUSH2 0x4F5C JUMP JUMPDEST SWAP3 POP PUSH1 0x20 DUP5 ADD CALLDATALOAD PUSH2 0x45AB DUP2 PUSH2 0x4F5C JUMP JUMPDEST SWAP3 SWAP6 SWAP3 SWAP5 POP POP POP PUSH1 0x40 SWAP2 SWAP1 SWAP2 ADD CALLDATALOAD SWAP1 JUMP JUMPDEST PUSH1 0x0 DUP1 PUSH1 0x40 DUP4 DUP6 SUB SLT ISZERO PUSH2 0x45CE JUMPI DUP2 DUP3 REVERT JUMPDEST DUP3 CALLDATALOAD PUSH2 0x45D9 DUP2 PUSH2 0x4F5C JUMP JUMPDEST SWAP5 PUSH1 0x20 SWAP4 SWAP1 SWAP4 ADD CALLDATALOAD SWAP4 POP POP POP JUMP JUMPDEST PUSH1 0x0 PUSH1 0x20 DUP3 DUP5 SUB SLT ISZERO PUSH2 0x45F8 JUMPI DUP1 DUP2 REVERT JUMPDEST DUP2 MLOAD DUP1 ISZERO ISZERO DUP2 EQ PUSH2 0x207D JUMPI DUP2 DUP3 REVERT JUMPDEST PUSH1 0x0 PUSH1 0x20 DUP3 DUP5 SUB SLT ISZERO PUSH2 0x4618 JUMPI DUP1 DUP2 REVERT JUMPDEST POP CALLDATALOAD SWAP2 SWAP1 POP JUMP JUMPDEST PUSH1 0x0 PUSH1 0x20 DUP3 DUP5 SUB SLT ISZERO PUSH2 0x4630 JUMPI DUP1 DUP2 REVERT JUMPDEST POP MLOAD SWAP2 SWAP1 POP JUMP JUMPDEST PUSH1 0x0 DUP2 MLOAD DUP1 DUP5 MSTORE PUSH1 0x20 DUP1 DUP6 ADD SWAP5 POP DUP1 DUP5 ADD DUP4 JUMPDEST DUP4 DUP2 LT ISZERO PUSH2 0x466F JUMPI DUP2 MLOAD PUSH1 0x1 PUSH1 0x1 PUSH1 0xA0 SHL SUB AND DUP8 MSTORE SWAP6 DUP3 ADD SWAP6 SWAP1 DUP3 ADD SWAP1 PUSH1 0x1 ADD PUSH2 0x464A JUMP JUMPDEST POP SWAP5 SWAP6 SWAP5 POP POP POP POP POP JUMP JUMPDEST PUSH1 0x0 DUP2 MLOAD DUP1 DUP5 MSTORE PUSH1 0x20 DUP1 DUP6 ADD SWAP5 POP DUP1 DUP5 ADD DUP4 JUMPDEST DUP4 DUP2 LT ISZERO PUSH2 0x466F JUMPI DUP2 MLOAD DUP8 MSTORE SWAP6 DUP3 ADD SWAP6 SWAP1 DUP3 ADD SWAP1 PUSH1 0x1 ADD PUSH2 0x468D JUMP JUMPDEST PUSH1 0x0 DUP3 MLOAD PUSH2 0x46BB DUP2 DUP5 PUSH1 0x20 DUP8 ADD PUSH2 0x4F30 JUMP JUMPDEST SWAP2 SWAP1 SWAP2 ADD SWAP3 SWAP2 POP POP JUMP JUMPDEST PUSH1 0x1 PUSH1 0x1 PUSH1 0xA0 SHL SUB SWAP2 SWAP1 SWAP2 AND DUP2 MSTORE PUSH1 0x20 ADD SWAP1 JUMP JUMPDEST PUSH1 0x1 PUSH1 0x1 PUSH1 0xA0 SHL SUB SWAP4 DUP5 AND DUP2 MSTORE SWAP2 SWAP1 SWAP3 AND PUSH1 0x20 DUP3 ADD MSTORE PUSH1 0x40 DUP2 ADD SWAP2 SWAP1 SWAP2 MSTORE PUSH1 0x60 ADD SWAP1 JUMP JUMPDEST PUSH1 0x1 PUSH1 0x1 PUSH1 0xA0 SHL SUB SWAP3 SWAP1 SWAP3 AND DUP3 MSTORE PUSH1 0x20 DUP3 ADD MSTORE PUSH1 0x40 ADD SWAP1 JUMP JUMPDEST PUSH1 0x1 PUSH1 0x1 PUSH1 0xA0 SHL SUB SWAP3 SWAP1 SWAP3 AND DUP3 MSTORE PUSH4 0xFFFFFFFF AND PUSH1 0x20 DUP3 ADD MSTORE PUSH1 0x40 ADD SWAP1 JUMP JUMPDEST PUSH1 0x0 PUSH1 0x60 DUP3 MSTORE PUSH2 0x4748 PUSH1 0x60 DUP4 ADD DUP7 PUSH2 0x4637 JUMP JUMPDEST DUP3 DUP2 SUB PUSH1 0x20 DUP5 ADD MSTORE PUSH2 0x475A DUP2 DUP7 PUSH2 0x467A JUMP JUMPDEST SWAP1 POP DUP3 DUP2 SUB PUSH1 0x40 DUP5 ADD MSTORE PUSH2 0x476E DUP2 DUP6 PUSH2 0x467A JUMP JUMPDEST SWAP7 SWAP6 POP POP POP POP POP POP JUMP JUMPDEST PUSH1 0x20 DUP1 DUP3 MSTORE DUP3 MLOAD DUP3 DUP3 ADD DUP2 SWAP1 MSTORE PUSH1 0x0 SWAP2 SWAP1 DUP5 DUP3 ADD SWAP1 PUSH1 0x40 DUP6 ADD SWAP1 DUP5 JUMPDEST DUP2 DUP2 LT ISZERO PUSH2 0x47D4 JUMPI DUP4 MLOAD DUP4 DUP8 JUMPDEST PUSH1 0x4 DUP2 LT ISZERO PUSH2 0x47BE JUMPI DUP3 MLOAD DUP3 MSTORE SWAP2 DUP8 ADD SWAP2 SWAP1 DUP8 ADD SWAP1 PUSH1 0x1 ADD PUSH2 0x47A1 JUMP JUMPDEST POP POP POP SWAP3 DUP5 ADD SWAP3 PUSH1 0x80 SWAP3 SWAP1 SWAP3 ADD SWAP2 PUSH1 0x1 ADD PUSH2 0x4794 JUMP JUMPDEST POP SWAP1 SWAP7 SWAP6 POP POP POP POP POP POP JUMP JUMPDEST PUSH2 0x160 DUP2 ADD DUP2 DUP4 PUSH1 0x0 JUMPDEST PUSH1 0xB DUP2 LT ISZERO PUSH2 0x4809 JUMPI DUP2 MLOAD DUP4 MSTORE PUSH1 0x20 SWAP3 DUP4 ADD SWAP3 SWAP1 SWAP2 ADD SWAP1 PUSH1 0x1 ADD PUSH2 0x47EA JUMP JUMPDEST POP POP POP SWAP3 SWAP2 POP POP JUMP JUMPDEST PUSH2 0x1A0 DUP2 ADD DUP2 DUP4 PUSH1 0x0 JUMPDEST PUSH1 0xD DUP2 LT ISZERO PUSH2 0x4809 JUMPI DUP2 MLOAD DUP4 MSTORE PUSH1 0x20 SWAP3 DUP4 ADD SWAP3 SWAP1 SWAP2 ADD SWAP1 PUSH1 0x1 ADD PUSH2 0x481C JUMP JUMPDEST PUSH2 0x100 DUP2 ADD DUP2 DUP4 PUSH1 0x0 JUMPDEST PUSH1 0x8 DUP2 LT ISZERO PUSH2 0x4809 JUMPI DUP2 MLOAD DUP4 MSTORE PUSH1 0x20 SWAP3 DUP4 ADD SWAP3 SWAP1 SWAP2 ADD SWAP1 PUSH1 0x1 ADD PUSH2 0x4845 JUMP JUMPDEST SWAP1 ISZERO ISZERO DUP2 MSTORE PUSH1 0x20 ADD SWAP1 JUMP JUMPDEST SWAP5 ISZERO ISZERO DUP6 MSTORE PUSH1 0x20 DUP6 ADD SWAP4 SWAP1 SWAP4 MSTORE PUSH1 0x40 DUP5 ADD SWAP2 SWAP1 SWAP2 MSTORE PUSH1 0x60 DUP4 ADD MSTORE PUSH1 0x80 DUP3 ADD MSTORE PUSH1 0xA0 ADD SWAP1 JUMP JUMPDEST PUSH1 0x0 PUSH1 0x20 DUP3 MSTORE DUP3 MLOAD DUP1 PUSH1 0x20 DUP5 ADD MSTORE PUSH2 0x48B3 DUP2 PUSH1 0x40 DUP6 ADD PUSH1 0x20 DUP8 ADD PUSH2 0x4F30 JUMP JUMPDEST PUSH1 0x1F ADD PUSH1 0x1F NOT AND SWAP2 SWAP1 SWAP2 ADD PUSH1 0x40 ADD SWAP3 SWAP2 POP POP JUMP JUMPDEST PUSH1 0x20 DUP1 DUP3 MSTORE PUSH1 0x1F SWAP1 DUP3 ADD MSTORE PUSH32 0x5472616E7366657248656C7065723A205452414E534645525F4641494C454400 PUSH1 0x40 DUP3 ADD MSTORE PUSH1 0x60 ADD SWAP1 JUMP JUMPDEST PUSH1 0x20 DUP1 DUP3 MSTORE DUP2 DUP2 ADD MSTORE PUSH32 0x23204E656564704E6F64655F726566657265616C5F6C696E6B41646472657373 PUSH1 0x40 DUP3 ADD MSTORE PUSH1 0x60 ADD SWAP1 JUMP JUMPDEST PUSH1 0x20 DUP1 DUP3 MSTORE PUSH1 0x16 SWAP1 DUP3 ADD MSTORE PUSH22 0x2320696E76616C69645F7265666572616C5F6C696E6B PUSH1 0x50 SHL PUSH1 0x40 DUP3 ADD MSTORE PUSH1 0x60 ADD SWAP1 JUMP JUMPDEST PUSH1 0x20 DUP1 DUP3 MSTORE PUSH1 0x10 SWAP1 DUP3 ADD MSTORE PUSH16 0x119034B73B30B634B22FB9B2B73232B9 PUSH1 0x81 SHL PUSH1 0x40 DUP3 ADD MSTORE PUSH1 0x60 ADD SWAP1 JUMP JUMPDEST PUSH1 0x20 DUP1 DUP3 MSTORE PUSH1 0x13 SWAP1 DUP3 ADD MSTORE PUSH19 0x496E76616C69645F5265666572616C4C696E6B PUSH1 0x68 SHL PUSH1 0x40 DUP3 ADD MSTORE PUSH1 0x60 ADD SWAP1 JUMP JUMPDEST PUSH1 0x20 DUP1 DUP3 MSTORE PUSH1 0x22 SWAP1 DUP3 ADD MSTORE PUSH32 0x48524332303A20617070726F766520746F20746865207A65726F206164647265 PUSH1 0x40 DUP3 ADD MSTORE PUSH2 0x7373 PUSH1 0xF0 SHL PUSH1 0x60 DUP3 ADD MSTORE PUSH1 0x80 ADD SWAP1 JUMP JUMPDEST PUSH1 0x20 DUP1 DUP3 MSTORE PUSH1 0x26 SWAP1 DUP3 ADD MSTORE PUSH32 0x4F776E61626C653A206E6577206F776E657220697320746865207A65726F2061 PUSH1 0x40 DUP3 ADD MSTORE PUSH6 0x646472657373 PUSH1 0xD0 SHL PUSH1 0x60 DUP3 ADD MSTORE PUSH1 0x80 ADD SWAP1 JUMP JUMPDEST PUSH1 0x20 DUP1 DUP3 MSTORE PUSH1 0x25 SWAP1 DUP3 ADD MSTORE PUSH32 0x48524332303A207472616E736665722066726F6D20746865207A65726F206164 PUSH1 0x40 DUP3 ADD MSTORE PUSH5 0x6472657373 PUSH1 0xD8 SHL PUSH1 0x60 DUP3 ADD MSTORE PUSH1 0x80 ADD SWAP1 JUMP JUMPDEST PUSH1 0x20 DUP1 DUP3 MSTORE PUSH1 0xC SWAP1 DUP3 ADD MSTORE PUSH12 0x8C813DD995C999B1BDDD959 PUSH1 0xA2 SHL PUSH1 0x40 DUP3 ADD MSTORE PUSH1 0x60 ADD SWAP1 JUMP JUMPDEST PUSH1 0x20 DUP1 DUP3 MSTORE PUSH1 0x1B SWAP1 DUP3 ADD MSTORE PUSH32 0x536166654D6174683A206164646974696F6E206F766572666C6F770000000000 PUSH1 0x40 DUP3 ADD MSTORE PUSH1 0x60 ADD SWAP1 JUMP JUMPDEST PUSH1 0x20 DUP1 DUP3 MSTORE PUSH1 0xA SWAP1 DUP3 ADD MSTORE PUSH10 0x13DD995C999B1BDDD959 PUSH1 0xB2 SHL PUSH1 0x40 DUP3 ADD MSTORE PUSH1 0x60 ADD SWAP1 JUMP JUMPDEST PUSH1 0x20 DUP1 DUP3 MSTORE PUSH1 0x1F SWAP1 DUP3 ADD MSTORE PUSH32 0x48524332303A206D696E7420746F20746865207A65726F206164647265737300 PUSH1 0x40 DUP3 ADD MSTORE PUSH1 0x60 ADD SWAP1 JUMP JUMPDEST PUSH1 0x20 DUP1 DUP3 MSTORE PUSH1 0x10 SWAP1 DUP3 ADD MSTORE PUSH16 0x119024B73B30B634B22FB9B2B73232B9 PUSH1 0x81 SHL PUSH1 0x40 DUP3 ADD MSTORE PUSH1 0x60 ADD SWAP1 JUMP JUMPDEST PUSH1 0x20 DUP1 DUP3 MSTORE PUSH1 0xE SWAP1 DUP3 ADD MSTORE PUSH14 0x11902732B2B22F989812AFAA3631 PUSH1 0x91 SHL PUSH1 0x40 DUP3 ADD MSTORE PUSH1 0x60 ADD SWAP1 JUMP JUMPDEST PUSH1 0x20 DUP1 DUP3 MSTORE PUSH1 0x1A SWAP1 DUP3 ADD MSTORE PUSH32 0x23204E6565645F41646D696E5F726566657265616C5F6C696E6B000000000000 PUSH1 0x40 DUP3 ADD MSTORE PUSH1 0x60 ADD SWAP1 JUMP JUMPDEST PUSH1 0x20 DUP1 DUP3 MSTORE PUSH1 0x11 SWAP1 DUP3 ADD MSTORE PUSH17 0x8C8105B1C9958591E57DCDD185C9D1959 PUSH1 0x7A SHL PUSH1 0x40 DUP3 ADD MSTORE PUSH1 0x60 ADD SWAP1 JUMP JUMPDEST PUSH1 0x20 DUP1 DUP3 MSTORE PUSH1 0x21 SWAP1 DUP3 ADD MSTORE PUSH32 0x48524332303A206275726E2066726F6D20746865207A65726F20616464726573 PUSH1 0x40 DUP3 ADD MSTORE PUSH1 0x73 PUSH1 0xF8 SHL PUSH1 0x60 DUP3 ADD MSTORE PUSH1 0x80 ADD SWAP1 JUMP JUMPDEST PUSH1 0x20 DUP1 DUP3 MSTORE DUP2 DUP2 ADD MSTORE PUSH32 0x48524332303A20616C72656164792072656163686564206D6178537570706C79 PUSH1 0x40 DUP3 ADD MSTORE PUSH1 0x60 ADD SWAP1 JUMP JUMPDEST PUSH1 0x20 DUP1 DUP3 MSTORE PUSH1 0xC SWAP1 DUP3 ADD MSTORE PUSH12 0x34B73B30B634B22FBA34B2B9 PUSH1 0xA1 SHL PUSH1 0x40 DUP3 ADD MSTORE PUSH1 0x60 ADD SWAP1 JUMP JUMPDEST PUSH1 0x20 DUP1 DUP3 MSTORE DUP2 DUP2 ADD MSTORE PUSH32 0x4F776E61626C653A2063616C6C6572206973206E6F7420746865206F776E6572 PUSH1 0x40 DUP3 ADD MSTORE PUSH1 0x60 ADD SWAP1 JUMP JUMPDEST PUSH1 0x20 DUP1 DUP3 MSTORE PUSH1 0x23 SWAP1 DUP3 ADD MSTORE PUSH32 0x48524332303A207472616E7366657220746F20746865207A65726F2061646472 PUSH1 0x40 DUP3 ADD MSTORE PUSH3 0x657373 PUSH1 0xE8 SHL PUSH1 0x60 DUP3 ADD MSTORE PUSH1 0x80 ADD SWAP1 JUMP JUMPDEST PUSH1 0x20 DUP1 DUP3 MSTORE PUSH1 0xC SWAP1 DUP3 ADD MSTORE PUSH12 0x232066756C6C5F7573657273 PUSH1 0xA0 SHL PUSH1 0x40 DUP3 ADD MSTORE PUSH1 0x60 ADD SWAP1 JUMP JUMPDEST PUSH1 0x20 DUP1 DUP3 MSTORE PUSH1 0x13 SWAP1 DUP3 ADD MSTORE PUSH19 0x32BC3832B1BA32B22FBB30B634B22FBA34B2B9 PUSH1 0x69 SHL PUSH1 0x40 DUP3 ADD MSTORE PUSH1 0x60 ADD SWAP1 JUMP JUMPDEST PUSH1 0x20 DUP1 DUP3 MSTORE PUSH1 0xF SWAP1 DUP3 ADD MSTORE PUSH15 0x1A5B9D985B1A5917D858D8DBDD5B9D PUSH1 0x8A SHL PUSH1 0x40 DUP3 ADD MSTORE PUSH1 0x60 ADD SWAP1 JUMP JUMPDEST PUSH1 0x20 DUP1 DUP3 MSTORE PUSH1 0x15 SWAP1 DUP3 ADD MSTORE PUSH21 0x2320696E76616C69645F7265666572616C4C696E6B PUSH1 0x58 SHL PUSH1 0x40 DUP3 ADD MSTORE PUSH1 0x60 ADD SWAP1 JUMP JUMPDEST PUSH1 0x20 DUP1 DUP3 MSTORE PUSH1 0xF SWAP1 DUP3 ADD MSTORE PUSH15 0x119024B73B30B634B22FB6B4B732B9 PUSH1 0x89 SHL PUSH1 0x40 DUP3 ADD MSTORE PUSH1 0x60 ADD SWAP1 JUMP JUMPDEST PUSH1 0x20 DUP1 DUP3 MSTORE PUSH1 0x10 SWAP1 DUP3 ADD MSTORE PUSH16 0x8C8151BDBD7D31BDDD7D25B9D995CDD PUSH1 0x82 SHL PUSH1 0x40 DUP3 ADD MSTORE PUSH1 0x60 ADD SWAP1 JUMP JUMPDEST PUSH1 0x20 DUP1 DUP3 MSTORE PUSH1 0x24 SWAP1 DUP3 ADD MSTORE PUSH32 0x48524332303A20617070726F76652066726F6D20746865207A65726F20616464 PUSH1 0x40 DUP3 ADD MSTORE PUSH4 0x72657373 PUSH1 0xE0 SHL PUSH1 0x60 DUP3 ADD MSTORE PUSH1 0x80 ADD SWAP1 JUMP JUMPDEST PUSH1 0x20 DUP1 DUP3 MSTORE PUSH1 0x24 SWAP1 DUP3 ADD MSTORE PUSH32 0x5472616E7366657248656C7065723A205452414E534645525F46524F4D5F4641 PUSH1 0x40 DUP3 ADD MSTORE PUSH4 0x12531151 PUSH1 0xE2 SHL PUSH1 0x60 DUP3 ADD MSTORE PUSH1 0x80 ADD SWAP1 JUMP JUMPDEST PUSH1 0x20 DUP1 DUP3 MSTORE PUSH1 0x15 SWAP1 DUP3 ADD MSTORE PUSH21 0x23206F766572666C6F775F746F74616C5F6D696E65 PUSH1 0x58 SHL PUSH1 0x40 DUP3 ADD MSTORE PUSH1 0x60 ADD SWAP1 JUMP JUMPDEST PUSH2 0xFFFF SWAP2 SWAP1 SWAP2 AND DUP2 MSTORE PUSH1 0x20 ADD SWAP1 JUMP JUMPDEST SWAP1 DUP2 MSTORE PUSH1 0x20 ADD SWAP1 JUMP JUMPDEST DUP4 DUP2 MSTORE PUSH1 0x1 PUSH1 0x1 PUSH1 0xA0 SHL SUB DUP4 AND PUSH1 0x20 DUP3 ADD MSTORE PUSH1 0x60 PUSH1 0x40 DUP3 ADD DUP2 SWAP1 MSTORE PUSH1 0x0 SWAP1 PUSH2 0x4EFE SWAP1 DUP4 ADD DUP5 PUSH2 0x4637 JUMP JUMPDEST SWAP6 SWAP5 POP POP POP POP POP JUMP JUMPDEST SWAP4 DUP5 MSTORE PUSH1 0x20 DUP5 ADD SWAP3 SWAP1 SWAP3 MSTORE PUSH1 0x40 DUP4 ADD MSTORE PUSH1 0x60 DUP3 ADD MSTORE PUSH1 0x80 ADD SWAP1 JUMP JUMPDEST PUSH1 0xFF SWAP2 SWAP1 SWAP2 AND DUP2 MSTORE PUSH1 0x20 ADD SWAP1 JUMP JUMPDEST PUSH1 0x0 JUMPDEST DUP4 DUP2 LT ISZERO PUSH2 0x4F4B JUMPI DUP2 DUP2 ADD MLOAD DUP4 DUP3 ADD MSTORE PUSH1 0x20 ADD PUSH2 0x4F33 JUMP JUMPDEST DUP4 DUP2 GT ISZERO PUSH2 0x26AF JUMPI POP POP PUSH1 0x0 SWAP2 ADD MSTORE JUMP JUMPDEST PUSH1 0x1 PUSH1 0x1 PUSH1 0xA0 SHL SUB DUP2 AND DUP2 EQ PUSH2 0x1E80 JUMPI PUSH1 0x0 DUP1 REVERT INVALID 0x48 MSTORE NUMBER ORIGIN ADDRESS GASPRICE KECCAK256 PUSH21 0x72616E7366657220616D6F756E7420657863656564 PUSH20 0x2062616C616E636548524332303A206465637265 PUSH2 0x7365 PUSH5 0x20616C6C6F PUSH24 0x616E63652062656C6F77207A65726F48524332303A207472 PUSH2 0x6E73 PUSH7 0x657220616D6F75 PUSH15 0x74206578636565647320616C6C6F77 PUSH2 0x6E63 PUSH6 0x48524332303A KECCAK256 PUSH3 0x75726E KECCAK256 PUSH2 0x6D6F PUSH22 0x6E7420657863656564732062616C616E6365A2646970 PUSH7 0x7358221220AFCB MSTORE8 ADDMOD 0xDE 0xCA DUP15 0xBC 0xE7 PUSH6 0x9A8DB9B5886D 0xDF STATICCALL BLOCKHASH PUSH8 0x71BEFDB7CF688BE3 0xD0 PUSH9 0x52D164736F6C634300 MOD 0xC STOP CALLER "
		},
		"gasEstimates": {
			"creation": {
				"codeDepositCost": "4108000",
				"executionCost": "infinite",
				"totalCost": "infinite"
			},
			"external": {
				"_maxSupply()": "1096",
				"_test_MinerPrice(uint256)": "6511",
				"_test_admin(address,address,address,address,address)": "infinite",
				"_test_approve(address,address,uint256)": "infinite",
				"_test_buyMiner(address,address,uint256)": "infinite",
				"_test_deposit(address,address,uint256)": "infinite",
				"_test_mint(address,uint256)": "infinite",
				"_totalSupply()": "1162",
				"accountInfo(address)": "infinite",
				"allowance(address,address)": "infinite",
				"amountForDeposit(uint256)": "2090",
				"amountForWithdraw(address)": "6482",
				"approve(address,uint256)": "22647",
				"balanceOf(address)": "1397",
				"basicInfoAdmin()": "3774",
				"buy(uint256)": "infinite",
				"buyMiner(address,uint256)": "infinite",
				"cancelBuyOrder()": "infinite",
				"cancelSellOrder()": "infinite",
				"checkInsurance()": "infinite",
				"commitOrder()": "infinite",
				"contractInfo()": "infinite",
				"decimals()": "1202",
				"decreaseAllowance(address,uint256)": "infinite",
				"deposit(address,uint256)": "infinite",
				"firstAddress()": "1202",
				"getOwner()": "1151",
				"increaseAllowance(address,uint256)": "infinite",
				"maxSupply()": "1095",
				"mineInfo(address)": "infinite",
				"minerList()": "infinite",
				"mint(uint256)": "infinite",
				"name()": "infinite",
				"nodeinfo(address)": "infinite",
				"orderHistory()": "infinite",
				"owner()": "1160",
				"profits(address)": "infinite",
				"renounceOwnership()": "24359",
				"sell(uint256)": "infinite",
				"setAdmin(address,address,address,address)": "infinite",
				"startMine()": "infinite",
				"symbol()": "infinite",
				"totalSupply()": "1185",
				"transfer(address,uint256)": "infinite",
				"transferFrom(address,address,uint256)": "infinite",
				"transferOwnership(address)": "infinite",
				"withdraw()": "infinite",
				"withdrawFromPool()": "infinite"
			},
			"internal": {
				"_buy(address,uint256)": "infinite",
				"_buyMiner(address,address,uint256)": "infinite",
				"_childrenInfo(address,uint256,uint256,uint256)": "infinite",
				"_childrenInfoAll(address,uint256)": "infinite",
				"_deposit(address,address,uint256,uint256)": "infinite",
				"_insuranceAmount()": "infinite",
				"_minerPrice(uint256)": "infinite",
				"_pendingPool(address)": "5915",
				"_sell(address,uint256)": "infinite",
				"_startMine(address)": "infinite",
				"_staticRewardOf(struct ITLB10.Node storage pointer,uint256)": "7660",
				"_totalUsdtBalance()": "infinite",
				"_updateDynamicRewardsAllParentNode(struct ITLB10.Node storage pointer)": "infinite",
				"_updateRedeem()": "43282",
				"addUserToPrism()": "infinite",
				"getLastInBranch(address)": "infinite",
				"getShareholderInBranch(address)": "infinite",
				"getTier(uint256)": "infinite",
				"pendingOrder(address)": "infinite"
			}
		},
		"methodIdentifiers": {
			"_maxSupply()": "22f4596f",
			"_test_MinerPrice(uint256)": "bdc42a7a",
			"_test_admin(address,address,address,address,address)": "f656f562",
			"_test_approve(address,address,uint256)": "9bf00117",
			"_test_buyMiner(address,address,uint256)": "440565af",
			"_test_deposit(address,address,uint256)": "c7111063",
			"_test_mint(address,uint256)": "5da4c926",
			"_totalSupply()": "3eaaf86b",
			"accountInfo(address)": "a7310b58",
			"allowance(address,address)": "dd62ed3e",
			"amountForDeposit(uint256)": "99eb9576",
			"amountForWithdraw(address)": "0e25a441",
			"approve(address,uint256)": "095ea7b3",
			"balanceOf(address)": "70a08231",
			"basicInfoAdmin()": "6cb44428",
			"buy(uint256)": "d96a094a",
			"buyMiner(address,uint256)": "8a43bb01",
			"cancelBuyOrder()": "5ee4462c",
			"cancelSellOrder()": "39b50688",
			"checkInsurance()": "36fdde7c",
			"commitOrder()": "26621f9e",
			"contractInfo()": "15c43aaf",
			"decimals()": "313ce567",
			"decreaseAllowance(address,uint256)": "a457c2d7",
			"deposit(address,uint256)": "47e7ef24",
			"firstAddress()": "f697ddb2",
			"getOwner()": "893d20e8",
			"increaseAllowance(address,uint256)": "39509351",
			"maxSupply()": "d5abeb01",
			"mineInfo(address)": "1701a82a",
			"minerList()": "e87f2cce",
			"mint(uint256)": "a0712d68",
			"name()": "06fdde03",
			"nodeinfo(address)": "fd125ece",
			"orderHistory()": "1e71615b",
			"owner()": "8da5cb5b",
			"profits(address)": "cc85f080",
			"renounceOwnership()": "715018a6",
			"sell(uint256)": "e4849b32",
			"setAdmin(address,address,address,address)": "f2218f56",
			"startMine()": "ed73ee25",
			"symbol()": "95d89b41",
			"totalSupply()": "18160ddd",
			"transfer(address,uint256)": "a9059cbb",
			"transferFrom(address,address,uint256)": "23b872dd",
			"transferOwnership(address)": "f2fde38b",
			"withdraw()": "3ccfd60b",
			"withdrawFromPool()": "26c0e5c5"
		}
	},
	"abi": [
		{
			"inputs": [],
			"stateMutability": "nonpayable",
			"type": "constructor"
		},
		{
			"anonymous": false,
			"inputs": [
				{
					"indexed": false,
					"internalType": "uint256",
					"name": "layer",
					"type": "uint256"
				}
			],
			"name": "AddLayer",
			"type": "event"
		},
		{
			"anonymous": false,
			"inputs": [
				{
					"indexed": false,
					"internalType": "address",
					"name": "guest",
					"type": "address"
				},
				{
					"indexed": false,
					"internalType": "uint256",
					"name": "amount",
					"type": "uint256"
				}
			],
			"name": "AddUser",
			"type": "event"
		},
		{
			"anonymous": false,
			"inputs": [
				{
					"indexed": true,
					"internalType": "address",
					"name": "owner",
					"type": "address"
				},
				{
					"indexed": true,
					"internalType": "address",
					"name": "spender",
					"type": "address"
				},
				{
					"indexed": false,
					"internalType": "uint256",
					"name": "value",
					"type": "uint256"
				}
			],
			"name": "Approval",
			"type": "event"
		},
		{
			"anonymous": false,
			"inputs": [
				{
					"indexed": false,
					"internalType": "address",
					"name": "guest",
					"type": "address"
				},
				{
					"indexed": false,
					"internalType": "uint256",
					"name": "amount",
					"type": "uint256"
				}
			],
			"name": "BuyOrderAdded",
			"type": "event"
		},
		{
			"anonymous": false,
			"inputs": [
				{
					"indexed": false,
					"internalType": "address",
					"name": "guest",
					"type": "address"
				},
				{
					"indexed": false,
					"internalType": "uint256",
					"name": "amount",
					"type": "uint256"
				}
			],
			"name": "BuyOrderCancelled",
			"type": "event"
		},
		{
			"anonymous": false,
			"inputs": [
				{
					"indexed": true,
					"internalType": "address",
					"name": "previousOwner",
					"type": "address"
				},
				{
					"indexed": true,
					"internalType": "address",
					"name": "newOwner",
					"type": "address"
				}
			],
			"name": "OwnershipTransferred",
			"type": "event"
		},
		{
			"anonymous": false,
			"inputs": [
				{
					"indexed": false,
					"internalType": "address",
					"name": "guest",
					"type": "address"
				},
				{
					"indexed": false,
					"internalType": "uint256",
					"name": "amount",
					"type": "uint256"
				}
			],
			"name": "SellOrderAdded",
			"type": "event"
		},
		{
			"anonymous": false,
			"inputs": [
				{
					"indexed": false,
					"internalType": "address",
					"name": "guest",
					"type": "address"
				},
				{
					"indexed": false,
					"internalType": "uint256",
					"name": "amount",
					"type": "uint256"
				}
			],
			"name": "SellOrderCancelled",
			"type": "event"
		},
		{
			"anonymous": false,
			"inputs": [
				{
					"indexed": true,
					"internalType": "address",
					"name": "from",
					"type": "address"
				},
				{
					"indexed": true,
					"internalType": "address",
					"name": "to",
					"type": "address"
				},
				{
					"indexed": false,
					"internalType": "uint256",
					"name": "value",
					"type": "uint256"
				}
			],
			"name": "Transfer",
			"type": "event"
		},
		{
			"inputs": [],
			"name": "_maxSupply",
			"outputs": [
				{
					"internalType": "uint256",
					"name": "",
					"type": "uint256"
				}
			],
			"stateMutability": "view",
			"type": "function"
		},
		{
			"inputs": [
				{
					"internalType": "uint256",
					"name": "tier",
					"type": "uint256"
				}
			],
			"name": "_test_MinerPrice",
			"outputs": [
				{
					"internalType": "uint256",
					"name": "",
					"type": "uint256"
				}
			],
			"stateMutability": "view",
			"type": "function"
		},
		{
			"inputs": [
				{
					"internalType": "address",
					"name": "usdtAddress",
					"type": "address"
				},
				{
					"internalType": "address",
					"name": "adminAddress",
					"type": "address"
				},
				{
					"internalType": "address",
					"name": "lee",
					"type": "address"
				},
				{
					"internalType": "address",
					"name": "zhang",
					"type": "address"
				},
				{
					"internalType": "address",
					"name": "redeem",
					"type": "address"
				}
			],
			"name": "_test_admin",
			"outputs": [],
			"stateMutability": "nonpayable",
			"type": "function"
		},
		{
			"inputs": [
				{
					"internalType": "address",
					"name": "sender",
					"type": "address"
				},
				{
					"internalType": "address",
					"name": "spender",
					"type": "address"
				},
				{
					"internalType": "uint256",
					"name": "amount",
					"type": "uint256"
				}
			],
			"name": "_test_approve",
			"outputs": [],
			"stateMutability": "nonpayable",
			"type": "function"
		},
		{
			"inputs": [
				{
					"internalType": "address",
					"name": "sender",
					"type": "address"
				},
				{
					"internalType": "address",
					"name": "referalLink",
					"type": "address"
				},
				{
					"internalType": "uint256",
					"name": "tier",
					"type": "uint256"
				}
			],
			"name": "_test_buyMiner",
			"outputs": [],
			"stateMutability": "nonpayable",
			"type": "function"
		},
		{
			"inputs": [
				{
					"internalType": "address",
					"name": "sender",
					"type": "address"
				},
				{
					"internalType": "address",
					"name": "referalLink",
					"type": "address"
				},
				{
					"internalType": "uint256",
					"name": "amount",
					"type": "uint256"
				}
			],
			"name": "_test_deposit",
			"outputs": [],
			"stateMutability": "nonpayable",
			"type": "function"
		},
		{
			"inputs": [
				{
					"internalType": "address",
					"name": "sender",
					"type": "address"
				},
				{
					"internalType": "uint256",
					"name": "amount",
					"type": "uint256"
				}
			],
			"name": "_test_mint",
			"outputs": [],
			"stateMutability": "nonpayable",
			"type": "function"
		},
		{
			"inputs": [],
			"name": "_totalSupply",
			"outputs": [
				{
					"internalType": "uint256",
					"name": "",
					"type": "uint256"
				}
			],
			"stateMutability": "view",
			"type": "function"
		},
		{
			"inputs": [
				{
					"internalType": "address",
					"name": "account",
					"type": "address"
				}
			],
			"name": "accountInfo",
			"outputs": [
				{
					"internalType": "uint256[8]",
					"name": "",
					"type": "uint256[8]"
				}
			],
			"stateMutability": "view",
			"type": "function"
		},
		{
			"inputs": [
				{
					"internalType": "address",
					"name": "owner",
					"type": "address"
				},
				{
					"internalType": "address",
					"name": "spender",
					"type": "address"
				}
			],
			"name": "allowance",
			"outputs": [
				{
					"internalType": "uint256",
					"name": "",
					"type": "uint256"
				}
			],
			"stateMutability": "view",
			"type": "function"
		},
		{
			"inputs": [
				{
					"internalType": "uint256",
					"name": "amount",
					"type": "uint256"
				}
			],
			"name": "amountForDeposit",
			"outputs": [
				{
					"internalType": "uint256",
					"name": "",
					"type": "uint256"
				}
			],
			"stateMutability": "view",
			"type": "function"
		},
		{
			"inputs": [
				{
					"internalType": "address",
					"name": "account",
					"type": "address"
				}
			],
			"name": "amountForWithdraw",
			"outputs": [
				{
					"internalType": "uint256",
					"name": "",
					"type": "uint256"
				}
			],
			"stateMutability": "view",
			"type": "function"
		},
		{
			"inputs": [
				{
					"internalType": "address",
					"name": "spender",
					"type": "address"
				},
				{
					"internalType": "uint256",
					"name": "amount",
					"type": "uint256"
				}
			],
			"name": "approve",
			"outputs": [
				{
					"internalType": "bool",
					"name": "",
					"type": "bool"
				}
			],
			"stateMutability": "nonpayable",
			"type": "function"
		},
		{
			"inputs": [
				{
					"internalType": "address",
					"name": "account",
					"type": "address"
				}
			],
			"name": "balanceOf",
			"outputs": [
				{
					"internalType": "uint256",
					"name": "",
					"type": "uint256"
				}
			],
			"stateMutability": "view",
			"type": "function"
		},
		{
			"inputs": [],
			"name": "basicInfoAdmin",
			"outputs": [
				{
					"internalType": "uint256",
					"name": "",
					"type": "uint256"
				},
				{
					"internalType": "uint256",
					"name": "",
					"type": "uint256"
				},
				{
					"internalType": "uint256",
					"name": "",
					"type": "uint256"
				},
				{
					"internalType": "uint256",
					"name": "",
					"type": "uint256"
				}
			],
			"stateMutability": "view",
			"type": "function"
		},
		{
			"inputs": [
				{
					"internalType": "uint256",
					"name": "amountUsdt",
					"type": "uint256"
				}
			],
			"name": "buy",
			"outputs": [],
			"stateMutability": "nonpayable",
			"type": "function"
		},
		{
			"inputs": [
				{
					"internalType": "address",
					"name": "referalLink",
					"type": "address"
				},
				{
					"internalType": "uint256",
					"name": "amountUsdt",
					"type": "uint256"
				}
			],
			"name": "buyMiner",
			"outputs": [],
			"stateMutability": "nonpayable",
			"type": "function"
		},
		{
			"inputs": [],
			"name": "cancelBuyOrder",
			"outputs": [],
			"stateMutability": "nonpayable",
			"type": "function"
		},
		{
			"inputs": [],
			"name": "cancelSellOrder",
			"outputs": [],
			"stateMutability": "nonpayable",
			"type": "function"
		},
		{
			"inputs": [],
			"name": "checkInsurance",
			"outputs": [],
			"stateMutability": "nonpayable",
			"type": "function"
		},
		{
			"inputs": [],
			"name": "commitOrder",
			"outputs": [],
			"stateMutability": "nonpayable",
			"type": "function"
		},
		{
			"inputs": [],
			"name": "contractInfo",
			"outputs": [
				{
					"internalType": "uint256[13]",
					"name": "",
					"type": "uint256[13]"
				}
			],
			"stateMutability": "view",
			"type": "function"
		},
		{
			"inputs": [],
			"name": "decimals",
			"outputs": [
				{
					"internalType": "uint8",
					"name": "",
					"type": "uint8"
				}
			],
			"stateMutability": "view",
			"type": "function"
		},
		{
			"inputs": [
				{
					"internalType": "address",
					"name": "spender",
					"type": "address"
				},
				{
					"internalType": "uint256",
					"name": "subtractedValue",
					"type": "uint256"
				}
			],
			"name": "decreaseAllowance",
			"outputs": [
				{
					"internalType": "bool",
					"name": "",
					"type": "bool"
				}
			],
			"stateMutability": "nonpayable",
			"type": "function"
		},
		{
			"inputs": [
				{
					"internalType": "address",
					"name": "referalLink",
					"type": "address"
				},
				{
					"internalType": "uint256",
					"name": "amount",
					"type": "uint256"
				}
			],
			"name": "deposit",
			"outputs": [],
			"stateMutability": "nonpayable",
			"type": "function"
		},
		{
			"inputs": [],
			"name": "firstAddress",
			"outputs": [
				{
					"internalType": "address",
					"name": "",
					"type": "address"
				}
			],
			"stateMutability": "view",
			"type": "function"
		},
		{
			"inputs": [],
			"name": "getOwner",
			"outputs": [
				{
					"internalType": "address",
					"name": "",
					"type": "address"
				}
			],
			"stateMutability": "view",
			"type": "function"
		},
		{
			"inputs": [
				{
					"internalType": "address",
					"name": "spender",
					"type": "address"
				},
				{
					"internalType": "uint256",
					"name": "addedValue",
					"type": "uint256"
				}
			],
			"name": "increaseAllowance",
			"outputs": [
				{
					"internalType": "bool",
					"name": "",
					"type": "bool"
				}
			],
			"stateMutability": "nonpayable",
			"type": "function"
		},
		{
			"inputs": [],
			"name": "maxSupply",
			"outputs": [
				{
					"internalType": "uint256",
					"name": "",
					"type": "uint256"
				}
			],
			"stateMutability": "view",
			"type": "function"
		},
		{
			"inputs": [
				{
					"internalType": "address",
					"name": "account",
					"type": "address"
				}
			],
			"name": "mineInfo",
			"outputs": [
				{
					"internalType": "uint256[11]",
					"name": "",
					"type": "uint256[11]"
				}
			],
			"stateMutability": "view",
			"type": "function"
		},
		{
			"inputs": [],
			"name": "minerList",
			"outputs": [
				{
					"internalType": "address[]",
					"name": "",
					"type": "address[]"
				},
				{
					"internalType": "uint256[]",
					"name": "",
					"type": "uint256[]"
				},
				{
					"internalType": "uint256[]",
					"name": "",
					"type": "uint256[]"
				}
			],
			"stateMutability": "view",
			"type": "function"
		},
		{
			"inputs": [
				{
					"internalType": "uint256",
					"name": "amount",
					"type": "uint256"
				}
			],
			"name": "mint",
			"outputs": [
				{
					"internalType": "bool",
					"name": "",
					"type": "bool"
				}
			],
			"stateMutability": "nonpayable",
			"type": "function"
		},
		{
			"inputs": [],
			"name": "name",
			"outputs": [
				{
					"internalType": "string",
					"name": "",
					"type": "string"
				}
			],
			"stateMutability": "view",
			"type": "function"
		},
		{
			"inputs": [
				{
					"internalType": "address",
					"name": "sender",
					"type": "address"
				}
			],
			"name": "nodeinfo",
			"outputs": [
				{
					"internalType": "uint256",
					"name": "",
					"type": "uint256"
				},
				{
					"internalType": "address",
					"name": "",
					"type": "address"
				},
				{
					"internalType": "address[]",
					"name": "",
					"type": "address[]"
				}
			],
			"stateMutability": "view",
			"type": "function"
		},
		{
			"inputs": [],
			"name": "orderHistory",
			"outputs": [
				{
					"internalType": "uint256[4][]",
					"name": "",
					"type": "uint256[4][]"
				}
			],
			"stateMutability": "view",
			"type": "function"
		},
		{
			"inputs": [],
			"name": "owner",
			"outputs": [
				{
					"internalType": "address payable",
					"name": "",
					"type": "address"
				}
			],
			"stateMutability": "view",
			"type": "function"
		},
		{
			"inputs": [
				{
					"internalType": "address",
					"name": "account",
					"type": "address"
				}
			],
			"name": "profits",
			"outputs": [
				{
					"internalType": "bool",
					"name": "",
					"type": "bool"
				},
				{
					"internalType": "uint256",
					"name": "",
					"type": "uint256"
				},
				{
					"internalType": "uint256",
					"name": "",
					"type": "uint256"
				},
				{
					"internalType": "uint256",
					"name": "",
					"type": "uint256"
				},
				{
					"internalType": "uint256",
					"name": "",
					"type": "uint256"
				}
			],
			"stateMutability": "view",
			"type": "function"
		},
		{
			"inputs": [],
			"name": "renounceOwnership",
			"outputs": [],
			"stateMutability": "nonpayable",
			"type": "function"
		},
		{
			"inputs": [
				{
					"internalType": "uint256",
					"name": "amountTlb",
					"type": "uint256"
				}
			],
			"name": "sell",
			"outputs": [],
			"stateMutability": "nonpayable",
			"type": "function"
		},
		{
			"inputs": [
				{
					"internalType": "address",
					"name": "admin",
					"type": "address"
				},
				{
					"internalType": "address",
					"name": "lee",
					"type": "address"
				},
				{
					"internalType": "address",
					"name": "zhang",
					"type": "address"
				},
				{
					"internalType": "address",
					"name": "redeem",
					"type": "address"
				}
			],
			"name": "setAdmin",
			"outputs": [],
			"stateMutability": "nonpayable",
			"type": "function"
		},
		{
			"inputs": [],
			"name": "startMine",
			"outputs": [],
			"stateMutability": "nonpayable",
			"type": "function"
		},
		{
			"inputs": [],
			"name": "symbol",
			"outputs": [
				{
					"internalType": "string",
					"name": "",
					"type": "string"
				}
			],
			"stateMutability": "view",
			"type": "function"
		},
		{
			"inputs": [],
			"name": "totalSupply",
			"outputs": [
				{
					"internalType": "uint256",
					"name": "",
					"type": "uint256"
				}
			],
			"stateMutability": "view",
			"type": "function"
		},
		{
			"inputs": [
				{
					"internalType": "address",
					"name": "recipient",
					"type": "address"
				},
				{
					"internalType": "uint256",
					"name": "amount",
					"type": "uint256"
				}
			],
			"name": "transfer",
			"outputs": [
				{
					"internalType": "bool",
					"name": "",
					"type": "bool"
				}
			],
			"stateMutability": "nonpayable",
			"type": "function"
		},
		{
			"inputs": [
				{
					"internalType": "address",
					"name": "sender",
					"type": "address"
				},
				{
					"internalType": "address",
					"name": "recipient",
					"type": "address"
				},
				{
					"internalType": "uint256",
					"name": "amount",
					"type": "uint256"
				}
			],
			"name": "transferFrom",
			"outputs": [
				{
					"internalType": "bool",
					"name": "",
					"type": "bool"
				}
			],
			"stateMutability": "nonpayable",
			"type": "function"
		},
		{
			"inputs": [
				{
					"internalType": "address payable",
					"name": "newOwner",
					"type": "address"
				}
			],
			"name": "transferOwnership",
			"outputs": [],
			"stateMutability": "nonpayable",
			"type": "function"
		},
		{
			"inputs": [],
			"name": "withdraw",
			"outputs": [],
			"stateMutability": "nonpayable",
			"type": "function"
		},
		{
			"inputs": [],
			"name": "withdrawFromPool",
			"outputs": [],
			"stateMutability": "nonpayable",
			"type": "function"
		}
	]
}