{
	"data": {
		"bytecode": {
			"linkReferences": {},
			"object": "608060405260078054610100600160a81b031916749defb199a6cdbfbaffe8c1c712f469e5c900a4de001760ff60a81b1916600160a91b179081905560ff600160a81b90910416600a0a600881905561271060095560649004601655600a600854816200006857fe5b046017556018805465ffffffffffff60201b1963ffffffff19909116620f42401716905560006019819055601a805461ffff191690556301abbc00601b55601c81905542601d55610e10601e55601f81905560209081556040805161010081018252600160a0820181815260c083019190915260c860e08301528152815160608181018452600280835282860152609682850152828501919091528251808201845260038152600781860152606481850152828401528251808201845260088152600f81860152603281850152818301528251908101835260108152601493810184905291820192909252608082015262000168906046906005620008a3565b5060405180608001604052806040518060800160405280600854613a980281526020016064815260200160648152602001601e81525081526020016040518060800160405280600854611d4c0281526020016032815260200160328152602001601481525081526020016040518060800160405280600854610dac0281526020016019815260200160198152602001600a81525081526020016040518060800160405280600854606402815260200160058152602001600a8152602001600581525081525060549060046200023f92919062000901565b5060408051600380825260808201909252906020820160608036833750508151620002729260599250602001906200095b565b5060408051600a808252610160820190925290602082016101408036833750508151620002a792605b925060200190620009a7565b50348015620002b557600080fd5b506040518060400160405280600b81526020016a544c42205374616b696e6760a81b815250604051806040016040528060038152602001622a262160e91b815250600464519577b0006000620003106200074b60201b60201c565b600080546001600160a01b0319166001600160a01b0383169081178255604051929350917f8be0079c531659141344cd1fd0a4f28419497f9722a3daafe3b4186f6b6457e0908290a35083516200036f90600590602087019062000a0d565b5082516200038590600690602086019062000a0d565b506007805460ff191660ff939093169290921790915560045550600090506064620003af6200074f565b60140281620003ba57fe5b049050620003c9338262000755565b604a6040518060a00160405280600160ff16815260200160085460c8028152602001601060ff168152602001600160ff168152602001610898815250908060018154018082558091505060019003906000526020600020906004020160009091909190915060008201518160000160006101000a81548160ff021916908360ff1602179055506020820151816001015560408201518160020160006101000a81548160ff021916908360ff16021790555060608201518160020160016101000a81548160ff021916908360ff160217905550608082015181600301555050604a6040518060a00160405280600260ff1681526020016008546103e9028152602001600e60ff168152602001600260ff168152602001610834815250908060018154018082558091505060019003906000526020600020906004020160009091909190915060008201518160000160006101000a81548160ff021916908360ff1602179055506020820151816001015560408201518160020160006101000a81548160ff021916908360ff16021790555060608201518160020160016101000a81548160ff021916908360ff160217905550608082015181600301555050604a6040518060a00160405280600360ff1681526020016008546107d1028152602001600c60ff168152602001600360ff1681526020016107d0815250908060018154018082558091505060019003906000526020600020906004020160009091909190915060008201518160000160006101000a81548160ff021916908360ff1602179055506020820151816001015560408201518160020160006101000a81548160ff021916908360ff16021790555060608201518160020160016101000a81548160ff021916908360ff160217905550608082015181600301555050604a6040518060a00160405280600460ff168152602001600854611389028152602001600a60ff168152602001600460ff16815260200161076c815250908060018154018082558091505060019003906000526020600020906004020160009091909190915060008201518160000160006101000a81548160ff021916908360ff1602179055506020820151816001015560408201518160020160006101000a81548160ff021916908360ff16021790555060608201518160020160016101000a81548160ff021916908360ff1602179055506080820151816003015550505062000cb3565b3390565b60045490565b6001600160a01b038216620007875760405162461bcd60e51b81526004016200077e9062000c3e565b60405180910390fd5b600454620007a6826003546200087460201b6200266d1790919060201c565b10620007c65760405162461bcd60e51b81526004016200077e9062000c75565b620007e2816003546200087460201b6200266d1790919060201c565b6003556001600160a01b038216600090815260016020908152604090912054620008179183906200266d62000874821b17901c565b6001600160a01b0383166000818152600160205260408082209390935591519091907fddf252ad1be2c89b69c2b068fc378daa952ba7f163c4a11628f55a4df523b3ef906200086890859062000caa565b60405180910390a35050565b6000828201838110156200089c5760405162461bcd60e51b81526004016200077e9062000c07565b9392505050565b828054828255906000526020600020908101928215620008ef579160200282015b82811115620008ef578251620008de908390600362000a7f565b5091602001919060010190620008c4565b50620008fd92915062000b28565b5090565b8280548282559060005260206000209081019282156200094d579160200282015b828111156200094d5782516200093c90839060046200095b565b509160200191906001019062000922565b50620008fd92915062000b49565b82805482825590600052602060002090810192821562000999579160200282015b82811115620009995782518255916020019190600101906200097c565b50620008fd92915062000b6a565b828054828255906000526020600020908101928215620009ff579160200282015b82811115620009ff57825182546001600160a01b0319166001600160a01b03909116178255602090920191600190910190620009c8565b50620008fd92915062000b81565b828054600181600116156101000203166002900490600052602060002090601f016020900481019282601f1062000a5057805160ff191683800117855562000999565b82800160010185558215620009995791820182811115620009995782518255916020019190600101906200097c565b82805482825590600052602060002090601f0160209004810192821562000b1a5791602002820160005b8382111562000ae957835183826101000a81548160ff021916908360ff160217905550926020019260010160208160000104928301926001030262000aa9565b801562000b185782816101000a81549060ff021916905560010160208160000104928301926001030262000ae9565b505b50620008fd92915062000ba2565b80821115620008fd57600062000b3f828262000bbd565b5060010162000b28565b80821115620008fd57600062000b60828262000be7565b5060010162000b49565b5b80821115620008fd576000815560010162000b6b565b5b80821115620008fd5780546001600160a01b031916815560010162000b82565b5b80821115620008fd57805460ff1916815560010162000ba3565b50805460008255601f01602090049060005260206000209081019062000be4919062000b6a565b50565b508054600082559060005260206000209081019062000be4919062000b6a565b6020808252601b908201527f536166654d6174683a206164646974696f6e206f766572666c6f770000000000604082015260600190565b6020808252601f908201527f48524332303a206d696e7420746f20746865207a65726f206164647265737300604082015260600190565b6020808252818101527f48524332303a20616c72656164792072656163686564206d6178537570706c79604082015260600190565b90815260200190565b615d838062000cc36000396000f3fe608060405234801561001057600080fd5b506004361061029f5760003560e01c8063893d20e811610167578063cc85f080116100ce578063ed73ee2511610087578063ed73ee25146105a1578063f2218f56146105a9578063f2fde38b146105bc578063f656f562146105cf578063f697ddb2146105e2578063fd125ece146105ea5761029f565b8063cc85f08014610525578063d5abeb0114610549578063d96a094a14610551578063dd62ed3e14610564578063e4849b3214610577578063e87f2cce1461058a5761029f565b8063a0712d6811610120578063a0712d68146104a6578063a457c2d7146104b9578063a7310b58146104cc578063a9059cbb146104ec578063bdc42a7a146104ff578063c7111063146105125761029f565b8063893d20e8146104485780638a43bb011461045d5780638da5cb5b1461047057806395d89b411461047857806399eb9576146104805780639bf00117146104935761029f565b806336fdde7c1161020b57806347e7ef24116101c457806347e7ef24146103e75780635da4c926146103fa5780635ee4462c1461040d5780636cb444281461041557806370a082311461042d578063715018a6146104405761029f565b806336fdde7c146103a157806339509351146103a957806339b50688146103bc5780633ccfd60b146103c45780633eaaf86b146103cc578063440565af146103d45761029f565b806318160ddd1161025d57806318160ddd146103575780631e71615b1461035f57806322f4596f1461036757806323b872dd1461036f57806326c0e5c514610382578063313ce5671461038c5761029f565b80623f7a89146102a457806306fdde03146102cd578063095ea7b3146102e25780630e25a4411461030257806315c43aaf146103225780631701a82a14610337575b600080fd5b6102b76102b2366004615100565b61060d565b6040516102c4919061541b565b60405180910390f35b6102d561092a565b6040516102c49190615537565b6102f56102f036600461525f565b6109c0565b6040516102c49190615507565b610315610310366004615100565b6109de565b6040516102c49190615bf3565b61032a610a85565b6040516102c491906154b5565b61034a610345366004615100565b610b24565b6040516102c49190615483565b610315610c99565b6102b7610c9f565b610315610e4a565b6102f561037d36600461521f565b610e50565b61038a610ed7565b005b610394610fac565b6040516102c49190615c49565b61038a610fb5565b6102f56103b736600461525f565b61107d565b61038a6110cb565b61038a611356565b610315611729565b61038a6103e236600461521f565b61172f565b61038a6103f536600461525f565b611743565b61038a61040836600461525f565b6117a7565b61038a6117b5565b61041d611a00565b6040516102c49493929190615c2e565b61031561043b366004615100565b611a61565b61038a611a7c565b610450611afb565b6040516102c49190615368565b61038a61046b36600461525f565b611b0a565b610450611b79565b6102d5611b88565b61031561048e3660046152aa565b611be9565b61038a6104a136600461521f565b611c04565b6102f56104b43660046152aa565b611c0f565b6102f56104c736600461525f565b611c5f565b6104df6104da366004615100565b611cc7565b6040516102c491906154de565b6102f56104fa36600461525f565b611e46565b61031561050d3660046152aa565b611e5a565b61038a61052036600461521f565b611e65565b610538610533366004615100565b611e71565b6040516102c4959493929190615512565b6103156121fb565b61038a61055f3660046152aa565b612201565b61031561057236600461511c565b61223d565b61038a6105853660046152aa565b612268565b6105926122a4565b6040516102c4939291906153d8565b61038a61244f565b61038a6105b7366004615154565b61248d565b61038a6105ca366004615100565b61250c565b61038a6105dd3660046151af565b61254a565b6104506125b3565b6105fd6105f8366004615100565b6125c2565b6040516102c49493929190615bfc565b60606000805b6051548110156106675760006051828154811061062c57fe5b6000918252602090912060049091020160018101549091506001600160a01b038681169116141561065e576001909201915b50600101610613565b5060005b6052548110156106bf5760006052828154811061068457fe5b6000918252602090912060049091020160018101549091506001600160a01b03868116911614156106b6576001909201915b5060010161066b565b5060608167ffffffffffffffff811180156106d957600080fd5b5060405190808252806020026020018201604052801561071357816020015b610700615004565b8152602001906001900390816106f85790505b5090506000805b60515481101561081a5760006051828154811061073357fe5b6000918252602090912060049091020160018101549091506001600160a01b038881169116141561081157806000015484848151811061076f57fe5b602002602001015160006004811061078357fe5b6020020152835160009085908590811061079957fe5b60200260200101516001600481106107ad57fe5b6020020152600281015484518590859081106107c557fe5b60200260200101516002600481106107d957fe5b6020020152600381015484518590859081106107f157fe5b602002602001015160036004811061080557fe5b60200201526001909201915b5060010161071a565b5060005b60525481101561091e5760006052828154811061083757fe5b6000918252602090912060049091020160018101549091506001600160a01b038881169116141561091557806000015484848151811061087357fe5b602002602001015160006004811061088757fe5b6020020152835160019085908590811061089d57fe5b60200260200101516001600481106108b157fe5b6020020152600281015484518590859081106108c957fe5b60200260200101516002600481106108dd57fe5b6020020152600381015484518590859081106108f557fe5b602002602001015160036004811061090957fe5b60200201526001909201915b5060010161081e565b5090925050505b919050565b60058054604080516020601f60026000196101006001881615020190951694909404938401819004810282018101909252828152606093909290918301828280156109b65780601f1061098b576101008083540402835291602001916109b6565b820191906000526020600020905b81548152906001019060200180831161099957829003601f168201915b5050505050905090565b60006109d46109cd612699565b848461269d565b5060015b92915050565b600e546000906001600160a01b0383811691161480610a0a57506012546001600160a01b038381169116145b80610a225750600a546001600160a01b038381169116145b15610a2f57506000610925565b610a37610fac565b6001600160a01b03831660009081526049602052604090206001015460ff91909116600a0a906103e9600160201b90910461ffff1610610a78576002610a7b565b60055b60ff160292915050565b610a8d615022565b604051806101a001604052806017548152602001601c548152602001604c54815260200160035481526020016019548152602001601d548152602001610ad1612751565b815260200160585481526020016057548152602001610af0600061276e565b8152602001610aff600161276e565b8152602001610b0e600261276e565b8152602001610b1d600361276e565b9052905090565b610b2c615041565b6001600160a01b0382166000908152605660205260408120805490919081805b8454811015610b9a5760556000868381548110610b6557fe5b60009182526020808320909101546001600160a01b031683528201929092526040019020600201549390930192600101610b4c565b506001600160a01b0386166000908152605560205260409020600381015415610beb578054610be6576125808160030154430310610bd9576000610bdc565b60015b60ff169150610beb565b600191505b600080610bf789612813565b91509150600060575460001415610c0f576000610c2c565b60575461708002600954856002015461bb80020281610c2a57fe5b045b6040805161016081018252600287015481526020810192909252855490820152606081019690965250608085019590955260a0840192909252600381015460c0840152600681015460e0840152600401546101008301526101208201526101408101919091529392505050565b60035490565b60606000600a60538054905011610cb857605354610cbb565b600a5b905060608167ffffffffffffffff81118015610cd657600080fd5b50604051908082528060200260200182016040528015610d1057816020015b610cfd615004565b815260200190600190039081610cf55790505b50905060005b82811015610e435760538054600091908581038401908110610d3457fe5b90600052602060002001905080600081548110610d4d57fe5b9060005260206000200154838381518110610d6457fe5b6020026020010151600060048110610d7857fe5b6020020152805481906001908110610d8c57fe5b9060005260206000200154838381518110610da357fe5b6020026020010151600160048110610db757fe5b6020020152805481906002908110610dcb57fe5b9060005260206000200154838381518110610de257fe5b6020026020010151600260048110610df657fe5b6020020152805481906003908110610e0a57fe5b9060005260206000200154838381518110610e2157fe5b6020026020010151600360048110610e3557fe5b602002015250600101610d16565b5091505090565b60045481565b6000610e5d848484612894565b610ecd84610e69612699565b610ec885604051806060016040528060288152602001615d04602891396001600160a01b038a16600090815260026020526040812090610ea7612699565b6001600160a01b03168152602081019190915260400160002054919061299e565b61269d565b5060019392505050565b6000610ee1612699565b90506001600160a01b038116610f125760405162461bcd60e51b8152600401610f0990615828565b60405180910390fd5b6001600160a01b038116600090815260556020526040812090610f3483612813565b91505060008111610f575760405162461bcd60e51b8152600401610f0990615828565b601b5481605a54011115610f7d5760405162461bcd60e51b8152600401610f0990615bb5565b600060038301819055600483018054830190556005830155605a805482019055610fa783826129ca565b505050565b60075460ff1690565b601e54601d5442031061107b576014601c546020546103e80281610fd557fe5b04101561106c57601e54601d5401601f556000610ff0612751565b905060646014820204610dac605083020460005b604554811015611067576000604960006021846024811061102157fe5b01546001600160a01b031681526020810191909152604001600020601f5460010160068201559050602382146110575782611059565b835b600b90910155600101611004565b505050505b42601d55600060208190556045555b565b60006109d461108a612699565b84610ec8856002600061109b612699565b6001600160a01b03908116825260208083019390935260409182016000908120918c16815292529020549061266d565b60006110d5612699565b90506001600160a01b0381166110fd5760405162461bcd60e51b8152600401610f0990615828565b60008060005b6052548110156112a85760006052828154811061111c57fe5b6000918252602090912060049091020160018101549091506001600160a01b038681169116141561115b576003015460019093019291909101906112a0565b831561129e576052828154811061116e57fe5b90600052602060002090600402016000015460528584038154811061118f57fe5b600091825260209091206004909102015560528054839081106111ae57fe5b906000526020600020906004020160010160009054906101000a90046001600160a01b03166052858403815481106111e257fe5b906000526020600020906004020160010160006101000a8154816001600160a01b0302191690836001600160a01b031602179055506052828154811061122457fe5b90600052602060002090600402016002015460528584038154811061124557fe5b9060005260206000209060040201600201819055506052828154811061126757fe5b90600052602060002090600402016003015460528584038154811061128857fe5b9060005260206000209060040201600301819055505b505b600101611103565b50811561134e5760005b828110156113085760528054806112c557fe5b600082815260208120600460001990930192830201818155600181810180546001600160a01b0319169055600282018390556003909101919091559155016112b2565b50611314308483612894565b7fa21a2a879c924a525cd3d043187d43e34b2573d79532750b8792307a7c2feadb83826040516113459291906153a0565b60405180910390a15b610fa7612aab565b6000611360612699565b90506001600160a01b0381166113885760405162461bcd60e51b8152600401610f0990615828565b600080600080600061139986611e71565b9450945094509450945084156113c15760405162461bcd60e51b8152600401610f099061571b565b600a546001600160a01b03878116911614156113ed576000600b55600c80548201905542600d556116cf565b600e546001600160a01b0387811691161415611419576000600f556010805482019055426011556116cf565b6012546001600160a01b03878116911614156114455760006013556014805482019055426015556116cf565b6001600160a01b0386166000908152604960205260409020600a810154156116cd576003810180548301905542600682015560006007820181905560088201819055600b82018190556001820154858701919060029083906005600160201b90910461ffff16106114b657866114b9565b60005b01816114c157fe5b0490508083600a0154111561157357600a83018054829003908190556000906114e990612b95565b600185015490915060ff808316600160381b909204161461156157808460010160076101000a81548160ff021916908360ff1602179055506103e8604a6001830360ff168154811061153757fe5b90600052602060002090600402016003015485600a0154028161155657fe5b04600985015561156d565b60098401805483900390555b50611591565b60018301805460ff60381b191690556000600a840181905560098401555b60018301546103e7600160201b90910461ffff1610156116ba5760018301546018546103e8604b8502049163ffffffff908116620f42400391828216600160201b90910490911611156116135763ffffffff81166000908152604860209081526040808320546001600160a01b0316835260499091529020600b018054830190555b506040805160608101825242815260208101928352600091810182815260508054600181018255935290517f5529612556959ef813dbe8d0ed29336ab75e80a9b7855030760b2917b01e568a60039093029283015591517f5529612556959ef813dbe8d0ed29336ab75e80a9b7855030760b2917b01e568b82015590517f5529612556959ef813dbe8d0ed29336ab75e80a9b7855030760b2917b01e568c909101556116ca565b604c80546103e860968502040190555b50505b505b8015611719576007546116f19061010090046001600160a01b03168783612be3565b60006116fc876109de565b905080156117175761170e8782612cd1565b60198054820190555b505b611721612aab565b505050505050565b60035481565b61173a838383612d9b565b610fa78361301d565b600061174d612699565b90506001600160a01b0381166117755760405162461bcd60e51b8152600401610f0990615828565b6001600160a01b03831661179b5760405162461bcd60e51b8152600401610f09906155c7565b610fa78184844261335a565b6117b182826129ca565b5050565b60006117bf612699565b90506001600160a01b0381166117e75760405162461bcd60e51b8152600401610f0990615828565b60008060005b6051548110156119525760006051828154811061180657fe5b6000918252602090912060049091020160018101549091506001600160a01b03868116911614156118455760030154600190930192919091019061194a565b8315611948576051828154811061185857fe5b906000526020600020906004020160010160009054906101000a90046001600160a01b031660518584038154811061188c57fe5b906000526020600020906004020160010160006101000a8154816001600160a01b0302191690836001600160a01b03160217905550605182815481106118ce57fe5b9060005260206000209060040201600201546051858403815481106118ef57fe5b9060005260206000209060040201600201819055506051828154811061191157fe5b90600052602060002090600402016003015460518584038154811061193257fe5b9060005260206000209060040201600301819055505b505b6001016117ed565b50811561134e5760005b828110156119b257605180548061196f57fe5b600082815260208120600460001990930192830201818155600181810180546001600160a01b03191690556002820183905560039091019190915591550161195c565b506007546119cf9061010090046001600160a01b03168483612be3565b7f866cb17a996e44fad30a4450e43850706bfa73cbc9cc00561c44cd87e9f1503f83826040516113459291906153a0565b600080808033611a0e611b79565b6001600160a01b031614611a345760405162461bcd60e51b8152600401610f09906159b7565b5050601854601b54601f54600160401b830461ffff1695600160201b90930463ffffffff16945090925090565b6001600160a01b031660009081526001602052604090205490565b611a84612699565b6000546001600160a01b03908116911614611ab15760405162461bcd60e51b8152600401610f09906159b7565b600080546040516001600160a01b03909116907f8be0079c531659141344cd1fd0a4f28419497f9722a3daafe3b4186f6b6457e0908390a3600080546001600160a01b0319169055565b6000611b05611b79565b905090565b6000611b14612699565b90506001600160a01b038116611b3c5760405162461bcd60e51b8152600401610f09906155f7565b826001600160a01b0316816001600160a01b03161415611b6e5760405162461bcd60e51b8152600401610f0990615aab565b610fa7818484612d9b565b6000546001600160a01b031690565b60068054604080516020601f60026000196101006001881615020190951694909404938401819004810282018101909252828152606093909290918301828280156109b65780601f1061098b576101008083540402835291602001916109b6565b6000601754600a02600954830281611bfd57fe5b0492915050565b610fa783838361269d565b6000611c19612699565b6000546001600160a01b03908116911614611c465760405162461bcd60e51b8152600401610f09906159b7565b611c57611c51612699565b836129ca565b506001919050565b60006109d4611c6c612699565b84610ec885604051806060016040528060258152602001615cdf6025913960026000611c96612699565b6001600160a01b03908116825260208083019390935260409182016000908120918d1681529252902054919061299e565b611ccf615060565b6001600160a01b038216611cf55760405162461bcd60e51b8152600401610f0990615a82565b600080600080600080600080611d0a8a611a61565b600a549091506001600160a01b038b811691161415611d7557600c546047549096506000908190611d45906001600160a01b03166001613be9565b6047546001600160a01b031660009081526049602052604090206002015460019092019650019350611e02915050565b600e546001600160a01b038b811691161415611d9557600c549550611e02565b6012546001600160a01b038b811691161415611db557600c549550611e02565b6001600160a01b038a16600090815260496020526040812080546005820154600383015460028401546009850154939d509b509950909750955090611dfb908c90613be9565b9094509250505b604080516101008101825298895260208901919091528701929092526060860194909452608085019290925260a084015260c083019190915260e082015292915050565b60006109d4611e53612699565b8484612894565b60006109d88261276e565b610fa78383834261335a565b600a546000908190819081908190819081908190819081906001600160a01b038c811691161415611f54576047546001600160a01b031660009081526049602052604081206046805491926103e892611ec657fe5b90600052602060002001600281548110611edc57fe5b90600052602060002090602091828204019190069054906101000a900460ff1660ff16611f0d838460060154613cc1565b0281611f1557fe5b04600a60010154019150611f2761507f565b6047546006830154611f46916001600160a01b03169060016013613d6a565b6040015194506121e9915050565b600e546001600160a01b038c811691161415611f735750600f546121e9565b6012546001600160a01b038c811691161415611f9257506013546121e9565b6001600160a01b038b166000908152604960205260409020601f5460068201541095508515611fd35760405162461bcd60e51b8152600401610f0990615778565b6001810154600160381b900460ff16611ffe5760405162461bcd60e51b8152600401610f0990615a55565b80600b015492506000604a60018360010160079054906101000a900460ff160360ff168154811061202b57fe5b9060005260206000209060040201905061204361507f565b6120aa8e8460060154600060468660020160019054906101000a900460ff1660ff168154811061206f57fe5b9060005260206000200160018154811061208557fe5b60009182526020918290209181049091015460ff601f9092166101000a900416613d6a565b90506120ba838460060154613cc1565b6040820151600185015491985096506103e6600160201b90910461ffff161180156120f6575060018301546103ea600160201b90910461ffff16105b156121555760005b6050548110156121535760006050828154811061211757fe5b9060005260206000209060030201905084600601548160000154111561214a57610bb681600101548161214657fe5b0496505b506001016120fe565b505b6103e8826003015484600a0154028161216a57fe5b04858260400151890101119750876121e55760018301546005600160201b90910461ffff1610156121a957846103e861035289890102040193506121e5565b60018301546103e6600160201b90910461ffff1611156121d7576103e86103528888018701020493506121e5565b6103e8610352888801020493505b5050505b939a9299509097509550909350915050565b60045490565b600061220b612699565b90506001600160a01b0381166122335760405162461bcd60e51b8152600401610f0990615828565b6117b18183614086565b6001600160a01b03918216600090815260026020908152604080832093909416825291909152205490565b6000612272612699565b90506001600160a01b03811661229a5760405162461bcd60e51b8152600401610f0990615828565b6117b18183614566565b60408051600a8082526101608201909252606091829182918291906020820161014080368337505060408051600a808252610160820190925292935060609291506020820161014080368337505060408051600a808252610160820190925292935060609291506020820161014080368337019050509050600080805b600a81101561243f57605b818154811061233757fe5b6000918252602090912001546001600160a01b03169150811580159061237d57506001600160a01b03821660009081526055602052604090206003015443612580909101115b15612437578186848151811061238f57fe5b60200260200101906001600160a01b031690816001600160a01b03168152505060556000836001600160a01b03166001600160a01b03168152602001908152602001600020600201548584815181106123e457fe5b60200260200101818152505060556000836001600160a01b03166001600160a01b031681526020019081526020016000206003015484848151811061242557fe5b60209081029190910101526001909201915b600101612321565b5093965091945092505050909192565b6000612459612699565b90506001600160a01b0381166124815760405162461bcd60e51b8152600401610f0990615828565b61248a8161301d565b50565b33612496611b79565b6001600160a01b0316146124bc5760405162461bcd60e51b8152600401610f09906159b7565b600a80546001600160a01b039586166001600160a01b0319918216179091556012805494861694821694909417909355600e805492851692841692909217909155604b8054919093169116179055565b612514612699565b6000546001600160a01b039081169116146125415760405162461bcd60e51b8152600401610f09906159b7565b61248a81614a21565b600780546001600160a01b0396871661010002610100600160a81b0319909116179055600a80549486166001600160a01b03199586161790556012805493861693851693909317909255600e8054918516918416919091179055604b8054919093169116179055565b6047546001600160a01b031681565b6001600160a01b038082166000908152604960209081526040808320600d810154600f820154600e909201805484518187028101870190955280855295968796879660609661ffff600160a01b87041696841695909316939291839183018282801561265757602002820191906000526020600020905b81546001600160a01b03168152600190910190602001808311612639575b5050505050905093509350935093509193509193565b6000828201838110156126925760405162461bcd60e51b8152600401610f0990615741565b9392505050565b3390565b6001600160a01b0383166126c35760405162461bcd60e51b8152600401610f0990615b2d565b6001600160a01b0382166126e95760405162461bcd60e51b8152600401610f099061564e565b6001600160a01b0380841660008181526002602090815260408083209487168084529490915290819020849055517f8c5be1e5ebec7d5bd14f71427d1e84f3dd0314c0f7b2291e5b200ac8c7c3b92590612744908590615bf3565b60405180910390a3505050565b60006103e861275e614aa2565b6032028161276857fe5b04905090565b600060038211156127915760405162461bcd60e51b8152600401610f0990615991565b601854605480546103e892600160401b900461ffff169190859081106127b357fe5b906000526020600020016000815481106127c957fe5b906000526020600020015402816127dc57fe5b04605483815481106127ea57fe5b9060005260206000200160008154811061280057fe5b9060005260206000200154019050919050565b6001600160a01b0381166000908152605560205260408120600381015482919015612884578054612884576003810154430361258081111561285457506125805b806057546170800283600201546009548461bb800202028161287257fe5b0483600501540193509350505061288f565b600501546000925090505b915091565b6001600160a01b0383166128ba5760405162461bcd60e51b8152600401610f09906156d6565b6001600160a01b0382166128e05760405162461bcd60e51b8152600401610f09906159ec565b61291d81604051806060016040528060268152602001615cb9602691396001600160a01b038616600090815260016020526040902054919061299e565b6001600160a01b03808516600090815260016020526040808220939093559084168152205461294c908261266d565b6001600160a01b0380841660008181526001602052604090819020939093559151908516907fddf252ad1be2c89b69c2b068fc378daa952ba7f163c4a11628f55a4df523b3ef90612744908590615bf3565b600081848411156129c25760405162461bcd60e51b8152600401610f099190615537565b505050900390565b6001600160a01b0382166129f05760405162461bcd60e51b8152600401610f09906157f1565b600454600354612a00908361266d565b10612a1d5760405162461bcd60e51b8152600401610f0990615936565b600354612a2a908261266d565b6003556001600160a01b038216600090815260016020526040902054612a50908261266d565b6001600160a01b0383166000818152600160205260408082209390935591519091907fddf252ad1be2c89b69c2b068fc378daa952ba7f163c4a11628f55a4df523b3ef90612a9f908590615bf3565b60405180910390a35050565b60008060006064604c5460050281612abf57fe5b04905060005b605254811015612b7657600060528281548110612ade57fe5b9060005260206000209060040201905062015180816000015442031115612b6d57601754600382015402808410612b6457604c80548290039055600382015460075460018481015498019796909101959482900394612b4f916001600160a01b036101009091048116911683612be3565b8560021415612b5f575050612b76565b612b6b565b5050612b76565b505b50600101612ac5565b508115610fa757604b54610fa79030906001600160a01b031684612894565b604a546000905b8015612bda57604a6001820381548110612bb257fe5b9060005260206000209060040201600101548310612bd1579050610925565b60001901612b9c565b50600092915050565b60006060846001600160a01b031663a9059cbb8585604051602401612c099291906153a0565b6040516020818303038152906040529060e01b6020820180516001600160e01b038381831617835250505050604051612c42919061534c565b6000604051808303816000865af19150503d8060008114612c7f576040519150601f19603f3d011682016040523d82523d6000602084013e612c84565b606091505b5091509150818015612cae575080511580612cae575080806020019051810190612cae919061528a565b612cca5760405162461bcd60e51b8152600401610f0990615590565b5050505050565b6001600160a01b038216612cf75760405162461bcd60e51b8152600401610f09906158cb565b612d3481604051806060016040528060228152602001615d2c602291396001600160a01b038516600090815260016020526040902054919061299e565b6001600160a01b038316600090815260016020526040902055600354612d5a9082614b28565b6003556040516000906001600160a01b038416907fddf252ad1be2c89b69c2b068fc378daa952ba7f163c4a11628f55a4df523b3ef90612a9f908590615bf3565b6001600160a01b03831660009081526055602052604081206054805491929184908110612dc457fe5b90600052602060002001600181548110612dda57fe5b600091825260209091200154600a549091506001600160a01b03868116911614612fb757600080612e0a8561276e565b905060006064601860089054906101000a900461ffff1661ffff161115612e5e5760548681548110612e3857fe5b90600052602060002001600381548110612e4e57fe5b9060005260206000200154612e8d565b60548681548110612e6b57fe5b90600052602060002001600281548110612e8157fe5b90600052602060002001545b6007546103e8828502049450909150612eb69061010090046001600160a01b0316893085614b6a565b6001600160a01b03871615612f72576007546064605a85020490612ee99061010090046001600160a01b03168983612be3565b6002860154612f41576001600160a01b038089166000818152605660209081526040822080546001818101835591845291909220018054938d166001600160a01b031994851617905588018054909216179055612f70565b60018601546001600160a01b03898116911614612f705760405162461bcd60e51b8152600401610f0990615621565b505b50604c80546064600a9490940293909304909201909155600b80546103e860148402819004909101909155600f80549281029190910491820190556013805490910190555b6002820154612fd9576000825560028201819055605880546001019055613001565b600382015415612ff6576000612fee86612813565b600585015550505b600282018054820190555b6057805490910190556000600382015542600690910155505050565b6001600160a01b038116600090815260556020526040902060028101546130565760405162461bcd60e51b8152600401610f0990615ada565b6003810154156130785760405162461bcd60e51b8152600401610f09906158a0565b6000805b600a8210156131b65760006001600160a01b0316605b838154811061309d57fe5b6000918252602090912001546001600160a01b031614156130bd576131b6565b60556000605b84815481106130ce57fe5b60009182526020808320909101546001600160a01b0316835282019290925260400190206003015415801590613140575061258060556000605b858154811061311357fe5b60009182526020808320909101546001600160a01b03168352820192909252604001902060030154430311155b156131ab57605b828154811061315257fe5b600091825260209091200154605b805460018401936001600160a01b039093169290811061317c57fe5b9060005260206000200160006101000a8154816001600160a01b0302191690836001600160a01b031602179055505b60019091019061307c565b6000915060645b8183101561321c5760556000605b85815481106131d657fe5b60009182526020808320909101546001600160a01b03168352820192909252604001902060029081015490850154111561321157508161321c565b6001909201916131bd565b806064141561327057600a82101561326b5784605b838154811061323c57fe5b9060005260206000200160006101000a8154816001600160a01b0302191690836001600160a01b031602179055505b613338565b600a821015613280576001909101905b6001820392505b808311156132fb57605b600184038154811061329f57fe5b600091825260209091200154605b80546001600160a01b0390921691859081106132c557fe5b600091825260209091200180546001600160a01b0319166001600160a01b03929092169190911790556000199290920191613287565b84605b828154811061330957fe5b9060005260206000200160006101000a8154816001600160a01b0302191690836001600160a01b031602179055505b600061334386612813565b600587015550504360039094019390935550505050565b60185463ffffffff600160201b820481169116811061338b5760405162461bcd60e51b8152600401610f0990615a2f565b63ffffffff81166133c857600a546001600160a01b038581169116146133c35760405162461bcd60e51b8152600401610f099061556a565b61349b565b600a8163ffffffff161015613404576047546001600160a01b038581169116146133c35760405162461bcd60e51b8152600401610f099061587a565b6001600160a01b03851660009081526049602052604090206005015461345c576001600160a01b0384166000908152604960205260409020600501546133c35760405162461bcd60e51b8152600401610f099061579c565b6001600160a01b038581166000908152604960205260409020600c015481169085161461349b5760405162461bcd60e51b8152600401610f099061579c565b6001600160a01b03851660009081526049602052604090206005015480156134f3576127108410156134ee5760085460640281850310156134ee5760405162461bcd60e51b8152600401610f09906157c7565b613518565b60085460c8028410156135185760405162461bcd60e51b8152600401610f0990615b03565b600061352385611be9565b90508061352f88611a61565b101561354d5760405162461bcd60e51b8152600401610f0990615852565b60075461356a9061010090046001600160a01b0316883088614b6a565b6135748782612cd1565b60198054820190556001600160a01b038716600090815260496020526040902060068101546139645760006135a7614c53565b601854909150600160201b900463ffffffff16600114156136085760018201805460ff60301b19169055604780546001600160a01b038b81166001600160a01b031992831617909255600d84018054928b169290911691909117905561385e565b6018546005600160401b90910461ffff1610156136a357600d820180546001600160a01b0319166001600160a01b038a161790556001808301805460ff60301b19166601000000000000830217905550600d8201546001600160a01b0390811660009081526049602090815260408220600e01805460018101825590835291200180546001600160a01b031916918b1691909117905561385e565b6001600160a01b03881660009081526049602052604090206001838101805460ff60301b19166602000000000000179055808201546601000000000000900460ff1660028111156136f057fe5b1461370857600f8101546001600160a01b031661370a565b885b600f840180546001600160a01b0319166001600160a01b0392909216919091179055600d8101546003600160a01b90910461ffff90811682810492900690811661377057600d850180546001600160a01b0319166001600160a01b038d161790556137c3565b6137a083600e018361ffff168154811061378657fe5b6000918252602090912001546001600160a01b0316614d8d565b600d860180546001600160a01b0319166001600160a01b03929092169190911790555b600d8084018054600161ffff600160a01b808404821692909201160261ffff60a01b199091161790558501546001600160a01b03166138145760405162461bcd60e51b8152600401610f099061590c565b505050600d8201546001600160a01b0390811660009081526049602090815260408220600e01805460018101825590835291200180546001600160a01b031916918b169190911790555b6306034e8b850163ffffffff9081168355600c830180546001600160a01b0319166001600160a01b038b1617905560018301805463ffffffff191691831691821780825560185465ffff0000000019909116600160401b90910461ffff16600160201b02179055600a8301889055600d8301805461ffff60a01b191690556207aae710156139155763ffffffff8116600090815260486020526040902080546001600160a01b0319166001600160a01b038b161790555b6018546040517f6932ac5f42401e77c40344f612fa5558d62470f6a92606e938a4743c566e6ce891613956918c91600160201b900463ffffffff16906153b9565b60405180910390a1506139e4565b600481015460ff168061397c57508060060154601e54115b156139945760006007820181905560088201556139d9565b6000806139a08a611e71565b5050509150915081156139c05760006007840181905560088401556139d6565b6007830181905580156139d6576139d683614dce565b50505b600a81018054870190555b600f8101546001600160a01b031615613a2457600f8101546001600160a01b03166000908152604960205260409020600b0180546103e860288902040190555b600581018690556006810185905560028101805487019055600a810154600090613a4d90612b95565b90506103e8604a6001830360ff1681548110613a6557fe5b90600052602060002090600402016003015483600a01540281613a8457fe5b04600983015560018201805460ff808416600160381b0260ff60381b199092169190911790915560048301541615613ac35760048201805460ff191690555b604c80546103e860128a02819004909101909155604d80546020808b02849004909101909155600b805460148b02849004019055600f8054818b0293909304928301905560138054909201909155601c805489019055805488019055601d86905560455460241415613b965760015b604554811015613b8f5760216001820360248110613b4c57fe5b01546001600160a01b03166021600019830160248110613b6857fe5b0180546001600160a01b0319166001600160a01b0392909216919091179055600101613b32565b5060236045555b88602160455460248110613ba657fe5b0180546001600160a01b0319166001600160a01b0392909216919091179055604580546001019055613bd6610fb5565b613bde612aab565b505050505050505050565b6001600160a01b038216600090815260496020526040812081908180805b600e840154811015613cb457600084600e018281548110613c2457fe5b6000918252602082200154600e870180546001600160a01b03909216935060499183919086908110613c5257fe5b60009182526020808320909101546001600160a01b03168352820192909252604001902090506013891015613c9c57600080613c91848c600101613be9565b970196959095019450505b60020154600194850194930192919091019050613c07565b5090969095509350505050565b60008260060154821015613cd757826006015491505b601f54821015613ce9575060006109d8565b6000603c83420381613cf757fe5b049050601f548310613d5f576215f90081604a60018760010160079054906101000a900460ff160360ff1681548110613d2c57fe5b6000918252602090912060026004909202010154600a87015460ff909116020281613d5357fe5b04846007015401613d62565b60005b949350505050565b613d7261507f565b6001600160a01b03851660009081526049602052604081209084151580613da657506047546001600160a01b038881169116145b613dc757600d820154600390600160a01b900461ffff160461ffff16613dcd565b600e8201545b905060008060008060005b8581101561406057600087600e018281548110613df157fe5b6000918252602082200154600e8a0180546001600160a01b03909216935060499183919086908110613e1f57fe5b60009182526020808320909101546001600160a01b031683528201929092526040019020600481015490915060ff1661405657613e5c818e613cc1565b60018a810154919850600160381b90910460ff1610801590613e7c57508b155b15613edb576103e86046600081548110613e9257fe5b90600052602060002001600281548110613ea857fe5b60009182526020918290209181049091015460ff601f9092166101000a900416880281613ed157fe5b0485019450614004565b600189810154600160381b900460ff1610801590613ef957508b6001145b15613f0f576103e86046600181548110613e9257fe5b60018901546002600160381b90910460ff1610801590613f30575060028c10155b8015613f3d575060068c11155b15613f53576103e86046600281548110613e9257fe5b60018901546003600160381b90910460ff1610801590613f74575060078c10155b8015613f815750600f8c11155b15613f97576103e86046600381548110613e9257fe5b60018901546004600160381b90910460ff1610614004576103e86046600481548110613fbf57fe5b90600052602060002001600281548110613fd557fe5b60009182526020918290209181049091015460ff601f9092166101000a900416880281613ffe57fe5b04850194505b60018b038c10156140455761401761507f565b614026838f8f6001018f613d6a565b9050806000015185019450806020015187019650806040015186019550505b600281015495909501946001909301925b5050600101613dd8565b506040805160608101825291825260208201939093529182015298975050505050505050565b600060175460095483028161409757fe5b6053546007549290910492508291600091906140c39061010090046001600160a01b0316873088614b6a565b60005b605254811015614274576000605282815481106140df57fe5b90600052602060002090600402019050848160030154106141b65760006009546103e80260175487026103e6028161411357fe5b600754600185015492909104925061413d916001600160a01b036101009092048216911683612be3565b60408051608081018252612711860181526000602082018190529181018890524260608201526053805460018181018355919093529095019461419291600080516020615c99833981519152019060046150a0565b5060038201805496909603958690556000956141af576001909401935b5050614274565b60006009546103e8026017548360030154026103e602816141d357fe5b60075460018501549290910492506141fd916001600160a01b036101009092048216911683612be3565b60408051608081018252612711860181526000602082018190526003850154928201929092524260608201526053805460018181018355919093529095019461425891600080516020615c99833981519152019060046150a0565b50506003018054600090915590930392600192830192016140c6565b5081156143e657815b60525481101561438a576052818154811061429457fe5b906000526020600020906004020160010160009054906101000a90046001600160a01b03166052848303815481106142c857fe5b906000526020600020906004020160010160006101000a8154816001600160a01b0302191690836001600160a01b031602179055506052818154811061430a57fe5b90600052602060002090600402016002015460528483038154811061432b57fe5b9060005260206000209060040201600201819055506052818154811061434d57fe5b90600052602060002090600402016003015460528483038154811061436e57fe5b600091825260209091206003600490920201015560010161427d565b5060005b828110156143e45760528054806143a157fe5b600082815260208120600460001990930192830201818155600181810180546001600160a01b03191690556002820183905560039091019190915591550161438e565b505b82156145515760515460641161440e5760405162461bcd60e51b8152600401610f099061596b565b600060095460175485028161441f57fe5b604080516080810182524281526001600160a01b038b8116602083019081528284018c815295909404606083018181526051805460018101825560009190915293517f994a4b4eddb300691ee19901712848b1114bad8a1a4ae195e5abe0ec38021b9460049095029485015594517f994a4b4eddb300691ee19901712848b1114bad8a1a4ae195e5abe0ec38021b95840180546001600160a01b031916919093161790915593517f994a4b4eddb300691ee19901712848b1114bad8a1a4ae195e5abe0ec38021b9682015591517f994a4b4eddb300691ee19901712848b1114bad8a1a4ae195e5abe0ec38021b9790920191909155519091507f2e63b61ed93a328967f80b447bc296cc3344b0b4cf419c417e252dd66af4c7629061454790899084906153a0565b60405180910390a1505b82840315611719576117193087858703612894565b600060095460175483028161457757fe5b6053549190049150819060009061458f863087612894565b60005b605154811015614716576000605182815481106145ab57fe5b90600052602060002090600402019050848160030154106146705760006017546009548702816145d757fe5b600184015491900491506145f69030906001600160a01b031683612894565b6040805160808101825261271186018152600160208201819052918101839052426060820152605380548084018255600091909152919095019461464c91600080516020615c99833981519152019060046150a0565b506003820180549690960395869055600095614669576001909401935b5050614716565b60006017546009548360030154028161468557fe5b600184015491900491506146a49030906001600160a01b031683612894565b604080516080810182526127118601815260016020820181905291810183905242606082015260538054808401825560009190915291909501946146fa91600080516020615c99833981519152019060046150a0565b5050600301805460009091559093039260019283019201614592565b50811561488857815b60515481101561482c576051818154811061473657fe5b906000526020600020906004020160010160009054906101000a90046001600160a01b031660518483038154811061476a57fe5b906000526020600020906004020160010160006101000a8154816001600160a01b0302191690836001600160a01b03160217905550605181815481106147ac57fe5b9060005260206000209060040201600201546051848303815481106147cd57fe5b906000526020600020906004020160020181905550605181815481106147ef57fe5b90600052602060002090600402016003015460518483038154811061481057fe5b600091825260209091206003600490920201015560010161471f565b5060005b8281101561488657605180548061484357fe5b600082815260208120600460001990930192830201818155600181810180546001600160a01b031916905560028201839055600390910191909155915501614830565b505b82156149f3576051546064116148b05760405162461bcd60e51b8152600401610f099061596b565b60006017546009548502816148c157fe5b604080516080810182524281526001600160a01b038b8116602083019081528284018c815295909404606083018181526052805460018101825560009190915293517fa9144a5e7efd259b8b0d55467f4696ed47ec83317d61501b76366dbcca65ce7360049095029485015594517fa9144a5e7efd259b8b0d55467f4696ed47ec83317d61501b76366dbcca65ce74840180546001600160a01b031916919093161790915593517fa9144a5e7efd259b8b0d55467f4696ed47ec83317d61501b76366dbcca65ce7582015591517fa9144a5e7efd259b8b0d55467f4696ed47ec83317d61501b76366dbcca65ce7690920191909155519091507fe52393fb0bc93d5edf3ddb6ef44887d82b0b9553466f447cb9b8b409087e9705906149e990899084906153a0565b60405180910390a1505b82840315611719576007546117199061010090046001600160a01b0316876103e88688036103e60204612be3565b6001600160a01b038116614a475760405162461bcd60e51b8152600401610f0990615690565b600080546040516001600160a01b03808516939216917f8be0079c531659141344cd1fd0a4f28419497f9722a3daafe3b4186f6b6457e091a3600080546001600160a01b0319166001600160a01b0392909216919091179055565b6007546040516370a0823160e01b815260009161010090046001600160a01b0316906370a0823190614ad8903090600401615368565b60206040518083038186803b158015614af057600080fd5b505afa158015614b04573d6000803e3d6000fd5b505050506040513d601f19601f82011682018060405250810190611b0591906152c2565b600061269283836040518060400160405280601e81526020017f536166654d6174683a207375627472616374696f6e206f766572666c6f77000081525061299e565b60006060856001600160a01b03166323b872dd868686604051602401614b929392919061537c565b6040516020818303038152906040529060e01b6020820180516001600160e01b038381831617835250505050604051614bcb919061534c565b6000604051808303816000865af19150503d8060008114614c08576040519150601f19603f3d011682016040523d82523d6000602084013e614c0d565b606091505b5091509150818015614c37575080511580614c37575080806020019051810190614c37919061528a565b6117215760405162461bcd60e51b8152600401610f0990615b71565b6000806103e9601860089054906101000a900461ffff1661ffff1610614c8a57601854600160401b900461ffff166107d003614c99565b601854600160401b900461ffff165b601a5461ffff918216925016811415614d3c576018805469ffff0000000000000000198116600160401b9182900461ffff9081166001018116830291909117928390556040517f66d08156b35a3ddc911dafbc8b10ffdc4e5126b090253256cfa71a80f87aefee93614d1093900490911690615be4565b60405180910390a1614d2660175460165461266d565b601755601a805461ffff19166001179055614d55565b601a805461ffff8082166001011661ffff199091161790555b50506018805467ffffffff00000000198116600160201b9182900463ffffffff90811660010181168302919091179283905591041690565b6001600160a01b0381166000908152604960205260408120600e81015415614dc757614dc281600e0160008154811061378657fe5b612692565b5090919050565b600080805b6014811015614ffe57600a54600d8501546001600160a01b03908116911614614e2557600d8401546001600160a01b0316600090815260496020526040902060010154600160381b900460ff16614e28565b60045b925060018360ff1610158015614e3e5750806001145b15614ea2576103e86046600081548110614e5457fe5b90600052602060002001600281548110614e6a57fe5b90600052602060002090602091828204019190069054906101000a900460ff1660ff1685600701540281614e9a57fe5b049150614fa2565b60018360ff1610158015614eb65750806002145b15614ecc576103e86046600181548110614e5457fe5b60028360ff1610158015614ee1575060038110155b8015614eee575060078111155b15614f04576103e86046600281548110614e5457fe5b60038360ff1610158015614f19575060088110155b8015614f26575060108111155b15614f3c576103e86046600381548110614e5457fe5b60048360ff1610614fa2576103e86046600481548110614f5857fe5b90600052602060002001600281548110614f6e57fe5b90600052602060002090602091828204019190069054906101000a900460ff1660ff1685600701540281614f9e57fe5b0491505b8115614ff657600a54600d8501546001600160a01b0390811691161415614fd057600b805483019055614ffe565b600d8401546001600160a01b031660009081526049602052604090206008018054830190555b600101614dd3565b50505050565b60405180608001604052806004906020820280368337509192915050565b604051806101a00160405280600d906020820280368337509192915050565b604051806101600160405280600b906020820280368337509192915050565b6040518061010001604052806008906020820280368337509192915050565b60405180606001604052806000815260200160008152602001600081525090565b8280548282559060005260206000209081019282156150db579160200282015b828111156150db5782518255916020019190600101906150c0565b506150e79291506150eb565b5090565b5b808211156150e757600081556001016150ec565b600060208284031215615111578081fd5b813561269281615c83565b6000806040838503121561512e578081fd5b823561513981615c83565b9150602083013561514981615c83565b809150509250929050565b60008060008060808587031215615169578182fd5b843561517481615c83565b9350602085013561518481615c83565b9250604085013561519481615c83565b915060608501356151a481615c83565b939692955090935050565b600080600080600060a086880312156151c6578081fd5b85356151d181615c83565b945060208601356151e181615c83565b935060408601356151f181615c83565b9250606086013561520181615c83565b9150608086013561521181615c83565b809150509295509295909350565b600080600060608486031215615233578283fd5b833561523e81615c83565b9250602084013561524e81615c83565b929592945050506040919091013590565b60008060408385031215615271578182fd5b823561527c81615c83565b946020939093013593505050565b60006020828403121561529b578081fd5b81518015158114612692578182fd5b6000602082840312156152bb578081fd5b5035919050565b6000602082840312156152d3578081fd5b5051919050565b6000815180845260208085019450808401835b838110156153125781516001600160a01b0316875295820195908201906001016152ed565b509495945050505050565b6000815180845260208085019450808401835b8381101561531257815187529582019590820190600101615330565b6000825161535e818460208701615c57565b9190910192915050565b6001600160a01b0391909116815260200190565b6001600160a01b039384168152919092166020820152604081019190915260600190565b6001600160a01b03929092168252602082015260400190565b6001600160a01b0392909216825263ffffffff16602082015260400190565b6000606082526153eb60608301866152da565b82810360208401526153fd818661531d565b90508281036040840152615411818561531d565b9695505050505050565b6020808252825182820181905260009190848201906040850190845b8181101561547757835183875b600481101561546157825182529187019190870190600101615444565b5050509284019260809290920191600101615437565b50909695505050505050565b6101608101818360005b600b8110156154ac57815183526020928301929091019060010161548d565b50505092915050565b6101a08101818360005b600d8110156154ac5781518352602092830192909101906001016154bf565b6101008101818360005b60088110156154ac5781518352602092830192909101906001016154e8565b901515815260200190565b9415158552602085019390935260408401919091526060830152608082015260a00190565b6000602082528251806020840152615556816040850160208701615c57565b601f01601f19169190910160400192915050565b6020808252600c908201526b11902732b2b22fa0b236b4b760a11b604082015260600190565b6020808252601f908201527f5472616e7366657248656c7065723a205452414e534645525f4641494c454400604082015260600190565b6020808252601690820152752320696e76616c69645f7265666572616c5f6c696e6b60501b604082015260600190565b60208082526010908201526f119034b73b30b634b22fb9b2b73232b960811b604082015260600190565b602080825260139082015272496e76616c69645f5265666572616c4c696e6b60681b604082015260600190565b60208082526022908201527f48524332303a20617070726f766520746f20746865207a65726f206164647265604082015261737360f01b606082015260800190565b60208082526026908201527f4f776e61626c653a206e6577206f776e657220697320746865207a65726f206160408201526564647265737360d01b606082015260800190565b60208082526025908201527f48524332303a207472616e736665722066726f6d20746865207a65726f206164604082015264647265737360d81b606082015260800190565b6020808252600c908201526b08c813dd995c999b1bddd95960a21b604082015260600190565b6020808252601b908201527f536166654d6174683a206164646974696f6e206f766572666c6f770000000000604082015260600190565b6020808252600a908201526913dd995c999b1bddd95960b21b604082015260600190565b60208082526011908201527008c81a5b9d985b1a5917dc9959995c985b607a1b604082015260600190565b60208082526010908201526f08c81d1bdbd7db1bddd7da5b9d995cdd60821b604082015260600190565b6020808252601f908201527f48524332303a206d696e7420746f20746865207a65726f206164647265737300604082015260600190565b60208082526010908201526f119024b73b30b634b22fb9b2b73232b960811b604082015260600190565b6020808252600e908201526d11902732b2b22f989812afaa363160911b604082015260600190565b6020808252600c908201526b23204e6565645f704e6f646560a01b604082015260600190565b60208082526011908201527008c8105b1c9958591e57dcdd185c9d1959607a1b604082015260600190565b60208082526021908201527f48524332303a206275726e2066726f6d20746865207a65726f206164647265736040820152607360f81b606082015260800190565b60208082526010908201526f08c81a5b9d985b1a5917dc185c995b9d60821b604082015260600190565b6020808252818101527f48524332303a20616c72656164792072656163686564206d6178537570706c79604082015260600190565b6020808252600c908201526b08c81c5d595d5957d99d5b1b60a21b604082015260600190565b6020808252600c908201526b34b73b30b634b22fba34b2b960a11b604082015260600190565b6020808252818101527f4f776e61626c653a2063616c6c6572206973206e6f7420746865206f776e6572604082015260600190565b60208082526023908201527f48524332303a207472616e7366657220746f20746865207a65726f206164647260408201526265737360e81b606082015260800190565b6020808252600c908201526b232066756c6c5f757365727360a01b604082015260600190565b60208082526013908201527232bc3832b1ba32b22fbb30b634b22fba34b2b960691b604082015260600190565b6020808252600f908201526e1a5b9d985b1a5917d858d8dbdd5b9d608a1b604082015260600190565b6020808252601590820152742320696e76616c69645f7265666572616c4c696e6b60581b604082015260600190565b6020808252600f908201526e119024b73b30b634b22fb6b4b732b960891b604082015260600190565b60208082526010908201526f08c8151bdbd7d31bddd7d25b9d995cdd60821b604082015260600190565b60208082526024908201527f48524332303a20617070726f76652066726f6d20746865207a65726f206164646040820152637265737360e01b606082015260800190565b60208082526024908201527f5472616e7366657248656c7065723a205452414e534645525f46524f4d5f46416040820152631253115160e21b606082015260800190565b60208082526015908201527423206f766572666c6f775f746f74616c5f6d696e6560581b604082015260600190565b61ffff91909116815260200190565b90815260200190565b8481526001600160a01b03848116602083015283166040820152608060608201819052600090615411908301846152da565b93845260208401929092526040830152606082015260800190565b60ff91909116815260200190565b60005b83811015615c72578181015183820152602001615c5a565b83811115614ffe5750506000910152565b6001600160a01b038116811461248a57600080fdfe4c83efb3982afbd500ab7c66d02b996df5fdc3d20660e61600390aad6d5f7f1e48524332303a207472616e7366657220616d6f756e7420657863656564732062616c616e636548524332303a2064656372656173656420616c6c6f77616e63652062656c6f77207a65726f48524332303a207472616e7366657220616d6f756e74206578636565647320616c6c6f77616e636548524332303a206275726e20616d6f756e7420657863656564732062616c616e6365a2646970667358221220f7c60dab1d771b8eae2961d257a3a0ba0f15a154cc6c2c8a9598f011e471743564736f6c634300060c0033",
			"opcodes": "PUSH1 0x80 PUSH1 0x40 MSTORE PUSH1 0x7 DUP1 SLOAD PUSH2 0x100 PUSH1 0x1 PUSH1 0xA8 SHL SUB NOT AND PUSH21 0x9DEFB199A6CDBFBAFFE8C1C712F469E5C900A4DE00 OR PUSH1 0xFF PUSH1 0xA8 SHL NOT AND PUSH1 0x1 PUSH1 0xA9 SHL OR SWAP1 DUP2 SWAP1 SSTORE PUSH1 0xFF PUSH1 0x1 PUSH1 0xA8 SHL SWAP1 SWAP2 DIV AND PUSH1 0xA EXP PUSH1 0x8 DUP2 SWAP1 SSTORE PUSH2 0x2710 PUSH1 0x9 SSTORE PUSH1 0x64 SWAP1 DIV PUSH1 0x16 SSTORE PUSH1 0xA PUSH1 0x8 SLOAD DUP2 PUSH3 0x68 JUMPI INVALID JUMPDEST DIV PUSH1 0x17 SSTORE PUSH1 0x18 DUP1 SLOAD PUSH6 0xFFFFFFFFFFFF PUSH1 0x20 SHL NOT PUSH4 0xFFFFFFFF NOT SWAP1 SWAP2 AND PUSH3 0xF4240 OR AND SWAP1 SSTORE PUSH1 0x0 PUSH1 0x19 DUP2 SWAP1 SSTORE PUSH1 0x1A DUP1 SLOAD PUSH2 0xFFFF NOT AND SWAP1 SSTORE PUSH4 0x1ABBC00 PUSH1 0x1B SSTORE PUSH1 0x1C DUP2 SWAP1 SSTORE TIMESTAMP PUSH1 0x1D SSTORE PUSH2 0xE10 PUSH1 0x1E SSTORE PUSH1 0x1F DUP2 SWAP1 SSTORE PUSH1 0x20 SWAP1 DUP2 SSTORE PUSH1 0x40 DUP1 MLOAD PUSH2 0x100 DUP2 ADD DUP3 MSTORE PUSH1 0x1 PUSH1 0xA0 DUP3 ADD DUP2 DUP2 MSTORE PUSH1 0xC0 DUP4 ADD SWAP2 SWAP1 SWAP2 MSTORE PUSH1 0xC8 PUSH1 0xE0 DUP4 ADD MSTORE DUP2 MSTORE DUP2 MLOAD PUSH1 0x60 DUP2 DUP2 ADD DUP5 MSTORE PUSH1 0x2 DUP1 DUP4 MSTORE DUP3 DUP7 ADD MSTORE PUSH1 0x96 DUP3 DUP6 ADD MSTORE DUP3 DUP6 ADD SWAP2 SWAP1 SWAP2 MSTORE DUP3 MLOAD DUP1 DUP3 ADD DUP5 MSTORE PUSH1 0x3 DUP2 MSTORE PUSH1 0x7 DUP2 DUP7 ADD MSTORE PUSH1 0x64 DUP2 DUP6 ADD MSTORE DUP3 DUP5 ADD MSTORE DUP3 MLOAD DUP1 DUP3 ADD DUP5 MSTORE PUSH1 0x8 DUP2 MSTORE PUSH1 0xF DUP2 DUP7 ADD MSTORE PUSH1 0x32 DUP2 DUP6 ADD MSTORE DUP2 DUP4 ADD MSTORE DUP3 MLOAD SWAP1 DUP2 ADD DUP4 MSTORE PUSH1 0x10 DUP2 MSTORE PUSH1 0x14 SWAP4 DUP2 ADD DUP5 SWAP1 MSTORE SWAP2 DUP3 ADD SWAP3 SWAP1 SWAP3 MSTORE PUSH1 0x80 DUP3 ADD MSTORE PUSH3 0x168 SWAP1 PUSH1 0x46 SWAP1 PUSH1 0x5 PUSH3 0x8A3 JUMP JUMPDEST POP PUSH1 0x40 MLOAD DUP1 PUSH1 0x80 ADD PUSH1 0x40 MSTORE DUP1 PUSH1 0x40 MLOAD DUP1 PUSH1 0x80 ADD PUSH1 0x40 MSTORE DUP1 PUSH1 0x8 SLOAD PUSH2 0x3A98 MUL DUP2 MSTORE PUSH1 0x20 ADD PUSH1 0x64 DUP2 MSTORE PUSH1 0x20 ADD PUSH1 0x64 DUP2 MSTORE PUSH1 0x20 ADD PUSH1 0x1E DUP2 MSTORE POP DUP2 MSTORE PUSH1 0x20 ADD PUSH1 0x40 MLOAD DUP1 PUSH1 0x80 ADD PUSH1 0x40 MSTORE DUP1 PUSH1 0x8 SLOAD PUSH2 0x1D4C MUL DUP2 MSTORE PUSH1 0x20 ADD PUSH1 0x32 DUP2 MSTORE PUSH1 0x20 ADD PUSH1 0x32 DUP2 MSTORE PUSH1 0x20 ADD PUSH1 0x14 DUP2 MSTORE POP DUP2 MSTORE PUSH1 0x20 ADD PUSH1 0x40 MLOAD DUP1 PUSH1 0x80 ADD PUSH1 0x40 MSTORE DUP1 PUSH1 0x8 SLOAD PUSH2 0xDAC MUL DUP2 MSTORE PUSH1 0x20 ADD PUSH1 0x19 DUP2 MSTORE PUSH1 0x20 ADD PUSH1 0x19 DUP2 MSTORE PUSH1 0x20 ADD PUSH1 0xA DUP2 MSTORE POP DUP2 MSTORE PUSH1 0x20 ADD PUSH1 0x40 MLOAD DUP1 PUSH1 0x80 ADD PUSH1 0x40 MSTORE DUP1 PUSH1 0x8 SLOAD PUSH1 0x64 MUL DUP2 MSTORE PUSH1 0x20 ADD PUSH1 0x5 DUP2 MSTORE PUSH1 0x20 ADD PUSH1 0xA DUP2 MSTORE PUSH1 0x20 ADD PUSH1 0x5 DUP2 MSTORE POP DUP2 MSTORE POP PUSH1 0x54 SWAP1 PUSH1 0x4 PUSH3 0x23F SWAP3 SWAP2 SWAP1 PUSH3 0x901 JUMP JUMPDEST POP PUSH1 0x40 DUP1 MLOAD PUSH1 0x3 DUP1 DUP3 MSTORE PUSH1 0x80 DUP3 ADD SWAP1 SWAP3 MSTORE SWAP1 PUSH1 0x20 DUP3 ADD PUSH1 0x60 DUP1 CALLDATASIZE DUP4 CALLDATACOPY POP POP DUP2 MLOAD PUSH3 0x272 SWAP3 PUSH1 0x59 SWAP3 POP PUSH1 0x20 ADD SWAP1 PUSH3 0x95B JUMP JUMPDEST POP PUSH1 0x40 DUP1 MLOAD PUSH1 0xA DUP1 DUP3 MSTORE PUSH2 0x160 DUP3 ADD SWAP1 SWAP3 MSTORE SWAP1 PUSH1 0x20 DUP3 ADD PUSH2 0x140 DUP1 CALLDATASIZE DUP4 CALLDATACOPY POP POP DUP2 MLOAD PUSH3 0x2A7 SWAP3 PUSH1 0x5B SWAP3 POP PUSH1 0x20 ADD SWAP1 PUSH3 0x9A7 JUMP JUMPDEST POP CALLVALUE DUP1 ISZERO PUSH3 0x2B5 JUMPI PUSH1 0x0 DUP1 REVERT JUMPDEST POP PUSH1 0x40 MLOAD DUP1 PUSH1 0x40 ADD PUSH1 0x40 MSTORE DUP1 PUSH1 0xB DUP2 MSTORE PUSH1 0x20 ADD PUSH11 0x544C42205374616B696E67 PUSH1 0xA8 SHL DUP2 MSTORE POP PUSH1 0x40 MLOAD DUP1 PUSH1 0x40 ADD PUSH1 0x40 MSTORE DUP1 PUSH1 0x3 DUP2 MSTORE PUSH1 0x20 ADD PUSH3 0x2A2621 PUSH1 0xE9 SHL DUP2 MSTORE POP PUSH1 0x4 PUSH5 0x519577B000 PUSH1 0x0 PUSH3 0x310 PUSH3 0x74B PUSH1 0x20 SHL PUSH1 0x20 SHR JUMP JUMPDEST PUSH1 0x0 DUP1 SLOAD PUSH1 0x1 PUSH1 0x1 PUSH1 0xA0 SHL SUB NOT AND PUSH1 0x1 PUSH1 0x1 PUSH1 0xA0 SHL SUB DUP4 AND SWAP1 DUP2 OR DUP3 SSTORE PUSH1 0x40 MLOAD SWAP3 SWAP4 POP SWAP2 PUSH32 0x8BE0079C531659141344CD1FD0A4F28419497F9722A3DAAFE3B4186F6B6457E0 SWAP1 DUP3 SWAP1 LOG3 POP DUP4 MLOAD PUSH3 0x36F SWAP1 PUSH1 0x5 SWAP1 PUSH1 0x20 DUP8 ADD SWAP1 PUSH3 0xA0D JUMP JUMPDEST POP DUP3 MLOAD PUSH3 0x385 SWAP1 PUSH1 0x6 SWAP1 PUSH1 0x20 DUP7 ADD SWAP1 PUSH3 0xA0D JUMP JUMPDEST POP PUSH1 0x7 DUP1 SLOAD PUSH1 0xFF NOT AND PUSH1 0xFF SWAP4 SWAP1 SWAP4 AND SWAP3 SWAP1 SWAP3 OR SWAP1 SWAP2 SSTORE PUSH1 0x4 SSTORE POP PUSH1 0x0 SWAP1 POP PUSH1 0x64 PUSH3 0x3AF PUSH3 0x74F JUMP JUMPDEST PUSH1 0x14 MUL DUP2 PUSH3 0x3BA JUMPI INVALID JUMPDEST DIV SWAP1 POP PUSH3 0x3C9 CALLER DUP3 PUSH3 0x755 JUMP JUMPDEST PUSH1 0x4A PUSH1 0x40 MLOAD DUP1 PUSH1 0xA0 ADD PUSH1 0x40 MSTORE DUP1 PUSH1 0x1 PUSH1 0xFF AND DUP2 MSTORE PUSH1 0x20 ADD PUSH1 0x8 SLOAD PUSH1 0xC8 MUL DUP2 MSTORE PUSH1 0x20 ADD PUSH1 0x10 PUSH1 0xFF AND DUP2 MSTORE PUSH1 0x20 ADD PUSH1 0x1 PUSH1 0xFF AND DUP2 MSTORE PUSH1 0x20 ADD PUSH2 0x898 DUP2 MSTORE POP SWAP1 DUP1 PUSH1 0x1 DUP2 SLOAD ADD DUP1 DUP3 SSTORE DUP1 SWAP2 POP POP PUSH1 0x1 SWAP1 SUB SWAP1 PUSH1 0x0 MSTORE PUSH1 0x20 PUSH1 0x0 KECCAK256 SWAP1 PUSH1 0x4 MUL ADD PUSH1 0x0 SWAP1 SWAP2 SWAP1 SWAP2 SWAP1 SWAP2 POP PUSH1 0x0 DUP3 ADD MLOAD DUP2 PUSH1 0x0 ADD PUSH1 0x0 PUSH2 0x100 EXP DUP2 SLOAD DUP2 PUSH1 0xFF MUL NOT AND SWAP1 DUP4 PUSH1 0xFF AND MUL OR SWAP1 SSTORE POP PUSH1 0x20 DUP3 ADD MLOAD DUP2 PUSH1 0x1 ADD SSTORE PUSH1 0x40 DUP3 ADD MLOAD DUP2 PUSH1 0x2 ADD PUSH1 0x0 PUSH2 0x100 EXP DUP2 SLOAD DUP2 PUSH1 0xFF MUL NOT AND SWAP1 DUP4 PUSH1 0xFF AND MUL OR SWAP1 SSTORE POP PUSH1 0x60 DUP3 ADD MLOAD DUP2 PUSH1 0x2 ADD PUSH1 0x1 PUSH2 0x100 EXP DUP2 SLOAD DUP2 PUSH1 0xFF MUL NOT AND SWAP1 DUP4 PUSH1 0xFF AND MUL OR SWAP1 SSTORE POP PUSH1 0x80 DUP3 ADD MLOAD DUP2 PUSH1 0x3 ADD SSTORE POP POP PUSH1 0x4A PUSH1 0x40 MLOAD DUP1 PUSH1 0xA0 ADD PUSH1 0x40 MSTORE DUP1 PUSH1 0x2 PUSH1 0xFF AND DUP2 MSTORE PUSH1 0x20 ADD PUSH1 0x8 SLOAD PUSH2 0x3E9 MUL DUP2 MSTORE PUSH1 0x20 ADD PUSH1 0xE PUSH1 0xFF AND DUP2 MSTORE PUSH1 0x20 ADD PUSH1 0x2 PUSH1 0xFF AND DUP2 MSTORE PUSH1 0x20 ADD PUSH2 0x834 DUP2 MSTORE POP SWAP1 DUP1 PUSH1 0x1 DUP2 SLOAD ADD DUP1 DUP3 SSTORE DUP1 SWAP2 POP POP PUSH1 0x1 SWAP1 SUB SWAP1 PUSH1 0x0 MSTORE PUSH1 0x20 PUSH1 0x0 KECCAK256 SWAP1 PUSH1 0x4 MUL ADD PUSH1 0x0 SWAP1 SWAP2 SWAP1 SWAP2 SWAP1 SWAP2 POP PUSH1 0x0 DUP3 ADD MLOAD DUP2 PUSH1 0x0 ADD PUSH1 0x0 PUSH2 0x100 EXP DUP2 SLOAD DUP2 PUSH1 0xFF MUL NOT AND SWAP1 DUP4 PUSH1 0xFF AND MUL OR SWAP1 SSTORE POP PUSH1 0x20 DUP3 ADD MLOAD DUP2 PUSH1 0x1 ADD SSTORE PUSH1 0x40 DUP3 ADD MLOAD DUP2 PUSH1 0x2 ADD PUSH1 0x0 PUSH2 0x100 EXP DUP2 SLOAD DUP2 PUSH1 0xFF MUL NOT AND SWAP1 DUP4 PUSH1 0xFF AND MUL OR SWAP1 SSTORE POP PUSH1 0x60 DUP3 ADD MLOAD DUP2 PUSH1 0x2 ADD PUSH1 0x1 PUSH2 0x100 EXP DUP2 SLOAD DUP2 PUSH1 0xFF MUL NOT AND SWAP1 DUP4 PUSH1 0xFF AND MUL OR SWAP1 SSTORE POP PUSH1 0x80 DUP3 ADD MLOAD DUP2 PUSH1 0x3 ADD SSTORE POP POP PUSH1 0x4A PUSH1 0x40 MLOAD DUP1 PUSH1 0xA0 ADD PUSH1 0x40 MSTORE DUP1 PUSH1 0x3 PUSH1 0xFF AND DUP2 MSTORE PUSH1 0x20 ADD PUSH1 0x8 SLOAD PUSH2 0x7D1 MUL DUP2 MSTORE PUSH1 0x20 ADD PUSH1 0xC PUSH1 0xFF AND DUP2 MSTORE PUSH1 0x20 ADD PUSH1 0x3 PUSH1 0xFF AND DUP2 MSTORE PUSH1 0x20 ADD PUSH2 0x7D0 DUP2 MSTORE POP SWAP1 DUP1 PUSH1 0x1 DUP2 SLOAD ADD DUP1 DUP3 SSTORE DUP1 SWAP2 POP POP PUSH1 0x1 SWAP1 SUB SWAP1 PUSH1 0x0 MSTORE PUSH1 0x20 PUSH1 0x0 KECCAK256 SWAP1 PUSH1 0x4 MUL ADD PUSH1 0x0 SWAP1 SWAP2 SWAP1 SWAP2 SWAP1 SWAP2 POP PUSH1 0x0 DUP3 ADD MLOAD DUP2 PUSH1 0x0 ADD PUSH1 0x0 PUSH2 0x100 EXP DUP2 SLOAD DUP2 PUSH1 0xFF MUL NOT AND SWAP1 DUP4 PUSH1 0xFF AND MUL OR SWAP1 SSTORE POP PUSH1 0x20 DUP3 ADD MLOAD DUP2 PUSH1 0x1 ADD SSTORE PUSH1 0x40 DUP3 ADD MLOAD DUP2 PUSH1 0x2 ADD PUSH1 0x0 PUSH2 0x100 EXP DUP2 SLOAD DUP2 PUSH1 0xFF MUL NOT AND SWAP1 DUP4 PUSH1 0xFF AND MUL OR SWAP1 SSTORE POP PUSH1 0x60 DUP3 ADD MLOAD DUP2 PUSH1 0x2 ADD PUSH1 0x1 PUSH2 0x100 EXP DUP2 SLOAD DUP2 PUSH1 0xFF MUL NOT AND SWAP1 DUP4 PUSH1 0xFF AND MUL OR SWAP1 SSTORE POP PUSH1 0x80 DUP3 ADD MLOAD DUP2 PUSH1 0x3 ADD SSTORE POP POP PUSH1 0x4A PUSH1 0x40 MLOAD DUP1 PUSH1 0xA0 ADD PUSH1 0x40 MSTORE DUP1 PUSH1 0x4 PUSH1 0xFF AND DUP2 MSTORE PUSH1 0x20 ADD PUSH1 0x8 SLOAD PUSH2 0x1389 MUL DUP2 MSTORE PUSH1 0x20 ADD PUSH1 0xA PUSH1 0xFF AND DUP2 MSTORE PUSH1 0x20 ADD PUSH1 0x4 PUSH1 0xFF AND DUP2 MSTORE PUSH1 0x20 ADD PUSH2 0x76C DUP2 MSTORE POP SWAP1 DUP1 PUSH1 0x1 DUP2 SLOAD ADD DUP1 DUP3 SSTORE DUP1 SWAP2 POP POP PUSH1 0x1 SWAP1 SUB SWAP1 PUSH1 0x0 MSTORE PUSH1 0x20 PUSH1 0x0 KECCAK256 SWAP1 PUSH1 0x4 MUL ADD PUSH1 0x0 SWAP1 SWAP2 SWAP1 SWAP2 SWAP1 SWAP2 POP PUSH1 0x0 DUP3 ADD MLOAD DUP2 PUSH1 0x0 ADD PUSH1 0x0 PUSH2 0x100 EXP DUP2 SLOAD DUP2 PUSH1 0xFF MUL NOT AND SWAP1 DUP4 PUSH1 0xFF AND MUL OR SWAP1 SSTORE POP PUSH1 0x20 DUP3 ADD MLOAD DUP2 PUSH1 0x1 ADD SSTORE PUSH1 0x40 DUP3 ADD MLOAD DUP2 PUSH1 0x2 ADD PUSH1 0x0 PUSH2 0x100 EXP DUP2 SLOAD DUP2 PUSH1 0xFF MUL NOT AND SWAP1 DUP4 PUSH1 0xFF AND MUL OR SWAP1 SSTORE POP PUSH1 0x60 DUP3 ADD MLOAD DUP2 PUSH1 0x2 ADD PUSH1 0x1 PUSH2 0x100 EXP DUP2 SLOAD DUP2 PUSH1 0xFF MUL NOT AND SWAP1 DUP4 PUSH1 0xFF AND MUL OR SWAP1 SSTORE POP PUSH1 0x80 DUP3 ADD MLOAD DUP2 PUSH1 0x3 ADD SSTORE POP POP POP PUSH3 0xCB3 JUMP JUMPDEST CALLER SWAP1 JUMP JUMPDEST PUSH1 0x4 SLOAD SWAP1 JUMP JUMPDEST PUSH1 0x1 PUSH1 0x1 PUSH1 0xA0 SHL SUB DUP3 AND PUSH3 0x787 JUMPI PUSH1 0x40 MLOAD PUSH3 0x461BCD PUSH1 0xE5 SHL DUP2 MSTORE PUSH1 0x4 ADD PUSH3 0x77E SWAP1 PUSH3 0xC3E JUMP JUMPDEST PUSH1 0x40 MLOAD DUP1 SWAP2 SUB SWAP1 REVERT JUMPDEST PUSH1 0x4 SLOAD PUSH3 0x7A6 DUP3 PUSH1 0x3 SLOAD PUSH3 0x874 PUSH1 0x20 SHL PUSH3 0x266D OR SWAP1 SWAP2 SWAP1 PUSH1 0x20 SHR JUMP JUMPDEST LT PUSH3 0x7C6 JUMPI PUSH1 0x40 MLOAD PUSH3 0x461BCD PUSH1 0xE5 SHL DUP2 MSTORE PUSH1 0x4 ADD PUSH3 0x77E SWAP1 PUSH3 0xC75 JUMP JUMPDEST PUSH3 0x7E2 DUP2 PUSH1 0x3 SLOAD PUSH3 0x874 PUSH1 0x20 SHL PUSH3 0x266D OR SWAP1 SWAP2 SWAP1 PUSH1 0x20 SHR JUMP JUMPDEST PUSH1 0x3 SSTORE PUSH1 0x1 PUSH1 0x1 PUSH1 0xA0 SHL SUB DUP3 AND PUSH1 0x0 SWAP1 DUP2 MSTORE PUSH1 0x1 PUSH1 0x20 SWAP1 DUP2 MSTORE PUSH1 0x40 SWAP1 SWAP2 KECCAK256 SLOAD PUSH3 0x817 SWAP2 DUP4 SWAP1 PUSH3 0x266D PUSH3 0x874 DUP3 SHL OR SWAP1 SHR JUMP JUMPDEST PUSH1 0x1 PUSH1 0x1 PUSH1 0xA0 SHL SUB DUP4 AND PUSH1 0x0 DUP2 DUP2 MSTORE PUSH1 0x1 PUSH1 0x20 MSTORE PUSH1 0x40 DUP1 DUP3 KECCAK256 SWAP4 SWAP1 SWAP4 SSTORE SWAP2 MLOAD SWAP1 SWAP2 SWAP1 PUSH32 0xDDF252AD1BE2C89B69C2B068FC378DAA952BA7F163C4A11628F55A4DF523B3EF SWAP1 PUSH3 0x868 SWAP1 DUP6 SWAP1 PUSH3 0xCAA JUMP JUMPDEST PUSH1 0x40 MLOAD DUP1 SWAP2 SUB SWAP1 LOG3 POP POP JUMP JUMPDEST PUSH1 0x0 DUP3 DUP3 ADD DUP4 DUP2 LT ISZERO PUSH3 0x89C JUMPI PUSH1 0x40 MLOAD PUSH3 0x461BCD PUSH1 0xE5 SHL DUP2 MSTORE PUSH1 0x4 ADD PUSH3 0x77E SWAP1 PUSH3 0xC07 JUMP JUMPDEST SWAP4 SWAP3 POP POP POP JUMP JUMPDEST DUP3 DUP1 SLOAD DUP3 DUP3 SSTORE SWAP1 PUSH1 0x0 MSTORE PUSH1 0x20 PUSH1 0x0 KECCAK256 SWAP1 DUP2 ADD SWAP3 DUP3 ISZERO PUSH3 0x8EF JUMPI SWAP2 PUSH1 0x20 MUL DUP3 ADD JUMPDEST DUP3 DUP2 GT ISZERO PUSH3 0x8EF JUMPI DUP3 MLOAD PUSH3 0x8DE SWAP1 DUP4 SWAP1 PUSH1 0x3 PUSH3 0xA7F JUMP JUMPDEST POP SWAP2 PUSH1 0x20 ADD SWAP2 SWAP1 PUSH1 0x1 ADD SWAP1 PUSH3 0x8C4 JUMP JUMPDEST POP PUSH3 0x8FD SWAP3 SWAP2 POP PUSH3 0xB28 JUMP JUMPDEST POP SWAP1 JUMP JUMPDEST DUP3 DUP1 SLOAD DUP3 DUP3 SSTORE SWAP1 PUSH1 0x0 MSTORE PUSH1 0x20 PUSH1 0x0 KECCAK256 SWAP1 DUP2 ADD SWAP3 DUP3 ISZERO PUSH3 0x94D JUMPI SWAP2 PUSH1 0x20 MUL DUP3 ADD JUMPDEST DUP3 DUP2 GT ISZERO PUSH3 0x94D JUMPI DUP3 MLOAD PUSH3 0x93C SWAP1 DUP4 SWAP1 PUSH1 0x4 PUSH3 0x95B JUMP JUMPDEST POP SWAP2 PUSH1 0x20 ADD SWAP2 SWAP1 PUSH1 0x1 ADD SWAP1 PUSH3 0x922 JUMP JUMPDEST POP PUSH3 0x8FD SWAP3 SWAP2 POP PUSH3 0xB49 JUMP JUMPDEST DUP3 DUP1 SLOAD DUP3 DUP3 SSTORE SWAP1 PUSH1 0x0 MSTORE PUSH1 0x20 PUSH1 0x0 KECCAK256 SWAP1 DUP2 ADD SWAP3 DUP3 ISZERO PUSH3 0x999 JUMPI SWAP2 PUSH1 0x20 MUL DUP3 ADD JUMPDEST DUP3 DUP2 GT ISZERO PUSH3 0x999 JUMPI DUP3 MLOAD DUP3 SSTORE SWAP2 PUSH1 0x20 ADD SWAP2 SWAP1 PUSH1 0x1 ADD SWAP1 PUSH3 0x97C JUMP JUMPDEST POP PUSH3 0x8FD SWAP3 SWAP2 POP PUSH3 0xB6A JUMP JUMPDEST DUP3 DUP1 SLOAD DUP3 DUP3 SSTORE SWAP1 PUSH1 0x0 MSTORE PUSH1 0x20 PUSH1 0x0 KECCAK256 SWAP1 DUP2 ADD SWAP3 DUP3 ISZERO PUSH3 0x9FF JUMPI SWAP2 PUSH1 0x20 MUL DUP3 ADD JUMPDEST DUP3 DUP2 GT ISZERO PUSH3 0x9FF JUMPI DUP3 MLOAD DUP3 SLOAD PUSH1 0x1 PUSH1 0x1 PUSH1 0xA0 SHL SUB NOT AND PUSH1 0x1 PUSH1 0x1 PUSH1 0xA0 SHL SUB SWAP1 SWAP2 AND OR DUP3 SSTORE PUSH1 0x20 SWAP1 SWAP3 ADD SWAP2 PUSH1 0x1 SWAP1 SWAP2 ADD SWAP1 PUSH3 0x9C8 JUMP JUMPDEST POP PUSH3 0x8FD SWAP3 SWAP2 POP PUSH3 0xB81 JUMP JUMPDEST DUP3 DUP1 SLOAD PUSH1 0x1 DUP2 PUSH1 0x1 AND ISZERO PUSH2 0x100 MUL SUB AND PUSH1 0x2 SWAP1 DIV SWAP1 PUSH1 0x0 MSTORE PUSH1 0x20 PUSH1 0x0 KECCAK256 SWAP1 PUSH1 0x1F ADD PUSH1 0x20 SWAP1 DIV DUP2 ADD SWAP3 DUP3 PUSH1 0x1F LT PUSH3 0xA50 JUMPI DUP1 MLOAD PUSH1 0xFF NOT AND DUP4 DUP1 ADD OR DUP6 SSTORE PUSH3 0x999 JUMP JUMPDEST DUP3 DUP1 ADD PUSH1 0x1 ADD DUP6 SSTORE DUP3 ISZERO PUSH3 0x999 JUMPI SWAP2 DUP3 ADD DUP3 DUP2 GT ISZERO PUSH3 0x999 JUMPI DUP3 MLOAD DUP3 SSTORE SWAP2 PUSH1 0x20 ADD SWAP2 SWAP1 PUSH1 0x1 ADD SWAP1 PUSH3 0x97C JUMP JUMPDEST DUP3 DUP1 SLOAD DUP3 DUP3 SSTORE SWAP1 PUSH1 0x0 MSTORE PUSH1 0x20 PUSH1 0x0 KECCAK256 SWAP1 PUSH1 0x1F ADD PUSH1 0x20 SWAP1 DIV DUP2 ADD SWAP3 DUP3 ISZERO PUSH3 0xB1A JUMPI SWAP2 PUSH1 0x20 MUL DUP3 ADD PUSH1 0x0 JUMPDEST DUP4 DUP3 GT ISZERO PUSH3 0xAE9 JUMPI DUP4 MLOAD DUP4 DUP3 PUSH2 0x100 EXP DUP2 SLOAD DUP2 PUSH1 0xFF MUL NOT AND SWAP1 DUP4 PUSH1 0xFF AND MUL OR SWAP1 SSTORE POP SWAP3 PUSH1 0x20 ADD SWAP3 PUSH1 0x1 ADD PUSH1 0x20 DUP2 PUSH1 0x0 ADD DIV SWAP3 DUP4 ADD SWAP3 PUSH1 0x1 SUB MUL PUSH3 0xAA9 JUMP JUMPDEST DUP1 ISZERO PUSH3 0xB18 JUMPI DUP3 DUP2 PUSH2 0x100 EXP DUP2 SLOAD SWAP1 PUSH1 0xFF MUL NOT AND SWAP1 SSTORE PUSH1 0x1 ADD PUSH1 0x20 DUP2 PUSH1 0x0 ADD DIV SWAP3 DUP4 ADD SWAP3 PUSH1 0x1 SUB MUL PUSH3 0xAE9 JUMP JUMPDEST POP JUMPDEST POP PUSH3 0x8FD SWAP3 SWAP2 POP PUSH3 0xBA2 JUMP JUMPDEST DUP1 DUP3 GT ISZERO PUSH3 0x8FD JUMPI PUSH1 0x0 PUSH3 0xB3F DUP3 DUP3 PUSH3 0xBBD JUMP JUMPDEST POP PUSH1 0x1 ADD PUSH3 0xB28 JUMP JUMPDEST DUP1 DUP3 GT ISZERO PUSH3 0x8FD JUMPI PUSH1 0x0 PUSH3 0xB60 DUP3 DUP3 PUSH3 0xBE7 JUMP JUMPDEST POP PUSH1 0x1 ADD PUSH3 0xB49 JUMP JUMPDEST JUMPDEST DUP1 DUP3 GT ISZERO PUSH3 0x8FD JUMPI PUSH1 0x0 DUP2 SSTORE PUSH1 0x1 ADD PUSH3 0xB6B JUMP JUMPDEST JUMPDEST DUP1 DUP3 GT ISZERO PUSH3 0x8FD JUMPI DUP1 SLOAD PUSH1 0x1 PUSH1 0x1 PUSH1 0xA0 SHL SUB NOT AND DUP2 SSTORE PUSH1 0x1 ADD PUSH3 0xB82 JUMP JUMPDEST JUMPDEST DUP1 DUP3 GT ISZERO PUSH3 0x8FD JUMPI DUP1 SLOAD PUSH1 0xFF NOT AND DUP2 SSTORE PUSH1 0x1 ADD PUSH3 0xBA3 JUMP JUMPDEST POP DUP1 SLOAD PUSH1 0x0 DUP3 SSTORE PUSH1 0x1F ADD PUSH1 0x20 SWAP1 DIV SWAP1 PUSH1 0x0 MSTORE PUSH1 0x20 PUSH1 0x0 KECCAK256 SWAP1 DUP2 ADD SWAP1 PUSH3 0xBE4 SWAP2 SWAP1 PUSH3 0xB6A JUMP JUMPDEST POP JUMP JUMPDEST POP DUP1 SLOAD PUSH1 0x0 DUP3 SSTORE SWAP1 PUSH1 0x0 MSTORE PUSH1 0x20 PUSH1 0x0 KECCAK256 SWAP1 DUP2 ADD SWAP1 PUSH3 0xBE4 SWAP2 SWAP1 PUSH3 0xB6A JUMP JUMPDEST PUSH1 0x20 DUP1 DUP3 MSTORE PUSH1 0x1B SWAP1 DUP3 ADD MSTORE PUSH32 0x536166654D6174683A206164646974696F6E206F766572666C6F770000000000 PUSH1 0x40 DUP3 ADD MSTORE PUSH1 0x60 ADD SWAP1 JUMP JUMPDEST PUSH1 0x20 DUP1 DUP3 MSTORE PUSH1 0x1F SWAP1 DUP3 ADD MSTORE PUSH32 0x48524332303A206D696E7420746F20746865207A65726F206164647265737300 PUSH1 0x40 DUP3 ADD MSTORE PUSH1 0x60 ADD SWAP1 JUMP JUMPDEST PUSH1 0x20 DUP1 DUP3 MSTORE DUP2 DUP2 ADD MSTORE PUSH32 0x48524332303A20616C72656164792072656163686564206D6178537570706C79 PUSH1 0x40 DUP3 ADD MSTORE PUSH1 0x60 ADD SWAP1 JUMP JUMPDEST SWAP1 DUP2 MSTORE PUSH1 0x20 ADD SWAP1 JUMP JUMPDEST PUSH2 0x5D83 DUP1 PUSH3 0xCC3 PUSH1 0x0 CODECOPY PUSH1 0x0 RETURN INVALID PUSH1 0x80 PUSH1 0x40 MSTORE CALLVALUE DUP1 ISZERO PUSH2 0x10 JUMPI PUSH1 0x0 DUP1 REVERT JUMPDEST POP PUSH1 0x4 CALLDATASIZE LT PUSH2 0x29F JUMPI PUSH1 0x0 CALLDATALOAD PUSH1 0xE0 SHR DUP1 PUSH4 0x893D20E8 GT PUSH2 0x167 JUMPI DUP1 PUSH4 0xCC85F080 GT PUSH2 0xCE JUMPI DUP1 PUSH4 0xED73EE25 GT PUSH2 0x87 JUMPI DUP1 PUSH4 0xED73EE25 EQ PUSH2 0x5A1 JUMPI DUP1 PUSH4 0xF2218F56 EQ PUSH2 0x5A9 JUMPI DUP1 PUSH4 0xF2FDE38B EQ PUSH2 0x5BC JUMPI DUP1 PUSH4 0xF656F562 EQ PUSH2 0x5CF JUMPI DUP1 PUSH4 0xF697DDB2 EQ PUSH2 0x5E2 JUMPI DUP1 PUSH4 0xFD125ECE EQ PUSH2 0x5EA JUMPI PUSH2 0x29F JUMP JUMPDEST DUP1 PUSH4 0xCC85F080 EQ PUSH2 0x525 JUMPI DUP1 PUSH4 0xD5ABEB01 EQ PUSH2 0x549 JUMPI DUP1 PUSH4 0xD96A094A EQ PUSH2 0x551 JUMPI DUP1 PUSH4 0xDD62ED3E EQ PUSH2 0x564 JUMPI DUP1 PUSH4 0xE4849B32 EQ PUSH2 0x577 JUMPI DUP1 PUSH4 0xE87F2CCE EQ PUSH2 0x58A JUMPI PUSH2 0x29F JUMP JUMPDEST DUP1 PUSH4 0xA0712D68 GT PUSH2 0x120 JUMPI DUP1 PUSH4 0xA0712D68 EQ PUSH2 0x4A6 JUMPI DUP1 PUSH4 0xA457C2D7 EQ PUSH2 0x4B9 JUMPI DUP1 PUSH4 0xA7310B58 EQ PUSH2 0x4CC JUMPI DUP1 PUSH4 0xA9059CBB EQ PUSH2 0x4EC JUMPI DUP1 PUSH4 0xBDC42A7A EQ PUSH2 0x4FF JUMPI DUP1 PUSH4 0xC7111063 EQ PUSH2 0x512 JUMPI PUSH2 0x29F JUMP JUMPDEST DUP1 PUSH4 0x893D20E8 EQ PUSH2 0x448 JUMPI DUP1 PUSH4 0x8A43BB01 EQ PUSH2 0x45D JUMPI DUP1 PUSH4 0x8DA5CB5B EQ PUSH2 0x470 JUMPI DUP1 PUSH4 0x95D89B41 EQ PUSH2 0x478 JUMPI DUP1 PUSH4 0x99EB9576 EQ PUSH2 0x480 JUMPI DUP1 PUSH4 0x9BF00117 EQ PUSH2 0x493 JUMPI PUSH2 0x29F JUMP JUMPDEST DUP1 PUSH4 0x36FDDE7C GT PUSH2 0x20B JUMPI DUP1 PUSH4 0x47E7EF24 GT PUSH2 0x1C4 JUMPI DUP1 PUSH4 0x47E7EF24 EQ PUSH2 0x3E7 JUMPI DUP1 PUSH4 0x5DA4C926 EQ PUSH2 0x3FA JUMPI DUP1 PUSH4 0x5EE4462C EQ PUSH2 0x40D JUMPI DUP1 PUSH4 0x6CB44428 EQ PUSH2 0x415 JUMPI DUP1 PUSH4 0x70A08231 EQ PUSH2 0x42D JUMPI DUP1 PUSH4 0x715018A6 EQ PUSH2 0x440 JUMPI PUSH2 0x29F JUMP JUMPDEST DUP1 PUSH4 0x36FDDE7C EQ PUSH2 0x3A1 JUMPI DUP1 PUSH4 0x39509351 EQ PUSH2 0x3A9 JUMPI DUP1 PUSH4 0x39B50688 EQ PUSH2 0x3BC JUMPI DUP1 PUSH4 0x3CCFD60B EQ PUSH2 0x3C4 JUMPI DUP1 PUSH4 0x3EAAF86B EQ PUSH2 0x3CC JUMPI DUP1 PUSH4 0x440565AF EQ PUSH2 0x3D4 JUMPI PUSH2 0x29F JUMP JUMPDEST DUP1 PUSH4 0x18160DDD GT PUSH2 0x25D JUMPI DUP1 PUSH4 0x18160DDD EQ PUSH2 0x357 JUMPI DUP1 PUSH4 0x1E71615B EQ PUSH2 0x35F JUMPI DUP1 PUSH4 0x22F4596F EQ PUSH2 0x367 JUMPI DUP1 PUSH4 0x23B872DD EQ PUSH2 0x36F JUMPI DUP1 PUSH4 0x26C0E5C5 EQ PUSH2 0x382 JUMPI DUP1 PUSH4 0x313CE567 EQ PUSH2 0x38C JUMPI PUSH2 0x29F JUMP JUMPDEST DUP1 PUSH3 0x3F7A89 EQ PUSH2 0x2A4 JUMPI DUP1 PUSH4 0x6FDDE03 EQ PUSH2 0x2CD JUMPI DUP1 PUSH4 0x95EA7B3 EQ PUSH2 0x2E2 JUMPI DUP1 PUSH4 0xE25A441 EQ PUSH2 0x302 JUMPI DUP1 PUSH4 0x15C43AAF EQ PUSH2 0x322 JUMPI DUP1 PUSH4 0x1701A82A EQ PUSH2 0x337 JUMPI JUMPDEST PUSH1 0x0 DUP1 REVERT JUMPDEST PUSH2 0x2B7 PUSH2 0x2B2 CALLDATASIZE PUSH1 0x4 PUSH2 0x5100 JUMP JUMPDEST PUSH2 0x60D JUMP JUMPDEST PUSH1 0x40 MLOAD PUSH2 0x2C4 SWAP2 SWAP1 PUSH2 0x541B JUMP JUMPDEST PUSH1 0x40 MLOAD DUP1 SWAP2 SUB SWAP1 RETURN JUMPDEST PUSH2 0x2D5 PUSH2 0x92A JUMP JUMPDEST PUSH1 0x40 MLOAD PUSH2 0x2C4 SWAP2 SWAP1 PUSH2 0x5537 JUMP JUMPDEST PUSH2 0x2F5 PUSH2 0x2F0 CALLDATASIZE PUSH1 0x4 PUSH2 0x525F JUMP JUMPDEST PUSH2 0x9C0 JUMP JUMPDEST PUSH1 0x40 MLOAD PUSH2 0x2C4 SWAP2 SWAP1 PUSH2 0x5507 JUMP JUMPDEST PUSH2 0x315 PUSH2 0x310 CALLDATASIZE PUSH1 0x4 PUSH2 0x5100 JUMP JUMPDEST PUSH2 0x9DE JUMP JUMPDEST PUSH1 0x40 MLOAD PUSH2 0x2C4 SWAP2 SWAP1 PUSH2 0x5BF3 JUMP JUMPDEST PUSH2 0x32A PUSH2 0xA85 JUMP JUMPDEST PUSH1 0x40 MLOAD PUSH2 0x2C4 SWAP2 SWAP1 PUSH2 0x54B5 JUMP JUMPDEST PUSH2 0x34A PUSH2 0x345 CALLDATASIZE PUSH1 0x4 PUSH2 0x5100 JUMP JUMPDEST PUSH2 0xB24 JUMP JUMPDEST PUSH1 0x40 MLOAD PUSH2 0x2C4 SWAP2 SWAP1 PUSH2 0x5483 JUMP JUMPDEST PUSH2 0x315 PUSH2 0xC99 JUMP JUMPDEST PUSH2 0x2B7 PUSH2 0xC9F JUMP JUMPDEST PUSH2 0x315 PUSH2 0xE4A JUMP JUMPDEST PUSH2 0x2F5 PUSH2 0x37D CALLDATASIZE PUSH1 0x4 PUSH2 0x521F JUMP JUMPDEST PUSH2 0xE50 JUMP JUMPDEST PUSH2 0x38A PUSH2 0xED7 JUMP JUMPDEST STOP JUMPDEST PUSH2 0x394 PUSH2 0xFAC JUMP JUMPDEST PUSH1 0x40 MLOAD PUSH2 0x2C4 SWAP2 SWAP1 PUSH2 0x5C49 JUMP JUMPDEST PUSH2 0x38A PUSH2 0xFB5 JUMP JUMPDEST PUSH2 0x2F5 PUSH2 0x3B7 CALLDATASIZE PUSH1 0x4 PUSH2 0x525F JUMP JUMPDEST PUSH2 0x107D JUMP JUMPDEST PUSH2 0x38A PUSH2 0x10CB JUMP JUMPDEST PUSH2 0x38A PUSH2 0x1356 JUMP JUMPDEST PUSH2 0x315 PUSH2 0x1729 JUMP JUMPDEST PUSH2 0x38A PUSH2 0x3E2 CALLDATASIZE PUSH1 0x4 PUSH2 0x521F JUMP JUMPDEST PUSH2 0x172F JUMP JUMPDEST PUSH2 0x38A PUSH2 0x3F5 CALLDATASIZE PUSH1 0x4 PUSH2 0x525F JUMP JUMPDEST PUSH2 0x1743 JUMP JUMPDEST PUSH2 0x38A PUSH2 0x408 CALLDATASIZE PUSH1 0x4 PUSH2 0x525F JUMP JUMPDEST PUSH2 0x17A7 JUMP JUMPDEST PUSH2 0x38A PUSH2 0x17B5 JUMP JUMPDEST PUSH2 0x41D PUSH2 0x1A00 JUMP JUMPDEST PUSH1 0x40 MLOAD PUSH2 0x2C4 SWAP5 SWAP4 SWAP3 SWAP2 SWAP1 PUSH2 0x5C2E JUMP JUMPDEST PUSH2 0x315 PUSH2 0x43B CALLDATASIZE PUSH1 0x4 PUSH2 0x5100 JUMP JUMPDEST PUSH2 0x1A61 JUMP JUMPDEST PUSH2 0x38A PUSH2 0x1A7C JUMP JUMPDEST PUSH2 0x450 PUSH2 0x1AFB JUMP JUMPDEST PUSH1 0x40 MLOAD PUSH2 0x2C4 SWAP2 SWAP1 PUSH2 0x5368 JUMP JUMPDEST PUSH2 0x38A PUSH2 0x46B CALLDATASIZE PUSH1 0x4 PUSH2 0x525F JUMP JUMPDEST PUSH2 0x1B0A JUMP JUMPDEST PUSH2 0x450 PUSH2 0x1B79 JUMP JUMPDEST PUSH2 0x2D5 PUSH2 0x1B88 JUMP JUMPDEST PUSH2 0x315 PUSH2 0x48E CALLDATASIZE PUSH1 0x4 PUSH2 0x52AA JUMP JUMPDEST PUSH2 0x1BE9 JUMP JUMPDEST PUSH2 0x38A PUSH2 0x4A1 CALLDATASIZE PUSH1 0x4 PUSH2 0x521F JUMP JUMPDEST PUSH2 0x1C04 JUMP JUMPDEST PUSH2 0x2F5 PUSH2 0x4B4 CALLDATASIZE PUSH1 0x4 PUSH2 0x52AA JUMP JUMPDEST PUSH2 0x1C0F JUMP JUMPDEST PUSH2 0x2F5 PUSH2 0x4C7 CALLDATASIZE PUSH1 0x4 PUSH2 0x525F JUMP JUMPDEST PUSH2 0x1C5F JUMP JUMPDEST PUSH2 0x4DF PUSH2 0x4DA CALLDATASIZE PUSH1 0x4 PUSH2 0x5100 JUMP JUMPDEST PUSH2 0x1CC7 JUMP JUMPDEST PUSH1 0x40 MLOAD PUSH2 0x2C4 SWAP2 SWAP1 PUSH2 0x54DE JUMP JUMPDEST PUSH2 0x2F5 PUSH2 0x4FA CALLDATASIZE PUSH1 0x4 PUSH2 0x525F JUMP JUMPDEST PUSH2 0x1E46 JUMP JUMPDEST PUSH2 0x315 PUSH2 0x50D CALLDATASIZE PUSH1 0x4 PUSH2 0x52AA JUMP JUMPDEST PUSH2 0x1E5A JUMP JUMPDEST PUSH2 0x38A PUSH2 0x520 CALLDATASIZE PUSH1 0x4 PUSH2 0x521F JUMP JUMPDEST PUSH2 0x1E65 JUMP JUMPDEST PUSH2 0x538 PUSH2 0x533 CALLDATASIZE PUSH1 0x4 PUSH2 0x5100 JUMP JUMPDEST PUSH2 0x1E71 JUMP JUMPDEST PUSH1 0x40 MLOAD PUSH2 0x2C4 SWAP6 SWAP5 SWAP4 SWAP3 SWAP2 SWAP1 PUSH2 0x5512 JUMP JUMPDEST PUSH2 0x315 PUSH2 0x21FB JUMP JUMPDEST PUSH2 0x38A PUSH2 0x55F CALLDATASIZE PUSH1 0x4 PUSH2 0x52AA JUMP JUMPDEST PUSH2 0x2201 JUMP JUMPDEST PUSH2 0x315 PUSH2 0x572 CALLDATASIZE PUSH1 0x4 PUSH2 0x511C JUMP JUMPDEST PUSH2 0x223D JUMP JUMPDEST PUSH2 0x38A PUSH2 0x585 CALLDATASIZE PUSH1 0x4 PUSH2 0x52AA JUMP JUMPDEST PUSH2 0x2268 JUMP JUMPDEST PUSH2 0x592 PUSH2 0x22A4 JUMP JUMPDEST PUSH1 0x40 MLOAD PUSH2 0x2C4 SWAP4 SWAP3 SWAP2 SWAP1 PUSH2 0x53D8 JUMP JUMPDEST PUSH2 0x38A PUSH2 0x244F JUMP JUMPDEST PUSH2 0x38A PUSH2 0x5B7 CALLDATASIZE PUSH1 0x4 PUSH2 0x5154 JUMP JUMPDEST PUSH2 0x248D JUMP JUMPDEST PUSH2 0x38A PUSH2 0x5CA CALLDATASIZE PUSH1 0x4 PUSH2 0x5100 JUMP JUMPDEST PUSH2 0x250C JUMP JUMPDEST PUSH2 0x38A PUSH2 0x5DD CALLDATASIZE PUSH1 0x4 PUSH2 0x51AF JUMP JUMPDEST PUSH2 0x254A JUMP JUMPDEST PUSH2 0x450 PUSH2 0x25B3 JUMP JUMPDEST PUSH2 0x5FD PUSH2 0x5F8 CALLDATASIZE PUSH1 0x4 PUSH2 0x5100 JUMP JUMPDEST PUSH2 0x25C2 JUMP JUMPDEST PUSH1 0x40 MLOAD PUSH2 0x2C4 SWAP5 SWAP4 SWAP3 SWAP2 SWAP1 PUSH2 0x5BFC JUMP JUMPDEST PUSH1 0x60 PUSH1 0x0 DUP1 JUMPDEST PUSH1 0x51 SLOAD DUP2 LT ISZERO PUSH2 0x667 JUMPI PUSH1 0x0 PUSH1 0x51 DUP3 DUP2 SLOAD DUP2 LT PUSH2 0x62C JUMPI INVALID JUMPDEST PUSH1 0x0 SWAP2 DUP3 MSTORE PUSH1 0x20 SWAP1 SWAP2 KECCAK256 PUSH1 0x4 SWAP1 SWAP2 MUL ADD PUSH1 0x1 DUP2 ADD SLOAD SWAP1 SWAP2 POP PUSH1 0x1 PUSH1 0x1 PUSH1 0xA0 SHL SUB DUP7 DUP2 AND SWAP2 AND EQ ISZERO PUSH2 0x65E JUMPI PUSH1 0x1 SWAP1 SWAP3 ADD SWAP2 JUMPDEST POP PUSH1 0x1 ADD PUSH2 0x613 JUMP JUMPDEST POP PUSH1 0x0 JUMPDEST PUSH1 0x52 SLOAD DUP2 LT ISZERO PUSH2 0x6BF JUMPI PUSH1 0x0 PUSH1 0x52 DUP3 DUP2 SLOAD DUP2 LT PUSH2 0x684 JUMPI INVALID JUMPDEST PUSH1 0x0 SWAP2 DUP3 MSTORE PUSH1 0x20 SWAP1 SWAP2 KECCAK256 PUSH1 0x4 SWAP1 SWAP2 MUL ADD PUSH1 0x1 DUP2 ADD SLOAD SWAP1 SWAP2 POP PUSH1 0x1 PUSH1 0x1 PUSH1 0xA0 SHL SUB DUP7 DUP2 AND SWAP2 AND EQ ISZERO PUSH2 0x6B6 JUMPI PUSH1 0x1 SWAP1 SWAP3 ADD SWAP2 JUMPDEST POP PUSH1 0x1 ADD PUSH2 0x66B JUMP JUMPDEST POP PUSH1 0x60 DUP2 PUSH8 0xFFFFFFFFFFFFFFFF DUP2 GT DUP1 ISZERO PUSH2 0x6D9 JUMPI PUSH1 0x0 DUP1 REVERT JUMPDEST POP PUSH1 0x40 MLOAD SWAP1 DUP1 DUP3 MSTORE DUP1 PUSH1 0x20 MUL PUSH1 0x20 ADD DUP3 ADD PUSH1 0x40 MSTORE DUP1 ISZERO PUSH2 0x713 JUMPI DUP2 PUSH1 0x20 ADD JUMPDEST PUSH2 0x700 PUSH2 0x5004 JUMP JUMPDEST DUP2 MSTORE PUSH1 0x20 ADD SWAP1 PUSH1 0x1 SWAP1 SUB SWAP1 DUP2 PUSH2 0x6F8 JUMPI SWAP1 POP JUMPDEST POP SWAP1 POP PUSH1 0x0 DUP1 JUMPDEST PUSH1 0x51 SLOAD DUP2 LT ISZERO PUSH2 0x81A JUMPI PUSH1 0x0 PUSH1 0x51 DUP3 DUP2 SLOAD DUP2 LT PUSH2 0x733 JUMPI INVALID JUMPDEST PUSH1 0x0 SWAP2 DUP3 MSTORE PUSH1 0x20 SWAP1 SWAP2 KECCAK256 PUSH1 0x4 SWAP1 SWAP2 MUL ADD PUSH1 0x1 DUP2 ADD SLOAD SWAP1 SWAP2 POP PUSH1 0x1 PUSH1 0x1 PUSH1 0xA0 SHL SUB DUP9 DUP2 AND SWAP2 AND EQ ISZERO PUSH2 0x811 JUMPI DUP1 PUSH1 0x0 ADD SLOAD DUP5 DUP5 DUP2 MLOAD DUP2 LT PUSH2 0x76F JUMPI INVALID JUMPDEST PUSH1 0x20 MUL PUSH1 0x20 ADD ADD MLOAD PUSH1 0x0 PUSH1 0x4 DUP2 LT PUSH2 0x783 JUMPI INVALID JUMPDEST PUSH1 0x20 MUL ADD MSTORE DUP4 MLOAD PUSH1 0x0 SWAP1 DUP6 SWAP1 DUP6 SWAP1 DUP2 LT PUSH2 0x799 JUMPI INVALID JUMPDEST PUSH1 0x20 MUL PUSH1 0x20 ADD ADD MLOAD PUSH1 0x1 PUSH1 0x4 DUP2 LT PUSH2 0x7AD JUMPI INVALID JUMPDEST PUSH1 0x20 MUL ADD MSTORE PUSH1 0x2 DUP2 ADD SLOAD DUP5 MLOAD DUP6 SWAP1 DUP6 SWAP1 DUP2 LT PUSH2 0x7C5 JUMPI INVALID JUMPDEST PUSH1 0x20 MUL PUSH1 0x20 ADD ADD MLOAD PUSH1 0x2 PUSH1 0x4 DUP2 LT PUSH2 0x7D9 JUMPI INVALID JUMPDEST PUSH1 0x20 MUL ADD MSTORE PUSH1 0x3 DUP2 ADD SLOAD DUP5 MLOAD DUP6 SWAP1 DUP6 SWAP1 DUP2 LT PUSH2 0x7F1 JUMPI INVALID JUMPDEST PUSH1 0x20 MUL PUSH1 0x20 ADD ADD MLOAD PUSH1 0x3 PUSH1 0x4 DUP2 LT PUSH2 0x805 JUMPI INVALID JUMPDEST PUSH1 0x20 MUL ADD MSTORE PUSH1 0x1 SWAP1 SWAP3 ADD SWAP2 JUMPDEST POP PUSH1 0x1 ADD PUSH2 0x71A JUMP JUMPDEST POP PUSH1 0x0 JUMPDEST PUSH1 0x52 SLOAD DUP2 LT ISZERO PUSH2 0x91E JUMPI PUSH1 0x0 PUSH1 0x52 DUP3 DUP2 SLOAD DUP2 LT PUSH2 0x837 JUMPI INVALID JUMPDEST PUSH1 0x0 SWAP2 DUP3 MSTORE PUSH1 0x20 SWAP1 SWAP2 KECCAK256 PUSH1 0x4 SWAP1 SWAP2 MUL ADD PUSH1 0x1 DUP2 ADD SLOAD SWAP1 SWAP2 POP PUSH1 0x1 PUSH1 0x1 PUSH1 0xA0 SHL SUB DUP9 DUP2 AND SWAP2 AND EQ ISZERO PUSH2 0x915 JUMPI DUP1 PUSH1 0x0 ADD SLOAD DUP5 DUP5 DUP2 MLOAD DUP2 LT PUSH2 0x873 JUMPI INVALID JUMPDEST PUSH1 0x20 MUL PUSH1 0x20 ADD ADD MLOAD PUSH1 0x0 PUSH1 0x4 DUP2 LT PUSH2 0x887 JUMPI INVALID JUMPDEST PUSH1 0x20 MUL ADD MSTORE DUP4 MLOAD PUSH1 0x1 SWAP1 DUP6 SWAP1 DUP6 SWAP1 DUP2 LT PUSH2 0x89D JUMPI INVALID JUMPDEST PUSH1 0x20 MUL PUSH1 0x20 ADD ADD MLOAD PUSH1 0x1 PUSH1 0x4 DUP2 LT PUSH2 0x8B1 JUMPI INVALID JUMPDEST PUSH1 0x20 MUL ADD MSTORE PUSH1 0x2 DUP2 ADD SLOAD DUP5 MLOAD DUP6 SWAP1 DUP6 SWAP1 DUP2 LT PUSH2 0x8C9 JUMPI INVALID JUMPDEST PUSH1 0x20 MUL PUSH1 0x20 ADD ADD MLOAD PUSH1 0x2 PUSH1 0x4 DUP2 LT PUSH2 0x8DD JUMPI INVALID JUMPDEST PUSH1 0x20 MUL ADD MSTORE PUSH1 0x3 DUP2 ADD SLOAD DUP5 MLOAD DUP6 SWAP1 DUP6 SWAP1 DUP2 LT PUSH2 0x8F5 JUMPI INVALID JUMPDEST PUSH1 0x20 MUL PUSH1 0x20 ADD ADD MLOAD PUSH1 0x3 PUSH1 0x4 DUP2 LT PUSH2 0x909 JUMPI INVALID JUMPDEST PUSH1 0x20 MUL ADD MSTORE PUSH1 0x1 SWAP1 SWAP3 ADD SWAP2 JUMPDEST POP PUSH1 0x1 ADD PUSH2 0x81E JUMP JUMPDEST POP SWAP1 SWAP3 POP POP POP JUMPDEST SWAP2 SWAP1 POP JUMP JUMPDEST PUSH1 0x5 DUP1 SLOAD PUSH1 0x40 DUP1 MLOAD PUSH1 0x20 PUSH1 0x1F PUSH1 0x2 PUSH1 0x0 NOT PUSH2 0x100 PUSH1 0x1 DUP9 AND ISZERO MUL ADD SWAP1 SWAP6 AND SWAP5 SWAP1 SWAP5 DIV SWAP4 DUP5 ADD DUP2 SWAP1 DIV DUP2 MUL DUP3 ADD DUP2 ADD SWAP1 SWAP3 MSTORE DUP3 DUP2 MSTORE PUSH1 0x60 SWAP4 SWAP1 SWAP3 SWAP1 SWAP2 DUP4 ADD DUP3 DUP3 DUP1 ISZERO PUSH2 0x9B6 JUMPI DUP1 PUSH1 0x1F LT PUSH2 0x98B JUMPI PUSH2 0x100 DUP1 DUP4 SLOAD DIV MUL DUP4 MSTORE SWAP2 PUSH1 0x20 ADD SWAP2 PUSH2 0x9B6 JUMP JUMPDEST DUP3 ADD SWAP2 SWAP1 PUSH1 0x0 MSTORE PUSH1 0x20 PUSH1 0x0 KECCAK256 SWAP1 JUMPDEST DUP2 SLOAD DUP2 MSTORE SWAP1 PUSH1 0x1 ADD SWAP1 PUSH1 0x20 ADD DUP1 DUP4 GT PUSH2 0x999 JUMPI DUP3 SWAP1 SUB PUSH1 0x1F AND DUP3 ADD SWAP2 JUMPDEST POP POP POP POP POP SWAP1 POP SWAP1 JUMP JUMPDEST PUSH1 0x0 PUSH2 0x9D4 PUSH2 0x9CD PUSH2 0x2699 JUMP JUMPDEST DUP5 DUP5 PUSH2 0x269D JUMP JUMPDEST POP PUSH1 0x1 JUMPDEST SWAP3 SWAP2 POP POP JUMP JUMPDEST PUSH1 0xE SLOAD PUSH1 0x0 SWAP1 PUSH1 0x1 PUSH1 0x1 PUSH1 0xA0 SHL SUB DUP4 DUP2 AND SWAP2 AND EQ DUP1 PUSH2 0xA0A JUMPI POP PUSH1 0x12 SLOAD PUSH1 0x1 PUSH1 0x1 PUSH1 0xA0 SHL SUB DUP4 DUP2 AND SWAP2 AND EQ JUMPDEST DUP1 PUSH2 0xA22 JUMPI POP PUSH1 0xA SLOAD PUSH1 0x1 PUSH1 0x1 PUSH1 0xA0 SHL SUB DUP4 DUP2 AND SWAP2 AND EQ JUMPDEST ISZERO PUSH2 0xA2F JUMPI POP PUSH1 0x0 PUSH2 0x925 JUMP JUMPDEST PUSH2 0xA37 PUSH2 0xFAC JUMP JUMPDEST PUSH1 0x1 PUSH1 0x1 PUSH1 0xA0 SHL SUB DUP4 AND PUSH1 0x0 SWAP1 DUP2 MSTORE PUSH1 0x49 PUSH1 0x20 MSTORE PUSH1 0x40 SWAP1 KECCAK256 PUSH1 0x1 ADD SLOAD PUSH1 0xFF SWAP2 SWAP1 SWAP2 AND PUSH1 0xA EXP SWAP1 PUSH2 0x3E9 PUSH1 0x1 PUSH1 0x20 SHL SWAP1 SWAP2 DIV PUSH2 0xFFFF AND LT PUSH2 0xA78 JUMPI PUSH1 0x2 PUSH2 0xA7B JUMP JUMPDEST PUSH1 0x5 JUMPDEST PUSH1 0xFF AND MUL SWAP3 SWAP2 POP POP JUMP JUMPDEST PUSH2 0xA8D PUSH2 0x5022 JUMP JUMPDEST PUSH1 0x40 MLOAD DUP1 PUSH2 0x1A0 ADD PUSH1 0x40 MSTORE DUP1 PUSH1 0x17 SLOAD DUP2 MSTORE PUSH1 0x20 ADD PUSH1 0x1C SLOAD DUP2 MSTORE PUSH1 0x20 ADD PUSH1 0x4C SLOAD DUP2 MSTORE PUSH1 0x20 ADD PUSH1 0x3 SLOAD DUP2 MSTORE PUSH1 0x20 ADD PUSH1 0x19 SLOAD DUP2 MSTORE PUSH1 0x20 ADD PUSH1 0x1D SLOAD DUP2 MSTORE PUSH1 0x20 ADD PUSH2 0xAD1 PUSH2 0x2751 JUMP JUMPDEST DUP2 MSTORE PUSH1 0x20 ADD PUSH1 0x58 SLOAD DUP2 MSTORE PUSH1 0x20 ADD PUSH1 0x57 SLOAD DUP2 MSTORE PUSH1 0x20 ADD PUSH2 0xAF0 PUSH1 0x0 PUSH2 0x276E JUMP JUMPDEST DUP2 MSTORE PUSH1 0x20 ADD PUSH2 0xAFF PUSH1 0x1 PUSH2 0x276E JUMP JUMPDEST DUP2 MSTORE PUSH1 0x20 ADD PUSH2 0xB0E PUSH1 0x2 PUSH2 0x276E JUMP JUMPDEST DUP2 MSTORE PUSH1 0x20 ADD PUSH2 0xB1D PUSH1 0x3 PUSH2 0x276E JUMP JUMPDEST SWAP1 MSTORE SWAP1 POP SWAP1 JUMP JUMPDEST PUSH2 0xB2C PUSH2 0x5041 JUMP JUMPDEST PUSH1 0x1 PUSH1 0x1 PUSH1 0xA0 SHL SUB DUP3 AND PUSH1 0x0 SWAP1 DUP2 MSTORE PUSH1 0x56 PUSH1 0x20 MSTORE PUSH1 0x40 DUP2 KECCAK256 DUP1 SLOAD SWAP1 SWAP2 SWAP1 DUP2 DUP1 JUMPDEST DUP5 SLOAD DUP2 LT ISZERO PUSH2 0xB9A JUMPI PUSH1 0x55 PUSH1 0x0 DUP7 DUP4 DUP2 SLOAD DUP2 LT PUSH2 0xB65 JUMPI INVALID JUMPDEST PUSH1 0x0 SWAP2 DUP3 MSTORE PUSH1 0x20 DUP1 DUP4 KECCAK256 SWAP1 SWAP2 ADD SLOAD PUSH1 0x1 PUSH1 0x1 PUSH1 0xA0 SHL SUB AND DUP4 MSTORE DUP3 ADD SWAP3 SWAP1 SWAP3 MSTORE PUSH1 0x40 ADD SWAP1 KECCAK256 PUSH1 0x2 ADD SLOAD SWAP4 SWAP1 SWAP4 ADD SWAP3 PUSH1 0x1 ADD PUSH2 0xB4C JUMP JUMPDEST POP PUSH1 0x1 PUSH1 0x1 PUSH1 0xA0 SHL SUB DUP7 AND PUSH1 0x0 SWAP1 DUP2 MSTORE PUSH1 0x55 PUSH1 0x20 MSTORE PUSH1 0x40 SWAP1 KECCAK256 PUSH1 0x3 DUP2 ADD SLOAD ISZERO PUSH2 0xBEB JUMPI DUP1 SLOAD PUSH2 0xBE6 JUMPI PUSH2 0x2580 DUP2 PUSH1 0x3 ADD SLOAD NUMBER SUB LT PUSH2 0xBD9 JUMPI PUSH1 0x0 PUSH2 0xBDC JUMP JUMPDEST PUSH1 0x1 JUMPDEST PUSH1 0xFF AND SWAP2 POP PUSH2 0xBEB JUMP JUMPDEST PUSH1 0x1 SWAP2 POP JUMPDEST PUSH1 0x0 DUP1 PUSH2 0xBF7 DUP10 PUSH2 0x2813 JUMP JUMPDEST SWAP2 POP SWAP2 POP PUSH1 0x0 PUSH1 0x57 SLOAD PUSH1 0x0 EQ ISZERO PUSH2 0xC0F JUMPI PUSH1 0x0 PUSH2 0xC2C JUMP JUMPDEST PUSH1 0x57 SLOAD PUSH2 0x7080 MUL PUSH1 0x9 SLOAD DUP6 PUSH1 0x2 ADD SLOAD PUSH2 0xBB80 MUL MUL DUP2 PUSH2 0xC2A JUMPI INVALID JUMPDEST DIV JUMPDEST PUSH1 0x40 DUP1 MLOAD PUSH2 0x160 DUP2 ADD DUP3 MSTORE PUSH1 0x2 DUP8 ADD SLOAD DUP2 MSTORE PUSH1 0x20 DUP2 ADD SWAP3 SWAP1 SWAP3 MSTORE DUP6 SLOAD SWAP1 DUP3 ADD MSTORE PUSH1 0x60 DUP2 ADD SWAP7 SWAP1 SWAP7 MSTORE POP PUSH1 0x80 DUP6 ADD SWAP6 SWAP1 SWAP6 MSTORE PUSH1 0xA0 DUP5 ADD SWAP3 SWAP1 SWAP3 MSTORE PUSH1 0x3 DUP2 ADD SLOAD PUSH1 0xC0 DUP5 ADD MSTORE PUSH1 0x6 DUP2 ADD SLOAD PUSH1 0xE0 DUP5 ADD MSTORE PUSH1 0x4 ADD SLOAD PUSH2 0x100 DUP4 ADD MSTORE PUSH2 0x120 DUP3 ADD MSTORE PUSH2 0x140 DUP2 ADD SWAP2 SWAP1 SWAP2 MSTORE SWAP4 SWAP3 POP POP POP JUMP JUMPDEST PUSH1 0x3 SLOAD SWAP1 JUMP JUMPDEST PUSH1 0x60 PUSH1 0x0 PUSH1 0xA PUSH1 0x53 DUP1 SLOAD SWAP1 POP GT PUSH2 0xCB8 JUMPI PUSH1 0x53 SLOAD PUSH2 0xCBB JUMP JUMPDEST PUSH1 0xA JUMPDEST SWAP1 POP PUSH1 0x60 DUP2 PUSH8 0xFFFFFFFFFFFFFFFF DUP2 GT DUP1 ISZERO PUSH2 0xCD6 JUMPI PUSH1 0x0 DUP1 REVERT JUMPDEST POP PUSH1 0x40 MLOAD SWAP1 DUP1 DUP3 MSTORE DUP1 PUSH1 0x20 MUL PUSH1 0x20 ADD DUP3 ADD PUSH1 0x40 MSTORE DUP1 ISZERO PUSH2 0xD10 JUMPI DUP2 PUSH1 0x20 ADD JUMPDEST PUSH2 0xCFD PUSH2 0x5004 JUMP JUMPDEST DUP2 MSTORE PUSH1 0x20 ADD SWAP1 PUSH1 0x1 SWAP1 SUB SWAP1 DUP2 PUSH2 0xCF5 JUMPI SWAP1 POP JUMPDEST POP SWAP1 POP PUSH1 0x0 JUMPDEST DUP3 DUP2 LT ISZERO PUSH2 0xE43 JUMPI PUSH1 0x53 DUP1 SLOAD PUSH1 0x0 SWAP2 SWAP1 DUP6 DUP2 SUB DUP5 ADD SWAP1 DUP2 LT PUSH2 0xD34 JUMPI INVALID JUMPDEST SWAP1 PUSH1 0x0 MSTORE PUSH1 0x20 PUSH1 0x0 KECCAK256 ADD SWAP1 POP DUP1 PUSH1 0x0 DUP2 SLOAD DUP2 LT PUSH2 0xD4D JUMPI INVALID JUMPDEST SWAP1 PUSH1 0x0 MSTORE PUSH1 0x20 PUSH1 0x0 KECCAK256 ADD SLOAD DUP4 DUP4 DUP2 MLOAD DUP2 LT PUSH2 0xD64 JUMPI INVALID JUMPDEST PUSH1 0x20 MUL PUSH1 0x20 ADD ADD MLOAD PUSH1 0x0 PUSH1 0x4 DUP2 LT PUSH2 0xD78 JUMPI INVALID JUMPDEST PUSH1 0x20 MUL ADD MSTORE DUP1 SLOAD DUP2 SWAP1 PUSH1 0x1 SWAP1 DUP2 LT PUSH2 0xD8C JUMPI INVALID JUMPDEST SWAP1 PUSH1 0x0 MSTORE PUSH1 0x20 PUSH1 0x0 KECCAK256 ADD SLOAD DUP4 DUP4 DUP2 MLOAD DUP2 LT PUSH2 0xDA3 JUMPI INVALID JUMPDEST PUSH1 0x20 MUL PUSH1 0x20 ADD ADD MLOAD PUSH1 0x1 PUSH1 0x4 DUP2 LT PUSH2 0xDB7 JUMPI INVALID JUMPDEST PUSH1 0x20 MUL ADD MSTORE DUP1 SLOAD DUP2 SWAP1 PUSH1 0x2 SWAP1 DUP2 LT PUSH2 0xDCB JUMPI INVALID JUMPDEST SWAP1 PUSH1 0x0 MSTORE PUSH1 0x20 PUSH1 0x0 KECCAK256 ADD SLOAD DUP4 DUP4 DUP2 MLOAD DUP2 LT PUSH2 0xDE2 JUMPI INVALID JUMPDEST PUSH1 0x20 MUL PUSH1 0x20 ADD ADD MLOAD PUSH1 0x2 PUSH1 0x4 DUP2 LT PUSH2 0xDF6 JUMPI INVALID JUMPDEST PUSH1 0x20 MUL ADD MSTORE DUP1 SLOAD DUP2 SWAP1 PUSH1 0x3 SWAP1 DUP2 LT PUSH2 0xE0A JUMPI INVALID JUMPDEST SWAP1 PUSH1 0x0 MSTORE PUSH1 0x20 PUSH1 0x0 KECCAK256 ADD SLOAD DUP4 DUP4 DUP2 MLOAD DUP2 LT PUSH2 0xE21 JUMPI INVALID JUMPDEST PUSH1 0x20 MUL PUSH1 0x20 ADD ADD MLOAD PUSH1 0x3 PUSH1 0x4 DUP2 LT PUSH2 0xE35 JUMPI INVALID JUMPDEST PUSH1 0x20 MUL ADD MSTORE POP PUSH1 0x1 ADD PUSH2 0xD16 JUMP JUMPDEST POP SWAP2 POP POP SWAP1 JUMP JUMPDEST PUSH1 0x4 SLOAD DUP2 JUMP JUMPDEST PUSH1 0x0 PUSH2 0xE5D DUP5 DUP5 DUP5 PUSH2 0x2894 JUMP JUMPDEST PUSH2 0xECD DUP5 PUSH2 0xE69 PUSH2 0x2699 JUMP JUMPDEST PUSH2 0xEC8 DUP6 PUSH1 0x40 MLOAD DUP1 PUSH1 0x60 ADD PUSH1 0x40 MSTORE DUP1 PUSH1 0x28 DUP2 MSTORE PUSH1 0x20 ADD PUSH2 0x5D04 PUSH1 0x28 SWAP2 CODECOPY PUSH1 0x1 PUSH1 0x1 PUSH1 0xA0 SHL SUB DUP11 AND PUSH1 0x0 SWAP1 DUP2 MSTORE PUSH1 0x2 PUSH1 0x20 MSTORE PUSH1 0x40 DUP2 KECCAK256 SWAP1 PUSH2 0xEA7 PUSH2 0x2699 JUMP JUMPDEST PUSH1 0x1 PUSH1 0x1 PUSH1 0xA0 SHL SUB AND DUP2 MSTORE PUSH1 0x20 DUP2 ADD SWAP2 SWAP1 SWAP2 MSTORE PUSH1 0x40 ADD PUSH1 0x0 KECCAK256 SLOAD SWAP2 SWAP1 PUSH2 0x299E JUMP JUMPDEST PUSH2 0x269D JUMP JUMPDEST POP PUSH1 0x1 SWAP4 SWAP3 POP POP POP JUMP JUMPDEST PUSH1 0x0 PUSH2 0xEE1 PUSH2 0x2699 JUMP JUMPDEST SWAP1 POP PUSH1 0x1 PUSH1 0x1 PUSH1 0xA0 SHL SUB DUP2 AND PUSH2 0xF12 JUMPI PUSH1 0x40 MLOAD PUSH3 0x461BCD PUSH1 0xE5 SHL DUP2 MSTORE PUSH1 0x4 ADD PUSH2 0xF09 SWAP1 PUSH2 0x5828 JUMP JUMPDEST PUSH1 0x40 MLOAD DUP1 SWAP2 SUB SWAP1 REVERT JUMPDEST PUSH1 0x1 PUSH1 0x1 PUSH1 0xA0 SHL SUB DUP2 AND PUSH1 0x0 SWAP1 DUP2 MSTORE PUSH1 0x55 PUSH1 0x20 MSTORE PUSH1 0x40 DUP2 KECCAK256 SWAP1 PUSH2 0xF34 DUP4 PUSH2 0x2813 JUMP JUMPDEST SWAP2 POP POP PUSH1 0x0 DUP2 GT PUSH2 0xF57 JUMPI PUSH1 0x40 MLOAD PUSH3 0x461BCD PUSH1 0xE5 SHL DUP2 MSTORE PUSH1 0x4 ADD PUSH2 0xF09 SWAP1 PUSH2 0x5828 JUMP JUMPDEST PUSH1 0x1B SLOAD DUP2 PUSH1 0x5A SLOAD ADD GT ISZERO PUSH2 0xF7D JUMPI PUSH1 0x40 MLOAD PUSH3 0x461BCD PUSH1 0xE5 SHL DUP2 MSTORE PUSH1 0x4 ADD PUSH2 0xF09 SWAP1 PUSH2 0x5BB5 JUMP JUMPDEST PUSH1 0x0 PUSH1 0x3 DUP4 ADD DUP2 SWAP1 SSTORE PUSH1 0x4 DUP4 ADD DUP1 SLOAD DUP4 ADD SWAP1 SSTORE PUSH1 0x5 DUP4 ADD SSTORE PUSH1 0x5A DUP1 SLOAD DUP3 ADD SWAP1 SSTORE PUSH2 0xFA7 DUP4 DUP3 PUSH2 0x29CA JUMP JUMPDEST POP POP POP JUMP JUMPDEST PUSH1 0x7 SLOAD PUSH1 0xFF AND SWAP1 JUMP JUMPDEST PUSH1 0x1E SLOAD PUSH1 0x1D SLOAD TIMESTAMP SUB LT PUSH2 0x107B JUMPI PUSH1 0x14 PUSH1 0x1C SLOAD PUSH1 0x20 SLOAD PUSH2 0x3E8 MUL DUP2 PUSH2 0xFD5 JUMPI INVALID JUMPDEST DIV LT ISZERO PUSH2 0x106C JUMPI PUSH1 0x1E SLOAD PUSH1 0x1D SLOAD ADD PUSH1 0x1F SSTORE PUSH1 0x0 PUSH2 0xFF0 PUSH2 0x2751 JUMP JUMPDEST SWAP1 POP PUSH1 0x64 PUSH1 0x14 DUP3 MUL DIV PUSH2 0xDAC PUSH1 0x50 DUP4 MUL DIV PUSH1 0x0 JUMPDEST PUSH1 0x45 SLOAD DUP2 LT ISZERO PUSH2 0x1067 JUMPI PUSH1 0x0 PUSH1 0x49 PUSH1 0x0 PUSH1 0x21 DUP5 PUSH1 0x24 DUP2 LT PUSH2 0x1021 JUMPI INVALID JUMPDEST ADD SLOAD PUSH1 0x1 PUSH1 0x1 PUSH1 0xA0 SHL SUB AND DUP2 MSTORE PUSH1 0x20 DUP2 ADD SWAP2 SWAP1 SWAP2 MSTORE PUSH1 0x40 ADD PUSH1 0x0 KECCAK256 PUSH1 0x1F SLOAD PUSH1 0x1 ADD PUSH1 0x6 DUP3 ADD SSTORE SWAP1 POP PUSH1 0x23 DUP3 EQ PUSH2 0x1057 JUMPI DUP3 PUSH2 0x1059 JUMP JUMPDEST DUP4 JUMPDEST PUSH1 0xB SWAP1 SWAP2 ADD SSTORE PUSH1 0x1 ADD PUSH2 0x1004 JUMP JUMPDEST POP POP POP POP JUMPDEST TIMESTAMP PUSH1 0x1D SSTORE PUSH1 0x0 PUSH1 0x20 DUP2 SWAP1 SSTORE PUSH1 0x45 SSTORE JUMPDEST JUMP JUMPDEST PUSH1 0x0 PUSH2 0x9D4 PUSH2 0x108A PUSH2 0x2699 JUMP JUMPDEST DUP5 PUSH2 0xEC8 DUP6 PUSH1 0x2 PUSH1 0x0 PUSH2 0x109B PUSH2 0x2699 JUMP JUMPDEST PUSH1 0x1 PUSH1 0x1 PUSH1 0xA0 SHL SUB SWAP1 DUP2 AND DUP3 MSTORE PUSH1 0x20 DUP1 DUP4 ADD SWAP4 SWAP1 SWAP4 MSTORE PUSH1 0x40 SWAP2 DUP3 ADD PUSH1 0x0 SWAP1 DUP2 KECCAK256 SWAP2 DUP13 AND DUP2 MSTORE SWAP3 MSTORE SWAP1 KECCAK256 SLOAD SWAP1 PUSH2 0x266D JUMP JUMPDEST PUSH1 0x0 PUSH2 0x10D5 PUSH2 0x2699 JUMP JUMPDEST SWAP1 POP PUSH1 0x1 PUSH1 0x1 PUSH1 0xA0 SHL SUB DUP2 AND PUSH2 0x10FD JUMPI PUSH1 0x40 MLOAD PUSH3 0x461BCD PUSH1 0xE5 SHL DUP2 MSTORE PUSH1 0x4 ADD PUSH2 0xF09 SWAP1 PUSH2 0x5828 JUMP JUMPDEST PUSH1 0x0 DUP1 PUSH1 0x0 JUMPDEST PUSH1 0x52 SLOAD DUP2 LT ISZERO PUSH2 0x12A8 JUMPI PUSH1 0x0 PUSH1 0x52 DUP3 DUP2 SLOAD DUP2 LT PUSH2 0x111C JUMPI INVALID JUMPDEST PUSH1 0x0 SWAP2 DUP3 MSTORE PUSH1 0x20 SWAP1 SWAP2 KECCAK256 PUSH1 0x4 SWAP1 SWAP2 MUL ADD PUSH1 0x1 DUP2 ADD SLOAD SWAP1 SWAP2 POP PUSH1 0x1 PUSH1 0x1 PUSH1 0xA0 SHL SUB DUP7 DUP2 AND SWAP2 AND EQ ISZERO PUSH2 0x115B JUMPI PUSH1 0x3 ADD SLOAD PUSH1 0x1 SWAP1 SWAP4 ADD SWAP3 SWAP2 SWAP1 SWAP2 ADD SWAP1 PUSH2 0x12A0 JUMP JUMPDEST DUP4 ISZERO PUSH2 0x129E JUMPI PUSH1 0x52 DUP3 DUP2 SLOAD DUP2 LT PUSH2 0x116E JUMPI INVALID JUMPDEST SWAP1 PUSH1 0x0 MSTORE PUSH1 0x20 PUSH1 0x0 KECCAK256 SWAP1 PUSH1 0x4 MUL ADD PUSH1 0x0 ADD SLOAD PUSH1 0x52 DUP6 DUP5 SUB DUP2 SLOAD DUP2 LT PUSH2 0x118F JUMPI INVALID JUMPDEST PUSH1 0x0 SWAP2 DUP3 MSTORE PUSH1 0x20 SWAP1 SWAP2 KECCAK256 PUSH1 0x4 SWAP1 SWAP2 MUL ADD SSTORE PUSH1 0x52 DUP1 SLOAD DUP4 SWAP1 DUP2 LT PUSH2 0x11AE JUMPI INVALID JUMPDEST SWAP1 PUSH1 0x0 MSTORE PUSH1 0x20 PUSH1 0x0 KECCAK256 SWAP1 PUSH1 0x4 MUL ADD PUSH1 0x1 ADD PUSH1 0x0 SWAP1 SLOAD SWAP1 PUSH2 0x100 EXP SWAP1 DIV PUSH1 0x1 PUSH1 0x1 PUSH1 0xA0 SHL SUB AND PUSH1 0x52 DUP6 DUP5 SUB DUP2 SLOAD DUP2 LT PUSH2 0x11E2 JUMPI INVALID JUMPDEST SWAP1 PUSH1 0x0 MSTORE PUSH1 0x20 PUSH1 0x0 KECCAK256 SWAP1 PUSH1 0x4 MUL ADD PUSH1 0x1 ADD PUSH1 0x0 PUSH2 0x100 EXP DUP2 SLOAD DUP2 PUSH1 0x1 PUSH1 0x1 PUSH1 0xA0 SHL SUB MUL NOT AND SWAP1 DUP4 PUSH1 0x1 PUSH1 0x1 PUSH1 0xA0 SHL SUB AND MUL OR SWAP1 SSTORE POP PUSH1 0x52 DUP3 DUP2 SLOAD DUP2 LT PUSH2 0x1224 JUMPI INVALID JUMPDEST SWAP1 PUSH1 0x0 MSTORE PUSH1 0x20 PUSH1 0x0 KECCAK256 SWAP1 PUSH1 0x4 MUL ADD PUSH1 0x2 ADD SLOAD PUSH1 0x52 DUP6 DUP5 SUB DUP2 SLOAD DUP2 LT PUSH2 0x1245 JUMPI INVALID JUMPDEST SWAP1 PUSH1 0x0 MSTORE PUSH1 0x20 PUSH1 0x0 KECCAK256 SWAP1 PUSH1 0x4 MUL ADD PUSH1 0x2 ADD DUP2 SWAP1 SSTORE POP PUSH1 0x52 DUP3 DUP2 SLOAD DUP2 LT PUSH2 0x1267 JUMPI INVALID JUMPDEST SWAP1 PUSH1 0x0 MSTORE PUSH1 0x20 PUSH1 0x0 KECCAK256 SWAP1 PUSH1 0x4 MUL ADD PUSH1 0x3 ADD SLOAD PUSH1 0x52 DUP6 DUP5 SUB DUP2 SLOAD DUP2 LT PUSH2 0x1288 JUMPI INVALID JUMPDEST SWAP1 PUSH1 0x0 MSTORE PUSH1 0x20 PUSH1 0x0 KECCAK256 SWAP1 PUSH1 0x4 MUL ADD PUSH1 0x3 ADD DUP2 SWAP1 SSTORE POP JUMPDEST POP JUMPDEST PUSH1 0x1 ADD PUSH2 0x1103 JUMP JUMPDEST POP DUP2 ISZERO PUSH2 0x134E JUMPI PUSH1 0x0 JUMPDEST DUP3 DUP2 LT ISZERO PUSH2 0x1308 JUMPI PUSH1 0x52 DUP1 SLOAD DUP1 PUSH2 0x12C5 JUMPI INVALID JUMPDEST PUSH1 0x0 DUP3 DUP2 MSTORE PUSH1 0x20 DUP2 KECCAK256 PUSH1 0x4 PUSH1 0x0 NOT SWAP1 SWAP4 ADD SWAP3 DUP4 MUL ADD DUP2 DUP2 SSTORE PUSH1 0x1 DUP2 DUP2 ADD DUP1 SLOAD PUSH1 0x1 PUSH1 0x1 PUSH1 0xA0 SHL SUB NOT AND SWAP1 SSTORE PUSH1 0x2 DUP3 ADD DUP4 SWAP1 SSTORE PUSH1 0x3 SWAP1 SWAP2 ADD SWAP2 SWAP1 SWAP2 SSTORE SWAP2 SSTORE ADD PUSH2 0x12B2 JUMP JUMPDEST POP PUSH2 0x1314 ADDRESS DUP5 DUP4 PUSH2 0x2894 JUMP JUMPDEST PUSH32 0xA21A2A879C924A525CD3D043187D43E34B2573D79532750B8792307A7C2FEADB DUP4 DUP3 PUSH1 0x40 MLOAD PUSH2 0x1345 SWAP3 SWAP2 SWAP1 PUSH2 0x53A0 JUMP JUMPDEST PUSH1 0x40 MLOAD DUP1 SWAP2 SUB SWAP1 LOG1 JUMPDEST PUSH2 0xFA7 PUSH2 0x2AAB JUMP JUMPDEST PUSH1 0x0 PUSH2 0x1360 PUSH2 0x2699 JUMP JUMPDEST SWAP1 POP PUSH1 0x1 PUSH1 0x1 PUSH1 0xA0 SHL SUB DUP2 AND PUSH2 0x1388 JUMPI PUSH1 0x40 MLOAD PUSH3 0x461BCD PUSH1 0xE5 SHL DUP2 MSTORE PUSH1 0x4 ADD PUSH2 0xF09 SWAP1 PUSH2 0x5828 JUMP JUMPDEST PUSH1 0x0 DUP1 PUSH1 0x0 DUP1 PUSH1 0x0 PUSH2 0x1399 DUP7 PUSH2 0x1E71 JUMP JUMPDEST SWAP5 POP SWAP5 POP SWAP5 POP SWAP5 POP SWAP5 POP DUP5 ISZERO PUSH2 0x13C1 JUMPI PUSH1 0x40 MLOAD PUSH3 0x461BCD PUSH1 0xE5 SHL DUP2 MSTORE PUSH1 0x4 ADD PUSH2 0xF09 SWAP1 PUSH2 0x571B JUMP JUMPDEST PUSH1 0xA SLOAD PUSH1 0x1 PUSH1 0x1 PUSH1 0xA0 SHL SUB DUP8 DUP2 AND SWAP2 AND EQ ISZERO PUSH2 0x13ED JUMPI PUSH1 0x0 PUSH1 0xB SSTORE PUSH1 0xC DUP1 SLOAD DUP3 ADD SWAP1 SSTORE TIMESTAMP PUSH1 0xD SSTORE PUSH2 0x16CF JUMP JUMPDEST PUSH1 0xE SLOAD PUSH1 0x1 PUSH1 0x1 PUSH1 0xA0 SHL SUB DUP8 DUP2 AND SWAP2 AND EQ ISZERO PUSH2 0x1419 JUMPI PUSH1 0x0 PUSH1 0xF SSTORE PUSH1 0x10 DUP1 SLOAD DUP3 ADD SWAP1 SSTORE TIMESTAMP PUSH1 0x11 SSTORE PUSH2 0x16CF JUMP JUMPDEST PUSH1 0x12 SLOAD PUSH1 0x1 PUSH1 0x1 PUSH1 0xA0 SHL SUB DUP8 DUP2 AND SWAP2 AND EQ ISZERO PUSH2 0x1445 JUMPI PUSH1 0x0 PUSH1 0x13 SSTORE PUSH1 0x14 DUP1 SLOAD DUP3 ADD SWAP1 SSTORE TIMESTAMP PUSH1 0x15 SSTORE PUSH2 0x16CF JUMP JUMPDEST PUSH1 0x1 PUSH1 0x1 PUSH1 0xA0 SHL SUB DUP7 AND PUSH1 0x0 SWAP1 DUP2 MSTORE PUSH1 0x49 PUSH1 0x20 MSTORE PUSH1 0x40 SWAP1 KECCAK256 PUSH1 0xA DUP2 ADD SLOAD ISZERO PUSH2 0x16CD JUMPI PUSH1 0x3 DUP2 ADD DUP1 SLOAD DUP4 ADD SWAP1 SSTORE TIMESTAMP PUSH1 0x6 DUP3 ADD SSTORE PUSH1 0x0 PUSH1 0x7 DUP3 ADD DUP2 SWAP1 SSTORE PUSH1 0x8 DUP3 ADD DUP2 SWAP1 SSTORE PUSH1 0xB DUP3 ADD DUP2 SWAP1 SSTORE PUSH1 0x1 DUP3 ADD SLOAD DUP6 DUP8 ADD SWAP2 SWAP1 PUSH1 0x2 SWAP1 DUP4 SWAP1 PUSH1 0x5 PUSH1 0x1 PUSH1 0x20 SHL SWAP1 SWAP2 DIV PUSH2 0xFFFF AND LT PUSH2 0x14B6 JUMPI DUP7 PUSH2 0x14B9 JUMP JUMPDEST PUSH1 0x0 JUMPDEST ADD DUP2 PUSH2 0x14C1 JUMPI INVALID JUMPDEST DIV SWAP1 POP DUP1 DUP4 PUSH1 0xA ADD SLOAD GT ISZERO PUSH2 0x1573 JUMPI PUSH1 0xA DUP4 ADD DUP1 SLOAD DUP3 SWAP1 SUB SWAP1 DUP2 SWAP1 SSTORE PUSH1 0x0 SWAP1 PUSH2 0x14E9 SWAP1 PUSH2 0x2B95 JUMP JUMPDEST PUSH1 0x1 DUP6 ADD SLOAD SWAP1 SWAP2 POP PUSH1 0xFF DUP1 DUP4 AND PUSH1 0x1 PUSH1 0x38 SHL SWAP1 SWAP3 DIV AND EQ PUSH2 0x1561 JUMPI DUP1 DUP5 PUSH1 0x1 ADD PUSH1 0x7 PUSH2 0x100 EXP DUP2 SLOAD DUP2 PUSH1 0xFF MUL NOT AND SWAP1 DUP4 PUSH1 0xFF AND MUL OR SWAP1 SSTORE POP PUSH2 0x3E8 PUSH1 0x4A PUSH1 0x1 DUP4 SUB PUSH1 0xFF AND DUP2 SLOAD DUP2 LT PUSH2 0x1537 JUMPI INVALID JUMPDEST SWAP1 PUSH1 0x0 MSTORE PUSH1 0x20 PUSH1 0x0 KECCAK256 SWAP1 PUSH1 0x4 MUL ADD PUSH1 0x3 ADD SLOAD DUP6 PUSH1 0xA ADD SLOAD MUL DUP2 PUSH2 0x1556 JUMPI INVALID JUMPDEST DIV PUSH1 0x9 DUP6 ADD SSTORE PUSH2 0x156D JUMP JUMPDEST PUSH1 0x9 DUP5 ADD DUP1 SLOAD DUP4 SWAP1 SUB SWAP1 SSTORE JUMPDEST POP PUSH2 0x1591 JUMP JUMPDEST PUSH1 0x1 DUP4 ADD DUP1 SLOAD PUSH1 0xFF PUSH1 0x38 SHL NOT AND SWAP1 SSTORE PUSH1 0x0 PUSH1 0xA DUP5 ADD DUP2 SWAP1 SSTORE PUSH1 0x9 DUP5 ADD SSTORE JUMPDEST PUSH1 0x1 DUP4 ADD SLOAD PUSH2 0x3E7 PUSH1 0x1 PUSH1 0x20 SHL SWAP1 SWAP2 DIV PUSH2 0xFFFF AND LT ISZERO PUSH2 0x16BA JUMPI PUSH1 0x1 DUP4 ADD SLOAD PUSH1 0x18 SLOAD PUSH2 0x3E8 PUSH1 0x4B DUP6 MUL DIV SWAP2 PUSH4 0xFFFFFFFF SWAP1 DUP2 AND PUSH3 0xF4240 SUB SWAP2 DUP3 DUP3 AND PUSH1 0x1 PUSH1 0x20 SHL SWAP1 SWAP2 DIV SWAP1 SWAP2 AND GT ISZERO PUSH2 0x1613 JUMPI PUSH4 0xFFFFFFFF DUP2 AND PUSH1 0x0 SWAP1 DUP2 MSTORE PUSH1 0x48 PUSH1 0x20 SWAP1 DUP2 MSTORE PUSH1 0x40 DUP1 DUP4 KECCAK256 SLOAD PUSH1 0x1 PUSH1 0x1 PUSH1 0xA0 SHL SUB AND DUP4 MSTORE PUSH1 0x49 SWAP1 SWAP2 MSTORE SWAP1 KECCAK256 PUSH1 0xB ADD DUP1 SLOAD DUP4 ADD SWAP1 SSTORE JUMPDEST POP PUSH1 0x40 DUP1 MLOAD PUSH1 0x60 DUP2 ADD DUP3 MSTORE TIMESTAMP DUP2 MSTORE PUSH1 0x20 DUP2 ADD SWAP3 DUP4 MSTORE PUSH1 0x0 SWAP2 DUP2 ADD DUP3 DUP2 MSTORE PUSH1 0x50 DUP1 SLOAD PUSH1 0x1 DUP2 ADD DUP3 SSTORE SWAP4 MSTORE SWAP1 MLOAD PUSH32 0x5529612556959EF813DBE8D0ED29336AB75E80A9B7855030760B2917B01E568A PUSH1 0x3 SWAP1 SWAP4 MUL SWAP3 DUP4 ADD SSTORE SWAP2 MLOAD PUSH32 0x5529612556959EF813DBE8D0ED29336AB75E80A9B7855030760B2917B01E568B DUP3 ADD SSTORE SWAP1 MLOAD PUSH32 0x5529612556959EF813DBE8D0ED29336AB75E80A9B7855030760B2917B01E568C SWAP1 SWAP2 ADD SSTORE PUSH2 0x16CA JUMP JUMPDEST PUSH1 0x4C DUP1 SLOAD PUSH2 0x3E8 PUSH1 0x96 DUP6 MUL DIV ADD SWAP1 SSTORE JUMPDEST POP POP JUMPDEST POP JUMPDEST DUP1 ISZERO PUSH2 0x1719 JUMPI PUSH1 0x7 SLOAD PUSH2 0x16F1 SWAP1 PUSH2 0x100 SWAP1 DIV PUSH1 0x1 PUSH1 0x1 PUSH1 0xA0 SHL SUB AND DUP8 DUP4 PUSH2 0x2BE3 JUMP JUMPDEST PUSH1 0x0 PUSH2 0x16FC DUP8 PUSH2 0x9DE JUMP JUMPDEST SWAP1 POP DUP1 ISZERO PUSH2 0x1717 JUMPI PUSH2 0x170E DUP8 DUP3 PUSH2 0x2CD1 JUMP JUMPDEST PUSH1 0x19 DUP1 SLOAD DUP3 ADD SWAP1 SSTORE JUMPDEST POP JUMPDEST PUSH2 0x1721 PUSH2 0x2AAB JUMP JUMPDEST POP POP POP POP POP POP JUMP JUMPDEST PUSH1 0x3 SLOAD DUP2 JUMP JUMPDEST PUSH2 0x173A DUP4 DUP4 DUP4 PUSH2 0x2D9B JUMP JUMPDEST PUSH2 0xFA7 DUP4 PUSH2 0x301D JUMP JUMPDEST PUSH1 0x0 PUSH2 0x174D PUSH2 0x2699 JUMP JUMPDEST SWAP1 POP PUSH1 0x1 PUSH1 0x1 PUSH1 0xA0 SHL SUB DUP2 AND PUSH2 0x1775 JUMPI PUSH1 0x40 MLOAD PUSH3 0x461BCD PUSH1 0xE5 SHL DUP2 MSTORE PUSH1 0x4 ADD PUSH2 0xF09 SWAP1 PUSH2 0x5828 JUMP JUMPDEST PUSH1 0x1 PUSH1 0x1 PUSH1 0xA0 SHL SUB DUP4 AND PUSH2 0x179B JUMPI PUSH1 0x40 MLOAD PUSH3 0x461BCD PUSH1 0xE5 SHL DUP2 MSTORE PUSH1 0x4 ADD PUSH2 0xF09 SWAP1 PUSH2 0x55C7 JUMP JUMPDEST PUSH2 0xFA7 DUP2 DUP5 DUP5 TIMESTAMP PUSH2 0x335A JUMP JUMPDEST PUSH2 0x17B1 DUP3 DUP3 PUSH2 0x29CA JUMP JUMPDEST POP POP JUMP JUMPDEST PUSH1 0x0 PUSH2 0x17BF PUSH2 0x2699 JUMP JUMPDEST SWAP1 POP PUSH1 0x1 PUSH1 0x1 PUSH1 0xA0 SHL SUB DUP2 AND PUSH2 0x17E7 JUMPI PUSH1 0x40 MLOAD PUSH3 0x461BCD PUSH1 0xE5 SHL DUP2 MSTORE PUSH1 0x4 ADD PUSH2 0xF09 SWAP1 PUSH2 0x5828 JUMP JUMPDEST PUSH1 0x0 DUP1 PUSH1 0x0 JUMPDEST PUSH1 0x51 SLOAD DUP2 LT ISZERO PUSH2 0x1952 JUMPI PUSH1 0x0 PUSH1 0x51 DUP3 DUP2 SLOAD DUP2 LT PUSH2 0x1806 JUMPI INVALID JUMPDEST PUSH1 0x0 SWAP2 DUP3 MSTORE PUSH1 0x20 SWAP1 SWAP2 KECCAK256 PUSH1 0x4 SWAP1 SWAP2 MUL ADD PUSH1 0x1 DUP2 ADD SLOAD SWAP1 SWAP2 POP PUSH1 0x1 PUSH1 0x1 PUSH1 0xA0 SHL SUB DUP7 DUP2 AND SWAP2 AND EQ ISZERO PUSH2 0x1845 JUMPI PUSH1 0x3 ADD SLOAD PUSH1 0x1 SWAP1 SWAP4 ADD SWAP3 SWAP2 SWAP1 SWAP2 ADD SWAP1 PUSH2 0x194A JUMP JUMPDEST DUP4 ISZERO PUSH2 0x1948 JUMPI PUSH1 0x51 DUP3 DUP2 SLOAD DUP2 LT PUSH2 0x1858 JUMPI INVALID JUMPDEST SWAP1 PUSH1 0x0 MSTORE PUSH1 0x20 PUSH1 0x0 KECCAK256 SWAP1 PUSH1 0x4 MUL ADD PUSH1 0x1 ADD PUSH1 0x0 SWAP1 SLOAD SWAP1 PUSH2 0x100 EXP SWAP1 DIV PUSH1 0x1 PUSH1 0x1 PUSH1 0xA0 SHL SUB AND PUSH1 0x51 DUP6 DUP5 SUB DUP2 SLOAD DUP2 LT PUSH2 0x188C JUMPI INVALID JUMPDEST SWAP1 PUSH1 0x0 MSTORE PUSH1 0x20 PUSH1 0x0 KECCAK256 SWAP1 PUSH1 0x4 MUL ADD PUSH1 0x1 ADD PUSH1 0x0 PUSH2 0x100 EXP DUP2 SLOAD DUP2 PUSH1 0x1 PUSH1 0x1 PUSH1 0xA0 SHL SUB MUL NOT AND SWAP1 DUP4 PUSH1 0x1 PUSH1 0x1 PUSH1 0xA0 SHL SUB AND MUL OR SWAP1 SSTORE POP PUSH1 0x51 DUP3 DUP2 SLOAD DUP2 LT PUSH2 0x18CE JUMPI INVALID JUMPDEST SWAP1 PUSH1 0x0 MSTORE PUSH1 0x20 PUSH1 0x0 KECCAK256 SWAP1 PUSH1 0x4 MUL ADD PUSH1 0x2 ADD SLOAD PUSH1 0x51 DUP6 DUP5 SUB DUP2 SLOAD DUP2 LT PUSH2 0x18EF JUMPI INVALID JUMPDEST SWAP1 PUSH1 0x0 MSTORE PUSH1 0x20 PUSH1 0x0 KECCAK256 SWAP1 PUSH1 0x4 MUL ADD PUSH1 0x2 ADD DUP2 SWAP1 SSTORE POP PUSH1 0x51 DUP3 DUP2 SLOAD DUP2 LT PUSH2 0x1911 JUMPI INVALID JUMPDEST SWAP1 PUSH1 0x0 MSTORE PUSH1 0x20 PUSH1 0x0 KECCAK256 SWAP1 PUSH1 0x4 MUL ADD PUSH1 0x3 ADD SLOAD PUSH1 0x51 DUP6 DUP5 SUB DUP2 SLOAD DUP2 LT PUSH2 0x1932 JUMPI INVALID JUMPDEST SWAP1 PUSH1 0x0 MSTORE PUSH1 0x20 PUSH1 0x0 KECCAK256 SWAP1 PUSH1 0x4 MUL ADD PUSH1 0x3 ADD DUP2 SWAP1 SSTORE POP JUMPDEST POP JUMPDEST PUSH1 0x1 ADD PUSH2 0x17ED JUMP JUMPDEST POP DUP2 ISZERO PUSH2 0x134E JUMPI PUSH1 0x0 JUMPDEST DUP3 DUP2 LT ISZERO PUSH2 0x19B2 JUMPI PUSH1 0x51 DUP1 SLOAD DUP1 PUSH2 0x196F JUMPI INVALID JUMPDEST PUSH1 0x0 DUP3 DUP2 MSTORE PUSH1 0x20 DUP2 KECCAK256 PUSH1 0x4 PUSH1 0x0 NOT SWAP1 SWAP4 ADD SWAP3 DUP4 MUL ADD DUP2 DUP2 SSTORE PUSH1 0x1 DUP2 DUP2 ADD DUP1 SLOAD PUSH1 0x1 PUSH1 0x1 PUSH1 0xA0 SHL SUB NOT AND SWAP1 SSTORE PUSH1 0x2 DUP3 ADD DUP4 SWAP1 SSTORE PUSH1 0x3 SWAP1 SWAP2 ADD SWAP2 SWAP1 SWAP2 SSTORE SWAP2 SSTORE ADD PUSH2 0x195C JUMP JUMPDEST POP PUSH1 0x7 SLOAD PUSH2 0x19CF SWAP1 PUSH2 0x100 SWAP1 DIV PUSH1 0x1 PUSH1 0x1 PUSH1 0xA0 SHL SUB AND DUP5 DUP4 PUSH2 0x2BE3 JUMP JUMPDEST PUSH32 0x866CB17A996E44FAD30A4450E43850706BFA73CBC9CC00561C44CD87E9F1503F DUP4 DUP3 PUSH1 0x40 MLOAD PUSH2 0x1345 SWAP3 SWAP2 SWAP1 PUSH2 0x53A0 JUMP JUMPDEST PUSH1 0x0 DUP1 DUP1 DUP1 CALLER PUSH2 0x1A0E PUSH2 0x1B79 JUMP JUMPDEST PUSH1 0x1 PUSH1 0x1 PUSH1 0xA0 SHL SUB AND EQ PUSH2 0x1A34 JUMPI PUSH1 0x40 MLOAD PUSH3 0x461BCD PUSH1 0xE5 SHL DUP2 MSTORE PUSH1 0x4 ADD PUSH2 0xF09 SWAP1 PUSH2 0x59B7 JUMP JUMPDEST POP POP PUSH1 0x18 SLOAD PUSH1 0x1B SLOAD PUSH1 0x1F SLOAD PUSH1 0x1 PUSH1 0x40 SHL DUP4 DIV PUSH2 0xFFFF AND SWAP6 PUSH1 0x1 PUSH1 0x20 SHL SWAP1 SWAP4 DIV PUSH4 0xFFFFFFFF AND SWAP5 POP SWAP1 SWAP3 POP SWAP1 JUMP JUMPDEST PUSH1 0x1 PUSH1 0x1 PUSH1 0xA0 SHL SUB AND PUSH1 0x0 SWAP1 DUP2 MSTORE PUSH1 0x1 PUSH1 0x20 MSTORE PUSH1 0x40 SWAP1 KECCAK256 SLOAD SWAP1 JUMP JUMPDEST PUSH2 0x1A84 PUSH2 0x2699 JUMP JUMPDEST PUSH1 0x0 SLOAD PUSH1 0x1 PUSH1 0x1 PUSH1 0xA0 SHL SUB SWAP1 DUP2 AND SWAP2 AND EQ PUSH2 0x1AB1 JUMPI PUSH1 0x40 MLOAD PUSH3 0x461BCD PUSH1 0xE5 SHL DUP2 MSTORE PUSH1 0x4 ADD PUSH2 0xF09 SWAP1 PUSH2 0x59B7 JUMP JUMPDEST PUSH1 0x0 DUP1 SLOAD PUSH1 0x40 MLOAD PUSH1 0x1 PUSH1 0x1 PUSH1 0xA0 SHL SUB SWAP1 SWAP2 AND SWAP1 PUSH32 0x8BE0079C531659141344CD1FD0A4F28419497F9722A3DAAFE3B4186F6B6457E0 SWAP1 DUP4 SWAP1 LOG3 PUSH1 0x0 DUP1 SLOAD PUSH1 0x1 PUSH1 0x1 PUSH1 0xA0 SHL SUB NOT AND SWAP1 SSTORE JUMP JUMPDEST PUSH1 0x0 PUSH2 0x1B05 PUSH2 0x1B79 JUMP JUMPDEST SWAP1 POP SWAP1 JUMP JUMPDEST PUSH1 0x0 PUSH2 0x1B14 PUSH2 0x2699 JUMP JUMPDEST SWAP1 POP PUSH1 0x1 PUSH1 0x1 PUSH1 0xA0 SHL SUB DUP2 AND PUSH2 0x1B3C JUMPI PUSH1 0x40 MLOAD PUSH3 0x461BCD PUSH1 0xE5 SHL DUP2 MSTORE PUSH1 0x4 ADD PUSH2 0xF09 SWAP1 PUSH2 0x55F7 JUMP JUMPDEST DUP3 PUSH1 0x1 PUSH1 0x1 PUSH1 0xA0 SHL SUB AND DUP2 PUSH1 0x1 PUSH1 0x1 PUSH1 0xA0 SHL SUB AND EQ ISZERO PUSH2 0x1B6E JUMPI PUSH1 0x40 MLOAD PUSH3 0x461BCD PUSH1 0xE5 SHL DUP2 MSTORE PUSH1 0x4 ADD PUSH2 0xF09 SWAP1 PUSH2 0x5AAB JUMP JUMPDEST PUSH2 0xFA7 DUP2 DUP5 DUP5 PUSH2 0x2D9B JUMP JUMPDEST PUSH1 0x0 SLOAD PUSH1 0x1 PUSH1 0x1 PUSH1 0xA0 SHL SUB AND SWAP1 JUMP JUMPDEST PUSH1 0x6 DUP1 SLOAD PUSH1 0x40 DUP1 MLOAD PUSH1 0x20 PUSH1 0x1F PUSH1 0x2 PUSH1 0x0 NOT PUSH2 0x100 PUSH1 0x1 DUP9 AND ISZERO MUL ADD SWAP1 SWAP6 AND SWAP5 SWAP1 SWAP5 DIV SWAP4 DUP5 ADD DUP2 SWAP1 DIV DUP2 MUL DUP3 ADD DUP2 ADD SWAP1 SWAP3 MSTORE DUP3 DUP2 MSTORE PUSH1 0x60 SWAP4 SWAP1 SWAP3 SWAP1 SWAP2 DUP4 ADD DUP3 DUP3 DUP1 ISZERO PUSH2 0x9B6 JUMPI DUP1 PUSH1 0x1F LT PUSH2 0x98B JUMPI PUSH2 0x100 DUP1 DUP4 SLOAD DIV MUL DUP4 MSTORE SWAP2 PUSH1 0x20 ADD SWAP2 PUSH2 0x9B6 JUMP JUMPDEST PUSH1 0x0 PUSH1 0x17 SLOAD PUSH1 0xA MUL PUSH1 0x9 SLOAD DUP4 MUL DUP2 PUSH2 0x1BFD JUMPI INVALID JUMPDEST DIV SWAP3 SWAP2 POP POP JUMP JUMPDEST PUSH2 0xFA7 DUP4 DUP4 DUP4 PUSH2 0x269D JUMP JUMPDEST PUSH1 0x0 PUSH2 0x1C19 PUSH2 0x2699 JUMP JUMPDEST PUSH1 0x0 SLOAD PUSH1 0x1 PUSH1 0x1 PUSH1 0xA0 SHL SUB SWAP1 DUP2 AND SWAP2 AND EQ PUSH2 0x1C46 JUMPI PUSH1 0x40 MLOAD PUSH3 0x461BCD PUSH1 0xE5 SHL DUP2 MSTORE PUSH1 0x4 ADD PUSH2 0xF09 SWAP1 PUSH2 0x59B7 JUMP JUMPDEST PUSH2 0x1C57 PUSH2 0x1C51 PUSH2 0x2699 JUMP JUMPDEST DUP4 PUSH2 0x29CA JUMP JUMPDEST POP PUSH1 0x1 SWAP2 SWAP1 POP JUMP JUMPDEST PUSH1 0x0 PUSH2 0x9D4 PUSH2 0x1C6C PUSH2 0x2699 JUMP JUMPDEST DUP5 PUSH2 0xEC8 DUP6 PUSH1 0x40 MLOAD DUP1 PUSH1 0x60 ADD PUSH1 0x40 MSTORE DUP1 PUSH1 0x25 DUP2 MSTORE PUSH1 0x20 ADD PUSH2 0x5CDF PUSH1 0x25 SWAP2 CODECOPY PUSH1 0x2 PUSH1 0x0 PUSH2 0x1C96 PUSH2 0x2699 JUMP JUMPDEST PUSH1 0x1 PUSH1 0x1 PUSH1 0xA0 SHL SUB SWAP1 DUP2 AND DUP3 MSTORE PUSH1 0x20 DUP1 DUP4 ADD SWAP4 SWAP1 SWAP4 MSTORE PUSH1 0x40 SWAP2 DUP3 ADD PUSH1 0x0 SWAP1 DUP2 KECCAK256 SWAP2 DUP14 AND DUP2 MSTORE SWAP3 MSTORE SWAP1 KECCAK256 SLOAD SWAP2 SWAP1 PUSH2 0x299E JUMP JUMPDEST PUSH2 0x1CCF PUSH2 0x5060 JUMP JUMPDEST PUSH1 0x1 PUSH1 0x1 PUSH1 0xA0 SHL SUB DUP3 AND PUSH2 0x1CF5 JUMPI PUSH1 0x40 MLOAD PUSH3 0x461BCD PUSH1 0xE5 SHL DUP2 MSTORE PUSH1 0x4 ADD PUSH2 0xF09 SWAP1 PUSH2 0x5A82 JUMP JUMPDEST PUSH1 0x0 DUP1 PUSH1 0x0 DUP1 PUSH1 0x0 DUP1 PUSH1 0x0 DUP1 PUSH2 0x1D0A DUP11 PUSH2 0x1A61 JUMP JUMPDEST PUSH1 0xA SLOAD SWAP1 SWAP2 POP PUSH1 0x1 PUSH1 0x1 PUSH1 0xA0 SHL SUB DUP12 DUP2 AND SWAP2 AND EQ ISZERO PUSH2 0x1D75 JUMPI PUSH1 0xC SLOAD PUSH1 0x47 SLOAD SWAP1 SWAP7 POP PUSH1 0x0 SWAP1 DUP2 SWAP1 PUSH2 0x1D45 SWAP1 PUSH1 0x1 PUSH1 0x1 PUSH1 0xA0 SHL SUB AND PUSH1 0x1 PUSH2 0x3BE9 JUMP JUMPDEST PUSH1 0x47 SLOAD PUSH1 0x1 PUSH1 0x1 PUSH1 0xA0 SHL SUB AND PUSH1 0x0 SWAP1 DUP2 MSTORE PUSH1 0x49 PUSH1 0x20 MSTORE PUSH1 0x40 SWAP1 KECCAK256 PUSH1 0x2 ADD SLOAD PUSH1 0x1 SWAP1 SWAP3 ADD SWAP7 POP ADD SWAP4 POP PUSH2 0x1E02 SWAP2 POP POP JUMP JUMPDEST PUSH1 0xE SLOAD PUSH1 0x1 PUSH1 0x1 PUSH1 0xA0 SHL SUB DUP12 DUP2 AND SWAP2 AND EQ ISZERO PUSH2 0x1D95 JUMPI PUSH1 0xC SLOAD SWAP6 POP PUSH2 0x1E02 JUMP JUMPDEST PUSH1 0x12 SLOAD PUSH1 0x1 PUSH1 0x1 PUSH1 0xA0 SHL SUB DUP12 DUP2 AND SWAP2 AND EQ ISZERO PUSH2 0x1DB5 JUMPI PUSH1 0xC SLOAD SWAP6 POP PUSH2 0x1E02 JUMP JUMPDEST PUSH1 0x1 PUSH1 0x1 PUSH1 0xA0 SHL SUB DUP11 AND PUSH1 0x0 SWAP1 DUP2 MSTORE PUSH1 0x49 PUSH1 0x20 MSTORE PUSH1 0x40 DUP2 KECCAK256 DUP1 SLOAD PUSH1 0x5 DUP3 ADD SLOAD PUSH1 0x3 DUP4 ADD SLOAD PUSH1 0x2 DUP5 ADD SLOAD PUSH1 0x9 DUP6 ADD SLOAD SWAP4 SWAP14 POP SWAP12 POP SWAP10 POP SWAP1 SWAP8 POP SWAP6 POP SWAP1 PUSH2 0x1DFB SWAP1 DUP13 SWAP1 PUSH2 0x3BE9 JUMP JUMPDEST SWAP1 SWAP5 POP SWAP3 POP POP JUMPDEST PUSH1 0x40 DUP1 MLOAD PUSH2 0x100 DUP2 ADD DUP3 MSTORE SWAP9 DUP10 MSTORE PUSH1 0x20 DUP10 ADD SWAP2 SWAP1 SWAP2 MSTORE DUP8 ADD SWAP3 SWAP1 SWAP3 MSTORE PUSH1 0x60 DUP7 ADD SWAP5 SWAP1 SWAP5 MSTORE PUSH1 0x80 DUP6 ADD SWAP3 SWAP1 SWAP3 MSTORE PUSH1 0xA0 DUP5 ADD MSTORE PUSH1 0xC0 DUP4 ADD SWAP2 SWAP1 SWAP2 MSTORE PUSH1 0xE0 DUP3 ADD MSTORE SWAP3 SWAP2 POP POP JUMP JUMPDEST PUSH1 0x0 PUSH2 0x9D4 PUSH2 0x1E53 PUSH2 0x2699 JUMP JUMPDEST DUP5 DUP5 PUSH2 0x2894 JUMP JUMPDEST PUSH1 0x0 PUSH2 0x9D8 DUP3 PUSH2 0x276E JUMP JUMPDEST PUSH2 0xFA7 DUP4 DUP4 DUP4 TIMESTAMP PUSH2 0x335A JUMP JUMPDEST PUSH1 0xA SLOAD PUSH1 0x0 SWAP1 DUP2 SWAP1 DUP2 SWAP1 DUP2 SWAP1 DUP2 SWAP1 DUP2 SWAP1 DUP2 SWAP1 DUP2 SWAP1 DUP2 SWAP1 DUP2 SWAP1 PUSH1 0x1 PUSH1 0x1 PUSH1 0xA0 SHL SUB DUP13 DUP2 AND SWAP2 AND EQ ISZERO PUSH2 0x1F54 JUMPI PUSH1 0x47 SLOAD PUSH1 0x1 PUSH1 0x1 PUSH1 0xA0 SHL SUB AND PUSH1 0x0 SWAP1 DUP2 MSTORE PUSH1 0x49 PUSH1 0x20 MSTORE PUSH1 0x40 DUP2 KECCAK256 PUSH1 0x46 DUP1 SLOAD SWAP2 SWAP3 PUSH2 0x3E8 SWAP3 PUSH2 0x1EC6 JUMPI INVALID JUMPDEST SWAP1 PUSH1 0x0 MSTORE PUSH1 0x20 PUSH1 0x0 KECCAK256 ADD PUSH1 0x2 DUP2 SLOAD DUP2 LT PUSH2 0x1EDC JUMPI INVALID JUMPDEST SWAP1 PUSH1 0x0 MSTORE PUSH1 0x20 PUSH1 0x0 KECCAK256 SWAP1 PUSH1 0x20 SWAP2 DUP3 DUP3 DIV ADD SWAP2 SWAP1 MOD SWAP1 SLOAD SWAP1 PUSH2 0x100 EXP SWAP1 DIV PUSH1 0xFF AND PUSH1 0xFF AND PUSH2 0x1F0D DUP4 DUP5 PUSH1 0x6 ADD SLOAD PUSH2 0x3CC1 JUMP JUMPDEST MUL DUP2 PUSH2 0x1F15 JUMPI INVALID JUMPDEST DIV PUSH1 0xA PUSH1 0x1 ADD SLOAD ADD SWAP2 POP PUSH2 0x1F27 PUSH2 0x507F JUMP JUMPDEST PUSH1 0x47 SLOAD PUSH1 0x6 DUP4 ADD SLOAD PUSH2 0x1F46 SWAP2 PUSH1 0x1 PUSH1 0x1 PUSH1 0xA0 SHL SUB AND SWAP1 PUSH1 0x1 PUSH1 0x13 PUSH2 0x3D6A JUMP JUMPDEST PUSH1 0x40 ADD MLOAD SWAP5 POP PUSH2 0x21E9 SWAP2 POP POP JUMP JUMPDEST PUSH1 0xE SLOAD PUSH1 0x1 PUSH1 0x1 PUSH1 0xA0 SHL SUB DUP13 DUP2 AND SWAP2 AND EQ ISZERO PUSH2 0x1F73 JUMPI POP PUSH1 0xF SLOAD PUSH2 0x21E9 JUMP JUMPDEST PUSH1 0x12 SLOAD PUSH1 0x1 PUSH1 0x1 PUSH1 0xA0 SHL SUB DUP13 DUP2 AND SWAP2 AND EQ ISZERO PUSH2 0x1F92 JUMPI POP PUSH1 0x13 SLOAD PUSH2 0x21E9 JUMP JUMPDEST PUSH1 0x1 PUSH1 0x1 PUSH1 0xA0 SHL SUB DUP12 AND PUSH1 0x0 SWAP1 DUP2 MSTORE PUSH1 0x49 PUSH1 0x20 MSTORE PUSH1 0x40 SWAP1 KECCAK256 PUSH1 0x1F SLOAD PUSH1 0x6 DUP3 ADD SLOAD LT SWAP6 POP DUP6 ISZERO PUSH2 0x1FD3 JUMPI PUSH1 0x40 MLOAD PUSH3 0x461BCD PUSH1 0xE5 SHL DUP2 MSTORE PUSH1 0x4 ADD PUSH2 0xF09 SWAP1 PUSH2 0x5778 JUMP JUMPDEST PUSH1 0x1 DUP2 ADD SLOAD PUSH1 0x1 PUSH1 0x38 SHL SWAP1 DIV PUSH1 0xFF AND PUSH2 0x1FFE JUMPI PUSH1 0x40 MLOAD PUSH3 0x461BCD PUSH1 0xE5 SHL DUP2 MSTORE PUSH1 0x4 ADD PUSH2 0xF09 SWAP1 PUSH2 0x5A55 JUMP JUMPDEST DUP1 PUSH1 0xB ADD SLOAD SWAP3 POP PUSH1 0x0 PUSH1 0x4A PUSH1 0x1 DUP4 PUSH1 0x1 ADD PUSH1 0x7 SWAP1 SLOAD SWAP1 PUSH2 0x100 EXP SWAP1 DIV PUSH1 0xFF AND SUB PUSH1 0xFF AND DUP2 SLOAD DUP2 LT PUSH2 0x202B JUMPI INVALID JUMPDEST SWAP1 PUSH1 0x0 MSTORE PUSH1 0x20 PUSH1 0x0 KECCAK256 SWAP1 PUSH1 0x4 MUL ADD SWAP1 POP PUSH2 0x2043 PUSH2 0x507F JUMP JUMPDEST PUSH2 0x20AA DUP15 DUP5 PUSH1 0x6 ADD SLOAD PUSH1 0x0 PUSH1 0x46 DUP7 PUSH1 0x2 ADD PUSH1 0x1 SWAP1 SLOAD SWAP1 PUSH2 0x100 EXP SWAP1 DIV PUSH1 0xFF AND PUSH1 0xFF AND DUP2 SLOAD DUP2 LT PUSH2 0x206F JUMPI INVALID JUMPDEST SWAP1 PUSH1 0x0 MSTORE PUSH1 0x20 PUSH1 0x0 KECCAK256 ADD PUSH1 0x1 DUP2 SLOAD DUP2 LT PUSH2 0x2085 JUMPI INVALID JUMPDEST PUSH1 0x0 SWAP2 DUP3 MSTORE PUSH1 0x20 SWAP2 DUP3 SWAP1 KECCAK256 SWAP2 DUP2 DIV SWAP1 SWAP2 ADD SLOAD PUSH1 0xFF PUSH1 0x1F SWAP1 SWAP3 AND PUSH2 0x100 EXP SWAP1 DIV AND PUSH2 0x3D6A JUMP JUMPDEST SWAP1 POP PUSH2 0x20BA DUP4 DUP5 PUSH1 0x6 ADD SLOAD PUSH2 0x3CC1 JUMP JUMPDEST PUSH1 0x40 DUP3 ADD MLOAD PUSH1 0x1 DUP6 ADD SLOAD SWAP2 SWAP9 POP SWAP7 POP PUSH2 0x3E6 PUSH1 0x1 PUSH1 0x20 SHL SWAP1 SWAP2 DIV PUSH2 0xFFFF AND GT DUP1 ISZERO PUSH2 0x20F6 JUMPI POP PUSH1 0x1 DUP4 ADD SLOAD PUSH2 0x3EA PUSH1 0x1 PUSH1 0x20 SHL SWAP1 SWAP2 DIV PUSH2 0xFFFF AND LT JUMPDEST ISZERO PUSH2 0x2155 JUMPI PUSH1 0x0 JUMPDEST PUSH1 0x50 SLOAD DUP2 LT ISZERO PUSH2 0x2153 JUMPI PUSH1 0x0 PUSH1 0x50 DUP3 DUP2 SLOAD DUP2 LT PUSH2 0x2117 JUMPI INVALID JUMPDEST SWAP1 PUSH1 0x0 MSTORE PUSH1 0x20 PUSH1 0x0 KECCAK256 SWAP1 PUSH1 0x3 MUL ADD SWAP1 POP DUP5 PUSH1 0x6 ADD SLOAD DUP2 PUSH1 0x0 ADD SLOAD GT ISZERO PUSH2 0x214A JUMPI PUSH2 0xBB6 DUP2 PUSH1 0x1 ADD SLOAD DUP2 PUSH2 0x2146 JUMPI INVALID JUMPDEST DIV SWAP7 POP JUMPDEST POP PUSH1 0x1 ADD PUSH2 0x20FE JUMP JUMPDEST POP JUMPDEST PUSH2 0x3E8 DUP3 PUSH1 0x3 ADD SLOAD DUP5 PUSH1 0xA ADD SLOAD MUL DUP2 PUSH2 0x216A JUMPI INVALID JUMPDEST DIV DUP6 DUP3 PUSH1 0x40 ADD MLOAD DUP10 ADD ADD GT SWAP8 POP DUP8 PUSH2 0x21E5 JUMPI PUSH1 0x1 DUP4 ADD SLOAD PUSH1 0x5 PUSH1 0x1 PUSH1 0x20 SHL SWAP1 SWAP2 DIV PUSH2 0xFFFF AND LT ISZERO PUSH2 0x21A9 JUMPI DUP5 PUSH2 0x3E8 PUSH2 0x352 DUP10 DUP10 ADD MUL DIV ADD SWAP4 POP PUSH2 0x21E5 JUMP JUMPDEST PUSH1 0x1 DUP4 ADD SLOAD PUSH2 0x3E6 PUSH1 0x1 PUSH1 0x20 SHL SWAP1 SWAP2 DIV PUSH2 0xFFFF AND GT ISZERO PUSH2 0x21D7 JUMPI PUSH2 0x3E8 PUSH2 0x352 DUP9 DUP9 ADD DUP8 ADD MUL DIV SWAP4 POP PUSH2 0x21E5 JUMP JUMPDEST PUSH2 0x3E8 PUSH2 0x352 DUP9 DUP9 ADD MUL DIV SWAP4 POP JUMPDEST POP POP POP JUMPDEST SWAP4 SWAP11 SWAP3 SWAP10 POP SWAP1 SWAP8 POP SWAP6 POP SWAP1 SWAP4 POP SWAP2 POP POP JUMP JUMPDEST PUSH1 0x4 SLOAD SWAP1 JUMP JUMPDEST PUSH1 0x0 PUSH2 0x220B PUSH2 0x2699 JUMP JUMPDEST SWAP1 POP PUSH1 0x1 PUSH1 0x1 PUSH1 0xA0 SHL SUB DUP2 AND PUSH2 0x2233 JUMPI PUSH1 0x40 MLOAD PUSH3 0x461BCD PUSH1 0xE5 SHL DUP2 MSTORE PUSH1 0x4 ADD PUSH2 0xF09 SWAP1 PUSH2 0x5828 JUMP JUMPDEST PUSH2 0x17B1 DUP2 DUP4 PUSH2 0x4086 JUMP JUMPDEST PUSH1 0x1 PUSH1 0x1 PUSH1 0xA0 SHL SUB SWAP2 DUP3 AND PUSH1 0x0 SWAP1 DUP2 MSTORE PUSH1 0x2 PUSH1 0x20 SWAP1 DUP2 MSTORE PUSH1 0x40 DUP1 DUP4 KECCAK256 SWAP4 SWAP1 SWAP5 AND DUP3 MSTORE SWAP2 SWAP1 SWAP2 MSTORE KECCAK256 SLOAD SWAP1 JUMP JUMPDEST PUSH1 0x0 PUSH2 0x2272 PUSH2 0x2699 JUMP JUMPDEST SWAP1 POP PUSH1 0x1 PUSH1 0x1 PUSH1 0xA0 SHL SUB DUP2 AND PUSH2 0x229A JUMPI PUSH1 0x40 MLOAD PUSH3 0x461BCD PUSH1 0xE5 SHL DUP2 MSTORE PUSH1 0x4 ADD PUSH2 0xF09 SWAP1 PUSH2 0x5828 JUMP JUMPDEST PUSH2 0x17B1 DUP2 DUP4 PUSH2 0x4566 JUMP JUMPDEST PUSH1 0x40 DUP1 MLOAD PUSH1 0xA DUP1 DUP3 MSTORE PUSH2 0x160 DUP3 ADD SWAP1 SWAP3 MSTORE PUSH1 0x60 SWAP2 DUP3 SWAP2 DUP3 SWAP2 DUP3 SWAP2 SWAP1 PUSH1 0x20 DUP3 ADD PUSH2 0x140 DUP1 CALLDATASIZE DUP4 CALLDATACOPY POP POP PUSH1 0x40 DUP1 MLOAD PUSH1 0xA DUP1 DUP3 MSTORE PUSH2 0x160 DUP3 ADD SWAP1 SWAP3 MSTORE SWAP3 SWAP4 POP PUSH1 0x60 SWAP3 SWAP2 POP PUSH1 0x20 DUP3 ADD PUSH2 0x140 DUP1 CALLDATASIZE DUP4 CALLDATACOPY POP POP PUSH1 0x40 DUP1 MLOAD PUSH1 0xA DUP1 DUP3 MSTORE PUSH2 0x160 DUP3 ADD SWAP1 SWAP3 MSTORE SWAP3 SWAP4 POP PUSH1 0x60 SWAP3 SWAP2 POP PUSH1 0x20 DUP3 ADD PUSH2 0x140 DUP1 CALLDATASIZE DUP4 CALLDATACOPY ADD SWAP1 POP POP SWAP1 POP PUSH1 0x0 DUP1 DUP1 JUMPDEST PUSH1 0xA DUP2 LT ISZERO PUSH2 0x243F JUMPI PUSH1 0x5B DUP2 DUP2 SLOAD DUP2 LT PUSH2 0x2337 JUMPI INVALID JUMPDEST PUSH1 0x0 SWAP2 DUP3 MSTORE PUSH1 0x20 SWAP1 SWAP2 KECCAK256 ADD SLOAD PUSH1 0x1 PUSH1 0x1 PUSH1 0xA0 SHL SUB AND SWAP2 POP DUP2 ISZERO DUP1 ISZERO SWAP1 PUSH2 0x237D JUMPI POP PUSH1 0x1 PUSH1 0x1 PUSH1 0xA0 SHL SUB DUP3 AND PUSH1 0x0 SWAP1 DUP2 MSTORE PUSH1 0x55 PUSH1 0x20 MSTORE PUSH1 0x40 SWAP1 KECCAK256 PUSH1 0x3 ADD SLOAD NUMBER PUSH2 0x2580 SWAP1 SWAP2 ADD GT JUMPDEST ISZERO PUSH2 0x2437 JUMPI DUP2 DUP7 DUP5 DUP2 MLOAD DUP2 LT PUSH2 0x238F JUMPI INVALID JUMPDEST PUSH1 0x20 MUL PUSH1 0x20 ADD ADD SWAP1 PUSH1 0x1 PUSH1 0x1 PUSH1 0xA0 SHL SUB AND SWAP1 DUP2 PUSH1 0x1 PUSH1 0x1 PUSH1 0xA0 SHL SUB AND DUP2 MSTORE POP POP PUSH1 0x55 PUSH1 0x0 DUP4 PUSH1 0x1 PUSH1 0x1 PUSH1 0xA0 SHL SUB AND PUSH1 0x1 PUSH1 0x1 PUSH1 0xA0 SHL SUB AND DUP2 MSTORE PUSH1 0x20 ADD SWAP1 DUP2 MSTORE PUSH1 0x20 ADD PUSH1 0x0 KECCAK256 PUSH1 0x2 ADD SLOAD DUP6 DUP5 DUP2 MLOAD DUP2 LT PUSH2 0x23E4 JUMPI INVALID JUMPDEST PUSH1 0x20 MUL PUSH1 0x20 ADD ADD DUP2 DUP2 MSTORE POP POP PUSH1 0x55 PUSH1 0x0 DUP4 PUSH1 0x1 PUSH1 0x1 PUSH1 0xA0 SHL SUB AND PUSH1 0x1 PUSH1 0x1 PUSH1 0xA0 SHL SUB AND DUP2 MSTORE PUSH1 0x20 ADD SWAP1 DUP2 MSTORE PUSH1 0x20 ADD PUSH1 0x0 KECCAK256 PUSH1 0x3 ADD SLOAD DUP5 DUP5 DUP2 MLOAD DUP2 LT PUSH2 0x2425 JUMPI INVALID JUMPDEST PUSH1 0x20 SWAP1 DUP2 MUL SWAP2 SWAP1 SWAP2 ADD ADD MSTORE PUSH1 0x1 SWAP1 SWAP3 ADD SWAP2 JUMPDEST PUSH1 0x1 ADD PUSH2 0x2321 JUMP JUMPDEST POP SWAP4 SWAP7 POP SWAP2 SWAP5 POP SWAP3 POP POP POP SWAP1 SWAP2 SWAP3 JUMP JUMPDEST PUSH1 0x0 PUSH2 0x2459 PUSH2 0x2699 JUMP JUMPDEST SWAP1 POP PUSH1 0x1 PUSH1 0x1 PUSH1 0xA0 SHL SUB DUP2 AND PUSH2 0x2481 JUMPI PUSH1 0x40 MLOAD PUSH3 0x461BCD PUSH1 0xE5 SHL DUP2 MSTORE PUSH1 0x4 ADD PUSH2 0xF09 SWAP1 PUSH2 0x5828 JUMP JUMPDEST PUSH2 0x248A DUP2 PUSH2 0x301D JUMP JUMPDEST POP JUMP JUMPDEST CALLER PUSH2 0x2496 PUSH2 0x1B79 JUMP JUMPDEST PUSH1 0x1 PUSH1 0x1 PUSH1 0xA0 SHL SUB AND EQ PUSH2 0x24BC JUMPI PUSH1 0x40 MLOAD PUSH3 0x461BCD PUSH1 0xE5 SHL DUP2 MSTORE PUSH1 0x4 ADD PUSH2 0xF09 SWAP1 PUSH2 0x59B7 JUMP JUMPDEST PUSH1 0xA DUP1 SLOAD PUSH1 0x1 PUSH1 0x1 PUSH1 0xA0 SHL SUB SWAP6 DUP7 AND PUSH1 0x1 PUSH1 0x1 PUSH1 0xA0 SHL SUB NOT SWAP2 DUP3 AND OR SWAP1 SWAP2 SSTORE PUSH1 0x12 DUP1 SLOAD SWAP5 DUP7 AND SWAP5 DUP3 AND SWAP5 SWAP1 SWAP5 OR SWAP1 SWAP4 SSTORE PUSH1 0xE DUP1 SLOAD SWAP3 DUP6 AND SWAP3 DUP5 AND SWAP3 SWAP1 SWAP3 OR SWAP1 SWAP2 SSTORE PUSH1 0x4B DUP1 SLOAD SWAP2 SWAP1 SWAP4 AND SWAP2 AND OR SWAP1 SSTORE JUMP JUMPDEST PUSH2 0x2514 PUSH2 0x2699 JUMP JUMPDEST PUSH1 0x0 SLOAD PUSH1 0x1 PUSH1 0x1 PUSH1 0xA0 SHL SUB SWAP1 DUP2 AND SWAP2 AND EQ PUSH2 0x2541 JUMPI PUSH1 0x40 MLOAD PUSH3 0x461BCD PUSH1 0xE5 SHL DUP2 MSTORE PUSH1 0x4 ADD PUSH2 0xF09 SWAP1 PUSH2 0x59B7 JUMP JUMPDEST PUSH2 0x248A DUP2 PUSH2 0x4A21 JUMP JUMPDEST PUSH1 0x7 DUP1 SLOAD PUSH1 0x1 PUSH1 0x1 PUSH1 0xA0 SHL SUB SWAP7 DUP8 AND PUSH2 0x100 MUL PUSH2 0x100 PUSH1 0x1 PUSH1 0xA8 SHL SUB NOT SWAP1 SWAP2 AND OR SWAP1 SSTORE PUSH1 0xA DUP1 SLOAD SWAP5 DUP7 AND PUSH1 0x1 PUSH1 0x1 PUSH1 0xA0 SHL SUB NOT SWAP6 DUP7 AND OR SWAP1 SSTORE PUSH1 0x12 DUP1 SLOAD SWAP4 DUP7 AND SWAP4 DUP6 AND SWAP4 SWAP1 SWAP4 OR SWAP1 SWAP3 SSTORE PUSH1 0xE DUP1 SLOAD SWAP2 DUP6 AND SWAP2 DUP5 AND SWAP2 SWAP1 SWAP2 OR SWAP1 SSTORE PUSH1 0x4B DUP1 SLOAD SWAP2 SWAP1 SWAP4 AND SWAP2 AND OR SWAP1 SSTORE JUMP JUMPDEST PUSH1 0x47 SLOAD PUSH1 0x1 PUSH1 0x1 PUSH1 0xA0 SHL SUB AND DUP2 JUMP JUMPDEST PUSH1 0x1 PUSH1 0x1 PUSH1 0xA0 SHL SUB DUP1 DUP3 AND PUSH1 0x0 SWAP1 DUP2 MSTORE PUSH1 0x49 PUSH1 0x20 SWAP1 DUP2 MSTORE PUSH1 0x40 DUP1 DUP4 KECCAK256 PUSH1 0xD DUP2 ADD SLOAD PUSH1 0xF DUP3 ADD SLOAD PUSH1 0xE SWAP1 SWAP3 ADD DUP1 SLOAD DUP5 MLOAD DUP2 DUP8 MUL DUP2 ADD DUP8 ADD SWAP1 SWAP6 MSTORE DUP1 DUP6 MSTORE SWAP6 SWAP7 DUP8 SWAP7 DUP8 SWAP7 PUSH1 0x60 SWAP7 PUSH2 0xFFFF PUSH1 0x1 PUSH1 0xA0 SHL DUP8 DIV AND SWAP7 DUP5 AND SWAP6 SWAP1 SWAP4 AND SWAP4 SWAP3 SWAP2 DUP4 SWAP2 DUP4 ADD DUP3 DUP3 DUP1 ISZERO PUSH2 0x2657 JUMPI PUSH1 0x20 MUL DUP3 ADD SWAP2 SWAP1 PUSH1 0x0 MSTORE PUSH1 0x20 PUSH1 0x0 KECCAK256 SWAP1 JUMPDEST DUP2 SLOAD PUSH1 0x1 PUSH1 0x1 PUSH1 0xA0 SHL SUB AND DUP2 MSTORE PUSH1 0x1 SWAP1 SWAP2 ADD SWAP1 PUSH1 0x20 ADD DUP1 DUP4 GT PUSH2 0x2639 JUMPI JUMPDEST POP POP POP POP POP SWAP1 POP SWAP4 POP SWAP4 POP SWAP4 POP SWAP4 POP SWAP2 SWAP4 POP SWAP2 SWAP4 JUMP JUMPDEST PUSH1 0x0 DUP3 DUP3 ADD DUP4 DUP2 LT ISZERO PUSH2 0x2692 JUMPI PUSH1 0x40 MLOAD PUSH3 0x461BCD PUSH1 0xE5 SHL DUP2 MSTORE PUSH1 0x4 ADD PUSH2 0xF09 SWAP1 PUSH2 0x5741 JUMP JUMPDEST SWAP4 SWAP3 POP POP POP JUMP JUMPDEST CALLER SWAP1 JUMP JUMPDEST PUSH1 0x1 PUSH1 0x1 PUSH1 0xA0 SHL SUB DUP4 AND PUSH2 0x26C3 JUMPI PUSH1 0x40 MLOAD PUSH3 0x461BCD PUSH1 0xE5 SHL DUP2 MSTORE PUSH1 0x4 ADD PUSH2 0xF09 SWAP1 PUSH2 0x5B2D JUMP JUMPDEST PUSH1 0x1 PUSH1 0x1 PUSH1 0xA0 SHL SUB DUP3 AND PUSH2 0x26E9 JUMPI PUSH1 0x40 MLOAD PUSH3 0x461BCD PUSH1 0xE5 SHL DUP2 MSTORE PUSH1 0x4 ADD PUSH2 0xF09 SWAP1 PUSH2 0x564E JUMP JUMPDEST PUSH1 0x1 PUSH1 0x1 PUSH1 0xA0 SHL SUB DUP1 DUP5 AND PUSH1 0x0 DUP2 DUP2 MSTORE PUSH1 0x2 PUSH1 0x20 SWAP1 DUP2 MSTORE PUSH1 0x40 DUP1 DUP4 KECCAK256 SWAP5 DUP8 AND DUP1 DUP5 MSTORE SWAP5 SWAP1 SWAP2 MSTORE SWAP1 DUP2 SWAP1 KECCAK256 DUP5 SWAP1 SSTORE MLOAD PUSH32 0x8C5BE1E5EBEC7D5BD14F71427D1E84F3DD0314C0F7B2291E5B200AC8C7C3B925 SWAP1 PUSH2 0x2744 SWAP1 DUP6 SWAP1 PUSH2 0x5BF3 JUMP JUMPDEST PUSH1 0x40 MLOAD DUP1 SWAP2 SUB SWAP1 LOG3 POP POP POP JUMP JUMPDEST PUSH1 0x0 PUSH2 0x3E8 PUSH2 0x275E PUSH2 0x4AA2 JUMP JUMPDEST PUSH1 0x32 MUL DUP2 PUSH2 0x2768 JUMPI INVALID JUMPDEST DIV SWAP1 POP SWAP1 JUMP JUMPDEST PUSH1 0x0 PUSH1 0x3 DUP3 GT ISZERO PUSH2 0x2791 JUMPI PUSH1 0x40 MLOAD PUSH3 0x461BCD PUSH1 0xE5 SHL DUP2 MSTORE PUSH1 0x4 ADD PUSH2 0xF09 SWAP1 PUSH2 0x5991 JUMP JUMPDEST PUSH1 0x18 SLOAD PUSH1 0x54 DUP1 SLOAD PUSH2 0x3E8 SWAP3 PUSH1 0x1 PUSH1 0x40 SHL SWAP1 DIV PUSH2 0xFFFF AND SWAP2 SWAP1 DUP6 SWAP1 DUP2 LT PUSH2 0x27B3 JUMPI INVALID JUMPDEST SWAP1 PUSH1 0x0 MSTORE PUSH1 0x20 PUSH1 0x0 KECCAK256 ADD PUSH1 0x0 DUP2 SLOAD DUP2 LT PUSH2 0x27C9 JUMPI INVALID JUMPDEST SWAP1 PUSH1 0x0 MSTORE PUSH1 0x20 PUSH1 0x0 KECCAK256 ADD SLOAD MUL DUP2 PUSH2 0x27DC JUMPI INVALID JUMPDEST DIV PUSH1 0x54 DUP4 DUP2 SLOAD DUP2 LT PUSH2 0x27EA JUMPI INVALID JUMPDEST SWAP1 PUSH1 0x0 MSTORE PUSH1 0x20 PUSH1 0x0 KECCAK256 ADD PUSH1 0x0 DUP2 SLOAD DUP2 LT PUSH2 0x2800 JUMPI INVALID JUMPDEST SWAP1 PUSH1 0x0 MSTORE PUSH1 0x20 PUSH1 0x0 KECCAK256 ADD SLOAD ADD SWAP1 POP SWAP2 SWAP1 POP JUMP JUMPDEST PUSH1 0x1 PUSH1 0x1 PUSH1 0xA0 SHL SUB DUP2 AND PUSH1 0x0 SWAP1 DUP2 MSTORE PUSH1 0x55 PUSH1 0x20 MSTORE PUSH1 0x40 DUP2 KECCAK256 PUSH1 0x3 DUP2 ADD SLOAD DUP3 SWAP2 SWAP1 ISZERO PUSH2 0x2884 JUMPI DUP1 SLOAD PUSH2 0x2884 JUMPI PUSH1 0x3 DUP2 ADD SLOAD NUMBER SUB PUSH2 0x2580 DUP2 GT ISZERO PUSH2 0x2854 JUMPI POP PUSH2 0x2580 JUMPDEST DUP1 PUSH1 0x57 SLOAD PUSH2 0x7080 MUL DUP4 PUSH1 0x2 ADD SLOAD PUSH1 0x9 SLOAD DUP5 PUSH2 0xBB80 MUL MUL MUL DUP2 PUSH2 0x2872 JUMPI INVALID JUMPDEST DIV DUP4 PUSH1 0x5 ADD SLOAD ADD SWAP4 POP SWAP4 POP POP POP PUSH2 0x288F JUMP JUMPDEST PUSH1 0x5 ADD SLOAD PUSH1 0x0 SWAP3 POP SWAP1 POP JUMPDEST SWAP2 POP SWAP2 JUMP JUMPDEST PUSH1 0x1 PUSH1 0x1 PUSH1 0xA0 SHL SUB DUP4 AND PUSH2 0x28BA JUMPI PUSH1 0x40 MLOAD PUSH3 0x461BCD PUSH1 0xE5 SHL DUP2 MSTORE PUSH1 0x4 ADD PUSH2 0xF09 SWAP1 PUSH2 0x56D6 JUMP JUMPDEST PUSH1 0x1 PUSH1 0x1 PUSH1 0xA0 SHL SUB DUP3 AND PUSH2 0x28E0 JUMPI PUSH1 0x40 MLOAD PUSH3 0x461BCD PUSH1 0xE5 SHL DUP2 MSTORE PUSH1 0x4 ADD PUSH2 0xF09 SWAP1 PUSH2 0x59EC JUMP JUMPDEST PUSH2 0x291D DUP2 PUSH1 0x40 MLOAD DUP1 PUSH1 0x60 ADD PUSH1 0x40 MSTORE DUP1 PUSH1 0x26 DUP2 MSTORE PUSH1 0x20 ADD PUSH2 0x5CB9 PUSH1 0x26 SWAP2 CODECOPY PUSH1 0x1 PUSH1 0x1 PUSH1 0xA0 SHL SUB DUP7 AND PUSH1 0x0 SWAP1 DUP2 MSTORE PUSH1 0x1 PUSH1 0x20 MSTORE PUSH1 0x40 SWAP1 KECCAK256 SLOAD SWAP2 SWAP1 PUSH2 0x299E JUMP JUMPDEST PUSH1 0x1 PUSH1 0x1 PUSH1 0xA0 SHL SUB DUP1 DUP6 AND PUSH1 0x0 SWAP1 DUP2 MSTORE PUSH1 0x1 PUSH1 0x20 MSTORE PUSH1 0x40 DUP1 DUP3 KECCAK256 SWAP4 SWAP1 SWAP4 SSTORE SWAP1 DUP5 AND DUP2 MSTORE KECCAK256 SLOAD PUSH2 0x294C SWAP1 DUP3 PUSH2 0x266D JUMP JUMPDEST PUSH1 0x1 PUSH1 0x1 PUSH1 0xA0 SHL SUB DUP1 DUP5 AND PUSH1 0x0 DUP2 DUP2 MSTORE PUSH1 0x1 PUSH1 0x20 MSTORE PUSH1 0x40 SWAP1 DUP2 SWAP1 KECCAK256 SWAP4 SWAP1 SWAP4 SSTORE SWAP2 MLOAD SWAP1 DUP6 AND SWAP1 PUSH32 0xDDF252AD1BE2C89B69C2B068FC378DAA952BA7F163C4A11628F55A4DF523B3EF SWAP1 PUSH2 0x2744 SWAP1 DUP6 SWAP1 PUSH2 0x5BF3 JUMP JUMPDEST PUSH1 0x0 DUP2 DUP5 DUP5 GT ISZERO PUSH2 0x29C2 JUMPI PUSH1 0x40 MLOAD PUSH3 0x461BCD PUSH1 0xE5 SHL DUP2 MSTORE PUSH1 0x4 ADD PUSH2 0xF09 SWAP2 SWAP1 PUSH2 0x5537 JUMP JUMPDEST POP POP POP SWAP1 SUB SWAP1 JUMP JUMPDEST PUSH1 0x1 PUSH1 0x1 PUSH1 0xA0 SHL SUB DUP3 AND PUSH2 0x29F0 JUMPI PUSH1 0x40 MLOAD PUSH3 0x461BCD PUSH1 0xE5 SHL DUP2 MSTORE PUSH1 0x4 ADD PUSH2 0xF09 SWAP1 PUSH2 0x57F1 JUMP JUMPDEST PUSH1 0x4 SLOAD PUSH1 0x3 SLOAD PUSH2 0x2A00 SWAP1 DUP4 PUSH2 0x266D JUMP JUMPDEST LT PUSH2 0x2A1D JUMPI PUSH1 0x40 MLOAD PUSH3 0x461BCD PUSH1 0xE5 SHL DUP2 MSTORE PUSH1 0x4 ADD PUSH2 0xF09 SWAP1 PUSH2 0x5936 JUMP JUMPDEST PUSH1 0x3 SLOAD PUSH2 0x2A2A SWAP1 DUP3 PUSH2 0x266D JUMP JUMPDEST PUSH1 0x3 SSTORE PUSH1 0x1 PUSH1 0x1 PUSH1 0xA0 SHL SUB DUP3 AND PUSH1 0x0 SWAP1 DUP2 MSTORE PUSH1 0x1 PUSH1 0x20 MSTORE PUSH1 0x40 SWAP1 KECCAK256 SLOAD PUSH2 0x2A50 SWAP1 DUP3 PUSH2 0x266D JUMP JUMPDEST PUSH1 0x1 PUSH1 0x1 PUSH1 0xA0 SHL SUB DUP4 AND PUSH1 0x0 DUP2 DUP2 MSTORE PUSH1 0x1 PUSH1 0x20 MSTORE PUSH1 0x40 DUP1 DUP3 KECCAK256 SWAP4 SWAP1 SWAP4 SSTORE SWAP2 MLOAD SWAP1 SWAP2 SWAP1 PUSH32 0xDDF252AD1BE2C89B69C2B068FC378DAA952BA7F163C4A11628F55A4DF523B3EF SWAP1 PUSH2 0x2A9F SWAP1 DUP6 SWAP1 PUSH2 0x5BF3 JUMP JUMPDEST PUSH1 0x40 MLOAD DUP1 SWAP2 SUB SWAP1 LOG3 POP POP JUMP JUMPDEST PUSH1 0x0 DUP1 PUSH1 0x0 PUSH1 0x64 PUSH1 0x4C SLOAD PUSH1 0x5 MUL DUP2 PUSH2 0x2ABF JUMPI INVALID JUMPDEST DIV SWAP1 POP PUSH1 0x0 JUMPDEST PUSH1 0x52 SLOAD DUP2 LT ISZERO PUSH2 0x2B76 JUMPI PUSH1 0x0 PUSH1 0x52 DUP3 DUP2 SLOAD DUP2 LT PUSH2 0x2ADE JUMPI INVALID JUMPDEST SWAP1 PUSH1 0x0 MSTORE PUSH1 0x20 PUSH1 0x0 KECCAK256 SWAP1 PUSH1 0x4 MUL ADD SWAP1 POP PUSH3 0x15180 DUP2 PUSH1 0x0 ADD SLOAD TIMESTAMP SUB GT ISZERO PUSH2 0x2B6D JUMPI PUSH1 0x17 SLOAD PUSH1 0x3 DUP3 ADD SLOAD MUL DUP1 DUP5 LT PUSH2 0x2B64 JUMPI PUSH1 0x4C DUP1 SLOAD DUP3 SWAP1 SUB SWAP1 SSTORE PUSH1 0x3 DUP3 ADD SLOAD PUSH1 0x7 SLOAD PUSH1 0x1 DUP5 DUP2 ADD SLOAD SWAP9 ADD SWAP8 SWAP7 SWAP1 SWAP2 ADD SWAP6 SWAP5 DUP3 SWAP1 SUB SWAP5 PUSH2 0x2B4F SWAP2 PUSH1 0x1 PUSH1 0x1 PUSH1 0xA0 SHL SUB PUSH2 0x100 SWAP1 SWAP2 DIV DUP2 AND SWAP2 AND DUP4 PUSH2 0x2BE3 JUMP JUMPDEST DUP6 PUSH1 0x2 EQ ISZERO PUSH2 0x2B5F JUMPI POP POP PUSH2 0x2B76 JUMP JUMPDEST PUSH2 0x2B6B JUMP JUMPDEST POP POP PUSH2 0x2B76 JUMP JUMPDEST POP JUMPDEST POP PUSH1 0x1 ADD PUSH2 0x2AC5 JUMP JUMPDEST POP DUP2 ISZERO PUSH2 0xFA7 JUMPI PUSH1 0x4B SLOAD PUSH2 0xFA7 SWAP1 ADDRESS SWAP1 PUSH1 0x1 PUSH1 0x1 PUSH1 0xA0 SHL SUB AND DUP5 PUSH2 0x2894 JUMP JUMPDEST PUSH1 0x4A SLOAD PUSH1 0x0 SWAP1 JUMPDEST DUP1 ISZERO PUSH2 0x2BDA JUMPI PUSH1 0x4A PUSH1 0x1 DUP3 SUB DUP2 SLOAD DUP2 LT PUSH2 0x2BB2 JUMPI INVALID JUMPDEST SWAP1 PUSH1 0x0 MSTORE PUSH1 0x20 PUSH1 0x0 KECCAK256 SWAP1 PUSH1 0x4 MUL ADD PUSH1 0x1 ADD SLOAD DUP4 LT PUSH2 0x2BD1 JUMPI SWAP1 POP PUSH2 0x925 JUMP JUMPDEST PUSH1 0x0 NOT ADD PUSH2 0x2B9C JUMP JUMPDEST POP PUSH1 0x0 SWAP3 SWAP2 POP POP JUMP JUMPDEST PUSH1 0x0 PUSH1 0x60 DUP5 PUSH1 0x1 PUSH1 0x1 PUSH1 0xA0 SHL SUB AND PUSH4 0xA9059CBB DUP6 DUP6 PUSH1 0x40 MLOAD PUSH1 0x24 ADD PUSH2 0x2C09 SWAP3 SWAP2 SWAP1 PUSH2 0x53A0 JUMP JUMPDEST PUSH1 0x40 MLOAD PUSH1 0x20 DUP2 DUP4 SUB SUB DUP2 MSTORE SWAP1 PUSH1 0x40 MSTORE SWAP1 PUSH1 0xE0 SHL PUSH1 0x20 DUP3 ADD DUP1 MLOAD PUSH1 0x1 PUSH1 0x1 PUSH1 0xE0 SHL SUB DUP4 DUP2 DUP4 AND OR DUP4 MSTORE POP POP POP POP PUSH1 0x40 MLOAD PUSH2 0x2C42 SWAP2 SWAP1 PUSH2 0x534C JUMP JUMPDEST PUSH1 0x0 PUSH1 0x40 MLOAD DUP1 DUP4 SUB DUP2 PUSH1 0x0 DUP7 GAS CALL SWAP2 POP POP RETURNDATASIZE DUP1 PUSH1 0x0 DUP2 EQ PUSH2 0x2C7F JUMPI PUSH1 0x40 MLOAD SWAP2 POP PUSH1 0x1F NOT PUSH1 0x3F RETURNDATASIZE ADD AND DUP3 ADD PUSH1 0x40 MSTORE RETURNDATASIZE DUP3 MSTORE RETURNDATASIZE PUSH1 0x0 PUSH1 0x20 DUP5 ADD RETURNDATACOPY PUSH2 0x2C84 JUMP JUMPDEST PUSH1 0x60 SWAP2 POP JUMPDEST POP SWAP2 POP SWAP2 POP DUP2 DUP1 ISZERO PUSH2 0x2CAE JUMPI POP DUP1 MLOAD ISZERO DUP1 PUSH2 0x2CAE JUMPI POP DUP1 DUP1 PUSH1 0x20 ADD SWAP1 MLOAD DUP2 ADD SWAP1 PUSH2 0x2CAE SWAP2 SWAP1 PUSH2 0x528A JUMP JUMPDEST PUSH2 0x2CCA JUMPI PUSH1 0x40 MLOAD PUSH3 0x461BCD PUSH1 0xE5 SHL DUP2 MSTORE PUSH1 0x4 ADD PUSH2 0xF09 SWAP1 PUSH2 0x5590 JUMP JUMPDEST POP POP POP POP POP JUMP JUMPDEST PUSH1 0x1 PUSH1 0x1 PUSH1 0xA0 SHL SUB DUP3 AND PUSH2 0x2CF7 JUMPI PUSH1 0x40 MLOAD PUSH3 0x461BCD PUSH1 0xE5 SHL DUP2 MSTORE PUSH1 0x4 ADD PUSH2 0xF09 SWAP1 PUSH2 0x58CB JUMP JUMPDEST PUSH2 0x2D34 DUP2 PUSH1 0x40 MLOAD DUP1 PUSH1 0x60 ADD PUSH1 0x40 MSTORE DUP1 PUSH1 0x22 DUP2 MSTORE PUSH1 0x20 ADD PUSH2 0x5D2C PUSH1 0x22 SWAP2 CODECOPY PUSH1 0x1 PUSH1 0x1 PUSH1 0xA0 SHL SUB DUP6 AND PUSH1 0x0 SWAP1 DUP2 MSTORE PUSH1 0x1 PUSH1 0x20 MSTORE PUSH1 0x40 SWAP1 KECCAK256 SLOAD SWAP2 SWAP1 PUSH2 0x299E JUMP JUMPDEST PUSH1 0x1 PUSH1 0x1 PUSH1 0xA0 SHL SUB DUP4 AND PUSH1 0x0 SWAP1 DUP2 MSTORE PUSH1 0x1 PUSH1 0x20 MSTORE PUSH1 0x40 SWAP1 KECCAK256 SSTORE PUSH1 0x3 SLOAD PUSH2 0x2D5A SWAP1 DUP3 PUSH2 0x4B28 JUMP JUMPDEST PUSH1 0x3 SSTORE PUSH1 0x40 MLOAD PUSH1 0x0 SWAP1 PUSH1 0x1 PUSH1 0x1 PUSH1 0xA0 SHL SUB DUP5 AND SWAP1 PUSH32 0xDDF252AD1BE2C89B69C2B068FC378DAA952BA7F163C4A11628F55A4DF523B3EF SWAP1 PUSH2 0x2A9F SWAP1 DUP6 SWAP1 PUSH2 0x5BF3 JUMP JUMPDEST PUSH1 0x1 PUSH1 0x1 PUSH1 0xA0 SHL SUB DUP4 AND PUSH1 0x0 SWAP1 DUP2 MSTORE PUSH1 0x55 PUSH1 0x20 MSTORE PUSH1 0x40 DUP2 KECCAK256 PUSH1 0x54 DUP1 SLOAD SWAP2 SWAP3 SWAP2 DUP5 SWAP1 DUP2 LT PUSH2 0x2DC4 JUMPI INVALID JUMPDEST SWAP1 PUSH1 0x0 MSTORE PUSH1 0x20 PUSH1 0x0 KECCAK256 ADD PUSH1 0x1 DUP2 SLOAD DUP2 LT PUSH2 0x2DDA JUMPI INVALID JUMPDEST PUSH1 0x0 SWAP2 DUP3 MSTORE PUSH1 0x20 SWAP1 SWAP2 KECCAK256 ADD SLOAD PUSH1 0xA SLOAD SWAP1 SWAP2 POP PUSH1 0x1 PUSH1 0x1 PUSH1 0xA0 SHL SUB DUP7 DUP2 AND SWAP2 AND EQ PUSH2 0x2FB7 JUMPI PUSH1 0x0 DUP1 PUSH2 0x2E0A DUP6 PUSH2 0x276E JUMP JUMPDEST SWAP1 POP PUSH1 0x0 PUSH1 0x64 PUSH1 0x18 PUSH1 0x8 SWAP1 SLOAD SWAP1 PUSH2 0x100 EXP SWAP1 DIV PUSH2 0xFFFF AND PUSH2 0xFFFF AND GT ISZERO PUSH2 0x2E5E JUMPI PUSH1 0x54 DUP7 DUP2 SLOAD DUP2 LT PUSH2 0x2E38 JUMPI INVALID JUMPDEST SWAP1 PUSH1 0x0 MSTORE PUSH1 0x20 PUSH1 0x0 KECCAK256 ADD PUSH1 0x3 DUP2 SLOAD DUP2 LT PUSH2 0x2E4E JUMPI INVALID JUMPDEST SWAP1 PUSH1 0x0 MSTORE PUSH1 0x20 PUSH1 0x0 KECCAK256 ADD SLOAD PUSH2 0x2E8D JUMP JUMPDEST PUSH1 0x54 DUP7 DUP2 SLOAD DUP2 LT PUSH2 0x2E6B JUMPI INVALID JUMPDEST SWAP1 PUSH1 0x0 MSTORE PUSH1 0x20 PUSH1 0x0 KECCAK256 ADD PUSH1 0x2 DUP2 SLOAD DUP2 LT PUSH2 0x2E81 JUMPI INVALID JUMPDEST SWAP1 PUSH1 0x0 MSTORE PUSH1 0x20 PUSH1 0x0 KECCAK256 ADD SLOAD JUMPDEST PUSH1 0x7 SLOAD PUSH2 0x3E8 DUP3 DUP6 MUL DIV SWAP5 POP SWAP1 SWAP2 POP PUSH2 0x2EB6 SWAP1 PUSH2 0x100 SWAP1 DIV PUSH1 0x1 PUSH1 0x1 PUSH1 0xA0 SHL SUB AND DUP10 ADDRESS DUP6 PUSH2 0x4B6A JUMP JUMPDEST PUSH1 0x1 PUSH1 0x1 PUSH1 0xA0 SHL SUB DUP8 AND ISZERO PUSH2 0x2F72 JUMPI PUSH1 0x7 SLOAD PUSH1 0x64 PUSH1 0x5A DUP6 MUL DIV SWAP1 PUSH2 0x2EE9 SWAP1 PUSH2 0x100 SWAP1 DIV PUSH1 0x1 PUSH1 0x1 PUSH1 0xA0 SHL SUB AND DUP10 DUP4 PUSH2 0x2BE3 JUMP JUMPDEST PUSH1 0x2 DUP7 ADD SLOAD PUSH2 0x2F41 JUMPI PUSH1 0x1 PUSH1 0x1 PUSH1 0xA0 SHL SUB DUP1 DUP10 AND PUSH1 0x0 DUP2 DUP2 MSTORE PUSH1 0x56 PUSH1 0x20 SWAP1 DUP2 MSTORE PUSH1 0x40 DUP3 KECCAK256 DUP1 SLOAD PUSH1 0x1 DUP2 DUP2 ADD DUP4 SSTORE SWAP2 DUP5 MSTORE SWAP2 SWAP1 SWAP3 KECCAK256 ADD DUP1 SLOAD SWAP4 DUP14 AND PUSH1 0x1 PUSH1 0x1 PUSH1 0xA0 SHL SUB NOT SWAP5 DUP6 AND OR SWAP1 SSTORE DUP9 ADD DUP1 SLOAD SWAP1 SWAP3 AND OR SWAP1 SSTORE PUSH2 0x2F70 JUMP JUMPDEST PUSH1 0x1 DUP7 ADD SLOAD PUSH1 0x1 PUSH1 0x1 PUSH1 0xA0 SHL SUB DUP10 DUP2 AND SWAP2 AND EQ PUSH2 0x2F70 JUMPI PUSH1 0x40 MLOAD PUSH3 0x461BCD PUSH1 0xE5 SHL DUP2 MSTORE PUSH1 0x4 ADD PUSH2 0xF09 SWAP1 PUSH2 0x5621 JUMP JUMPDEST POP JUMPDEST POP PUSH1 0x4C DUP1 SLOAD PUSH1 0x64 PUSH1 0xA SWAP5 SWAP1 SWAP5 MUL SWAP4 SWAP1 SWAP4 DIV SWAP1 SWAP3 ADD SWAP1 SWAP2 SSTORE PUSH1 0xB DUP1 SLOAD PUSH2 0x3E8 PUSH1 0x14 DUP5 MUL DUP2 SWAP1 DIV SWAP1 SWAP2 ADD SWAP1 SWAP2 SSTORE PUSH1 0xF DUP1 SLOAD SWAP3 DUP2 MUL SWAP2 SWAP1 SWAP2 DIV SWAP2 DUP3 ADD SWAP1 SSTORE PUSH1 0x13 DUP1 SLOAD SWAP1 SWAP2 ADD SWAP1 SSTORE JUMPDEST PUSH1 0x2 DUP3 ADD SLOAD PUSH2 0x2FD9 JUMPI PUSH1 0x0 DUP3 SSTORE PUSH1 0x2 DUP3 ADD DUP2 SWAP1 SSTORE PUSH1 0x58 DUP1 SLOAD PUSH1 0x1 ADD SWAP1 SSTORE PUSH2 0x3001 JUMP JUMPDEST PUSH1 0x3 DUP3 ADD SLOAD ISZERO PUSH2 0x2FF6 JUMPI PUSH1 0x0 PUSH2 0x2FEE DUP7 PUSH2 0x2813 JUMP JUMPDEST PUSH1 0x5 DUP6 ADD SSTORE POP POP JUMPDEST PUSH1 0x2 DUP3 ADD DUP1 SLOAD DUP3 ADD SWAP1 SSTORE JUMPDEST PUSH1 0x57 DUP1 SLOAD SWAP1 SWAP2 ADD SWAP1 SSTORE PUSH1 0x0 PUSH1 0x3 DUP3 ADD SSTORE TIMESTAMP PUSH1 0x6 SWAP1 SWAP2 ADD SSTORE POP POP POP JUMP JUMPDEST PUSH1 0x1 PUSH1 0x1 PUSH1 0xA0 SHL SUB DUP2 AND PUSH1 0x0 SWAP1 DUP2 MSTORE PUSH1 0x55 PUSH1 0x20 MSTORE PUSH1 0x40 SWAP1 KECCAK256 PUSH1 0x2 DUP2 ADD SLOAD PUSH2 0x3056 JUMPI PUSH1 0x40 MLOAD PUSH3 0x461BCD PUSH1 0xE5 SHL DUP2 MSTORE PUSH1 0x4 ADD PUSH2 0xF09 SWAP1 PUSH2 0x5ADA JUMP JUMPDEST PUSH1 0x3 DUP2 ADD SLOAD ISZERO PUSH2 0x3078 JUMPI PUSH1 0x40 MLOAD PUSH3 0x461BCD PUSH1 0xE5 SHL DUP2 MSTORE PUSH1 0x4 ADD PUSH2 0xF09 SWAP1 PUSH2 0x58A0 JUMP JUMPDEST PUSH1 0x0 DUP1 JUMPDEST PUSH1 0xA DUP3 LT ISZERO PUSH2 0x31B6 JUMPI PUSH1 0x0 PUSH1 0x1 PUSH1 0x1 PUSH1 0xA0 SHL SUB AND PUSH1 0x5B DUP4 DUP2 SLOAD DUP2 LT PUSH2 0x309D JUMPI INVALID JUMPDEST PUSH1 0x0 SWAP2 DUP3 MSTORE PUSH1 0x20 SWAP1 SWAP2 KECCAK256 ADD SLOAD PUSH1 0x1 PUSH1 0x1 PUSH1 0xA0 SHL SUB AND EQ ISZERO PUSH2 0x30BD JUMPI PUSH2 0x31B6 JUMP JUMPDEST PUSH1 0x55 PUSH1 0x0 PUSH1 0x5B DUP5 DUP2 SLOAD DUP2 LT PUSH2 0x30CE JUMPI INVALID JUMPDEST PUSH1 0x0 SWAP2 DUP3 MSTORE PUSH1 0x20 DUP1 DUP4 KECCAK256 SWAP1 SWAP2 ADD SLOAD PUSH1 0x1 PUSH1 0x1 PUSH1 0xA0 SHL SUB AND DUP4 MSTORE DUP3 ADD SWAP3 SWAP1 SWAP3 MSTORE PUSH1 0x40 ADD SWAP1 KECCAK256 PUSH1 0x3 ADD SLOAD ISZERO DUP1 ISZERO SWAP1 PUSH2 0x3140 JUMPI POP PUSH2 0x2580 PUSH1 0x55 PUSH1 0x0 PUSH1 0x5B DUP6 DUP2 SLOAD DUP2 LT PUSH2 0x3113 JUMPI INVALID JUMPDEST PUSH1 0x0 SWAP2 DUP3 MSTORE PUSH1 0x20 DUP1 DUP4 KECCAK256 SWAP1 SWAP2 ADD SLOAD PUSH1 0x1 PUSH1 0x1 PUSH1 0xA0 SHL SUB AND DUP4 MSTORE DUP3 ADD SWAP3 SWAP1 SWAP3 MSTORE PUSH1 0x40 ADD SWAP1 KECCAK256 PUSH1 0x3 ADD SLOAD NUMBER SUB GT ISZERO JUMPDEST ISZERO PUSH2 0x31AB JUMPI PUSH1 0x5B DUP3 DUP2 SLOAD DUP2 LT PUSH2 0x3152 JUMPI INVALID JUMPDEST PUSH1 0x0 SWAP2 DUP3 MSTORE PUSH1 0x20 SWAP1 SWAP2 KECCAK256 ADD SLOAD PUSH1 0x5B DUP1 SLOAD PUSH1 0x1 DUP5 ADD SWAP4 PUSH1 0x1 PUSH1 0x1 PUSH1 0xA0 SHL SUB SWAP1 SWAP4 AND SWAP3 SWAP1 DUP2 LT PUSH2 0x317C JUMPI INVALID JUMPDEST SWAP1 PUSH1 0x0 MSTORE PUSH1 0x20 PUSH1 0x0 KECCAK256 ADD PUSH1 0x0 PUSH2 0x100 EXP DUP2 SLOAD DUP2 PUSH1 0x1 PUSH1 0x1 PUSH1 0xA0 SHL SUB MUL NOT AND SWAP1 DUP4 PUSH1 0x1 PUSH1 0x1 PUSH1 0xA0 SHL SUB AND MUL OR SWAP1 SSTORE POP JUMPDEST PUSH1 0x1 SWAP1 SWAP2 ADD SWAP1 PUSH2 0x307C JUMP JUMPDEST PUSH1 0x0 SWAP2 POP PUSH1 0x64 JUMPDEST DUP2 DUP4 LT ISZERO PUSH2 0x321C JUMPI PUSH1 0x55 PUSH1 0x0 PUSH1 0x5B DUP6 DUP2 SLOAD DUP2 LT PUSH2 0x31D6 JUMPI INVALID JUMPDEST PUSH1 0x0 SWAP2 DUP3 MSTORE PUSH1 0x20 DUP1 DUP4 KECCAK256 SWAP1 SWAP2 ADD SLOAD PUSH1 0x1 PUSH1 0x1 PUSH1 0xA0 SHL SUB AND DUP4 MSTORE DUP3 ADD SWAP3 SWAP1 SWAP3 MSTORE PUSH1 0x40 ADD SWAP1 KECCAK256 PUSH1 0x2 SWAP1 DUP2 ADD SLOAD SWAP1 DUP6 ADD SLOAD GT ISZERO PUSH2 0x3211 JUMPI POP DUP2 PUSH2 0x321C JUMP JUMPDEST PUSH1 0x1 SWAP1 SWAP3 ADD SWAP2 PUSH2 0x31BD JUMP JUMPDEST DUP1 PUSH1 0x64 EQ ISZERO PUSH2 0x3270 JUMPI PUSH1 0xA DUP3 LT ISZERO PUSH2 0x326B JUMPI DUP5 PUSH1 0x5B DUP4 DUP2 SLOAD DUP2 LT PUSH2 0x323C JUMPI INVALID JUMPDEST SWAP1 PUSH1 0x0 MSTORE PUSH1 0x20 PUSH1 0x0 KECCAK256 ADD PUSH1 0x0 PUSH2 0x100 EXP DUP2 SLOAD DUP2 PUSH1 0x1 PUSH1 0x1 PUSH1 0xA0 SHL SUB MUL NOT AND SWAP1 DUP4 PUSH1 0x1 PUSH1 0x1 PUSH1 0xA0 SHL SUB AND MUL OR SWAP1 SSTORE POP JUMPDEST PUSH2 0x3338 JUMP JUMPDEST PUSH1 0xA DUP3 LT ISZERO PUSH2 0x3280 JUMPI PUSH1 0x1 SWAP1 SWAP2 ADD SWAP1 JUMPDEST PUSH1 0x1 DUP3 SUB SWAP3 POP JUMPDEST DUP1 DUP4 GT ISZERO PUSH2 0x32FB JUMPI PUSH1 0x5B PUSH1 0x1 DUP5 SUB DUP2 SLOAD DUP2 LT PUSH2 0x329F JUMPI INVALID JUMPDEST PUSH1 0x0 SWAP2 DUP3 MSTORE PUSH1 0x20 SWAP1 SWAP2 KECCAK256 ADD SLOAD PUSH1 0x5B DUP1 SLOAD PUSH1 0x1 PUSH1 0x1 PUSH1 0xA0 SHL SUB SWAP1 SWAP3 AND SWAP2 DUP6 SWAP1 DUP2 LT PUSH2 0x32C5 JUMPI INVALID JUMPDEST PUSH1 0x0 SWAP2 DUP3 MSTORE PUSH1 0x20 SWAP1 SWAP2 KECCAK256 ADD DUP1 SLOAD PUSH1 0x1 PUSH1 0x1 PUSH1 0xA0 SHL SUB NOT AND PUSH1 0x1 PUSH1 0x1 PUSH1 0xA0 SHL SUB SWAP3 SWAP1 SWAP3 AND SWAP2 SWAP1 SWAP2 OR SWAP1 SSTORE PUSH1 0x0 NOT SWAP3 SWAP1 SWAP3 ADD SWAP2 PUSH2 0x3287 JUMP JUMPDEST DUP5 PUSH1 0x5B DUP3 DUP2 SLOAD DUP2 LT PUSH2 0x3309 JUMPI INVALID JUMPDEST SWAP1 PUSH1 0x0 MSTORE PUSH1 0x20 PUSH1 0x0 KECCAK256 ADD PUSH1 0x0 PUSH2 0x100 EXP DUP2 SLOAD DUP2 PUSH1 0x1 PUSH1 0x1 PUSH1 0xA0 SHL SUB MUL NOT AND SWAP1 DUP4 PUSH1 0x1 PUSH1 0x1 PUSH1 0xA0 SHL SUB AND MUL OR SWAP1 SSTORE POP JUMPDEST PUSH1 0x0 PUSH2 0x3343 DUP7 PUSH2 0x2813 JUMP JUMPDEST PUSH1 0x5 DUP8 ADD SSTORE POP POP NUMBER PUSH1 0x3 SWAP1 SWAP5 ADD SWAP4 SWAP1 SWAP4 SSTORE POP POP POP POP JUMP JUMPDEST PUSH1 0x18 SLOAD PUSH4 0xFFFFFFFF PUSH1 0x1 PUSH1 0x20 SHL DUP3 DIV DUP2 AND SWAP2 AND DUP2 LT PUSH2 0x338B JUMPI PUSH1 0x40 MLOAD PUSH3 0x461BCD PUSH1 0xE5 SHL DUP2 MSTORE PUSH1 0x4 ADD PUSH2 0xF09 SWAP1 PUSH2 0x5A2F JUMP JUMPDEST PUSH4 0xFFFFFFFF DUP2 AND PUSH2 0x33C8 JUMPI PUSH1 0xA SLOAD PUSH1 0x1 PUSH1 0x1 PUSH1 0xA0 SHL SUB DUP6 DUP2 AND SWAP2 AND EQ PUSH2 0x33C3 JUMPI PUSH1 0x40 MLOAD PUSH3 0x461BCD PUSH1 0xE5 SHL DUP2 MSTORE PUSH1 0x4 ADD PUSH2 0xF09 SWAP1 PUSH2 0x556A JUMP JUMPDEST PUSH2 0x349B JUMP JUMPDEST PUSH1 0xA DUP2 PUSH4 0xFFFFFFFF AND LT ISZERO PUSH2 0x3404 JUMPI PUSH1 0x47 SLOAD PUSH1 0x1 PUSH1 0x1 PUSH1 0xA0 SHL SUB DUP6 DUP2 AND SWAP2 AND EQ PUSH2 0x33C3 JUMPI PUSH1 0x40 MLOAD PUSH3 0x461BCD PUSH1 0xE5 SHL DUP2 MSTORE PUSH1 0x4 ADD PUSH2 0xF09 SWAP1 PUSH2 0x587A JUMP JUMPDEST PUSH1 0x1 PUSH1 0x1 PUSH1 0xA0 SHL SUB DUP6 AND PUSH1 0x0 SWAP1 DUP2 MSTORE PUSH1 0x49 PUSH1 0x20 MSTORE PUSH1 0x40 SWAP1 KECCAK256 PUSH1 0x5 ADD SLOAD PUSH2 0x345C JUMPI PUSH1 0x1 PUSH1 0x1 PUSH1 0xA0 SHL SUB DUP5 AND PUSH1 0x0 SWAP1 DUP2 MSTORE PUSH1 0x49 PUSH1 0x20 MSTORE PUSH1 0x40 SWAP1 KECCAK256 PUSH1 0x5 ADD SLOAD PUSH2 0x33C3 JUMPI PUSH1 0x40 MLOAD PUSH3 0x461BCD PUSH1 0xE5 SHL DUP2 MSTORE PUSH1 0x4 ADD PUSH2 0xF09 SWAP1 PUSH2 0x579C JUMP JUMPDEST PUSH1 0x1 PUSH1 0x1 PUSH1 0xA0 SHL SUB DUP6 DUP2 AND PUSH1 0x0 SWAP1 DUP2 MSTORE PUSH1 0x49 PUSH1 0x20 MSTORE PUSH1 0x40 SWAP1 KECCAK256 PUSH1 0xC ADD SLOAD DUP2 AND SWAP1 DUP6 AND EQ PUSH2 0x349B JUMPI PUSH1 0x40 MLOAD PUSH3 0x461BCD PUSH1 0xE5 SHL DUP2 MSTORE PUSH1 0x4 ADD PUSH2 0xF09 SWAP1 PUSH2 0x579C JUMP JUMPDEST PUSH1 0x1 PUSH1 0x1 PUSH1 0xA0 SHL SUB DUP6 AND PUSH1 0x0 SWAP1 DUP2 MSTORE PUSH1 0x49 PUSH1 0x20 MSTORE PUSH1 0x40 SWAP1 KECCAK256 PUSH1 0x5 ADD SLOAD DUP1 ISZERO PUSH2 0x34F3 JUMPI PUSH2 0x2710 DUP5 LT ISZERO PUSH2 0x34EE JUMPI PUSH1 0x8 SLOAD PUSH1 0x64 MUL DUP2 DUP6 SUB LT ISZERO PUSH2 0x34EE JUMPI PUSH1 0x40 MLOAD PUSH3 0x461BCD PUSH1 0xE5 SHL DUP2 MSTORE PUSH1 0x4 ADD PUSH2 0xF09 SWAP1 PUSH2 0x57C7 JUMP JUMPDEST PUSH2 0x3518 JUMP JUMPDEST PUSH1 0x8 SLOAD PUSH1 0xC8 MUL DUP5 LT ISZERO PUSH2 0x3518 JUMPI PUSH1 0x40 MLOAD PUSH3 0x461BCD PUSH1 0xE5 SHL DUP2 MSTORE PUSH1 0x4 ADD PUSH2 0xF09 SWAP1 PUSH2 0x5B03 JUMP JUMPDEST PUSH1 0x0 PUSH2 0x3523 DUP6 PUSH2 0x1BE9 JUMP JUMPDEST SWAP1 POP DUP1 PUSH2 0x352F DUP9 PUSH2 0x1A61 JUMP JUMPDEST LT ISZERO PUSH2 0x354D JUMPI PUSH1 0x40 MLOAD PUSH3 0x461BCD PUSH1 0xE5 SHL DUP2 MSTORE PUSH1 0x4 ADD PUSH2 0xF09 SWAP1 PUSH2 0x5852 JUMP JUMPDEST PUSH1 0x7 SLOAD PUSH2 0x356A SWAP1 PUSH2 0x100 SWAP1 DIV PUSH1 0x1 PUSH1 0x1 PUSH1 0xA0 SHL SUB AND DUP9 ADDRESS DUP9 PUSH2 0x4B6A JUMP JUMPDEST PUSH2 0x3574 DUP8 DUP3 PUSH2 0x2CD1 JUMP JUMPDEST PUSH1 0x19 DUP1 SLOAD DUP3 ADD SWAP1 SSTORE PUSH1 0x1 PUSH1 0x1 PUSH1 0xA0 SHL SUB DUP8 AND PUSH1 0x0 SWAP1 DUP2 MSTORE PUSH1 0x49 PUSH1 0x20 MSTORE PUSH1 0x40 SWAP1 KECCAK256 PUSH1 0x6 DUP2 ADD SLOAD PUSH2 0x3964 JUMPI PUSH1 0x0 PUSH2 0x35A7 PUSH2 0x4C53 JUMP JUMPDEST PUSH1 0x18 SLOAD SWAP1 SWAP2 POP PUSH1 0x1 PUSH1 0x20 SHL SWAP1 DIV PUSH4 0xFFFFFFFF AND PUSH1 0x1 EQ ISZERO PUSH2 0x3608 JUMPI PUSH1 0x1 DUP3 ADD DUP1 SLOAD PUSH1 0xFF PUSH1 0x30 SHL NOT AND SWAP1 SSTORE PUSH1 0x47 DUP1 SLOAD PUSH1 0x1 PUSH1 0x1 PUSH1 0xA0 SHL SUB DUP12 DUP2 AND PUSH1 0x1 PUSH1 0x1 PUSH1 0xA0 SHL SUB NOT SWAP3 DUP4 AND OR SWAP1 SWAP3 SSTORE PUSH1 0xD DUP5 ADD DUP1 SLOAD SWAP3 DUP12 AND SWAP3 SWAP1 SWAP2 AND SWAP2 SWAP1 SWAP2 OR SWAP1 SSTORE PUSH2 0x385E JUMP JUMPDEST PUSH1 0x18 SLOAD PUSH1 0x5 PUSH1 0x1 PUSH1 0x40 SHL SWAP1 SWAP2 DIV PUSH2 0xFFFF AND LT ISZERO PUSH2 0x36A3 JUMPI PUSH1 0xD DUP3 ADD DUP1 SLOAD PUSH1 0x1 PUSH1 0x1 PUSH1 0xA0 SHL SUB NOT AND PUSH1 0x1 PUSH1 0x1 PUSH1 0xA0 SHL SUB DUP11 AND OR SWAP1 SSTORE PUSH1 0x1 DUP1 DUP4 ADD DUP1 SLOAD PUSH1 0xFF PUSH1 0x30 SHL NOT AND PUSH7 0x1000000000000 DUP4 MUL OR SWAP1 SSTORE POP PUSH1 0xD DUP3 ADD SLOAD PUSH1 0x1 PUSH1 0x1 PUSH1 0xA0 SHL SUB SWAP1 DUP2 AND PUSH1 0x0 SWAP1 DUP2 MSTORE PUSH1 0x49 PUSH1 0x20 SWAP1 DUP2 MSTORE PUSH1 0x40 DUP3 KECCAK256 PUSH1 0xE ADD DUP1 SLOAD PUSH1 0x1 DUP2 ADD DUP3 SSTORE SWAP1 DUP4 MSTORE SWAP2 KECCAK256 ADD DUP1 SLOAD PUSH1 0x1 PUSH1 0x1 PUSH1 0xA0 SHL SUB NOT AND SWAP2 DUP12 AND SWAP2 SWAP1 SWAP2 OR SWAP1 SSTORE PUSH2 0x385E JUMP JUMPDEST PUSH1 0x1 PUSH1 0x1 PUSH1 0xA0 SHL SUB DUP9 AND PUSH1 0x0 SWAP1 DUP2 MSTORE PUSH1 0x49 PUSH1 0x20 MSTORE PUSH1 0x40 SWAP1 KECCAK256 PUSH1 0x1 DUP4 DUP2 ADD DUP1 SLOAD PUSH1 0xFF PUSH1 0x30 SHL NOT AND PUSH7 0x2000000000000 OR SWAP1 SSTORE DUP1 DUP3 ADD SLOAD PUSH7 0x1000000000000 SWAP1 DIV PUSH1 0xFF AND PUSH1 0x2 DUP2 GT ISZERO PUSH2 0x36F0 JUMPI INVALID JUMPDEST EQ PUSH2 0x3708 JUMPI PUSH1 0xF DUP2 ADD SLOAD PUSH1 0x1 PUSH1 0x1 PUSH1 0xA0 SHL SUB AND PUSH2 0x370A JUMP JUMPDEST DUP9 JUMPDEST PUSH1 0xF DUP5 ADD DUP1 SLOAD PUSH1 0x1 PUSH1 0x1 PUSH1 0xA0 SHL SUB NOT AND PUSH1 0x1 PUSH1 0x1 PUSH1 0xA0 SHL SUB SWAP3 SWAP1 SWAP3 AND SWAP2 SWAP1 SWAP2 OR SWAP1 SSTORE PUSH1 0xD DUP2 ADD SLOAD PUSH1 0x3 PUSH1 0x1 PUSH1 0xA0 SHL SWAP1 SWAP2 DIV PUSH2 0xFFFF SWAP1 DUP2 AND DUP3 DUP2 DIV SWAP3 SWAP1 MOD SWAP1 DUP2 AND PUSH2 0x3770 JUMPI PUSH1 0xD DUP6 ADD DUP1 SLOAD PUSH1 0x1 PUSH1 0x1 PUSH1 0xA0 SHL SUB NOT AND PUSH1 0x1 PUSH1 0x1 PUSH1 0xA0 SHL SUB DUP14 AND OR SWAP1 SSTORE PUSH2 0x37C3 JUMP JUMPDEST PUSH2 0x37A0 DUP4 PUSH1 0xE ADD DUP4 PUSH2 0xFFFF AND DUP2 SLOAD DUP2 LT PUSH2 0x3786 JUMPI INVALID JUMPDEST PUSH1 0x0 SWAP2 DUP3 MSTORE PUSH1 0x20 SWAP1 SWAP2 KECCAK256 ADD SLOAD PUSH1 0x1 PUSH1 0x1 PUSH1 0xA0 SHL SUB AND PUSH2 0x4D8D JUMP JUMPDEST PUSH1 0xD DUP7 ADD DUP1 SLOAD PUSH1 0x1 PUSH1 0x1 PUSH1 0xA0 SHL SUB NOT AND PUSH1 0x1 PUSH1 0x1 PUSH1 0xA0 SHL SUB SWAP3 SWAP1 SWAP3 AND SWAP2 SWAP1 SWAP2 OR SWAP1 SSTORE JUMPDEST PUSH1 0xD DUP1 DUP5 ADD DUP1 SLOAD PUSH1 0x1 PUSH2 0xFFFF PUSH1 0x1 PUSH1 0xA0 SHL DUP1 DUP5 DIV DUP3 AND SWAP3 SWAP1 SWAP3 ADD AND MUL PUSH2 0xFFFF PUSH1 0xA0 SHL NOT SWAP1 SWAP2 AND OR SWAP1 SSTORE DUP6 ADD SLOAD PUSH1 0x1 PUSH1 0x1 PUSH1 0xA0 SHL SUB AND PUSH2 0x3814 JUMPI PUSH1 0x40 MLOAD PUSH3 0x461BCD PUSH1 0xE5 SHL DUP2 MSTORE PUSH1 0x4 ADD PUSH2 0xF09 SWAP1 PUSH2 0x590C JUMP JUMPDEST POP POP POP PUSH1 0xD DUP3 ADD SLOAD PUSH1 0x1 PUSH1 0x1 PUSH1 0xA0 SHL SUB SWAP1 DUP2 AND PUSH1 0x0 SWAP1 DUP2 MSTORE PUSH1 0x49 PUSH1 0x20 SWAP1 DUP2 MSTORE PUSH1 0x40 DUP3 KECCAK256 PUSH1 0xE ADD DUP1 SLOAD PUSH1 0x1 DUP2 ADD DUP3 SSTORE SWAP1 DUP4 MSTORE SWAP2 KECCAK256 ADD DUP1 SLOAD PUSH1 0x1 PUSH1 0x1 PUSH1 0xA0 SHL SUB NOT AND SWAP2 DUP12 AND SWAP2 SWAP1 SWAP2 OR SWAP1 SSTORE JUMPDEST PUSH4 0x6034E8B DUP6 ADD PUSH4 0xFFFFFFFF SWAP1 DUP2 AND DUP4 SSTORE PUSH1 0xC DUP4 ADD DUP1 SLOAD PUSH1 0x1 PUSH1 0x1 PUSH1 0xA0 SHL SUB NOT AND PUSH1 0x1 PUSH1 0x1 PUSH1 0xA0 SHL SUB DUP12 AND OR SWAP1 SSTORE PUSH1 0x1 DUP4 ADD DUP1 SLOAD PUSH4 0xFFFFFFFF NOT AND SWAP2 DUP4 AND SWAP2 DUP3 OR DUP1 DUP3 SSTORE PUSH1 0x18 SLOAD PUSH6 0xFFFF00000000 NOT SWAP1 SWAP2 AND PUSH1 0x1 PUSH1 0x40 SHL SWAP1 SWAP2 DIV PUSH2 0xFFFF AND PUSH1 0x1 PUSH1 0x20 SHL MUL OR SWAP1 SSTORE PUSH1 0xA DUP4 ADD DUP9 SWAP1 SSTORE PUSH1 0xD DUP4 ADD DUP1 SLOAD PUSH2 0xFFFF PUSH1 0xA0 SHL NOT AND SWAP1 SSTORE PUSH3 0x7AAE7 LT ISZERO PUSH2 0x3915 JUMPI PUSH4 0xFFFFFFFF DUP2 AND PUSH1 0x0 SWAP1 DUP2 MSTORE PUSH1 0x48 PUSH1 0x20 MSTORE PUSH1 0x40 SWAP1 KECCAK256 DUP1 SLOAD PUSH1 0x1 PUSH1 0x1 PUSH1 0xA0 SHL SUB NOT AND PUSH1 0x1 PUSH1 0x1 PUSH1 0xA0 SHL SUB DUP12 AND OR SWAP1 SSTORE JUMPDEST PUSH1 0x18 SLOAD PUSH1 0x40 MLOAD PUSH32 0x6932AC5F42401E77C40344F612FA5558D62470F6A92606E938A4743C566E6CE8 SWAP2 PUSH2 0x3956 SWAP2 DUP13 SWAP2 PUSH1 0x1 PUSH1 0x20 SHL SWAP1 DIV PUSH4 0xFFFFFFFF AND SWAP1 PUSH2 0x53B9 JUMP JUMPDEST PUSH1 0x40 MLOAD DUP1 SWAP2 SUB SWAP1 LOG1 POP PUSH2 0x39E4 JUMP JUMPDEST PUSH1 0x4 DUP2 ADD SLOAD PUSH1 0xFF AND DUP1 PUSH2 0x397C JUMPI POP DUP1 PUSH1 0x6 ADD SLOAD PUSH1 0x1E SLOAD GT JUMPDEST ISZERO PUSH2 0x3994 JUMPI PUSH1 0x0 PUSH1 0x7 DUP3 ADD DUP2 SWAP1 SSTORE PUSH1 0x8 DUP3 ADD SSTORE PUSH2 0x39D9 JUMP JUMPDEST PUSH1 0x0 DUP1 PUSH2 0x39A0 DUP11 PUSH2 0x1E71 JUMP JUMPDEST POP POP POP SWAP2 POP SWAP2 POP DUP2 ISZERO PUSH2 0x39C0 JUMPI PUSH1 0x0 PUSH1 0x7 DUP5 ADD DUP2 SWAP1 SSTORE PUSH1 0x8 DUP5 ADD SSTORE PUSH2 0x39D6 JUMP JUMPDEST PUSH1 0x7 DUP4 ADD DUP2 SWAP1 SSTORE DUP1 ISZERO PUSH2 0x39D6 JUMPI PUSH2 0x39D6 DUP4 PUSH2 0x4DCE JUMP JUMPDEST POP POP JUMPDEST PUSH1 0xA DUP2 ADD DUP1 SLOAD DUP8 ADD SWAP1 SSTORE JUMPDEST PUSH1 0xF DUP2 ADD SLOAD PUSH1 0x1 PUSH1 0x1 PUSH1 0xA0 SHL SUB AND ISZERO PUSH2 0x3A24 JUMPI PUSH1 0xF DUP2 ADD SLOAD PUSH1 0x1 PUSH1 0x1 PUSH1 0xA0 SHL SUB AND PUSH1 0x0 SWAP1 DUP2 MSTORE PUSH1 0x49 PUSH1 0x20 MSTORE PUSH1 0x40 SWAP1 KECCAK256 PUSH1 0xB ADD DUP1 SLOAD PUSH2 0x3E8 PUSH1 0x28 DUP10 MUL DIV ADD SWAP1 SSTORE JUMPDEST PUSH1 0x5 DUP2 ADD DUP7 SWAP1 SSTORE PUSH1 0x6 DUP2 ADD DUP6 SWAP1 SSTORE PUSH1 0x2 DUP2 ADD DUP1 SLOAD DUP8 ADD SWAP1 SSTORE PUSH1 0xA DUP2 ADD SLOAD PUSH1 0x0 SWAP1 PUSH2 0x3A4D SWAP1 PUSH2 0x2B95 JUMP JUMPDEST SWAP1 POP PUSH2 0x3E8 PUSH1 0x4A PUSH1 0x1 DUP4 SUB PUSH1 0xFF AND DUP2 SLOAD DUP2 LT PUSH2 0x3A65 JUMPI INVALID JUMPDEST SWAP1 PUSH1 0x0 MSTORE PUSH1 0x20 PUSH1 0x0 KECCAK256 SWAP1 PUSH1 0x4 MUL ADD PUSH1 0x3 ADD SLOAD DUP4 PUSH1 0xA ADD SLOAD MUL DUP2 PUSH2 0x3A84 JUMPI INVALID JUMPDEST DIV PUSH1 0x9 DUP4 ADD SSTORE PUSH1 0x1 DUP3 ADD DUP1 SLOAD PUSH1 0xFF DUP1 DUP5 AND PUSH1 0x1 PUSH1 0x38 SHL MUL PUSH1 0xFF PUSH1 0x38 SHL NOT SWAP1 SWAP3 AND SWAP2 SWAP1 SWAP2 OR SWAP1 SWAP2 SSTORE PUSH1 0x4 DUP4 ADD SLOAD AND ISZERO PUSH2 0x3AC3 JUMPI PUSH1 0x4 DUP3 ADD DUP1 SLOAD PUSH1 0xFF NOT AND SWAP1 SSTORE JUMPDEST PUSH1 0x4C DUP1 SLOAD PUSH2 0x3E8 PUSH1 0x12 DUP11 MUL DUP2 SWAP1 DIV SWAP1 SWAP2 ADD SWAP1 SWAP2 SSTORE PUSH1 0x4D DUP1 SLOAD PUSH1 0x20 DUP1 DUP12 MUL DUP5 SWAP1 DIV SWAP1 SWAP2 ADD SWAP1 SWAP2 SSTORE PUSH1 0xB DUP1 SLOAD PUSH1 0x14 DUP12 MUL DUP5 SWAP1 DIV ADD SWAP1 SSTORE PUSH1 0xF DUP1 SLOAD DUP2 DUP12 MUL SWAP4 SWAP1 SWAP4 DIV SWAP3 DUP4 ADD SWAP1 SSTORE PUSH1 0x13 DUP1 SLOAD SWAP1 SWAP3 ADD SWAP1 SWAP2 SSTORE PUSH1 0x1C DUP1 SLOAD DUP10 ADD SWAP1 SSTORE DUP1 SLOAD DUP9 ADD SWAP1 SSTORE PUSH1 0x1D DUP7 SWAP1 SSTORE PUSH1 0x45 SLOAD PUSH1 0x24 EQ ISZERO PUSH2 0x3B96 JUMPI PUSH1 0x1 JUMPDEST PUSH1 0x45 SLOAD DUP2 LT ISZERO PUSH2 0x3B8F JUMPI PUSH1 0x21 PUSH1 0x1 DUP3 SUB PUSH1 0x24 DUP2 LT PUSH2 0x3B4C JUMPI INVALID JUMPDEST ADD SLOAD PUSH1 0x1 PUSH1 0x1 PUSH1 0xA0 SHL SUB AND PUSH1 0x21 PUSH1 0x0 NOT DUP4 ADD PUSH1 0x24 DUP2 LT PUSH2 0x3B68 JUMPI INVALID JUMPDEST ADD DUP1 SLOAD PUSH1 0x1 PUSH1 0x1 PUSH1 0xA0 SHL SUB NOT AND PUSH1 0x1 PUSH1 0x1 PUSH1 0xA0 SHL SUB SWAP3 SWAP1 SWAP3 AND SWAP2 SWAP1 SWAP2 OR SWAP1 SSTORE PUSH1 0x1 ADD PUSH2 0x3B32 JUMP JUMPDEST POP PUSH1 0x23 PUSH1 0x45 SSTORE JUMPDEST DUP9 PUSH1 0x21 PUSH1 0x45 SLOAD PUSH1 0x24 DUP2 LT PUSH2 0x3BA6 JUMPI INVALID JUMPDEST ADD DUP1 SLOAD PUSH1 0x1 PUSH1 0x1 PUSH1 0xA0 SHL SUB NOT AND PUSH1 0x1 PUSH1 0x1 PUSH1 0xA0 SHL SUB SWAP3 SWAP1 SWAP3 AND SWAP2 SWAP1 SWAP2 OR SWAP1 SSTORE PUSH1 0x45 DUP1 SLOAD PUSH1 0x1 ADD SWAP1 SSTORE PUSH2 0x3BD6 PUSH2 0xFB5 JUMP JUMPDEST PUSH2 0x3BDE PUSH2 0x2AAB JUMP JUMPDEST POP POP POP POP POP POP POP POP POP JUMP JUMPDEST PUSH1 0x1 PUSH1 0x1 PUSH1 0xA0 SHL SUB DUP3 AND PUSH1 0x0 SWAP1 DUP2 MSTORE PUSH1 0x49 PUSH1 0x20 MSTORE PUSH1 0x40 DUP2 KECCAK256 DUP2 SWAP1 DUP2 DUP1 DUP1 JUMPDEST PUSH1 0xE DUP5 ADD SLOAD DUP2 LT ISZERO PUSH2 0x3CB4 JUMPI PUSH1 0x0 DUP5 PUSH1 0xE ADD DUP3 DUP2 SLOAD DUP2 LT PUSH2 0x3C24 JUMPI INVALID JUMPDEST PUSH1 0x0 SWAP2 DUP3 MSTORE PUSH1 0x20 DUP3 KECCAK256 ADD SLOAD PUSH1 0xE DUP8 ADD DUP1 SLOAD PUSH1 0x1 PUSH1 0x1 PUSH1 0xA0 SHL SUB SWAP1 SWAP3 AND SWAP4 POP PUSH1 0x49 SWAP2 DUP4 SWAP2 SWAP1 DUP7 SWAP1 DUP2 LT PUSH2 0x3C52 JUMPI INVALID JUMPDEST PUSH1 0x0 SWAP2 DUP3 MSTORE PUSH1 0x20 DUP1 DUP4 KECCAK256 SWAP1 SWAP2 ADD SLOAD PUSH1 0x1 PUSH1 0x1 PUSH1 0xA0 SHL SUB AND DUP4 MSTORE DUP3 ADD SWAP3 SWAP1 SWAP3 MSTORE PUSH1 0x40 ADD SWAP1 KECCAK256 SWAP1 POP PUSH1 0x13 DUP10 LT ISZERO PUSH2 0x3C9C JUMPI PUSH1 0x0 DUP1 PUSH2 0x3C91 DUP5 DUP13 PUSH1 0x1 ADD PUSH2 0x3BE9 JUMP JUMPDEST SWAP8 ADD SWAP7 SWAP6 SWAP1 SWAP6 ADD SWAP5 POP POP JUMPDEST PUSH1 0x2 ADD SLOAD PUSH1 0x1 SWAP5 DUP6 ADD SWAP5 SWAP4 ADD SWAP3 SWAP2 SWAP1 SWAP2 ADD SWAP1 POP PUSH2 0x3C07 JUMP JUMPDEST POP SWAP1 SWAP7 SWAP1 SWAP6 POP SWAP4 POP POP POP POP JUMP JUMPDEST PUSH1 0x0 DUP3 PUSH1 0x6 ADD SLOAD DUP3 LT ISZERO PUSH2 0x3CD7 JUMPI DUP3 PUSH1 0x6 ADD SLOAD SWAP2 POP JUMPDEST PUSH1 0x1F SLOAD DUP3 LT ISZERO PUSH2 0x3CE9 JUMPI POP PUSH1 0x0 PUSH2 0x9D8 JUMP JUMPDEST PUSH1 0x0 PUSH1 0x3C DUP4 TIMESTAMP SUB DUP2 PUSH2 0x3CF7 JUMPI INVALID JUMPDEST DIV SWAP1 POP PUSH1 0x1F SLOAD DUP4 LT PUSH2 0x3D5F JUMPI PUSH3 0x15F900 DUP2 PUSH1 0x4A PUSH1 0x1 DUP8 PUSH1 0x1 ADD PUSH1 0x7 SWAP1 SLOAD SWAP1 PUSH2 0x100 EXP SWAP1 DIV PUSH1 0xFF AND SUB PUSH1 0xFF AND DUP2 SLOAD DUP2 LT PUSH2 0x3D2C JUMPI INVALID JUMPDEST PUSH1 0x0 SWAP2 DUP3 MSTORE PUSH1 0x20 SWAP1 SWAP2 KECCAK256 PUSH1 0x2 PUSH1 0x4 SWAP1 SWAP3 MUL ADD ADD SLOAD PUSH1 0xA DUP8 ADD SLOAD PUSH1 0xFF SWAP1 SWAP2 AND MUL MUL DUP2 PUSH2 0x3D53 JUMPI INVALID JUMPDEST DIV DUP5 PUSH1 0x7 ADD SLOAD ADD PUSH2 0x3D62 JUMP JUMPDEST PUSH1 0x0 JUMPDEST SWAP5 SWAP4 POP POP POP POP JUMP JUMPDEST PUSH2 0x3D72 PUSH2 0x507F JUMP JUMPDEST PUSH1 0x1 PUSH1 0x1 PUSH1 0xA0 SHL SUB DUP6 AND PUSH1 0x0 SWAP1 DUP2 MSTORE PUSH1 0x49 PUSH1 0x20 MSTORE PUSH1 0x40 DUP2 KECCAK256 SWAP1 DUP5 ISZERO ISZERO DUP1 PUSH2 0x3DA6 JUMPI POP PUSH1 0x47 SLOAD PUSH1 0x1 PUSH1 0x1 PUSH1 0xA0 SHL SUB DUP9 DUP2 AND SWAP2 AND EQ JUMPDEST PUSH2 0x3DC7 JUMPI PUSH1 0xD DUP3 ADD SLOAD PUSH1 0x3 SWAP1 PUSH1 0x1 PUSH1 0xA0 SHL SWAP1 DIV PUSH2 0xFFFF AND DIV PUSH2 0xFFFF AND PUSH2 0x3DCD JUMP JUMPDEST PUSH1 0xE DUP3 ADD SLOAD JUMPDEST SWAP1 POP PUSH1 0x0 DUP1 PUSH1 0x0 DUP1 PUSH1 0x0 JUMPDEST DUP6 DUP2 LT ISZERO PUSH2 0x4060 JUMPI PUSH1 0x0 DUP8 PUSH1 0xE ADD DUP3 DUP2 SLOAD DUP2 LT PUSH2 0x3DF1 JUMPI INVALID JUMPDEST PUSH1 0x0 SWAP2 DUP3 MSTORE PUSH1 0x20 DUP3 KECCAK256 ADD SLOAD PUSH1 0xE DUP11 ADD DUP1 SLOAD PUSH1 0x1 PUSH1 0x1 PUSH1 0xA0 SHL SUB SWAP1 SWAP3 AND SWAP4 POP PUSH1 0x49 SWAP2 DUP4 SWAP2 SWAP1 DUP7 SWAP1 DUP2 LT PUSH2 0x3E1F JUMPI INVALID JUMPDEST PUSH1 0x0 SWAP2 DUP3 MSTORE PUSH1 0x20 DUP1 DUP4 KECCAK256 SWAP1 SWAP2 ADD SLOAD PUSH1 0x1 PUSH1 0x1 PUSH1 0xA0 SHL SUB AND DUP4 MSTORE DUP3 ADD SWAP3 SWAP1 SWAP3 MSTORE PUSH1 0x40 ADD SWAP1 KECCAK256 PUSH1 0x4 DUP2 ADD SLOAD SWAP1 SWAP2 POP PUSH1 0xFF AND PUSH2 0x4056 JUMPI PUSH2 0x3E5C DUP2 DUP15 PUSH2 0x3CC1 JUMP JUMPDEST PUSH1 0x1 DUP11 DUP2 ADD SLOAD SWAP2 SWAP9 POP PUSH1 0x1 PUSH1 0x38 SHL SWAP1 SWAP2 DIV PUSH1 0xFF AND LT DUP1 ISZERO SWAP1 PUSH2 0x3E7C JUMPI POP DUP12 ISZERO JUMPDEST ISZERO PUSH2 0x3EDB JUMPI PUSH2 0x3E8 PUSH1 0x46 PUSH1 0x0 DUP2 SLOAD DUP2 LT PUSH2 0x3E92 JUMPI INVALID JUMPDEST SWAP1 PUSH1 0x0 MSTORE PUSH1 0x20 PUSH1 0x0 KECCAK256 ADD PUSH1 0x2 DUP2 SLOAD DUP2 LT PUSH2 0x3EA8 JUMPI INVALID JUMPDEST PUSH1 0x0 SWAP2 DUP3 MSTORE PUSH1 0x20 SWAP2 DUP3 SWAP1 KECCAK256 SWAP2 DUP2 DIV SWAP1 SWAP2 ADD SLOAD PUSH1 0xFF PUSH1 0x1F SWAP1 SWAP3 AND PUSH2 0x100 EXP SWAP1 DIV AND DUP9 MUL DUP2 PUSH2 0x3ED1 JUMPI INVALID JUMPDEST DIV DUP6 ADD SWAP5 POP PUSH2 0x4004 JUMP JUMPDEST PUSH1 0x1 DUP10 DUP2 ADD SLOAD PUSH1 0x1 PUSH1 0x38 SHL SWAP1 DIV PUSH1 0xFF AND LT DUP1 ISZERO SWAP1 PUSH2 0x3EF9 JUMPI POP DUP12 PUSH1 0x1 EQ JUMPDEST ISZERO PUSH2 0x3F0F JUMPI PUSH2 0x3E8 PUSH1 0x46 PUSH1 0x1 DUP2 SLOAD DUP2 LT PUSH2 0x3E92 JUMPI INVALID JUMPDEST PUSH1 0x1 DUP10 ADD SLOAD PUSH1 0x2 PUSH1 0x1 PUSH1 0x38 SHL SWAP1 SWAP2 DIV PUSH1 0xFF AND LT DUP1 ISZERO SWAP1 PUSH2 0x3F30 JUMPI POP PUSH1 0x2 DUP13 LT ISZERO JUMPDEST DUP1 ISZERO PUSH2 0x3F3D JUMPI POP PUSH1 0x6 DUP13 GT ISZERO JUMPDEST ISZERO PUSH2 0x3F53 JUMPI PUSH2 0x3E8 PUSH1 0x46 PUSH1 0x2 DUP2 SLOAD DUP2 LT PUSH2 0x3E92 JUMPI INVALID JUMPDEST PUSH1 0x1 DUP10 ADD SLOAD PUSH1 0x3 PUSH1 0x1 PUSH1 0x38 SHL SWAP1 SWAP2 DIV PUSH1 0xFF AND LT DUP1 ISZERO SWAP1 PUSH2 0x3F74 JUMPI POP PUSH1 0x7 DUP13 LT ISZERO JUMPDEST DUP1 ISZERO PUSH2 0x3F81 JUMPI POP PUSH1 0xF DUP13 GT ISZERO JUMPDEST ISZERO PUSH2 0x3F97 JUMPI PUSH2 0x3E8 PUSH1 0x46 PUSH1 0x3 DUP2 SLOAD DUP2 LT PUSH2 0x3E92 JUMPI INVALID JUMPDEST PUSH1 0x1 DUP10 ADD SLOAD PUSH1 0x4 PUSH1 0x1 PUSH1 0x38 SHL SWAP1 SWAP2 DIV PUSH1 0xFF AND LT PUSH2 0x4004 JUMPI PUSH2 0x3E8 PUSH1 0x46 PUSH1 0x4 DUP2 SLOAD DUP2 LT PUSH2 0x3FBF JUMPI INVALID JUMPDEST SWAP1 PUSH1 0x0 MSTORE PUSH1 0x20 PUSH1 0x0 KECCAK256 ADD PUSH1 0x2 DUP2 SLOAD DUP2 LT PUSH2 0x3FD5 JUMPI INVALID JUMPDEST PUSH1 0x0 SWAP2 DUP3 MSTORE PUSH1 0x20 SWAP2 DUP3 SWAP1 KECCAK256 SWAP2 DUP2 DIV SWAP1 SWAP2 ADD SLOAD PUSH1 0xFF PUSH1 0x1F SWAP1 SWAP3 AND PUSH2 0x100 EXP SWAP1 DIV AND DUP9 MUL DUP2 PUSH2 0x3FFE JUMPI INVALID JUMPDEST DIV DUP6 ADD SWAP5 POP JUMPDEST PUSH1 0x1 DUP12 SUB DUP13 LT ISZERO PUSH2 0x4045 JUMPI PUSH2 0x4017 PUSH2 0x507F JUMP JUMPDEST PUSH2 0x4026 DUP4 DUP16 DUP16 PUSH1 0x1 ADD DUP16 PUSH2 0x3D6A JUMP JUMPDEST SWAP1 POP DUP1 PUSH1 0x0 ADD MLOAD DUP6 ADD SWAP5 POP DUP1 PUSH1 0x20 ADD MLOAD DUP8 ADD SWAP7 POP DUP1 PUSH1 0x40 ADD MLOAD DUP7 ADD SWAP6 POP POP JUMPDEST PUSH1 0x2 DUP2 ADD SLOAD SWAP6 SWAP1 SWAP6 ADD SWAP5 PUSH1 0x1 SWAP1 SWAP4 ADD SWAP3 JUMPDEST POP POP PUSH1 0x1 ADD PUSH2 0x3DD8 JUMP JUMPDEST POP PUSH1 0x40 DUP1 MLOAD PUSH1 0x60 DUP2 ADD DUP3 MSTORE SWAP2 DUP3 MSTORE PUSH1 0x20 DUP3 ADD SWAP4 SWAP1 SWAP4 MSTORE SWAP2 DUP3 ADD MSTORE SWAP9 SWAP8 POP POP POP POP POP POP POP POP JUMP JUMPDEST PUSH1 0x0 PUSH1 0x17 SLOAD PUSH1 0x9 SLOAD DUP4 MUL DUP2 PUSH2 0x4097 JUMPI INVALID JUMPDEST PUSH1 0x53 SLOAD PUSH1 0x7 SLOAD SWAP3 SWAP1 SWAP2 DIV SWAP3 POP DUP3 SWAP2 PUSH1 0x0 SWAP2 SWAP1 PUSH2 0x40C3 SWAP1 PUSH2 0x100 SWAP1 DIV PUSH1 0x1 PUSH1 0x1 PUSH1 0xA0 SHL SUB AND DUP8 ADDRESS DUP9 PUSH2 0x4B6A JUMP JUMPDEST PUSH1 0x0 JUMPDEST PUSH1 0x52 SLOAD DUP2 LT ISZERO PUSH2 0x4274 JUMPI PUSH1 0x0 PUSH1 0x52 DUP3 DUP2 SLOAD DUP2 LT PUSH2 0x40DF JUMPI INVALID JUMPDEST SWAP1 PUSH1 0x0 MSTORE PUSH1 0x20 PUSH1 0x0 KECCAK256 SWAP1 PUSH1 0x4 MUL ADD SWAP1 POP DUP5 DUP2 PUSH1 0x3 ADD SLOAD LT PUSH2 0x41B6 JUMPI PUSH1 0x0 PUSH1 0x9 SLOAD PUSH2 0x3E8 MUL PUSH1 0x17 SLOAD DUP8 MUL PUSH2 0x3E6 MUL DUP2 PUSH2 0x4113 JUMPI INVALID JUMPDEST PUSH1 0x7 SLOAD PUSH1 0x1 DUP6 ADD SLOAD SWAP3 SWAP1 SWAP2 DIV SWAP3 POP PUSH2 0x413D SWAP2 PUSH1 0x1 PUSH1 0x1 PUSH1 0xA0 SHL SUB PUSH2 0x100 SWAP1 SWAP3 DIV DUP3 AND SWAP2 AND DUP4 PUSH2 0x2BE3 JUMP JUMPDEST PUSH1 0x40 DUP1 MLOAD PUSH1 0x80 DUP2 ADD DUP3 MSTORE PUSH2 0x2711 DUP7 ADD DUP2 MSTORE PUSH1 0x0 PUSH1 0x20 DUP3 ADD DUP2 SWAP1 MSTORE SWAP2 DUP2 ADD DUP9 SWAP1 MSTORE TIMESTAMP PUSH1 0x60 DUP3 ADD MSTORE PUSH1 0x53 DUP1 SLOAD PUSH1 0x1 DUP2 DUP2 ADD DUP4 SSTORE SWAP2 SWAP1 SWAP4 MSTORE SWAP1 SWAP6 ADD SWAP5 PUSH2 0x4192 SWAP2 PUSH1 0x0 DUP1 MLOAD PUSH1 0x20 PUSH2 0x5C99 DUP4 CODECOPY DUP2 MLOAD SWAP2 MSTORE ADD SWAP1 PUSH1 0x4 PUSH2 0x50A0 JUMP JUMPDEST POP PUSH1 0x3 DUP3 ADD DUP1 SLOAD SWAP7 SWAP1 SWAP7 SUB SWAP6 DUP7 SWAP1 SSTORE PUSH1 0x0 SWAP6 PUSH2 0x41AF JUMPI PUSH1 0x1 SWAP1 SWAP5 ADD SWAP4 JUMPDEST POP POP PUSH2 0x4274 JUMP JUMPDEST PUSH1 0x0 PUSH1 0x9 SLOAD PUSH2 0x3E8 MUL PUSH1 0x17 SLOAD DUP4 PUSH1 0x3 ADD SLOAD MUL PUSH2 0x3E6 MUL DUP2 PUSH2 0x41D3 JUMPI INVALID JUMPDEST PUSH1 0x7 SLOAD PUSH1 0x1 DUP6 ADD SLOAD SWAP3 SWAP1 SWAP2 DIV SWAP3 POP PUSH2 0x41FD SWAP2 PUSH1 0x1 PUSH1 0x1 PUSH1 0xA0 SHL SUB PUSH2 0x100 SWAP1 SWAP3 DIV DUP3 AND SWAP2 AND DUP4 PUSH2 0x2BE3 JUMP JUMPDEST PUSH1 0x40 DUP1 MLOAD PUSH1 0x80 DUP2 ADD DUP3 MSTORE PUSH2 0x2711 DUP7 ADD DUP2 MSTORE PUSH1 0x0 PUSH1 0x20 DUP3 ADD DUP2 SWAP1 MSTORE PUSH1 0x3 DUP6 ADD SLOAD SWAP3 DUP3 ADD SWAP3 SWAP1 SWAP3 MSTORE TIMESTAMP PUSH1 0x60 DUP3 ADD MSTORE PUSH1 0x53 DUP1 SLOAD PUSH1 0x1 DUP2 DUP2 ADD DUP4 SSTORE SWAP2 SWAP1 SWAP4 MSTORE SWAP1 SWAP6 ADD SWAP5 PUSH2 0x4258 SWAP2 PUSH1 0x0 DUP1 MLOAD PUSH1 0x20 PUSH2 0x5C99 DUP4 CODECOPY DUP2 MLOAD SWAP2 MSTORE ADD SWAP1 PUSH1 0x4 PUSH2 0x50A0 JUMP JUMPDEST POP POP PUSH1 0x3 ADD DUP1 SLOAD PUSH1 0x0 SWAP1 SWAP2 SSTORE SWAP1 SWAP4 SUB SWAP3 PUSH1 0x1 SWAP3 DUP4 ADD SWAP3 ADD PUSH2 0x40C6 JUMP JUMPDEST POP DUP2 ISZERO PUSH2 0x43E6 JUMPI DUP2 JUMPDEST PUSH1 0x52 SLOAD DUP2 LT ISZERO PUSH2 0x438A JUMPI PUSH1 0x52 DUP2 DUP2 SLOAD DUP2 LT PUSH2 0x4294 JUMPI INVALID JUMPDEST SWAP1 PUSH1 0x0 MSTORE PUSH1 0x20 PUSH1 0x0 KECCAK256 SWAP1 PUSH1 0x4 MUL ADD PUSH1 0x1 ADD PUSH1 0x0 SWAP1 SLOAD SWAP1 PUSH2 0x100 EXP SWAP1 DIV PUSH1 0x1 PUSH1 0x1 PUSH1 0xA0 SHL SUB AND PUSH1 0x52 DUP5 DUP4 SUB DUP2 SLOAD DUP2 LT PUSH2 0x42C8 JUMPI INVALID JUMPDEST SWAP1 PUSH1 0x0 MSTORE PUSH1 0x20 PUSH1 0x0 KECCAK256 SWAP1 PUSH1 0x4 MUL ADD PUSH1 0x1 ADD PUSH1 0x0 PUSH2 0x100 EXP DUP2 SLOAD DUP2 PUSH1 0x1 PUSH1 0x1 PUSH1 0xA0 SHL SUB MUL NOT AND SWAP1 DUP4 PUSH1 0x1 PUSH1 0x1 PUSH1 0xA0 SHL SUB AND MUL OR SWAP1 SSTORE POP PUSH1 0x52 DUP2 DUP2 SLOAD DUP2 LT PUSH2 0x430A JUMPI INVALID JUMPDEST SWAP1 PUSH1 0x0 MSTORE PUSH1 0x20 PUSH1 0x0 KECCAK256 SWAP1 PUSH1 0x4 MUL ADD PUSH1 0x2 ADD SLOAD PUSH1 0x52 DUP5 DUP4 SUB DUP2 SLOAD DUP2 LT PUSH2 0x432B JUMPI INVALID JUMPDEST SWAP1 PUSH1 0x0 MSTORE PUSH1 0x20 PUSH1 0x0 KECCAK256 SWAP1 PUSH1 0x4 MUL ADD PUSH1 0x2 ADD DUP2 SWAP1 SSTORE POP PUSH1 0x52 DUP2 DUP2 SLOAD DUP2 LT PUSH2 0x434D JUMPI INVALID JUMPDEST SWAP1 PUSH1 0x0 MSTORE PUSH1 0x20 PUSH1 0x0 KECCAK256 SWAP1 PUSH1 0x4 MUL ADD PUSH1 0x3 ADD SLOAD PUSH1 0x52 DUP5 DUP4 SUB DUP2 SLOAD DUP2 LT PUSH2 0x436E JUMPI INVALID JUMPDEST PUSH1 0x0 SWAP2 DUP3 MSTORE PUSH1 0x20 SWAP1 SWAP2 KECCAK256 PUSH1 0x3 PUSH1 0x4 SWAP1 SWAP3 MUL ADD ADD SSTORE PUSH1 0x1 ADD PUSH2 0x427D JUMP JUMPDEST POP PUSH1 0x0 JUMPDEST DUP3 DUP2 LT ISZERO PUSH2 0x43E4 JUMPI PUSH1 0x52 DUP1 SLOAD DUP1 PUSH2 0x43A1 JUMPI INVALID JUMPDEST PUSH1 0x0 DUP3 DUP2 MSTORE PUSH1 0x20 DUP2 KECCAK256 PUSH1 0x4 PUSH1 0x0 NOT SWAP1 SWAP4 ADD SWAP3 DUP4 MUL ADD DUP2 DUP2 SSTORE PUSH1 0x1 DUP2 DUP2 ADD DUP1 SLOAD PUSH1 0x1 PUSH1 0x1 PUSH1 0xA0 SHL SUB NOT AND SWAP1 SSTORE PUSH1 0x2 DUP3 ADD DUP4 SWAP1 SSTORE PUSH1 0x3 SWAP1 SWAP2 ADD SWAP2 SWAP1 SWAP2 SSTORE SWAP2 SSTORE ADD PUSH2 0x438E JUMP JUMPDEST POP JUMPDEST DUP3 ISZERO PUSH2 0x4551 JUMPI PUSH1 0x51 SLOAD PUSH1 0x64 GT PUSH2 0x440E JUMPI PUSH1 0x40 MLOAD PUSH3 0x461BCD PUSH1 0xE5 SHL DUP2 MSTORE PUSH1 0x4 ADD PUSH2 0xF09 SWAP1 PUSH2 0x596B JUMP JUMPDEST PUSH1 0x0 PUSH1 0x9 SLOAD PUSH1 0x17 SLOAD DUP6 MUL DUP2 PUSH2 0x441F JUMPI INVALID JUMPDEST PUSH1 0x40 DUP1 MLOAD PUSH1 0x80 DUP2 ADD DUP3 MSTORE TIMESTAMP DUP2 MSTORE PUSH1 0x1 PUSH1 0x1 PUSH1 0xA0 SHL SUB DUP12 DUP2 AND PUSH1 0x20 DUP4 ADD SWAP1 DUP2 MSTORE DUP3 DUP5 ADD DUP13 DUP2 MSTORE SWAP6 SWAP1 SWAP5 DIV PUSH1 0x60 DUP4 ADD DUP2 DUP2 MSTORE PUSH1 0x51 DUP1 SLOAD PUSH1 0x1 DUP2 ADD DUP3 SSTORE PUSH1 0x0 SWAP2 SWAP1 SWAP2 MSTORE SWAP4 MLOAD PUSH32 0x994A4B4EDDB300691EE19901712848B1114BAD8A1A4AE195E5ABE0EC38021B94 PUSH1 0x4 SWAP1 SWAP6 MUL SWAP5 DUP6 ADD SSTORE SWAP5 MLOAD PUSH32 0x994A4B4EDDB300691EE19901712848B1114BAD8A1A4AE195E5ABE0EC38021B95 DUP5 ADD DUP1 SLOAD PUSH1 0x1 PUSH1 0x1 PUSH1 0xA0 SHL SUB NOT AND SWAP2 SWAP1 SWAP4 AND OR SWAP1 SWAP2 SSTORE SWAP4 MLOAD PUSH32 0x994A4B4EDDB300691EE19901712848B1114BAD8A1A4AE195E5ABE0EC38021B96 DUP3 ADD SSTORE SWAP2 MLOAD PUSH32 0x994A4B4EDDB300691EE19901712848B1114BAD8A1A4AE195E5ABE0EC38021B97 SWAP1 SWAP3 ADD SWAP2 SWAP1 SWAP2 SSTORE MLOAD SWAP1 SWAP2 POP PUSH32 0x2E63B61ED93A328967F80B447BC296CC3344B0B4CF419C417E252DD66AF4C762 SWAP1 PUSH2 0x4547 SWAP1 DUP10 SWAP1 DUP5 SWAP1 PUSH2 0x53A0 JUMP JUMPDEST PUSH1 0x40 MLOAD DUP1 SWAP2 SUB SWAP1 LOG1 POP JUMPDEST DUP3 DUP5 SUB ISZERO PUSH2 0x1719 JUMPI PUSH2 0x1719 ADDRESS DUP8 DUP6 DUP8 SUB PUSH2 0x2894 JUMP JUMPDEST PUSH1 0x0 PUSH1 0x9 SLOAD PUSH1 0x17 SLOAD DUP4 MUL DUP2 PUSH2 0x4577 JUMPI INVALID JUMPDEST PUSH1 0x53 SLOAD SWAP2 SWAP1 DIV SWAP2 POP DUP2 SWAP1 PUSH1 0x0 SWAP1 PUSH2 0x458F DUP7 ADDRESS DUP8 PUSH2 0x2894 JUMP JUMPDEST PUSH1 0x0 JUMPDEST PUSH1 0x51 SLOAD DUP2 LT ISZERO PUSH2 0x4716 JUMPI PUSH1 0x0 PUSH1 0x51 DUP3 DUP2 SLOAD DUP2 LT PUSH2 0x45AB JUMPI INVALID JUMPDEST SWAP1 PUSH1 0x0 MSTORE PUSH1 0x20 PUSH1 0x0 KECCAK256 SWAP1 PUSH1 0x4 MUL ADD SWAP1 POP DUP5 DUP2 PUSH1 0x3 ADD SLOAD LT PUSH2 0x4670 JUMPI PUSH1 0x0 PUSH1 0x17 SLOAD PUSH1 0x9 SLOAD DUP8 MUL DUP2 PUSH2 0x45D7 JUMPI INVALID JUMPDEST PUSH1 0x1 DUP5 ADD SLOAD SWAP2 SWAP1 DIV SWAP2 POP PUSH2 0x45F6 SWAP1 ADDRESS SWAP1 PUSH1 0x1 PUSH1 0x1 PUSH1 0xA0 SHL SUB AND DUP4 PUSH2 0x2894 JUMP JUMPDEST PUSH1 0x40 DUP1 MLOAD PUSH1 0x80 DUP2 ADD DUP3 MSTORE PUSH2 0x2711 DUP7 ADD DUP2 MSTORE PUSH1 0x1 PUSH1 0x20 DUP3 ADD DUP2 SWAP1 MSTORE SWAP2 DUP2 ADD DUP4 SWAP1 MSTORE TIMESTAMP PUSH1 0x60 DUP3 ADD MSTORE PUSH1 0x53 DUP1 SLOAD DUP1 DUP5 ADD DUP3 SSTORE PUSH1 0x0 SWAP2 SWAP1 SWAP2 MSTORE SWAP2 SWAP1 SWAP6 ADD SWAP5 PUSH2 0x464C SWAP2 PUSH1 0x0 DUP1 MLOAD PUSH1 0x20 PUSH2 0x5C99 DUP4 CODECOPY DUP2 MLOAD SWAP2 MSTORE ADD SWAP1 PUSH1 0x4 PUSH2 0x50A0 JUMP JUMPDEST POP PUSH1 0x3 DUP3 ADD DUP1 SLOAD SWAP7 SWAP1 SWAP7 SUB SWAP6 DUP7 SWAP1 SSTORE PUSH1 0x0 SWAP6 PUSH2 0x4669 JUMPI PUSH1 0x1 SWAP1 SWAP5 ADD SWAP4 JUMPDEST POP POP PUSH2 0x4716 JUMP JUMPDEST PUSH1 0x0 PUSH1 0x17 SLOAD PUSH1 0x9 SLOAD DUP4 PUSH1 0x3 ADD SLOAD MUL DUP2 PUSH2 0x4685 JUMPI INVALID JUMPDEST PUSH1 0x1 DUP5 ADD SLOAD SWAP2 SWAP1 DIV SWAP2 POP PUSH2 0x46A4 SWAP1 ADDRESS SWAP1 PUSH1 0x1 PUSH1 0x1 PUSH1 0xA0 SHL SUB AND DUP4 PUSH2 0x2894 JUMP JUMPDEST PUSH1 0x40 DUP1 MLOAD PUSH1 0x80 DUP2 ADD DUP3 MSTORE PUSH2 0x2711 DUP7 ADD DUP2 MSTORE PUSH1 0x1 PUSH1 0x20 DUP3 ADD DUP2 SWAP1 MSTORE SWAP2 DUP2 ADD DUP4 SWAP1 MSTORE TIMESTAMP PUSH1 0x60 DUP3 ADD MSTORE PUSH1 0x53 DUP1 SLOAD DUP1 DUP5 ADD DUP3 SSTORE PUSH1 0x0 SWAP2 SWAP1 SWAP2 MSTORE SWAP2 SWAP1 SWAP6 ADD SWAP5 PUSH2 0x46FA SWAP2 PUSH1 0x0 DUP1 MLOAD PUSH1 0x20 PUSH2 0x5C99 DUP4 CODECOPY DUP2 MLOAD SWAP2 MSTORE ADD SWAP1 PUSH1 0x4 PUSH2 0x50A0 JUMP JUMPDEST POP POP PUSH1 0x3 ADD DUP1 SLOAD PUSH1 0x0 SWAP1 SWAP2 SSTORE SWAP1 SWAP4 SUB SWAP3 PUSH1 0x1 SWAP3 DUP4 ADD SWAP3 ADD PUSH2 0x4592 JUMP JUMPDEST POP DUP2 ISZERO PUSH2 0x4888 JUMPI DUP2 JUMPDEST PUSH1 0x51 SLOAD DUP2 LT ISZERO PUSH2 0x482C JUMPI PUSH1 0x51 DUP2 DUP2 SLOAD DUP2 LT PUSH2 0x4736 JUMPI INVALID JUMPDEST SWAP1 PUSH1 0x0 MSTORE PUSH1 0x20 PUSH1 0x0 KECCAK256 SWAP1 PUSH1 0x4 MUL ADD PUSH1 0x1 ADD PUSH1 0x0 SWAP1 SLOAD SWAP1 PUSH2 0x100 EXP SWAP1 DIV PUSH1 0x1 PUSH1 0x1 PUSH1 0xA0 SHL SUB AND PUSH1 0x51 DUP5 DUP4 SUB DUP2 SLOAD DUP2 LT PUSH2 0x476A JUMPI INVALID JUMPDEST SWAP1 PUSH1 0x0 MSTORE PUSH1 0x20 PUSH1 0x0 KECCAK256 SWAP1 PUSH1 0x4 MUL ADD PUSH1 0x1 ADD PUSH1 0x0 PUSH2 0x100 EXP DUP2 SLOAD DUP2 PUSH1 0x1 PUSH1 0x1 PUSH1 0xA0 SHL SUB MUL NOT AND SWAP1 DUP4 PUSH1 0x1 PUSH1 0x1 PUSH1 0xA0 SHL SUB AND MUL OR SWAP1 SSTORE POP PUSH1 0x51 DUP2 DUP2 SLOAD DUP2 LT PUSH2 0x47AC JUMPI INVALID JUMPDEST SWAP1 PUSH1 0x0 MSTORE PUSH1 0x20 PUSH1 0x0 KECCAK256 SWAP1 PUSH1 0x4 MUL ADD PUSH1 0x2 ADD SLOAD PUSH1 0x51 DUP5 DUP4 SUB DUP2 SLOAD DUP2 LT PUSH2 0x47CD JUMPI INVALID JUMPDEST SWAP1 PUSH1 0x0 MSTORE PUSH1 0x20 PUSH1 0x0 KECCAK256 SWAP1 PUSH1 0x4 MUL ADD PUSH1 0x2 ADD DUP2 SWAP1 SSTORE POP PUSH1 0x51 DUP2 DUP2 SLOAD DUP2 LT PUSH2 0x47EF JUMPI INVALID JUMPDEST SWAP1 PUSH1 0x0 MSTORE PUSH1 0x20 PUSH1 0x0 KECCAK256 SWAP1 PUSH1 0x4 MUL ADD PUSH1 0x3 ADD SLOAD PUSH1 0x51 DUP5 DUP4 SUB DUP2 SLOAD DUP2 LT PUSH2 0x4810 JUMPI INVALID JUMPDEST PUSH1 0x0 SWAP2 DUP3 MSTORE PUSH1 0x20 SWAP1 SWAP2 KECCAK256 PUSH1 0x3 PUSH1 0x4 SWAP1 SWAP3 MUL ADD ADD SSTORE PUSH1 0x1 ADD PUSH2 0x471F JUMP JUMPDEST POP PUSH1 0x0 JUMPDEST DUP3 DUP2 LT ISZERO PUSH2 0x4886 JUMPI PUSH1 0x51 DUP1 SLOAD DUP1 PUSH2 0x4843 JUMPI INVALID JUMPDEST PUSH1 0x0 DUP3 DUP2 MSTORE PUSH1 0x20 DUP2 KECCAK256 PUSH1 0x4 PUSH1 0x0 NOT SWAP1 SWAP4 ADD SWAP3 DUP4 MUL ADD DUP2 DUP2 SSTORE PUSH1 0x1 DUP2 DUP2 ADD DUP1 SLOAD PUSH1 0x1 PUSH1 0x1 PUSH1 0xA0 SHL SUB NOT AND SWAP1 SSTORE PUSH1 0x2 DUP3 ADD DUP4 SWAP1 SSTORE PUSH1 0x3 SWAP1 SWAP2 ADD SWAP2 SWAP1 SWAP2 SSTORE SWAP2 SSTORE ADD PUSH2 0x4830 JUMP JUMPDEST POP JUMPDEST DUP3 ISZERO PUSH2 0x49F3 JUMPI PUSH1 0x51 SLOAD PUSH1 0x64 GT PUSH2 0x48B0 JUMPI PUSH1 0x40 MLOAD PUSH3 0x461BCD PUSH1 0xE5 SHL DUP2 MSTORE PUSH1 0x4 ADD PUSH2 0xF09 SWAP1 PUSH2 0x596B JUMP JUMPDEST PUSH1 0x0 PUSH1 0x17 SLOAD PUSH1 0x9 SLOAD DUP6 MUL DUP2 PUSH2 0x48C1 JUMPI INVALID JUMPDEST PUSH1 0x40 DUP1 MLOAD PUSH1 0x80 DUP2 ADD DUP3 MSTORE TIMESTAMP DUP2 MSTORE PUSH1 0x1 PUSH1 0x1 PUSH1 0xA0 SHL SUB DUP12 DUP2 AND PUSH1 0x20 DUP4 ADD SWAP1 DUP2 MSTORE DUP3 DUP5 ADD DUP13 DUP2 MSTORE SWAP6 SWAP1 SWAP5 DIV PUSH1 0x60 DUP4 ADD DUP2 DUP2 MSTORE PUSH1 0x52 DUP1 SLOAD PUSH1 0x1 DUP2 ADD DUP3 SSTORE PUSH1 0x0 SWAP2 SWAP1 SWAP2 MSTORE SWAP4 MLOAD PUSH32 0xA9144A5E7EFD259B8B0D55467F4696ED47EC83317D61501B76366DBCCA65CE73 PUSH1 0x4 SWAP1 SWAP6 MUL SWAP5 DUP6 ADD SSTORE SWAP5 MLOAD PUSH32 0xA9144A5E7EFD259B8B0D55467F4696ED47EC83317D61501B76366DBCCA65CE74 DUP5 ADD DUP1 SLOAD PUSH1 0x1 PUSH1 0x1 PUSH1 0xA0 SHL SUB NOT AND SWAP2 SWAP1 SWAP4 AND OR SWAP1 SWAP2 SSTORE SWAP4 MLOAD PUSH32 0xA9144A5E7EFD259B8B0D55467F4696ED47EC83317D61501B76366DBCCA65CE75 DUP3 ADD SSTORE SWAP2 MLOAD PUSH32 0xA9144A5E7EFD259B8B0D55467F4696ED47EC83317D61501B76366DBCCA65CE76 SWAP1 SWAP3 ADD SWAP2 SWAP1 SWAP2 SSTORE MLOAD SWAP1 SWAP2 POP PUSH32 0xE52393FB0BC93D5EDF3DDB6EF44887D82B0B9553466F447CB9B8B409087E9705 SWAP1 PUSH2 0x49E9 SWAP1 DUP10 SWAP1 DUP5 SWAP1 PUSH2 0x53A0 JUMP JUMPDEST PUSH1 0x40 MLOAD DUP1 SWAP2 SUB SWAP1 LOG1 POP JUMPDEST DUP3 DUP5 SUB ISZERO PUSH2 0x1719 JUMPI PUSH1 0x7 SLOAD PUSH2 0x1719 SWAP1 PUSH2 0x100 SWAP1 DIV PUSH1 0x1 PUSH1 0x1 PUSH1 0xA0 SHL SUB AND DUP8 PUSH2 0x3E8 DUP7 DUP9 SUB PUSH2 0x3E6 MUL DIV PUSH2 0x2BE3 JUMP JUMPDEST PUSH1 0x1 PUSH1 0x1 PUSH1 0xA0 SHL SUB DUP2 AND PUSH2 0x4A47 JUMPI PUSH1 0x40 MLOAD PUSH3 0x461BCD PUSH1 0xE5 SHL DUP2 MSTORE PUSH1 0x4 ADD PUSH2 0xF09 SWAP1 PUSH2 0x5690 JUMP JUMPDEST PUSH1 0x0 DUP1 SLOAD PUSH1 0x40 MLOAD PUSH1 0x1 PUSH1 0x1 PUSH1 0xA0 SHL SUB DUP1 DUP6 AND SWAP4 SWAP3 AND SWAP2 PUSH32 0x8BE0079C531659141344CD1FD0A4F28419497F9722A3DAAFE3B4186F6B6457E0 SWAP2 LOG3 PUSH1 0x0 DUP1 SLOAD PUSH1 0x1 PUSH1 0x1 PUSH1 0xA0 SHL SUB NOT AND PUSH1 0x1 PUSH1 0x1 PUSH1 0xA0 SHL SUB SWAP3 SWAP1 SWAP3 AND SWAP2 SWAP1 SWAP2 OR SWAP1 SSTORE JUMP JUMPDEST PUSH1 0x7 SLOAD PUSH1 0x40 MLOAD PUSH4 0x70A08231 PUSH1 0xE0 SHL DUP2 MSTORE PUSH1 0x0 SWAP2 PUSH2 0x100 SWAP1 DIV PUSH1 0x1 PUSH1 0x1 PUSH1 0xA0 SHL SUB AND SWAP1 PUSH4 0x70A08231 SWAP1 PUSH2 0x4AD8 SWAP1 ADDRESS SWAP1 PUSH1 0x4 ADD PUSH2 0x5368 JUMP JUMPDEST PUSH1 0x20 PUSH1 0x40 MLOAD DUP1 DUP4 SUB DUP2 DUP7 DUP1 EXTCODESIZE ISZERO DUP1 ISZERO PUSH2 0x4AF0 JUMPI PUSH1 0x0 DUP1 REVERT JUMPDEST POP GAS STATICCALL ISZERO DUP1 ISZERO PUSH2 0x4B04 JUMPI RETURNDATASIZE PUSH1 0x0 DUP1 RETURNDATACOPY RETURNDATASIZE PUSH1 0x0 REVERT JUMPDEST POP POP POP POP PUSH1 0x40 MLOAD RETURNDATASIZE PUSH1 0x1F NOT PUSH1 0x1F DUP3 ADD AND DUP3 ADD DUP1 PUSH1 0x40 MSTORE POP DUP2 ADD SWAP1 PUSH2 0x1B05 SWAP2 SWAP1 PUSH2 0x52C2 JUMP JUMPDEST PUSH1 0x0 PUSH2 0x2692 DUP4 DUP4 PUSH1 0x40 MLOAD DUP1 PUSH1 0x40 ADD PUSH1 0x40 MSTORE DUP1 PUSH1 0x1E DUP2 MSTORE PUSH1 0x20 ADD PUSH32 0x536166654D6174683A207375627472616374696F6E206F766572666C6F770000 DUP2 MSTORE POP PUSH2 0x299E JUMP JUMPDEST PUSH1 0x0 PUSH1 0x60 DUP6 PUSH1 0x1 PUSH1 0x1 PUSH1 0xA0 SHL SUB AND PUSH4 0x23B872DD DUP7 DUP7 DUP7 PUSH1 0x40 MLOAD PUSH1 0x24 ADD PUSH2 0x4B92 SWAP4 SWAP3 SWAP2 SWAP1 PUSH2 0x537C JUMP JUMPDEST PUSH1 0x40 MLOAD PUSH1 0x20 DUP2 DUP4 SUB SUB DUP2 MSTORE SWAP1 PUSH1 0x40 MSTORE SWAP1 PUSH1 0xE0 SHL PUSH1 0x20 DUP3 ADD DUP1 MLOAD PUSH1 0x1 PUSH1 0x1 PUSH1 0xE0 SHL SUB DUP4 DUP2 DUP4 AND OR DUP4 MSTORE POP POP POP POP PUSH1 0x40 MLOAD PUSH2 0x4BCB SWAP2 SWAP1 PUSH2 0x534C JUMP JUMPDEST PUSH1 0x0 PUSH1 0x40 MLOAD DUP1 DUP4 SUB DUP2 PUSH1 0x0 DUP7 GAS CALL SWAP2 POP POP RETURNDATASIZE DUP1 PUSH1 0x0 DUP2 EQ PUSH2 0x4C08 JUMPI PUSH1 0x40 MLOAD SWAP2 POP PUSH1 0x1F NOT PUSH1 0x3F RETURNDATASIZE ADD AND DUP3 ADD PUSH1 0x40 MSTORE RETURNDATASIZE DUP3 MSTORE RETURNDATASIZE PUSH1 0x0 PUSH1 0x20 DUP5 ADD RETURNDATACOPY PUSH2 0x4C0D JUMP JUMPDEST PUSH1 0x60 SWAP2 POP JUMPDEST POP SWAP2 POP SWAP2 POP DUP2 DUP1 ISZERO PUSH2 0x4C37 JUMPI POP DUP1 MLOAD ISZERO DUP1 PUSH2 0x4C37 JUMPI POP DUP1 DUP1 PUSH1 0x20 ADD SWAP1 MLOAD DUP2 ADD SWAP1 PUSH2 0x4C37 SWAP2 SWAP1 PUSH2 0x528A JUMP JUMPDEST PUSH2 0x1721 JUMPI PUSH1 0x40 MLOAD PUSH3 0x461BCD PUSH1 0xE5 SHL DUP2 MSTORE PUSH1 0x4 ADD PUSH2 0xF09 SWAP1 PUSH2 0x5B71 JUMP JUMPDEST PUSH1 0x0 DUP1 PUSH2 0x3E9 PUSH1 0x18 PUSH1 0x8 SWAP1 SLOAD SWAP1 PUSH2 0x100 EXP SWAP1 DIV PUSH2 0xFFFF AND PUSH2 0xFFFF AND LT PUSH2 0x4C8A JUMPI PUSH1 0x18 SLOAD PUSH1 0x1 PUSH1 0x40 SHL SWAP1 DIV PUSH2 0xFFFF AND PUSH2 0x7D0 SUB PUSH2 0x4C99 JUMP JUMPDEST PUSH1 0x18 SLOAD PUSH1 0x1 PUSH1 0x40 SHL SWAP1 DIV PUSH2 0xFFFF AND JUMPDEST PUSH1 0x1A SLOAD PUSH2 0xFFFF SWAP2 DUP3 AND SWAP3 POP AND DUP2 EQ ISZERO PUSH2 0x4D3C JUMPI PUSH1 0x18 DUP1 SLOAD PUSH10 0xFFFF0000000000000000 NOT DUP2 AND PUSH1 0x1 PUSH1 0x40 SHL SWAP2 DUP3 SWAP1 DIV PUSH2 0xFFFF SWAP1 DUP2 AND PUSH1 0x1 ADD DUP2 AND DUP4 MUL SWAP2 SWAP1 SWAP2 OR SWAP3 DUP4 SWAP1 SSTORE PUSH1 0x40 MLOAD PUSH32 0x66D08156B35A3DDC911DAFBC8B10FFDC4E5126B090253256CFA71A80F87AEFEE SWAP4 PUSH2 0x4D10 SWAP4 SWAP1 DIV SWAP1 SWAP2 AND SWAP1 PUSH2 0x5BE4 JUMP JUMPDEST PUSH1 0x40 MLOAD DUP1 SWAP2 SUB SWAP1 LOG1 PUSH2 0x4D26 PUSH1 0x17 SLOAD PUSH1 0x16 SLOAD PUSH2 0x266D JUMP JUMPDEST PUSH1 0x17 SSTORE PUSH1 0x1A DUP1 SLOAD PUSH2 0xFFFF NOT AND PUSH1 0x1 OR SWAP1 SSTORE PUSH2 0x4D55 JUMP JUMPDEST PUSH1 0x1A DUP1 SLOAD PUSH2 0xFFFF DUP1 DUP3 AND PUSH1 0x1 ADD AND PUSH2 0xFFFF NOT SWAP1 SWAP2 AND OR SWAP1 SSTORE JUMPDEST POP POP PUSH1 0x18 DUP1 SLOAD PUSH8 0xFFFFFFFF00000000 NOT DUP2 AND PUSH1 0x1 PUSH1 0x20 SHL SWAP2 DUP3 SWAP1 DIV PUSH4 0xFFFFFFFF SWAP1 DUP2 AND PUSH1 0x1 ADD DUP2 AND DUP4 MUL SWAP2 SWAP1 SWAP2 OR SWAP3 DUP4 SWAP1 SSTORE SWAP2 DIV AND SWAP1 JUMP JUMPDEST PUSH1 0x1 PUSH1 0x1 PUSH1 0xA0 SHL SUB DUP2 AND PUSH1 0x0 SWAP1 DUP2 MSTORE PUSH1 0x49 PUSH1 0x20 MSTORE PUSH1 0x40 DUP2 KECCAK256 PUSH1 0xE DUP2 ADD SLOAD ISZERO PUSH2 0x4DC7 JUMPI PUSH2 0x4DC2 DUP2 PUSH1 0xE ADD PUSH1 0x0 DUP2 SLOAD DUP2 LT PUSH2 0x3786 JUMPI INVALID JUMPDEST PUSH2 0x2692 JUMP JUMPDEST POP SWAP1 SWAP2 SWAP1 POP JUMP JUMPDEST PUSH1 0x0 DUP1 DUP1 JUMPDEST PUSH1 0x14 DUP2 LT ISZERO PUSH2 0x4FFE JUMPI PUSH1 0xA SLOAD PUSH1 0xD DUP6 ADD SLOAD PUSH1 0x1 PUSH1 0x1 PUSH1 0xA0 SHL SUB SWAP1 DUP2 AND SWAP2 AND EQ PUSH2 0x4E25 JUMPI PUSH1 0xD DUP5 ADD SLOAD PUSH1 0x1 PUSH1 0x1 PUSH1 0xA0 SHL SUB AND PUSH1 0x0 SWAP1 DUP2 MSTORE PUSH1 0x49 PUSH1 0x20 MSTORE PUSH1 0x40 SWAP1 KECCAK256 PUSH1 0x1 ADD SLOAD PUSH1 0x1 PUSH1 0x38 SHL SWAP1 DIV PUSH1 0xFF AND PUSH2 0x4E28 JUMP JUMPDEST PUSH1 0x4 JUMPDEST SWAP3 POP PUSH1 0x1 DUP4 PUSH1 0xFF AND LT ISZERO DUP1 ISZERO PUSH2 0x4E3E JUMPI POP DUP1 PUSH1 0x1 EQ JUMPDEST ISZERO PUSH2 0x4EA2 JUMPI PUSH2 0x3E8 PUSH1 0x46 PUSH1 0x0 DUP2 SLOAD DUP2 LT PUSH2 0x4E54 JUMPI INVALID JUMPDEST SWAP1 PUSH1 0x0 MSTORE PUSH1 0x20 PUSH1 0x0 KECCAK256 ADD PUSH1 0x2 DUP2 SLOAD DUP2 LT PUSH2 0x4E6A JUMPI INVALID JUMPDEST SWAP1 PUSH1 0x0 MSTORE PUSH1 0x20 PUSH1 0x0 KECCAK256 SWAP1 PUSH1 0x20 SWAP2 DUP3 DUP3 DIV ADD SWAP2 SWAP1 MOD SWAP1 SLOAD SWAP1 PUSH2 0x100 EXP SWAP1 DIV PUSH1 0xFF AND PUSH1 0xFF AND DUP6 PUSH1 0x7 ADD SLOAD MUL DUP2 PUSH2 0x4E9A JUMPI INVALID JUMPDEST DIV SWAP2 POP PUSH2 0x4FA2 JUMP JUMPDEST PUSH1 0x1 DUP4 PUSH1 0xFF AND LT ISZERO DUP1 ISZERO PUSH2 0x4EB6 JUMPI POP DUP1 PUSH1 0x2 EQ JUMPDEST ISZERO PUSH2 0x4ECC JUMPI PUSH2 0x3E8 PUSH1 0x46 PUSH1 0x1 DUP2 SLOAD DUP2 LT PUSH2 0x4E54 JUMPI INVALID JUMPDEST PUSH1 0x2 DUP4 PUSH1 0xFF AND LT ISZERO DUP1 ISZERO PUSH2 0x4EE1 JUMPI POP PUSH1 0x3 DUP2 LT ISZERO JUMPDEST DUP1 ISZERO PUSH2 0x4EEE JUMPI POP PUSH1 0x7 DUP2 GT ISZERO JUMPDEST ISZERO PUSH2 0x4F04 JUMPI PUSH2 0x3E8 PUSH1 0x46 PUSH1 0x2 DUP2 SLOAD DUP2 LT PUSH2 0x4E54 JUMPI INVALID JUMPDEST PUSH1 0x3 DUP4 PUSH1 0xFF AND LT ISZERO DUP1 ISZERO PUSH2 0x4F19 JUMPI POP PUSH1 0x8 DUP2 LT ISZERO JUMPDEST DUP1 ISZERO PUSH2 0x4F26 JUMPI POP PUSH1 0x10 DUP2 GT ISZERO JUMPDEST ISZERO PUSH2 0x4F3C JUMPI PUSH2 0x3E8 PUSH1 0x46 PUSH1 0x3 DUP2 SLOAD DUP2 LT PUSH2 0x4E54 JUMPI INVALID JUMPDEST PUSH1 0x4 DUP4 PUSH1 0xFF AND LT PUSH2 0x4FA2 JUMPI PUSH2 0x3E8 PUSH1 0x46 PUSH1 0x4 DUP2 SLOAD DUP2 LT PUSH2 0x4F58 JUMPI INVALID JUMPDEST SWAP1 PUSH1 0x0 MSTORE PUSH1 0x20 PUSH1 0x0 KECCAK256 ADD PUSH1 0x2 DUP2 SLOAD DUP2 LT PUSH2 0x4F6E JUMPI INVALID JUMPDEST SWAP1 PUSH1 0x0 MSTORE PUSH1 0x20 PUSH1 0x0 KECCAK256 SWAP1 PUSH1 0x20 SWAP2 DUP3 DUP3 DIV ADD SWAP2 SWAP1 MOD SWAP1 SLOAD SWAP1 PUSH2 0x100 EXP SWAP1 DIV PUSH1 0xFF AND PUSH1 0xFF AND DUP6 PUSH1 0x7 ADD SLOAD MUL DUP2 PUSH2 0x4F9E JUMPI INVALID JUMPDEST DIV SWAP2 POP JUMPDEST DUP2 ISZERO PUSH2 0x4FF6 JUMPI PUSH1 0xA SLOAD PUSH1 0xD DUP6 ADD SLOAD PUSH1 0x1 PUSH1 0x1 PUSH1 0xA0 SHL SUB SWAP1 DUP2 AND SWAP2 AND EQ ISZERO PUSH2 0x4FD0 JUMPI PUSH1 0xB DUP1 SLOAD DUP4 ADD SWAP1 SSTORE PUSH2 0x4FFE JUMP JUMPDEST PUSH1 0xD DUP5 ADD SLOAD PUSH1 0x1 PUSH1 0x1 PUSH1 0xA0 SHL SUB AND PUSH1 0x0 SWAP1 DUP2 MSTORE PUSH1 0x49 PUSH1 0x20 MSTORE PUSH1 0x40 SWAP1 KECCAK256 PUSH1 0x8 ADD DUP1 SLOAD DUP4 ADD SWAP1 SSTORE JUMPDEST PUSH1 0x1 ADD PUSH2 0x4DD3 JUMP JUMPDEST POP POP POP POP JUMP JUMPDEST PUSH1 0x40 MLOAD DUP1 PUSH1 0x80 ADD PUSH1 0x40 MSTORE DUP1 PUSH1 0x4 SWAP1 PUSH1 0x20 DUP3 MUL DUP1 CALLDATASIZE DUP4 CALLDATACOPY POP SWAP2 SWAP3 SWAP2 POP POP JUMP JUMPDEST PUSH1 0x40 MLOAD DUP1 PUSH2 0x1A0 ADD PUSH1 0x40 MSTORE DUP1 PUSH1 0xD SWAP1 PUSH1 0x20 DUP3 MUL DUP1 CALLDATASIZE DUP4 CALLDATACOPY POP SWAP2 SWAP3 SWAP2 POP POP JUMP JUMPDEST PUSH1 0x40 MLOAD DUP1 PUSH2 0x160 ADD PUSH1 0x40 MSTORE DUP1 PUSH1 0xB SWAP1 PUSH1 0x20 DUP3 MUL DUP1 CALLDATASIZE DUP4 CALLDATACOPY POP SWAP2 SWAP3 SWAP2 POP POP JUMP JUMPDEST PUSH1 0x40 MLOAD DUP1 PUSH2 0x100 ADD PUSH1 0x40 MSTORE DUP1 PUSH1 0x8 SWAP1 PUSH1 0x20 DUP3 MUL DUP1 CALLDATASIZE DUP4 CALLDATACOPY POP SWAP2 SWAP3 SWAP2 POP POP JUMP JUMPDEST PUSH1 0x40 MLOAD DUP1 PUSH1 0x60 ADD PUSH1 0x40 MSTORE DUP1 PUSH1 0x0 DUP2 MSTORE PUSH1 0x20 ADD PUSH1 0x0 DUP2 MSTORE PUSH1 0x20 ADD PUSH1 0x0 DUP2 MSTORE POP SWAP1 JUMP JUMPDEST DUP3 DUP1 SLOAD DUP3 DUP3 SSTORE SWAP1 PUSH1 0x0 MSTORE PUSH1 0x20 PUSH1 0x0 KECCAK256 SWAP1 DUP2 ADD SWAP3 DUP3 ISZERO PUSH2 0x50DB JUMPI SWAP2 PUSH1 0x20 MUL DUP3 ADD JUMPDEST DUP3 DUP2 GT ISZERO PUSH2 0x50DB JUMPI DUP3 MLOAD DUP3 SSTORE SWAP2 PUSH1 0x20 ADD SWAP2 SWAP1 PUSH1 0x1 ADD SWAP1 PUSH2 0x50C0 JUMP JUMPDEST POP PUSH2 0x50E7 SWAP3 SWAP2 POP PUSH2 0x50EB JUMP JUMPDEST POP SWAP1 JUMP JUMPDEST JUMPDEST DUP1 DUP3 GT ISZERO PUSH2 0x50E7 JUMPI PUSH1 0x0 DUP2 SSTORE PUSH1 0x1 ADD PUSH2 0x50EC JUMP JUMPDEST PUSH1 0x0 PUSH1 0x20 DUP3 DUP5 SUB SLT ISZERO PUSH2 0x5111 JUMPI DUP1 DUP2 REVERT JUMPDEST DUP2 CALLDATALOAD PUSH2 0x2692 DUP2 PUSH2 0x5C83 JUMP JUMPDEST PUSH1 0x0 DUP1 PUSH1 0x40 DUP4 DUP6 SUB SLT ISZERO PUSH2 0x512E JUMPI DUP1 DUP2 REVERT JUMPDEST DUP3 CALLDATALOAD PUSH2 0x5139 DUP2 PUSH2 0x5C83 JUMP JUMPDEST SWAP2 POP PUSH1 0x20 DUP4 ADD CALLDATALOAD PUSH2 0x5149 DUP2 PUSH2 0x5C83 JUMP JUMPDEST DUP1 SWAP2 POP POP SWAP3 POP SWAP3 SWAP1 POP JUMP JUMPDEST PUSH1 0x0 DUP1 PUSH1 0x0 DUP1 PUSH1 0x80 DUP6 DUP8 SUB SLT ISZERO PUSH2 0x5169 JUMPI DUP2 DUP3 REVERT JUMPDEST DUP5 CALLDATALOAD PUSH2 0x5174 DUP2 PUSH2 0x5C83 JUMP JUMPDEST SWAP4 POP PUSH1 0x20 DUP6 ADD CALLDATALOAD PUSH2 0x5184 DUP2 PUSH2 0x5C83 JUMP JUMPDEST SWAP3 POP PUSH1 0x40 DUP6 ADD CALLDATALOAD PUSH2 0x5194 DUP2 PUSH2 0x5C83 JUMP JUMPDEST SWAP2 POP PUSH1 0x60 DUP6 ADD CALLDATALOAD PUSH2 0x51A4 DUP2 PUSH2 0x5C83 JUMP JUMPDEST SWAP4 SWAP7 SWAP3 SWAP6 POP SWAP1 SWAP4 POP POP JUMP JUMPDEST PUSH1 0x0 DUP1 PUSH1 0x0 DUP1 PUSH1 0x0 PUSH1 0xA0 DUP7 DUP9 SUB SLT ISZERO PUSH2 0x51C6 JUMPI DUP1 DUP2 REVERT JUMPDEST DUP6 CALLDATALOAD PUSH2 0x51D1 DUP2 PUSH2 0x5C83 JUMP JUMPDEST SWAP5 POP PUSH1 0x20 DUP7 ADD CALLDATALOAD PUSH2 0x51E1 DUP2 PUSH2 0x5C83 JUMP JUMPDEST SWAP4 POP PUSH1 0x40 DUP7 ADD CALLDATALOAD PUSH2 0x51F1 DUP2 PUSH2 0x5C83 JUMP JUMPDEST SWAP3 POP PUSH1 0x60 DUP7 ADD CALLDATALOAD PUSH2 0x5201 DUP2 PUSH2 0x5C83 JUMP JUMPDEST SWAP2 POP PUSH1 0x80 DUP7 ADD CALLDATALOAD PUSH2 0x5211 DUP2 PUSH2 0x5C83 JUMP JUMPDEST DUP1 SWAP2 POP POP SWAP3 SWAP6 POP SWAP3 SWAP6 SWAP1 SWAP4 POP JUMP JUMPDEST PUSH1 0x0 DUP1 PUSH1 0x0 PUSH1 0x60 DUP5 DUP7 SUB SLT ISZERO PUSH2 0x5233 JUMPI DUP3 DUP4 REVERT JUMPDEST DUP4 CALLDATALOAD PUSH2 0x523E DUP2 PUSH2 0x5C83 JUMP JUMPDEST SWAP3 POP PUSH1 0x20 DUP5 ADD CALLDATALOAD PUSH2 0x524E DUP2 PUSH2 0x5C83 JUMP JUMPDEST SWAP3 SWAP6 SWAP3 SWAP5 POP POP POP PUSH1 0x40 SWAP2 SWAP1 SWAP2 ADD CALLDATALOAD SWAP1 JUMP JUMPDEST PUSH1 0x0 DUP1 PUSH1 0x40 DUP4 DUP6 SUB SLT ISZERO PUSH2 0x5271 JUMPI DUP2 DUP3 REVERT JUMPDEST DUP3 CALLDATALOAD PUSH2 0x527C DUP2 PUSH2 0x5C83 JUMP JUMPDEST SWAP5 PUSH1 0x20 SWAP4 SWAP1 SWAP4 ADD CALLDATALOAD SWAP4 POP POP POP JUMP JUMPDEST PUSH1 0x0 PUSH1 0x20 DUP3 DUP5 SUB SLT ISZERO PUSH2 0x529B JUMPI DUP1 DUP2 REVERT JUMPDEST DUP2 MLOAD DUP1 ISZERO ISZERO DUP2 EQ PUSH2 0x2692 JUMPI DUP2 DUP3 REVERT JUMPDEST PUSH1 0x0 PUSH1 0x20 DUP3 DUP5 SUB SLT ISZERO PUSH2 0x52BB JUMPI DUP1 DUP2 REVERT JUMPDEST POP CALLDATALOAD SWAP2 SWAP1 POP JUMP JUMPDEST PUSH1 0x0 PUSH1 0x20 DUP3 DUP5 SUB SLT ISZERO PUSH2 0x52D3 JUMPI DUP1 DUP2 REVERT JUMPDEST POP MLOAD SWAP2 SWAP1 POP JUMP JUMPDEST PUSH1 0x0 DUP2 MLOAD DUP1 DUP5 MSTORE PUSH1 0x20 DUP1 DUP6 ADD SWAP5 POP DUP1 DUP5 ADD DUP4 JUMPDEST DUP4 DUP2 LT ISZERO PUSH2 0x5312 JUMPI DUP2 MLOAD PUSH1 0x1 PUSH1 0x1 PUSH1 0xA0 SHL SUB AND DUP8 MSTORE SWAP6 DUP3 ADD SWAP6 SWAP1 DUP3 ADD SWAP1 PUSH1 0x1 ADD PUSH2 0x52ED JUMP JUMPDEST POP SWAP5 SWAP6 SWAP5 POP POP POP POP POP JUMP JUMPDEST PUSH1 0x0 DUP2 MLOAD DUP1 DUP5 MSTORE PUSH1 0x20 DUP1 DUP6 ADD SWAP5 POP DUP1 DUP5 ADD DUP4 JUMPDEST DUP4 DUP2 LT ISZERO PUSH2 0x5312 JUMPI DUP2 MLOAD DUP8 MSTORE SWAP6 DUP3 ADD SWAP6 SWAP1 DUP3 ADD SWAP1 PUSH1 0x1 ADD PUSH2 0x5330 JUMP JUMPDEST PUSH1 0x0 DUP3 MLOAD PUSH2 0x535E DUP2 DUP5 PUSH1 0x20 DUP8 ADD PUSH2 0x5C57 JUMP JUMPDEST SWAP2 SWAP1 SWAP2 ADD SWAP3 SWAP2 POP POP JUMP JUMPDEST PUSH1 0x1 PUSH1 0x1 PUSH1 0xA0 SHL SUB SWAP2 SWAP1 SWAP2 AND DUP2 MSTORE PUSH1 0x20 ADD SWAP1 JUMP JUMPDEST PUSH1 0x1 PUSH1 0x1 PUSH1 0xA0 SHL SUB SWAP4 DUP5 AND DUP2 MSTORE SWAP2 SWAP1 SWAP3 AND PUSH1 0x20 DUP3 ADD MSTORE PUSH1 0x40 DUP2 ADD SWAP2 SWAP1 SWAP2 MSTORE PUSH1 0x60 ADD SWAP1 JUMP JUMPDEST PUSH1 0x1 PUSH1 0x1 PUSH1 0xA0 SHL SUB SWAP3 SWAP1 SWAP3 AND DUP3 MSTORE PUSH1 0x20 DUP3 ADD MSTORE PUSH1 0x40 ADD SWAP1 JUMP JUMPDEST PUSH1 0x1 PUSH1 0x1 PUSH1 0xA0 SHL SUB SWAP3 SWAP1 SWAP3 AND DUP3 MSTORE PUSH4 0xFFFFFFFF AND PUSH1 0x20 DUP3 ADD MSTORE PUSH1 0x40 ADD SWAP1 JUMP JUMPDEST PUSH1 0x0 PUSH1 0x60 DUP3 MSTORE PUSH2 0x53EB PUSH1 0x60 DUP4 ADD DUP7 PUSH2 0x52DA JUMP JUMPDEST DUP3 DUP2 SUB PUSH1 0x20 DUP5 ADD MSTORE PUSH2 0x53FD DUP2 DUP7 PUSH2 0x531D JUMP JUMPDEST SWAP1 POP DUP3 DUP2 SUB PUSH1 0x40 DUP5 ADD MSTORE PUSH2 0x5411 DUP2 DUP6 PUSH2 0x531D JUMP JUMPDEST SWAP7 SWAP6 POP POP POP POP POP POP JUMP JUMPDEST PUSH1 0x20 DUP1 DUP3 MSTORE DUP3 MLOAD DUP3 DUP3 ADD DUP2 SWAP1 MSTORE PUSH1 0x0 SWAP2 SWAP1 DUP5 DUP3 ADD SWAP1 PUSH1 0x40 DUP6 ADD SWAP1 DUP5 JUMPDEST DUP2 DUP2 LT ISZERO PUSH2 0x5477 JUMPI DUP4 MLOAD DUP4 DUP8 JUMPDEST PUSH1 0x4 DUP2 LT ISZERO PUSH2 0x5461 JUMPI DUP3 MLOAD DUP3 MSTORE SWAP2 DUP8 ADD SWAP2 SWAP1 DUP8 ADD SWAP1 PUSH1 0x1 ADD PUSH2 0x5444 JUMP JUMPDEST POP POP POP SWAP3 DUP5 ADD SWAP3 PUSH1 0x80 SWAP3 SWAP1 SWAP3 ADD SWAP2 PUSH1 0x1 ADD PUSH2 0x5437 JUMP JUMPDEST POP SWAP1 SWAP7 SWAP6 POP POP POP POP POP POP JUMP JUMPDEST PUSH2 0x160 DUP2 ADD DUP2 DUP4 PUSH1 0x0 JUMPDEST PUSH1 0xB DUP2 LT ISZERO PUSH2 0x54AC JUMPI DUP2 MLOAD DUP4 MSTORE PUSH1 0x20 SWAP3 DUP4 ADD SWAP3 SWAP1 SWAP2 ADD SWAP1 PUSH1 0x1 ADD PUSH2 0x548D JUMP JUMPDEST POP POP POP SWAP3 SWAP2 POP POP JUMP JUMPDEST PUSH2 0x1A0 DUP2 ADD DUP2 DUP4 PUSH1 0x0 JUMPDEST PUSH1 0xD DUP2 LT ISZERO PUSH2 0x54AC JUMPI DUP2 MLOAD DUP4 MSTORE PUSH1 0x20 SWAP3 DUP4 ADD SWAP3 SWAP1 SWAP2 ADD SWAP1 PUSH1 0x1 ADD PUSH2 0x54BF JUMP JUMPDEST PUSH2 0x100 DUP2 ADD DUP2 DUP4 PUSH1 0x0 JUMPDEST PUSH1 0x8 DUP2 LT ISZERO PUSH2 0x54AC JUMPI DUP2 MLOAD DUP4 MSTORE PUSH1 0x20 SWAP3 DUP4 ADD SWAP3 SWAP1 SWAP2 ADD SWAP1 PUSH1 0x1 ADD PUSH2 0x54E8 JUMP JUMPDEST SWAP1 ISZERO ISZERO DUP2 MSTORE PUSH1 0x20 ADD SWAP1 JUMP JUMPDEST SWAP5 ISZERO ISZERO DUP6 MSTORE PUSH1 0x20 DUP6 ADD SWAP4 SWAP1 SWAP4 MSTORE PUSH1 0x40 DUP5 ADD SWAP2 SWAP1 SWAP2 MSTORE PUSH1 0x60 DUP4 ADD MSTORE PUSH1 0x80 DUP3 ADD MSTORE PUSH1 0xA0 ADD SWAP1 JUMP JUMPDEST PUSH1 0x0 PUSH1 0x20 DUP3 MSTORE DUP3 MLOAD DUP1 PUSH1 0x20 DUP5 ADD MSTORE PUSH2 0x5556 DUP2 PUSH1 0x40 DUP6 ADD PUSH1 0x20 DUP8 ADD PUSH2 0x5C57 JUMP JUMPDEST PUSH1 0x1F ADD PUSH1 0x1F NOT AND SWAP2 SWAP1 SWAP2 ADD PUSH1 0x40 ADD SWAP3 SWAP2 POP POP JUMP JUMPDEST PUSH1 0x20 DUP1 DUP3 MSTORE PUSH1 0xC SWAP1 DUP3 ADD MSTORE PUSH12 0x11902732B2B22FA0B236B4B7 PUSH1 0xA1 SHL PUSH1 0x40 DUP3 ADD MSTORE PUSH1 0x60 ADD SWAP1 JUMP JUMPDEST PUSH1 0x20 DUP1 DUP3 MSTORE PUSH1 0x1F SWAP1 DUP3 ADD MSTORE PUSH32 0x5472616E7366657248656C7065723A205452414E534645525F4641494C454400 PUSH1 0x40 DUP3 ADD MSTORE PUSH1 0x60 ADD SWAP1 JUMP JUMPDEST PUSH1 0x20 DUP1 DUP3 MSTORE PUSH1 0x16 SWAP1 DUP3 ADD MSTORE PUSH22 0x2320696E76616C69645F7265666572616C5F6C696E6B PUSH1 0x50 SHL PUSH1 0x40 DUP3 ADD MSTORE PUSH1 0x60 ADD SWAP1 JUMP JUMPDEST PUSH1 0x20 DUP1 DUP3 MSTORE PUSH1 0x10 SWAP1 DUP3 ADD MSTORE PUSH16 0x119034B73B30B634B22FB9B2B73232B9 PUSH1 0x81 SHL PUSH1 0x40 DUP3 ADD MSTORE PUSH1 0x60 ADD SWAP1 JUMP JUMPDEST PUSH1 0x20 DUP1 DUP3 MSTORE PUSH1 0x13 SWAP1 DUP3 ADD MSTORE PUSH19 0x496E76616C69645F5265666572616C4C696E6B PUSH1 0x68 SHL PUSH1 0x40 DUP3 ADD MSTORE PUSH1 0x60 ADD SWAP1 JUMP JUMPDEST PUSH1 0x20 DUP1 DUP3 MSTORE PUSH1 0x22 SWAP1 DUP3 ADD MSTORE PUSH32 0x48524332303A20617070726F766520746F20746865207A65726F206164647265 PUSH1 0x40 DUP3 ADD MSTORE PUSH2 0x7373 PUSH1 0xF0 SHL PUSH1 0x60 DUP3 ADD MSTORE PUSH1 0x80 ADD SWAP1 JUMP JUMPDEST PUSH1 0x20 DUP1 DUP3 MSTORE PUSH1 0x26 SWAP1 DUP3 ADD MSTORE PUSH32 0x4F776E61626C653A206E6577206F776E657220697320746865207A65726F2061 PUSH1 0x40 DUP3 ADD MSTORE PUSH6 0x646472657373 PUSH1 0xD0 SHL PUSH1 0x60 DUP3 ADD MSTORE PUSH1 0x80 ADD SWAP1 JUMP JUMPDEST PUSH1 0x20 DUP1 DUP3 MSTORE PUSH1 0x25 SWAP1 DUP3 ADD MSTORE PUSH32 0x48524332303A207472616E736665722066726F6D20746865207A65726F206164 PUSH1 0x40 DUP3 ADD MSTORE PUSH5 0x6472657373 PUSH1 0xD8 SHL PUSH1 0x60 DUP3 ADD MSTORE PUSH1 0x80 ADD SWAP1 JUMP JUMPDEST PUSH1 0x20 DUP1 DUP3 MSTORE PUSH1 0xC SWAP1 DUP3 ADD MSTORE PUSH12 0x8C813DD995C999B1BDDD959 PUSH1 0xA2 SHL PUSH1 0x40 DUP3 ADD MSTORE PUSH1 0x60 ADD SWAP1 JUMP JUMPDEST PUSH1 0x20 DUP1 DUP3 MSTORE PUSH1 0x1B SWAP1 DUP3 ADD MSTORE PUSH32 0x536166654D6174683A206164646974696F6E206F766572666C6F770000000000 PUSH1 0x40 DUP3 ADD MSTORE PUSH1 0x60 ADD SWAP1 JUMP JUMPDEST PUSH1 0x20 DUP1 DUP3 MSTORE PUSH1 0xA SWAP1 DUP3 ADD MSTORE PUSH10 0x13DD995C999B1BDDD959 PUSH1 0xB2 SHL PUSH1 0x40 DUP3 ADD MSTORE PUSH1 0x60 ADD SWAP1 JUMP JUMPDEST PUSH1 0x20 DUP1 DUP3 MSTORE PUSH1 0x11 SWAP1 DUP3 ADD MSTORE PUSH17 0x8C81A5B9D985B1A5917DC9959995C985B PUSH1 0x7A SHL PUSH1 0x40 DUP3 ADD MSTORE PUSH1 0x60 ADD SWAP1 JUMP JUMPDEST PUSH1 0x20 DUP1 DUP3 MSTORE PUSH1 0x10 SWAP1 DUP3 ADD MSTORE PUSH16 0x8C81D1BDBD7DB1BDDD7DA5B9D995CDD PUSH1 0x82 SHL PUSH1 0x40 DUP3 ADD MSTORE PUSH1 0x60 ADD SWAP1 JUMP JUMPDEST PUSH1 0x20 DUP1 DUP3 MSTORE PUSH1 0x1F SWAP1 DUP3 ADD MSTORE PUSH32 0x48524332303A206D696E7420746F20746865207A65726F206164647265737300 PUSH1 0x40 DUP3 ADD MSTORE PUSH1 0x60 ADD SWAP1 JUMP JUMPDEST PUSH1 0x20 DUP1 DUP3 MSTORE PUSH1 0x10 SWAP1 DUP3 ADD MSTORE PUSH16 0x119024B73B30B634B22FB9B2B73232B9 PUSH1 0x81 SHL PUSH1 0x40 DUP3 ADD MSTORE PUSH1 0x60 ADD SWAP1 JUMP JUMPDEST PUSH1 0x20 DUP1 DUP3 MSTORE PUSH1 0xE SWAP1 DUP3 ADD MSTORE PUSH14 0x11902732B2B22F989812AFAA3631 PUSH1 0x91 SHL PUSH1 0x40 DUP3 ADD MSTORE PUSH1 0x60 ADD SWAP1 JUMP JUMPDEST PUSH1 0x20 DUP1 DUP3 MSTORE PUSH1 0xC SWAP1 DUP3 ADD MSTORE PUSH12 0x23204E6565645F704E6F6465 PUSH1 0xA0 SHL PUSH1 0x40 DUP3 ADD MSTORE PUSH1 0x60 ADD SWAP1 JUMP JUMPDEST PUSH1 0x20 DUP1 DUP3 MSTORE PUSH1 0x11 SWAP1 DUP3 ADD MSTORE PUSH17 0x8C8105B1C9958591E57DCDD185C9D1959 PUSH1 0x7A SHL PUSH1 0x40 DUP3 ADD MSTORE PUSH1 0x60 ADD SWAP1 JUMP JUMPDEST PUSH1 0x20 DUP1 DUP3 MSTORE PUSH1 0x21 SWAP1 DUP3 ADD MSTORE PUSH32 0x48524332303A206275726E2066726F6D20746865207A65726F20616464726573 PUSH1 0x40 DUP3 ADD MSTORE PUSH1 0x73 PUSH1 0xF8 SHL PUSH1 0x60 DUP3 ADD MSTORE PUSH1 0x80 ADD SWAP1 JUMP JUMPDEST PUSH1 0x20 DUP1 DUP3 MSTORE PUSH1 0x10 SWAP1 DUP3 ADD MSTORE PUSH16 0x8C81A5B9D985B1A5917DC185C995B9D PUSH1 0x82 SHL PUSH1 0x40 DUP3 ADD MSTORE PUSH1 0x60 ADD SWAP1 JUMP JUMPDEST PUSH1 0x20 DUP1 DUP3 MSTORE DUP2 DUP2 ADD MSTORE PUSH32 0x48524332303A20616C72656164792072656163686564206D6178537570706C79 PUSH1 0x40 DUP3 ADD MSTORE PUSH1 0x60 ADD SWAP1 JUMP JUMPDEST PUSH1 0x20 DUP1 DUP3 MSTORE PUSH1 0xC SWAP1 DUP3 ADD MSTORE PUSH12 0x8C81C5D595D5957D99D5B1B PUSH1 0xA2 SHL PUSH1 0x40 DUP3 ADD MSTORE PUSH1 0x60 ADD SWAP1 JUMP JUMPDEST PUSH1 0x20 DUP1 DUP3 MSTORE PUSH1 0xC SWAP1 DUP3 ADD MSTORE PUSH12 0x34B73B30B634B22FBA34B2B9 PUSH1 0xA1 SHL PUSH1 0x40 DUP3 ADD MSTORE PUSH1 0x60 ADD SWAP1 JUMP JUMPDEST PUSH1 0x20 DUP1 DUP3 MSTORE DUP2 DUP2 ADD MSTORE PUSH32 0x4F776E61626C653A2063616C6C6572206973206E6F7420746865206F776E6572 PUSH1 0x40 DUP3 ADD MSTORE PUSH1 0x60 ADD SWAP1 JUMP JUMPDEST PUSH1 0x20 DUP1 DUP3 MSTORE PUSH1 0x23 SWAP1 DUP3 ADD MSTORE PUSH32 0x48524332303A207472616E7366657220746F20746865207A65726F2061646472 PUSH1 0x40 DUP3 ADD MSTORE PUSH3 0x657373 PUSH1 0xE8 SHL PUSH1 0x60 DUP3 ADD MSTORE PUSH1 0x80 ADD SWAP1 JUMP JUMPDEST PUSH1 0x20 DUP1 DUP3 MSTORE PUSH1 0xC SWAP1 DUP3 ADD MSTORE PUSH12 0x232066756C6C5F7573657273 PUSH1 0xA0 SHL PUSH1 0x40 DUP3 ADD MSTORE PUSH1 0x60 ADD SWAP1 JUMP JUMPDEST PUSH1 0x20 DUP1 DUP3 MSTORE PUSH1 0x13 SWAP1 DUP3 ADD MSTORE PUSH19 0x32BC3832B1BA32B22FBB30B634B22FBA34B2B9 PUSH1 0x69 SHL PUSH1 0x40 DUP3 ADD MSTORE PUSH1 0x60 ADD SWAP1 JUMP JUMPDEST PUSH1 0x20 DUP1 DUP3 MSTORE PUSH1 0xF SWAP1 DUP3 ADD MSTORE PUSH15 0x1A5B9D985B1A5917D858D8DBDD5B9D PUSH1 0x8A SHL PUSH1 0x40 DUP3 ADD MSTORE PUSH1 0x60 ADD SWAP1 JUMP JUMPDEST PUSH1 0x20 DUP1 DUP3 MSTORE PUSH1 0x15 SWAP1 DUP3 ADD MSTORE PUSH21 0x2320696E76616C69645F7265666572616C4C696E6B PUSH1 0x58 SHL PUSH1 0x40 DUP3 ADD MSTORE PUSH1 0x60 ADD SWAP1 JUMP JUMPDEST PUSH1 0x20 DUP1 DUP3 MSTORE PUSH1 0xF SWAP1 DUP3 ADD MSTORE PUSH15 0x119024B73B30B634B22FB6B4B732B9 PUSH1 0x89 SHL PUSH1 0x40 DUP3 ADD MSTORE PUSH1 0x60 ADD SWAP1 JUMP JUMPDEST PUSH1 0x20 DUP1 DUP3 MSTORE PUSH1 0x10 SWAP1 DUP3 ADD MSTORE PUSH16 0x8C8151BDBD7D31BDDD7D25B9D995CDD PUSH1 0x82 SHL PUSH1 0x40 DUP3 ADD MSTORE PUSH1 0x60 ADD SWAP1 JUMP JUMPDEST PUSH1 0x20 DUP1 DUP3 MSTORE PUSH1 0x24 SWAP1 DUP3 ADD MSTORE PUSH32 0x48524332303A20617070726F76652066726F6D20746865207A65726F20616464 PUSH1 0x40 DUP3 ADD MSTORE PUSH4 0x72657373 PUSH1 0xE0 SHL PUSH1 0x60 DUP3 ADD MSTORE PUSH1 0x80 ADD SWAP1 JUMP JUMPDEST PUSH1 0x20 DUP1 DUP3 MSTORE PUSH1 0x24 SWAP1 DUP3 ADD MSTORE PUSH32 0x5472616E7366657248656C7065723A205452414E534645525F46524F4D5F4641 PUSH1 0x40 DUP3 ADD MSTORE PUSH4 0x12531151 PUSH1 0xE2 SHL PUSH1 0x60 DUP3 ADD MSTORE PUSH1 0x80 ADD SWAP1 JUMP JUMPDEST PUSH1 0x20 DUP1 DUP3 MSTORE PUSH1 0x15 SWAP1 DUP3 ADD MSTORE PUSH21 0x23206F766572666C6F775F746F74616C5F6D696E65 PUSH1 0x58 SHL PUSH1 0x40 DUP3 ADD MSTORE PUSH1 0x60 ADD SWAP1 JUMP JUMPDEST PUSH2 0xFFFF SWAP2 SWAP1 SWAP2 AND DUP2 MSTORE PUSH1 0x20 ADD SWAP1 JUMP JUMPDEST SWAP1 DUP2 MSTORE PUSH1 0x20 ADD SWAP1 JUMP JUMPDEST DUP5 DUP2 MSTORE PUSH1 0x1 PUSH1 0x1 PUSH1 0xA0 SHL SUB DUP5 DUP2 AND PUSH1 0x20 DUP4 ADD MSTORE DUP4 AND PUSH1 0x40 DUP3 ADD MSTORE PUSH1 0x80 PUSH1 0x60 DUP3 ADD DUP2 SWAP1 MSTORE PUSH1 0x0 SWAP1 PUSH2 0x5411 SWAP1 DUP4 ADD DUP5 PUSH2 0x52DA JUMP JUMPDEST SWAP4 DUP5 MSTORE PUSH1 0x20 DUP5 ADD SWAP3 SWAP1 SWAP3 MSTORE PUSH1 0x40 DUP4 ADD MSTORE PUSH1 0x60 DUP3 ADD MSTORE PUSH1 0x80 ADD SWAP1 JUMP JUMPDEST PUSH1 0xFF SWAP2 SWAP1 SWAP2 AND DUP2 MSTORE PUSH1 0x20 ADD SWAP1 JUMP JUMPDEST PUSH1 0x0 JUMPDEST DUP4 DUP2 LT ISZERO PUSH2 0x5C72 JUMPI DUP2 DUP2 ADD MLOAD DUP4 DUP3 ADD MSTORE PUSH1 0x20 ADD PUSH2 0x5C5A JUMP JUMPDEST DUP4 DUP2 GT ISZERO PUSH2 0x4FFE JUMPI POP POP PUSH1 0x0 SWAP2 ADD MSTORE JUMP JUMPDEST PUSH1 0x1 PUSH1 0x1 PUSH1 0xA0 SHL SUB DUP2 AND DUP2 EQ PUSH2 0x248A JUMPI PUSH1 0x0 DUP1 REVERT INVALID 0x4C DUP4 0xEF 0xB3 SWAP9 0x2A 0xFB 0xD5 STOP 0xAB PUSH29 0x66D02B996DF5FDC3D20660E61600390AAD6D5F7F1E48524332303A2074 PUSH19 0x616E7366657220616D6F756E74206578636565 PUSH5 0x732062616C PUSH2 0x6E63 PUSH6 0x48524332303A KECCAK256 PUSH5 0x6563726561 PUSH20 0x656420616C6C6F77616E63652062656C6F77207A PUSH6 0x726F48524332 ADDRESS GASPRICE KECCAK256 PUSH21 0x72616E7366657220616D6F756E7420657863656564 PUSH20 0x20616C6C6F77616E636548524332303A20627572 PUSH15 0x20616D6F756E742065786365656473 KECCAK256 PUSH3 0x616C61 PUSH15 0x6365A2646970667358221220F7C60D 0xAB SAR PUSH24 0x1B8EAE2961D257A3A0BA0F15A154CC6C2C8A9598F011E471 PUSH21 0x3564736F6C634300060C0033000000000000000000 "
		},
		"gasEstimates": {
			"creation": {
				"codeDepositCost": "4787800",
				"executionCost": "infinite",
				"totalCost": "infinite"
			},
			"external": {
				"_maxSupply()": "1118",
				"_test_MinerPrice(uint256)": "6511",
				"_test_admin(address,address,address,address,address)": "infinite",
				"_test_approve(address,address,uint256)": "infinite",
				"_test_buyMiner(address,address,uint256)": "infinite",
				"_test_deposit(address,address,uint256)": "infinite",
				"_test_mint(address,uint256)": "infinite",
				"_totalSupply()": "1162",
				"accountInfo(address)": "infinite",
				"allowance(address,address)": "infinite",
				"amountForDeposit(uint256)": "2090",
				"amountForWithdraw(address)": "6500",
				"approve(address,uint256)": "22669",
				"balanceOf(address)": "1397",
				"basicInfoAdmin()": "3774",
				"buy(uint256)": "infinite",
				"buyMiner(address,uint256)": "infinite",
				"cancelBuyOrder()": "infinite",
				"cancelSellOrder()": "infinite",
				"checkInsurance()": "infinite",
				"contractInfo()": "infinite",
				"decimals()": "1202",
				"decreaseAllowance(address,uint256)": "infinite",
				"deposit(address,uint256)": "infinite",
				"firstAddress()": "1202",
				"getOwner()": "1151",
				"increaseAllowance(address,uint256)": "infinite",
				"maxSupply()": "1095",
				"mineInfo(address)": "infinite",
				"minerList()": "infinite",
				"mint(uint256)": "infinite",
				"name()": "infinite",
				"nodeinfo(address)": "infinite",
				"orderHistory()": "infinite",
				"owner()": "1160",
				"pendingOrder(address)": "infinite",
				"profits(address)": "infinite",
				"renounceOwnership()": "24359",
				"sell(uint256)": "infinite",
				"setAdmin(address,address,address,address)": "infinite",
				"startMine()": "infinite",
				"symbol()": "infinite",
				"totalSupply()": "1074",
				"transfer(address,uint256)": "infinite",
				"transferFrom(address,address,uint256)": "infinite",
				"transferOwnership(address)": "infinite",
				"withdraw()": "infinite",
				"withdrawFromPool()": "infinite"
			},
			"internal": {
				"_buy(address,uint256)": "infinite",
				"_buyMiner(address,address,uint256)": "infinite",
				"_childrenInfo(address,uint256,uint256,uint256)": "infinite",
				"_childrenInfoAll(address,uint256)": "infinite",
				"_deposit(address,address,uint256,uint256)": "infinite",
				"_insuranceAmount()": "infinite",
				"_minerPrice(uint256)": "infinite",
				"_pendingPool(address)": "5915",
				"_processSellOrder()": "infinite",
				"_sell(address,uint256)": "infinite",
				"_startMine(address)": "infinite",
				"_staticRewardOf(struct ITLB10.Node storage pointer,uint256)": "7660",
				"_totalUsdtBalance()": "infinite",
				"_updateDynamicRewardsAllParentNode(struct ITLB10.Node storage pointer)": "infinite",
				"addUserToPrism()": "infinite",
				"getLastInBranch(address)": "infinite",
				"getTier(uint256)": "infinite"
			}
		},
		"methodIdentifiers": {
			"_maxSupply()": "22f4596f",
			"_test_MinerPrice(uint256)": "bdc42a7a",
			"_test_admin(address,address,address,address,address)": "f656f562",
			"_test_approve(address,address,uint256)": "9bf00117",
			"_test_buyMiner(address,address,uint256)": "440565af",
			"_test_deposit(address,address,uint256)": "c7111063",
			"_test_mint(address,uint256)": "5da4c926",
			"_totalSupply()": "3eaaf86b",
			"accountInfo(address)": "a7310b58",
			"allowance(address,address)": "dd62ed3e",
			"amountForDeposit(uint256)": "99eb9576",
			"amountForWithdraw(address)": "0e25a441",
			"approve(address,uint256)": "095ea7b3",
			"balanceOf(address)": "70a08231",
			"basicInfoAdmin()": "6cb44428",
			"buy(uint256)": "d96a094a",
			"buyMiner(address,uint256)": "8a43bb01",
			"cancelBuyOrder()": "5ee4462c",
			"cancelSellOrder()": "39b50688",
			"checkInsurance()": "36fdde7c",
			"contractInfo()": "15c43aaf",
			"decimals()": "313ce567",
			"decreaseAllowance(address,uint256)": "a457c2d7",
			"deposit(address,uint256)": "47e7ef24",
			"firstAddress()": "f697ddb2",
			"getOwner()": "893d20e8",
			"increaseAllowance(address,uint256)": "39509351",
			"maxSupply()": "d5abeb01",
			"mineInfo(address)": "1701a82a",
			"minerList()": "e87f2cce",
			"mint(uint256)": "a0712d68",
			"name()": "06fdde03",
			"nodeinfo(address)": "fd125ece",
			"orderHistory()": "1e71615b",
			"owner()": "8da5cb5b",
			"pendingOrder(address)": "003f7a89",
			"profits(address)": "cc85f080",
			"renounceOwnership()": "715018a6",
			"sell(uint256)": "e4849b32",
			"setAdmin(address,address,address,address)": "f2218f56",
			"startMine()": "ed73ee25",
			"symbol()": "95d89b41",
			"totalSupply()": "18160ddd",
			"transfer(address,uint256)": "a9059cbb",
			"transferFrom(address,address,uint256)": "23b872dd",
			"transferOwnership(address)": "f2fde38b",
			"withdraw()": "3ccfd60b",
			"withdrawFromPool()": "26c0e5c5"
		}
	},
	"abi": [
		{
			"inputs": [],
			"stateMutability": "nonpayable",
			"type": "constructor"
		},
		{
			"anonymous": false,
			"inputs": [
				{
					"indexed": false,
					"internalType": "uint256",
					"name": "layer",
					"type": "uint256"
				}
			],
			"name": "AddLayer",
			"type": "event"
		},
		{
			"anonymous": false,
			"inputs": [
				{
					"indexed": false,
					"internalType": "address",
					"name": "guest",
					"type": "address"
				},
				{
					"indexed": false,
					"internalType": "uint256",
					"name": "amount",
					"type": "uint256"
				}
			],
			"name": "AddUser",
			"type": "event"
		},
		{
			"anonymous": false,
			"inputs": [
				{
					"indexed": true,
					"internalType": "address",
					"name": "owner",
					"type": "address"
				},
				{
					"indexed": true,
					"internalType": "address",
					"name": "spender",
					"type": "address"
				},
				{
					"indexed": false,
					"internalType": "uint256",
					"name": "value",
					"type": "uint256"
				}
			],
			"name": "Approval",
			"type": "event"
		},
		{
			"anonymous": false,
			"inputs": [
				{
					"indexed": false,
					"internalType": "address",
					"name": "guest",
					"type": "address"
				},
				{
					"indexed": false,
					"internalType": "uint256",
					"name": "amount",
					"type": "uint256"
				}
			],
			"name": "BuyOrderAdded",
			"type": "event"
		},
		{
			"anonymous": false,
			"inputs": [
				{
					"indexed": false,
					"internalType": "address",
					"name": "guest",
					"type": "address"
				},
				{
					"indexed": false,
					"internalType": "uint256",
					"name": "amount",
					"type": "uint256"
				}
			],
			"name": "BuyOrderCancelled",
			"type": "event"
		},
		{
			"anonymous": false,
			"inputs": [
				{
					"indexed": true,
					"internalType": "address",
					"name": "previousOwner",
					"type": "address"
				},
				{
					"indexed": true,
					"internalType": "address",
					"name": "newOwner",
					"type": "address"
				}
			],
			"name": "OwnershipTransferred",
			"type": "event"
		},
		{
			"anonymous": false,
			"inputs": [
				{
					"indexed": false,
					"internalType": "address",
					"name": "guest",
					"type": "address"
				},
				{
					"indexed": false,
					"internalType": "uint256",
					"name": "amount",
					"type": "uint256"
				}
			],
			"name": "SellOrderAdded",
			"type": "event"
		},
		{
			"anonymous": false,
			"inputs": [
				{
					"indexed": false,
					"internalType": "address",
					"name": "guest",
					"type": "address"
				},
				{
					"indexed": false,
					"internalType": "uint256",
					"name": "amount",
					"type": "uint256"
				}
			],
			"name": "SellOrderCancelled",
			"type": "event"
		},
		{
			"anonymous": false,
			"inputs": [
				{
					"indexed": true,
					"internalType": "address",
					"name": "from",
					"type": "address"
				},
				{
					"indexed": true,
					"internalType": "address",
					"name": "to",
					"type": "address"
				},
				{
					"indexed": false,
					"internalType": "uint256",
					"name": "value",
					"type": "uint256"
				}
			],
			"name": "Transfer",
			"type": "event"
		},
		{
			"anonymous": false,
			"inputs": [
				{
					"indexed": false,
					"internalType": "address",
					"name": "guest",
					"type": "address"
				},
				{
					"indexed": false,
					"internalType": "uint256",
					"name": "amount",
					"type": "uint256"
				}
			],
			"name": "UpdateUser",
			"type": "event"
		},
		{
			"inputs": [],
			"name": "_maxSupply",
			"outputs": [
				{
					"internalType": "uint256",
					"name": "",
					"type": "uint256"
				}
			],
			"stateMutability": "view",
			"type": "function"
		},
		{
			"inputs": [
				{
					"internalType": "uint256",
					"name": "tier",
					"type": "uint256"
				}
			],
			"name": "_test_MinerPrice",
			"outputs": [
				{
					"internalType": "uint256",
					"name": "",
					"type": "uint256"
				}
			],
			"stateMutability": "view",
			"type": "function"
		},
		{
			"inputs": [
				{
					"internalType": "address",
					"name": "usdtAddress",
					"type": "address"
				},
				{
					"internalType": "address",
					"name": "adminAddress",
					"type": "address"
				},
				{
					"internalType": "address",
					"name": "lee",
					"type": "address"
				},
				{
					"internalType": "address",
					"name": "zhang",
					"type": "address"
				},
				{
					"internalType": "address",
					"name": "redeem",
					"type": "address"
				}
			],
			"name": "_test_admin",
			"outputs": [],
			"stateMutability": "nonpayable",
			"type": "function"
		},
		{
			"inputs": [
				{
					"internalType": "address",
					"name": "sender",
					"type": "address"
				},
				{
					"internalType": "address",
					"name": "spender",
					"type": "address"
				},
				{
					"internalType": "uint256",
					"name": "amount",
					"type": "uint256"
				}
			],
			"name": "_test_approve",
			"outputs": [],
			"stateMutability": "nonpayable",
			"type": "function"
		},
		{
			"inputs": [
				{
					"internalType": "address",
					"name": "sender",
					"type": "address"
				},
				{
					"internalType": "address",
					"name": "referalLink",
					"type": "address"
				},
				{
					"internalType": "uint256",
					"name": "tier",
					"type": "uint256"
				}
			],
			"name": "_test_buyMiner",
			"outputs": [],
			"stateMutability": "nonpayable",
			"type": "function"
		},
		{
			"inputs": [
				{
					"internalType": "address",
					"name": "sender",
					"type": "address"
				},
				{
					"internalType": "address",
					"name": "referalLink",
					"type": "address"
				},
				{
					"internalType": "uint256",
					"name": "amount",
					"type": "uint256"
				}
			],
			"name": "_test_deposit",
			"outputs": [],
			"stateMutability": "nonpayable",
			"type": "function"
		},
		{
			"inputs": [
				{
					"internalType": "address",
					"name": "sender",
					"type": "address"
				},
				{
					"internalType": "uint256",
					"name": "amount",
					"type": "uint256"
				}
			],
			"name": "_test_mint",
			"outputs": [],
			"stateMutability": "nonpayable",
			"type": "function"
		},
		{
			"inputs": [],
			"name": "_totalSupply",
			"outputs": [
				{
					"internalType": "uint256",
					"name": "",
					"type": "uint256"
				}
			],
			"stateMutability": "view",
			"type": "function"
		},
		{
			"inputs": [
				{
					"internalType": "address",
					"name": "account",
					"type": "address"
				}
			],
			"name": "accountInfo",
			"outputs": [
				{
					"internalType": "uint256[8]",
					"name": "",
					"type": "uint256[8]"
				}
			],
			"stateMutability": "view",
			"type": "function"
		},
		{
			"inputs": [
				{
					"internalType": "address",
					"name": "owner",
					"type": "address"
				},
				{
					"internalType": "address",
					"name": "spender",
					"type": "address"
				}
			],
			"name": "allowance",
			"outputs": [
				{
					"internalType": "uint256",
					"name": "",
					"type": "uint256"
				}
			],
			"stateMutability": "view",
			"type": "function"
		},
		{
			"inputs": [
				{
					"internalType": "uint256",
					"name": "amount",
					"type": "uint256"
				}
			],
			"name": "amountForDeposit",
			"outputs": [
				{
					"internalType": "uint256",
					"name": "",
					"type": "uint256"
				}
			],
			"stateMutability": "view",
			"type": "function"
		},
		{
			"inputs": [
				{
					"internalType": "address",
					"name": "account",
					"type": "address"
				}
			],
			"name": "amountForWithdraw",
			"outputs": [
				{
					"internalType": "uint256",
					"name": "",
					"type": "uint256"
				}
			],
			"stateMutability": "view",
			"type": "function"
		},
		{
			"inputs": [
				{
					"internalType": "address",
					"name": "spender",
					"type": "address"
				},
				{
					"internalType": "uint256",
					"name": "amount",
					"type": "uint256"
				}
			],
			"name": "approve",
			"outputs": [
				{
					"internalType": "bool",
					"name": "",
					"type": "bool"
				}
			],
			"stateMutability": "nonpayable",
			"type": "function"
		},
		{
			"inputs": [
				{
					"internalType": "address",
					"name": "account",
					"type": "address"
				}
			],
			"name": "balanceOf",
			"outputs": [
				{
					"internalType": "uint256",
					"name": "",
					"type": "uint256"
				}
			],
			"stateMutability": "view",
			"type": "function"
		},
		{
			"inputs": [],
			"name": "basicInfoAdmin",
			"outputs": [
				{
					"internalType": "uint256",
					"name": "",
					"type": "uint256"
				},
				{
					"internalType": "uint256",
					"name": "",
					"type": "uint256"
				},
				{
					"internalType": "uint256",
					"name": "",
					"type": "uint256"
				},
				{
					"internalType": "uint256",
					"name": "",
					"type": "uint256"
				}
			],
			"stateMutability": "view",
			"type": "function"
		},
		{
			"inputs": [
				{
					"internalType": "uint256",
					"name": "amountUsdt",
					"type": "uint256"
				}
			],
			"name": "buy",
			"outputs": [],
			"stateMutability": "nonpayable",
			"type": "function"
		},
		{
			"inputs": [
				{
					"internalType": "address",
					"name": "referalLink",
					"type": "address"
				},
				{
					"internalType": "uint256",
					"name": "amountUsdt",
					"type": "uint256"
				}
			],
			"name": "buyMiner",
			"outputs": [],
			"stateMutability": "nonpayable",
			"type": "function"
		},
		{
			"inputs": [],
			"name": "cancelBuyOrder",
			"outputs": [],
			"stateMutability": "nonpayable",
			"type": "function"
		},
		{
			"inputs": [],
			"name": "cancelSellOrder",
			"outputs": [],
			"stateMutability": "nonpayable",
			"type": "function"
		},
		{
			"inputs": [],
			"name": "checkInsurance",
			"outputs": [],
			"stateMutability": "nonpayable",
			"type": "function"
		},
		{
			"inputs": [],
			"name": "contractInfo",
			"outputs": [
				{
					"internalType": "uint256[13]",
					"name": "",
					"type": "uint256[13]"
				}
			],
			"stateMutability": "view",
			"type": "function"
		},
		{
			"inputs": [],
			"name": "decimals",
			"outputs": [
				{
					"internalType": "uint8",
					"name": "",
					"type": "uint8"
				}
			],
			"stateMutability": "view",
			"type": "function"
		},
		{
			"inputs": [
				{
					"internalType": "address",
					"name": "spender",
					"type": "address"
				},
				{
					"internalType": "uint256",
					"name": "subtractedValue",
					"type": "uint256"
				}
			],
			"name": "decreaseAllowance",
			"outputs": [
				{
					"internalType": "bool",
					"name": "",
					"type": "bool"
				}
			],
			"stateMutability": "nonpayable",
			"type": "function"
		},
		{
			"inputs": [
				{
					"internalType": "address",
					"name": "referalLink",
					"type": "address"
				},
				{
					"internalType": "uint256",
					"name": "amount",
					"type": "uint256"
				}
			],
			"name": "deposit",
			"outputs": [],
			"stateMutability": "nonpayable",
			"type": "function"
		},
		{
			"inputs": [],
			"name": "firstAddress",
			"outputs": [
				{
					"internalType": "address",
					"name": "",
					"type": "address"
				}
			],
			"stateMutability": "view",
			"type": "function"
		},
		{
			"inputs": [],
			"name": "getOwner",
			"outputs": [
				{
					"internalType": "address",
					"name": "",
					"type": "address"
				}
			],
			"stateMutability": "view",
			"type": "function"
		},
		{
			"inputs": [
				{
					"internalType": "address",
					"name": "spender",
					"type": "address"
				},
				{
					"internalType": "uint256",
					"name": "addedValue",
					"type": "uint256"
				}
			],
			"name": "increaseAllowance",
			"outputs": [
				{
					"internalType": "bool",
					"name": "",
					"type": "bool"
				}
			],
			"stateMutability": "nonpayable",
			"type": "function"
		},
		{
			"inputs": [],
			"name": "maxSupply",
			"outputs": [
				{
					"internalType": "uint256",
					"name": "",
					"type": "uint256"
				}
			],
			"stateMutability": "view",
			"type": "function"
		},
		{
			"inputs": [
				{
					"internalType": "address",
					"name": "account",
					"type": "address"
				}
			],
			"name": "mineInfo",
			"outputs": [
				{
					"internalType": "uint256[11]",
					"name": "",
					"type": "uint256[11]"
				}
			],
			"stateMutability": "view",
			"type": "function"
		},
		{
			"inputs": [],
			"name": "minerList",
			"outputs": [
				{
					"internalType": "address[]",
					"name": "",
					"type": "address[]"
				},
				{
					"internalType": "uint256[]",
					"name": "",
					"type": "uint256[]"
				},
				{
					"internalType": "uint256[]",
					"name": "",
					"type": "uint256[]"
				}
			],
			"stateMutability": "view",
			"type": "function"
		},
		{
			"inputs": [
				{
					"internalType": "uint256",
					"name": "amount",
					"type": "uint256"
				}
			],
			"name": "mint",
			"outputs": [
				{
					"internalType": "bool",
					"name": "",
					"type": "bool"
				}
			],
			"stateMutability": "nonpayable",
			"type": "function"
		},
		{
			"inputs": [],
			"name": "name",
			"outputs": [
				{
					"internalType": "string",
					"name": "",
					"type": "string"
				}
			],
			"stateMutability": "view",
			"type": "function"
		},
		{
			"inputs": [
				{
					"internalType": "address",
					"name": "sender",
					"type": "address"
				}
			],
			"name": "nodeinfo",
			"outputs": [
				{
					"internalType": "uint256",
					"name": "",
					"type": "uint256"
				},
				{
					"internalType": "address",
					"name": "",
					"type": "address"
				},
				{
					"internalType": "address",
					"name": "",
					"type": "address"
				},
				{
					"internalType": "address[]",
					"name": "",
					"type": "address[]"
				}
			],
			"stateMutability": "view",
			"type": "function"
		},
		{
			"inputs": [],
			"name": "orderHistory",
			"outputs": [
				{
					"internalType": "uint256[4][]",
					"name": "",
					"type": "uint256[4][]"
				}
			],
			"stateMutability": "view",
			"type": "function"
		},
		{
			"inputs": [],
			"name": "owner",
			"outputs": [
				{
					"internalType": "address payable",
					"name": "",
					"type": "address"
				}
			],
			"stateMutability": "view",
			"type": "function"
		},
		{
			"inputs": [
				{
					"internalType": "address",
					"name": "account",
					"type": "address"
				}
			],
			"name": "pendingOrder",
			"outputs": [
				{
					"internalType": "uint256[4][]",
					"name": "",
					"type": "uint256[4][]"
				}
			],
			"stateMutability": "view",
			"type": "function"
		},
		{
			"inputs": [
				{
					"internalType": "address",
					"name": "account",
					"type": "address"
				}
			],
			"name": "profits",
			"outputs": [
				{
					"internalType": "bool",
					"name": "",
					"type": "bool"
				},
				{
					"internalType": "uint256",
					"name": "",
					"type": "uint256"
				},
				{
					"internalType": "uint256",
					"name": "",
					"type": "uint256"
				},
				{
					"internalType": "uint256",
					"name": "",
					"type": "uint256"
				},
				{
					"internalType": "uint256",
					"name": "",
					"type": "uint256"
				}
			],
			"stateMutability": "view",
			"type": "function"
		},
		{
			"inputs": [],
			"name": "renounceOwnership",
			"outputs": [],
			"stateMutability": "nonpayable",
			"type": "function"
		},
		{
			"inputs": [
				{
					"internalType": "uint256",
					"name": "amountTlb",
					"type": "uint256"
				}
			],
			"name": "sell",
			"outputs": [],
			"stateMutability": "nonpayable",
			"type": "function"
		},
		{
			"inputs": [
				{
					"internalType": "address",
					"name": "admin",
					"type": "address"
				},
				{
					"internalType": "address",
					"name": "lee",
					"type": "address"
				},
				{
					"internalType": "address",
					"name": "zhang",
					"type": "address"
				},
				{
					"internalType": "address",
					"name": "redeem",
					"type": "address"
				}
			],
			"name": "setAdmin",
			"outputs": [],
			"stateMutability": "nonpayable",
			"type": "function"
		},
		{
			"inputs": [],
			"name": "startMine",
			"outputs": [],
			"stateMutability": "nonpayable",
			"type": "function"
		},
		{
			"inputs": [],
			"name": "symbol",
			"outputs": [
				{
					"internalType": "string",
					"name": "",
					"type": "string"
				}
			],
			"stateMutability": "view",
			"type": "function"
		},
		{
			"inputs": [],
			"name": "totalSupply",
			"outputs": [
				{
					"internalType": "uint256",
					"name": "",
					"type": "uint256"
				}
			],
			"stateMutability": "view",
			"type": "function"
		},
		{
			"inputs": [
				{
					"internalType": "address",
					"name": "recipient",
					"type": "address"
				},
				{
					"internalType": "uint256",
					"name": "amount",
					"type": "uint256"
				}
			],
			"name": "transfer",
			"outputs": [
				{
					"internalType": "bool",
					"name": "",
					"type": "bool"
				}
			],
			"stateMutability": "nonpayable",
			"type": "function"
		},
		{
			"inputs": [
				{
					"internalType": "address",
					"name": "sender",
					"type": "address"
				},
				{
					"internalType": "address",
					"name": "recipient",
					"type": "address"
				},
				{
					"internalType": "uint256",
					"name": "amount",
					"type": "uint256"
				}
			],
			"name": "transferFrom",
			"outputs": [
				{
					"internalType": "bool",
					"name": "",
					"type": "bool"
				}
			],
			"stateMutability": "nonpayable",
			"type": "function"
		},
		{
			"inputs": [
				{
					"internalType": "address payable",
					"name": "newOwner",
					"type": "address"
				}
			],
			"name": "transferOwnership",
			"outputs": [],
			"stateMutability": "nonpayable",
			"type": "function"
		},
		{
			"inputs": [],
			"name": "withdraw",
			"outputs": [],
			"stateMutability": "nonpayable",
			"type": "function"
		},
		{
			"inputs": [],
			"name": "withdrawFromPool",
			"outputs": [],
			"stateMutability": "nonpayable",
			"type": "function"
		}
	]
}