{
	"data": {
		"bytecode": {
			"linkReferences": {},
			"object": "608060405260078054610100600160a81b031916749defb199a6cdbfbaffe8c1c712f469e5c900a4de001760ff60a81b1916600160a91b179081905560ff600160a81b90910416600a0a600881905561271060095560649004601655600a600854816200006857fe5b046017556018805465ffffffffffff60201b1963ffffffff19909116620f42401716905560006019819055601a805461ffff191690556301abbc00601b55601c81905542601d55610e10601e55601f81905560209081556040805161010081018252600160a0820181815260c083019190915260c860e08301528152815160608181018452600280835282860152609682850152828501919091528251808201845260038152600781860152606481850152828401528251808201845260088152600f81860152603281850152818301528251908101835260108152601493810184905291820192909252608082015262000168906046906005620008a3565b5060405180608001604052806040518060800160405280600854613a980281526020016064815260200160648152602001601e81525081526020016040518060800160405280600854611d4c0281526020016032815260200160328152602001601481525081526020016040518060800160405280600854610dac0281526020016019815260200160198152602001600a81525081526020016040518060800160405280600854606402815260200160058152602001600a8152602001600581525081525060539060046200023f92919062000901565b5060408051600380825260808201909252906020820160608036833750508151620002729260589250602001906200095b565b5060408051600a808252610160820190925290602082016101408036833750508151620002a792605a925060200190620009a7565b50348015620002b557600080fd5b506040518060400160405280600b81526020016a544c42205374616b696e6760a81b815250604051806040016040528060038152602001622a262160e91b815250600464519577b0006000620003106200074b60201b60201c565b600080546001600160a01b0319166001600160a01b0383169081178255604051929350917f8be0079c531659141344cd1fd0a4f28419497f9722a3daafe3b4186f6b6457e0908290a35083516200036f90600590602087019062000a0d565b5082516200038590600690602086019062000a0d565b506007805460ff191660ff939093169290921790915560045550600090506064620003af6200074f565b60140281620003ba57fe5b049050620003c9338262000755565b604a6040518060a00160405280600160ff16815260200160085460c8028152602001601060ff168152602001600160ff168152602001610898815250908060018154018082558091505060019003906000526020600020906004020160009091909190915060008201518160000160006101000a81548160ff021916908360ff1602179055506020820151816001015560408201518160020160006101000a81548160ff021916908360ff16021790555060608201518160020160016101000a81548160ff021916908360ff160217905550608082015181600301555050604a6040518060a00160405280600260ff1681526020016008546103e9028152602001600e60ff168152602001600260ff168152602001610834815250908060018154018082558091505060019003906000526020600020906004020160009091909190915060008201518160000160006101000a81548160ff021916908360ff1602179055506020820151816001015560408201518160020160006101000a81548160ff021916908360ff16021790555060608201518160020160016101000a81548160ff021916908360ff160217905550608082015181600301555050604a6040518060a00160405280600360ff1681526020016008546107d1028152602001600c60ff168152602001600360ff1681526020016107d0815250908060018154018082558091505060019003906000526020600020906004020160009091909190915060008201518160000160006101000a81548160ff021916908360ff1602179055506020820151816001015560408201518160020160006101000a81548160ff021916908360ff16021790555060608201518160020160016101000a81548160ff021916908360ff160217905550608082015181600301555050604a6040518060a00160405280600460ff168152602001600854611389028152602001600a60ff168152602001600460ff16815260200161076c815250908060018154018082558091505060019003906000526020600020906004020160009091909190915060008201518160000160006101000a81548160ff021916908360ff1602179055506020820151816001015560408201518160020160006101000a81548160ff021916908360ff16021790555060608201518160020160016101000a81548160ff021916908360ff1602179055506080820151816003015550505062000cb3565b3390565b60045490565b6001600160a01b038216620007875760405162461bcd60e51b81526004016200077e9062000c3e565b60405180910390fd5b600454620007a6826003546200087460201b620027871790919060201c565b10620007c65760405162461bcd60e51b81526004016200077e9062000c75565b620007e2816003546200087460201b620027871790919060201c565b6003556001600160a01b038216600090815260016020908152604090912054620008179183906200278762000874821b17901c565b6001600160a01b0383166000818152600160205260408082209390935591519091907fddf252ad1be2c89b69c2b068fc378daa952ba7f163c4a11628f55a4df523b3ef906200086890859062000caa565b60405180910390a35050565b6000828201838110156200089c5760405162461bcd60e51b81526004016200077e9062000c07565b9392505050565b828054828255906000526020600020908101928215620008ef579160200282015b82811115620008ef578251620008de908390600362000a7f565b5091602001919060010190620008c4565b50620008fd92915062000b28565b5090565b8280548282559060005260206000209081019282156200094d579160200282015b828111156200094d5782516200093c90839060046200095b565b509160200191906001019062000922565b50620008fd92915062000b49565b82805482825590600052602060002090810192821562000999579160200282015b82811115620009995782518255916020019190600101906200097c565b50620008fd92915062000b6a565b828054828255906000526020600020908101928215620009ff579160200282015b82811115620009ff57825182546001600160a01b0319166001600160a01b03909116178255602090920191600190910190620009c8565b50620008fd92915062000b81565b828054600181600116156101000203166002900490600052602060002090601f016020900481019282601f1062000a5057805160ff191683800117855562000999565b82800160010185558215620009995791820182811115620009995782518255916020019190600101906200097c565b82805482825590600052602060002090601f0160209004810192821562000b1a5791602002820160005b8382111562000ae957835183826101000a81548160ff021916908360ff160217905550926020019260010160208160000104928301926001030262000aa9565b801562000b185782816101000a81549060ff021916905560010160208160000104928301926001030262000ae9565b505b50620008fd92915062000ba2565b80821115620008fd57600062000b3f828262000bbd565b5060010162000b28565b80821115620008fd57600062000b60828262000be7565b5060010162000b49565b5b80821115620008fd576000815560010162000b6b565b5b80821115620008fd5780546001600160a01b031916815560010162000b82565b5b80821115620008fd57805460ff1916815560010162000ba3565b50805460008255601f01602090049060005260206000209081019062000be4919062000b6a565b50565b508054600082559060005260206000209081019062000be4919062000b6a565b6020808252601b908201527f536166654d6174683a206164646974696f6e206f766572666c6f770000000000604082015260600190565b6020808252601f908201527f48524332303a206d696e7420746f20746865207a65726f206164647265737300604082015260600190565b6020808252818101527f48524332303a20616c72656164792072656163686564206d6178537570706c79604082015260600190565b90815260200190565b615f468062000cc36000396000f3fe608060405234801561001057600080fd5b50600436106102ba5760003560e01c8063893d20e811610182578063cc85f080116100e9578063e87f2cce116100a2578063f2fde38b1161007c578063f2fde38b146105ea578063f656f562146105fd578063f697ddb214610610578063fd125ece14610618576102ba565b8063e87f2cce146105b3578063ed73ee25146105ca578063ee0a3951146105d2576102ba565b8063cc85f0801461053b578063d5abeb011461055f578063d96a094a14610567578063dd62ed3e1461057a578063df8251fb1461058d578063e4849b32146105a0576102ba565b8063a0712d681161013b578063a0712d68146104bc578063a457c2d7146104cf578063a7310b58146104e2578063a9059cbb14610502578063bdc42a7a14610515578063c711106314610528576102ba565b8063893d20e81461045e5780638a43bb01146104735780638da5cb5b1461048657806395d89b411461048e57806399eb9576146104965780639bf00117146104a9576102ba565b806336fdde7c1161022657806347e7ef24116101df57806347e7ef24146104025780635da4c926146104155780635ee4462c1461042857806370a0823114610430578063715018a614610443578063841635511461044b576102ba565b806336fdde7c146103bc57806339509351146103c457806339b50688146103d75780633ccfd60b146103df5780633eaaf86b146103e7578063440565af146103ef576102ba565b806318160ddd1161027857806318160ddd146103725780631e71615b1461037a57806322f4596f1461038257806323b872dd1461038a57806326c0e5c51461039d578063313ce567146103a7576102ba565b80623f7a89146102bf57806306fdde03146102e8578063095ea7b3146102fd5780630e25a4411461031d57806315c43aaf1461033d5780631701a82a14610352575b600080fd5b6102d26102cd366004615298565b61063b565b6040516102df91906155de565b60405180910390f35b6102f0610958565b6040516102df91906156fa565b61031061030b36600461539c565b6109ee565b6040516102df91906156ca565b61033061032b366004615298565b610a0c565b6040516102df9190615db6565b610345610ab3565b6040516102df9190615678565b610365610360366004615298565b610b8c565b6040516102df9190615646565b610330610d01565b6102d2610d07565b610330610eb2565b61031061039836600461535c565b610eb8565b6103a5610f3f565b005b6103af611014565b6040516102df9190615e0c565b6103a561101d565b6103106103d236600461539c565b6110e5565b6103a5611133565b6103a56113be565b610330611791565b6103a56103fd36600461535c565b611797565b6103a561041036600461539c565b6117ab565b6103a561042336600461539c565b61180f565b6103a561181d565b61033061043e366004615298565b611a68565b6103a5611a83565b61031061045936600461535c565b611b02565b610466611b44565b6040516102df919061552b565b6103a561048136600461539c565b611b53565b610466611bc2565b6102f0611bd1565b6103306104a436600461546d565b611c32565b6103a56104b736600461535c565b611c4d565b6103106104ca36600461546d565b611c58565b6103106104dd36600461539c565b611ca8565b6104f56104f0366004615298565b611d10565b6040516102df91906156a1565b61031061051036600461539c565b611e8f565b61033061052336600461546d565b611ea3565b6103a561053636600461535c565b611eae565b61054e610549366004615298565b611eba565b6040516102df9594939291906156d5565b610330612244565b6103a561057536600461546d565b61224a565b6103306105883660046152b4565b612286565b6103a561059b3660046153c7565b6122b1565b6103a56105ae36600461546d565b612399565b6105bb6123d5565b6040516102df9392919061559b565b6103a5612580565b6105da6125be565b6040516102df9493929190615df1565b6103a56105f8366004615298565b612626565b6103a561060b3660046152ec565b612664565b6104666126cd565b61062b610626366004615298565b6126dc565b6040516102df9493929190615dbf565b60606000805b6050548110156106955760006050828154811061065a57fe5b6000918252602090912060049091020160018101549091506001600160a01b038681169116141561068c576001909201915b50600101610641565b5060005b6051548110156106ed576000605182815481106106b257fe5b6000918252602090912060049091020160018101549091506001600160a01b03868116911614156106e4576001909201915b50600101610699565b5060608167ffffffffffffffff8111801561070757600080fd5b5060405190808252806020026020018201604052801561074157816020015b61072e61519c565b8152602001906001900390816107265790505b5090506000805b6050548110156108485760006050828154811061076157fe5b6000918252602090912060049091020160018101549091506001600160a01b038881169116141561083f57806000015484848151811061079d57fe5b60200260200101516000600481106107b157fe5b602002015283516000908590859081106107c757fe5b60200260200101516001600481106107db57fe5b6020020152600281015484518590859081106107f357fe5b602002602001015160026004811061080757fe5b60200201526003810154845185908590811061081f57fe5b602002602001015160036004811061083357fe5b60200201526001909201915b50600101610748565b5060005b60515481101561094c5760006051828154811061086557fe5b6000918252602090912060049091020160018101549091506001600160a01b03888116911614156109435780600001548484815181106108a157fe5b60200260200101516000600481106108b557fe5b602002015283516001908590859081106108cb57fe5b60200260200101516001600481106108df57fe5b6020020152600281015484518590859081106108f757fe5b602002602001015160026004811061090b57fe5b60200201526003810154845185908590811061092357fe5b602002602001015160036004811061093757fe5b60200201526001909201915b5060010161084c565b5090925050505b919050565b60058054604080516020601f60026000196101006001881615020190951694909404938401819004810282018101909252828152606093909290918301828280156109e45780601f106109b9576101008083540402835291602001916109e4565b820191906000526020600020905b8154815290600101906020018083116109c757829003601f168201915b5050505050905090565b6000610a026109fb6127b3565b84846127b7565b5060015b92915050565b600e546000906001600160a01b0383811691161480610a3857506012546001600160a01b038381169116145b80610a505750600a546001600160a01b038381169116145b15610a5d57506000610953565b610a65611014565b6001600160a01b03831660009081526049602052604090206001015460ff91909116600a0a906103e9600160201b90910461ffff1610610aa6576002610aa9565b60055b60ff160292915050565b610abb6151ba565b60408051610220810182526017548152601854600160401b810461ffff166020830152600160201b900463ffffffff1691810191909152601b546060820152601f546080820152601c5460a0820152604c5460c082015260035460e0820152601954610100820152601d546101208201526101408101610b3961286b565b815260200160575481526020016056548152602001610b586000612888565b8152602001610b676001612888565b8152602001610b766002612888565b8152602001610b856003612888565b9052905090565b610b946151d9565b6001600160a01b0382166000908152605560205260408120805490919081805b8454811015610c025760546000868381548110610bcd57fe5b60009182526020808320909101546001600160a01b031683528201929092526040019020600201549390930192600101610bb4565b506001600160a01b0386166000908152605460205260409020600381015415610c53578054610c4e576125808160030154430310610c41576000610c44565b60015b60ff169150610c53565b600191505b600080610c5f8961292d565b91509150600060565460001415610c77576000610c94565b60565461708002600954856002015461bb80020281610c9257fe5b045b6040805161016081018252600287015481526020810192909252855490820152606081019690965250608085019590955260a0840192909252600381015460c0840152600681015460e0840152600401546101008301526101208201526101408101919091529392505050565b60035490565b60606000600a60528054905011610d2057605254610d23565b600a5b905060608167ffffffffffffffff81118015610d3e57600080fd5b50604051908082528060200260200182016040528015610d7857816020015b610d6561519c565b815260200190600190039081610d5d5790505b50905060005b82811015610eab5760528054600091908581038401908110610d9c57fe5b90600052602060002001905080600081548110610db557fe5b9060005260206000200154838381518110610dcc57fe5b6020026020010151600060048110610de057fe5b6020020152805481906001908110610df457fe5b9060005260206000200154838381518110610e0b57fe5b6020026020010151600160048110610e1f57fe5b6020020152805481906002908110610e3357fe5b9060005260206000200154838381518110610e4a57fe5b6020026020010151600260048110610e5e57fe5b6020020152805481906003908110610e7257fe5b9060005260206000200154838381518110610e8957fe5b6020026020010151600360048110610e9d57fe5b602002015250600101610d7e565b5091505090565b60045481565b6000610ec58484846129ae565b610f3584610ed16127b3565b610f3085604051806060016040528060288152602001615ec7602891396001600160a01b038a16600090815260026020526040812090610f0f6127b3565b6001600160a01b031681526020810191909152604001600020549190612ab8565b6127b7565b5060019392505050565b6000610f496127b3565b90506001600160a01b038116610f7a5760405162461bcd60e51b8152600401610f71906159eb565b60405180910390fd5b6001600160a01b038116600090815260546020526040812090610f9c8361292d565b91505060008111610fbf5760405162461bcd60e51b8152600401610f71906159eb565b601b5481605954011115610fe55760405162461bcd60e51b8152600401610f7190615d78565b600060038301819055600483018054830190556005830155605980548201905561100f8382612ae4565b505050565b60075460ff1690565b601e54601d544203106110e3576014601c546020546103e8028161103d57fe5b0410156110d457601e54601d5401601f55600061105861286b565b905060646014820204610dac605083020460005b6045548110156110cf576000604960006021846024811061108957fe5b01546001600160a01b031681526020810191909152604001600020601f5460010160068201559050602382146110bf57826110c1565b835b600b9091015560010161106c565b505050505b42601d55600060208190556045555b565b6000610a026110f26127b3565b84610f3085600260006111036127b3565b6001600160a01b03908116825260208083019390935260409182016000908120918c168152925290205490612787565b600061113d6127b3565b90506001600160a01b0381166111655760405162461bcd60e51b8152600401610f71906159eb565b60008060005b6051548110156113105760006051828154811061118457fe5b6000918252602090912060049091020160018101549091506001600160a01b03868116911614156111c357600301546001909301929190910190611308565b831561130657605182815481106111d657fe5b9060005260206000209060040201600001546051858403815481106111f757fe5b6000918252602090912060049091020155605180548390811061121657fe5b906000526020600020906004020160010160009054906101000a90046001600160a01b031660518584038154811061124a57fe5b906000526020600020906004020160010160006101000a8154816001600160a01b0302191690836001600160a01b031602179055506051828154811061128c57fe5b9060005260206000209060040201600201546051858403815481106112ad57fe5b906000526020600020906004020160020181905550605182815481106112cf57fe5b9060005260206000209060040201600301546051858403815481106112f057fe5b9060005260206000209060040201600301819055505b505b60010161116b565b5081156113b65760005b8281101561137057605180548061132d57fe5b600082815260208120600460001990930192830201818155600181810180546001600160a01b03191690556002820183905560039091019190915591550161131a565b5061137c3084836129ae565b7fa21a2a879c924a525cd3d043187d43e34b2573d79532750b8792307a7c2feadb83826040516113ad929190615563565b60405180910390a15b61100f612bc5565b60006113c86127b3565b90506001600160a01b0381166113f05760405162461bcd60e51b8152600401610f71906159eb565b600080600080600061140186611eba565b9450945094509450945084156114295760405162461bcd60e51b8152600401610f71906158de565b600a546001600160a01b0387811691161415611455576000600b55600c80548201905542600d55611737565b600e546001600160a01b0387811691161415611481576000600f55601080548201905542601155611737565b6012546001600160a01b03878116911614156114ad576000601355601480548201905542601555611737565b6001600160a01b0386166000908152604960205260409020600a81015415611735576003810180548301905542600682015560006007820181905560088201819055600b82018190556001820154858701919060029083906005600160201b90910461ffff161061151e5786611521565b60005b018161152957fe5b0490508083600a015411156115db57600a830180548290039081905560009061155190612caf565b600185015490915060ff808316600160381b90920416146115c957808460010160076101000a81548160ff021916908360ff1602179055506103e8604a6001830360ff168154811061159f57fe5b90600052602060002090600402016003015485600a015402816115be57fe5b0460098501556115d5565b60098401805483900390555b506115f9565b60018301805460ff60381b191690556000600a840181905560098401555b60018301546103e7600160201b90910461ffff1610156117225760018301546018546103e8604b8502049163ffffffff908116620f42400391828216600160201b909104909116111561167b5763ffffffff81166000908152604860209081526040808320546001600160a01b0316835260499091529020600b018054830190555b5060408051606081018252428152602081019283526000918101828152604f8054600181018255935290517fa2e8f972dc9f7d0b76177bb8be102e6bec069ee42c61080745e8825470e80c6c60039093029283015591517fa2e8f972dc9f7d0b76177bb8be102e6bec069ee42c61080745e8825470e80c6d82015590517fa2e8f972dc9f7d0b76177bb8be102e6bec069ee42c61080745e8825470e80c6e90910155611732565b604c80546103e860968502040190555b50505b505b8015611781576007546117599061010090046001600160a01b03168783612cfd565b600061176487610a0c565b9050801561177f576117768782612deb565b60198054820190555b505b611789612bc5565b505050505050565b60035481565b6117a2838383612eb5565b61100f83613137565b60006117b56127b3565b90506001600160a01b0381166117dd5760405162461bcd60e51b8152600401610f71906159eb565b6001600160a01b0383166118035760405162461bcd60e51b8152600401610f719061578a565b61100f81848442613503565b6118198282612ae4565b5050565b60006118276127b3565b90506001600160a01b03811661184f5760405162461bcd60e51b8152600401610f71906159eb565b60008060005b6050548110156119ba5760006050828154811061186e57fe5b6000918252602090912060049091020160018101549091506001600160a01b03868116911614156118ad576003015460019093019291909101906119b2565b83156119b057605082815481106118c057fe5b906000526020600020906004020160010160009054906101000a90046001600160a01b03166050858403815481106118f457fe5b906000526020600020906004020160010160006101000a8154816001600160a01b0302191690836001600160a01b031602179055506050828154811061193657fe5b90600052602060002090600402016002015460508584038154811061195757fe5b9060005260206000209060040201600201819055506050828154811061197957fe5b90600052602060002090600402016003015460508584038154811061199a57fe5b9060005260206000209060040201600301819055505b505b600101611855565b5081156113b65760005b82811015611a1a5760508054806119d757fe5b600082815260208120600460001990930192830201818155600181810180546001600160a01b0319169055600282018390556003909101919091559155016119c4565b50600754611a379061010090046001600160a01b03168483612cfd565b7f866cb17a996e44fad30a4450e43850706bfa73cbc9cc00561c44cd87e9f1503f83826040516113ad929190615563565b6001600160a01b031660009081526001602052604090205490565b611a8b6127b3565b6000546001600160a01b03908116911614611ab85760405162461bcd60e51b8152600401610f7190615b7a565b600080546040516001600160a01b03909116907f8be0079c531659141344cd1fd0a4f28419497f9722a3daafe3b4186f6b6457e0908390a3600080546001600160a01b0319169055565b6000611b0c6127b3565b6000546001600160a01b03908116911614611b395760405162461bcd60e51b8152600401610f7190615b7a565b610f35848484612cfd565b6000611b4e611bc2565b905090565b6000611b5d6127b3565b90506001600160a01b038116611b855760405162461bcd60e51b8152600401610f71906157ba565b826001600160a01b0316816001600160a01b03161415611bb75760405162461bcd60e51b8152600401610f7190615c6e565b61100f818484612eb5565b6000546001600160a01b031690565b60068054604080516020601f60026000196101006001881615020190951694909404938401819004810282018101909252828152606093909290918301828280156109e45780601f106109b9576101008083540402835291602001916109e4565b6000601754600a02600954830281611c4657fe5b0492915050565b61100f8383836127b7565b6000611c626127b3565b6000546001600160a01b03908116911614611c8f5760405162461bcd60e51b8152600401610f7190615b7a565b611ca0611c9a6127b3565b83612ae4565b506001919050565b6000610a02611cb56127b3565b84610f3085604051806060016040528060258152602001615ea26025913960026000611cdf6127b3565b6001600160a01b03908116825260208083019390935260409182016000908120918d16815292529020549190612ab8565b611d186151f8565b6001600160a01b038216611d3e5760405162461bcd60e51b8152600401610f7190615c45565b600080600080600080600080611d538a611a68565b600a549091506001600160a01b038b811691161415611dbe57600c546047549096506000908190611d8e906001600160a01b03166001613d81565b6047546001600160a01b031660009081526049602052604090206002015460019092019650019350611e4b915050565b600e546001600160a01b038b811691161415611dde57600c549550611e4b565b6012546001600160a01b038b811691161415611dfe57600c549550611e4b565b6001600160a01b038a16600090815260496020526040812080546005820154600383015460028401546009850154939d509b509950909750955090611e44908c90613d81565b9094509250505b604080516101008101825298895260208901919091528701929092526060860194909452608085019290925260a084015260c083019190915260e082015292915050565b6000610a02611e9c6127b3565b84846129ae565b6000610a0682612888565b61100f83838342613503565b600a546000908190819081908190819081908190819081906001600160a01b038c811691161415611f9d576047546001600160a01b031660009081526049602052604081206046805491926103e892611f0f57fe5b90600052602060002001600281548110611f2557fe5b90600052602060002090602091828204019190069054906101000a900460ff1660ff16611f56838460060154613e59565b0281611f5e57fe5b04600a60010154019150611f70615217565b6047546006830154611f8f916001600160a01b03169060016013613f02565b604001519450612232915050565b600e546001600160a01b038c811691161415611fbc5750600f54612232565b6012546001600160a01b038c811691161415611fdb5750601354612232565b6001600160a01b038b166000908152604960205260409020601f546006820154109550851561201c5760405162461bcd60e51b8152600401610f719061593b565b6001810154600160381b900460ff166120475760405162461bcd60e51b8152600401610f7190615c18565b80600b015492506000604a60018360010160079054906101000a900460ff160360ff168154811061207457fe5b9060005260206000209060040201905061208c615217565b6120f38e8460060154600060468660020160019054906101000a900460ff1660ff16815481106120b857fe5b906000526020600020016001815481106120ce57fe5b60009182526020918290209181049091015460ff601f9092166101000a900416613f02565b9050612103838460060154613e59565b6040820151600185015491985096506103e6600160201b90910461ffff1611801561213f575060018301546103ea600160201b90910461ffff16105b1561219e5760005b604f5481101561219c576000604f828154811061216057fe5b9060005260206000209060030201905084600601548160000154111561219357610bb681600101548161218f57fe5b0496505b50600101612147565b505b6103e8826003015484600a015402816121b357fe5b048582604001518901011197508761222e5760018301546005600160201b90910461ffff1610156121f257846103e8610352898901020401935061222e565b60018301546103e6600160201b90910461ffff161115612220576103e861035288880187010204935061222e565b6103e8610352888801020493505b5050505b939a9299509097509550909350915050565b60045490565b60006122546127b3565b90506001600160a01b03811661227c5760405162461bcd60e51b8152600401610f71906159eb565b611819818361421e565b6001600160a01b03918216600090815260026020908152604080832093909416825291909152205490565b6122b96127b3565b6000546001600160a01b039081169116146122e65760405162461bcd60e51b8152600401610f7190615b7a565b336122ef611bc2565b6001600160a01b0316146123155760405162461bcd60e51b8152600401610f7190615b7a565b60078054610100600160a81b0319166101006001600160a01b03988916021760ff60a81b1916600160a81b60ff979097169690960295909517909455600a80546001600160a01b031990811694871694909417905560128054841692861692909217909155600e80548316918516919091179055604b805490911691909216179055565b60006123a36127b3565b90506001600160a01b0381166123cb5760405162461bcd60e51b8152600401610f71906159eb565b61181981836146fe565b60408051600a8082526101608201909252606091829182918291906020820161014080368337505060408051600a808252610160820190925292935060609291506020820161014080368337505060408051600a808252610160820190925292935060609291506020820161014080368337019050509050600080805b600a81101561257057605a818154811061246857fe5b6000918252602090912001546001600160a01b0316915081158015906124ae57506001600160a01b03821660009081526054602052604090206003015443612580909101115b1561256857818684815181106124c057fe5b60200260200101906001600160a01b031690816001600160a01b03168152505060546000836001600160a01b03166001600160a01b031681526020019081526020016000206002015485848151811061251557fe5b60200260200101818152505060546000836001600160a01b03166001600160a01b031681526020019081526020016000206003015484848151811061255657fe5b60209081029190910101526001909201915b600101612452565b5093965091945092505050909192565b600061258a6127b3565b90506001600160a01b0381166125b25760405162461bcd60e51b8152600401610f71906159eb565b6125bb81613137565b50565b6000806000806125cc6127b3565b6000546001600160a01b039081169116146125f95760405162461bcd60e51b8152600401610f7190615b7a565b5050601854601b54601f54600160401b830461ffff1695600160201b90930463ffffffff16945090925090565b61262e6127b3565b6000546001600160a01b0390811691161461265b5760405162461bcd60e51b8152600401610f7190615b7a565b6125bb81614bb9565b600780546001600160a01b0396871661010002610100600160a81b0319909116179055600a80549486166001600160a01b03199586161790556012805493861693851693909317909255600e8054918516918416919091179055604b8054919093169116179055565b6047546001600160a01b031681565b6001600160a01b038082166000908152604960209081526040808320600d810154600f820154600e909201805484518187028101870190955280855295968796879660609661ffff600160a01b87041696841695909316939291839183018282801561277157602002820191906000526020600020905b81546001600160a01b03168152600190910190602001808311612753575b5050505050905093509350935093509193509193565b6000828201838110156127ac5760405162461bcd60e51b8152600401610f7190615904565b9392505050565b3390565b6001600160a01b0383166127dd5760405162461bcd60e51b8152600401610f7190615cf0565b6001600160a01b0382166128035760405162461bcd60e51b8152600401610f7190615811565b6001600160a01b0380841660008181526002602090815260408083209487168084529490915290819020849055517f8c5be1e5ebec7d5bd14f71427d1e84f3dd0314c0f7b2291e5b200ac8c7c3b9259061285e908590615db6565b60405180910390a3505050565b60006103e8612878614c3a565b6032028161288257fe5b04905090565b600060038211156128ab5760405162461bcd60e51b8152600401610f7190615b54565b601854605380546103e892600160401b900461ffff169190859081106128cd57fe5b906000526020600020016000815481106128e357fe5b906000526020600020015402816128f657fe5b046053838154811061290457fe5b9060005260206000200160008154811061291a57fe5b9060005260206000200154019050919050565b6001600160a01b038116600090815260546020526040812060038101548291901561299e57805461299e576003810154430361258081111561296e57506125805b806056546170800283600201546009548461bb800202028161298c57fe5b048360050154019350935050506129a9565b600501546000925090505b915091565b6001600160a01b0383166129d45760405162461bcd60e51b8152600401610f7190615899565b6001600160a01b0382166129fa5760405162461bcd60e51b8152600401610f7190615baf565b612a3781604051806060016040528060268152602001615e7c602691396001600160a01b0386166000908152600160205260409020549190612ab8565b6001600160a01b038085166000908152600160205260408082209390935590841681522054612a669082612787565b6001600160a01b0380841660008181526001602052604090819020939093559151908516907fddf252ad1be2c89b69c2b068fc378daa952ba7f163c4a11628f55a4df523b3ef9061285e908590615db6565b60008184841115612adc5760405162461bcd60e51b8152600401610f7191906156fa565b505050900390565b6001600160a01b038216612b0a5760405162461bcd60e51b8152600401610f71906159b4565b600454600354612b1a9083612787565b10612b375760405162461bcd60e51b8152600401610f7190615af9565b600354612b449082612787565b6003556001600160a01b038216600090815260016020526040902054612b6a9082612787565b6001600160a01b0383166000818152600160205260408082209390935591519091907fddf252ad1be2c89b69c2b068fc378daa952ba7f163c4a11628f55a4df523b3ef90612bb9908590615db6565b60405180910390a35050565b60008060006064604c5460050281612bd957fe5b04905060005b605154811015612c9057600060518281548110612bf857fe5b9060005260206000209060040201905062015180816000015442031115612c8757601754600382015402808410612c7e57604c80548290039055600382015460075460018481015498019796909101959482900394612c69916001600160a01b036101009091048116911683612cfd565b8560021415612c79575050612c90565b612c85565b5050612c90565b505b50600101612bdf565b50811561100f57604b5461100f9030906001600160a01b0316846129ae565b604a546000905b8015612cf457604a6001820381548110612ccc57fe5b9060005260206000209060040201600101548310612ceb579050610953565b60001901612cb6565b50600092915050565b60006060846001600160a01b031663a9059cbb8585604051602401612d23929190615563565b6040516020818303038152906040529060e01b6020820180516001600160e01b038381831617835250505050604051612d5c919061550f565b6000604051808303816000865af19150503d8060008114612d99576040519150601f19603f3d011682016040523d82523d6000602084013e612d9e565b606091505b5091509150818015612dc8575080511580612dc8575080806020019051810190612dc8919061544d565b612de45760405162461bcd60e51b8152600401610f7190615753565b5050505050565b6001600160a01b038216612e115760405162461bcd60e51b8152600401610f7190615a8e565b612e4e81604051806060016040528060228152602001615eef602291396001600160a01b0385166000908152600160205260409020549190612ab8565b6001600160a01b038316600090815260016020526040902055600354612e749082614cc0565b6003556040516000906001600160a01b038416907fddf252ad1be2c89b69c2b068fc378daa952ba7f163c4a11628f55a4df523b3ef90612bb9908590615db6565b6001600160a01b03831660009081526054602052604081206053805491929184908110612ede57fe5b90600052602060002001600181548110612ef457fe5b600091825260209091200154600a549091506001600160a01b038681169116146130d157600080612f2485612888565b905060006064601860089054906101000a900461ffff1661ffff161115612f785760538681548110612f5257fe5b90600052602060002001600381548110612f6857fe5b9060005260206000200154612fa7565b60538681548110612f8557fe5b90600052602060002001600281548110612f9b57fe5b90600052602060002001545b6007546103e8828502049450909150612fd09061010090046001600160a01b0316893085614d02565b6001600160a01b0387161561308c576007546064605a850204906130039061010090046001600160a01b03168983612cfd565b600286015461305b576001600160a01b038089166000818152605560209081526040822080546001818101835591845291909220018054938d166001600160a01b03199485161790558801805490921617905561308a565b60018601546001600160a01b0389811691161461308a5760405162461bcd60e51b8152600401610f71906157e4565b505b50604c80546064600a9490940293909304909201909155600b80546103e860148402819004909101909155600f80549281029190910491820190556013805490910190555b60028201546130f357600082556002820181905560578054600101905561311b565b6003820154156131105760006131088661292d565b600585015550505b600282018054820190555b6056805490910190556000600382015542600690910155505050565b6001600160a01b038116600090815260546020526040902060028101546131705760405162461bcd60e51b8152600401610f7190615c9d565b6003810154156131925760405162461bcd60e51b8152600401610f7190615a63565b60008060645b600a8310156133075760006001600160a01b0316605a84815481106131b957fe5b6000918252602090912001546001600160a01b031614156131d957613307565b60546000605a85815481106131ea57fe5b60009182526020808320909101546001600160a01b031683528201929092526040019020600301541580159061325c575061258060546000605a868154811061322f57fe5b60009182526020808320909101546001600160a01b03168352820192909252604001902060030154430311155b156132fc57846001600160a01b0316605a848154811061327857fe5b6000918252602090912001546001600160a01b031614156132965750805b605a83815481106132a357fe5b600091825260209091200154605a805460018501946001600160a01b03909316929081106132cd57fe5b9060005260206000200160006101000a8154816001600160a01b0302191690836001600160a01b031602179055505b600190920191613198565b8192505b600a831015613358576000605a848154811061332357fe5b600091825260209091200180546001600160a01b0319166001600160a01b03929092169190911790556001929092019161330b565b80606414156134e157600092505b818310156133c55760546000605a858154811061337f57fe5b60009182526020808320909101546001600160a01b0316835282019290925260400190206002908101549085015411156133ba5750816133c5565b600190920191613366565b806064141561341957600a8210156134145784605a83815481106133e557fe5b9060005260206000200160006101000a8154816001600160a01b0302191690836001600160a01b031602179055505b6134e1565b600a821015613429576001909101905b6001820392505b808311156134a457605a600184038154811061344857fe5b600091825260209091200154605a80546001600160a01b03909216918590811061346e57fe5b600091825260209091200180546001600160a01b0319166001600160a01b03929092169190911790556000199290920191613430565b84605a82815481106134b257fe5b9060005260206000200160006101000a8154816001600160a01b0302191690836001600160a01b031602179055505b60006134ec8661292d565b600587015550504360039094019390935550505050565b60185463ffffffff600160201b82048116911681106135345760405162461bcd60e51b8152600401610f7190615bf2565b63ffffffff811661357157600a546001600160a01b0385811691161461356c5760405162461bcd60e51b8152600401610f719061572d565b613644565b600a8163ffffffff1610156135ad576047546001600160a01b0385811691161461356c5760405162461bcd60e51b8152600401610f7190615a3d565b6001600160a01b038516600090815260496020526040902060050154613605576001600160a01b03841660009081526049602052604090206005015461356c5760405162461bcd60e51b8152600401610f719061595f565b6001600160a01b038581166000908152604960205260409020600c01548116908516146136445760405162461bcd60e51b8152600401610f719061595f565b6001600160a01b038516600090815260496020526040902060050154801561369c576127108410156136975760085460640281850310156136975760405162461bcd60e51b8152600401610f719061598a565b6136c1565b60085460c8028410156136c15760405162461bcd60e51b8152600401610f7190615cc6565b60006136cc85611c32565b9050806136d888611a68565b10156136f65760405162461bcd60e51b8152600401610f7190615a15565b6007546137139061010090046001600160a01b0316883088614d02565b61371d8782612deb565b60198054820190556001600160a01b03871660009081526049602052604090206006810154613b0d576000613750614deb565b601854909150600160201b900463ffffffff16600114156137b15760018201805460ff60301b19169055604780546001600160a01b038b81166001600160a01b031992831617909255600d84018054928b1692909116919091179055613a07565b6018546005600160401b90910461ffff16101561384c57600d820180546001600160a01b0319166001600160a01b038a161790556001808301805460ff60301b19166601000000000000830217905550600d8201546001600160a01b0390811660009081526049602090815260408220600e01805460018101825590835291200180546001600160a01b031916918b16919091179055613a07565b6001600160a01b03881660009081526049602052604090206001838101805460ff60301b19166602000000000000179055808201546601000000000000900460ff16600281111561389957fe5b146138b157600f8101546001600160a01b03166138b3565b885b600f840180546001600160a01b0319166001600160a01b0392909216919091179055600d8101546003600160a01b90910461ffff90811682810492900690811661391957600d850180546001600160a01b0319166001600160a01b038d1617905561396c565b61394983600e018361ffff168154811061392f57fe5b6000918252602090912001546001600160a01b0316614f25565b600d860180546001600160a01b0319166001600160a01b03929092169190911790555b600d8084018054600161ffff600160a01b808404821692909201160261ffff60a01b199091161790558501546001600160a01b03166139bd5760405162461bcd60e51b8152600401610f7190615acf565b505050600d8201546001600160a01b0390811660009081526049602090815260408220600e01805460018101825590835291200180546001600160a01b031916918b169190911790555b6306034e8b850163ffffffff9081168355600c830180546001600160a01b0319166001600160a01b038b1617905560018301805463ffffffff191691831691821780825560185465ffff0000000019909116600160401b90910461ffff16600160201b02179055600a8301889055600d8301805461ffff60a01b191690556207aae71015613abe5763ffffffff8116600090815260486020526040902080546001600160a01b0319166001600160a01b038b161790555b6018546040517f6932ac5f42401e77c40344f612fa5558d62470f6a92606e938a4743c566e6ce891613aff918c91600160201b900463ffffffff169061557c565b60405180910390a150613b8d565b600481015460ff1680613b2557508060060154601e54115b15613b3d576000600782018190556008820155613b82565b600080613b498a611eba565b505050915091508115613b69576000600784018190556008840155613b7f565b600783018190558015613b7f57613b7f83614f66565b50505b600a81018054870190555b600f8101546001600160a01b031615613bcd57600f8101546001600160a01b03166000908152604960205260409020600b0180546103e860288902040190555b600581018690556006810185905560028101805487019055600a810154600090613bf690612caf565b90506103e8604a6001830360ff1681548110613c0e57fe5b90600052602060002090600402016003015483600a01540281613c2d57fe5b04600983015560018201805460ff808416600160381b0260ff60381b199092169190911790915560048301541615613c6c5760048201805460ff191690555b604c80546103e860328a02819004909101909155600b805460148a02839004019055600f8054818a02929092049182019055601380549091019055601c8054880190556020805488019055601d86905560455460241415613d2e5760015b604554811015613d275760216001820360248110613ce457fe5b01546001600160a01b03166021600019830160248110613d0057fe5b0180546001600160a01b0319166001600160a01b0392909216919091179055600101613cca565b5060236045555b88602160455460248110613d3e57fe5b0180546001600160a01b0319166001600160a01b0392909216919091179055604580546001019055613d6e61101d565b613d76612bc5565b505050505050505050565b6001600160a01b038216600090815260496020526040812081908180805b600e840154811015613e4c57600084600e018281548110613dbc57fe5b6000918252602082200154600e870180546001600160a01b03909216935060499183919086908110613dea57fe5b60009182526020808320909101546001600160a01b03168352820192909252604001902090506013891015613e3457600080613e29848c600101613d81565b970196959095019450505b60020154600194850194930192919091019050613d9f565b5090969095509350505050565b60008260060154821015613e6f57826006015491505b601f54821015613e8157506000610a06565b6000603c83420381613e8f57fe5b049050601f548310613ef7576215f90081604a60018760010160079054906101000a900460ff160360ff1681548110613ec457fe5b6000918252602090912060026004909202010154600a87015460ff909116020281613eeb57fe5b04846007015401613efa565b60005b949350505050565b613f0a615217565b6001600160a01b03851660009081526049602052604081209084151580613f3e57506047546001600160a01b038881169116145b613f5f57600d820154600390600160a01b900461ffff160461ffff16613f65565b600e8201545b905060008060008060005b858110156141f857600087600e018281548110613f8957fe5b6000918252602082200154600e8a0180546001600160a01b03909216935060499183919086908110613fb757fe5b60009182526020808320909101546001600160a01b031683528201929092526040019020600481015490915060ff166141ee57613ff4818e613e59565b60018a810154919850600160381b90910460ff161080159061401457508b155b15614073576103e8604660008154811061402a57fe5b9060005260206000200160028154811061404057fe5b60009182526020918290209181049091015460ff601f9092166101000a90041688028161406957fe5b048501945061419c565b600189810154600160381b900460ff161080159061409157508b6001145b156140a7576103e8604660018154811061402a57fe5b60018901546002600160381b90910460ff16108015906140c8575060028c10155b80156140d5575060068c11155b156140eb576103e8604660028154811061402a57fe5b60018901546003600160381b90910460ff161080159061410c575060078c10155b80156141195750600f8c11155b1561412f576103e8604660038154811061402a57fe5b60018901546004600160381b90910460ff161061419c576103e8604660048154811061415757fe5b9060005260206000200160028154811061416d57fe5b60009182526020918290209181049091015460ff601f9092166101000a90041688028161419657fe5b04850194505b60018b038c10156141dd576141af615217565b6141be838f8f6001018f613f02565b9050806000015185019450806020015187019650806040015186019550505b600281015495909501946001909301925b5050600101613f70565b506040805160608101825291825260208201939093529182015298975050505050505050565b600060175460095483028161422f57fe5b60525460075492909104925082916000919061425b9061010090046001600160a01b0316873088614d02565b60005b60515481101561440c5760006051828154811061427757fe5b906000526020600020906004020190508481600301541061434e5760006009546103e80260175487026103e602816142ab57fe5b60075460018501549290910492506142d5916001600160a01b036101009092048216911683612cfd565b60408051608081018252612711860181526000602082018190529181018890524260608201526052805460018181018355919093529095019461432a91600080516020615e5c83398151915201906004615238565b506003820180549690960395869055600095614347576001909401935b505061440c565b60006009546103e8026017548360030154026103e6028161436b57fe5b6007546001850154929091049250614395916001600160a01b036101009092048216911683612cfd565b6040805160808101825261271186018152600060208201819052600385015492820192909252426060820152605280546001818101835591909352909501946143f091600080516020615e5c83398151915201906004615238565b505060030180546000909155909303926001928301920161425e565b50811561457e57815b605154811015614522576051818154811061442c57fe5b906000526020600020906004020160010160009054906101000a90046001600160a01b031660518483038154811061446057fe5b906000526020600020906004020160010160006101000a8154816001600160a01b0302191690836001600160a01b03160217905550605181815481106144a257fe5b9060005260206000209060040201600201546051848303815481106144c357fe5b906000526020600020906004020160020181905550605181815481106144e557fe5b90600052602060002090600402016003015460518483038154811061450657fe5b6000918252602090912060036004909202010155600101614415565b5060005b8281101561457c57605180548061453957fe5b600082815260208120600460001990930192830201818155600181810180546001600160a01b031916905560028201839055600390910191909155915501614526565b505b82156146e9576050546064116145a65760405162461bcd60e51b8152600401610f7190615b2e565b60006009546017548502816145b757fe5b604080516080810182524281526001600160a01b038b8116602083019081528284018c815295909404606083018181526050805460018101825560009190915293517f5529612556959ef813dbe8d0ed29336ab75e80a9b7855030760b2917b01e568a60049095029485015594517f5529612556959ef813dbe8d0ed29336ab75e80a9b7855030760b2917b01e568b840180546001600160a01b031916919093161790915593517f5529612556959ef813dbe8d0ed29336ab75e80a9b7855030760b2917b01e568c82015591517f5529612556959ef813dbe8d0ed29336ab75e80a9b7855030760b2917b01e568d90920191909155519091507f2e63b61ed93a328967f80b447bc296cc3344b0b4cf419c417e252dd66af4c762906146df9089908490615563565b60405180910390a1505b828403156117815761178130878587036129ae565b600060095460175483028161470f57fe5b605254919004915081906000906147278630876129ae565b60005b6050548110156148ae5760006050828154811061474357fe5b906000526020600020906004020190508481600301541061480857600060175460095487028161476f57fe5b6001840154919004915061478e9030906001600160a01b0316836129ae565b604080516080810182526127118601815260016020820181905291810183905242606082015260528054808401825560009190915291909501946147e491600080516020615e5c83398151915201906004615238565b506003820180549690960395869055600095614801576001909401935b50506148ae565b60006017546009548360030154028161481d57fe5b6001840154919004915061483c9030906001600160a01b0316836129ae565b6040805160808101825261271186018152600160208201819052918101839052426060820152605280548084018255600091909152919095019461489291600080516020615e5c83398151915201906004615238565b505060030180546000909155909303926001928301920161472a565b508115614a2057815b6050548110156149c457605081815481106148ce57fe5b906000526020600020906004020160010160009054906101000a90046001600160a01b031660508483038154811061490257fe5b906000526020600020906004020160010160006101000a8154816001600160a01b0302191690836001600160a01b031602179055506050818154811061494457fe5b90600052602060002090600402016002015460508483038154811061496557fe5b9060005260206000209060040201600201819055506050818154811061498757fe5b9060005260206000209060040201600301546050848303815481106149a857fe5b60009182526020909120600360049092020101556001016148b7565b5060005b82811015614a1e5760508054806149db57fe5b600082815260208120600460001990930192830201818155600181810180546001600160a01b0319169055600282018390556003909101919091559155016149c8565b505b8215614b8b57605054606411614a485760405162461bcd60e51b8152600401610f7190615b2e565b6000601754600954850281614a5957fe5b604080516080810182524281526001600160a01b038b8116602083019081528284018c815295909404606083018181526051805460018101825560009190915293517f994a4b4eddb300691ee19901712848b1114bad8a1a4ae195e5abe0ec38021b9460049095029485015594517f994a4b4eddb300691ee19901712848b1114bad8a1a4ae195e5abe0ec38021b95840180546001600160a01b031916919093161790915593517f994a4b4eddb300691ee19901712848b1114bad8a1a4ae195e5abe0ec38021b9682015591517f994a4b4eddb300691ee19901712848b1114bad8a1a4ae195e5abe0ec38021b9790920191909155519091507fe52393fb0bc93d5edf3ddb6ef44887d82b0b9553466f447cb9b8b409087e970590614b819089908490615563565b60405180910390a1505b82840315611781576007546117819061010090046001600160a01b0316876103e88688036103e60204612cfd565b6001600160a01b038116614bdf5760405162461bcd60e51b8152600401610f7190615853565b600080546040516001600160a01b03808516939216917f8be0079c531659141344cd1fd0a4f28419497f9722a3daafe3b4186f6b6457e091a3600080546001600160a01b0319166001600160a01b0392909216919091179055565b6007546040516370a0823160e01b815260009161010090046001600160a01b0316906370a0823190614c7090309060040161552b565b60206040518083038186803b158015614c8857600080fd5b505afa158015614c9c573d6000803e3d6000fd5b505050506040513d601f19601f82011682018060405250810190611b4e9190615485565b60006127ac83836040518060400160405280601e81526020017f536166654d6174683a207375627472616374696f6e206f766572666c6f770000815250612ab8565b60006060856001600160a01b03166323b872dd868686604051602401614d2a9392919061553f565b6040516020818303038152906040529060e01b6020820180516001600160e01b038381831617835250505050604051614d63919061550f565b6000604051808303816000865af19150503d8060008114614da0576040519150601f19603f3d011682016040523d82523d6000602084013e614da5565b606091505b5091509150818015614dcf575080511580614dcf575080806020019051810190614dcf919061544d565b6117895760405162461bcd60e51b8152600401610f7190615d34565b6000806103e9601860089054906101000a900461ffff1661ffff1610614e2257601854600160401b900461ffff166107d003614e31565b601854600160401b900461ffff165b601a5461ffff918216925016811415614ed4576018805469ffff0000000000000000198116600160401b9182900461ffff9081166001018116830291909117928390556040517f66d08156b35a3ddc911dafbc8b10ffdc4e5126b090253256cfa71a80f87aefee93614ea893900490911690615da7565b60405180910390a1614ebe601754601654612787565b601755601a805461ffff19166001179055614eed565b601a805461ffff8082166001011661ffff199091161790555b50506018805467ffffffff00000000198116600160201b9182900463ffffffff90811660010181168302919091179283905591041690565b6001600160a01b0381166000908152604960205260408120600e81015415614f5f57614f5a81600e0160008154811061392f57fe5b6127ac565b5090919050565b600080805b601481101561519657600a54600d8501546001600160a01b03908116911614614fbd57600d8401546001600160a01b0316600090815260496020526040902060010154600160381b900460ff16614fc0565b60045b925060018360ff1610158015614fd65750806001145b1561503a576103e86046600081548110614fec57fe5b9060005260206000200160028154811061500257fe5b90600052602060002090602091828204019190069054906101000a900460ff1660ff168560070154028161503257fe5b04915061513a565b60018360ff161015801561504e5750806002145b15615064576103e86046600181548110614fec57fe5b60028360ff1610158015615079575060038110155b8015615086575060078111155b1561509c576103e86046600281548110614fec57fe5b60038360ff16101580156150b1575060088110155b80156150be575060108111155b156150d4576103e86046600381548110614fec57fe5b60048360ff161061513a576103e860466004815481106150f057fe5b9060005260206000200160028154811061510657fe5b90600052602060002090602091828204019190069054906101000a900460ff1660ff168560070154028161513657fe5b0491505b811561518e57600a54600d8501546001600160a01b039081169116141561516857600b805483019055615196565b600d8401546001600160a01b031660009081526049602052604090206008018054830190555b600101614f6b565b50505050565b60405180608001604052806004906020820280368337509192915050565b6040518061022001604052806011906020820280368337509192915050565b604051806101600160405280600b906020820280368337509192915050565b6040518061010001604052806008906020820280368337509192915050565b60405180606001604052806000815260200160008152602001600081525090565b828054828255906000526020600020908101928215615273579160200282015b82811115615273578251825591602001919060010190615258565b5061527f929150615283565b5090565b5b8082111561527f5760008155600101615284565b6000602082840312156152a9578081fd5b81356127ac81615e46565b600080604083850312156152c6578081fd5b82356152d181615e46565b915060208301356152e181615e46565b809150509250929050565b600080600080600060a08688031215615303578081fd5b853561530e81615e46565b9450602086013561531e81615e46565b9350604086013561532e81615e46565b9250606086013561533e81615e46565b9150608086013561534e81615e46565b809150509295509295909350565b600080600060608486031215615370578283fd5b833561537b81615e46565b9250602084013561538b81615e46565b929592945050506040919091013590565b600080604083850312156153ae578182fd5b82356153b981615e46565b946020939093013593505050565b60008060008060008060c087890312156153df578081fd5b86356153ea81615e46565b9550602087013560ff811681146153ff578182fd5b9450604087013561540f81615e46565b9350606087013561541f81615e46565b9250608087013561542f81615e46565b915060a087013561543f81615e46565b809150509295509295509295565b60006020828403121561545e578081fd5b815180151581146127ac578182fd5b60006020828403121561547e578081fd5b5035919050565b600060208284031215615496578081fd5b5051919050565b6000815180845260208085019450808401835b838110156154d55781516001600160a01b0316875295820195908201906001016154b0565b509495945050505050565b6000815180845260208085019450808401835b838110156154d5578151875295820195908201906001016154f3565b60008251615521818460208701615e1a565b9190910192915050565b6001600160a01b0391909116815260200190565b6001600160a01b039384168152919092166020820152604081019190915260600190565b6001600160a01b03929092168252602082015260400190565b6001600160a01b0392909216825263ffffffff16602082015260400190565b6000606082526155ae606083018661549d565b82810360208401526155c081866154e0565b905082810360408401526155d481856154e0565b9695505050505050565b6020808252825182820181905260009190848201906040850190845b8181101561563a57835183875b600481101561562457825182529187019190870190600101615607565b50505092840192608092909201916001016155fa565b50909695505050505050565b6101608101818360005b600b81101561566f578151835260209283019290910190600101615650565b50505092915050565b6102208101818360005b601181101561566f578151835260209283019290910190600101615682565b6101008101818360005b600881101561566f5781518352602092830192909101906001016156ab565b901515815260200190565b9415158552602085019390935260408401919091526060830152608082015260a00190565b6000602082528251806020840152615719816040850160208701615e1a565b601f01601f19169190910160400192915050565b6020808252600c908201526b11902732b2b22fa0b236b4b760a11b604082015260600190565b6020808252601f908201527f5472616e7366657248656c7065723a205452414e534645525f4641494c454400604082015260600190565b6020808252601690820152752320696e76616c69645f7265666572616c5f6c696e6b60501b604082015260600190565b60208082526010908201526f119034b73b30b634b22fb9b2b73232b960811b604082015260600190565b602080825260139082015272496e76616c69645f5265666572616c4c696e6b60681b604082015260600190565b60208082526022908201527f48524332303a20617070726f766520746f20746865207a65726f206164647265604082015261737360f01b606082015260800190565b60208082526026908201527f4f776e61626c653a206e6577206f776e657220697320746865207a65726f206160408201526564647265737360d01b606082015260800190565b60208082526025908201527f48524332303a207472616e736665722066726f6d20746865207a65726f206164604082015264647265737360d81b606082015260800190565b6020808252600c908201526b08c813dd995c999b1bddd95960a21b604082015260600190565b6020808252601b908201527f536166654d6174683a206164646974696f6e206f766572666c6f770000000000604082015260600190565b6020808252600a908201526913dd995c999b1bddd95960b21b604082015260600190565b60208082526011908201527008c81a5b9d985b1a5917dc9959995c985b607a1b604082015260600190565b60208082526010908201526f08c81d1bdbd7db1bddd7da5b9d995cdd60821b604082015260600190565b6020808252601f908201527f48524332303a206d696e7420746f20746865207a65726f206164647265737300604082015260600190565b60208082526010908201526f119024b73b30b634b22fb9b2b73232b960811b604082015260600190565b6020808252600e908201526d11902732b2b22f989812afaa363160911b604082015260600190565b6020808252600c908201526b23204e6565645f704e6f646560a01b604082015260600190565b60208082526011908201527008c8105b1c9958591e57dcdd185c9d1959607a1b604082015260600190565b60208082526021908201527f48524332303a206275726e2066726f6d20746865207a65726f206164647265736040820152607360f81b606082015260800190565b60208082526010908201526f08c81a5b9d985b1a5917dc185c995b9d60821b604082015260600190565b6020808252818101527f48524332303a20616c72656164792072656163686564206d6178537570706c79604082015260600190565b6020808252600c908201526b08c81c5d595d5957d99d5b1b60a21b604082015260600190565b6020808252600c908201526b34b73b30b634b22fba34b2b960a11b604082015260600190565b6020808252818101527f4f776e61626c653a2063616c6c6572206973206e6f7420746865206f776e6572604082015260600190565b60208082526023908201527f48524332303a207472616e7366657220746f20746865207a65726f206164647260408201526265737360e81b606082015260800190565b6020808252600c908201526b232066756c6c5f757365727360a01b604082015260600190565b60208082526013908201527232bc3832b1ba32b22fbb30b634b22fba34b2b960691b604082015260600190565b6020808252600f908201526e1a5b9d985b1a5917d858d8dbdd5b9d608a1b604082015260600190565b6020808252601590820152742320696e76616c69645f7265666572616c4c696e6b60581b604082015260600190565b6020808252600f908201526e119024b73b30b634b22fb6b4b732b960891b604082015260600190565b60208082526010908201526f08c8151bdbd7d31bddd7d25b9d995cdd60821b604082015260600190565b60208082526024908201527f48524332303a20617070726f76652066726f6d20746865207a65726f206164646040820152637265737360e01b606082015260800190565b60208082526024908201527f5472616e7366657248656c7065723a205452414e534645525f46524f4d5f46416040820152631253115160e21b606082015260800190565b60208082526015908201527423206f766572666c6f775f746f74616c5f6d696e6560581b604082015260600190565b61ffff91909116815260200190565b90815260200190565b8481526001600160a01b038481166020830152831660408201526080606082018190526000906155d49083018461549d565b93845260208401929092526040830152606082015260800190565b60ff91909116815260200190565b60005b83811015615e35578181015183820152602001615e1d565b838111156151965750506000910152565b6001600160a01b03811681146125bb57600080fdfea9144a5e7efd259b8b0d55467f4696ed47ec83317d61501b76366dbcca65ce7348524332303a207472616e7366657220616d6f756e7420657863656564732062616c616e636548524332303a2064656372656173656420616c6c6f77616e63652062656c6f77207a65726f48524332303a207472616e7366657220616d6f756e74206578636565647320616c6c6f77616e636548524332303a206275726e20616d6f756e7420657863656564732062616c616e6365a26469706673582212204726ae99785db63fe9c5b862117ceeeb823f123bcf603425790c1433d8a972b164736f6c634300060c0033",
			"opcodes": "PUSH1 0x80 PUSH1 0x40 MSTORE PUSH1 0x7 DUP1 SLOAD PUSH2 0x100 PUSH1 0x1 PUSH1 0xA8 SHL SUB NOT AND PUSH21 0x9DEFB199A6CDBFBAFFE8C1C712F469E5C900A4DE00 OR PUSH1 0xFF PUSH1 0xA8 SHL NOT AND PUSH1 0x1 PUSH1 0xA9 SHL OR SWAP1 DUP2 SWAP1 SSTORE PUSH1 0xFF PUSH1 0x1 PUSH1 0xA8 SHL SWAP1 SWAP2 DIV AND PUSH1 0xA EXP PUSH1 0x8 DUP2 SWAP1 SSTORE PUSH2 0x2710 PUSH1 0x9 SSTORE PUSH1 0x64 SWAP1 DIV PUSH1 0x16 SSTORE PUSH1 0xA PUSH1 0x8 SLOAD DUP2 PUSH3 0x68 JUMPI INVALID JUMPDEST DIV PUSH1 0x17 SSTORE PUSH1 0x18 DUP1 SLOAD PUSH6 0xFFFFFFFFFFFF PUSH1 0x20 SHL NOT PUSH4 0xFFFFFFFF NOT SWAP1 SWAP2 AND PUSH3 0xF4240 OR AND SWAP1 SSTORE PUSH1 0x0 PUSH1 0x19 DUP2 SWAP1 SSTORE PUSH1 0x1A DUP1 SLOAD PUSH2 0xFFFF NOT AND SWAP1 SSTORE PUSH4 0x1ABBC00 PUSH1 0x1B SSTORE PUSH1 0x1C DUP2 SWAP1 SSTORE TIMESTAMP PUSH1 0x1D SSTORE PUSH2 0xE10 PUSH1 0x1E SSTORE PUSH1 0x1F DUP2 SWAP1 SSTORE PUSH1 0x20 SWAP1 DUP2 SSTORE PUSH1 0x40 DUP1 MLOAD PUSH2 0x100 DUP2 ADD DUP3 MSTORE PUSH1 0x1 PUSH1 0xA0 DUP3 ADD DUP2 DUP2 MSTORE PUSH1 0xC0 DUP4 ADD SWAP2 SWAP1 SWAP2 MSTORE PUSH1 0xC8 PUSH1 0xE0 DUP4 ADD MSTORE DUP2 MSTORE DUP2 MLOAD PUSH1 0x60 DUP2 DUP2 ADD DUP5 MSTORE PUSH1 0x2 DUP1 DUP4 MSTORE DUP3 DUP7 ADD MSTORE PUSH1 0x96 DUP3 DUP6 ADD MSTORE DUP3 DUP6 ADD SWAP2 SWAP1 SWAP2 MSTORE DUP3 MLOAD DUP1 DUP3 ADD DUP5 MSTORE PUSH1 0x3 DUP2 MSTORE PUSH1 0x7 DUP2 DUP7 ADD MSTORE PUSH1 0x64 DUP2 DUP6 ADD MSTORE DUP3 DUP5 ADD MSTORE DUP3 MLOAD DUP1 DUP3 ADD DUP5 MSTORE PUSH1 0x8 DUP2 MSTORE PUSH1 0xF DUP2 DUP7 ADD MSTORE PUSH1 0x32 DUP2 DUP6 ADD MSTORE DUP2 DUP4 ADD MSTORE DUP3 MLOAD SWAP1 DUP2 ADD DUP4 MSTORE PUSH1 0x10 DUP2 MSTORE PUSH1 0x14 SWAP4 DUP2 ADD DUP5 SWAP1 MSTORE SWAP2 DUP3 ADD SWAP3 SWAP1 SWAP3 MSTORE PUSH1 0x80 DUP3 ADD MSTORE PUSH3 0x168 SWAP1 PUSH1 0x46 SWAP1 PUSH1 0x5 PUSH3 0x8A3 JUMP JUMPDEST POP PUSH1 0x40 MLOAD DUP1 PUSH1 0x80 ADD PUSH1 0x40 MSTORE DUP1 PUSH1 0x40 MLOAD DUP1 PUSH1 0x80 ADD PUSH1 0x40 MSTORE DUP1 PUSH1 0x8 SLOAD PUSH2 0x3A98 MUL DUP2 MSTORE PUSH1 0x20 ADD PUSH1 0x64 DUP2 MSTORE PUSH1 0x20 ADD PUSH1 0x64 DUP2 MSTORE PUSH1 0x20 ADD PUSH1 0x1E DUP2 MSTORE POP DUP2 MSTORE PUSH1 0x20 ADD PUSH1 0x40 MLOAD DUP1 PUSH1 0x80 ADD PUSH1 0x40 MSTORE DUP1 PUSH1 0x8 SLOAD PUSH2 0x1D4C MUL DUP2 MSTORE PUSH1 0x20 ADD PUSH1 0x32 DUP2 MSTORE PUSH1 0x20 ADD PUSH1 0x32 DUP2 MSTORE PUSH1 0x20 ADD PUSH1 0x14 DUP2 MSTORE POP DUP2 MSTORE PUSH1 0x20 ADD PUSH1 0x40 MLOAD DUP1 PUSH1 0x80 ADD PUSH1 0x40 MSTORE DUP1 PUSH1 0x8 SLOAD PUSH2 0xDAC MUL DUP2 MSTORE PUSH1 0x20 ADD PUSH1 0x19 DUP2 MSTORE PUSH1 0x20 ADD PUSH1 0x19 DUP2 MSTORE PUSH1 0x20 ADD PUSH1 0xA DUP2 MSTORE POP DUP2 MSTORE PUSH1 0x20 ADD PUSH1 0x40 MLOAD DUP1 PUSH1 0x80 ADD PUSH1 0x40 MSTORE DUP1 PUSH1 0x8 SLOAD PUSH1 0x64 MUL DUP2 MSTORE PUSH1 0x20 ADD PUSH1 0x5 DUP2 MSTORE PUSH1 0x20 ADD PUSH1 0xA DUP2 MSTORE PUSH1 0x20 ADD PUSH1 0x5 DUP2 MSTORE POP DUP2 MSTORE POP PUSH1 0x53 SWAP1 PUSH1 0x4 PUSH3 0x23F SWAP3 SWAP2 SWAP1 PUSH3 0x901 JUMP JUMPDEST POP PUSH1 0x40 DUP1 MLOAD PUSH1 0x3 DUP1 DUP3 MSTORE PUSH1 0x80 DUP3 ADD SWAP1 SWAP3 MSTORE SWAP1 PUSH1 0x20 DUP3 ADD PUSH1 0x60 DUP1 CALLDATASIZE DUP4 CALLDATACOPY POP POP DUP2 MLOAD PUSH3 0x272 SWAP3 PUSH1 0x58 SWAP3 POP PUSH1 0x20 ADD SWAP1 PUSH3 0x95B JUMP JUMPDEST POP PUSH1 0x40 DUP1 MLOAD PUSH1 0xA DUP1 DUP3 MSTORE PUSH2 0x160 DUP3 ADD SWAP1 SWAP3 MSTORE SWAP1 PUSH1 0x20 DUP3 ADD PUSH2 0x140 DUP1 CALLDATASIZE DUP4 CALLDATACOPY POP POP DUP2 MLOAD PUSH3 0x2A7 SWAP3 PUSH1 0x5A SWAP3 POP PUSH1 0x20 ADD SWAP1 PUSH3 0x9A7 JUMP JUMPDEST POP CALLVALUE DUP1 ISZERO PUSH3 0x2B5 JUMPI PUSH1 0x0 DUP1 REVERT JUMPDEST POP PUSH1 0x40 MLOAD DUP1 PUSH1 0x40 ADD PUSH1 0x40 MSTORE DUP1 PUSH1 0xB DUP2 MSTORE PUSH1 0x20 ADD PUSH11 0x544C42205374616B696E67 PUSH1 0xA8 SHL DUP2 MSTORE POP PUSH1 0x40 MLOAD DUP1 PUSH1 0x40 ADD PUSH1 0x40 MSTORE DUP1 PUSH1 0x3 DUP2 MSTORE PUSH1 0x20 ADD PUSH3 0x2A2621 PUSH1 0xE9 SHL DUP2 MSTORE POP PUSH1 0x4 PUSH5 0x519577B000 PUSH1 0x0 PUSH3 0x310 PUSH3 0x74B PUSH1 0x20 SHL PUSH1 0x20 SHR JUMP JUMPDEST PUSH1 0x0 DUP1 SLOAD PUSH1 0x1 PUSH1 0x1 PUSH1 0xA0 SHL SUB NOT AND PUSH1 0x1 PUSH1 0x1 PUSH1 0xA0 SHL SUB DUP4 AND SWAP1 DUP2 OR DUP3 SSTORE PUSH1 0x40 MLOAD SWAP3 SWAP4 POP SWAP2 PUSH32 0x8BE0079C531659141344CD1FD0A4F28419497F9722A3DAAFE3B4186F6B6457E0 SWAP1 DUP3 SWAP1 LOG3 POP DUP4 MLOAD PUSH3 0x36F SWAP1 PUSH1 0x5 SWAP1 PUSH1 0x20 DUP8 ADD SWAP1 PUSH3 0xA0D JUMP JUMPDEST POP DUP3 MLOAD PUSH3 0x385 SWAP1 PUSH1 0x6 SWAP1 PUSH1 0x20 DUP7 ADD SWAP1 PUSH3 0xA0D JUMP JUMPDEST POP PUSH1 0x7 DUP1 SLOAD PUSH1 0xFF NOT AND PUSH1 0xFF SWAP4 SWAP1 SWAP4 AND SWAP3 SWAP1 SWAP3 OR SWAP1 SWAP2 SSTORE PUSH1 0x4 SSTORE POP PUSH1 0x0 SWAP1 POP PUSH1 0x64 PUSH3 0x3AF PUSH3 0x74F JUMP JUMPDEST PUSH1 0x14 MUL DUP2 PUSH3 0x3BA JUMPI INVALID JUMPDEST DIV SWAP1 POP PUSH3 0x3C9 CALLER DUP3 PUSH3 0x755 JUMP JUMPDEST PUSH1 0x4A PUSH1 0x40 MLOAD DUP1 PUSH1 0xA0 ADD PUSH1 0x40 MSTORE DUP1 PUSH1 0x1 PUSH1 0xFF AND DUP2 MSTORE PUSH1 0x20 ADD PUSH1 0x8 SLOAD PUSH1 0xC8 MUL DUP2 MSTORE PUSH1 0x20 ADD PUSH1 0x10 PUSH1 0xFF AND DUP2 MSTORE PUSH1 0x20 ADD PUSH1 0x1 PUSH1 0xFF AND DUP2 MSTORE PUSH1 0x20 ADD PUSH2 0x898 DUP2 MSTORE POP SWAP1 DUP1 PUSH1 0x1 DUP2 SLOAD ADD DUP1 DUP3 SSTORE DUP1 SWAP2 POP POP PUSH1 0x1 SWAP1 SUB SWAP1 PUSH1 0x0 MSTORE PUSH1 0x20 PUSH1 0x0 KECCAK256 SWAP1 PUSH1 0x4 MUL ADD PUSH1 0x0 SWAP1 SWAP2 SWAP1 SWAP2 SWAP1 SWAP2 POP PUSH1 0x0 DUP3 ADD MLOAD DUP2 PUSH1 0x0 ADD PUSH1 0x0 PUSH2 0x100 EXP DUP2 SLOAD DUP2 PUSH1 0xFF MUL NOT AND SWAP1 DUP4 PUSH1 0xFF AND MUL OR SWAP1 SSTORE POP PUSH1 0x20 DUP3 ADD MLOAD DUP2 PUSH1 0x1 ADD SSTORE PUSH1 0x40 DUP3 ADD MLOAD DUP2 PUSH1 0x2 ADD PUSH1 0x0 PUSH2 0x100 EXP DUP2 SLOAD DUP2 PUSH1 0xFF MUL NOT AND SWAP1 DUP4 PUSH1 0xFF AND MUL OR SWAP1 SSTORE POP PUSH1 0x60 DUP3 ADD MLOAD DUP2 PUSH1 0x2 ADD PUSH1 0x1 PUSH2 0x100 EXP DUP2 SLOAD DUP2 PUSH1 0xFF MUL NOT AND SWAP1 DUP4 PUSH1 0xFF AND MUL OR SWAP1 SSTORE POP PUSH1 0x80 DUP3 ADD MLOAD DUP2 PUSH1 0x3 ADD SSTORE POP POP PUSH1 0x4A PUSH1 0x40 MLOAD DUP1 PUSH1 0xA0 ADD PUSH1 0x40 MSTORE DUP1 PUSH1 0x2 PUSH1 0xFF AND DUP2 MSTORE PUSH1 0x20 ADD PUSH1 0x8 SLOAD PUSH2 0x3E9 MUL DUP2 MSTORE PUSH1 0x20 ADD PUSH1 0xE PUSH1 0xFF AND DUP2 MSTORE PUSH1 0x20 ADD PUSH1 0x2 PUSH1 0xFF AND DUP2 MSTORE PUSH1 0x20 ADD PUSH2 0x834 DUP2 MSTORE POP SWAP1 DUP1 PUSH1 0x1 DUP2 SLOAD ADD DUP1 DUP3 SSTORE DUP1 SWAP2 POP POP PUSH1 0x1 SWAP1 SUB SWAP1 PUSH1 0x0 MSTORE PUSH1 0x20 PUSH1 0x0 KECCAK256 SWAP1 PUSH1 0x4 MUL ADD PUSH1 0x0 SWAP1 SWAP2 SWAP1 SWAP2 SWAP1 SWAP2 POP PUSH1 0x0 DUP3 ADD MLOAD DUP2 PUSH1 0x0 ADD PUSH1 0x0 PUSH2 0x100 EXP DUP2 SLOAD DUP2 PUSH1 0xFF MUL NOT AND SWAP1 DUP4 PUSH1 0xFF AND MUL OR SWAP1 SSTORE POP PUSH1 0x20 DUP3 ADD MLOAD DUP2 PUSH1 0x1 ADD SSTORE PUSH1 0x40 DUP3 ADD MLOAD DUP2 PUSH1 0x2 ADD PUSH1 0x0 PUSH2 0x100 EXP DUP2 SLOAD DUP2 PUSH1 0xFF MUL NOT AND SWAP1 DUP4 PUSH1 0xFF AND MUL OR SWAP1 SSTORE POP PUSH1 0x60 DUP3 ADD MLOAD DUP2 PUSH1 0x2 ADD PUSH1 0x1 PUSH2 0x100 EXP DUP2 SLOAD DUP2 PUSH1 0xFF MUL NOT AND SWAP1 DUP4 PUSH1 0xFF AND MUL OR SWAP1 SSTORE POP PUSH1 0x80 DUP3 ADD MLOAD DUP2 PUSH1 0x3 ADD SSTORE POP POP PUSH1 0x4A PUSH1 0x40 MLOAD DUP1 PUSH1 0xA0 ADD PUSH1 0x40 MSTORE DUP1 PUSH1 0x3 PUSH1 0xFF AND DUP2 MSTORE PUSH1 0x20 ADD PUSH1 0x8 SLOAD PUSH2 0x7D1 MUL DUP2 MSTORE PUSH1 0x20 ADD PUSH1 0xC PUSH1 0xFF AND DUP2 MSTORE PUSH1 0x20 ADD PUSH1 0x3 PUSH1 0xFF AND DUP2 MSTORE PUSH1 0x20 ADD PUSH2 0x7D0 DUP2 MSTORE POP SWAP1 DUP1 PUSH1 0x1 DUP2 SLOAD ADD DUP1 DUP3 SSTORE DUP1 SWAP2 POP POP PUSH1 0x1 SWAP1 SUB SWAP1 PUSH1 0x0 MSTORE PUSH1 0x20 PUSH1 0x0 KECCAK256 SWAP1 PUSH1 0x4 MUL ADD PUSH1 0x0 SWAP1 SWAP2 SWAP1 SWAP2 SWAP1 SWAP2 POP PUSH1 0x0 DUP3 ADD MLOAD DUP2 PUSH1 0x0 ADD PUSH1 0x0 PUSH2 0x100 EXP DUP2 SLOAD DUP2 PUSH1 0xFF MUL NOT AND SWAP1 DUP4 PUSH1 0xFF AND MUL OR SWAP1 SSTORE POP PUSH1 0x20 DUP3 ADD MLOAD DUP2 PUSH1 0x1 ADD SSTORE PUSH1 0x40 DUP3 ADD MLOAD DUP2 PUSH1 0x2 ADD PUSH1 0x0 PUSH2 0x100 EXP DUP2 SLOAD DUP2 PUSH1 0xFF MUL NOT AND SWAP1 DUP4 PUSH1 0xFF AND MUL OR SWAP1 SSTORE POP PUSH1 0x60 DUP3 ADD MLOAD DUP2 PUSH1 0x2 ADD PUSH1 0x1 PUSH2 0x100 EXP DUP2 SLOAD DUP2 PUSH1 0xFF MUL NOT AND SWAP1 DUP4 PUSH1 0xFF AND MUL OR SWAP1 SSTORE POP PUSH1 0x80 DUP3 ADD MLOAD DUP2 PUSH1 0x3 ADD SSTORE POP POP PUSH1 0x4A PUSH1 0x40 MLOAD DUP1 PUSH1 0xA0 ADD PUSH1 0x40 MSTORE DUP1 PUSH1 0x4 PUSH1 0xFF AND DUP2 MSTORE PUSH1 0x20 ADD PUSH1 0x8 SLOAD PUSH2 0x1389 MUL DUP2 MSTORE PUSH1 0x20 ADD PUSH1 0xA PUSH1 0xFF AND DUP2 MSTORE PUSH1 0x20 ADD PUSH1 0x4 PUSH1 0xFF AND DUP2 MSTORE PUSH1 0x20 ADD PUSH2 0x76C DUP2 MSTORE POP SWAP1 DUP1 PUSH1 0x1 DUP2 SLOAD ADD DUP1 DUP3 SSTORE DUP1 SWAP2 POP POP PUSH1 0x1 SWAP1 SUB SWAP1 PUSH1 0x0 MSTORE PUSH1 0x20 PUSH1 0x0 KECCAK256 SWAP1 PUSH1 0x4 MUL ADD PUSH1 0x0 SWAP1 SWAP2 SWAP1 SWAP2 SWAP1 SWAP2 POP PUSH1 0x0 DUP3 ADD MLOAD DUP2 PUSH1 0x0 ADD PUSH1 0x0 PUSH2 0x100 EXP DUP2 SLOAD DUP2 PUSH1 0xFF MUL NOT AND SWAP1 DUP4 PUSH1 0xFF AND MUL OR SWAP1 SSTORE POP PUSH1 0x20 DUP3 ADD MLOAD DUP2 PUSH1 0x1 ADD SSTORE PUSH1 0x40 DUP3 ADD MLOAD DUP2 PUSH1 0x2 ADD PUSH1 0x0 PUSH2 0x100 EXP DUP2 SLOAD DUP2 PUSH1 0xFF MUL NOT AND SWAP1 DUP4 PUSH1 0xFF AND MUL OR SWAP1 SSTORE POP PUSH1 0x60 DUP3 ADD MLOAD DUP2 PUSH1 0x2 ADD PUSH1 0x1 PUSH2 0x100 EXP DUP2 SLOAD DUP2 PUSH1 0xFF MUL NOT AND SWAP1 DUP4 PUSH1 0xFF AND MUL OR SWAP1 SSTORE POP PUSH1 0x80 DUP3 ADD MLOAD DUP2 PUSH1 0x3 ADD SSTORE POP POP POP PUSH3 0xCB3 JUMP JUMPDEST CALLER SWAP1 JUMP JUMPDEST PUSH1 0x4 SLOAD SWAP1 JUMP JUMPDEST PUSH1 0x1 PUSH1 0x1 PUSH1 0xA0 SHL SUB DUP3 AND PUSH3 0x787 JUMPI PUSH1 0x40 MLOAD PUSH3 0x461BCD PUSH1 0xE5 SHL DUP2 MSTORE PUSH1 0x4 ADD PUSH3 0x77E SWAP1 PUSH3 0xC3E JUMP JUMPDEST PUSH1 0x40 MLOAD DUP1 SWAP2 SUB SWAP1 REVERT JUMPDEST PUSH1 0x4 SLOAD PUSH3 0x7A6 DUP3 PUSH1 0x3 SLOAD PUSH3 0x874 PUSH1 0x20 SHL PUSH3 0x2787 OR SWAP1 SWAP2 SWAP1 PUSH1 0x20 SHR JUMP JUMPDEST LT PUSH3 0x7C6 JUMPI PUSH1 0x40 MLOAD PUSH3 0x461BCD PUSH1 0xE5 SHL DUP2 MSTORE PUSH1 0x4 ADD PUSH3 0x77E SWAP1 PUSH3 0xC75 JUMP JUMPDEST PUSH3 0x7E2 DUP2 PUSH1 0x3 SLOAD PUSH3 0x874 PUSH1 0x20 SHL PUSH3 0x2787 OR SWAP1 SWAP2 SWAP1 PUSH1 0x20 SHR JUMP JUMPDEST PUSH1 0x3 SSTORE PUSH1 0x1 PUSH1 0x1 PUSH1 0xA0 SHL SUB DUP3 AND PUSH1 0x0 SWAP1 DUP2 MSTORE PUSH1 0x1 PUSH1 0x20 SWAP1 DUP2 MSTORE PUSH1 0x40 SWAP1 SWAP2 KECCAK256 SLOAD PUSH3 0x817 SWAP2 DUP4 SWAP1 PUSH3 0x2787 PUSH3 0x874 DUP3 SHL OR SWAP1 SHR JUMP JUMPDEST PUSH1 0x1 PUSH1 0x1 PUSH1 0xA0 SHL SUB DUP4 AND PUSH1 0x0 DUP2 DUP2 MSTORE PUSH1 0x1 PUSH1 0x20 MSTORE PUSH1 0x40 DUP1 DUP3 KECCAK256 SWAP4 SWAP1 SWAP4 SSTORE SWAP2 MLOAD SWAP1 SWAP2 SWAP1 PUSH32 0xDDF252AD1BE2C89B69C2B068FC378DAA952BA7F163C4A11628F55A4DF523B3EF SWAP1 PUSH3 0x868 SWAP1 DUP6 SWAP1 PUSH3 0xCAA JUMP JUMPDEST PUSH1 0x40 MLOAD DUP1 SWAP2 SUB SWAP1 LOG3 POP POP JUMP JUMPDEST PUSH1 0x0 DUP3 DUP3 ADD DUP4 DUP2 LT ISZERO PUSH3 0x89C JUMPI PUSH1 0x40 MLOAD PUSH3 0x461BCD PUSH1 0xE5 SHL DUP2 MSTORE PUSH1 0x4 ADD PUSH3 0x77E SWAP1 PUSH3 0xC07 JUMP JUMPDEST SWAP4 SWAP3 POP POP POP JUMP JUMPDEST DUP3 DUP1 SLOAD DUP3 DUP3 SSTORE SWAP1 PUSH1 0x0 MSTORE PUSH1 0x20 PUSH1 0x0 KECCAK256 SWAP1 DUP2 ADD SWAP3 DUP3 ISZERO PUSH3 0x8EF JUMPI SWAP2 PUSH1 0x20 MUL DUP3 ADD JUMPDEST DUP3 DUP2 GT ISZERO PUSH3 0x8EF JUMPI DUP3 MLOAD PUSH3 0x8DE SWAP1 DUP4 SWAP1 PUSH1 0x3 PUSH3 0xA7F JUMP JUMPDEST POP SWAP2 PUSH1 0x20 ADD SWAP2 SWAP1 PUSH1 0x1 ADD SWAP1 PUSH3 0x8C4 JUMP JUMPDEST POP PUSH3 0x8FD SWAP3 SWAP2 POP PUSH3 0xB28 JUMP JUMPDEST POP SWAP1 JUMP JUMPDEST DUP3 DUP1 SLOAD DUP3 DUP3 SSTORE SWAP1 PUSH1 0x0 MSTORE PUSH1 0x20 PUSH1 0x0 KECCAK256 SWAP1 DUP2 ADD SWAP3 DUP3 ISZERO PUSH3 0x94D JUMPI SWAP2 PUSH1 0x20 MUL DUP3 ADD JUMPDEST DUP3 DUP2 GT ISZERO PUSH3 0x94D JUMPI DUP3 MLOAD PUSH3 0x93C SWAP1 DUP4 SWAP1 PUSH1 0x4 PUSH3 0x95B JUMP JUMPDEST POP SWAP2 PUSH1 0x20 ADD SWAP2 SWAP1 PUSH1 0x1 ADD SWAP1 PUSH3 0x922 JUMP JUMPDEST POP PUSH3 0x8FD SWAP3 SWAP2 POP PUSH3 0xB49 JUMP JUMPDEST DUP3 DUP1 SLOAD DUP3 DUP3 SSTORE SWAP1 PUSH1 0x0 MSTORE PUSH1 0x20 PUSH1 0x0 KECCAK256 SWAP1 DUP2 ADD SWAP3 DUP3 ISZERO PUSH3 0x999 JUMPI SWAP2 PUSH1 0x20 MUL DUP3 ADD JUMPDEST DUP3 DUP2 GT ISZERO PUSH3 0x999 JUMPI DUP3 MLOAD DUP3 SSTORE SWAP2 PUSH1 0x20 ADD SWAP2 SWAP1 PUSH1 0x1 ADD SWAP1 PUSH3 0x97C JUMP JUMPDEST POP PUSH3 0x8FD SWAP3 SWAP2 POP PUSH3 0xB6A JUMP JUMPDEST DUP3 DUP1 SLOAD DUP3 DUP3 SSTORE SWAP1 PUSH1 0x0 MSTORE PUSH1 0x20 PUSH1 0x0 KECCAK256 SWAP1 DUP2 ADD SWAP3 DUP3 ISZERO PUSH3 0x9FF JUMPI SWAP2 PUSH1 0x20 MUL DUP3 ADD JUMPDEST DUP3 DUP2 GT ISZERO PUSH3 0x9FF JUMPI DUP3 MLOAD DUP3 SLOAD PUSH1 0x1 PUSH1 0x1 PUSH1 0xA0 SHL SUB NOT AND PUSH1 0x1 PUSH1 0x1 PUSH1 0xA0 SHL SUB SWAP1 SWAP2 AND OR DUP3 SSTORE PUSH1 0x20 SWAP1 SWAP3 ADD SWAP2 PUSH1 0x1 SWAP1 SWAP2 ADD SWAP1 PUSH3 0x9C8 JUMP JUMPDEST POP PUSH3 0x8FD SWAP3 SWAP2 POP PUSH3 0xB81 JUMP JUMPDEST DUP3 DUP1 SLOAD PUSH1 0x1 DUP2 PUSH1 0x1 AND ISZERO PUSH2 0x100 MUL SUB AND PUSH1 0x2 SWAP1 DIV SWAP1 PUSH1 0x0 MSTORE PUSH1 0x20 PUSH1 0x0 KECCAK256 SWAP1 PUSH1 0x1F ADD PUSH1 0x20 SWAP1 DIV DUP2 ADD SWAP3 DUP3 PUSH1 0x1F LT PUSH3 0xA50 JUMPI DUP1 MLOAD PUSH1 0xFF NOT AND DUP4 DUP1 ADD OR DUP6 SSTORE PUSH3 0x999 JUMP JUMPDEST DUP3 DUP1 ADD PUSH1 0x1 ADD DUP6 SSTORE DUP3 ISZERO PUSH3 0x999 JUMPI SWAP2 DUP3 ADD DUP3 DUP2 GT ISZERO PUSH3 0x999 JUMPI DUP3 MLOAD DUP3 SSTORE SWAP2 PUSH1 0x20 ADD SWAP2 SWAP1 PUSH1 0x1 ADD SWAP1 PUSH3 0x97C JUMP JUMPDEST DUP3 DUP1 SLOAD DUP3 DUP3 SSTORE SWAP1 PUSH1 0x0 MSTORE PUSH1 0x20 PUSH1 0x0 KECCAK256 SWAP1 PUSH1 0x1F ADD PUSH1 0x20 SWAP1 DIV DUP2 ADD SWAP3 DUP3 ISZERO PUSH3 0xB1A JUMPI SWAP2 PUSH1 0x20 MUL DUP3 ADD PUSH1 0x0 JUMPDEST DUP4 DUP3 GT ISZERO PUSH3 0xAE9 JUMPI DUP4 MLOAD DUP4 DUP3 PUSH2 0x100 EXP DUP2 SLOAD DUP2 PUSH1 0xFF MUL NOT AND SWAP1 DUP4 PUSH1 0xFF AND MUL OR SWAP1 SSTORE POP SWAP3 PUSH1 0x20 ADD SWAP3 PUSH1 0x1 ADD PUSH1 0x20 DUP2 PUSH1 0x0 ADD DIV SWAP3 DUP4 ADD SWAP3 PUSH1 0x1 SUB MUL PUSH3 0xAA9 JUMP JUMPDEST DUP1 ISZERO PUSH3 0xB18 JUMPI DUP3 DUP2 PUSH2 0x100 EXP DUP2 SLOAD SWAP1 PUSH1 0xFF MUL NOT AND SWAP1 SSTORE PUSH1 0x1 ADD PUSH1 0x20 DUP2 PUSH1 0x0 ADD DIV SWAP3 DUP4 ADD SWAP3 PUSH1 0x1 SUB MUL PUSH3 0xAE9 JUMP JUMPDEST POP JUMPDEST POP PUSH3 0x8FD SWAP3 SWAP2 POP PUSH3 0xBA2 JUMP JUMPDEST DUP1 DUP3 GT ISZERO PUSH3 0x8FD JUMPI PUSH1 0x0 PUSH3 0xB3F DUP3 DUP3 PUSH3 0xBBD JUMP JUMPDEST POP PUSH1 0x1 ADD PUSH3 0xB28 JUMP JUMPDEST DUP1 DUP3 GT ISZERO PUSH3 0x8FD JUMPI PUSH1 0x0 PUSH3 0xB60 DUP3 DUP3 PUSH3 0xBE7 JUMP JUMPDEST POP PUSH1 0x1 ADD PUSH3 0xB49 JUMP JUMPDEST JUMPDEST DUP1 DUP3 GT ISZERO PUSH3 0x8FD JUMPI PUSH1 0x0 DUP2 SSTORE PUSH1 0x1 ADD PUSH3 0xB6B JUMP JUMPDEST JUMPDEST DUP1 DUP3 GT ISZERO PUSH3 0x8FD JUMPI DUP1 SLOAD PUSH1 0x1 PUSH1 0x1 PUSH1 0xA0 SHL SUB NOT AND DUP2 SSTORE PUSH1 0x1 ADD PUSH3 0xB82 JUMP JUMPDEST JUMPDEST DUP1 DUP3 GT ISZERO PUSH3 0x8FD JUMPI DUP1 SLOAD PUSH1 0xFF NOT AND DUP2 SSTORE PUSH1 0x1 ADD PUSH3 0xBA3 JUMP JUMPDEST POP DUP1 SLOAD PUSH1 0x0 DUP3 SSTORE PUSH1 0x1F ADD PUSH1 0x20 SWAP1 DIV SWAP1 PUSH1 0x0 MSTORE PUSH1 0x20 PUSH1 0x0 KECCAK256 SWAP1 DUP2 ADD SWAP1 PUSH3 0xBE4 SWAP2 SWAP1 PUSH3 0xB6A JUMP JUMPDEST POP JUMP JUMPDEST POP DUP1 SLOAD PUSH1 0x0 DUP3 SSTORE SWAP1 PUSH1 0x0 MSTORE PUSH1 0x20 PUSH1 0x0 KECCAK256 SWAP1 DUP2 ADD SWAP1 PUSH3 0xBE4 SWAP2 SWAP1 PUSH3 0xB6A JUMP JUMPDEST PUSH1 0x20 DUP1 DUP3 MSTORE PUSH1 0x1B SWAP1 DUP3 ADD MSTORE PUSH32 0x536166654D6174683A206164646974696F6E206F766572666C6F770000000000 PUSH1 0x40 DUP3 ADD MSTORE PUSH1 0x60 ADD SWAP1 JUMP JUMPDEST PUSH1 0x20 DUP1 DUP3 MSTORE PUSH1 0x1F SWAP1 DUP3 ADD MSTORE PUSH32 0x48524332303A206D696E7420746F20746865207A65726F206164647265737300 PUSH1 0x40 DUP3 ADD MSTORE PUSH1 0x60 ADD SWAP1 JUMP JUMPDEST PUSH1 0x20 DUP1 DUP3 MSTORE DUP2 DUP2 ADD MSTORE PUSH32 0x48524332303A20616C72656164792072656163686564206D6178537570706C79 PUSH1 0x40 DUP3 ADD MSTORE PUSH1 0x60 ADD SWAP1 JUMP JUMPDEST SWAP1 DUP2 MSTORE PUSH1 0x20 ADD SWAP1 JUMP JUMPDEST PUSH2 0x5F46 DUP1 PUSH3 0xCC3 PUSH1 0x0 CODECOPY PUSH1 0x0 RETURN INVALID PUSH1 0x80 PUSH1 0x40 MSTORE CALLVALUE DUP1 ISZERO PUSH2 0x10 JUMPI PUSH1 0x0 DUP1 REVERT JUMPDEST POP PUSH1 0x4 CALLDATASIZE LT PUSH2 0x2BA JUMPI PUSH1 0x0 CALLDATALOAD PUSH1 0xE0 SHR DUP1 PUSH4 0x893D20E8 GT PUSH2 0x182 JUMPI DUP1 PUSH4 0xCC85F080 GT PUSH2 0xE9 JUMPI DUP1 PUSH4 0xE87F2CCE GT PUSH2 0xA2 JUMPI DUP1 PUSH4 0xF2FDE38B GT PUSH2 0x7C JUMPI DUP1 PUSH4 0xF2FDE38B EQ PUSH2 0x5EA JUMPI DUP1 PUSH4 0xF656F562 EQ PUSH2 0x5FD JUMPI DUP1 PUSH4 0xF697DDB2 EQ PUSH2 0x610 JUMPI DUP1 PUSH4 0xFD125ECE EQ PUSH2 0x618 JUMPI PUSH2 0x2BA JUMP JUMPDEST DUP1 PUSH4 0xE87F2CCE EQ PUSH2 0x5B3 JUMPI DUP1 PUSH4 0xED73EE25 EQ PUSH2 0x5CA JUMPI DUP1 PUSH4 0xEE0A3951 EQ PUSH2 0x5D2 JUMPI PUSH2 0x2BA JUMP JUMPDEST DUP1 PUSH4 0xCC85F080 EQ PUSH2 0x53B JUMPI DUP1 PUSH4 0xD5ABEB01 EQ PUSH2 0x55F JUMPI DUP1 PUSH4 0xD96A094A EQ PUSH2 0x567 JUMPI DUP1 PUSH4 0xDD62ED3E EQ PUSH2 0x57A JUMPI DUP1 PUSH4 0xDF8251FB EQ PUSH2 0x58D JUMPI DUP1 PUSH4 0xE4849B32 EQ PUSH2 0x5A0 JUMPI PUSH2 0x2BA JUMP JUMPDEST DUP1 PUSH4 0xA0712D68 GT PUSH2 0x13B JUMPI DUP1 PUSH4 0xA0712D68 EQ PUSH2 0x4BC JUMPI DUP1 PUSH4 0xA457C2D7 EQ PUSH2 0x4CF JUMPI DUP1 PUSH4 0xA7310B58 EQ PUSH2 0x4E2 JUMPI DUP1 PUSH4 0xA9059CBB EQ PUSH2 0x502 JUMPI DUP1 PUSH4 0xBDC42A7A EQ PUSH2 0x515 JUMPI DUP1 PUSH4 0xC7111063 EQ PUSH2 0x528 JUMPI PUSH2 0x2BA JUMP JUMPDEST DUP1 PUSH4 0x893D20E8 EQ PUSH2 0x45E JUMPI DUP1 PUSH4 0x8A43BB01 EQ PUSH2 0x473 JUMPI DUP1 PUSH4 0x8DA5CB5B EQ PUSH2 0x486 JUMPI DUP1 PUSH4 0x95D89B41 EQ PUSH2 0x48E JUMPI DUP1 PUSH4 0x99EB9576 EQ PUSH2 0x496 JUMPI DUP1 PUSH4 0x9BF00117 EQ PUSH2 0x4A9 JUMPI PUSH2 0x2BA JUMP JUMPDEST DUP1 PUSH4 0x36FDDE7C GT PUSH2 0x226 JUMPI DUP1 PUSH4 0x47E7EF24 GT PUSH2 0x1DF JUMPI DUP1 PUSH4 0x47E7EF24 EQ PUSH2 0x402 JUMPI DUP1 PUSH4 0x5DA4C926 EQ PUSH2 0x415 JUMPI DUP1 PUSH4 0x5EE4462C EQ PUSH2 0x428 JUMPI DUP1 PUSH4 0x70A08231 EQ PUSH2 0x430 JUMPI DUP1 PUSH4 0x715018A6 EQ PUSH2 0x443 JUMPI DUP1 PUSH4 0x84163551 EQ PUSH2 0x44B JUMPI PUSH2 0x2BA JUMP JUMPDEST DUP1 PUSH4 0x36FDDE7C EQ PUSH2 0x3BC JUMPI DUP1 PUSH4 0x39509351 EQ PUSH2 0x3C4 JUMPI DUP1 PUSH4 0x39B50688 EQ PUSH2 0x3D7 JUMPI DUP1 PUSH4 0x3CCFD60B EQ PUSH2 0x3DF JUMPI DUP1 PUSH4 0x3EAAF86B EQ PUSH2 0x3E7 JUMPI DUP1 PUSH4 0x440565AF EQ PUSH2 0x3EF JUMPI PUSH2 0x2BA JUMP JUMPDEST DUP1 PUSH4 0x18160DDD GT PUSH2 0x278 JUMPI DUP1 PUSH4 0x18160DDD EQ PUSH2 0x372 JUMPI DUP1 PUSH4 0x1E71615B EQ PUSH2 0x37A JUMPI DUP1 PUSH4 0x22F4596F EQ PUSH2 0x382 JUMPI DUP1 PUSH4 0x23B872DD EQ PUSH2 0x38A JUMPI DUP1 PUSH4 0x26C0E5C5 EQ PUSH2 0x39D JUMPI DUP1 PUSH4 0x313CE567 EQ PUSH2 0x3A7 JUMPI PUSH2 0x2BA JUMP JUMPDEST DUP1 PUSH3 0x3F7A89 EQ PUSH2 0x2BF JUMPI DUP1 PUSH4 0x6FDDE03 EQ PUSH2 0x2E8 JUMPI DUP1 PUSH4 0x95EA7B3 EQ PUSH2 0x2FD JUMPI DUP1 PUSH4 0xE25A441 EQ PUSH2 0x31D JUMPI DUP1 PUSH4 0x15C43AAF EQ PUSH2 0x33D JUMPI DUP1 PUSH4 0x1701A82A EQ PUSH2 0x352 JUMPI JUMPDEST PUSH1 0x0 DUP1 REVERT JUMPDEST PUSH2 0x2D2 PUSH2 0x2CD CALLDATASIZE PUSH1 0x4 PUSH2 0x5298 JUMP JUMPDEST PUSH2 0x63B JUMP JUMPDEST PUSH1 0x40 MLOAD PUSH2 0x2DF SWAP2 SWAP1 PUSH2 0x55DE JUMP JUMPDEST PUSH1 0x40 MLOAD DUP1 SWAP2 SUB SWAP1 RETURN JUMPDEST PUSH2 0x2F0 PUSH2 0x958 JUMP JUMPDEST PUSH1 0x40 MLOAD PUSH2 0x2DF SWAP2 SWAP1 PUSH2 0x56FA JUMP JUMPDEST PUSH2 0x310 PUSH2 0x30B CALLDATASIZE PUSH1 0x4 PUSH2 0x539C JUMP JUMPDEST PUSH2 0x9EE JUMP JUMPDEST PUSH1 0x40 MLOAD PUSH2 0x2DF SWAP2 SWAP1 PUSH2 0x56CA JUMP JUMPDEST PUSH2 0x330 PUSH2 0x32B CALLDATASIZE PUSH1 0x4 PUSH2 0x5298 JUMP JUMPDEST PUSH2 0xA0C JUMP JUMPDEST PUSH1 0x40 MLOAD PUSH2 0x2DF SWAP2 SWAP1 PUSH2 0x5DB6 JUMP JUMPDEST PUSH2 0x345 PUSH2 0xAB3 JUMP JUMPDEST PUSH1 0x40 MLOAD PUSH2 0x2DF SWAP2 SWAP1 PUSH2 0x5678 JUMP JUMPDEST PUSH2 0x365 PUSH2 0x360 CALLDATASIZE PUSH1 0x4 PUSH2 0x5298 JUMP JUMPDEST PUSH2 0xB8C JUMP JUMPDEST PUSH1 0x40 MLOAD PUSH2 0x2DF SWAP2 SWAP1 PUSH2 0x5646 JUMP JUMPDEST PUSH2 0x330 PUSH2 0xD01 JUMP JUMPDEST PUSH2 0x2D2 PUSH2 0xD07 JUMP JUMPDEST PUSH2 0x330 PUSH2 0xEB2 JUMP JUMPDEST PUSH2 0x310 PUSH2 0x398 CALLDATASIZE PUSH1 0x4 PUSH2 0x535C JUMP JUMPDEST PUSH2 0xEB8 JUMP JUMPDEST PUSH2 0x3A5 PUSH2 0xF3F JUMP JUMPDEST STOP JUMPDEST PUSH2 0x3AF PUSH2 0x1014 JUMP JUMPDEST PUSH1 0x40 MLOAD PUSH2 0x2DF SWAP2 SWAP1 PUSH2 0x5E0C JUMP JUMPDEST PUSH2 0x3A5 PUSH2 0x101D JUMP JUMPDEST PUSH2 0x310 PUSH2 0x3D2 CALLDATASIZE PUSH1 0x4 PUSH2 0x539C JUMP JUMPDEST PUSH2 0x10E5 JUMP JUMPDEST PUSH2 0x3A5 PUSH2 0x1133 JUMP JUMPDEST PUSH2 0x3A5 PUSH2 0x13BE JUMP JUMPDEST PUSH2 0x330 PUSH2 0x1791 JUMP JUMPDEST PUSH2 0x3A5 PUSH2 0x3FD CALLDATASIZE PUSH1 0x4 PUSH2 0x535C JUMP JUMPDEST PUSH2 0x1797 JUMP JUMPDEST PUSH2 0x3A5 PUSH2 0x410 CALLDATASIZE PUSH1 0x4 PUSH2 0x539C JUMP JUMPDEST PUSH2 0x17AB JUMP JUMPDEST PUSH2 0x3A5 PUSH2 0x423 CALLDATASIZE PUSH1 0x4 PUSH2 0x539C JUMP JUMPDEST PUSH2 0x180F JUMP JUMPDEST PUSH2 0x3A5 PUSH2 0x181D JUMP JUMPDEST PUSH2 0x330 PUSH2 0x43E CALLDATASIZE PUSH1 0x4 PUSH2 0x5298 JUMP JUMPDEST PUSH2 0x1A68 JUMP JUMPDEST PUSH2 0x3A5 PUSH2 0x1A83 JUMP JUMPDEST PUSH2 0x310 PUSH2 0x459 CALLDATASIZE PUSH1 0x4 PUSH2 0x535C JUMP JUMPDEST PUSH2 0x1B02 JUMP JUMPDEST PUSH2 0x466 PUSH2 0x1B44 JUMP JUMPDEST PUSH1 0x40 MLOAD PUSH2 0x2DF SWAP2 SWAP1 PUSH2 0x552B JUMP JUMPDEST PUSH2 0x3A5 PUSH2 0x481 CALLDATASIZE PUSH1 0x4 PUSH2 0x539C JUMP JUMPDEST PUSH2 0x1B53 JUMP JUMPDEST PUSH2 0x466 PUSH2 0x1BC2 JUMP JUMPDEST PUSH2 0x2F0 PUSH2 0x1BD1 JUMP JUMPDEST PUSH2 0x330 PUSH2 0x4A4 CALLDATASIZE PUSH1 0x4 PUSH2 0x546D JUMP JUMPDEST PUSH2 0x1C32 JUMP JUMPDEST PUSH2 0x3A5 PUSH2 0x4B7 CALLDATASIZE PUSH1 0x4 PUSH2 0x535C JUMP JUMPDEST PUSH2 0x1C4D JUMP JUMPDEST PUSH2 0x310 PUSH2 0x4CA CALLDATASIZE PUSH1 0x4 PUSH2 0x546D JUMP JUMPDEST PUSH2 0x1C58 JUMP JUMPDEST PUSH2 0x310 PUSH2 0x4DD CALLDATASIZE PUSH1 0x4 PUSH2 0x539C JUMP JUMPDEST PUSH2 0x1CA8 JUMP JUMPDEST PUSH2 0x4F5 PUSH2 0x4F0 CALLDATASIZE PUSH1 0x4 PUSH2 0x5298 JUMP JUMPDEST PUSH2 0x1D10 JUMP JUMPDEST PUSH1 0x40 MLOAD PUSH2 0x2DF SWAP2 SWAP1 PUSH2 0x56A1 JUMP JUMPDEST PUSH2 0x310 PUSH2 0x510 CALLDATASIZE PUSH1 0x4 PUSH2 0x539C JUMP JUMPDEST PUSH2 0x1E8F JUMP JUMPDEST PUSH2 0x330 PUSH2 0x523 CALLDATASIZE PUSH1 0x4 PUSH2 0x546D JUMP JUMPDEST PUSH2 0x1EA3 JUMP JUMPDEST PUSH2 0x3A5 PUSH2 0x536 CALLDATASIZE PUSH1 0x4 PUSH2 0x535C JUMP JUMPDEST PUSH2 0x1EAE JUMP JUMPDEST PUSH2 0x54E PUSH2 0x549 CALLDATASIZE PUSH1 0x4 PUSH2 0x5298 JUMP JUMPDEST PUSH2 0x1EBA JUMP JUMPDEST PUSH1 0x40 MLOAD PUSH2 0x2DF SWAP6 SWAP5 SWAP4 SWAP3 SWAP2 SWAP1 PUSH2 0x56D5 JUMP JUMPDEST PUSH2 0x330 PUSH2 0x2244 JUMP JUMPDEST PUSH2 0x3A5 PUSH2 0x575 CALLDATASIZE PUSH1 0x4 PUSH2 0x546D JUMP JUMPDEST PUSH2 0x224A JUMP JUMPDEST PUSH2 0x330 PUSH2 0x588 CALLDATASIZE PUSH1 0x4 PUSH2 0x52B4 JUMP JUMPDEST PUSH2 0x2286 JUMP JUMPDEST PUSH2 0x3A5 PUSH2 0x59B CALLDATASIZE PUSH1 0x4 PUSH2 0x53C7 JUMP JUMPDEST PUSH2 0x22B1 JUMP JUMPDEST PUSH2 0x3A5 PUSH2 0x5AE CALLDATASIZE PUSH1 0x4 PUSH2 0x546D JUMP JUMPDEST PUSH2 0x2399 JUMP JUMPDEST PUSH2 0x5BB PUSH2 0x23D5 JUMP JUMPDEST PUSH1 0x40 MLOAD PUSH2 0x2DF SWAP4 SWAP3 SWAP2 SWAP1 PUSH2 0x559B JUMP JUMPDEST PUSH2 0x3A5 PUSH2 0x2580 JUMP JUMPDEST PUSH2 0x5DA PUSH2 0x25BE JUMP JUMPDEST PUSH1 0x40 MLOAD PUSH2 0x2DF SWAP5 SWAP4 SWAP3 SWAP2 SWAP1 PUSH2 0x5DF1 JUMP JUMPDEST PUSH2 0x3A5 PUSH2 0x5F8 CALLDATASIZE PUSH1 0x4 PUSH2 0x5298 JUMP JUMPDEST PUSH2 0x2626 JUMP JUMPDEST PUSH2 0x3A5 PUSH2 0x60B CALLDATASIZE PUSH1 0x4 PUSH2 0x52EC JUMP JUMPDEST PUSH2 0x2664 JUMP JUMPDEST PUSH2 0x466 PUSH2 0x26CD JUMP JUMPDEST PUSH2 0x62B PUSH2 0x626 CALLDATASIZE PUSH1 0x4 PUSH2 0x5298 JUMP JUMPDEST PUSH2 0x26DC JUMP JUMPDEST PUSH1 0x40 MLOAD PUSH2 0x2DF SWAP5 SWAP4 SWAP3 SWAP2 SWAP1 PUSH2 0x5DBF JUMP JUMPDEST PUSH1 0x60 PUSH1 0x0 DUP1 JUMPDEST PUSH1 0x50 SLOAD DUP2 LT ISZERO PUSH2 0x695 JUMPI PUSH1 0x0 PUSH1 0x50 DUP3 DUP2 SLOAD DUP2 LT PUSH2 0x65A JUMPI INVALID JUMPDEST PUSH1 0x0 SWAP2 DUP3 MSTORE PUSH1 0x20 SWAP1 SWAP2 KECCAK256 PUSH1 0x4 SWAP1 SWAP2 MUL ADD PUSH1 0x1 DUP2 ADD SLOAD SWAP1 SWAP2 POP PUSH1 0x1 PUSH1 0x1 PUSH1 0xA0 SHL SUB DUP7 DUP2 AND SWAP2 AND EQ ISZERO PUSH2 0x68C JUMPI PUSH1 0x1 SWAP1 SWAP3 ADD SWAP2 JUMPDEST POP PUSH1 0x1 ADD PUSH2 0x641 JUMP JUMPDEST POP PUSH1 0x0 JUMPDEST PUSH1 0x51 SLOAD DUP2 LT ISZERO PUSH2 0x6ED JUMPI PUSH1 0x0 PUSH1 0x51 DUP3 DUP2 SLOAD DUP2 LT PUSH2 0x6B2 JUMPI INVALID JUMPDEST PUSH1 0x0 SWAP2 DUP3 MSTORE PUSH1 0x20 SWAP1 SWAP2 KECCAK256 PUSH1 0x4 SWAP1 SWAP2 MUL ADD PUSH1 0x1 DUP2 ADD SLOAD SWAP1 SWAP2 POP PUSH1 0x1 PUSH1 0x1 PUSH1 0xA0 SHL SUB DUP7 DUP2 AND SWAP2 AND EQ ISZERO PUSH2 0x6E4 JUMPI PUSH1 0x1 SWAP1 SWAP3 ADD SWAP2 JUMPDEST POP PUSH1 0x1 ADD PUSH2 0x699 JUMP JUMPDEST POP PUSH1 0x60 DUP2 PUSH8 0xFFFFFFFFFFFFFFFF DUP2 GT DUP1 ISZERO PUSH2 0x707 JUMPI PUSH1 0x0 DUP1 REVERT JUMPDEST POP PUSH1 0x40 MLOAD SWAP1 DUP1 DUP3 MSTORE DUP1 PUSH1 0x20 MUL PUSH1 0x20 ADD DUP3 ADD PUSH1 0x40 MSTORE DUP1 ISZERO PUSH2 0x741 JUMPI DUP2 PUSH1 0x20 ADD JUMPDEST PUSH2 0x72E PUSH2 0x519C JUMP JUMPDEST DUP2 MSTORE PUSH1 0x20 ADD SWAP1 PUSH1 0x1 SWAP1 SUB SWAP1 DUP2 PUSH2 0x726 JUMPI SWAP1 POP JUMPDEST POP SWAP1 POP PUSH1 0x0 DUP1 JUMPDEST PUSH1 0x50 SLOAD DUP2 LT ISZERO PUSH2 0x848 JUMPI PUSH1 0x0 PUSH1 0x50 DUP3 DUP2 SLOAD DUP2 LT PUSH2 0x761 JUMPI INVALID JUMPDEST PUSH1 0x0 SWAP2 DUP3 MSTORE PUSH1 0x20 SWAP1 SWAP2 KECCAK256 PUSH1 0x4 SWAP1 SWAP2 MUL ADD PUSH1 0x1 DUP2 ADD SLOAD SWAP1 SWAP2 POP PUSH1 0x1 PUSH1 0x1 PUSH1 0xA0 SHL SUB DUP9 DUP2 AND SWAP2 AND EQ ISZERO PUSH2 0x83F JUMPI DUP1 PUSH1 0x0 ADD SLOAD DUP5 DUP5 DUP2 MLOAD DUP2 LT PUSH2 0x79D JUMPI INVALID JUMPDEST PUSH1 0x20 MUL PUSH1 0x20 ADD ADD MLOAD PUSH1 0x0 PUSH1 0x4 DUP2 LT PUSH2 0x7B1 JUMPI INVALID JUMPDEST PUSH1 0x20 MUL ADD MSTORE DUP4 MLOAD PUSH1 0x0 SWAP1 DUP6 SWAP1 DUP6 SWAP1 DUP2 LT PUSH2 0x7C7 JUMPI INVALID JUMPDEST PUSH1 0x20 MUL PUSH1 0x20 ADD ADD MLOAD PUSH1 0x1 PUSH1 0x4 DUP2 LT PUSH2 0x7DB JUMPI INVALID JUMPDEST PUSH1 0x20 MUL ADD MSTORE PUSH1 0x2 DUP2 ADD SLOAD DUP5 MLOAD DUP6 SWAP1 DUP6 SWAP1 DUP2 LT PUSH2 0x7F3 JUMPI INVALID JUMPDEST PUSH1 0x20 MUL PUSH1 0x20 ADD ADD MLOAD PUSH1 0x2 PUSH1 0x4 DUP2 LT PUSH2 0x807 JUMPI INVALID JUMPDEST PUSH1 0x20 MUL ADD MSTORE PUSH1 0x3 DUP2 ADD SLOAD DUP5 MLOAD DUP6 SWAP1 DUP6 SWAP1 DUP2 LT PUSH2 0x81F JUMPI INVALID JUMPDEST PUSH1 0x20 MUL PUSH1 0x20 ADD ADD MLOAD PUSH1 0x3 PUSH1 0x4 DUP2 LT PUSH2 0x833 JUMPI INVALID JUMPDEST PUSH1 0x20 MUL ADD MSTORE PUSH1 0x1 SWAP1 SWAP3 ADD SWAP2 JUMPDEST POP PUSH1 0x1 ADD PUSH2 0x748 JUMP JUMPDEST POP PUSH1 0x0 JUMPDEST PUSH1 0x51 SLOAD DUP2 LT ISZERO PUSH2 0x94C JUMPI PUSH1 0x0 PUSH1 0x51 DUP3 DUP2 SLOAD DUP2 LT PUSH2 0x865 JUMPI INVALID JUMPDEST PUSH1 0x0 SWAP2 DUP3 MSTORE PUSH1 0x20 SWAP1 SWAP2 KECCAK256 PUSH1 0x4 SWAP1 SWAP2 MUL ADD PUSH1 0x1 DUP2 ADD SLOAD SWAP1 SWAP2 POP PUSH1 0x1 PUSH1 0x1 PUSH1 0xA0 SHL SUB DUP9 DUP2 AND SWAP2 AND EQ ISZERO PUSH2 0x943 JUMPI DUP1 PUSH1 0x0 ADD SLOAD DUP5 DUP5 DUP2 MLOAD DUP2 LT PUSH2 0x8A1 JUMPI INVALID JUMPDEST PUSH1 0x20 MUL PUSH1 0x20 ADD ADD MLOAD PUSH1 0x0 PUSH1 0x4 DUP2 LT PUSH2 0x8B5 JUMPI INVALID JUMPDEST PUSH1 0x20 MUL ADD MSTORE DUP4 MLOAD PUSH1 0x1 SWAP1 DUP6 SWAP1 DUP6 SWAP1 DUP2 LT PUSH2 0x8CB JUMPI INVALID JUMPDEST PUSH1 0x20 MUL PUSH1 0x20 ADD ADD MLOAD PUSH1 0x1 PUSH1 0x4 DUP2 LT PUSH2 0x8DF JUMPI INVALID JUMPDEST PUSH1 0x20 MUL ADD MSTORE PUSH1 0x2 DUP2 ADD SLOAD DUP5 MLOAD DUP6 SWAP1 DUP6 SWAP1 DUP2 LT PUSH2 0x8F7 JUMPI INVALID JUMPDEST PUSH1 0x20 MUL PUSH1 0x20 ADD ADD MLOAD PUSH1 0x2 PUSH1 0x4 DUP2 LT PUSH2 0x90B JUMPI INVALID JUMPDEST PUSH1 0x20 MUL ADD MSTORE PUSH1 0x3 DUP2 ADD SLOAD DUP5 MLOAD DUP6 SWAP1 DUP6 SWAP1 DUP2 LT PUSH2 0x923 JUMPI INVALID JUMPDEST PUSH1 0x20 MUL PUSH1 0x20 ADD ADD MLOAD PUSH1 0x3 PUSH1 0x4 DUP2 LT PUSH2 0x937 JUMPI INVALID JUMPDEST PUSH1 0x20 MUL ADD MSTORE PUSH1 0x1 SWAP1 SWAP3 ADD SWAP2 JUMPDEST POP PUSH1 0x1 ADD PUSH2 0x84C JUMP JUMPDEST POP SWAP1 SWAP3 POP POP POP JUMPDEST SWAP2 SWAP1 POP JUMP JUMPDEST PUSH1 0x5 DUP1 SLOAD PUSH1 0x40 DUP1 MLOAD PUSH1 0x20 PUSH1 0x1F PUSH1 0x2 PUSH1 0x0 NOT PUSH2 0x100 PUSH1 0x1 DUP9 AND ISZERO MUL ADD SWAP1 SWAP6 AND SWAP5 SWAP1 SWAP5 DIV SWAP4 DUP5 ADD DUP2 SWAP1 DIV DUP2 MUL DUP3 ADD DUP2 ADD SWAP1 SWAP3 MSTORE DUP3 DUP2 MSTORE PUSH1 0x60 SWAP4 SWAP1 SWAP3 SWAP1 SWAP2 DUP4 ADD DUP3 DUP3 DUP1 ISZERO PUSH2 0x9E4 JUMPI DUP1 PUSH1 0x1F LT PUSH2 0x9B9 JUMPI PUSH2 0x100 DUP1 DUP4 SLOAD DIV MUL DUP4 MSTORE SWAP2 PUSH1 0x20 ADD SWAP2 PUSH2 0x9E4 JUMP JUMPDEST DUP3 ADD SWAP2 SWAP1 PUSH1 0x0 MSTORE PUSH1 0x20 PUSH1 0x0 KECCAK256 SWAP1 JUMPDEST DUP2 SLOAD DUP2 MSTORE SWAP1 PUSH1 0x1 ADD SWAP1 PUSH1 0x20 ADD DUP1 DUP4 GT PUSH2 0x9C7 JUMPI DUP3 SWAP1 SUB PUSH1 0x1F AND DUP3 ADD SWAP2 JUMPDEST POP POP POP POP POP SWAP1 POP SWAP1 JUMP JUMPDEST PUSH1 0x0 PUSH2 0xA02 PUSH2 0x9FB PUSH2 0x27B3 JUMP JUMPDEST DUP5 DUP5 PUSH2 0x27B7 JUMP JUMPDEST POP PUSH1 0x1 JUMPDEST SWAP3 SWAP2 POP POP JUMP JUMPDEST PUSH1 0xE SLOAD PUSH1 0x0 SWAP1 PUSH1 0x1 PUSH1 0x1 PUSH1 0xA0 SHL SUB DUP4 DUP2 AND SWAP2 AND EQ DUP1 PUSH2 0xA38 JUMPI POP PUSH1 0x12 SLOAD PUSH1 0x1 PUSH1 0x1 PUSH1 0xA0 SHL SUB DUP4 DUP2 AND SWAP2 AND EQ JUMPDEST DUP1 PUSH2 0xA50 JUMPI POP PUSH1 0xA SLOAD PUSH1 0x1 PUSH1 0x1 PUSH1 0xA0 SHL SUB DUP4 DUP2 AND SWAP2 AND EQ JUMPDEST ISZERO PUSH2 0xA5D JUMPI POP PUSH1 0x0 PUSH2 0x953 JUMP JUMPDEST PUSH2 0xA65 PUSH2 0x1014 JUMP JUMPDEST PUSH1 0x1 PUSH1 0x1 PUSH1 0xA0 SHL SUB DUP4 AND PUSH1 0x0 SWAP1 DUP2 MSTORE PUSH1 0x49 PUSH1 0x20 MSTORE PUSH1 0x40 SWAP1 KECCAK256 PUSH1 0x1 ADD SLOAD PUSH1 0xFF SWAP2 SWAP1 SWAP2 AND PUSH1 0xA EXP SWAP1 PUSH2 0x3E9 PUSH1 0x1 PUSH1 0x20 SHL SWAP1 SWAP2 DIV PUSH2 0xFFFF AND LT PUSH2 0xAA6 JUMPI PUSH1 0x2 PUSH2 0xAA9 JUMP JUMPDEST PUSH1 0x5 JUMPDEST PUSH1 0xFF AND MUL SWAP3 SWAP2 POP POP JUMP JUMPDEST PUSH2 0xABB PUSH2 0x51BA JUMP JUMPDEST PUSH1 0x40 DUP1 MLOAD PUSH2 0x220 DUP2 ADD DUP3 MSTORE PUSH1 0x17 SLOAD DUP2 MSTORE PUSH1 0x18 SLOAD PUSH1 0x1 PUSH1 0x40 SHL DUP2 DIV PUSH2 0xFFFF AND PUSH1 0x20 DUP4 ADD MSTORE PUSH1 0x1 PUSH1 0x20 SHL SWAP1 DIV PUSH4 0xFFFFFFFF AND SWAP2 DUP2 ADD SWAP2 SWAP1 SWAP2 MSTORE PUSH1 0x1B SLOAD PUSH1 0x60 DUP3 ADD MSTORE PUSH1 0x1F SLOAD PUSH1 0x80 DUP3 ADD MSTORE PUSH1 0x1C SLOAD PUSH1 0xA0 DUP3 ADD MSTORE PUSH1 0x4C SLOAD PUSH1 0xC0 DUP3 ADD MSTORE PUSH1 0x3 SLOAD PUSH1 0xE0 DUP3 ADD MSTORE PUSH1 0x19 SLOAD PUSH2 0x100 DUP3 ADD MSTORE PUSH1 0x1D SLOAD PUSH2 0x120 DUP3 ADD MSTORE PUSH2 0x140 DUP2 ADD PUSH2 0xB39 PUSH2 0x286B JUMP JUMPDEST DUP2 MSTORE PUSH1 0x20 ADD PUSH1 0x57 SLOAD DUP2 MSTORE PUSH1 0x20 ADD PUSH1 0x56 SLOAD DUP2 MSTORE PUSH1 0x20 ADD PUSH2 0xB58 PUSH1 0x0 PUSH2 0x2888 JUMP JUMPDEST DUP2 MSTORE PUSH1 0x20 ADD PUSH2 0xB67 PUSH1 0x1 PUSH2 0x2888 JUMP JUMPDEST DUP2 MSTORE PUSH1 0x20 ADD PUSH2 0xB76 PUSH1 0x2 PUSH2 0x2888 JUMP JUMPDEST DUP2 MSTORE PUSH1 0x20 ADD PUSH2 0xB85 PUSH1 0x3 PUSH2 0x2888 JUMP JUMPDEST SWAP1 MSTORE SWAP1 POP SWAP1 JUMP JUMPDEST PUSH2 0xB94 PUSH2 0x51D9 JUMP JUMPDEST PUSH1 0x1 PUSH1 0x1 PUSH1 0xA0 SHL SUB DUP3 AND PUSH1 0x0 SWAP1 DUP2 MSTORE PUSH1 0x55 PUSH1 0x20 MSTORE PUSH1 0x40 DUP2 KECCAK256 DUP1 SLOAD SWAP1 SWAP2 SWAP1 DUP2 DUP1 JUMPDEST DUP5 SLOAD DUP2 LT ISZERO PUSH2 0xC02 JUMPI PUSH1 0x54 PUSH1 0x0 DUP7 DUP4 DUP2 SLOAD DUP2 LT PUSH2 0xBCD JUMPI INVALID JUMPDEST PUSH1 0x0 SWAP2 DUP3 MSTORE PUSH1 0x20 DUP1 DUP4 KECCAK256 SWAP1 SWAP2 ADD SLOAD PUSH1 0x1 PUSH1 0x1 PUSH1 0xA0 SHL SUB AND DUP4 MSTORE DUP3 ADD SWAP3 SWAP1 SWAP3 MSTORE PUSH1 0x40 ADD SWAP1 KECCAK256 PUSH1 0x2 ADD SLOAD SWAP4 SWAP1 SWAP4 ADD SWAP3 PUSH1 0x1 ADD PUSH2 0xBB4 JUMP JUMPDEST POP PUSH1 0x1 PUSH1 0x1 PUSH1 0xA0 SHL SUB DUP7 AND PUSH1 0x0 SWAP1 DUP2 MSTORE PUSH1 0x54 PUSH1 0x20 MSTORE PUSH1 0x40 SWAP1 KECCAK256 PUSH1 0x3 DUP2 ADD SLOAD ISZERO PUSH2 0xC53 JUMPI DUP1 SLOAD PUSH2 0xC4E JUMPI PUSH2 0x2580 DUP2 PUSH1 0x3 ADD SLOAD NUMBER SUB LT PUSH2 0xC41 JUMPI PUSH1 0x0 PUSH2 0xC44 JUMP JUMPDEST PUSH1 0x1 JUMPDEST PUSH1 0xFF AND SWAP2 POP PUSH2 0xC53 JUMP JUMPDEST PUSH1 0x1 SWAP2 POP JUMPDEST PUSH1 0x0 DUP1 PUSH2 0xC5F DUP10 PUSH2 0x292D JUMP JUMPDEST SWAP2 POP SWAP2 POP PUSH1 0x0 PUSH1 0x56 SLOAD PUSH1 0x0 EQ ISZERO PUSH2 0xC77 JUMPI PUSH1 0x0 PUSH2 0xC94 JUMP JUMPDEST PUSH1 0x56 SLOAD PUSH2 0x7080 MUL PUSH1 0x9 SLOAD DUP6 PUSH1 0x2 ADD SLOAD PUSH2 0xBB80 MUL MUL DUP2 PUSH2 0xC92 JUMPI INVALID JUMPDEST DIV JUMPDEST PUSH1 0x40 DUP1 MLOAD PUSH2 0x160 DUP2 ADD DUP3 MSTORE PUSH1 0x2 DUP8 ADD SLOAD DUP2 MSTORE PUSH1 0x20 DUP2 ADD SWAP3 SWAP1 SWAP3 MSTORE DUP6 SLOAD SWAP1 DUP3 ADD MSTORE PUSH1 0x60 DUP2 ADD SWAP7 SWAP1 SWAP7 MSTORE POP PUSH1 0x80 DUP6 ADD SWAP6 SWAP1 SWAP6 MSTORE PUSH1 0xA0 DUP5 ADD SWAP3 SWAP1 SWAP3 MSTORE PUSH1 0x3 DUP2 ADD SLOAD PUSH1 0xC0 DUP5 ADD MSTORE PUSH1 0x6 DUP2 ADD SLOAD PUSH1 0xE0 DUP5 ADD MSTORE PUSH1 0x4 ADD SLOAD PUSH2 0x100 DUP4 ADD MSTORE PUSH2 0x120 DUP3 ADD MSTORE PUSH2 0x140 DUP2 ADD SWAP2 SWAP1 SWAP2 MSTORE SWAP4 SWAP3 POP POP POP JUMP JUMPDEST PUSH1 0x3 SLOAD SWAP1 JUMP JUMPDEST PUSH1 0x60 PUSH1 0x0 PUSH1 0xA PUSH1 0x52 DUP1 SLOAD SWAP1 POP GT PUSH2 0xD20 JUMPI PUSH1 0x52 SLOAD PUSH2 0xD23 JUMP JUMPDEST PUSH1 0xA JUMPDEST SWAP1 POP PUSH1 0x60 DUP2 PUSH8 0xFFFFFFFFFFFFFFFF DUP2 GT DUP1 ISZERO PUSH2 0xD3E JUMPI PUSH1 0x0 DUP1 REVERT JUMPDEST POP PUSH1 0x40 MLOAD SWAP1 DUP1 DUP3 MSTORE DUP1 PUSH1 0x20 MUL PUSH1 0x20 ADD DUP3 ADD PUSH1 0x40 MSTORE DUP1 ISZERO PUSH2 0xD78 JUMPI DUP2 PUSH1 0x20 ADD JUMPDEST PUSH2 0xD65 PUSH2 0x519C JUMP JUMPDEST DUP2 MSTORE PUSH1 0x20 ADD SWAP1 PUSH1 0x1 SWAP1 SUB SWAP1 DUP2 PUSH2 0xD5D JUMPI SWAP1 POP JUMPDEST POP SWAP1 POP PUSH1 0x0 JUMPDEST DUP3 DUP2 LT ISZERO PUSH2 0xEAB JUMPI PUSH1 0x52 DUP1 SLOAD PUSH1 0x0 SWAP2 SWAP1 DUP6 DUP2 SUB DUP5 ADD SWAP1 DUP2 LT PUSH2 0xD9C JUMPI INVALID JUMPDEST SWAP1 PUSH1 0x0 MSTORE PUSH1 0x20 PUSH1 0x0 KECCAK256 ADD SWAP1 POP DUP1 PUSH1 0x0 DUP2 SLOAD DUP2 LT PUSH2 0xDB5 JUMPI INVALID JUMPDEST SWAP1 PUSH1 0x0 MSTORE PUSH1 0x20 PUSH1 0x0 KECCAK256 ADD SLOAD DUP4 DUP4 DUP2 MLOAD DUP2 LT PUSH2 0xDCC JUMPI INVALID JUMPDEST PUSH1 0x20 MUL PUSH1 0x20 ADD ADD MLOAD PUSH1 0x0 PUSH1 0x4 DUP2 LT PUSH2 0xDE0 JUMPI INVALID JUMPDEST PUSH1 0x20 MUL ADD MSTORE DUP1 SLOAD DUP2 SWAP1 PUSH1 0x1 SWAP1 DUP2 LT PUSH2 0xDF4 JUMPI INVALID JUMPDEST SWAP1 PUSH1 0x0 MSTORE PUSH1 0x20 PUSH1 0x0 KECCAK256 ADD SLOAD DUP4 DUP4 DUP2 MLOAD DUP2 LT PUSH2 0xE0B JUMPI INVALID JUMPDEST PUSH1 0x20 MUL PUSH1 0x20 ADD ADD MLOAD PUSH1 0x1 PUSH1 0x4 DUP2 LT PUSH2 0xE1F JUMPI INVALID JUMPDEST PUSH1 0x20 MUL ADD MSTORE DUP1 SLOAD DUP2 SWAP1 PUSH1 0x2 SWAP1 DUP2 LT PUSH2 0xE33 JUMPI INVALID JUMPDEST SWAP1 PUSH1 0x0 MSTORE PUSH1 0x20 PUSH1 0x0 KECCAK256 ADD SLOAD DUP4 DUP4 DUP2 MLOAD DUP2 LT PUSH2 0xE4A JUMPI INVALID JUMPDEST PUSH1 0x20 MUL PUSH1 0x20 ADD ADD MLOAD PUSH1 0x2 PUSH1 0x4 DUP2 LT PUSH2 0xE5E JUMPI INVALID JUMPDEST PUSH1 0x20 MUL ADD MSTORE DUP1 SLOAD DUP2 SWAP1 PUSH1 0x3 SWAP1 DUP2 LT PUSH2 0xE72 JUMPI INVALID JUMPDEST SWAP1 PUSH1 0x0 MSTORE PUSH1 0x20 PUSH1 0x0 KECCAK256 ADD SLOAD DUP4 DUP4 DUP2 MLOAD DUP2 LT PUSH2 0xE89 JUMPI INVALID JUMPDEST PUSH1 0x20 MUL PUSH1 0x20 ADD ADD MLOAD PUSH1 0x3 PUSH1 0x4 DUP2 LT PUSH2 0xE9D JUMPI INVALID JUMPDEST PUSH1 0x20 MUL ADD MSTORE POP PUSH1 0x1 ADD PUSH2 0xD7E JUMP JUMPDEST POP SWAP2 POP POP SWAP1 JUMP JUMPDEST PUSH1 0x4 SLOAD DUP2 JUMP JUMPDEST PUSH1 0x0 PUSH2 0xEC5 DUP5 DUP5 DUP5 PUSH2 0x29AE JUMP JUMPDEST PUSH2 0xF35 DUP5 PUSH2 0xED1 PUSH2 0x27B3 JUMP JUMPDEST PUSH2 0xF30 DUP6 PUSH1 0x40 MLOAD DUP1 PUSH1 0x60 ADD PUSH1 0x40 MSTORE DUP1 PUSH1 0x28 DUP2 MSTORE PUSH1 0x20 ADD PUSH2 0x5EC7 PUSH1 0x28 SWAP2 CODECOPY PUSH1 0x1 PUSH1 0x1 PUSH1 0xA0 SHL SUB DUP11 AND PUSH1 0x0 SWAP1 DUP2 MSTORE PUSH1 0x2 PUSH1 0x20 MSTORE PUSH1 0x40 DUP2 KECCAK256 SWAP1 PUSH2 0xF0F PUSH2 0x27B3 JUMP JUMPDEST PUSH1 0x1 PUSH1 0x1 PUSH1 0xA0 SHL SUB AND DUP2 MSTORE PUSH1 0x20 DUP2 ADD SWAP2 SWAP1 SWAP2 MSTORE PUSH1 0x40 ADD PUSH1 0x0 KECCAK256 SLOAD SWAP2 SWAP1 PUSH2 0x2AB8 JUMP JUMPDEST PUSH2 0x27B7 JUMP JUMPDEST POP PUSH1 0x1 SWAP4 SWAP3 POP POP POP JUMP JUMPDEST PUSH1 0x0 PUSH2 0xF49 PUSH2 0x27B3 JUMP JUMPDEST SWAP1 POP PUSH1 0x1 PUSH1 0x1 PUSH1 0xA0 SHL SUB DUP2 AND PUSH2 0xF7A JUMPI PUSH1 0x40 MLOAD PUSH3 0x461BCD PUSH1 0xE5 SHL DUP2 MSTORE PUSH1 0x4 ADD PUSH2 0xF71 SWAP1 PUSH2 0x59EB JUMP JUMPDEST PUSH1 0x40 MLOAD DUP1 SWAP2 SUB SWAP1 REVERT JUMPDEST PUSH1 0x1 PUSH1 0x1 PUSH1 0xA0 SHL SUB DUP2 AND PUSH1 0x0 SWAP1 DUP2 MSTORE PUSH1 0x54 PUSH1 0x20 MSTORE PUSH1 0x40 DUP2 KECCAK256 SWAP1 PUSH2 0xF9C DUP4 PUSH2 0x292D JUMP JUMPDEST SWAP2 POP POP PUSH1 0x0 DUP2 GT PUSH2 0xFBF JUMPI PUSH1 0x40 MLOAD PUSH3 0x461BCD PUSH1 0xE5 SHL DUP2 MSTORE PUSH1 0x4 ADD PUSH2 0xF71 SWAP1 PUSH2 0x59EB JUMP JUMPDEST PUSH1 0x1B SLOAD DUP2 PUSH1 0x59 SLOAD ADD GT ISZERO PUSH2 0xFE5 JUMPI PUSH1 0x40 MLOAD PUSH3 0x461BCD PUSH1 0xE5 SHL DUP2 MSTORE PUSH1 0x4 ADD PUSH2 0xF71 SWAP1 PUSH2 0x5D78 JUMP JUMPDEST PUSH1 0x0 PUSH1 0x3 DUP4 ADD DUP2 SWAP1 SSTORE PUSH1 0x4 DUP4 ADD DUP1 SLOAD DUP4 ADD SWAP1 SSTORE PUSH1 0x5 DUP4 ADD SSTORE PUSH1 0x59 DUP1 SLOAD DUP3 ADD SWAP1 SSTORE PUSH2 0x100F DUP4 DUP3 PUSH2 0x2AE4 JUMP JUMPDEST POP POP POP JUMP JUMPDEST PUSH1 0x7 SLOAD PUSH1 0xFF AND SWAP1 JUMP JUMPDEST PUSH1 0x1E SLOAD PUSH1 0x1D SLOAD TIMESTAMP SUB LT PUSH2 0x10E3 JUMPI PUSH1 0x14 PUSH1 0x1C SLOAD PUSH1 0x20 SLOAD PUSH2 0x3E8 MUL DUP2 PUSH2 0x103D JUMPI INVALID JUMPDEST DIV LT ISZERO PUSH2 0x10D4 JUMPI PUSH1 0x1E SLOAD PUSH1 0x1D SLOAD ADD PUSH1 0x1F SSTORE PUSH1 0x0 PUSH2 0x1058 PUSH2 0x286B JUMP JUMPDEST SWAP1 POP PUSH1 0x64 PUSH1 0x14 DUP3 MUL DIV PUSH2 0xDAC PUSH1 0x50 DUP4 MUL DIV PUSH1 0x0 JUMPDEST PUSH1 0x45 SLOAD DUP2 LT ISZERO PUSH2 0x10CF JUMPI PUSH1 0x0 PUSH1 0x49 PUSH1 0x0 PUSH1 0x21 DUP5 PUSH1 0x24 DUP2 LT PUSH2 0x1089 JUMPI INVALID JUMPDEST ADD SLOAD PUSH1 0x1 PUSH1 0x1 PUSH1 0xA0 SHL SUB AND DUP2 MSTORE PUSH1 0x20 DUP2 ADD SWAP2 SWAP1 SWAP2 MSTORE PUSH1 0x40 ADD PUSH1 0x0 KECCAK256 PUSH1 0x1F SLOAD PUSH1 0x1 ADD PUSH1 0x6 DUP3 ADD SSTORE SWAP1 POP PUSH1 0x23 DUP3 EQ PUSH2 0x10BF JUMPI DUP3 PUSH2 0x10C1 JUMP JUMPDEST DUP4 JUMPDEST PUSH1 0xB SWAP1 SWAP2 ADD SSTORE PUSH1 0x1 ADD PUSH2 0x106C JUMP JUMPDEST POP POP POP POP JUMPDEST TIMESTAMP PUSH1 0x1D SSTORE PUSH1 0x0 PUSH1 0x20 DUP2 SWAP1 SSTORE PUSH1 0x45 SSTORE JUMPDEST JUMP JUMPDEST PUSH1 0x0 PUSH2 0xA02 PUSH2 0x10F2 PUSH2 0x27B3 JUMP JUMPDEST DUP5 PUSH2 0xF30 DUP6 PUSH1 0x2 PUSH1 0x0 PUSH2 0x1103 PUSH2 0x27B3 JUMP JUMPDEST PUSH1 0x1 PUSH1 0x1 PUSH1 0xA0 SHL SUB SWAP1 DUP2 AND DUP3 MSTORE PUSH1 0x20 DUP1 DUP4 ADD SWAP4 SWAP1 SWAP4 MSTORE PUSH1 0x40 SWAP2 DUP3 ADD PUSH1 0x0 SWAP1 DUP2 KECCAK256 SWAP2 DUP13 AND DUP2 MSTORE SWAP3 MSTORE SWAP1 KECCAK256 SLOAD SWAP1 PUSH2 0x2787 JUMP JUMPDEST PUSH1 0x0 PUSH2 0x113D PUSH2 0x27B3 JUMP JUMPDEST SWAP1 POP PUSH1 0x1 PUSH1 0x1 PUSH1 0xA0 SHL SUB DUP2 AND PUSH2 0x1165 JUMPI PUSH1 0x40 MLOAD PUSH3 0x461BCD PUSH1 0xE5 SHL DUP2 MSTORE PUSH1 0x4 ADD PUSH2 0xF71 SWAP1 PUSH2 0x59EB JUMP JUMPDEST PUSH1 0x0 DUP1 PUSH1 0x0 JUMPDEST PUSH1 0x51 SLOAD DUP2 LT ISZERO PUSH2 0x1310 JUMPI PUSH1 0x0 PUSH1 0x51 DUP3 DUP2 SLOAD DUP2 LT PUSH2 0x1184 JUMPI INVALID JUMPDEST PUSH1 0x0 SWAP2 DUP3 MSTORE PUSH1 0x20 SWAP1 SWAP2 KECCAK256 PUSH1 0x4 SWAP1 SWAP2 MUL ADD PUSH1 0x1 DUP2 ADD SLOAD SWAP1 SWAP2 POP PUSH1 0x1 PUSH1 0x1 PUSH1 0xA0 SHL SUB DUP7 DUP2 AND SWAP2 AND EQ ISZERO PUSH2 0x11C3 JUMPI PUSH1 0x3 ADD SLOAD PUSH1 0x1 SWAP1 SWAP4 ADD SWAP3 SWAP2 SWAP1 SWAP2 ADD SWAP1 PUSH2 0x1308 JUMP JUMPDEST DUP4 ISZERO PUSH2 0x1306 JUMPI PUSH1 0x51 DUP3 DUP2 SLOAD DUP2 LT PUSH2 0x11D6 JUMPI INVALID JUMPDEST SWAP1 PUSH1 0x0 MSTORE PUSH1 0x20 PUSH1 0x0 KECCAK256 SWAP1 PUSH1 0x4 MUL ADD PUSH1 0x0 ADD SLOAD PUSH1 0x51 DUP6 DUP5 SUB DUP2 SLOAD DUP2 LT PUSH2 0x11F7 JUMPI INVALID JUMPDEST PUSH1 0x0 SWAP2 DUP3 MSTORE PUSH1 0x20 SWAP1 SWAP2 KECCAK256 PUSH1 0x4 SWAP1 SWAP2 MUL ADD SSTORE PUSH1 0x51 DUP1 SLOAD DUP4 SWAP1 DUP2 LT PUSH2 0x1216 JUMPI INVALID JUMPDEST SWAP1 PUSH1 0x0 MSTORE PUSH1 0x20 PUSH1 0x0 KECCAK256 SWAP1 PUSH1 0x4 MUL ADD PUSH1 0x1 ADD PUSH1 0x0 SWAP1 SLOAD SWAP1 PUSH2 0x100 EXP SWAP1 DIV PUSH1 0x1 PUSH1 0x1 PUSH1 0xA0 SHL SUB AND PUSH1 0x51 DUP6 DUP5 SUB DUP2 SLOAD DUP2 LT PUSH2 0x124A JUMPI INVALID JUMPDEST SWAP1 PUSH1 0x0 MSTORE PUSH1 0x20 PUSH1 0x0 KECCAK256 SWAP1 PUSH1 0x4 MUL ADD PUSH1 0x1 ADD PUSH1 0x0 PUSH2 0x100 EXP DUP2 SLOAD DUP2 PUSH1 0x1 PUSH1 0x1 PUSH1 0xA0 SHL SUB MUL NOT AND SWAP1 DUP4 PUSH1 0x1 PUSH1 0x1 PUSH1 0xA0 SHL SUB AND MUL OR SWAP1 SSTORE POP PUSH1 0x51 DUP3 DUP2 SLOAD DUP2 LT PUSH2 0x128C JUMPI INVALID JUMPDEST SWAP1 PUSH1 0x0 MSTORE PUSH1 0x20 PUSH1 0x0 KECCAK256 SWAP1 PUSH1 0x4 MUL ADD PUSH1 0x2 ADD SLOAD PUSH1 0x51 DUP6 DUP5 SUB DUP2 SLOAD DUP2 LT PUSH2 0x12AD JUMPI INVALID JUMPDEST SWAP1 PUSH1 0x0 MSTORE PUSH1 0x20 PUSH1 0x0 KECCAK256 SWAP1 PUSH1 0x4 MUL ADD PUSH1 0x2 ADD DUP2 SWAP1 SSTORE POP PUSH1 0x51 DUP3 DUP2 SLOAD DUP2 LT PUSH2 0x12CF JUMPI INVALID JUMPDEST SWAP1 PUSH1 0x0 MSTORE PUSH1 0x20 PUSH1 0x0 KECCAK256 SWAP1 PUSH1 0x4 MUL ADD PUSH1 0x3 ADD SLOAD PUSH1 0x51 DUP6 DUP5 SUB DUP2 SLOAD DUP2 LT PUSH2 0x12F0 JUMPI INVALID JUMPDEST SWAP1 PUSH1 0x0 MSTORE PUSH1 0x20 PUSH1 0x0 KECCAK256 SWAP1 PUSH1 0x4 MUL ADD PUSH1 0x3 ADD DUP2 SWAP1 SSTORE POP JUMPDEST POP JUMPDEST PUSH1 0x1 ADD PUSH2 0x116B JUMP JUMPDEST POP DUP2 ISZERO PUSH2 0x13B6 JUMPI PUSH1 0x0 JUMPDEST DUP3 DUP2 LT ISZERO PUSH2 0x1370 JUMPI PUSH1 0x51 DUP1 SLOAD DUP1 PUSH2 0x132D JUMPI INVALID JUMPDEST PUSH1 0x0 DUP3 DUP2 MSTORE PUSH1 0x20 DUP2 KECCAK256 PUSH1 0x4 PUSH1 0x0 NOT SWAP1 SWAP4 ADD SWAP3 DUP4 MUL ADD DUP2 DUP2 SSTORE PUSH1 0x1 DUP2 DUP2 ADD DUP1 SLOAD PUSH1 0x1 PUSH1 0x1 PUSH1 0xA0 SHL SUB NOT AND SWAP1 SSTORE PUSH1 0x2 DUP3 ADD DUP4 SWAP1 SSTORE PUSH1 0x3 SWAP1 SWAP2 ADD SWAP2 SWAP1 SWAP2 SSTORE SWAP2 SSTORE ADD PUSH2 0x131A JUMP JUMPDEST POP PUSH2 0x137C ADDRESS DUP5 DUP4 PUSH2 0x29AE JUMP JUMPDEST PUSH32 0xA21A2A879C924A525CD3D043187D43E34B2573D79532750B8792307A7C2FEADB DUP4 DUP3 PUSH1 0x40 MLOAD PUSH2 0x13AD SWAP3 SWAP2 SWAP1 PUSH2 0x5563 JUMP JUMPDEST PUSH1 0x40 MLOAD DUP1 SWAP2 SUB SWAP1 LOG1 JUMPDEST PUSH2 0x100F PUSH2 0x2BC5 JUMP JUMPDEST PUSH1 0x0 PUSH2 0x13C8 PUSH2 0x27B3 JUMP JUMPDEST SWAP1 POP PUSH1 0x1 PUSH1 0x1 PUSH1 0xA0 SHL SUB DUP2 AND PUSH2 0x13F0 JUMPI PUSH1 0x40 MLOAD PUSH3 0x461BCD PUSH1 0xE5 SHL DUP2 MSTORE PUSH1 0x4 ADD PUSH2 0xF71 SWAP1 PUSH2 0x59EB JUMP JUMPDEST PUSH1 0x0 DUP1 PUSH1 0x0 DUP1 PUSH1 0x0 PUSH2 0x1401 DUP7 PUSH2 0x1EBA JUMP JUMPDEST SWAP5 POP SWAP5 POP SWAP5 POP SWAP5 POP SWAP5 POP DUP5 ISZERO PUSH2 0x1429 JUMPI PUSH1 0x40 MLOAD PUSH3 0x461BCD PUSH1 0xE5 SHL DUP2 MSTORE PUSH1 0x4 ADD PUSH2 0xF71 SWAP1 PUSH2 0x58DE JUMP JUMPDEST PUSH1 0xA SLOAD PUSH1 0x1 PUSH1 0x1 PUSH1 0xA0 SHL SUB DUP8 DUP2 AND SWAP2 AND EQ ISZERO PUSH2 0x1455 JUMPI PUSH1 0x0 PUSH1 0xB SSTORE PUSH1 0xC DUP1 SLOAD DUP3 ADD SWAP1 SSTORE TIMESTAMP PUSH1 0xD SSTORE PUSH2 0x1737 JUMP JUMPDEST PUSH1 0xE SLOAD PUSH1 0x1 PUSH1 0x1 PUSH1 0xA0 SHL SUB DUP8 DUP2 AND SWAP2 AND EQ ISZERO PUSH2 0x1481 JUMPI PUSH1 0x0 PUSH1 0xF SSTORE PUSH1 0x10 DUP1 SLOAD DUP3 ADD SWAP1 SSTORE TIMESTAMP PUSH1 0x11 SSTORE PUSH2 0x1737 JUMP JUMPDEST PUSH1 0x12 SLOAD PUSH1 0x1 PUSH1 0x1 PUSH1 0xA0 SHL SUB DUP8 DUP2 AND SWAP2 AND EQ ISZERO PUSH2 0x14AD JUMPI PUSH1 0x0 PUSH1 0x13 SSTORE PUSH1 0x14 DUP1 SLOAD DUP3 ADD SWAP1 SSTORE TIMESTAMP PUSH1 0x15 SSTORE PUSH2 0x1737 JUMP JUMPDEST PUSH1 0x1 PUSH1 0x1 PUSH1 0xA0 SHL SUB DUP7 AND PUSH1 0x0 SWAP1 DUP2 MSTORE PUSH1 0x49 PUSH1 0x20 MSTORE PUSH1 0x40 SWAP1 KECCAK256 PUSH1 0xA DUP2 ADD SLOAD ISZERO PUSH2 0x1735 JUMPI PUSH1 0x3 DUP2 ADD DUP1 SLOAD DUP4 ADD SWAP1 SSTORE TIMESTAMP PUSH1 0x6 DUP3 ADD SSTORE PUSH1 0x0 PUSH1 0x7 DUP3 ADD DUP2 SWAP1 SSTORE PUSH1 0x8 DUP3 ADD DUP2 SWAP1 SSTORE PUSH1 0xB DUP3 ADD DUP2 SWAP1 SSTORE PUSH1 0x1 DUP3 ADD SLOAD DUP6 DUP8 ADD SWAP2 SWAP1 PUSH1 0x2 SWAP1 DUP4 SWAP1 PUSH1 0x5 PUSH1 0x1 PUSH1 0x20 SHL SWAP1 SWAP2 DIV PUSH2 0xFFFF AND LT PUSH2 0x151E JUMPI DUP7 PUSH2 0x1521 JUMP JUMPDEST PUSH1 0x0 JUMPDEST ADD DUP2 PUSH2 0x1529 JUMPI INVALID JUMPDEST DIV SWAP1 POP DUP1 DUP4 PUSH1 0xA ADD SLOAD GT ISZERO PUSH2 0x15DB JUMPI PUSH1 0xA DUP4 ADD DUP1 SLOAD DUP3 SWAP1 SUB SWAP1 DUP2 SWAP1 SSTORE PUSH1 0x0 SWAP1 PUSH2 0x1551 SWAP1 PUSH2 0x2CAF JUMP JUMPDEST PUSH1 0x1 DUP6 ADD SLOAD SWAP1 SWAP2 POP PUSH1 0xFF DUP1 DUP4 AND PUSH1 0x1 PUSH1 0x38 SHL SWAP1 SWAP3 DIV AND EQ PUSH2 0x15C9 JUMPI DUP1 DUP5 PUSH1 0x1 ADD PUSH1 0x7 PUSH2 0x100 EXP DUP2 SLOAD DUP2 PUSH1 0xFF MUL NOT AND SWAP1 DUP4 PUSH1 0xFF AND MUL OR SWAP1 SSTORE POP PUSH2 0x3E8 PUSH1 0x4A PUSH1 0x1 DUP4 SUB PUSH1 0xFF AND DUP2 SLOAD DUP2 LT PUSH2 0x159F JUMPI INVALID JUMPDEST SWAP1 PUSH1 0x0 MSTORE PUSH1 0x20 PUSH1 0x0 KECCAK256 SWAP1 PUSH1 0x4 MUL ADD PUSH1 0x3 ADD SLOAD DUP6 PUSH1 0xA ADD SLOAD MUL DUP2 PUSH2 0x15BE JUMPI INVALID JUMPDEST DIV PUSH1 0x9 DUP6 ADD SSTORE PUSH2 0x15D5 JUMP JUMPDEST PUSH1 0x9 DUP5 ADD DUP1 SLOAD DUP4 SWAP1 SUB SWAP1 SSTORE JUMPDEST POP PUSH2 0x15F9 JUMP JUMPDEST PUSH1 0x1 DUP4 ADD DUP1 SLOAD PUSH1 0xFF PUSH1 0x38 SHL NOT AND SWAP1 SSTORE PUSH1 0x0 PUSH1 0xA DUP5 ADD DUP2 SWAP1 SSTORE PUSH1 0x9 DUP5 ADD SSTORE JUMPDEST PUSH1 0x1 DUP4 ADD SLOAD PUSH2 0x3E7 PUSH1 0x1 PUSH1 0x20 SHL SWAP1 SWAP2 DIV PUSH2 0xFFFF AND LT ISZERO PUSH2 0x1722 JUMPI PUSH1 0x1 DUP4 ADD SLOAD PUSH1 0x18 SLOAD PUSH2 0x3E8 PUSH1 0x4B DUP6 MUL DIV SWAP2 PUSH4 0xFFFFFFFF SWAP1 DUP2 AND PUSH3 0xF4240 SUB SWAP2 DUP3 DUP3 AND PUSH1 0x1 PUSH1 0x20 SHL SWAP1 SWAP2 DIV SWAP1 SWAP2 AND GT ISZERO PUSH2 0x167B JUMPI PUSH4 0xFFFFFFFF DUP2 AND PUSH1 0x0 SWAP1 DUP2 MSTORE PUSH1 0x48 PUSH1 0x20 SWAP1 DUP2 MSTORE PUSH1 0x40 DUP1 DUP4 KECCAK256 SLOAD PUSH1 0x1 PUSH1 0x1 PUSH1 0xA0 SHL SUB AND DUP4 MSTORE PUSH1 0x49 SWAP1 SWAP2 MSTORE SWAP1 KECCAK256 PUSH1 0xB ADD DUP1 SLOAD DUP4 ADD SWAP1 SSTORE JUMPDEST POP PUSH1 0x40 DUP1 MLOAD PUSH1 0x60 DUP2 ADD DUP3 MSTORE TIMESTAMP DUP2 MSTORE PUSH1 0x20 DUP2 ADD SWAP3 DUP4 MSTORE PUSH1 0x0 SWAP2 DUP2 ADD DUP3 DUP2 MSTORE PUSH1 0x4F DUP1 SLOAD PUSH1 0x1 DUP2 ADD DUP3 SSTORE SWAP4 MSTORE SWAP1 MLOAD PUSH32 0xA2E8F972DC9F7D0B76177BB8BE102E6BEC069EE42C61080745E8825470E80C6C PUSH1 0x3 SWAP1 SWAP4 MUL SWAP3 DUP4 ADD SSTORE SWAP2 MLOAD PUSH32 0xA2E8F972DC9F7D0B76177BB8BE102E6BEC069EE42C61080745E8825470E80C6D DUP3 ADD SSTORE SWAP1 MLOAD PUSH32 0xA2E8F972DC9F7D0B76177BB8BE102E6BEC069EE42C61080745E8825470E80C6E SWAP1 SWAP2 ADD SSTORE PUSH2 0x1732 JUMP JUMPDEST PUSH1 0x4C DUP1 SLOAD PUSH2 0x3E8 PUSH1 0x96 DUP6 MUL DIV ADD SWAP1 SSTORE JUMPDEST POP POP JUMPDEST POP JUMPDEST DUP1 ISZERO PUSH2 0x1781 JUMPI PUSH1 0x7 SLOAD PUSH2 0x1759 SWAP1 PUSH2 0x100 SWAP1 DIV PUSH1 0x1 PUSH1 0x1 PUSH1 0xA0 SHL SUB AND DUP8 DUP4 PUSH2 0x2CFD JUMP JUMPDEST PUSH1 0x0 PUSH2 0x1764 DUP8 PUSH2 0xA0C JUMP JUMPDEST SWAP1 POP DUP1 ISZERO PUSH2 0x177F JUMPI PUSH2 0x1776 DUP8 DUP3 PUSH2 0x2DEB JUMP JUMPDEST PUSH1 0x19 DUP1 SLOAD DUP3 ADD SWAP1 SSTORE JUMPDEST POP JUMPDEST PUSH2 0x1789 PUSH2 0x2BC5 JUMP JUMPDEST POP POP POP POP POP POP JUMP JUMPDEST PUSH1 0x3 SLOAD DUP2 JUMP JUMPDEST PUSH2 0x17A2 DUP4 DUP4 DUP4 PUSH2 0x2EB5 JUMP JUMPDEST PUSH2 0x100F DUP4 PUSH2 0x3137 JUMP JUMPDEST PUSH1 0x0 PUSH2 0x17B5 PUSH2 0x27B3 JUMP JUMPDEST SWAP1 POP PUSH1 0x1 PUSH1 0x1 PUSH1 0xA0 SHL SUB DUP2 AND PUSH2 0x17DD JUMPI PUSH1 0x40 MLOAD PUSH3 0x461BCD PUSH1 0xE5 SHL DUP2 MSTORE PUSH1 0x4 ADD PUSH2 0xF71 SWAP1 PUSH2 0x59EB JUMP JUMPDEST PUSH1 0x1 PUSH1 0x1 PUSH1 0xA0 SHL SUB DUP4 AND PUSH2 0x1803 JUMPI PUSH1 0x40 MLOAD PUSH3 0x461BCD PUSH1 0xE5 SHL DUP2 MSTORE PUSH1 0x4 ADD PUSH2 0xF71 SWAP1 PUSH2 0x578A JUMP JUMPDEST PUSH2 0x100F DUP2 DUP5 DUP5 TIMESTAMP PUSH2 0x3503 JUMP JUMPDEST PUSH2 0x1819 DUP3 DUP3 PUSH2 0x2AE4 JUMP JUMPDEST POP POP JUMP JUMPDEST PUSH1 0x0 PUSH2 0x1827 PUSH2 0x27B3 JUMP JUMPDEST SWAP1 POP PUSH1 0x1 PUSH1 0x1 PUSH1 0xA0 SHL SUB DUP2 AND PUSH2 0x184F JUMPI PUSH1 0x40 MLOAD PUSH3 0x461BCD PUSH1 0xE5 SHL DUP2 MSTORE PUSH1 0x4 ADD PUSH2 0xF71 SWAP1 PUSH2 0x59EB JUMP JUMPDEST PUSH1 0x0 DUP1 PUSH1 0x0 JUMPDEST PUSH1 0x50 SLOAD DUP2 LT ISZERO PUSH2 0x19BA JUMPI PUSH1 0x0 PUSH1 0x50 DUP3 DUP2 SLOAD DUP2 LT PUSH2 0x186E JUMPI INVALID JUMPDEST PUSH1 0x0 SWAP2 DUP3 MSTORE PUSH1 0x20 SWAP1 SWAP2 KECCAK256 PUSH1 0x4 SWAP1 SWAP2 MUL ADD PUSH1 0x1 DUP2 ADD SLOAD SWAP1 SWAP2 POP PUSH1 0x1 PUSH1 0x1 PUSH1 0xA0 SHL SUB DUP7 DUP2 AND SWAP2 AND EQ ISZERO PUSH2 0x18AD JUMPI PUSH1 0x3 ADD SLOAD PUSH1 0x1 SWAP1 SWAP4 ADD SWAP3 SWAP2 SWAP1 SWAP2 ADD SWAP1 PUSH2 0x19B2 JUMP JUMPDEST DUP4 ISZERO PUSH2 0x19B0 JUMPI PUSH1 0x50 DUP3 DUP2 SLOAD DUP2 LT PUSH2 0x18C0 JUMPI INVALID JUMPDEST SWAP1 PUSH1 0x0 MSTORE PUSH1 0x20 PUSH1 0x0 KECCAK256 SWAP1 PUSH1 0x4 MUL ADD PUSH1 0x1 ADD PUSH1 0x0 SWAP1 SLOAD SWAP1 PUSH2 0x100 EXP SWAP1 DIV PUSH1 0x1 PUSH1 0x1 PUSH1 0xA0 SHL SUB AND PUSH1 0x50 DUP6 DUP5 SUB DUP2 SLOAD DUP2 LT PUSH2 0x18F4 JUMPI INVALID JUMPDEST SWAP1 PUSH1 0x0 MSTORE PUSH1 0x20 PUSH1 0x0 KECCAK256 SWAP1 PUSH1 0x4 MUL ADD PUSH1 0x1 ADD PUSH1 0x0 PUSH2 0x100 EXP DUP2 SLOAD DUP2 PUSH1 0x1 PUSH1 0x1 PUSH1 0xA0 SHL SUB MUL NOT AND SWAP1 DUP4 PUSH1 0x1 PUSH1 0x1 PUSH1 0xA0 SHL SUB AND MUL OR SWAP1 SSTORE POP PUSH1 0x50 DUP3 DUP2 SLOAD DUP2 LT PUSH2 0x1936 JUMPI INVALID JUMPDEST SWAP1 PUSH1 0x0 MSTORE PUSH1 0x20 PUSH1 0x0 KECCAK256 SWAP1 PUSH1 0x4 MUL ADD PUSH1 0x2 ADD SLOAD PUSH1 0x50 DUP6 DUP5 SUB DUP2 SLOAD DUP2 LT PUSH2 0x1957 JUMPI INVALID JUMPDEST SWAP1 PUSH1 0x0 MSTORE PUSH1 0x20 PUSH1 0x0 KECCAK256 SWAP1 PUSH1 0x4 MUL ADD PUSH1 0x2 ADD DUP2 SWAP1 SSTORE POP PUSH1 0x50 DUP3 DUP2 SLOAD DUP2 LT PUSH2 0x1979 JUMPI INVALID JUMPDEST SWAP1 PUSH1 0x0 MSTORE PUSH1 0x20 PUSH1 0x0 KECCAK256 SWAP1 PUSH1 0x4 MUL ADD PUSH1 0x3 ADD SLOAD PUSH1 0x50 DUP6 DUP5 SUB DUP2 SLOAD DUP2 LT PUSH2 0x199A JUMPI INVALID JUMPDEST SWAP1 PUSH1 0x0 MSTORE PUSH1 0x20 PUSH1 0x0 KECCAK256 SWAP1 PUSH1 0x4 MUL ADD PUSH1 0x3 ADD DUP2 SWAP1 SSTORE POP JUMPDEST POP JUMPDEST PUSH1 0x1 ADD PUSH2 0x1855 JUMP JUMPDEST POP DUP2 ISZERO PUSH2 0x13B6 JUMPI PUSH1 0x0 JUMPDEST DUP3 DUP2 LT ISZERO PUSH2 0x1A1A JUMPI PUSH1 0x50 DUP1 SLOAD DUP1 PUSH2 0x19D7 JUMPI INVALID JUMPDEST PUSH1 0x0 DUP3 DUP2 MSTORE PUSH1 0x20 DUP2 KECCAK256 PUSH1 0x4 PUSH1 0x0 NOT SWAP1 SWAP4 ADD SWAP3 DUP4 MUL ADD DUP2 DUP2 SSTORE PUSH1 0x1 DUP2 DUP2 ADD DUP1 SLOAD PUSH1 0x1 PUSH1 0x1 PUSH1 0xA0 SHL SUB NOT AND SWAP1 SSTORE PUSH1 0x2 DUP3 ADD DUP4 SWAP1 SSTORE PUSH1 0x3 SWAP1 SWAP2 ADD SWAP2 SWAP1 SWAP2 SSTORE SWAP2 SSTORE ADD PUSH2 0x19C4 JUMP JUMPDEST POP PUSH1 0x7 SLOAD PUSH2 0x1A37 SWAP1 PUSH2 0x100 SWAP1 DIV PUSH1 0x1 PUSH1 0x1 PUSH1 0xA0 SHL SUB AND DUP5 DUP4 PUSH2 0x2CFD JUMP JUMPDEST PUSH32 0x866CB17A996E44FAD30A4450E43850706BFA73CBC9CC00561C44CD87E9F1503F DUP4 DUP3 PUSH1 0x40 MLOAD PUSH2 0x13AD SWAP3 SWAP2 SWAP1 PUSH2 0x5563 JUMP JUMPDEST PUSH1 0x1 PUSH1 0x1 PUSH1 0xA0 SHL SUB AND PUSH1 0x0 SWAP1 DUP2 MSTORE PUSH1 0x1 PUSH1 0x20 MSTORE PUSH1 0x40 SWAP1 KECCAK256 SLOAD SWAP1 JUMP JUMPDEST PUSH2 0x1A8B PUSH2 0x27B3 JUMP JUMPDEST PUSH1 0x0 SLOAD PUSH1 0x1 PUSH1 0x1 PUSH1 0xA0 SHL SUB SWAP1 DUP2 AND SWAP2 AND EQ PUSH2 0x1AB8 JUMPI PUSH1 0x40 MLOAD PUSH3 0x461BCD PUSH1 0xE5 SHL DUP2 MSTORE PUSH1 0x4 ADD PUSH2 0xF71 SWAP1 PUSH2 0x5B7A JUMP JUMPDEST PUSH1 0x0 DUP1 SLOAD PUSH1 0x40 MLOAD PUSH1 0x1 PUSH1 0x1 PUSH1 0xA0 SHL SUB SWAP1 SWAP2 AND SWAP1 PUSH32 0x8BE0079C531659141344CD1FD0A4F28419497F9722A3DAAFE3B4186F6B6457E0 SWAP1 DUP4 SWAP1 LOG3 PUSH1 0x0 DUP1 SLOAD PUSH1 0x1 PUSH1 0x1 PUSH1 0xA0 SHL SUB NOT AND SWAP1 SSTORE JUMP JUMPDEST PUSH1 0x0 PUSH2 0x1B0C PUSH2 0x27B3 JUMP JUMPDEST PUSH1 0x0 SLOAD PUSH1 0x1 PUSH1 0x1 PUSH1 0xA0 SHL SUB SWAP1 DUP2 AND SWAP2 AND EQ PUSH2 0x1B39 JUMPI PUSH1 0x40 MLOAD PUSH3 0x461BCD PUSH1 0xE5 SHL DUP2 MSTORE PUSH1 0x4 ADD PUSH2 0xF71 SWAP1 PUSH2 0x5B7A JUMP JUMPDEST PUSH2 0xF35 DUP5 DUP5 DUP5 PUSH2 0x2CFD JUMP JUMPDEST PUSH1 0x0 PUSH2 0x1B4E PUSH2 0x1BC2 JUMP JUMPDEST SWAP1 POP SWAP1 JUMP JUMPDEST PUSH1 0x0 PUSH2 0x1B5D PUSH2 0x27B3 JUMP JUMPDEST SWAP1 POP PUSH1 0x1 PUSH1 0x1 PUSH1 0xA0 SHL SUB DUP2 AND PUSH2 0x1B85 JUMPI PUSH1 0x40 MLOAD PUSH3 0x461BCD PUSH1 0xE5 SHL DUP2 MSTORE PUSH1 0x4 ADD PUSH2 0xF71 SWAP1 PUSH2 0x57BA JUMP JUMPDEST DUP3 PUSH1 0x1 PUSH1 0x1 PUSH1 0xA0 SHL SUB AND DUP2 PUSH1 0x1 PUSH1 0x1 PUSH1 0xA0 SHL SUB AND EQ ISZERO PUSH2 0x1BB7 JUMPI PUSH1 0x40 MLOAD PUSH3 0x461BCD PUSH1 0xE5 SHL DUP2 MSTORE PUSH1 0x4 ADD PUSH2 0xF71 SWAP1 PUSH2 0x5C6E JUMP JUMPDEST PUSH2 0x100F DUP2 DUP5 DUP5 PUSH2 0x2EB5 JUMP JUMPDEST PUSH1 0x0 SLOAD PUSH1 0x1 PUSH1 0x1 PUSH1 0xA0 SHL SUB AND SWAP1 JUMP JUMPDEST PUSH1 0x6 DUP1 SLOAD PUSH1 0x40 DUP1 MLOAD PUSH1 0x20 PUSH1 0x1F PUSH1 0x2 PUSH1 0x0 NOT PUSH2 0x100 PUSH1 0x1 DUP9 AND ISZERO MUL ADD SWAP1 SWAP6 AND SWAP5 SWAP1 SWAP5 DIV SWAP4 DUP5 ADD DUP2 SWAP1 DIV DUP2 MUL DUP3 ADD DUP2 ADD SWAP1 SWAP3 MSTORE DUP3 DUP2 MSTORE PUSH1 0x60 SWAP4 SWAP1 SWAP3 SWAP1 SWAP2 DUP4 ADD DUP3 DUP3 DUP1 ISZERO PUSH2 0x9E4 JUMPI DUP1 PUSH1 0x1F LT PUSH2 0x9B9 JUMPI PUSH2 0x100 DUP1 DUP4 SLOAD DIV MUL DUP4 MSTORE SWAP2 PUSH1 0x20 ADD SWAP2 PUSH2 0x9E4 JUMP JUMPDEST PUSH1 0x0 PUSH1 0x17 SLOAD PUSH1 0xA MUL PUSH1 0x9 SLOAD DUP4 MUL DUP2 PUSH2 0x1C46 JUMPI INVALID JUMPDEST DIV SWAP3 SWAP2 POP POP JUMP JUMPDEST PUSH2 0x100F DUP4 DUP4 DUP4 PUSH2 0x27B7 JUMP JUMPDEST PUSH1 0x0 PUSH2 0x1C62 PUSH2 0x27B3 JUMP JUMPDEST PUSH1 0x0 SLOAD PUSH1 0x1 PUSH1 0x1 PUSH1 0xA0 SHL SUB SWAP1 DUP2 AND SWAP2 AND EQ PUSH2 0x1C8F JUMPI PUSH1 0x40 MLOAD PUSH3 0x461BCD PUSH1 0xE5 SHL DUP2 MSTORE PUSH1 0x4 ADD PUSH2 0xF71 SWAP1 PUSH2 0x5B7A JUMP JUMPDEST PUSH2 0x1CA0 PUSH2 0x1C9A PUSH2 0x27B3 JUMP JUMPDEST DUP4 PUSH2 0x2AE4 JUMP JUMPDEST POP PUSH1 0x1 SWAP2 SWAP1 POP JUMP JUMPDEST PUSH1 0x0 PUSH2 0xA02 PUSH2 0x1CB5 PUSH2 0x27B3 JUMP JUMPDEST DUP5 PUSH2 0xF30 DUP6 PUSH1 0x40 MLOAD DUP1 PUSH1 0x60 ADD PUSH1 0x40 MSTORE DUP1 PUSH1 0x25 DUP2 MSTORE PUSH1 0x20 ADD PUSH2 0x5EA2 PUSH1 0x25 SWAP2 CODECOPY PUSH1 0x2 PUSH1 0x0 PUSH2 0x1CDF PUSH2 0x27B3 JUMP JUMPDEST PUSH1 0x1 PUSH1 0x1 PUSH1 0xA0 SHL SUB SWAP1 DUP2 AND DUP3 MSTORE PUSH1 0x20 DUP1 DUP4 ADD SWAP4 SWAP1 SWAP4 MSTORE PUSH1 0x40 SWAP2 DUP3 ADD PUSH1 0x0 SWAP1 DUP2 KECCAK256 SWAP2 DUP14 AND DUP2 MSTORE SWAP3 MSTORE SWAP1 KECCAK256 SLOAD SWAP2 SWAP1 PUSH2 0x2AB8 JUMP JUMPDEST PUSH2 0x1D18 PUSH2 0x51F8 JUMP JUMPDEST PUSH1 0x1 PUSH1 0x1 PUSH1 0xA0 SHL SUB DUP3 AND PUSH2 0x1D3E JUMPI PUSH1 0x40 MLOAD PUSH3 0x461BCD PUSH1 0xE5 SHL DUP2 MSTORE PUSH1 0x4 ADD PUSH2 0xF71 SWAP1 PUSH2 0x5C45 JUMP JUMPDEST PUSH1 0x0 DUP1 PUSH1 0x0 DUP1 PUSH1 0x0 DUP1 PUSH1 0x0 DUP1 PUSH2 0x1D53 DUP11 PUSH2 0x1A68 JUMP JUMPDEST PUSH1 0xA SLOAD SWAP1 SWAP2 POP PUSH1 0x1 PUSH1 0x1 PUSH1 0xA0 SHL SUB DUP12 DUP2 AND SWAP2 AND EQ ISZERO PUSH2 0x1DBE JUMPI PUSH1 0xC SLOAD PUSH1 0x47 SLOAD SWAP1 SWAP7 POP PUSH1 0x0 SWAP1 DUP2 SWAP1 PUSH2 0x1D8E SWAP1 PUSH1 0x1 PUSH1 0x1 PUSH1 0xA0 SHL SUB AND PUSH1 0x1 PUSH2 0x3D81 JUMP JUMPDEST PUSH1 0x47 SLOAD PUSH1 0x1 PUSH1 0x1 PUSH1 0xA0 SHL SUB AND PUSH1 0x0 SWAP1 DUP2 MSTORE PUSH1 0x49 PUSH1 0x20 MSTORE PUSH1 0x40 SWAP1 KECCAK256 PUSH1 0x2 ADD SLOAD PUSH1 0x1 SWAP1 SWAP3 ADD SWAP7 POP ADD SWAP4 POP PUSH2 0x1E4B SWAP2 POP POP JUMP JUMPDEST PUSH1 0xE SLOAD PUSH1 0x1 PUSH1 0x1 PUSH1 0xA0 SHL SUB DUP12 DUP2 AND SWAP2 AND EQ ISZERO PUSH2 0x1DDE JUMPI PUSH1 0xC SLOAD SWAP6 POP PUSH2 0x1E4B JUMP JUMPDEST PUSH1 0x12 SLOAD PUSH1 0x1 PUSH1 0x1 PUSH1 0xA0 SHL SUB DUP12 DUP2 AND SWAP2 AND EQ ISZERO PUSH2 0x1DFE JUMPI PUSH1 0xC SLOAD SWAP6 POP PUSH2 0x1E4B JUMP JUMPDEST PUSH1 0x1 PUSH1 0x1 PUSH1 0xA0 SHL SUB DUP11 AND PUSH1 0x0 SWAP1 DUP2 MSTORE PUSH1 0x49 PUSH1 0x20 MSTORE PUSH1 0x40 DUP2 KECCAK256 DUP1 SLOAD PUSH1 0x5 DUP3 ADD SLOAD PUSH1 0x3 DUP4 ADD SLOAD PUSH1 0x2 DUP5 ADD SLOAD PUSH1 0x9 DUP6 ADD SLOAD SWAP4 SWAP14 POP SWAP12 POP SWAP10 POP SWAP1 SWAP8 POP SWAP6 POP SWAP1 PUSH2 0x1E44 SWAP1 DUP13 SWAP1 PUSH2 0x3D81 JUMP JUMPDEST SWAP1 SWAP5 POP SWAP3 POP POP JUMPDEST PUSH1 0x40 DUP1 MLOAD PUSH2 0x100 DUP2 ADD DUP3 MSTORE SWAP9 DUP10 MSTORE PUSH1 0x20 DUP10 ADD SWAP2 SWAP1 SWAP2 MSTORE DUP8 ADD SWAP3 SWAP1 SWAP3 MSTORE PUSH1 0x60 DUP7 ADD SWAP5 SWAP1 SWAP5 MSTORE PUSH1 0x80 DUP6 ADD SWAP3 SWAP1 SWAP3 MSTORE PUSH1 0xA0 DUP5 ADD MSTORE PUSH1 0xC0 DUP4 ADD SWAP2 SWAP1 SWAP2 MSTORE PUSH1 0xE0 DUP3 ADD MSTORE SWAP3 SWAP2 POP POP JUMP JUMPDEST PUSH1 0x0 PUSH2 0xA02 PUSH2 0x1E9C PUSH2 0x27B3 JUMP JUMPDEST DUP5 DUP5 PUSH2 0x29AE JUMP JUMPDEST PUSH1 0x0 PUSH2 0xA06 DUP3 PUSH2 0x2888 JUMP JUMPDEST PUSH2 0x100F DUP4 DUP4 DUP4 TIMESTAMP PUSH2 0x3503 JUMP JUMPDEST PUSH1 0xA SLOAD PUSH1 0x0 SWAP1 DUP2 SWAP1 DUP2 SWAP1 DUP2 SWAP1 DUP2 SWAP1 DUP2 SWAP1 DUP2 SWAP1 DUP2 SWAP1 DUP2 SWAP1 DUP2 SWAP1 PUSH1 0x1 PUSH1 0x1 PUSH1 0xA0 SHL SUB DUP13 DUP2 AND SWAP2 AND EQ ISZERO PUSH2 0x1F9D JUMPI PUSH1 0x47 SLOAD PUSH1 0x1 PUSH1 0x1 PUSH1 0xA0 SHL SUB AND PUSH1 0x0 SWAP1 DUP2 MSTORE PUSH1 0x49 PUSH1 0x20 MSTORE PUSH1 0x40 DUP2 KECCAK256 PUSH1 0x46 DUP1 SLOAD SWAP2 SWAP3 PUSH2 0x3E8 SWAP3 PUSH2 0x1F0F JUMPI INVALID JUMPDEST SWAP1 PUSH1 0x0 MSTORE PUSH1 0x20 PUSH1 0x0 KECCAK256 ADD PUSH1 0x2 DUP2 SLOAD DUP2 LT PUSH2 0x1F25 JUMPI INVALID JUMPDEST SWAP1 PUSH1 0x0 MSTORE PUSH1 0x20 PUSH1 0x0 KECCAK256 SWAP1 PUSH1 0x20 SWAP2 DUP3 DUP3 DIV ADD SWAP2 SWAP1 MOD SWAP1 SLOAD SWAP1 PUSH2 0x100 EXP SWAP1 DIV PUSH1 0xFF AND PUSH1 0xFF AND PUSH2 0x1F56 DUP4 DUP5 PUSH1 0x6 ADD SLOAD PUSH2 0x3E59 JUMP JUMPDEST MUL DUP2 PUSH2 0x1F5E JUMPI INVALID JUMPDEST DIV PUSH1 0xA PUSH1 0x1 ADD SLOAD ADD SWAP2 POP PUSH2 0x1F70 PUSH2 0x5217 JUMP JUMPDEST PUSH1 0x47 SLOAD PUSH1 0x6 DUP4 ADD SLOAD PUSH2 0x1F8F SWAP2 PUSH1 0x1 PUSH1 0x1 PUSH1 0xA0 SHL SUB AND SWAP1 PUSH1 0x1 PUSH1 0x13 PUSH2 0x3F02 JUMP JUMPDEST PUSH1 0x40 ADD MLOAD SWAP5 POP PUSH2 0x2232 SWAP2 POP POP JUMP JUMPDEST PUSH1 0xE SLOAD PUSH1 0x1 PUSH1 0x1 PUSH1 0xA0 SHL SUB DUP13 DUP2 AND SWAP2 AND EQ ISZERO PUSH2 0x1FBC JUMPI POP PUSH1 0xF SLOAD PUSH2 0x2232 JUMP JUMPDEST PUSH1 0x12 SLOAD PUSH1 0x1 PUSH1 0x1 PUSH1 0xA0 SHL SUB DUP13 DUP2 AND SWAP2 AND EQ ISZERO PUSH2 0x1FDB JUMPI POP PUSH1 0x13 SLOAD PUSH2 0x2232 JUMP JUMPDEST PUSH1 0x1 PUSH1 0x1 PUSH1 0xA0 SHL SUB DUP12 AND PUSH1 0x0 SWAP1 DUP2 MSTORE PUSH1 0x49 PUSH1 0x20 MSTORE PUSH1 0x40 SWAP1 KECCAK256 PUSH1 0x1F SLOAD PUSH1 0x6 DUP3 ADD SLOAD LT SWAP6 POP DUP6 ISZERO PUSH2 0x201C JUMPI PUSH1 0x40 MLOAD PUSH3 0x461BCD PUSH1 0xE5 SHL DUP2 MSTORE PUSH1 0x4 ADD PUSH2 0xF71 SWAP1 PUSH2 0x593B JUMP JUMPDEST PUSH1 0x1 DUP2 ADD SLOAD PUSH1 0x1 PUSH1 0x38 SHL SWAP1 DIV PUSH1 0xFF AND PUSH2 0x2047 JUMPI PUSH1 0x40 MLOAD PUSH3 0x461BCD PUSH1 0xE5 SHL DUP2 MSTORE PUSH1 0x4 ADD PUSH2 0xF71 SWAP1 PUSH2 0x5C18 JUMP JUMPDEST DUP1 PUSH1 0xB ADD SLOAD SWAP3 POP PUSH1 0x0 PUSH1 0x4A PUSH1 0x1 DUP4 PUSH1 0x1 ADD PUSH1 0x7 SWAP1 SLOAD SWAP1 PUSH2 0x100 EXP SWAP1 DIV PUSH1 0xFF AND SUB PUSH1 0xFF AND DUP2 SLOAD DUP2 LT PUSH2 0x2074 JUMPI INVALID JUMPDEST SWAP1 PUSH1 0x0 MSTORE PUSH1 0x20 PUSH1 0x0 KECCAK256 SWAP1 PUSH1 0x4 MUL ADD SWAP1 POP PUSH2 0x208C PUSH2 0x5217 JUMP JUMPDEST PUSH2 0x20F3 DUP15 DUP5 PUSH1 0x6 ADD SLOAD PUSH1 0x0 PUSH1 0x46 DUP7 PUSH1 0x2 ADD PUSH1 0x1 SWAP1 SLOAD SWAP1 PUSH2 0x100 EXP SWAP1 DIV PUSH1 0xFF AND PUSH1 0xFF AND DUP2 SLOAD DUP2 LT PUSH2 0x20B8 JUMPI INVALID JUMPDEST SWAP1 PUSH1 0x0 MSTORE PUSH1 0x20 PUSH1 0x0 KECCAK256 ADD PUSH1 0x1 DUP2 SLOAD DUP2 LT PUSH2 0x20CE JUMPI INVALID JUMPDEST PUSH1 0x0 SWAP2 DUP3 MSTORE PUSH1 0x20 SWAP2 DUP3 SWAP1 KECCAK256 SWAP2 DUP2 DIV SWAP1 SWAP2 ADD SLOAD PUSH1 0xFF PUSH1 0x1F SWAP1 SWAP3 AND PUSH2 0x100 EXP SWAP1 DIV AND PUSH2 0x3F02 JUMP JUMPDEST SWAP1 POP PUSH2 0x2103 DUP4 DUP5 PUSH1 0x6 ADD SLOAD PUSH2 0x3E59 JUMP JUMPDEST PUSH1 0x40 DUP3 ADD MLOAD PUSH1 0x1 DUP6 ADD SLOAD SWAP2 SWAP9 POP SWAP7 POP PUSH2 0x3E6 PUSH1 0x1 PUSH1 0x20 SHL SWAP1 SWAP2 DIV PUSH2 0xFFFF AND GT DUP1 ISZERO PUSH2 0x213F JUMPI POP PUSH1 0x1 DUP4 ADD SLOAD PUSH2 0x3EA PUSH1 0x1 PUSH1 0x20 SHL SWAP1 SWAP2 DIV PUSH2 0xFFFF AND LT JUMPDEST ISZERO PUSH2 0x219E JUMPI PUSH1 0x0 JUMPDEST PUSH1 0x4F SLOAD DUP2 LT ISZERO PUSH2 0x219C JUMPI PUSH1 0x0 PUSH1 0x4F DUP3 DUP2 SLOAD DUP2 LT PUSH2 0x2160 JUMPI INVALID JUMPDEST SWAP1 PUSH1 0x0 MSTORE PUSH1 0x20 PUSH1 0x0 KECCAK256 SWAP1 PUSH1 0x3 MUL ADD SWAP1 POP DUP5 PUSH1 0x6 ADD SLOAD DUP2 PUSH1 0x0 ADD SLOAD GT ISZERO PUSH2 0x2193 JUMPI PUSH2 0xBB6 DUP2 PUSH1 0x1 ADD SLOAD DUP2 PUSH2 0x218F JUMPI INVALID JUMPDEST DIV SWAP7 POP JUMPDEST POP PUSH1 0x1 ADD PUSH2 0x2147 JUMP JUMPDEST POP JUMPDEST PUSH2 0x3E8 DUP3 PUSH1 0x3 ADD SLOAD DUP5 PUSH1 0xA ADD SLOAD MUL DUP2 PUSH2 0x21B3 JUMPI INVALID JUMPDEST DIV DUP6 DUP3 PUSH1 0x40 ADD MLOAD DUP10 ADD ADD GT SWAP8 POP DUP8 PUSH2 0x222E JUMPI PUSH1 0x1 DUP4 ADD SLOAD PUSH1 0x5 PUSH1 0x1 PUSH1 0x20 SHL SWAP1 SWAP2 DIV PUSH2 0xFFFF AND LT ISZERO PUSH2 0x21F2 JUMPI DUP5 PUSH2 0x3E8 PUSH2 0x352 DUP10 DUP10 ADD MUL DIV ADD SWAP4 POP PUSH2 0x222E JUMP JUMPDEST PUSH1 0x1 DUP4 ADD SLOAD PUSH2 0x3E6 PUSH1 0x1 PUSH1 0x20 SHL SWAP1 SWAP2 DIV PUSH2 0xFFFF AND GT ISZERO PUSH2 0x2220 JUMPI PUSH2 0x3E8 PUSH2 0x352 DUP9 DUP9 ADD DUP8 ADD MUL DIV SWAP4 POP PUSH2 0x222E JUMP JUMPDEST PUSH2 0x3E8 PUSH2 0x352 DUP9 DUP9 ADD MUL DIV SWAP4 POP JUMPDEST POP POP POP JUMPDEST SWAP4 SWAP11 SWAP3 SWAP10 POP SWAP1 SWAP8 POP SWAP6 POP SWAP1 SWAP4 POP SWAP2 POP POP JUMP JUMPDEST PUSH1 0x4 SLOAD SWAP1 JUMP JUMPDEST PUSH1 0x0 PUSH2 0x2254 PUSH2 0x27B3 JUMP JUMPDEST SWAP1 POP PUSH1 0x1 PUSH1 0x1 PUSH1 0xA0 SHL SUB DUP2 AND PUSH2 0x227C JUMPI PUSH1 0x40 MLOAD PUSH3 0x461BCD PUSH1 0xE5 SHL DUP2 MSTORE PUSH1 0x4 ADD PUSH2 0xF71 SWAP1 PUSH2 0x59EB JUMP JUMPDEST PUSH2 0x1819 DUP2 DUP4 PUSH2 0x421E JUMP JUMPDEST PUSH1 0x1 PUSH1 0x1 PUSH1 0xA0 SHL SUB SWAP2 DUP3 AND PUSH1 0x0 SWAP1 DUP2 MSTORE PUSH1 0x2 PUSH1 0x20 SWAP1 DUP2 MSTORE PUSH1 0x40 DUP1 DUP4 KECCAK256 SWAP4 SWAP1 SWAP5 AND DUP3 MSTORE SWAP2 SWAP1 SWAP2 MSTORE KECCAK256 SLOAD SWAP1 JUMP JUMPDEST PUSH2 0x22B9 PUSH2 0x27B3 JUMP JUMPDEST PUSH1 0x0 SLOAD PUSH1 0x1 PUSH1 0x1 PUSH1 0xA0 SHL SUB SWAP1 DUP2 AND SWAP2 AND EQ PUSH2 0x22E6 JUMPI PUSH1 0x40 MLOAD PUSH3 0x461BCD PUSH1 0xE5 SHL DUP2 MSTORE PUSH1 0x4 ADD PUSH2 0xF71 SWAP1 PUSH2 0x5B7A JUMP JUMPDEST CALLER PUSH2 0x22EF PUSH2 0x1BC2 JUMP JUMPDEST PUSH1 0x1 PUSH1 0x1 PUSH1 0xA0 SHL SUB AND EQ PUSH2 0x2315 JUMPI PUSH1 0x40 MLOAD PUSH3 0x461BCD PUSH1 0xE5 SHL DUP2 MSTORE PUSH1 0x4 ADD PUSH2 0xF71 SWAP1 PUSH2 0x5B7A JUMP JUMPDEST PUSH1 0x7 DUP1 SLOAD PUSH2 0x100 PUSH1 0x1 PUSH1 0xA8 SHL SUB NOT AND PUSH2 0x100 PUSH1 0x1 PUSH1 0x1 PUSH1 0xA0 SHL SUB SWAP9 DUP10 AND MUL OR PUSH1 0xFF PUSH1 0xA8 SHL NOT AND PUSH1 0x1 PUSH1 0xA8 SHL PUSH1 0xFF SWAP8 SWAP1 SWAP8 AND SWAP7 SWAP1 SWAP7 MUL SWAP6 SWAP1 SWAP6 OR SWAP1 SWAP5 SSTORE PUSH1 0xA DUP1 SLOAD PUSH1 0x1 PUSH1 0x1 PUSH1 0xA0 SHL SUB NOT SWAP1 DUP2 AND SWAP5 DUP8 AND SWAP5 SWAP1 SWAP5 OR SWAP1 SSTORE PUSH1 0x12 DUP1 SLOAD DUP5 AND SWAP3 DUP7 AND SWAP3 SWAP1 SWAP3 OR SWAP1 SWAP2 SSTORE PUSH1 0xE DUP1 SLOAD DUP4 AND SWAP2 DUP6 AND SWAP2 SWAP1 SWAP2 OR SWAP1 SSTORE PUSH1 0x4B DUP1 SLOAD SWAP1 SWAP2 AND SWAP2 SWAP1 SWAP3 AND OR SWAP1 SSTORE JUMP JUMPDEST PUSH1 0x0 PUSH2 0x23A3 PUSH2 0x27B3 JUMP JUMPDEST SWAP1 POP PUSH1 0x1 PUSH1 0x1 PUSH1 0xA0 SHL SUB DUP2 AND PUSH2 0x23CB JUMPI PUSH1 0x40 MLOAD PUSH3 0x461BCD PUSH1 0xE5 SHL DUP2 MSTORE PUSH1 0x4 ADD PUSH2 0xF71 SWAP1 PUSH2 0x59EB JUMP JUMPDEST PUSH2 0x1819 DUP2 DUP4 PUSH2 0x46FE JUMP JUMPDEST PUSH1 0x40 DUP1 MLOAD PUSH1 0xA DUP1 DUP3 MSTORE PUSH2 0x160 DUP3 ADD SWAP1 SWAP3 MSTORE PUSH1 0x60 SWAP2 DUP3 SWAP2 DUP3 SWAP2 DUP3 SWAP2 SWAP1 PUSH1 0x20 DUP3 ADD PUSH2 0x140 DUP1 CALLDATASIZE DUP4 CALLDATACOPY POP POP PUSH1 0x40 DUP1 MLOAD PUSH1 0xA DUP1 DUP3 MSTORE PUSH2 0x160 DUP3 ADD SWAP1 SWAP3 MSTORE SWAP3 SWAP4 POP PUSH1 0x60 SWAP3 SWAP2 POP PUSH1 0x20 DUP3 ADD PUSH2 0x140 DUP1 CALLDATASIZE DUP4 CALLDATACOPY POP POP PUSH1 0x40 DUP1 MLOAD PUSH1 0xA DUP1 DUP3 MSTORE PUSH2 0x160 DUP3 ADD SWAP1 SWAP3 MSTORE SWAP3 SWAP4 POP PUSH1 0x60 SWAP3 SWAP2 POP PUSH1 0x20 DUP3 ADD PUSH2 0x140 DUP1 CALLDATASIZE DUP4 CALLDATACOPY ADD SWAP1 POP POP SWAP1 POP PUSH1 0x0 DUP1 DUP1 JUMPDEST PUSH1 0xA DUP2 LT ISZERO PUSH2 0x2570 JUMPI PUSH1 0x5A DUP2 DUP2 SLOAD DUP2 LT PUSH2 0x2468 JUMPI INVALID JUMPDEST PUSH1 0x0 SWAP2 DUP3 MSTORE PUSH1 0x20 SWAP1 SWAP2 KECCAK256 ADD SLOAD PUSH1 0x1 PUSH1 0x1 PUSH1 0xA0 SHL SUB AND SWAP2 POP DUP2 ISZERO DUP1 ISZERO SWAP1 PUSH2 0x24AE JUMPI POP PUSH1 0x1 PUSH1 0x1 PUSH1 0xA0 SHL SUB DUP3 AND PUSH1 0x0 SWAP1 DUP2 MSTORE PUSH1 0x54 PUSH1 0x20 MSTORE PUSH1 0x40 SWAP1 KECCAK256 PUSH1 0x3 ADD SLOAD NUMBER PUSH2 0x2580 SWAP1 SWAP2 ADD GT JUMPDEST ISZERO PUSH2 0x2568 JUMPI DUP2 DUP7 DUP5 DUP2 MLOAD DUP2 LT PUSH2 0x24C0 JUMPI INVALID JUMPDEST PUSH1 0x20 MUL PUSH1 0x20 ADD ADD SWAP1 PUSH1 0x1 PUSH1 0x1 PUSH1 0xA0 SHL SUB AND SWAP1 DUP2 PUSH1 0x1 PUSH1 0x1 PUSH1 0xA0 SHL SUB AND DUP2 MSTORE POP POP PUSH1 0x54 PUSH1 0x0 DUP4 PUSH1 0x1 PUSH1 0x1 PUSH1 0xA0 SHL SUB AND PUSH1 0x1 PUSH1 0x1 PUSH1 0xA0 SHL SUB AND DUP2 MSTORE PUSH1 0x20 ADD SWAP1 DUP2 MSTORE PUSH1 0x20 ADD PUSH1 0x0 KECCAK256 PUSH1 0x2 ADD SLOAD DUP6 DUP5 DUP2 MLOAD DUP2 LT PUSH2 0x2515 JUMPI INVALID JUMPDEST PUSH1 0x20 MUL PUSH1 0x20 ADD ADD DUP2 DUP2 MSTORE POP POP PUSH1 0x54 PUSH1 0x0 DUP4 PUSH1 0x1 PUSH1 0x1 PUSH1 0xA0 SHL SUB AND PUSH1 0x1 PUSH1 0x1 PUSH1 0xA0 SHL SUB AND DUP2 MSTORE PUSH1 0x20 ADD SWAP1 DUP2 MSTORE PUSH1 0x20 ADD PUSH1 0x0 KECCAK256 PUSH1 0x3 ADD SLOAD DUP5 DUP5 DUP2 MLOAD DUP2 LT PUSH2 0x2556 JUMPI INVALID JUMPDEST PUSH1 0x20 SWAP1 DUP2 MUL SWAP2 SWAP1 SWAP2 ADD ADD MSTORE PUSH1 0x1 SWAP1 SWAP3 ADD SWAP2 JUMPDEST PUSH1 0x1 ADD PUSH2 0x2452 JUMP JUMPDEST POP SWAP4 SWAP7 POP SWAP2 SWAP5 POP SWAP3 POP POP POP SWAP1 SWAP2 SWAP3 JUMP JUMPDEST PUSH1 0x0 PUSH2 0x258A PUSH2 0x27B3 JUMP JUMPDEST SWAP1 POP PUSH1 0x1 PUSH1 0x1 PUSH1 0xA0 SHL SUB DUP2 AND PUSH2 0x25B2 JUMPI PUSH1 0x40 MLOAD PUSH3 0x461BCD PUSH1 0xE5 SHL DUP2 MSTORE PUSH1 0x4 ADD PUSH2 0xF71 SWAP1 PUSH2 0x59EB JUMP JUMPDEST PUSH2 0x25BB DUP2 PUSH2 0x3137 JUMP JUMPDEST POP JUMP JUMPDEST PUSH1 0x0 DUP1 PUSH1 0x0 DUP1 PUSH2 0x25CC PUSH2 0x27B3 JUMP JUMPDEST PUSH1 0x0 SLOAD PUSH1 0x1 PUSH1 0x1 PUSH1 0xA0 SHL SUB SWAP1 DUP2 AND SWAP2 AND EQ PUSH2 0x25F9 JUMPI PUSH1 0x40 MLOAD PUSH3 0x461BCD PUSH1 0xE5 SHL DUP2 MSTORE PUSH1 0x4 ADD PUSH2 0xF71 SWAP1 PUSH2 0x5B7A JUMP JUMPDEST POP POP PUSH1 0x18 SLOAD PUSH1 0x1B SLOAD PUSH1 0x1F SLOAD PUSH1 0x1 PUSH1 0x40 SHL DUP4 DIV PUSH2 0xFFFF AND SWAP6 PUSH1 0x1 PUSH1 0x20 SHL SWAP1 SWAP4 DIV PUSH4 0xFFFFFFFF AND SWAP5 POP SWAP1 SWAP3 POP SWAP1 JUMP JUMPDEST PUSH2 0x262E PUSH2 0x27B3 JUMP JUMPDEST PUSH1 0x0 SLOAD PUSH1 0x1 PUSH1 0x1 PUSH1 0xA0 SHL SUB SWAP1 DUP2 AND SWAP2 AND EQ PUSH2 0x265B JUMPI PUSH1 0x40 MLOAD PUSH3 0x461BCD PUSH1 0xE5 SHL DUP2 MSTORE PUSH1 0x4 ADD PUSH2 0xF71 SWAP1 PUSH2 0x5B7A JUMP JUMPDEST PUSH2 0x25BB DUP2 PUSH2 0x4BB9 JUMP JUMPDEST PUSH1 0x7 DUP1 SLOAD PUSH1 0x1 PUSH1 0x1 PUSH1 0xA0 SHL SUB SWAP7 DUP8 AND PUSH2 0x100 MUL PUSH2 0x100 PUSH1 0x1 PUSH1 0xA8 SHL SUB NOT SWAP1 SWAP2 AND OR SWAP1 SSTORE PUSH1 0xA DUP1 SLOAD SWAP5 DUP7 AND PUSH1 0x1 PUSH1 0x1 PUSH1 0xA0 SHL SUB NOT SWAP6 DUP7 AND OR SWAP1 SSTORE PUSH1 0x12 DUP1 SLOAD SWAP4 DUP7 AND SWAP4 DUP6 AND SWAP4 SWAP1 SWAP4 OR SWAP1 SWAP3 SSTORE PUSH1 0xE DUP1 SLOAD SWAP2 DUP6 AND SWAP2 DUP5 AND SWAP2 SWAP1 SWAP2 OR SWAP1 SSTORE PUSH1 0x4B DUP1 SLOAD SWAP2 SWAP1 SWAP4 AND SWAP2 AND OR SWAP1 SSTORE JUMP JUMPDEST PUSH1 0x47 SLOAD PUSH1 0x1 PUSH1 0x1 PUSH1 0xA0 SHL SUB AND DUP2 JUMP JUMPDEST PUSH1 0x1 PUSH1 0x1 PUSH1 0xA0 SHL SUB DUP1 DUP3 AND PUSH1 0x0 SWAP1 DUP2 MSTORE PUSH1 0x49 PUSH1 0x20 SWAP1 DUP2 MSTORE PUSH1 0x40 DUP1 DUP4 KECCAK256 PUSH1 0xD DUP2 ADD SLOAD PUSH1 0xF DUP3 ADD SLOAD PUSH1 0xE SWAP1 SWAP3 ADD DUP1 SLOAD DUP5 MLOAD DUP2 DUP8 MUL DUP2 ADD DUP8 ADD SWAP1 SWAP6 MSTORE DUP1 DUP6 MSTORE SWAP6 SWAP7 DUP8 SWAP7 DUP8 SWAP7 PUSH1 0x60 SWAP7 PUSH2 0xFFFF PUSH1 0x1 PUSH1 0xA0 SHL DUP8 DIV AND SWAP7 DUP5 AND SWAP6 SWAP1 SWAP4 AND SWAP4 SWAP3 SWAP2 DUP4 SWAP2 DUP4 ADD DUP3 DUP3 DUP1 ISZERO PUSH2 0x2771 JUMPI PUSH1 0x20 MUL DUP3 ADD SWAP2 SWAP1 PUSH1 0x0 MSTORE PUSH1 0x20 PUSH1 0x0 KECCAK256 SWAP1 JUMPDEST DUP2 SLOAD PUSH1 0x1 PUSH1 0x1 PUSH1 0xA0 SHL SUB AND DUP2 MSTORE PUSH1 0x1 SWAP1 SWAP2 ADD SWAP1 PUSH1 0x20 ADD DUP1 DUP4 GT PUSH2 0x2753 JUMPI JUMPDEST POP POP POP POP POP SWAP1 POP SWAP4 POP SWAP4 POP SWAP4 POP SWAP4 POP SWAP2 SWAP4 POP SWAP2 SWAP4 JUMP JUMPDEST PUSH1 0x0 DUP3 DUP3 ADD DUP4 DUP2 LT ISZERO PUSH2 0x27AC JUMPI PUSH1 0x40 MLOAD PUSH3 0x461BCD PUSH1 0xE5 SHL DUP2 MSTORE PUSH1 0x4 ADD PUSH2 0xF71 SWAP1 PUSH2 0x5904 JUMP JUMPDEST SWAP4 SWAP3 POP POP POP JUMP JUMPDEST CALLER SWAP1 JUMP JUMPDEST PUSH1 0x1 PUSH1 0x1 PUSH1 0xA0 SHL SUB DUP4 AND PUSH2 0x27DD JUMPI PUSH1 0x40 MLOAD PUSH3 0x461BCD PUSH1 0xE5 SHL DUP2 MSTORE PUSH1 0x4 ADD PUSH2 0xF71 SWAP1 PUSH2 0x5CF0 JUMP JUMPDEST PUSH1 0x1 PUSH1 0x1 PUSH1 0xA0 SHL SUB DUP3 AND PUSH2 0x2803 JUMPI PUSH1 0x40 MLOAD PUSH3 0x461BCD PUSH1 0xE5 SHL DUP2 MSTORE PUSH1 0x4 ADD PUSH2 0xF71 SWAP1 PUSH2 0x5811 JUMP JUMPDEST PUSH1 0x1 PUSH1 0x1 PUSH1 0xA0 SHL SUB DUP1 DUP5 AND PUSH1 0x0 DUP2 DUP2 MSTORE PUSH1 0x2 PUSH1 0x20 SWAP1 DUP2 MSTORE PUSH1 0x40 DUP1 DUP4 KECCAK256 SWAP5 DUP8 AND DUP1 DUP5 MSTORE SWAP5 SWAP1 SWAP2 MSTORE SWAP1 DUP2 SWAP1 KECCAK256 DUP5 SWAP1 SSTORE MLOAD PUSH32 0x8C5BE1E5EBEC7D5BD14F71427D1E84F3DD0314C0F7B2291E5B200AC8C7C3B925 SWAP1 PUSH2 0x285E SWAP1 DUP6 SWAP1 PUSH2 0x5DB6 JUMP JUMPDEST PUSH1 0x40 MLOAD DUP1 SWAP2 SUB SWAP1 LOG3 POP POP POP JUMP JUMPDEST PUSH1 0x0 PUSH2 0x3E8 PUSH2 0x2878 PUSH2 0x4C3A JUMP JUMPDEST PUSH1 0x32 MUL DUP2 PUSH2 0x2882 JUMPI INVALID JUMPDEST DIV SWAP1 POP SWAP1 JUMP JUMPDEST PUSH1 0x0 PUSH1 0x3 DUP3 GT ISZERO PUSH2 0x28AB JUMPI PUSH1 0x40 MLOAD PUSH3 0x461BCD PUSH1 0xE5 SHL DUP2 MSTORE PUSH1 0x4 ADD PUSH2 0xF71 SWAP1 PUSH2 0x5B54 JUMP JUMPDEST PUSH1 0x18 SLOAD PUSH1 0x53 DUP1 SLOAD PUSH2 0x3E8 SWAP3 PUSH1 0x1 PUSH1 0x40 SHL SWAP1 DIV PUSH2 0xFFFF AND SWAP2 SWAP1 DUP6 SWAP1 DUP2 LT PUSH2 0x28CD JUMPI INVALID JUMPDEST SWAP1 PUSH1 0x0 MSTORE PUSH1 0x20 PUSH1 0x0 KECCAK256 ADD PUSH1 0x0 DUP2 SLOAD DUP2 LT PUSH2 0x28E3 JUMPI INVALID JUMPDEST SWAP1 PUSH1 0x0 MSTORE PUSH1 0x20 PUSH1 0x0 KECCAK256 ADD SLOAD MUL DUP2 PUSH2 0x28F6 JUMPI INVALID JUMPDEST DIV PUSH1 0x53 DUP4 DUP2 SLOAD DUP2 LT PUSH2 0x2904 JUMPI INVALID JUMPDEST SWAP1 PUSH1 0x0 MSTORE PUSH1 0x20 PUSH1 0x0 KECCAK256 ADD PUSH1 0x0 DUP2 SLOAD DUP2 LT PUSH2 0x291A JUMPI INVALID JUMPDEST SWAP1 PUSH1 0x0 MSTORE PUSH1 0x20 PUSH1 0x0 KECCAK256 ADD SLOAD ADD SWAP1 POP SWAP2 SWAP1 POP JUMP JUMPDEST PUSH1 0x1 PUSH1 0x1 PUSH1 0xA0 SHL SUB DUP2 AND PUSH1 0x0 SWAP1 DUP2 MSTORE PUSH1 0x54 PUSH1 0x20 MSTORE PUSH1 0x40 DUP2 KECCAK256 PUSH1 0x3 DUP2 ADD SLOAD DUP3 SWAP2 SWAP1 ISZERO PUSH2 0x299E JUMPI DUP1 SLOAD PUSH2 0x299E JUMPI PUSH1 0x3 DUP2 ADD SLOAD NUMBER SUB PUSH2 0x2580 DUP2 GT ISZERO PUSH2 0x296E JUMPI POP PUSH2 0x2580 JUMPDEST DUP1 PUSH1 0x56 SLOAD PUSH2 0x7080 MUL DUP4 PUSH1 0x2 ADD SLOAD PUSH1 0x9 SLOAD DUP5 PUSH2 0xBB80 MUL MUL MUL DUP2 PUSH2 0x298C JUMPI INVALID JUMPDEST DIV DUP4 PUSH1 0x5 ADD SLOAD ADD SWAP4 POP SWAP4 POP POP POP PUSH2 0x29A9 JUMP JUMPDEST PUSH1 0x5 ADD SLOAD PUSH1 0x0 SWAP3 POP SWAP1 POP JUMPDEST SWAP2 POP SWAP2 JUMP JUMPDEST PUSH1 0x1 PUSH1 0x1 PUSH1 0xA0 SHL SUB DUP4 AND PUSH2 0x29D4 JUMPI PUSH1 0x40 MLOAD PUSH3 0x461BCD PUSH1 0xE5 SHL DUP2 MSTORE PUSH1 0x4 ADD PUSH2 0xF71 SWAP1 PUSH2 0x5899 JUMP JUMPDEST PUSH1 0x1 PUSH1 0x1 PUSH1 0xA0 SHL SUB DUP3 AND PUSH2 0x29FA JUMPI PUSH1 0x40 MLOAD PUSH3 0x461BCD PUSH1 0xE5 SHL DUP2 MSTORE PUSH1 0x4 ADD PUSH2 0xF71 SWAP1 PUSH2 0x5BAF JUMP JUMPDEST PUSH2 0x2A37 DUP2 PUSH1 0x40 MLOAD DUP1 PUSH1 0x60 ADD PUSH1 0x40 MSTORE DUP1 PUSH1 0x26 DUP2 MSTORE PUSH1 0x20 ADD PUSH2 0x5E7C PUSH1 0x26 SWAP2 CODECOPY PUSH1 0x1 PUSH1 0x1 PUSH1 0xA0 SHL SUB DUP7 AND PUSH1 0x0 SWAP1 DUP2 MSTORE PUSH1 0x1 PUSH1 0x20 MSTORE PUSH1 0x40 SWAP1 KECCAK256 SLOAD SWAP2 SWAP1 PUSH2 0x2AB8 JUMP JUMPDEST PUSH1 0x1 PUSH1 0x1 PUSH1 0xA0 SHL SUB DUP1 DUP6 AND PUSH1 0x0 SWAP1 DUP2 MSTORE PUSH1 0x1 PUSH1 0x20 MSTORE PUSH1 0x40 DUP1 DUP3 KECCAK256 SWAP4 SWAP1 SWAP4 SSTORE SWAP1 DUP5 AND DUP2 MSTORE KECCAK256 SLOAD PUSH2 0x2A66 SWAP1 DUP3 PUSH2 0x2787 JUMP JUMPDEST PUSH1 0x1 PUSH1 0x1 PUSH1 0xA0 SHL SUB DUP1 DUP5 AND PUSH1 0x0 DUP2 DUP2 MSTORE PUSH1 0x1 PUSH1 0x20 MSTORE PUSH1 0x40 SWAP1 DUP2 SWAP1 KECCAK256 SWAP4 SWAP1 SWAP4 SSTORE SWAP2 MLOAD SWAP1 DUP6 AND SWAP1 PUSH32 0xDDF252AD1BE2C89B69C2B068FC378DAA952BA7F163C4A11628F55A4DF523B3EF SWAP1 PUSH2 0x285E SWAP1 DUP6 SWAP1 PUSH2 0x5DB6 JUMP JUMPDEST PUSH1 0x0 DUP2 DUP5 DUP5 GT ISZERO PUSH2 0x2ADC JUMPI PUSH1 0x40 MLOAD PUSH3 0x461BCD PUSH1 0xE5 SHL DUP2 MSTORE PUSH1 0x4 ADD PUSH2 0xF71 SWAP2 SWAP1 PUSH2 0x56FA JUMP JUMPDEST POP POP POP SWAP1 SUB SWAP1 JUMP JUMPDEST PUSH1 0x1 PUSH1 0x1 PUSH1 0xA0 SHL SUB DUP3 AND PUSH2 0x2B0A JUMPI PUSH1 0x40 MLOAD PUSH3 0x461BCD PUSH1 0xE5 SHL DUP2 MSTORE PUSH1 0x4 ADD PUSH2 0xF71 SWAP1 PUSH2 0x59B4 JUMP JUMPDEST PUSH1 0x4 SLOAD PUSH1 0x3 SLOAD PUSH2 0x2B1A SWAP1 DUP4 PUSH2 0x2787 JUMP JUMPDEST LT PUSH2 0x2B37 JUMPI PUSH1 0x40 MLOAD PUSH3 0x461BCD PUSH1 0xE5 SHL DUP2 MSTORE PUSH1 0x4 ADD PUSH2 0xF71 SWAP1 PUSH2 0x5AF9 JUMP JUMPDEST PUSH1 0x3 SLOAD PUSH2 0x2B44 SWAP1 DUP3 PUSH2 0x2787 JUMP JUMPDEST PUSH1 0x3 SSTORE PUSH1 0x1 PUSH1 0x1 PUSH1 0xA0 SHL SUB DUP3 AND PUSH1 0x0 SWAP1 DUP2 MSTORE PUSH1 0x1 PUSH1 0x20 MSTORE PUSH1 0x40 SWAP1 KECCAK256 SLOAD PUSH2 0x2B6A SWAP1 DUP3 PUSH2 0x2787 JUMP JUMPDEST PUSH1 0x1 PUSH1 0x1 PUSH1 0xA0 SHL SUB DUP4 AND PUSH1 0x0 DUP2 DUP2 MSTORE PUSH1 0x1 PUSH1 0x20 MSTORE PUSH1 0x40 DUP1 DUP3 KECCAK256 SWAP4 SWAP1 SWAP4 SSTORE SWAP2 MLOAD SWAP1 SWAP2 SWAP1 PUSH32 0xDDF252AD1BE2C89B69C2B068FC378DAA952BA7F163C4A11628F55A4DF523B3EF SWAP1 PUSH2 0x2BB9 SWAP1 DUP6 SWAP1 PUSH2 0x5DB6 JUMP JUMPDEST PUSH1 0x40 MLOAD DUP1 SWAP2 SUB SWAP1 LOG3 POP POP JUMP JUMPDEST PUSH1 0x0 DUP1 PUSH1 0x0 PUSH1 0x64 PUSH1 0x4C SLOAD PUSH1 0x5 MUL DUP2 PUSH2 0x2BD9 JUMPI INVALID JUMPDEST DIV SWAP1 POP PUSH1 0x0 JUMPDEST PUSH1 0x51 SLOAD DUP2 LT ISZERO PUSH2 0x2C90 JUMPI PUSH1 0x0 PUSH1 0x51 DUP3 DUP2 SLOAD DUP2 LT PUSH2 0x2BF8 JUMPI INVALID JUMPDEST SWAP1 PUSH1 0x0 MSTORE PUSH1 0x20 PUSH1 0x0 KECCAK256 SWAP1 PUSH1 0x4 MUL ADD SWAP1 POP PUSH3 0x15180 DUP2 PUSH1 0x0 ADD SLOAD TIMESTAMP SUB GT ISZERO PUSH2 0x2C87 JUMPI PUSH1 0x17 SLOAD PUSH1 0x3 DUP3 ADD SLOAD MUL DUP1 DUP5 LT PUSH2 0x2C7E JUMPI PUSH1 0x4C DUP1 SLOAD DUP3 SWAP1 SUB SWAP1 SSTORE PUSH1 0x3 DUP3 ADD SLOAD PUSH1 0x7 SLOAD PUSH1 0x1 DUP5 DUP2 ADD SLOAD SWAP9 ADD SWAP8 SWAP7 SWAP1 SWAP2 ADD SWAP6 SWAP5 DUP3 SWAP1 SUB SWAP5 PUSH2 0x2C69 SWAP2 PUSH1 0x1 PUSH1 0x1 PUSH1 0xA0 SHL SUB PUSH2 0x100 SWAP1 SWAP2 DIV DUP2 AND SWAP2 AND DUP4 PUSH2 0x2CFD JUMP JUMPDEST DUP6 PUSH1 0x2 EQ ISZERO PUSH2 0x2C79 JUMPI POP POP PUSH2 0x2C90 JUMP JUMPDEST PUSH2 0x2C85 JUMP JUMPDEST POP POP PUSH2 0x2C90 JUMP JUMPDEST POP JUMPDEST POP PUSH1 0x1 ADD PUSH2 0x2BDF JUMP JUMPDEST POP DUP2 ISZERO PUSH2 0x100F JUMPI PUSH1 0x4B SLOAD PUSH2 0x100F SWAP1 ADDRESS SWAP1 PUSH1 0x1 PUSH1 0x1 PUSH1 0xA0 SHL SUB AND DUP5 PUSH2 0x29AE JUMP JUMPDEST PUSH1 0x4A SLOAD PUSH1 0x0 SWAP1 JUMPDEST DUP1 ISZERO PUSH2 0x2CF4 JUMPI PUSH1 0x4A PUSH1 0x1 DUP3 SUB DUP2 SLOAD DUP2 LT PUSH2 0x2CCC JUMPI INVALID JUMPDEST SWAP1 PUSH1 0x0 MSTORE PUSH1 0x20 PUSH1 0x0 KECCAK256 SWAP1 PUSH1 0x4 MUL ADD PUSH1 0x1 ADD SLOAD DUP4 LT PUSH2 0x2CEB JUMPI SWAP1 POP PUSH2 0x953 JUMP JUMPDEST PUSH1 0x0 NOT ADD PUSH2 0x2CB6 JUMP JUMPDEST POP PUSH1 0x0 SWAP3 SWAP2 POP POP JUMP JUMPDEST PUSH1 0x0 PUSH1 0x60 DUP5 PUSH1 0x1 PUSH1 0x1 PUSH1 0xA0 SHL SUB AND PUSH4 0xA9059CBB DUP6 DUP6 PUSH1 0x40 MLOAD PUSH1 0x24 ADD PUSH2 0x2D23 SWAP3 SWAP2 SWAP1 PUSH2 0x5563 JUMP JUMPDEST PUSH1 0x40 MLOAD PUSH1 0x20 DUP2 DUP4 SUB SUB DUP2 MSTORE SWAP1 PUSH1 0x40 MSTORE SWAP1 PUSH1 0xE0 SHL PUSH1 0x20 DUP3 ADD DUP1 MLOAD PUSH1 0x1 PUSH1 0x1 PUSH1 0xE0 SHL SUB DUP4 DUP2 DUP4 AND OR DUP4 MSTORE POP POP POP POP PUSH1 0x40 MLOAD PUSH2 0x2D5C SWAP2 SWAP1 PUSH2 0x550F JUMP JUMPDEST PUSH1 0x0 PUSH1 0x40 MLOAD DUP1 DUP4 SUB DUP2 PUSH1 0x0 DUP7 GAS CALL SWAP2 POP POP RETURNDATASIZE DUP1 PUSH1 0x0 DUP2 EQ PUSH2 0x2D99 JUMPI PUSH1 0x40 MLOAD SWAP2 POP PUSH1 0x1F NOT PUSH1 0x3F RETURNDATASIZE ADD AND DUP3 ADD PUSH1 0x40 MSTORE RETURNDATASIZE DUP3 MSTORE RETURNDATASIZE PUSH1 0x0 PUSH1 0x20 DUP5 ADD RETURNDATACOPY PUSH2 0x2D9E JUMP JUMPDEST PUSH1 0x60 SWAP2 POP JUMPDEST POP SWAP2 POP SWAP2 POP DUP2 DUP1 ISZERO PUSH2 0x2DC8 JUMPI POP DUP1 MLOAD ISZERO DUP1 PUSH2 0x2DC8 JUMPI POP DUP1 DUP1 PUSH1 0x20 ADD SWAP1 MLOAD DUP2 ADD SWAP1 PUSH2 0x2DC8 SWAP2 SWAP1 PUSH2 0x544D JUMP JUMPDEST PUSH2 0x2DE4 JUMPI PUSH1 0x40 MLOAD PUSH3 0x461BCD PUSH1 0xE5 SHL DUP2 MSTORE PUSH1 0x4 ADD PUSH2 0xF71 SWAP1 PUSH2 0x5753 JUMP JUMPDEST POP POP POP POP POP JUMP JUMPDEST PUSH1 0x1 PUSH1 0x1 PUSH1 0xA0 SHL SUB DUP3 AND PUSH2 0x2E11 JUMPI PUSH1 0x40 MLOAD PUSH3 0x461BCD PUSH1 0xE5 SHL DUP2 MSTORE PUSH1 0x4 ADD PUSH2 0xF71 SWAP1 PUSH2 0x5A8E JUMP JUMPDEST PUSH2 0x2E4E DUP2 PUSH1 0x40 MLOAD DUP1 PUSH1 0x60 ADD PUSH1 0x40 MSTORE DUP1 PUSH1 0x22 DUP2 MSTORE PUSH1 0x20 ADD PUSH2 0x5EEF PUSH1 0x22 SWAP2 CODECOPY PUSH1 0x1 PUSH1 0x1 PUSH1 0xA0 SHL SUB DUP6 AND PUSH1 0x0 SWAP1 DUP2 MSTORE PUSH1 0x1 PUSH1 0x20 MSTORE PUSH1 0x40 SWAP1 KECCAK256 SLOAD SWAP2 SWAP1 PUSH2 0x2AB8 JUMP JUMPDEST PUSH1 0x1 PUSH1 0x1 PUSH1 0xA0 SHL SUB DUP4 AND PUSH1 0x0 SWAP1 DUP2 MSTORE PUSH1 0x1 PUSH1 0x20 MSTORE PUSH1 0x40 SWAP1 KECCAK256 SSTORE PUSH1 0x3 SLOAD PUSH2 0x2E74 SWAP1 DUP3 PUSH2 0x4CC0 JUMP JUMPDEST PUSH1 0x3 SSTORE PUSH1 0x40 MLOAD PUSH1 0x0 SWAP1 PUSH1 0x1 PUSH1 0x1 PUSH1 0xA0 SHL SUB DUP5 AND SWAP1 PUSH32 0xDDF252AD1BE2C89B69C2B068FC378DAA952BA7F163C4A11628F55A4DF523B3EF SWAP1 PUSH2 0x2BB9 SWAP1 DUP6 SWAP1 PUSH2 0x5DB6 JUMP JUMPDEST PUSH1 0x1 PUSH1 0x1 PUSH1 0xA0 SHL SUB DUP4 AND PUSH1 0x0 SWAP1 DUP2 MSTORE PUSH1 0x54 PUSH1 0x20 MSTORE PUSH1 0x40 DUP2 KECCAK256 PUSH1 0x53 DUP1 SLOAD SWAP2 SWAP3 SWAP2 DUP5 SWAP1 DUP2 LT PUSH2 0x2EDE JUMPI INVALID JUMPDEST SWAP1 PUSH1 0x0 MSTORE PUSH1 0x20 PUSH1 0x0 KECCAK256 ADD PUSH1 0x1 DUP2 SLOAD DUP2 LT PUSH2 0x2EF4 JUMPI INVALID JUMPDEST PUSH1 0x0 SWAP2 DUP3 MSTORE PUSH1 0x20 SWAP1 SWAP2 KECCAK256 ADD SLOAD PUSH1 0xA SLOAD SWAP1 SWAP2 POP PUSH1 0x1 PUSH1 0x1 PUSH1 0xA0 SHL SUB DUP7 DUP2 AND SWAP2 AND EQ PUSH2 0x30D1 JUMPI PUSH1 0x0 DUP1 PUSH2 0x2F24 DUP6 PUSH2 0x2888 JUMP JUMPDEST SWAP1 POP PUSH1 0x0 PUSH1 0x64 PUSH1 0x18 PUSH1 0x8 SWAP1 SLOAD SWAP1 PUSH2 0x100 EXP SWAP1 DIV PUSH2 0xFFFF AND PUSH2 0xFFFF AND GT ISZERO PUSH2 0x2F78 JUMPI PUSH1 0x53 DUP7 DUP2 SLOAD DUP2 LT PUSH2 0x2F52 JUMPI INVALID JUMPDEST SWAP1 PUSH1 0x0 MSTORE PUSH1 0x20 PUSH1 0x0 KECCAK256 ADD PUSH1 0x3 DUP2 SLOAD DUP2 LT PUSH2 0x2F68 JUMPI INVALID JUMPDEST SWAP1 PUSH1 0x0 MSTORE PUSH1 0x20 PUSH1 0x0 KECCAK256 ADD SLOAD PUSH2 0x2FA7 JUMP JUMPDEST PUSH1 0x53 DUP7 DUP2 SLOAD DUP2 LT PUSH2 0x2F85 JUMPI INVALID JUMPDEST SWAP1 PUSH1 0x0 MSTORE PUSH1 0x20 PUSH1 0x0 KECCAK256 ADD PUSH1 0x2 DUP2 SLOAD DUP2 LT PUSH2 0x2F9B JUMPI INVALID JUMPDEST SWAP1 PUSH1 0x0 MSTORE PUSH1 0x20 PUSH1 0x0 KECCAK256 ADD SLOAD JUMPDEST PUSH1 0x7 SLOAD PUSH2 0x3E8 DUP3 DUP6 MUL DIV SWAP5 POP SWAP1 SWAP2 POP PUSH2 0x2FD0 SWAP1 PUSH2 0x100 SWAP1 DIV PUSH1 0x1 PUSH1 0x1 PUSH1 0xA0 SHL SUB AND DUP10 ADDRESS DUP6 PUSH2 0x4D02 JUMP JUMPDEST PUSH1 0x1 PUSH1 0x1 PUSH1 0xA0 SHL SUB DUP8 AND ISZERO PUSH2 0x308C JUMPI PUSH1 0x7 SLOAD PUSH1 0x64 PUSH1 0x5A DUP6 MUL DIV SWAP1 PUSH2 0x3003 SWAP1 PUSH2 0x100 SWAP1 DIV PUSH1 0x1 PUSH1 0x1 PUSH1 0xA0 SHL SUB AND DUP10 DUP4 PUSH2 0x2CFD JUMP JUMPDEST PUSH1 0x2 DUP7 ADD SLOAD PUSH2 0x305B JUMPI PUSH1 0x1 PUSH1 0x1 PUSH1 0xA0 SHL SUB DUP1 DUP10 AND PUSH1 0x0 DUP2 DUP2 MSTORE PUSH1 0x55 PUSH1 0x20 SWAP1 DUP2 MSTORE PUSH1 0x40 DUP3 KECCAK256 DUP1 SLOAD PUSH1 0x1 DUP2 DUP2 ADD DUP4 SSTORE SWAP2 DUP5 MSTORE SWAP2 SWAP1 SWAP3 KECCAK256 ADD DUP1 SLOAD SWAP4 DUP14 AND PUSH1 0x1 PUSH1 0x1 PUSH1 0xA0 SHL SUB NOT SWAP5 DUP6 AND OR SWAP1 SSTORE DUP9 ADD DUP1 SLOAD SWAP1 SWAP3 AND OR SWAP1 SSTORE PUSH2 0x308A JUMP JUMPDEST PUSH1 0x1 DUP7 ADD SLOAD PUSH1 0x1 PUSH1 0x1 PUSH1 0xA0 SHL SUB DUP10 DUP2 AND SWAP2 AND EQ PUSH2 0x308A JUMPI PUSH1 0x40 MLOAD PUSH3 0x461BCD PUSH1 0xE5 SHL DUP2 MSTORE PUSH1 0x4 ADD PUSH2 0xF71 SWAP1 PUSH2 0x57E4 JUMP JUMPDEST POP JUMPDEST POP PUSH1 0x4C DUP1 SLOAD PUSH1 0x64 PUSH1 0xA SWAP5 SWAP1 SWAP5 MUL SWAP4 SWAP1 SWAP4 DIV SWAP1 SWAP3 ADD SWAP1 SWAP2 SSTORE PUSH1 0xB DUP1 SLOAD PUSH2 0x3E8 PUSH1 0x14 DUP5 MUL DUP2 SWAP1 DIV SWAP1 SWAP2 ADD SWAP1 SWAP2 SSTORE PUSH1 0xF DUP1 SLOAD SWAP3 DUP2 MUL SWAP2 SWAP1 SWAP2 DIV SWAP2 DUP3 ADD SWAP1 SSTORE PUSH1 0x13 DUP1 SLOAD SWAP1 SWAP2 ADD SWAP1 SSTORE JUMPDEST PUSH1 0x2 DUP3 ADD SLOAD PUSH2 0x30F3 JUMPI PUSH1 0x0 DUP3 SSTORE PUSH1 0x2 DUP3 ADD DUP2 SWAP1 SSTORE PUSH1 0x57 DUP1 SLOAD PUSH1 0x1 ADD SWAP1 SSTORE PUSH2 0x311B JUMP JUMPDEST PUSH1 0x3 DUP3 ADD SLOAD ISZERO PUSH2 0x3110 JUMPI PUSH1 0x0 PUSH2 0x3108 DUP7 PUSH2 0x292D JUMP JUMPDEST PUSH1 0x5 DUP6 ADD SSTORE POP POP JUMPDEST PUSH1 0x2 DUP3 ADD DUP1 SLOAD DUP3 ADD SWAP1 SSTORE JUMPDEST PUSH1 0x56 DUP1 SLOAD SWAP1 SWAP2 ADD SWAP1 SSTORE PUSH1 0x0 PUSH1 0x3 DUP3 ADD SSTORE TIMESTAMP PUSH1 0x6 SWAP1 SWAP2 ADD SSTORE POP POP POP JUMP JUMPDEST PUSH1 0x1 PUSH1 0x1 PUSH1 0xA0 SHL SUB DUP2 AND PUSH1 0x0 SWAP1 DUP2 MSTORE PUSH1 0x54 PUSH1 0x20 MSTORE PUSH1 0x40 SWAP1 KECCAK256 PUSH1 0x2 DUP2 ADD SLOAD PUSH2 0x3170 JUMPI PUSH1 0x40 MLOAD PUSH3 0x461BCD PUSH1 0xE5 SHL DUP2 MSTORE PUSH1 0x4 ADD PUSH2 0xF71 SWAP1 PUSH2 0x5C9D JUMP JUMPDEST PUSH1 0x3 DUP2 ADD SLOAD ISZERO PUSH2 0x3192 JUMPI PUSH1 0x40 MLOAD PUSH3 0x461BCD PUSH1 0xE5 SHL DUP2 MSTORE PUSH1 0x4 ADD PUSH2 0xF71 SWAP1 PUSH2 0x5A63 JUMP JUMPDEST PUSH1 0x0 DUP1 PUSH1 0x64 JUMPDEST PUSH1 0xA DUP4 LT ISZERO PUSH2 0x3307 JUMPI PUSH1 0x0 PUSH1 0x1 PUSH1 0x1 PUSH1 0xA0 SHL SUB AND PUSH1 0x5A DUP5 DUP2 SLOAD DUP2 LT PUSH2 0x31B9 JUMPI INVALID JUMPDEST PUSH1 0x0 SWAP2 DUP3 MSTORE PUSH1 0x20 SWAP1 SWAP2 KECCAK256 ADD SLOAD PUSH1 0x1 PUSH1 0x1 PUSH1 0xA0 SHL SUB AND EQ ISZERO PUSH2 0x31D9 JUMPI PUSH2 0x3307 JUMP JUMPDEST PUSH1 0x54 PUSH1 0x0 PUSH1 0x5A DUP6 DUP2 SLOAD DUP2 LT PUSH2 0x31EA JUMPI INVALID JUMPDEST PUSH1 0x0 SWAP2 DUP3 MSTORE PUSH1 0x20 DUP1 DUP4 KECCAK256 SWAP1 SWAP2 ADD SLOAD PUSH1 0x1 PUSH1 0x1 PUSH1 0xA0 SHL SUB AND DUP4 MSTORE DUP3 ADD SWAP3 SWAP1 SWAP3 MSTORE PUSH1 0x40 ADD SWAP1 KECCAK256 PUSH1 0x3 ADD SLOAD ISZERO DUP1 ISZERO SWAP1 PUSH2 0x325C JUMPI POP PUSH2 0x2580 PUSH1 0x54 PUSH1 0x0 PUSH1 0x5A DUP7 DUP2 SLOAD DUP2 LT PUSH2 0x322F JUMPI INVALID JUMPDEST PUSH1 0x0 SWAP2 DUP3 MSTORE PUSH1 0x20 DUP1 DUP4 KECCAK256 SWAP1 SWAP2 ADD SLOAD PUSH1 0x1 PUSH1 0x1 PUSH1 0xA0 SHL SUB AND DUP4 MSTORE DUP3 ADD SWAP3 SWAP1 SWAP3 MSTORE PUSH1 0x40 ADD SWAP1 KECCAK256 PUSH1 0x3 ADD SLOAD NUMBER SUB GT ISZERO JUMPDEST ISZERO PUSH2 0x32FC JUMPI DUP5 PUSH1 0x1 PUSH1 0x1 PUSH1 0xA0 SHL SUB AND PUSH1 0x5A DUP5 DUP2 SLOAD DUP2 LT PUSH2 0x3278 JUMPI INVALID JUMPDEST PUSH1 0x0 SWAP2 DUP3 MSTORE PUSH1 0x20 SWAP1 SWAP2 KECCAK256 ADD SLOAD PUSH1 0x1 PUSH1 0x1 PUSH1 0xA0 SHL SUB AND EQ ISZERO PUSH2 0x3296 JUMPI POP DUP1 JUMPDEST PUSH1 0x5A DUP4 DUP2 SLOAD DUP2 LT PUSH2 0x32A3 JUMPI INVALID JUMPDEST PUSH1 0x0 SWAP2 DUP3 MSTORE PUSH1 0x20 SWAP1 SWAP2 KECCAK256 ADD SLOAD PUSH1 0x5A DUP1 SLOAD PUSH1 0x1 DUP6 ADD SWAP5 PUSH1 0x1 PUSH1 0x1 PUSH1 0xA0 SHL SUB SWAP1 SWAP4 AND SWAP3 SWAP1 DUP2 LT PUSH2 0x32CD JUMPI INVALID JUMPDEST SWAP1 PUSH1 0x0 MSTORE PUSH1 0x20 PUSH1 0x0 KECCAK256 ADD PUSH1 0x0 PUSH2 0x100 EXP DUP2 SLOAD DUP2 PUSH1 0x1 PUSH1 0x1 PUSH1 0xA0 SHL SUB MUL NOT AND SWAP1 DUP4 PUSH1 0x1 PUSH1 0x1 PUSH1 0xA0 SHL SUB AND MUL OR SWAP1 SSTORE POP JUMPDEST PUSH1 0x1 SWAP1 SWAP3 ADD SWAP2 PUSH2 0x3198 JUMP JUMPDEST DUP2 SWAP3 POP JUMPDEST PUSH1 0xA DUP4 LT ISZERO PUSH2 0x3358 JUMPI PUSH1 0x0 PUSH1 0x5A DUP5 DUP2 SLOAD DUP2 LT PUSH2 0x3323 JUMPI INVALID JUMPDEST PUSH1 0x0 SWAP2 DUP3 MSTORE PUSH1 0x20 SWAP1 SWAP2 KECCAK256 ADD DUP1 SLOAD PUSH1 0x1 PUSH1 0x1 PUSH1 0xA0 SHL SUB NOT AND PUSH1 0x1 PUSH1 0x1 PUSH1 0xA0 SHL SUB SWAP3 SWAP1 SWAP3 AND SWAP2 SWAP1 SWAP2 OR SWAP1 SSTORE PUSH1 0x1 SWAP3 SWAP1 SWAP3 ADD SWAP2 PUSH2 0x330B JUMP JUMPDEST DUP1 PUSH1 0x64 EQ ISZERO PUSH2 0x34E1 JUMPI PUSH1 0x0 SWAP3 POP JUMPDEST DUP2 DUP4 LT ISZERO PUSH2 0x33C5 JUMPI PUSH1 0x54 PUSH1 0x0 PUSH1 0x5A DUP6 DUP2 SLOAD DUP2 LT PUSH2 0x337F JUMPI INVALID JUMPDEST PUSH1 0x0 SWAP2 DUP3 MSTORE PUSH1 0x20 DUP1 DUP4 KECCAK256 SWAP1 SWAP2 ADD SLOAD PUSH1 0x1 PUSH1 0x1 PUSH1 0xA0 SHL SUB AND DUP4 MSTORE DUP3 ADD SWAP3 SWAP1 SWAP3 MSTORE PUSH1 0x40 ADD SWAP1 KECCAK256 PUSH1 0x2 SWAP1 DUP2 ADD SLOAD SWAP1 DUP6 ADD SLOAD GT ISZERO PUSH2 0x33BA JUMPI POP DUP2 PUSH2 0x33C5 JUMP JUMPDEST PUSH1 0x1 SWAP1 SWAP3 ADD SWAP2 PUSH2 0x3366 JUMP JUMPDEST DUP1 PUSH1 0x64 EQ ISZERO PUSH2 0x3419 JUMPI PUSH1 0xA DUP3 LT ISZERO PUSH2 0x3414 JUMPI DUP5 PUSH1 0x5A DUP4 DUP2 SLOAD DUP2 LT PUSH2 0x33E5 JUMPI INVALID JUMPDEST SWAP1 PUSH1 0x0 MSTORE PUSH1 0x20 PUSH1 0x0 KECCAK256 ADD PUSH1 0x0 PUSH2 0x100 EXP DUP2 SLOAD DUP2 PUSH1 0x1 PUSH1 0x1 PUSH1 0xA0 SHL SUB MUL NOT AND SWAP1 DUP4 PUSH1 0x1 PUSH1 0x1 PUSH1 0xA0 SHL SUB AND MUL OR SWAP1 SSTORE POP JUMPDEST PUSH2 0x34E1 JUMP JUMPDEST PUSH1 0xA DUP3 LT ISZERO PUSH2 0x3429 JUMPI PUSH1 0x1 SWAP1 SWAP2 ADD SWAP1 JUMPDEST PUSH1 0x1 DUP3 SUB SWAP3 POP JUMPDEST DUP1 DUP4 GT ISZERO PUSH2 0x34A4 JUMPI PUSH1 0x5A PUSH1 0x1 DUP5 SUB DUP2 SLOAD DUP2 LT PUSH2 0x3448 JUMPI INVALID JUMPDEST PUSH1 0x0 SWAP2 DUP3 MSTORE PUSH1 0x20 SWAP1 SWAP2 KECCAK256 ADD SLOAD PUSH1 0x5A DUP1 SLOAD PUSH1 0x1 PUSH1 0x1 PUSH1 0xA0 SHL SUB SWAP1 SWAP3 AND SWAP2 DUP6 SWAP1 DUP2 LT PUSH2 0x346E JUMPI INVALID JUMPDEST PUSH1 0x0 SWAP2 DUP3 MSTORE PUSH1 0x20 SWAP1 SWAP2 KECCAK256 ADD DUP1 SLOAD PUSH1 0x1 PUSH1 0x1 PUSH1 0xA0 SHL SUB NOT AND PUSH1 0x1 PUSH1 0x1 PUSH1 0xA0 SHL SUB SWAP3 SWAP1 SWAP3 AND SWAP2 SWAP1 SWAP2 OR SWAP1 SSTORE PUSH1 0x0 NOT SWAP3 SWAP1 SWAP3 ADD SWAP2 PUSH2 0x3430 JUMP JUMPDEST DUP5 PUSH1 0x5A DUP3 DUP2 SLOAD DUP2 LT PUSH2 0x34B2 JUMPI INVALID JUMPDEST SWAP1 PUSH1 0x0 MSTORE PUSH1 0x20 PUSH1 0x0 KECCAK256 ADD PUSH1 0x0 PUSH2 0x100 EXP DUP2 SLOAD DUP2 PUSH1 0x1 PUSH1 0x1 PUSH1 0xA0 SHL SUB MUL NOT AND SWAP1 DUP4 PUSH1 0x1 PUSH1 0x1 PUSH1 0xA0 SHL SUB AND MUL OR SWAP1 SSTORE POP JUMPDEST PUSH1 0x0 PUSH2 0x34EC DUP7 PUSH2 0x292D JUMP JUMPDEST PUSH1 0x5 DUP8 ADD SSTORE POP POP NUMBER PUSH1 0x3 SWAP1 SWAP5 ADD SWAP4 SWAP1 SWAP4 SSTORE POP POP POP POP JUMP JUMPDEST PUSH1 0x18 SLOAD PUSH4 0xFFFFFFFF PUSH1 0x1 PUSH1 0x20 SHL DUP3 DIV DUP2 AND SWAP2 AND DUP2 LT PUSH2 0x3534 JUMPI PUSH1 0x40 MLOAD PUSH3 0x461BCD PUSH1 0xE5 SHL DUP2 MSTORE PUSH1 0x4 ADD PUSH2 0xF71 SWAP1 PUSH2 0x5BF2 JUMP JUMPDEST PUSH4 0xFFFFFFFF DUP2 AND PUSH2 0x3571 JUMPI PUSH1 0xA SLOAD PUSH1 0x1 PUSH1 0x1 PUSH1 0xA0 SHL SUB DUP6 DUP2 AND SWAP2 AND EQ PUSH2 0x356C JUMPI PUSH1 0x40 MLOAD PUSH3 0x461BCD PUSH1 0xE5 SHL DUP2 MSTORE PUSH1 0x4 ADD PUSH2 0xF71 SWAP1 PUSH2 0x572D JUMP JUMPDEST PUSH2 0x3644 JUMP JUMPDEST PUSH1 0xA DUP2 PUSH4 0xFFFFFFFF AND LT ISZERO PUSH2 0x35AD JUMPI PUSH1 0x47 SLOAD PUSH1 0x1 PUSH1 0x1 PUSH1 0xA0 SHL SUB DUP6 DUP2 AND SWAP2 AND EQ PUSH2 0x356C JUMPI PUSH1 0x40 MLOAD PUSH3 0x461BCD PUSH1 0xE5 SHL DUP2 MSTORE PUSH1 0x4 ADD PUSH2 0xF71 SWAP1 PUSH2 0x5A3D JUMP JUMPDEST PUSH1 0x1 PUSH1 0x1 PUSH1 0xA0 SHL SUB DUP6 AND PUSH1 0x0 SWAP1 DUP2 MSTORE PUSH1 0x49 PUSH1 0x20 MSTORE PUSH1 0x40 SWAP1 KECCAK256 PUSH1 0x5 ADD SLOAD PUSH2 0x3605 JUMPI PUSH1 0x1 PUSH1 0x1 PUSH1 0xA0 SHL SUB DUP5 AND PUSH1 0x0 SWAP1 DUP2 MSTORE PUSH1 0x49 PUSH1 0x20 MSTORE PUSH1 0x40 SWAP1 KECCAK256 PUSH1 0x5 ADD SLOAD PUSH2 0x356C JUMPI PUSH1 0x40 MLOAD PUSH3 0x461BCD PUSH1 0xE5 SHL DUP2 MSTORE PUSH1 0x4 ADD PUSH2 0xF71 SWAP1 PUSH2 0x595F JUMP JUMPDEST PUSH1 0x1 PUSH1 0x1 PUSH1 0xA0 SHL SUB DUP6 DUP2 AND PUSH1 0x0 SWAP1 DUP2 MSTORE PUSH1 0x49 PUSH1 0x20 MSTORE PUSH1 0x40 SWAP1 KECCAK256 PUSH1 0xC ADD SLOAD DUP2 AND SWAP1 DUP6 AND EQ PUSH2 0x3644 JUMPI PUSH1 0x40 MLOAD PUSH3 0x461BCD PUSH1 0xE5 SHL DUP2 MSTORE PUSH1 0x4 ADD PUSH2 0xF71 SWAP1 PUSH2 0x595F JUMP JUMPDEST PUSH1 0x1 PUSH1 0x1 PUSH1 0xA0 SHL SUB DUP6 AND PUSH1 0x0 SWAP1 DUP2 MSTORE PUSH1 0x49 PUSH1 0x20 MSTORE PUSH1 0x40 SWAP1 KECCAK256 PUSH1 0x5 ADD SLOAD DUP1 ISZERO PUSH2 0x369C JUMPI PUSH2 0x2710 DUP5 LT ISZERO PUSH2 0x3697 JUMPI PUSH1 0x8 SLOAD PUSH1 0x64 MUL DUP2 DUP6 SUB LT ISZERO PUSH2 0x3697 JUMPI PUSH1 0x40 MLOAD PUSH3 0x461BCD PUSH1 0xE5 SHL DUP2 MSTORE PUSH1 0x4 ADD PUSH2 0xF71 SWAP1 PUSH2 0x598A JUMP JUMPDEST PUSH2 0x36C1 JUMP JUMPDEST PUSH1 0x8 SLOAD PUSH1 0xC8 MUL DUP5 LT ISZERO PUSH2 0x36C1 JUMPI PUSH1 0x40 MLOAD PUSH3 0x461BCD PUSH1 0xE5 SHL DUP2 MSTORE PUSH1 0x4 ADD PUSH2 0xF71 SWAP1 PUSH2 0x5CC6 JUMP JUMPDEST PUSH1 0x0 PUSH2 0x36CC DUP6 PUSH2 0x1C32 JUMP JUMPDEST SWAP1 POP DUP1 PUSH2 0x36D8 DUP9 PUSH2 0x1A68 JUMP JUMPDEST LT ISZERO PUSH2 0x36F6 JUMPI PUSH1 0x40 MLOAD PUSH3 0x461BCD PUSH1 0xE5 SHL DUP2 MSTORE PUSH1 0x4 ADD PUSH2 0xF71 SWAP1 PUSH2 0x5A15 JUMP JUMPDEST PUSH1 0x7 SLOAD PUSH2 0x3713 SWAP1 PUSH2 0x100 SWAP1 DIV PUSH1 0x1 PUSH1 0x1 PUSH1 0xA0 SHL SUB AND DUP9 ADDRESS DUP9 PUSH2 0x4D02 JUMP JUMPDEST PUSH2 0x371D DUP8 DUP3 PUSH2 0x2DEB JUMP JUMPDEST PUSH1 0x19 DUP1 SLOAD DUP3 ADD SWAP1 SSTORE PUSH1 0x1 PUSH1 0x1 PUSH1 0xA0 SHL SUB DUP8 AND PUSH1 0x0 SWAP1 DUP2 MSTORE PUSH1 0x49 PUSH1 0x20 MSTORE PUSH1 0x40 SWAP1 KECCAK256 PUSH1 0x6 DUP2 ADD SLOAD PUSH2 0x3B0D JUMPI PUSH1 0x0 PUSH2 0x3750 PUSH2 0x4DEB JUMP JUMPDEST PUSH1 0x18 SLOAD SWAP1 SWAP2 POP PUSH1 0x1 PUSH1 0x20 SHL SWAP1 DIV PUSH4 0xFFFFFFFF AND PUSH1 0x1 EQ ISZERO PUSH2 0x37B1 JUMPI PUSH1 0x1 DUP3 ADD DUP1 SLOAD PUSH1 0xFF PUSH1 0x30 SHL NOT AND SWAP1 SSTORE PUSH1 0x47 DUP1 SLOAD PUSH1 0x1 PUSH1 0x1 PUSH1 0xA0 SHL SUB DUP12 DUP2 AND PUSH1 0x1 PUSH1 0x1 PUSH1 0xA0 SHL SUB NOT SWAP3 DUP4 AND OR SWAP1 SWAP3 SSTORE PUSH1 0xD DUP5 ADD DUP1 SLOAD SWAP3 DUP12 AND SWAP3 SWAP1 SWAP2 AND SWAP2 SWAP1 SWAP2 OR SWAP1 SSTORE PUSH2 0x3A07 JUMP JUMPDEST PUSH1 0x18 SLOAD PUSH1 0x5 PUSH1 0x1 PUSH1 0x40 SHL SWAP1 SWAP2 DIV PUSH2 0xFFFF AND LT ISZERO PUSH2 0x384C JUMPI PUSH1 0xD DUP3 ADD DUP1 SLOAD PUSH1 0x1 PUSH1 0x1 PUSH1 0xA0 SHL SUB NOT AND PUSH1 0x1 PUSH1 0x1 PUSH1 0xA0 SHL SUB DUP11 AND OR SWAP1 SSTORE PUSH1 0x1 DUP1 DUP4 ADD DUP1 SLOAD PUSH1 0xFF PUSH1 0x30 SHL NOT AND PUSH7 0x1000000000000 DUP4 MUL OR SWAP1 SSTORE POP PUSH1 0xD DUP3 ADD SLOAD PUSH1 0x1 PUSH1 0x1 PUSH1 0xA0 SHL SUB SWAP1 DUP2 AND PUSH1 0x0 SWAP1 DUP2 MSTORE PUSH1 0x49 PUSH1 0x20 SWAP1 DUP2 MSTORE PUSH1 0x40 DUP3 KECCAK256 PUSH1 0xE ADD DUP1 SLOAD PUSH1 0x1 DUP2 ADD DUP3 SSTORE SWAP1 DUP4 MSTORE SWAP2 KECCAK256 ADD DUP1 SLOAD PUSH1 0x1 PUSH1 0x1 PUSH1 0xA0 SHL SUB NOT AND SWAP2 DUP12 AND SWAP2 SWAP1 SWAP2 OR SWAP1 SSTORE PUSH2 0x3A07 JUMP JUMPDEST PUSH1 0x1 PUSH1 0x1 PUSH1 0xA0 SHL SUB DUP9 AND PUSH1 0x0 SWAP1 DUP2 MSTORE PUSH1 0x49 PUSH1 0x20 MSTORE PUSH1 0x40 SWAP1 KECCAK256 PUSH1 0x1 DUP4 DUP2 ADD DUP1 SLOAD PUSH1 0xFF PUSH1 0x30 SHL NOT AND PUSH7 0x2000000000000 OR SWAP1 SSTORE DUP1 DUP3 ADD SLOAD PUSH7 0x1000000000000 SWAP1 DIV PUSH1 0xFF AND PUSH1 0x2 DUP2 GT ISZERO PUSH2 0x3899 JUMPI INVALID JUMPDEST EQ PUSH2 0x38B1 JUMPI PUSH1 0xF DUP2 ADD SLOAD PUSH1 0x1 PUSH1 0x1 PUSH1 0xA0 SHL SUB AND PUSH2 0x38B3 JUMP JUMPDEST DUP9 JUMPDEST PUSH1 0xF DUP5 ADD DUP1 SLOAD PUSH1 0x1 PUSH1 0x1 PUSH1 0xA0 SHL SUB NOT AND PUSH1 0x1 PUSH1 0x1 PUSH1 0xA0 SHL SUB SWAP3 SWAP1 SWAP3 AND SWAP2 SWAP1 SWAP2 OR SWAP1 SSTORE PUSH1 0xD DUP2 ADD SLOAD PUSH1 0x3 PUSH1 0x1 PUSH1 0xA0 SHL SWAP1 SWAP2 DIV PUSH2 0xFFFF SWAP1 DUP2 AND DUP3 DUP2 DIV SWAP3 SWAP1 MOD SWAP1 DUP2 AND PUSH2 0x3919 JUMPI PUSH1 0xD DUP6 ADD DUP1 SLOAD PUSH1 0x1 PUSH1 0x1 PUSH1 0xA0 SHL SUB NOT AND PUSH1 0x1 PUSH1 0x1 PUSH1 0xA0 SHL SUB DUP14 AND OR SWAP1 SSTORE PUSH2 0x396C JUMP JUMPDEST PUSH2 0x3949 DUP4 PUSH1 0xE ADD DUP4 PUSH2 0xFFFF AND DUP2 SLOAD DUP2 LT PUSH2 0x392F JUMPI INVALID JUMPDEST PUSH1 0x0 SWAP2 DUP3 MSTORE PUSH1 0x20 SWAP1 SWAP2 KECCAK256 ADD SLOAD PUSH1 0x1 PUSH1 0x1 PUSH1 0xA0 SHL SUB AND PUSH2 0x4F25 JUMP JUMPDEST PUSH1 0xD DUP7 ADD DUP1 SLOAD PUSH1 0x1 PUSH1 0x1 PUSH1 0xA0 SHL SUB NOT AND PUSH1 0x1 PUSH1 0x1 PUSH1 0xA0 SHL SUB SWAP3 SWAP1 SWAP3 AND SWAP2 SWAP1 SWAP2 OR SWAP1 SSTORE JUMPDEST PUSH1 0xD DUP1 DUP5 ADD DUP1 SLOAD PUSH1 0x1 PUSH2 0xFFFF PUSH1 0x1 PUSH1 0xA0 SHL DUP1 DUP5 DIV DUP3 AND SWAP3 SWAP1 SWAP3 ADD AND MUL PUSH2 0xFFFF PUSH1 0xA0 SHL NOT SWAP1 SWAP2 AND OR SWAP1 SSTORE DUP6 ADD SLOAD PUSH1 0x1 PUSH1 0x1 PUSH1 0xA0 SHL SUB AND PUSH2 0x39BD JUMPI PUSH1 0x40 MLOAD PUSH3 0x461BCD PUSH1 0xE5 SHL DUP2 MSTORE PUSH1 0x4 ADD PUSH2 0xF71 SWAP1 PUSH2 0x5ACF JUMP JUMPDEST POP POP POP PUSH1 0xD DUP3 ADD SLOAD PUSH1 0x1 PUSH1 0x1 PUSH1 0xA0 SHL SUB SWAP1 DUP2 AND PUSH1 0x0 SWAP1 DUP2 MSTORE PUSH1 0x49 PUSH1 0x20 SWAP1 DUP2 MSTORE PUSH1 0x40 DUP3 KECCAK256 PUSH1 0xE ADD DUP1 SLOAD PUSH1 0x1 DUP2 ADD DUP3 SSTORE SWAP1 DUP4 MSTORE SWAP2 KECCAK256 ADD DUP1 SLOAD PUSH1 0x1 PUSH1 0x1 PUSH1 0xA0 SHL SUB NOT AND SWAP2 DUP12 AND SWAP2 SWAP1 SWAP2 OR SWAP1 SSTORE JUMPDEST PUSH4 0x6034E8B DUP6 ADD PUSH4 0xFFFFFFFF SWAP1 DUP2 AND DUP4 SSTORE PUSH1 0xC DUP4 ADD DUP1 SLOAD PUSH1 0x1 PUSH1 0x1 PUSH1 0xA0 SHL SUB NOT AND PUSH1 0x1 PUSH1 0x1 PUSH1 0xA0 SHL SUB DUP12 AND OR SWAP1 SSTORE PUSH1 0x1 DUP4 ADD DUP1 SLOAD PUSH4 0xFFFFFFFF NOT AND SWAP2 DUP4 AND SWAP2 DUP3 OR DUP1 DUP3 SSTORE PUSH1 0x18 SLOAD PUSH6 0xFFFF00000000 NOT SWAP1 SWAP2 AND PUSH1 0x1 PUSH1 0x40 SHL SWAP1 SWAP2 DIV PUSH2 0xFFFF AND PUSH1 0x1 PUSH1 0x20 SHL MUL OR SWAP1 SSTORE PUSH1 0xA DUP4 ADD DUP9 SWAP1 SSTORE PUSH1 0xD DUP4 ADD DUP1 SLOAD PUSH2 0xFFFF PUSH1 0xA0 SHL NOT AND SWAP1 SSTORE PUSH3 0x7AAE7 LT ISZERO PUSH2 0x3ABE JUMPI PUSH4 0xFFFFFFFF DUP2 AND PUSH1 0x0 SWAP1 DUP2 MSTORE PUSH1 0x48 PUSH1 0x20 MSTORE PUSH1 0x40 SWAP1 KECCAK256 DUP1 SLOAD PUSH1 0x1 PUSH1 0x1 PUSH1 0xA0 SHL SUB NOT AND PUSH1 0x1 PUSH1 0x1 PUSH1 0xA0 SHL SUB DUP12 AND OR SWAP1 SSTORE JUMPDEST PUSH1 0x18 SLOAD PUSH1 0x40 MLOAD PUSH32 0x6932AC5F42401E77C40344F612FA5558D62470F6A92606E938A4743C566E6CE8 SWAP2 PUSH2 0x3AFF SWAP2 DUP13 SWAP2 PUSH1 0x1 PUSH1 0x20 SHL SWAP1 DIV PUSH4 0xFFFFFFFF AND SWAP1 PUSH2 0x557C JUMP JUMPDEST PUSH1 0x40 MLOAD DUP1 SWAP2 SUB SWAP1 LOG1 POP PUSH2 0x3B8D JUMP JUMPDEST PUSH1 0x4 DUP2 ADD SLOAD PUSH1 0xFF AND DUP1 PUSH2 0x3B25 JUMPI POP DUP1 PUSH1 0x6 ADD SLOAD PUSH1 0x1E SLOAD GT JUMPDEST ISZERO PUSH2 0x3B3D JUMPI PUSH1 0x0 PUSH1 0x7 DUP3 ADD DUP2 SWAP1 SSTORE PUSH1 0x8 DUP3 ADD SSTORE PUSH2 0x3B82 JUMP JUMPDEST PUSH1 0x0 DUP1 PUSH2 0x3B49 DUP11 PUSH2 0x1EBA JUMP JUMPDEST POP POP POP SWAP2 POP SWAP2 POP DUP2 ISZERO PUSH2 0x3B69 JUMPI PUSH1 0x0 PUSH1 0x7 DUP5 ADD DUP2 SWAP1 SSTORE PUSH1 0x8 DUP5 ADD SSTORE PUSH2 0x3B7F JUMP JUMPDEST PUSH1 0x7 DUP4 ADD DUP2 SWAP1 SSTORE DUP1 ISZERO PUSH2 0x3B7F JUMPI PUSH2 0x3B7F DUP4 PUSH2 0x4F66 JUMP JUMPDEST POP POP JUMPDEST PUSH1 0xA DUP2 ADD DUP1 SLOAD DUP8 ADD SWAP1 SSTORE JUMPDEST PUSH1 0xF DUP2 ADD SLOAD PUSH1 0x1 PUSH1 0x1 PUSH1 0xA0 SHL SUB AND ISZERO PUSH2 0x3BCD JUMPI PUSH1 0xF DUP2 ADD SLOAD PUSH1 0x1 PUSH1 0x1 PUSH1 0xA0 SHL SUB AND PUSH1 0x0 SWAP1 DUP2 MSTORE PUSH1 0x49 PUSH1 0x20 MSTORE PUSH1 0x40 SWAP1 KECCAK256 PUSH1 0xB ADD DUP1 SLOAD PUSH2 0x3E8 PUSH1 0x28 DUP10 MUL DIV ADD SWAP1 SSTORE JUMPDEST PUSH1 0x5 DUP2 ADD DUP7 SWAP1 SSTORE PUSH1 0x6 DUP2 ADD DUP6 SWAP1 SSTORE PUSH1 0x2 DUP2 ADD DUP1 SLOAD DUP8 ADD SWAP1 SSTORE PUSH1 0xA DUP2 ADD SLOAD PUSH1 0x0 SWAP1 PUSH2 0x3BF6 SWAP1 PUSH2 0x2CAF JUMP JUMPDEST SWAP1 POP PUSH2 0x3E8 PUSH1 0x4A PUSH1 0x1 DUP4 SUB PUSH1 0xFF AND DUP2 SLOAD DUP2 LT PUSH2 0x3C0E JUMPI INVALID JUMPDEST SWAP1 PUSH1 0x0 MSTORE PUSH1 0x20 PUSH1 0x0 KECCAK256 SWAP1 PUSH1 0x4 MUL ADD PUSH1 0x3 ADD SLOAD DUP4 PUSH1 0xA ADD SLOAD MUL DUP2 PUSH2 0x3C2D JUMPI INVALID JUMPDEST DIV PUSH1 0x9 DUP4 ADD SSTORE PUSH1 0x1 DUP3 ADD DUP1 SLOAD PUSH1 0xFF DUP1 DUP5 AND PUSH1 0x1 PUSH1 0x38 SHL MUL PUSH1 0xFF PUSH1 0x38 SHL NOT SWAP1 SWAP3 AND SWAP2 SWAP1 SWAP2 OR SWAP1 SWAP2 SSTORE PUSH1 0x4 DUP4 ADD SLOAD AND ISZERO PUSH2 0x3C6C JUMPI PUSH1 0x4 DUP3 ADD DUP1 SLOAD PUSH1 0xFF NOT AND SWAP1 SSTORE JUMPDEST PUSH1 0x4C DUP1 SLOAD PUSH2 0x3E8 PUSH1 0x32 DUP11 MUL DUP2 SWAP1 DIV SWAP1 SWAP2 ADD SWAP1 SWAP2 SSTORE PUSH1 0xB DUP1 SLOAD PUSH1 0x14 DUP11 MUL DUP4 SWAP1 DIV ADD SWAP1 SSTORE PUSH1 0xF DUP1 SLOAD DUP2 DUP11 MUL SWAP3 SWAP1 SWAP3 DIV SWAP2 DUP3 ADD SWAP1 SSTORE PUSH1 0x13 DUP1 SLOAD SWAP1 SWAP2 ADD SWAP1 SSTORE PUSH1 0x1C DUP1 SLOAD DUP9 ADD SWAP1 SSTORE PUSH1 0x20 DUP1 SLOAD DUP9 ADD SWAP1 SSTORE PUSH1 0x1D DUP7 SWAP1 SSTORE PUSH1 0x45 SLOAD PUSH1 0x24 EQ ISZERO PUSH2 0x3D2E JUMPI PUSH1 0x1 JUMPDEST PUSH1 0x45 SLOAD DUP2 LT ISZERO PUSH2 0x3D27 JUMPI PUSH1 0x21 PUSH1 0x1 DUP3 SUB PUSH1 0x24 DUP2 LT PUSH2 0x3CE4 JUMPI INVALID JUMPDEST ADD SLOAD PUSH1 0x1 PUSH1 0x1 PUSH1 0xA0 SHL SUB AND PUSH1 0x21 PUSH1 0x0 NOT DUP4 ADD PUSH1 0x24 DUP2 LT PUSH2 0x3D00 JUMPI INVALID JUMPDEST ADD DUP1 SLOAD PUSH1 0x1 PUSH1 0x1 PUSH1 0xA0 SHL SUB NOT AND PUSH1 0x1 PUSH1 0x1 PUSH1 0xA0 SHL SUB SWAP3 SWAP1 SWAP3 AND SWAP2 SWAP1 SWAP2 OR SWAP1 SSTORE PUSH1 0x1 ADD PUSH2 0x3CCA JUMP JUMPDEST POP PUSH1 0x23 PUSH1 0x45 SSTORE JUMPDEST DUP9 PUSH1 0x21 PUSH1 0x45 SLOAD PUSH1 0x24 DUP2 LT PUSH2 0x3D3E JUMPI INVALID JUMPDEST ADD DUP1 SLOAD PUSH1 0x1 PUSH1 0x1 PUSH1 0xA0 SHL SUB NOT AND PUSH1 0x1 PUSH1 0x1 PUSH1 0xA0 SHL SUB SWAP3 SWAP1 SWAP3 AND SWAP2 SWAP1 SWAP2 OR SWAP1 SSTORE PUSH1 0x45 DUP1 SLOAD PUSH1 0x1 ADD SWAP1 SSTORE PUSH2 0x3D6E PUSH2 0x101D JUMP JUMPDEST PUSH2 0x3D76 PUSH2 0x2BC5 JUMP JUMPDEST POP POP POP POP POP POP POP POP POP JUMP JUMPDEST PUSH1 0x1 PUSH1 0x1 PUSH1 0xA0 SHL SUB DUP3 AND PUSH1 0x0 SWAP1 DUP2 MSTORE PUSH1 0x49 PUSH1 0x20 MSTORE PUSH1 0x40 DUP2 KECCAK256 DUP2 SWAP1 DUP2 DUP1 DUP1 JUMPDEST PUSH1 0xE DUP5 ADD SLOAD DUP2 LT ISZERO PUSH2 0x3E4C JUMPI PUSH1 0x0 DUP5 PUSH1 0xE ADD DUP3 DUP2 SLOAD DUP2 LT PUSH2 0x3DBC JUMPI INVALID JUMPDEST PUSH1 0x0 SWAP2 DUP3 MSTORE PUSH1 0x20 DUP3 KECCAK256 ADD SLOAD PUSH1 0xE DUP8 ADD DUP1 SLOAD PUSH1 0x1 PUSH1 0x1 PUSH1 0xA0 SHL SUB SWAP1 SWAP3 AND SWAP4 POP PUSH1 0x49 SWAP2 DUP4 SWAP2 SWAP1 DUP7 SWAP1 DUP2 LT PUSH2 0x3DEA JUMPI INVALID JUMPDEST PUSH1 0x0 SWAP2 DUP3 MSTORE PUSH1 0x20 DUP1 DUP4 KECCAK256 SWAP1 SWAP2 ADD SLOAD PUSH1 0x1 PUSH1 0x1 PUSH1 0xA0 SHL SUB AND DUP4 MSTORE DUP3 ADD SWAP3 SWAP1 SWAP3 MSTORE PUSH1 0x40 ADD SWAP1 KECCAK256 SWAP1 POP PUSH1 0x13 DUP10 LT ISZERO PUSH2 0x3E34 JUMPI PUSH1 0x0 DUP1 PUSH2 0x3E29 DUP5 DUP13 PUSH1 0x1 ADD PUSH2 0x3D81 JUMP JUMPDEST SWAP8 ADD SWAP7 SWAP6 SWAP1 SWAP6 ADD SWAP5 POP POP JUMPDEST PUSH1 0x2 ADD SLOAD PUSH1 0x1 SWAP5 DUP6 ADD SWAP5 SWAP4 ADD SWAP3 SWAP2 SWAP1 SWAP2 ADD SWAP1 POP PUSH2 0x3D9F JUMP JUMPDEST POP SWAP1 SWAP7 SWAP1 SWAP6 POP SWAP4 POP POP POP POP JUMP JUMPDEST PUSH1 0x0 DUP3 PUSH1 0x6 ADD SLOAD DUP3 LT ISZERO PUSH2 0x3E6F JUMPI DUP3 PUSH1 0x6 ADD SLOAD SWAP2 POP JUMPDEST PUSH1 0x1F SLOAD DUP3 LT ISZERO PUSH2 0x3E81 JUMPI POP PUSH1 0x0 PUSH2 0xA06 JUMP JUMPDEST PUSH1 0x0 PUSH1 0x3C DUP4 TIMESTAMP SUB DUP2 PUSH2 0x3E8F JUMPI INVALID JUMPDEST DIV SWAP1 POP PUSH1 0x1F SLOAD DUP4 LT PUSH2 0x3EF7 JUMPI PUSH3 0x15F900 DUP2 PUSH1 0x4A PUSH1 0x1 DUP8 PUSH1 0x1 ADD PUSH1 0x7 SWAP1 SLOAD SWAP1 PUSH2 0x100 EXP SWAP1 DIV PUSH1 0xFF AND SUB PUSH1 0xFF AND DUP2 SLOAD DUP2 LT PUSH2 0x3EC4 JUMPI INVALID JUMPDEST PUSH1 0x0 SWAP2 DUP3 MSTORE PUSH1 0x20 SWAP1 SWAP2 KECCAK256 PUSH1 0x2 PUSH1 0x4 SWAP1 SWAP3 MUL ADD ADD SLOAD PUSH1 0xA DUP8 ADD SLOAD PUSH1 0xFF SWAP1 SWAP2 AND MUL MUL DUP2 PUSH2 0x3EEB JUMPI INVALID JUMPDEST DIV DUP5 PUSH1 0x7 ADD SLOAD ADD PUSH2 0x3EFA JUMP JUMPDEST PUSH1 0x0 JUMPDEST SWAP5 SWAP4 POP POP POP POP JUMP JUMPDEST PUSH2 0x3F0A PUSH2 0x5217 JUMP JUMPDEST PUSH1 0x1 PUSH1 0x1 PUSH1 0xA0 SHL SUB DUP6 AND PUSH1 0x0 SWAP1 DUP2 MSTORE PUSH1 0x49 PUSH1 0x20 MSTORE PUSH1 0x40 DUP2 KECCAK256 SWAP1 DUP5 ISZERO ISZERO DUP1 PUSH2 0x3F3E JUMPI POP PUSH1 0x47 SLOAD PUSH1 0x1 PUSH1 0x1 PUSH1 0xA0 SHL SUB DUP9 DUP2 AND SWAP2 AND EQ JUMPDEST PUSH2 0x3F5F JUMPI PUSH1 0xD DUP3 ADD SLOAD PUSH1 0x3 SWAP1 PUSH1 0x1 PUSH1 0xA0 SHL SWAP1 DIV PUSH2 0xFFFF AND DIV PUSH2 0xFFFF AND PUSH2 0x3F65 JUMP JUMPDEST PUSH1 0xE DUP3 ADD SLOAD JUMPDEST SWAP1 POP PUSH1 0x0 DUP1 PUSH1 0x0 DUP1 PUSH1 0x0 JUMPDEST DUP6 DUP2 LT ISZERO PUSH2 0x41F8 JUMPI PUSH1 0x0 DUP8 PUSH1 0xE ADD DUP3 DUP2 SLOAD DUP2 LT PUSH2 0x3F89 JUMPI INVALID JUMPDEST PUSH1 0x0 SWAP2 DUP3 MSTORE PUSH1 0x20 DUP3 KECCAK256 ADD SLOAD PUSH1 0xE DUP11 ADD DUP1 SLOAD PUSH1 0x1 PUSH1 0x1 PUSH1 0xA0 SHL SUB SWAP1 SWAP3 AND SWAP4 POP PUSH1 0x49 SWAP2 DUP4 SWAP2 SWAP1 DUP7 SWAP1 DUP2 LT PUSH2 0x3FB7 JUMPI INVALID JUMPDEST PUSH1 0x0 SWAP2 DUP3 MSTORE PUSH1 0x20 DUP1 DUP4 KECCAK256 SWAP1 SWAP2 ADD SLOAD PUSH1 0x1 PUSH1 0x1 PUSH1 0xA0 SHL SUB AND DUP4 MSTORE DUP3 ADD SWAP3 SWAP1 SWAP3 MSTORE PUSH1 0x40 ADD SWAP1 KECCAK256 PUSH1 0x4 DUP2 ADD SLOAD SWAP1 SWAP2 POP PUSH1 0xFF AND PUSH2 0x41EE JUMPI PUSH2 0x3FF4 DUP2 DUP15 PUSH2 0x3E59 JUMP JUMPDEST PUSH1 0x1 DUP11 DUP2 ADD SLOAD SWAP2 SWAP9 POP PUSH1 0x1 PUSH1 0x38 SHL SWAP1 SWAP2 DIV PUSH1 0xFF AND LT DUP1 ISZERO SWAP1 PUSH2 0x4014 JUMPI POP DUP12 ISZERO JUMPDEST ISZERO PUSH2 0x4073 JUMPI PUSH2 0x3E8 PUSH1 0x46 PUSH1 0x0 DUP2 SLOAD DUP2 LT PUSH2 0x402A JUMPI INVALID JUMPDEST SWAP1 PUSH1 0x0 MSTORE PUSH1 0x20 PUSH1 0x0 KECCAK256 ADD PUSH1 0x2 DUP2 SLOAD DUP2 LT PUSH2 0x4040 JUMPI INVALID JUMPDEST PUSH1 0x0 SWAP2 DUP3 MSTORE PUSH1 0x20 SWAP2 DUP3 SWAP1 KECCAK256 SWAP2 DUP2 DIV SWAP1 SWAP2 ADD SLOAD PUSH1 0xFF PUSH1 0x1F SWAP1 SWAP3 AND PUSH2 0x100 EXP SWAP1 DIV AND DUP9 MUL DUP2 PUSH2 0x4069 JUMPI INVALID JUMPDEST DIV DUP6 ADD SWAP5 POP PUSH2 0x419C JUMP JUMPDEST PUSH1 0x1 DUP10 DUP2 ADD SLOAD PUSH1 0x1 PUSH1 0x38 SHL SWAP1 DIV PUSH1 0xFF AND LT DUP1 ISZERO SWAP1 PUSH2 0x4091 JUMPI POP DUP12 PUSH1 0x1 EQ JUMPDEST ISZERO PUSH2 0x40A7 JUMPI PUSH2 0x3E8 PUSH1 0x46 PUSH1 0x1 DUP2 SLOAD DUP2 LT PUSH2 0x402A JUMPI INVALID JUMPDEST PUSH1 0x1 DUP10 ADD SLOAD PUSH1 0x2 PUSH1 0x1 PUSH1 0x38 SHL SWAP1 SWAP2 DIV PUSH1 0xFF AND LT DUP1 ISZERO SWAP1 PUSH2 0x40C8 JUMPI POP PUSH1 0x2 DUP13 LT ISZERO JUMPDEST DUP1 ISZERO PUSH2 0x40D5 JUMPI POP PUSH1 0x6 DUP13 GT ISZERO JUMPDEST ISZERO PUSH2 0x40EB JUMPI PUSH2 0x3E8 PUSH1 0x46 PUSH1 0x2 DUP2 SLOAD DUP2 LT PUSH2 0x402A JUMPI INVALID JUMPDEST PUSH1 0x1 DUP10 ADD SLOAD PUSH1 0x3 PUSH1 0x1 PUSH1 0x38 SHL SWAP1 SWAP2 DIV PUSH1 0xFF AND LT DUP1 ISZERO SWAP1 PUSH2 0x410C JUMPI POP PUSH1 0x7 DUP13 LT ISZERO JUMPDEST DUP1 ISZERO PUSH2 0x4119 JUMPI POP PUSH1 0xF DUP13 GT ISZERO JUMPDEST ISZERO PUSH2 0x412F JUMPI PUSH2 0x3E8 PUSH1 0x46 PUSH1 0x3 DUP2 SLOAD DUP2 LT PUSH2 0x402A JUMPI INVALID JUMPDEST PUSH1 0x1 DUP10 ADD SLOAD PUSH1 0x4 PUSH1 0x1 PUSH1 0x38 SHL SWAP1 SWAP2 DIV PUSH1 0xFF AND LT PUSH2 0x419C JUMPI PUSH2 0x3E8 PUSH1 0x46 PUSH1 0x4 DUP2 SLOAD DUP2 LT PUSH2 0x4157 JUMPI INVALID JUMPDEST SWAP1 PUSH1 0x0 MSTORE PUSH1 0x20 PUSH1 0x0 KECCAK256 ADD PUSH1 0x2 DUP2 SLOAD DUP2 LT PUSH2 0x416D JUMPI INVALID JUMPDEST PUSH1 0x0 SWAP2 DUP3 MSTORE PUSH1 0x20 SWAP2 DUP3 SWAP1 KECCAK256 SWAP2 DUP2 DIV SWAP1 SWAP2 ADD SLOAD PUSH1 0xFF PUSH1 0x1F SWAP1 SWAP3 AND PUSH2 0x100 EXP SWAP1 DIV AND DUP9 MUL DUP2 PUSH2 0x4196 JUMPI INVALID JUMPDEST DIV DUP6 ADD SWAP5 POP JUMPDEST PUSH1 0x1 DUP12 SUB DUP13 LT ISZERO PUSH2 0x41DD JUMPI PUSH2 0x41AF PUSH2 0x5217 JUMP JUMPDEST PUSH2 0x41BE DUP4 DUP16 DUP16 PUSH1 0x1 ADD DUP16 PUSH2 0x3F02 JUMP JUMPDEST SWAP1 POP DUP1 PUSH1 0x0 ADD MLOAD DUP6 ADD SWAP5 POP DUP1 PUSH1 0x20 ADD MLOAD DUP8 ADD SWAP7 POP DUP1 PUSH1 0x40 ADD MLOAD DUP7 ADD SWAP6 POP POP JUMPDEST PUSH1 0x2 DUP2 ADD SLOAD SWAP6 SWAP1 SWAP6 ADD SWAP5 PUSH1 0x1 SWAP1 SWAP4 ADD SWAP3 JUMPDEST POP POP PUSH1 0x1 ADD PUSH2 0x3F70 JUMP JUMPDEST POP PUSH1 0x40 DUP1 MLOAD PUSH1 0x60 DUP2 ADD DUP3 MSTORE SWAP2 DUP3 MSTORE PUSH1 0x20 DUP3 ADD SWAP4 SWAP1 SWAP4 MSTORE SWAP2 DUP3 ADD MSTORE SWAP9 SWAP8 POP POP POP POP POP POP POP POP JUMP JUMPDEST PUSH1 0x0 PUSH1 0x17 SLOAD PUSH1 0x9 SLOAD DUP4 MUL DUP2 PUSH2 0x422F JUMPI INVALID JUMPDEST PUSH1 0x52 SLOAD PUSH1 0x7 SLOAD SWAP3 SWAP1 SWAP2 DIV SWAP3 POP DUP3 SWAP2 PUSH1 0x0 SWAP2 SWAP1 PUSH2 0x425B SWAP1 PUSH2 0x100 SWAP1 DIV PUSH1 0x1 PUSH1 0x1 PUSH1 0xA0 SHL SUB AND DUP8 ADDRESS DUP9 PUSH2 0x4D02 JUMP JUMPDEST PUSH1 0x0 JUMPDEST PUSH1 0x51 SLOAD DUP2 LT ISZERO PUSH2 0x440C JUMPI PUSH1 0x0 PUSH1 0x51 DUP3 DUP2 SLOAD DUP2 LT PUSH2 0x4277 JUMPI INVALID JUMPDEST SWAP1 PUSH1 0x0 MSTORE PUSH1 0x20 PUSH1 0x0 KECCAK256 SWAP1 PUSH1 0x4 MUL ADD SWAP1 POP DUP5 DUP2 PUSH1 0x3 ADD SLOAD LT PUSH2 0x434E JUMPI PUSH1 0x0 PUSH1 0x9 SLOAD PUSH2 0x3E8 MUL PUSH1 0x17 SLOAD DUP8 MUL PUSH2 0x3E6 MUL DUP2 PUSH2 0x42AB JUMPI INVALID JUMPDEST PUSH1 0x7 SLOAD PUSH1 0x1 DUP6 ADD SLOAD SWAP3 SWAP1 SWAP2 DIV SWAP3 POP PUSH2 0x42D5 SWAP2 PUSH1 0x1 PUSH1 0x1 PUSH1 0xA0 SHL SUB PUSH2 0x100 SWAP1 SWAP3 DIV DUP3 AND SWAP2 AND DUP4 PUSH2 0x2CFD JUMP JUMPDEST PUSH1 0x40 DUP1 MLOAD PUSH1 0x80 DUP2 ADD DUP3 MSTORE PUSH2 0x2711 DUP7 ADD DUP2 MSTORE PUSH1 0x0 PUSH1 0x20 DUP3 ADD DUP2 SWAP1 MSTORE SWAP2 DUP2 ADD DUP9 SWAP1 MSTORE TIMESTAMP PUSH1 0x60 DUP3 ADD MSTORE PUSH1 0x52 DUP1 SLOAD PUSH1 0x1 DUP2 DUP2 ADD DUP4 SSTORE SWAP2 SWAP1 SWAP4 MSTORE SWAP1 SWAP6 ADD SWAP5 PUSH2 0x432A SWAP2 PUSH1 0x0 DUP1 MLOAD PUSH1 0x20 PUSH2 0x5E5C DUP4 CODECOPY DUP2 MLOAD SWAP2 MSTORE ADD SWAP1 PUSH1 0x4 PUSH2 0x5238 JUMP JUMPDEST POP PUSH1 0x3 DUP3 ADD DUP1 SLOAD SWAP7 SWAP1 SWAP7 SUB SWAP6 DUP7 SWAP1 SSTORE PUSH1 0x0 SWAP6 PUSH2 0x4347 JUMPI PUSH1 0x1 SWAP1 SWAP5 ADD SWAP4 JUMPDEST POP POP PUSH2 0x440C JUMP JUMPDEST PUSH1 0x0 PUSH1 0x9 SLOAD PUSH2 0x3E8 MUL PUSH1 0x17 SLOAD DUP4 PUSH1 0x3 ADD SLOAD MUL PUSH2 0x3E6 MUL DUP2 PUSH2 0x436B JUMPI INVALID JUMPDEST PUSH1 0x7 SLOAD PUSH1 0x1 DUP6 ADD SLOAD SWAP3 SWAP1 SWAP2 DIV SWAP3 POP PUSH2 0x4395 SWAP2 PUSH1 0x1 PUSH1 0x1 PUSH1 0xA0 SHL SUB PUSH2 0x100 SWAP1 SWAP3 DIV DUP3 AND SWAP2 AND DUP4 PUSH2 0x2CFD JUMP JUMPDEST PUSH1 0x40 DUP1 MLOAD PUSH1 0x80 DUP2 ADD DUP3 MSTORE PUSH2 0x2711 DUP7 ADD DUP2 MSTORE PUSH1 0x0 PUSH1 0x20 DUP3 ADD DUP2 SWAP1 MSTORE PUSH1 0x3 DUP6 ADD SLOAD SWAP3 DUP3 ADD SWAP3 SWAP1 SWAP3 MSTORE TIMESTAMP PUSH1 0x60 DUP3 ADD MSTORE PUSH1 0x52 DUP1 SLOAD PUSH1 0x1 DUP2 DUP2 ADD DUP4 SSTORE SWAP2 SWAP1 SWAP4 MSTORE SWAP1 SWAP6 ADD SWAP5 PUSH2 0x43F0 SWAP2 PUSH1 0x0 DUP1 MLOAD PUSH1 0x20 PUSH2 0x5E5C DUP4 CODECOPY DUP2 MLOAD SWAP2 MSTORE ADD SWAP1 PUSH1 0x4 PUSH2 0x5238 JUMP JUMPDEST POP POP PUSH1 0x3 ADD DUP1 SLOAD PUSH1 0x0 SWAP1 SWAP2 SSTORE SWAP1 SWAP4 SUB SWAP3 PUSH1 0x1 SWAP3 DUP4 ADD SWAP3 ADD PUSH2 0x425E JUMP JUMPDEST POP DUP2 ISZERO PUSH2 0x457E JUMPI DUP2 JUMPDEST PUSH1 0x51 SLOAD DUP2 LT ISZERO PUSH2 0x4522 JUMPI PUSH1 0x51 DUP2 DUP2 SLOAD DUP2 LT PUSH2 0x442C JUMPI INVALID JUMPDEST SWAP1 PUSH1 0x0 MSTORE PUSH1 0x20 PUSH1 0x0 KECCAK256 SWAP1 PUSH1 0x4 MUL ADD PUSH1 0x1 ADD PUSH1 0x0 SWAP1 SLOAD SWAP1 PUSH2 0x100 EXP SWAP1 DIV PUSH1 0x1 PUSH1 0x1 PUSH1 0xA0 SHL SUB AND PUSH1 0x51 DUP5 DUP4 SUB DUP2 SLOAD DUP2 LT PUSH2 0x4460 JUMPI INVALID JUMPDEST SWAP1 PUSH1 0x0 MSTORE PUSH1 0x20 PUSH1 0x0 KECCAK256 SWAP1 PUSH1 0x4 MUL ADD PUSH1 0x1 ADD PUSH1 0x0 PUSH2 0x100 EXP DUP2 SLOAD DUP2 PUSH1 0x1 PUSH1 0x1 PUSH1 0xA0 SHL SUB MUL NOT AND SWAP1 DUP4 PUSH1 0x1 PUSH1 0x1 PUSH1 0xA0 SHL SUB AND MUL OR SWAP1 SSTORE POP PUSH1 0x51 DUP2 DUP2 SLOAD DUP2 LT PUSH2 0x44A2 JUMPI INVALID JUMPDEST SWAP1 PUSH1 0x0 MSTORE PUSH1 0x20 PUSH1 0x0 KECCAK256 SWAP1 PUSH1 0x4 MUL ADD PUSH1 0x2 ADD SLOAD PUSH1 0x51 DUP5 DUP4 SUB DUP2 SLOAD DUP2 LT PUSH2 0x44C3 JUMPI INVALID JUMPDEST SWAP1 PUSH1 0x0 MSTORE PUSH1 0x20 PUSH1 0x0 KECCAK256 SWAP1 PUSH1 0x4 MUL ADD PUSH1 0x2 ADD DUP2 SWAP1 SSTORE POP PUSH1 0x51 DUP2 DUP2 SLOAD DUP2 LT PUSH2 0x44E5 JUMPI INVALID JUMPDEST SWAP1 PUSH1 0x0 MSTORE PUSH1 0x20 PUSH1 0x0 KECCAK256 SWAP1 PUSH1 0x4 MUL ADD PUSH1 0x3 ADD SLOAD PUSH1 0x51 DUP5 DUP4 SUB DUP2 SLOAD DUP2 LT PUSH2 0x4506 JUMPI INVALID JUMPDEST PUSH1 0x0 SWAP2 DUP3 MSTORE PUSH1 0x20 SWAP1 SWAP2 KECCAK256 PUSH1 0x3 PUSH1 0x4 SWAP1 SWAP3 MUL ADD ADD SSTORE PUSH1 0x1 ADD PUSH2 0x4415 JUMP JUMPDEST POP PUSH1 0x0 JUMPDEST DUP3 DUP2 LT ISZERO PUSH2 0x457C JUMPI PUSH1 0x51 DUP1 SLOAD DUP1 PUSH2 0x4539 JUMPI INVALID JUMPDEST PUSH1 0x0 DUP3 DUP2 MSTORE PUSH1 0x20 DUP2 KECCAK256 PUSH1 0x4 PUSH1 0x0 NOT SWAP1 SWAP4 ADD SWAP3 DUP4 MUL ADD DUP2 DUP2 SSTORE PUSH1 0x1 DUP2 DUP2 ADD DUP1 SLOAD PUSH1 0x1 PUSH1 0x1 PUSH1 0xA0 SHL SUB NOT AND SWAP1 SSTORE PUSH1 0x2 DUP3 ADD DUP4 SWAP1 SSTORE PUSH1 0x3 SWAP1 SWAP2 ADD SWAP2 SWAP1 SWAP2 SSTORE SWAP2 SSTORE ADD PUSH2 0x4526 JUMP JUMPDEST POP JUMPDEST DUP3 ISZERO PUSH2 0x46E9 JUMPI PUSH1 0x50 SLOAD PUSH1 0x64 GT PUSH2 0x45A6 JUMPI PUSH1 0x40 MLOAD PUSH3 0x461BCD PUSH1 0xE5 SHL DUP2 MSTORE PUSH1 0x4 ADD PUSH2 0xF71 SWAP1 PUSH2 0x5B2E JUMP JUMPDEST PUSH1 0x0 PUSH1 0x9 SLOAD PUSH1 0x17 SLOAD DUP6 MUL DUP2 PUSH2 0x45B7 JUMPI INVALID JUMPDEST PUSH1 0x40 DUP1 MLOAD PUSH1 0x80 DUP2 ADD DUP3 MSTORE TIMESTAMP DUP2 MSTORE PUSH1 0x1 PUSH1 0x1 PUSH1 0xA0 SHL SUB DUP12 DUP2 AND PUSH1 0x20 DUP4 ADD SWAP1 DUP2 MSTORE DUP3 DUP5 ADD DUP13 DUP2 MSTORE SWAP6 SWAP1 SWAP5 DIV PUSH1 0x60 DUP4 ADD DUP2 DUP2 MSTORE PUSH1 0x50 DUP1 SLOAD PUSH1 0x1 DUP2 ADD DUP3 SSTORE PUSH1 0x0 SWAP2 SWAP1 SWAP2 MSTORE SWAP4 MLOAD PUSH32 0x5529612556959EF813DBE8D0ED29336AB75E80A9B7855030760B2917B01E568A PUSH1 0x4 SWAP1 SWAP6 MUL SWAP5 DUP6 ADD SSTORE SWAP5 MLOAD PUSH32 0x5529612556959EF813DBE8D0ED29336AB75E80A9B7855030760B2917B01E568B DUP5 ADD DUP1 SLOAD PUSH1 0x1 PUSH1 0x1 PUSH1 0xA0 SHL SUB NOT AND SWAP2 SWAP1 SWAP4 AND OR SWAP1 SWAP2 SSTORE SWAP4 MLOAD PUSH32 0x5529612556959EF813DBE8D0ED29336AB75E80A9B7855030760B2917B01E568C DUP3 ADD SSTORE SWAP2 MLOAD PUSH32 0x5529612556959EF813DBE8D0ED29336AB75E80A9B7855030760B2917B01E568D SWAP1 SWAP3 ADD SWAP2 SWAP1 SWAP2 SSTORE MLOAD SWAP1 SWAP2 POP PUSH32 0x2E63B61ED93A328967F80B447BC296CC3344B0B4CF419C417E252DD66AF4C762 SWAP1 PUSH2 0x46DF SWAP1 DUP10 SWAP1 DUP5 SWAP1 PUSH2 0x5563 JUMP JUMPDEST PUSH1 0x40 MLOAD DUP1 SWAP2 SUB SWAP1 LOG1 POP JUMPDEST DUP3 DUP5 SUB ISZERO PUSH2 0x1781 JUMPI PUSH2 0x1781 ADDRESS DUP8 DUP6 DUP8 SUB PUSH2 0x29AE JUMP JUMPDEST PUSH1 0x0 PUSH1 0x9 SLOAD PUSH1 0x17 SLOAD DUP4 MUL DUP2 PUSH2 0x470F JUMPI INVALID JUMPDEST PUSH1 0x52 SLOAD SWAP2 SWAP1 DIV SWAP2 POP DUP2 SWAP1 PUSH1 0x0 SWAP1 PUSH2 0x4727 DUP7 ADDRESS DUP8 PUSH2 0x29AE JUMP JUMPDEST PUSH1 0x0 JUMPDEST PUSH1 0x50 SLOAD DUP2 LT ISZERO PUSH2 0x48AE JUMPI PUSH1 0x0 PUSH1 0x50 DUP3 DUP2 SLOAD DUP2 LT PUSH2 0x4743 JUMPI INVALID JUMPDEST SWAP1 PUSH1 0x0 MSTORE PUSH1 0x20 PUSH1 0x0 KECCAK256 SWAP1 PUSH1 0x4 MUL ADD SWAP1 POP DUP5 DUP2 PUSH1 0x3 ADD SLOAD LT PUSH2 0x4808 JUMPI PUSH1 0x0 PUSH1 0x17 SLOAD PUSH1 0x9 SLOAD DUP8 MUL DUP2 PUSH2 0x476F JUMPI INVALID JUMPDEST PUSH1 0x1 DUP5 ADD SLOAD SWAP2 SWAP1 DIV SWAP2 POP PUSH2 0x478E SWAP1 ADDRESS SWAP1 PUSH1 0x1 PUSH1 0x1 PUSH1 0xA0 SHL SUB AND DUP4 PUSH2 0x29AE JUMP JUMPDEST PUSH1 0x40 DUP1 MLOAD PUSH1 0x80 DUP2 ADD DUP3 MSTORE PUSH2 0x2711 DUP7 ADD DUP2 MSTORE PUSH1 0x1 PUSH1 0x20 DUP3 ADD DUP2 SWAP1 MSTORE SWAP2 DUP2 ADD DUP4 SWAP1 MSTORE TIMESTAMP PUSH1 0x60 DUP3 ADD MSTORE PUSH1 0x52 DUP1 SLOAD DUP1 DUP5 ADD DUP3 SSTORE PUSH1 0x0 SWAP2 SWAP1 SWAP2 MSTORE SWAP2 SWAP1 SWAP6 ADD SWAP5 PUSH2 0x47E4 SWAP2 PUSH1 0x0 DUP1 MLOAD PUSH1 0x20 PUSH2 0x5E5C DUP4 CODECOPY DUP2 MLOAD SWAP2 MSTORE ADD SWAP1 PUSH1 0x4 PUSH2 0x5238 JUMP JUMPDEST POP PUSH1 0x3 DUP3 ADD DUP1 SLOAD SWAP7 SWAP1 SWAP7 SUB SWAP6 DUP7 SWAP1 SSTORE PUSH1 0x0 SWAP6 PUSH2 0x4801 JUMPI PUSH1 0x1 SWAP1 SWAP5 ADD SWAP4 JUMPDEST POP POP PUSH2 0x48AE JUMP JUMPDEST PUSH1 0x0 PUSH1 0x17 SLOAD PUSH1 0x9 SLOAD DUP4 PUSH1 0x3 ADD SLOAD MUL DUP2 PUSH2 0x481D JUMPI INVALID JUMPDEST PUSH1 0x1 DUP5 ADD SLOAD SWAP2 SWAP1 DIV SWAP2 POP PUSH2 0x483C SWAP1 ADDRESS SWAP1 PUSH1 0x1 PUSH1 0x1 PUSH1 0xA0 SHL SUB AND DUP4 PUSH2 0x29AE JUMP JUMPDEST PUSH1 0x40 DUP1 MLOAD PUSH1 0x80 DUP2 ADD DUP3 MSTORE PUSH2 0x2711 DUP7 ADD DUP2 MSTORE PUSH1 0x1 PUSH1 0x20 DUP3 ADD DUP2 SWAP1 MSTORE SWAP2 DUP2 ADD DUP4 SWAP1 MSTORE TIMESTAMP PUSH1 0x60 DUP3 ADD MSTORE PUSH1 0x52 DUP1 SLOAD DUP1 DUP5 ADD DUP3 SSTORE PUSH1 0x0 SWAP2 SWAP1 SWAP2 MSTORE SWAP2 SWAP1 SWAP6 ADD SWAP5 PUSH2 0x4892 SWAP2 PUSH1 0x0 DUP1 MLOAD PUSH1 0x20 PUSH2 0x5E5C DUP4 CODECOPY DUP2 MLOAD SWAP2 MSTORE ADD SWAP1 PUSH1 0x4 PUSH2 0x5238 JUMP JUMPDEST POP POP PUSH1 0x3 ADD DUP1 SLOAD PUSH1 0x0 SWAP1 SWAP2 SSTORE SWAP1 SWAP4 SUB SWAP3 PUSH1 0x1 SWAP3 DUP4 ADD SWAP3 ADD PUSH2 0x472A JUMP JUMPDEST POP DUP2 ISZERO PUSH2 0x4A20 JUMPI DUP2 JUMPDEST PUSH1 0x50 SLOAD DUP2 LT ISZERO PUSH2 0x49C4 JUMPI PUSH1 0x50 DUP2 DUP2 SLOAD DUP2 LT PUSH2 0x48CE JUMPI INVALID JUMPDEST SWAP1 PUSH1 0x0 MSTORE PUSH1 0x20 PUSH1 0x0 KECCAK256 SWAP1 PUSH1 0x4 MUL ADD PUSH1 0x1 ADD PUSH1 0x0 SWAP1 SLOAD SWAP1 PUSH2 0x100 EXP SWAP1 DIV PUSH1 0x1 PUSH1 0x1 PUSH1 0xA0 SHL SUB AND PUSH1 0x50 DUP5 DUP4 SUB DUP2 SLOAD DUP2 LT PUSH2 0x4902 JUMPI INVALID JUMPDEST SWAP1 PUSH1 0x0 MSTORE PUSH1 0x20 PUSH1 0x0 KECCAK256 SWAP1 PUSH1 0x4 MUL ADD PUSH1 0x1 ADD PUSH1 0x0 PUSH2 0x100 EXP DUP2 SLOAD DUP2 PUSH1 0x1 PUSH1 0x1 PUSH1 0xA0 SHL SUB MUL NOT AND SWAP1 DUP4 PUSH1 0x1 PUSH1 0x1 PUSH1 0xA0 SHL SUB AND MUL OR SWAP1 SSTORE POP PUSH1 0x50 DUP2 DUP2 SLOAD DUP2 LT PUSH2 0x4944 JUMPI INVALID JUMPDEST SWAP1 PUSH1 0x0 MSTORE PUSH1 0x20 PUSH1 0x0 KECCAK256 SWAP1 PUSH1 0x4 MUL ADD PUSH1 0x2 ADD SLOAD PUSH1 0x50 DUP5 DUP4 SUB DUP2 SLOAD DUP2 LT PUSH2 0x4965 JUMPI INVALID JUMPDEST SWAP1 PUSH1 0x0 MSTORE PUSH1 0x20 PUSH1 0x0 KECCAK256 SWAP1 PUSH1 0x4 MUL ADD PUSH1 0x2 ADD DUP2 SWAP1 SSTORE POP PUSH1 0x50 DUP2 DUP2 SLOAD DUP2 LT PUSH2 0x4987 JUMPI INVALID JUMPDEST SWAP1 PUSH1 0x0 MSTORE PUSH1 0x20 PUSH1 0x0 KECCAK256 SWAP1 PUSH1 0x4 MUL ADD PUSH1 0x3 ADD SLOAD PUSH1 0x50 DUP5 DUP4 SUB DUP2 SLOAD DUP2 LT PUSH2 0x49A8 JUMPI INVALID JUMPDEST PUSH1 0x0 SWAP2 DUP3 MSTORE PUSH1 0x20 SWAP1 SWAP2 KECCAK256 PUSH1 0x3 PUSH1 0x4 SWAP1 SWAP3 MUL ADD ADD SSTORE PUSH1 0x1 ADD PUSH2 0x48B7 JUMP JUMPDEST POP PUSH1 0x0 JUMPDEST DUP3 DUP2 LT ISZERO PUSH2 0x4A1E JUMPI PUSH1 0x50 DUP1 SLOAD DUP1 PUSH2 0x49DB JUMPI INVALID JUMPDEST PUSH1 0x0 DUP3 DUP2 MSTORE PUSH1 0x20 DUP2 KECCAK256 PUSH1 0x4 PUSH1 0x0 NOT SWAP1 SWAP4 ADD SWAP3 DUP4 MUL ADD DUP2 DUP2 SSTORE PUSH1 0x1 DUP2 DUP2 ADD DUP1 SLOAD PUSH1 0x1 PUSH1 0x1 PUSH1 0xA0 SHL SUB NOT AND SWAP1 SSTORE PUSH1 0x2 DUP3 ADD DUP4 SWAP1 SSTORE PUSH1 0x3 SWAP1 SWAP2 ADD SWAP2 SWAP1 SWAP2 SSTORE SWAP2 SSTORE ADD PUSH2 0x49C8 JUMP JUMPDEST POP JUMPDEST DUP3 ISZERO PUSH2 0x4B8B JUMPI PUSH1 0x50 SLOAD PUSH1 0x64 GT PUSH2 0x4A48 JUMPI PUSH1 0x40 MLOAD PUSH3 0x461BCD PUSH1 0xE5 SHL DUP2 MSTORE PUSH1 0x4 ADD PUSH2 0xF71 SWAP1 PUSH2 0x5B2E JUMP JUMPDEST PUSH1 0x0 PUSH1 0x17 SLOAD PUSH1 0x9 SLOAD DUP6 MUL DUP2 PUSH2 0x4A59 JUMPI INVALID JUMPDEST PUSH1 0x40 DUP1 MLOAD PUSH1 0x80 DUP2 ADD DUP3 MSTORE TIMESTAMP DUP2 MSTORE PUSH1 0x1 PUSH1 0x1 PUSH1 0xA0 SHL SUB DUP12 DUP2 AND PUSH1 0x20 DUP4 ADD SWAP1 DUP2 MSTORE DUP3 DUP5 ADD DUP13 DUP2 MSTORE SWAP6 SWAP1 SWAP5 DIV PUSH1 0x60 DUP4 ADD DUP2 DUP2 MSTORE PUSH1 0x51 DUP1 SLOAD PUSH1 0x1 DUP2 ADD DUP3 SSTORE PUSH1 0x0 SWAP2 SWAP1 SWAP2 MSTORE SWAP4 MLOAD PUSH32 0x994A4B4EDDB300691EE19901712848B1114BAD8A1A4AE195E5ABE0EC38021B94 PUSH1 0x4 SWAP1 SWAP6 MUL SWAP5 DUP6 ADD SSTORE SWAP5 MLOAD PUSH32 0x994A4B4EDDB300691EE19901712848B1114BAD8A1A4AE195E5ABE0EC38021B95 DUP5 ADD DUP1 SLOAD PUSH1 0x1 PUSH1 0x1 PUSH1 0xA0 SHL SUB NOT AND SWAP2 SWAP1 SWAP4 AND OR SWAP1 SWAP2 SSTORE SWAP4 MLOAD PUSH32 0x994A4B4EDDB300691EE19901712848B1114BAD8A1A4AE195E5ABE0EC38021B96 DUP3 ADD SSTORE SWAP2 MLOAD PUSH32 0x994A4B4EDDB300691EE19901712848B1114BAD8A1A4AE195E5ABE0EC38021B97 SWAP1 SWAP3 ADD SWAP2 SWAP1 SWAP2 SSTORE MLOAD SWAP1 SWAP2 POP PUSH32 0xE52393FB0BC93D5EDF3DDB6EF44887D82B0B9553466F447CB9B8B409087E9705 SWAP1 PUSH2 0x4B81 SWAP1 DUP10 SWAP1 DUP5 SWAP1 PUSH2 0x5563 JUMP JUMPDEST PUSH1 0x40 MLOAD DUP1 SWAP2 SUB SWAP1 LOG1 POP JUMPDEST DUP3 DUP5 SUB ISZERO PUSH2 0x1781 JUMPI PUSH1 0x7 SLOAD PUSH2 0x1781 SWAP1 PUSH2 0x100 SWAP1 DIV PUSH1 0x1 PUSH1 0x1 PUSH1 0xA0 SHL SUB AND DUP8 PUSH2 0x3E8 DUP7 DUP9 SUB PUSH2 0x3E6 MUL DIV PUSH2 0x2CFD JUMP JUMPDEST PUSH1 0x1 PUSH1 0x1 PUSH1 0xA0 SHL SUB DUP2 AND PUSH2 0x4BDF JUMPI PUSH1 0x40 MLOAD PUSH3 0x461BCD PUSH1 0xE5 SHL DUP2 MSTORE PUSH1 0x4 ADD PUSH2 0xF71 SWAP1 PUSH2 0x5853 JUMP JUMPDEST PUSH1 0x0 DUP1 SLOAD PUSH1 0x40 MLOAD PUSH1 0x1 PUSH1 0x1 PUSH1 0xA0 SHL SUB DUP1 DUP6 AND SWAP4 SWAP3 AND SWAP2 PUSH32 0x8BE0079C531659141344CD1FD0A4F28419497F9722A3DAAFE3B4186F6B6457E0 SWAP2 LOG3 PUSH1 0x0 DUP1 SLOAD PUSH1 0x1 PUSH1 0x1 PUSH1 0xA0 SHL SUB NOT AND PUSH1 0x1 PUSH1 0x1 PUSH1 0xA0 SHL SUB SWAP3 SWAP1 SWAP3 AND SWAP2 SWAP1 SWAP2 OR SWAP1 SSTORE JUMP JUMPDEST PUSH1 0x7 SLOAD PUSH1 0x40 MLOAD PUSH4 0x70A08231 PUSH1 0xE0 SHL DUP2 MSTORE PUSH1 0x0 SWAP2 PUSH2 0x100 SWAP1 DIV PUSH1 0x1 PUSH1 0x1 PUSH1 0xA0 SHL SUB AND SWAP1 PUSH4 0x70A08231 SWAP1 PUSH2 0x4C70 SWAP1 ADDRESS SWAP1 PUSH1 0x4 ADD PUSH2 0x552B JUMP JUMPDEST PUSH1 0x20 PUSH1 0x40 MLOAD DUP1 DUP4 SUB DUP2 DUP7 DUP1 EXTCODESIZE ISZERO DUP1 ISZERO PUSH2 0x4C88 JUMPI PUSH1 0x0 DUP1 REVERT JUMPDEST POP GAS STATICCALL ISZERO DUP1 ISZERO PUSH2 0x4C9C JUMPI RETURNDATASIZE PUSH1 0x0 DUP1 RETURNDATACOPY RETURNDATASIZE PUSH1 0x0 REVERT JUMPDEST POP POP POP POP PUSH1 0x40 MLOAD RETURNDATASIZE PUSH1 0x1F NOT PUSH1 0x1F DUP3 ADD AND DUP3 ADD DUP1 PUSH1 0x40 MSTORE POP DUP2 ADD SWAP1 PUSH2 0x1B4E SWAP2 SWAP1 PUSH2 0x5485 JUMP JUMPDEST PUSH1 0x0 PUSH2 0x27AC DUP4 DUP4 PUSH1 0x40 MLOAD DUP1 PUSH1 0x40 ADD PUSH1 0x40 MSTORE DUP1 PUSH1 0x1E DUP2 MSTORE PUSH1 0x20 ADD PUSH32 0x536166654D6174683A207375627472616374696F6E206F766572666C6F770000 DUP2 MSTORE POP PUSH2 0x2AB8 JUMP JUMPDEST PUSH1 0x0 PUSH1 0x60 DUP6 PUSH1 0x1 PUSH1 0x1 PUSH1 0xA0 SHL SUB AND PUSH4 0x23B872DD DUP7 DUP7 DUP7 PUSH1 0x40 MLOAD PUSH1 0x24 ADD PUSH2 0x4D2A SWAP4 SWAP3 SWAP2 SWAP1 PUSH2 0x553F JUMP JUMPDEST PUSH1 0x40 MLOAD PUSH1 0x20 DUP2 DUP4 SUB SUB DUP2 MSTORE SWAP1 PUSH1 0x40 MSTORE SWAP1 PUSH1 0xE0 SHL PUSH1 0x20 DUP3 ADD DUP1 MLOAD PUSH1 0x1 PUSH1 0x1 PUSH1 0xE0 SHL SUB DUP4 DUP2 DUP4 AND OR DUP4 MSTORE POP POP POP POP PUSH1 0x40 MLOAD PUSH2 0x4D63 SWAP2 SWAP1 PUSH2 0x550F JUMP JUMPDEST PUSH1 0x0 PUSH1 0x40 MLOAD DUP1 DUP4 SUB DUP2 PUSH1 0x0 DUP7 GAS CALL SWAP2 POP POP RETURNDATASIZE DUP1 PUSH1 0x0 DUP2 EQ PUSH2 0x4DA0 JUMPI PUSH1 0x40 MLOAD SWAP2 POP PUSH1 0x1F NOT PUSH1 0x3F RETURNDATASIZE ADD AND DUP3 ADD PUSH1 0x40 MSTORE RETURNDATASIZE DUP3 MSTORE RETURNDATASIZE PUSH1 0x0 PUSH1 0x20 DUP5 ADD RETURNDATACOPY PUSH2 0x4DA5 JUMP JUMPDEST PUSH1 0x60 SWAP2 POP JUMPDEST POP SWAP2 POP SWAP2 POP DUP2 DUP1 ISZERO PUSH2 0x4DCF JUMPI POP DUP1 MLOAD ISZERO DUP1 PUSH2 0x4DCF JUMPI POP DUP1 DUP1 PUSH1 0x20 ADD SWAP1 MLOAD DUP2 ADD SWAP1 PUSH2 0x4DCF SWAP2 SWAP1 PUSH2 0x544D JUMP JUMPDEST PUSH2 0x1789 JUMPI PUSH1 0x40 MLOAD PUSH3 0x461BCD PUSH1 0xE5 SHL DUP2 MSTORE PUSH1 0x4 ADD PUSH2 0xF71 SWAP1 PUSH2 0x5D34 JUMP JUMPDEST PUSH1 0x0 DUP1 PUSH2 0x3E9 PUSH1 0x18 PUSH1 0x8 SWAP1 SLOAD SWAP1 PUSH2 0x100 EXP SWAP1 DIV PUSH2 0xFFFF AND PUSH2 0xFFFF AND LT PUSH2 0x4E22 JUMPI PUSH1 0x18 SLOAD PUSH1 0x1 PUSH1 0x40 SHL SWAP1 DIV PUSH2 0xFFFF AND PUSH2 0x7D0 SUB PUSH2 0x4E31 JUMP JUMPDEST PUSH1 0x18 SLOAD PUSH1 0x1 PUSH1 0x40 SHL SWAP1 DIV PUSH2 0xFFFF AND JUMPDEST PUSH1 0x1A SLOAD PUSH2 0xFFFF SWAP2 DUP3 AND SWAP3 POP AND DUP2 EQ ISZERO PUSH2 0x4ED4 JUMPI PUSH1 0x18 DUP1 SLOAD PUSH10 0xFFFF0000000000000000 NOT DUP2 AND PUSH1 0x1 PUSH1 0x40 SHL SWAP2 DUP3 SWAP1 DIV PUSH2 0xFFFF SWAP1 DUP2 AND PUSH1 0x1 ADD DUP2 AND DUP4 MUL SWAP2 SWAP1 SWAP2 OR SWAP3 DUP4 SWAP1 SSTORE PUSH1 0x40 MLOAD PUSH32 0x66D08156B35A3DDC911DAFBC8B10FFDC4E5126B090253256CFA71A80F87AEFEE SWAP4 PUSH2 0x4EA8 SWAP4 SWAP1 DIV SWAP1 SWAP2 AND SWAP1 PUSH2 0x5DA7 JUMP JUMPDEST PUSH1 0x40 MLOAD DUP1 SWAP2 SUB SWAP1 LOG1 PUSH2 0x4EBE PUSH1 0x17 SLOAD PUSH1 0x16 SLOAD PUSH2 0x2787 JUMP JUMPDEST PUSH1 0x17 SSTORE PUSH1 0x1A DUP1 SLOAD PUSH2 0xFFFF NOT AND PUSH1 0x1 OR SWAP1 SSTORE PUSH2 0x4EED JUMP JUMPDEST PUSH1 0x1A DUP1 SLOAD PUSH2 0xFFFF DUP1 DUP3 AND PUSH1 0x1 ADD AND PUSH2 0xFFFF NOT SWAP1 SWAP2 AND OR SWAP1 SSTORE JUMPDEST POP POP PUSH1 0x18 DUP1 SLOAD PUSH8 0xFFFFFFFF00000000 NOT DUP2 AND PUSH1 0x1 PUSH1 0x20 SHL SWAP2 DUP3 SWAP1 DIV PUSH4 0xFFFFFFFF SWAP1 DUP2 AND PUSH1 0x1 ADD DUP2 AND DUP4 MUL SWAP2 SWAP1 SWAP2 OR SWAP3 DUP4 SWAP1 SSTORE SWAP2 DIV AND SWAP1 JUMP JUMPDEST PUSH1 0x1 PUSH1 0x1 PUSH1 0xA0 SHL SUB DUP2 AND PUSH1 0x0 SWAP1 DUP2 MSTORE PUSH1 0x49 PUSH1 0x20 MSTORE PUSH1 0x40 DUP2 KECCAK256 PUSH1 0xE DUP2 ADD SLOAD ISZERO PUSH2 0x4F5F JUMPI PUSH2 0x4F5A DUP2 PUSH1 0xE ADD PUSH1 0x0 DUP2 SLOAD DUP2 LT PUSH2 0x392F JUMPI INVALID JUMPDEST PUSH2 0x27AC JUMP JUMPDEST POP SWAP1 SWAP2 SWAP1 POP JUMP JUMPDEST PUSH1 0x0 DUP1 DUP1 JUMPDEST PUSH1 0x14 DUP2 LT ISZERO PUSH2 0x5196 JUMPI PUSH1 0xA SLOAD PUSH1 0xD DUP6 ADD SLOAD PUSH1 0x1 PUSH1 0x1 PUSH1 0xA0 SHL SUB SWAP1 DUP2 AND SWAP2 AND EQ PUSH2 0x4FBD JUMPI PUSH1 0xD DUP5 ADD SLOAD PUSH1 0x1 PUSH1 0x1 PUSH1 0xA0 SHL SUB AND PUSH1 0x0 SWAP1 DUP2 MSTORE PUSH1 0x49 PUSH1 0x20 MSTORE PUSH1 0x40 SWAP1 KECCAK256 PUSH1 0x1 ADD SLOAD PUSH1 0x1 PUSH1 0x38 SHL SWAP1 DIV PUSH1 0xFF AND PUSH2 0x4FC0 JUMP JUMPDEST PUSH1 0x4 JUMPDEST SWAP3 POP PUSH1 0x1 DUP4 PUSH1 0xFF AND LT ISZERO DUP1 ISZERO PUSH2 0x4FD6 JUMPI POP DUP1 PUSH1 0x1 EQ JUMPDEST ISZERO PUSH2 0x503A JUMPI PUSH2 0x3E8 PUSH1 0x46 PUSH1 0x0 DUP2 SLOAD DUP2 LT PUSH2 0x4FEC JUMPI INVALID JUMPDEST SWAP1 PUSH1 0x0 MSTORE PUSH1 0x20 PUSH1 0x0 KECCAK256 ADD PUSH1 0x2 DUP2 SLOAD DUP2 LT PUSH2 0x5002 JUMPI INVALID JUMPDEST SWAP1 PUSH1 0x0 MSTORE PUSH1 0x20 PUSH1 0x0 KECCAK256 SWAP1 PUSH1 0x20 SWAP2 DUP3 DUP3 DIV ADD SWAP2 SWAP1 MOD SWAP1 SLOAD SWAP1 PUSH2 0x100 EXP SWAP1 DIV PUSH1 0xFF AND PUSH1 0xFF AND DUP6 PUSH1 0x7 ADD SLOAD MUL DUP2 PUSH2 0x5032 JUMPI INVALID JUMPDEST DIV SWAP2 POP PUSH2 0x513A JUMP JUMPDEST PUSH1 0x1 DUP4 PUSH1 0xFF AND LT ISZERO DUP1 ISZERO PUSH2 0x504E JUMPI POP DUP1 PUSH1 0x2 EQ JUMPDEST ISZERO PUSH2 0x5064 JUMPI PUSH2 0x3E8 PUSH1 0x46 PUSH1 0x1 DUP2 SLOAD DUP2 LT PUSH2 0x4FEC JUMPI INVALID JUMPDEST PUSH1 0x2 DUP4 PUSH1 0xFF AND LT ISZERO DUP1 ISZERO PUSH2 0x5079 JUMPI POP PUSH1 0x3 DUP2 LT ISZERO JUMPDEST DUP1 ISZERO PUSH2 0x5086 JUMPI POP PUSH1 0x7 DUP2 GT ISZERO JUMPDEST ISZERO PUSH2 0x509C JUMPI PUSH2 0x3E8 PUSH1 0x46 PUSH1 0x2 DUP2 SLOAD DUP2 LT PUSH2 0x4FEC JUMPI INVALID JUMPDEST PUSH1 0x3 DUP4 PUSH1 0xFF AND LT ISZERO DUP1 ISZERO PUSH2 0x50B1 JUMPI POP PUSH1 0x8 DUP2 LT ISZERO JUMPDEST DUP1 ISZERO PUSH2 0x50BE JUMPI POP PUSH1 0x10 DUP2 GT ISZERO JUMPDEST ISZERO PUSH2 0x50D4 JUMPI PUSH2 0x3E8 PUSH1 0x46 PUSH1 0x3 DUP2 SLOAD DUP2 LT PUSH2 0x4FEC JUMPI INVALID JUMPDEST PUSH1 0x4 DUP4 PUSH1 0xFF AND LT PUSH2 0x513A JUMPI PUSH2 0x3E8 PUSH1 0x46 PUSH1 0x4 DUP2 SLOAD DUP2 LT PUSH2 0x50F0 JUMPI INVALID JUMPDEST SWAP1 PUSH1 0x0 MSTORE PUSH1 0x20 PUSH1 0x0 KECCAK256 ADD PUSH1 0x2 DUP2 SLOAD DUP2 LT PUSH2 0x5106 JUMPI INVALID JUMPDEST SWAP1 PUSH1 0x0 MSTORE PUSH1 0x20 PUSH1 0x0 KECCAK256 SWAP1 PUSH1 0x20 SWAP2 DUP3 DUP3 DIV ADD SWAP2 SWAP1 MOD SWAP1 SLOAD SWAP1 PUSH2 0x100 EXP SWAP1 DIV PUSH1 0xFF AND PUSH1 0xFF AND DUP6 PUSH1 0x7 ADD SLOAD MUL DUP2 PUSH2 0x5136 JUMPI INVALID JUMPDEST DIV SWAP2 POP JUMPDEST DUP2 ISZERO PUSH2 0x518E JUMPI PUSH1 0xA SLOAD PUSH1 0xD DUP6 ADD SLOAD PUSH1 0x1 PUSH1 0x1 PUSH1 0xA0 SHL SUB SWAP1 DUP2 AND SWAP2 AND EQ ISZERO PUSH2 0x5168 JUMPI PUSH1 0xB DUP1 SLOAD DUP4 ADD SWAP1 SSTORE PUSH2 0x5196 JUMP JUMPDEST PUSH1 0xD DUP5 ADD SLOAD PUSH1 0x1 PUSH1 0x1 PUSH1 0xA0 SHL SUB AND PUSH1 0x0 SWAP1 DUP2 MSTORE PUSH1 0x49 PUSH1 0x20 MSTORE PUSH1 0x40 SWAP1 KECCAK256 PUSH1 0x8 ADD DUP1 SLOAD DUP4 ADD SWAP1 SSTORE JUMPDEST PUSH1 0x1 ADD PUSH2 0x4F6B JUMP JUMPDEST POP POP POP POP JUMP JUMPDEST PUSH1 0x40 MLOAD DUP1 PUSH1 0x80 ADD PUSH1 0x40 MSTORE DUP1 PUSH1 0x4 SWAP1 PUSH1 0x20 DUP3 MUL DUP1 CALLDATASIZE DUP4 CALLDATACOPY POP SWAP2 SWAP3 SWAP2 POP POP JUMP JUMPDEST PUSH1 0x40 MLOAD DUP1 PUSH2 0x220 ADD PUSH1 0x40 MSTORE DUP1 PUSH1 0x11 SWAP1 PUSH1 0x20 DUP3 MUL DUP1 CALLDATASIZE DUP4 CALLDATACOPY POP SWAP2 SWAP3 SWAP2 POP POP JUMP JUMPDEST PUSH1 0x40 MLOAD DUP1 PUSH2 0x160 ADD PUSH1 0x40 MSTORE DUP1 PUSH1 0xB SWAP1 PUSH1 0x20 DUP3 MUL DUP1 CALLDATASIZE DUP4 CALLDATACOPY POP SWAP2 SWAP3 SWAP2 POP POP JUMP JUMPDEST PUSH1 0x40 MLOAD DUP1 PUSH2 0x100 ADD PUSH1 0x40 MSTORE DUP1 PUSH1 0x8 SWAP1 PUSH1 0x20 DUP3 MUL DUP1 CALLDATASIZE DUP4 CALLDATACOPY POP SWAP2 SWAP3 SWAP2 POP POP JUMP JUMPDEST PUSH1 0x40 MLOAD DUP1 PUSH1 0x60 ADD PUSH1 0x40 MSTORE DUP1 PUSH1 0x0 DUP2 MSTORE PUSH1 0x20 ADD PUSH1 0x0 DUP2 MSTORE PUSH1 0x20 ADD PUSH1 0x0 DUP2 MSTORE POP SWAP1 JUMP JUMPDEST DUP3 DUP1 SLOAD DUP3 DUP3 SSTORE SWAP1 PUSH1 0x0 MSTORE PUSH1 0x20 PUSH1 0x0 KECCAK256 SWAP1 DUP2 ADD SWAP3 DUP3 ISZERO PUSH2 0x5273 JUMPI SWAP2 PUSH1 0x20 MUL DUP3 ADD JUMPDEST DUP3 DUP2 GT ISZERO PUSH2 0x5273 JUMPI DUP3 MLOAD DUP3 SSTORE SWAP2 PUSH1 0x20 ADD SWAP2 SWAP1 PUSH1 0x1 ADD SWAP1 PUSH2 0x5258 JUMP JUMPDEST POP PUSH2 0x527F SWAP3 SWAP2 POP PUSH2 0x5283 JUMP JUMPDEST POP SWAP1 JUMP JUMPDEST JUMPDEST DUP1 DUP3 GT ISZERO PUSH2 0x527F JUMPI PUSH1 0x0 DUP2 SSTORE PUSH1 0x1 ADD PUSH2 0x5284 JUMP JUMPDEST PUSH1 0x0 PUSH1 0x20 DUP3 DUP5 SUB SLT ISZERO PUSH2 0x52A9 JUMPI DUP1 DUP2 REVERT JUMPDEST DUP2 CALLDATALOAD PUSH2 0x27AC DUP2 PUSH2 0x5E46 JUMP JUMPDEST PUSH1 0x0 DUP1 PUSH1 0x40 DUP4 DUP6 SUB SLT ISZERO PUSH2 0x52C6 JUMPI DUP1 DUP2 REVERT JUMPDEST DUP3 CALLDATALOAD PUSH2 0x52D1 DUP2 PUSH2 0x5E46 JUMP JUMPDEST SWAP2 POP PUSH1 0x20 DUP4 ADD CALLDATALOAD PUSH2 0x52E1 DUP2 PUSH2 0x5E46 JUMP JUMPDEST DUP1 SWAP2 POP POP SWAP3 POP SWAP3 SWAP1 POP JUMP JUMPDEST PUSH1 0x0 DUP1 PUSH1 0x0 DUP1 PUSH1 0x0 PUSH1 0xA0 DUP7 DUP9 SUB SLT ISZERO PUSH2 0x5303 JUMPI DUP1 DUP2 REVERT JUMPDEST DUP6 CALLDATALOAD PUSH2 0x530E DUP2 PUSH2 0x5E46 JUMP JUMPDEST SWAP5 POP PUSH1 0x20 DUP7 ADD CALLDATALOAD PUSH2 0x531E DUP2 PUSH2 0x5E46 JUMP JUMPDEST SWAP4 POP PUSH1 0x40 DUP7 ADD CALLDATALOAD PUSH2 0x532E DUP2 PUSH2 0x5E46 JUMP JUMPDEST SWAP3 POP PUSH1 0x60 DUP7 ADD CALLDATALOAD PUSH2 0x533E DUP2 PUSH2 0x5E46 JUMP JUMPDEST SWAP2 POP PUSH1 0x80 DUP7 ADD CALLDATALOAD PUSH2 0x534E DUP2 PUSH2 0x5E46 JUMP JUMPDEST DUP1 SWAP2 POP POP SWAP3 SWAP6 POP SWAP3 SWAP6 SWAP1 SWAP4 POP JUMP JUMPDEST PUSH1 0x0 DUP1 PUSH1 0x0 PUSH1 0x60 DUP5 DUP7 SUB SLT ISZERO PUSH2 0x5370 JUMPI DUP3 DUP4 REVERT JUMPDEST DUP4 CALLDATALOAD PUSH2 0x537B DUP2 PUSH2 0x5E46 JUMP JUMPDEST SWAP3 POP PUSH1 0x20 DUP5 ADD CALLDATALOAD PUSH2 0x538B DUP2 PUSH2 0x5E46 JUMP JUMPDEST SWAP3 SWAP6 SWAP3 SWAP5 POP POP POP PUSH1 0x40 SWAP2 SWAP1 SWAP2 ADD CALLDATALOAD SWAP1 JUMP JUMPDEST PUSH1 0x0 DUP1 PUSH1 0x40 DUP4 DUP6 SUB SLT ISZERO PUSH2 0x53AE JUMPI DUP2 DUP3 REVERT JUMPDEST DUP3 CALLDATALOAD PUSH2 0x53B9 DUP2 PUSH2 0x5E46 JUMP JUMPDEST SWAP5 PUSH1 0x20 SWAP4 SWAP1 SWAP4 ADD CALLDATALOAD SWAP4 POP POP POP JUMP JUMPDEST PUSH1 0x0 DUP1 PUSH1 0x0 DUP1 PUSH1 0x0 DUP1 PUSH1 0xC0 DUP8 DUP10 SUB SLT ISZERO PUSH2 0x53DF JUMPI DUP1 DUP2 REVERT JUMPDEST DUP7 CALLDATALOAD PUSH2 0x53EA DUP2 PUSH2 0x5E46 JUMP JUMPDEST SWAP6 POP PUSH1 0x20 DUP8 ADD CALLDATALOAD PUSH1 0xFF DUP2 AND DUP2 EQ PUSH2 0x53FF JUMPI DUP2 DUP3 REVERT JUMPDEST SWAP5 POP PUSH1 0x40 DUP8 ADD CALLDATALOAD PUSH2 0x540F DUP2 PUSH2 0x5E46 JUMP JUMPDEST SWAP4 POP PUSH1 0x60 DUP8 ADD CALLDATALOAD PUSH2 0x541F DUP2 PUSH2 0x5E46 JUMP JUMPDEST SWAP3 POP PUSH1 0x80 DUP8 ADD CALLDATALOAD PUSH2 0x542F DUP2 PUSH2 0x5E46 JUMP JUMPDEST SWAP2 POP PUSH1 0xA0 DUP8 ADD CALLDATALOAD PUSH2 0x543F DUP2 PUSH2 0x5E46 JUMP JUMPDEST DUP1 SWAP2 POP POP SWAP3 SWAP6 POP SWAP3 SWAP6 POP SWAP3 SWAP6 JUMP JUMPDEST PUSH1 0x0 PUSH1 0x20 DUP3 DUP5 SUB SLT ISZERO PUSH2 0x545E JUMPI DUP1 DUP2 REVERT JUMPDEST DUP2 MLOAD DUP1 ISZERO ISZERO DUP2 EQ PUSH2 0x27AC JUMPI DUP2 DUP3 REVERT JUMPDEST PUSH1 0x0 PUSH1 0x20 DUP3 DUP5 SUB SLT ISZERO PUSH2 0x547E JUMPI DUP1 DUP2 REVERT JUMPDEST POP CALLDATALOAD SWAP2 SWAP1 POP JUMP JUMPDEST PUSH1 0x0 PUSH1 0x20 DUP3 DUP5 SUB SLT ISZERO PUSH2 0x5496 JUMPI DUP1 DUP2 REVERT JUMPDEST POP MLOAD SWAP2 SWAP1 POP JUMP JUMPDEST PUSH1 0x0 DUP2 MLOAD DUP1 DUP5 MSTORE PUSH1 0x20 DUP1 DUP6 ADD SWAP5 POP DUP1 DUP5 ADD DUP4 JUMPDEST DUP4 DUP2 LT ISZERO PUSH2 0x54D5 JUMPI DUP2 MLOAD PUSH1 0x1 PUSH1 0x1 PUSH1 0xA0 SHL SUB AND DUP8 MSTORE SWAP6 DUP3 ADD SWAP6 SWAP1 DUP3 ADD SWAP1 PUSH1 0x1 ADD PUSH2 0x54B0 JUMP JUMPDEST POP SWAP5 SWAP6 SWAP5 POP POP POP POP POP JUMP JUMPDEST PUSH1 0x0 DUP2 MLOAD DUP1 DUP5 MSTORE PUSH1 0x20 DUP1 DUP6 ADD SWAP5 POP DUP1 DUP5 ADD DUP4 JUMPDEST DUP4 DUP2 LT ISZERO PUSH2 0x54D5 JUMPI DUP2 MLOAD DUP8 MSTORE SWAP6 DUP3 ADD SWAP6 SWAP1 DUP3 ADD SWAP1 PUSH1 0x1 ADD PUSH2 0x54F3 JUMP JUMPDEST PUSH1 0x0 DUP3 MLOAD PUSH2 0x5521 DUP2 DUP5 PUSH1 0x20 DUP8 ADD PUSH2 0x5E1A JUMP JUMPDEST SWAP2 SWAP1 SWAP2 ADD SWAP3 SWAP2 POP POP JUMP JUMPDEST PUSH1 0x1 PUSH1 0x1 PUSH1 0xA0 SHL SUB SWAP2 SWAP1 SWAP2 AND DUP2 MSTORE PUSH1 0x20 ADD SWAP1 JUMP JUMPDEST PUSH1 0x1 PUSH1 0x1 PUSH1 0xA0 SHL SUB SWAP4 DUP5 AND DUP2 MSTORE SWAP2 SWAP1 SWAP3 AND PUSH1 0x20 DUP3 ADD MSTORE PUSH1 0x40 DUP2 ADD SWAP2 SWAP1 SWAP2 MSTORE PUSH1 0x60 ADD SWAP1 JUMP JUMPDEST PUSH1 0x1 PUSH1 0x1 PUSH1 0xA0 SHL SUB SWAP3 SWAP1 SWAP3 AND DUP3 MSTORE PUSH1 0x20 DUP3 ADD MSTORE PUSH1 0x40 ADD SWAP1 JUMP JUMPDEST PUSH1 0x1 PUSH1 0x1 PUSH1 0xA0 SHL SUB SWAP3 SWAP1 SWAP3 AND DUP3 MSTORE PUSH4 0xFFFFFFFF AND PUSH1 0x20 DUP3 ADD MSTORE PUSH1 0x40 ADD SWAP1 JUMP JUMPDEST PUSH1 0x0 PUSH1 0x60 DUP3 MSTORE PUSH2 0x55AE PUSH1 0x60 DUP4 ADD DUP7 PUSH2 0x549D JUMP JUMPDEST DUP3 DUP2 SUB PUSH1 0x20 DUP5 ADD MSTORE PUSH2 0x55C0 DUP2 DUP7 PUSH2 0x54E0 JUMP JUMPDEST SWAP1 POP DUP3 DUP2 SUB PUSH1 0x40 DUP5 ADD MSTORE PUSH2 0x55D4 DUP2 DUP6 PUSH2 0x54E0 JUMP JUMPDEST SWAP7 SWAP6 POP POP POP POP POP POP JUMP JUMPDEST PUSH1 0x20 DUP1 DUP3 MSTORE DUP3 MLOAD DUP3 DUP3 ADD DUP2 SWAP1 MSTORE PUSH1 0x0 SWAP2 SWAP1 DUP5 DUP3 ADD SWAP1 PUSH1 0x40 DUP6 ADD SWAP1 DUP5 JUMPDEST DUP2 DUP2 LT ISZERO PUSH2 0x563A JUMPI DUP4 MLOAD DUP4 DUP8 JUMPDEST PUSH1 0x4 DUP2 LT ISZERO PUSH2 0x5624 JUMPI DUP3 MLOAD DUP3 MSTORE SWAP2 DUP8 ADD SWAP2 SWAP1 DUP8 ADD SWAP1 PUSH1 0x1 ADD PUSH2 0x5607 JUMP JUMPDEST POP POP POP SWAP3 DUP5 ADD SWAP3 PUSH1 0x80 SWAP3 SWAP1 SWAP3 ADD SWAP2 PUSH1 0x1 ADD PUSH2 0x55FA JUMP JUMPDEST POP SWAP1 SWAP7 SWAP6 POP POP POP POP POP POP JUMP JUMPDEST PUSH2 0x160 DUP2 ADD DUP2 DUP4 PUSH1 0x0 JUMPDEST PUSH1 0xB DUP2 LT ISZERO PUSH2 0x566F JUMPI DUP2 MLOAD DUP4 MSTORE PUSH1 0x20 SWAP3 DUP4 ADD SWAP3 SWAP1 SWAP2 ADD SWAP1 PUSH1 0x1 ADD PUSH2 0x5650 JUMP JUMPDEST POP POP POP SWAP3 SWAP2 POP POP JUMP JUMPDEST PUSH2 0x220 DUP2 ADD DUP2 DUP4 PUSH1 0x0 JUMPDEST PUSH1 0x11 DUP2 LT ISZERO PUSH2 0x566F JUMPI DUP2 MLOAD DUP4 MSTORE PUSH1 0x20 SWAP3 DUP4 ADD SWAP3 SWAP1 SWAP2 ADD SWAP1 PUSH1 0x1 ADD PUSH2 0x5682 JUMP JUMPDEST PUSH2 0x100 DUP2 ADD DUP2 DUP4 PUSH1 0x0 JUMPDEST PUSH1 0x8 DUP2 LT ISZERO PUSH2 0x566F JUMPI DUP2 MLOAD DUP4 MSTORE PUSH1 0x20 SWAP3 DUP4 ADD SWAP3 SWAP1 SWAP2 ADD SWAP1 PUSH1 0x1 ADD PUSH2 0x56AB JUMP JUMPDEST SWAP1 ISZERO ISZERO DUP2 MSTORE PUSH1 0x20 ADD SWAP1 JUMP JUMPDEST SWAP5 ISZERO ISZERO DUP6 MSTORE PUSH1 0x20 DUP6 ADD SWAP4 SWAP1 SWAP4 MSTORE PUSH1 0x40 DUP5 ADD SWAP2 SWAP1 SWAP2 MSTORE PUSH1 0x60 DUP4 ADD MSTORE PUSH1 0x80 DUP3 ADD MSTORE PUSH1 0xA0 ADD SWAP1 JUMP JUMPDEST PUSH1 0x0 PUSH1 0x20 DUP3 MSTORE DUP3 MLOAD DUP1 PUSH1 0x20 DUP5 ADD MSTORE PUSH2 0x5719 DUP2 PUSH1 0x40 DUP6 ADD PUSH1 0x20 DUP8 ADD PUSH2 0x5E1A JUMP JUMPDEST PUSH1 0x1F ADD PUSH1 0x1F NOT AND SWAP2 SWAP1 SWAP2 ADD PUSH1 0x40 ADD SWAP3 SWAP2 POP POP JUMP JUMPDEST PUSH1 0x20 DUP1 DUP3 MSTORE PUSH1 0xC SWAP1 DUP3 ADD MSTORE PUSH12 0x11902732B2B22FA0B236B4B7 PUSH1 0xA1 SHL PUSH1 0x40 DUP3 ADD MSTORE PUSH1 0x60 ADD SWAP1 JUMP JUMPDEST PUSH1 0x20 DUP1 DUP3 MSTORE PUSH1 0x1F SWAP1 DUP3 ADD MSTORE PUSH32 0x5472616E7366657248656C7065723A205452414E534645525F4641494C454400 PUSH1 0x40 DUP3 ADD MSTORE PUSH1 0x60 ADD SWAP1 JUMP JUMPDEST PUSH1 0x20 DUP1 DUP3 MSTORE PUSH1 0x16 SWAP1 DUP3 ADD MSTORE PUSH22 0x2320696E76616C69645F7265666572616C5F6C696E6B PUSH1 0x50 SHL PUSH1 0x40 DUP3 ADD MSTORE PUSH1 0x60 ADD SWAP1 JUMP JUMPDEST PUSH1 0x20 DUP1 DUP3 MSTORE PUSH1 0x10 SWAP1 DUP3 ADD MSTORE PUSH16 0x119034B73B30B634B22FB9B2B73232B9 PUSH1 0x81 SHL PUSH1 0x40 DUP3 ADD MSTORE PUSH1 0x60 ADD SWAP1 JUMP JUMPDEST PUSH1 0x20 DUP1 DUP3 MSTORE PUSH1 0x13 SWAP1 DUP3 ADD MSTORE PUSH19 0x496E76616C69645F5265666572616C4C696E6B PUSH1 0x68 SHL PUSH1 0x40 DUP3 ADD MSTORE PUSH1 0x60 ADD SWAP1 JUMP JUMPDEST PUSH1 0x20 DUP1 DUP3 MSTORE PUSH1 0x22 SWAP1 DUP3 ADD MSTORE PUSH32 0x48524332303A20617070726F766520746F20746865207A65726F206164647265 PUSH1 0x40 DUP3 ADD MSTORE PUSH2 0x7373 PUSH1 0xF0 SHL PUSH1 0x60 DUP3 ADD MSTORE PUSH1 0x80 ADD SWAP1 JUMP JUMPDEST PUSH1 0x20 DUP1 DUP3 MSTORE PUSH1 0x26 SWAP1 DUP3 ADD MSTORE PUSH32 0x4F776E61626C653A206E6577206F776E657220697320746865207A65726F2061 PUSH1 0x40 DUP3 ADD MSTORE PUSH6 0x646472657373 PUSH1 0xD0 SHL PUSH1 0x60 DUP3 ADD MSTORE PUSH1 0x80 ADD SWAP1 JUMP JUMPDEST PUSH1 0x20 DUP1 DUP3 MSTORE PUSH1 0x25 SWAP1 DUP3 ADD MSTORE PUSH32 0x48524332303A207472616E736665722066726F6D20746865207A65726F206164 PUSH1 0x40 DUP3 ADD MSTORE PUSH5 0x6472657373 PUSH1 0xD8 SHL PUSH1 0x60 DUP3 ADD MSTORE PUSH1 0x80 ADD SWAP1 JUMP JUMPDEST PUSH1 0x20 DUP1 DUP3 MSTORE PUSH1 0xC SWAP1 DUP3 ADD MSTORE PUSH12 0x8C813DD995C999B1BDDD959 PUSH1 0xA2 SHL PUSH1 0x40 DUP3 ADD MSTORE PUSH1 0x60 ADD SWAP1 JUMP JUMPDEST PUSH1 0x20 DUP1 DUP3 MSTORE PUSH1 0x1B SWAP1 DUP3 ADD MSTORE PUSH32 0x536166654D6174683A206164646974696F6E206F766572666C6F770000000000 PUSH1 0x40 DUP3 ADD MSTORE PUSH1 0x60 ADD SWAP1 JUMP JUMPDEST PUSH1 0x20 DUP1 DUP3 MSTORE PUSH1 0xA SWAP1 DUP3 ADD MSTORE PUSH10 0x13DD995C999B1BDDD959 PUSH1 0xB2 SHL PUSH1 0x40 DUP3 ADD MSTORE PUSH1 0x60 ADD SWAP1 JUMP JUMPDEST PUSH1 0x20 DUP1 DUP3 MSTORE PUSH1 0x11 SWAP1 DUP3 ADD MSTORE PUSH17 0x8C81A5B9D985B1A5917DC9959995C985B PUSH1 0x7A SHL PUSH1 0x40 DUP3 ADD MSTORE PUSH1 0x60 ADD SWAP1 JUMP JUMPDEST PUSH1 0x20 DUP1 DUP3 MSTORE PUSH1 0x10 SWAP1 DUP3 ADD MSTORE PUSH16 0x8C81D1BDBD7DB1BDDD7DA5B9D995CDD PUSH1 0x82 SHL PUSH1 0x40 DUP3 ADD MSTORE PUSH1 0x60 ADD SWAP1 JUMP JUMPDEST PUSH1 0x20 DUP1 DUP3 MSTORE PUSH1 0x1F SWAP1 DUP3 ADD MSTORE PUSH32 0x48524332303A206D696E7420746F20746865207A65726F206164647265737300 PUSH1 0x40 DUP3 ADD MSTORE PUSH1 0x60 ADD SWAP1 JUMP JUMPDEST PUSH1 0x20 DUP1 DUP3 MSTORE PUSH1 0x10 SWAP1 DUP3 ADD MSTORE PUSH16 0x119024B73B30B634B22FB9B2B73232B9 PUSH1 0x81 SHL PUSH1 0x40 DUP3 ADD MSTORE PUSH1 0x60 ADD SWAP1 JUMP JUMPDEST PUSH1 0x20 DUP1 DUP3 MSTORE PUSH1 0xE SWAP1 DUP3 ADD MSTORE PUSH14 0x11902732B2B22F989812AFAA3631 PUSH1 0x91 SHL PUSH1 0x40 DUP3 ADD MSTORE PUSH1 0x60 ADD SWAP1 JUMP JUMPDEST PUSH1 0x20 DUP1 DUP3 MSTORE PUSH1 0xC SWAP1 DUP3 ADD MSTORE PUSH12 0x23204E6565645F704E6F6465 PUSH1 0xA0 SHL PUSH1 0x40 DUP3 ADD MSTORE PUSH1 0x60 ADD SWAP1 JUMP JUMPDEST PUSH1 0x20 DUP1 DUP3 MSTORE PUSH1 0x11 SWAP1 DUP3 ADD MSTORE PUSH17 0x8C8105B1C9958591E57DCDD185C9D1959 PUSH1 0x7A SHL PUSH1 0x40 DUP3 ADD MSTORE PUSH1 0x60 ADD SWAP1 JUMP JUMPDEST PUSH1 0x20 DUP1 DUP3 MSTORE PUSH1 0x21 SWAP1 DUP3 ADD MSTORE PUSH32 0x48524332303A206275726E2066726F6D20746865207A65726F20616464726573 PUSH1 0x40 DUP3 ADD MSTORE PUSH1 0x73 PUSH1 0xF8 SHL PUSH1 0x60 DUP3 ADD MSTORE PUSH1 0x80 ADD SWAP1 JUMP JUMPDEST PUSH1 0x20 DUP1 DUP3 MSTORE PUSH1 0x10 SWAP1 DUP3 ADD MSTORE PUSH16 0x8C81A5B9D985B1A5917DC185C995B9D PUSH1 0x82 SHL PUSH1 0x40 DUP3 ADD MSTORE PUSH1 0x60 ADD SWAP1 JUMP JUMPDEST PUSH1 0x20 DUP1 DUP3 MSTORE DUP2 DUP2 ADD MSTORE PUSH32 0x48524332303A20616C72656164792072656163686564206D6178537570706C79 PUSH1 0x40 DUP3 ADD MSTORE PUSH1 0x60 ADD SWAP1 JUMP JUMPDEST PUSH1 0x20 DUP1 DUP3 MSTORE PUSH1 0xC SWAP1 DUP3 ADD MSTORE PUSH12 0x8C81C5D595D5957D99D5B1B PUSH1 0xA2 SHL PUSH1 0x40 DUP3 ADD MSTORE PUSH1 0x60 ADD SWAP1 JUMP JUMPDEST PUSH1 0x20 DUP1 DUP3 MSTORE PUSH1 0xC SWAP1 DUP3 ADD MSTORE PUSH12 0x34B73B30B634B22FBA34B2B9 PUSH1 0xA1 SHL PUSH1 0x40 DUP3 ADD MSTORE PUSH1 0x60 ADD SWAP1 JUMP JUMPDEST PUSH1 0x20 DUP1 DUP3 MSTORE DUP2 DUP2 ADD MSTORE PUSH32 0x4F776E61626C653A2063616C6C6572206973206E6F7420746865206F776E6572 PUSH1 0x40 DUP3 ADD MSTORE PUSH1 0x60 ADD SWAP1 JUMP JUMPDEST PUSH1 0x20 DUP1 DUP3 MSTORE PUSH1 0x23 SWAP1 DUP3 ADD MSTORE PUSH32 0x48524332303A207472616E7366657220746F20746865207A65726F2061646472 PUSH1 0x40 DUP3 ADD MSTORE PUSH3 0x657373 PUSH1 0xE8 SHL PUSH1 0x60 DUP3 ADD MSTORE PUSH1 0x80 ADD SWAP1 JUMP JUMPDEST PUSH1 0x20 DUP1 DUP3 MSTORE PUSH1 0xC SWAP1 DUP3 ADD MSTORE PUSH12 0x232066756C6C5F7573657273 PUSH1 0xA0 SHL PUSH1 0x40 DUP3 ADD MSTORE PUSH1 0x60 ADD SWAP1 JUMP JUMPDEST PUSH1 0x20 DUP1 DUP3 MSTORE PUSH1 0x13 SWAP1 DUP3 ADD MSTORE PUSH19 0x32BC3832B1BA32B22FBB30B634B22FBA34B2B9 PUSH1 0x69 SHL PUSH1 0x40 DUP3 ADD MSTORE PUSH1 0x60 ADD SWAP1 JUMP JUMPDEST PUSH1 0x20 DUP1 DUP3 MSTORE PUSH1 0xF SWAP1 DUP3 ADD MSTORE PUSH15 0x1A5B9D985B1A5917D858D8DBDD5B9D PUSH1 0x8A SHL PUSH1 0x40 DUP3 ADD MSTORE PUSH1 0x60 ADD SWAP1 JUMP JUMPDEST PUSH1 0x20 DUP1 DUP3 MSTORE PUSH1 0x15 SWAP1 DUP3 ADD MSTORE PUSH21 0x2320696E76616C69645F7265666572616C4C696E6B PUSH1 0x58 SHL PUSH1 0x40 DUP3 ADD MSTORE PUSH1 0x60 ADD SWAP1 JUMP JUMPDEST PUSH1 0x20 DUP1 DUP3 MSTORE PUSH1 0xF SWAP1 DUP3 ADD MSTORE PUSH15 0x119024B73B30B634B22FB6B4B732B9 PUSH1 0x89 SHL PUSH1 0x40 DUP3 ADD MSTORE PUSH1 0x60 ADD SWAP1 JUMP JUMPDEST PUSH1 0x20 DUP1 DUP3 MSTORE PUSH1 0x10 SWAP1 DUP3 ADD MSTORE PUSH16 0x8C8151BDBD7D31BDDD7D25B9D995CDD PUSH1 0x82 SHL PUSH1 0x40 DUP3 ADD MSTORE PUSH1 0x60 ADD SWAP1 JUMP JUMPDEST PUSH1 0x20 DUP1 DUP3 MSTORE PUSH1 0x24 SWAP1 DUP3 ADD MSTORE PUSH32 0x48524332303A20617070726F76652066726F6D20746865207A65726F20616464 PUSH1 0x40 DUP3 ADD MSTORE PUSH4 0x72657373 PUSH1 0xE0 SHL PUSH1 0x60 DUP3 ADD MSTORE PUSH1 0x80 ADD SWAP1 JUMP JUMPDEST PUSH1 0x20 DUP1 DUP3 MSTORE PUSH1 0x24 SWAP1 DUP3 ADD MSTORE PUSH32 0x5472616E7366657248656C7065723A205452414E534645525F46524F4D5F4641 PUSH1 0x40 DUP3 ADD MSTORE PUSH4 0x12531151 PUSH1 0xE2 SHL PUSH1 0x60 DUP3 ADD MSTORE PUSH1 0x80 ADD SWAP1 JUMP JUMPDEST PUSH1 0x20 DUP1 DUP3 MSTORE PUSH1 0x15 SWAP1 DUP3 ADD MSTORE PUSH21 0x23206F766572666C6F775F746F74616C5F6D696E65 PUSH1 0x58 SHL PUSH1 0x40 DUP3 ADD MSTORE PUSH1 0x60 ADD SWAP1 JUMP JUMPDEST PUSH2 0xFFFF SWAP2 SWAP1 SWAP2 AND DUP2 MSTORE PUSH1 0x20 ADD SWAP1 JUMP JUMPDEST SWAP1 DUP2 MSTORE PUSH1 0x20 ADD SWAP1 JUMP JUMPDEST DUP5 DUP2 MSTORE PUSH1 0x1 PUSH1 0x1 PUSH1 0xA0 SHL SUB DUP5 DUP2 AND PUSH1 0x20 DUP4 ADD MSTORE DUP4 AND PUSH1 0x40 DUP3 ADD MSTORE PUSH1 0x80 PUSH1 0x60 DUP3 ADD DUP2 SWAP1 MSTORE PUSH1 0x0 SWAP1 PUSH2 0x55D4 SWAP1 DUP4 ADD DUP5 PUSH2 0x549D JUMP JUMPDEST SWAP4 DUP5 MSTORE PUSH1 0x20 DUP5 ADD SWAP3 SWAP1 SWAP3 MSTORE PUSH1 0x40 DUP4 ADD MSTORE PUSH1 0x60 DUP3 ADD MSTORE PUSH1 0x80 ADD SWAP1 JUMP JUMPDEST PUSH1 0xFF SWAP2 SWAP1 SWAP2 AND DUP2 MSTORE PUSH1 0x20 ADD SWAP1 JUMP JUMPDEST PUSH1 0x0 JUMPDEST DUP4 DUP2 LT ISZERO PUSH2 0x5E35 JUMPI DUP2 DUP2 ADD MLOAD DUP4 DUP3 ADD MSTORE PUSH1 0x20 ADD PUSH2 0x5E1D JUMP JUMPDEST DUP4 DUP2 GT ISZERO PUSH2 0x5196 JUMPI POP POP PUSH1 0x0 SWAP2 ADD MSTORE JUMP JUMPDEST PUSH1 0x1 PUSH1 0x1 PUSH1 0xA0 SHL SUB DUP2 AND DUP2 EQ PUSH2 0x25BB JUMPI PUSH1 0x0 DUP1 REVERT INVALID 0xA9 EQ 0x4A 0x5E PUSH31 0xFD259B8B0D55467F4696ED47EC83317D61501B76366DBCCA65CE7348524332 ADDRESS GASPRICE KECCAK256 PUSH21 0x72616E7366657220616D6F756E7420657863656564 PUSH20 0x2062616C616E636548524332303A206465637265 PUSH2 0x7365 PUSH5 0x20616C6C6F PUSH24 0x616E63652062656C6F77207A65726F48524332303A207472 PUSH2 0x6E73 PUSH7 0x657220616D6F75 PUSH15 0x74206578636565647320616C6C6F77 PUSH2 0x6E63 PUSH6 0x48524332303A KECCAK256 PUSH3 0x75726E KECCAK256 PUSH2 0x6D6F PUSH22 0x6E7420657863656564732062616C616E6365A2646970 PUSH7 0x73582212204726 0xAE SWAP10 PUSH25 0x5DB63FE9C5B862117CEEEB823F123BCF603425790C1433D8A9 PUSH19 0xB164736F6C634300060C003300000000000000 "
		},
		"gasEstimates": {
			"creation": {
				"codeDepositCost": "4878000",
				"executionCost": "infinite",
				"totalCost": "infinite"
			},
			"external": {
				"_maxSupply()": "1118",
				"_test_MinerPrice(uint256)": "6511",
				"_test_admin(address,address,address,address,address)": "infinite",
				"_test_approve(address,address,uint256)": "infinite",
				"_test_buyMiner(address,address,uint256)": "infinite",
				"_test_deposit(address,address,uint256)": "infinite",
				"_test_mint(address,uint256)": "infinite",
				"_totalSupply()": "1162",
				"accountInfo(address)": "infinite",
				"allowance(address,address)": "infinite",
				"amountForDeposit(uint256)": "2090",
				"amountForWithdraw(address)": "6500",
				"approve(address,uint256)": "22669",
				"balanceOf(address)": "1375",
				"basicInfo()": "3768",
				"buy(uint256)": "infinite",
				"buyMiner(address,uint256)": "infinite",
				"cancelBuyOrder()": "infinite",
				"cancelSellOrder()": "infinite",
				"checkInsurance()": "infinite",
				"contractInfo()": "infinite",
				"decimals()": "1202",
				"decreaseAllowance(address,uint256)": "infinite",
				"deposit(address,uint256)": "infinite",
				"firstAddress()": "1180",
				"getOwner()": "1151",
				"increaseAllowance(address,uint256)": "infinite",
				"initContract(address,uint8,address,address,address,address)": "infinite",
				"maxSupply()": "1095",
				"mineInfo(address)": "infinite",
				"minerList()": "infinite",
				"mint(uint256)": "infinite",
				"name()": "infinite",
				"nodeinfo(address)": "infinite",
				"orderHistory()": "infinite",
				"owner()": "1160",
				"pendingOrder(address)": "infinite",
				"profits(address)": "infinite",
				"renounceOwnership()": "24337",
				"safetransfer(address,address,uint256)": "infinite",
				"sell(uint256)": "infinite",
				"startMine()": "infinite",
				"symbol()": "infinite",
				"totalSupply()": "1074",
				"transfer(address,uint256)": "infinite",
				"transferFrom(address,address,uint256)": "infinite",
				"transferOwnership(address)": "infinite",
				"withdraw()": "infinite",
				"withdrawFromPool()": "infinite"
			},
			"internal": {
				"_buy(address,uint256)": "infinite",
				"_buyMiner(address,address,uint256)": "infinite",
				"_childrenInfo(address,uint256,uint256,uint256)": "infinite",
				"_childrenInfoAll(address,uint256)": "infinite",
				"_deposit(address,address,uint256,uint256)": "infinite",
				"_insuranceAmount()": "infinite",
				"_minerPrice(uint256)": "infinite",
				"_pendingPool(address)": "5915",
				"_processSellOrder()": "infinite",
				"_sell(address,uint256)": "infinite",
				"_startMine(address)": "infinite",
				"_staticRewardOf(struct ITLB10.Node storage pointer,uint256)": "7660",
				"_totalUsdtBalance()": "infinite",
				"_updateDynamicRewardsAllParentNode(struct ITLB10.Node storage pointer)": "infinite",
				"addUserToPrism()": "infinite",
				"getLastInBranch(address)": "infinite",
				"getTier(uint256)": "infinite"
			}
		},
		"methodIdentifiers": {
			"_maxSupply()": "22f4596f",
			"_test_MinerPrice(uint256)": "bdc42a7a",
			"_test_admin(address,address,address,address,address)": "f656f562",
			"_test_approve(address,address,uint256)": "9bf00117",
			"_test_buyMiner(address,address,uint256)": "440565af",
			"_test_deposit(address,address,uint256)": "c7111063",
			"_test_mint(address,uint256)": "5da4c926",
			"_totalSupply()": "3eaaf86b",
			"accountInfo(address)": "a7310b58",
			"allowance(address,address)": "dd62ed3e",
			"amountForDeposit(uint256)": "99eb9576",
			"amountForWithdraw(address)": "0e25a441",
			"approve(address,uint256)": "095ea7b3",
			"balanceOf(address)": "70a08231",
			"basicInfo()": "ee0a3951",
			"buy(uint256)": "d96a094a",
			"buyMiner(address,uint256)": "8a43bb01",
			"cancelBuyOrder()": "5ee4462c",
			"cancelSellOrder()": "39b50688",
			"checkInsurance()": "36fdde7c",
			"contractInfo()": "15c43aaf",
			"decimals()": "313ce567",
			"decreaseAllowance(address,uint256)": "a457c2d7",
			"deposit(address,uint256)": "47e7ef24",
			"firstAddress()": "f697ddb2",
			"getOwner()": "893d20e8",
			"increaseAllowance(address,uint256)": "39509351",
			"initContract(address,uint8,address,address,address,address)": "df8251fb",
			"maxSupply()": "d5abeb01",
			"mineInfo(address)": "1701a82a",
			"minerList()": "e87f2cce",
			"mint(uint256)": "a0712d68",
			"name()": "06fdde03",
			"nodeinfo(address)": "fd125ece",
			"orderHistory()": "1e71615b",
			"owner()": "8da5cb5b",
			"pendingOrder(address)": "003f7a89",
			"profits(address)": "cc85f080",
			"renounceOwnership()": "715018a6",
			"safetransfer(address,address,uint256)": "84163551",
			"sell(uint256)": "e4849b32",
			"startMine()": "ed73ee25",
			"symbol()": "95d89b41",
			"totalSupply()": "18160ddd",
			"transfer(address,uint256)": "a9059cbb",
			"transferFrom(address,address,uint256)": "23b872dd",
			"transferOwnership(address)": "f2fde38b",
			"withdraw()": "3ccfd60b",
			"withdrawFromPool()": "26c0e5c5"
		}
	},
	"abi": [
		{
			"inputs": [],
			"stateMutability": "nonpayable",
			"type": "constructor"
		},
		{
			"anonymous": false,
			"inputs": [
				{
					"indexed": false,
					"internalType": "uint256",
					"name": "layer",
					"type": "uint256"
				}
			],
			"name": "AddLayer",
			"type": "event"
		},
		{
			"anonymous": false,
			"inputs": [
				{
					"indexed": false,
					"internalType": "address",
					"name": "guest",
					"type": "address"
				},
				{
					"indexed": false,
					"internalType": "uint256",
					"name": "amount",
					"type": "uint256"
				}
			],
			"name": "AddUser",
			"type": "event"
		},
		{
			"anonymous": false,
			"inputs": [
				{
					"indexed": true,
					"internalType": "address",
					"name": "owner",
					"type": "address"
				},
				{
					"indexed": true,
					"internalType": "address",
					"name": "spender",
					"type": "address"
				},
				{
					"indexed": false,
					"internalType": "uint256",
					"name": "value",
					"type": "uint256"
				}
			],
			"name": "Approval",
			"type": "event"
		},
		{
			"anonymous": false,
			"inputs": [
				{
					"indexed": false,
					"internalType": "address",
					"name": "guest",
					"type": "address"
				},
				{
					"indexed": false,
					"internalType": "uint256",
					"name": "amount",
					"type": "uint256"
				}
			],
			"name": "BuyOrderAdded",
			"type": "event"
		},
		{
			"anonymous": false,
			"inputs": [
				{
					"indexed": false,
					"internalType": "address",
					"name": "guest",
					"type": "address"
				},
				{
					"indexed": false,
					"internalType": "uint256",
					"name": "amount",
					"type": "uint256"
				}
			],
			"name": "BuyOrderCancelled",
			"type": "event"
		},
		{
			"anonymous": false,
			"inputs": [
				{
					"indexed": true,
					"internalType": "address",
					"name": "previousOwner",
					"type": "address"
				},
				{
					"indexed": true,
					"internalType": "address",
					"name": "newOwner",
					"type": "address"
				}
			],
			"name": "OwnershipTransferred",
			"type": "event"
		},
		{
			"anonymous": false,
			"inputs": [
				{
					"indexed": false,
					"internalType": "address",
					"name": "guest",
					"type": "address"
				},
				{
					"indexed": false,
					"internalType": "uint256",
					"name": "amount",
					"type": "uint256"
				}
			],
			"name": "SellOrderAdded",
			"type": "event"
		},
		{
			"anonymous": false,
			"inputs": [
				{
					"indexed": false,
					"internalType": "address",
					"name": "guest",
					"type": "address"
				},
				{
					"indexed": false,
					"internalType": "uint256",
					"name": "amount",
					"type": "uint256"
				}
			],
			"name": "SellOrderCancelled",
			"type": "event"
		},
		{
			"anonymous": false,
			"inputs": [
				{
					"indexed": true,
					"internalType": "address",
					"name": "from",
					"type": "address"
				},
				{
					"indexed": true,
					"internalType": "address",
					"name": "to",
					"type": "address"
				},
				{
					"indexed": false,
					"internalType": "uint256",
					"name": "value",
					"type": "uint256"
				}
			],
			"name": "Transfer",
			"type": "event"
		},
		{
			"anonymous": false,
			"inputs": [
				{
					"indexed": false,
					"internalType": "address",
					"name": "guest",
					"type": "address"
				},
				{
					"indexed": false,
					"internalType": "uint256",
					"name": "amount",
					"type": "uint256"
				}
			],
			"name": "UpdateUser",
			"type": "event"
		},
		{
			"inputs": [],
			"name": "_maxSupply",
			"outputs": [
				{
					"internalType": "uint256",
					"name": "",
					"type": "uint256"
				}
			],
			"stateMutability": "view",
			"type": "function"
		},
		{
			"inputs": [
				{
					"internalType": "uint256",
					"name": "tier",
					"type": "uint256"
				}
			],
			"name": "_test_MinerPrice",
			"outputs": [
				{
					"internalType": "uint256",
					"name": "",
					"type": "uint256"
				}
			],
			"stateMutability": "view",
			"type": "function"
		},
		{
			"inputs": [
				{
					"internalType": "address",
					"name": "usdtAddress",
					"type": "address"
				},
				{
					"internalType": "address",
					"name": "adminAddress",
					"type": "address"
				},
				{
					"internalType": "address",
					"name": "lee",
					"type": "address"
				},
				{
					"internalType": "address",
					"name": "zhang",
					"type": "address"
				},
				{
					"internalType": "address",
					"name": "redeem",
					"type": "address"
				}
			],
			"name": "_test_admin",
			"outputs": [],
			"stateMutability": "nonpayable",
			"type": "function"
		},
		{
			"inputs": [
				{
					"internalType": "address",
					"name": "sender",
					"type": "address"
				},
				{
					"internalType": "address",
					"name": "spender",
					"type": "address"
				},
				{
					"internalType": "uint256",
					"name": "amount",
					"type": "uint256"
				}
			],
			"name": "_test_approve",
			"outputs": [],
			"stateMutability": "nonpayable",
			"type": "function"
		},
		{
			"inputs": [
				{
					"internalType": "address",
					"name": "sender",
					"type": "address"
				},
				{
					"internalType": "address",
					"name": "referalLink",
					"type": "address"
				},
				{
					"internalType": "uint256",
					"name": "tier",
					"type": "uint256"
				}
			],
			"name": "_test_buyMiner",
			"outputs": [],
			"stateMutability": "nonpayable",
			"type": "function"
		},
		{
			"inputs": [
				{
					"internalType": "address",
					"name": "sender",
					"type": "address"
				},
				{
					"internalType": "address",
					"name": "referalLink",
					"type": "address"
				},
				{
					"internalType": "uint256",
					"name": "amount",
					"type": "uint256"
				}
			],
			"name": "_test_deposit",
			"outputs": [],
			"stateMutability": "nonpayable",
			"type": "function"
		},
		{
			"inputs": [
				{
					"internalType": "address",
					"name": "sender",
					"type": "address"
				},
				{
					"internalType": "uint256",
					"name": "amount",
					"type": "uint256"
				}
			],
			"name": "_test_mint",
			"outputs": [],
			"stateMutability": "nonpayable",
			"type": "function"
		},
		{
			"inputs": [],
			"name": "_totalSupply",
			"outputs": [
				{
					"internalType": "uint256",
					"name": "",
					"type": "uint256"
				}
			],
			"stateMutability": "view",
			"type": "function"
		},
		{
			"inputs": [
				{
					"internalType": "address",
					"name": "account",
					"type": "address"
				}
			],
			"name": "accountInfo",
			"outputs": [
				{
					"internalType": "uint256[8]",
					"name": "",
					"type": "uint256[8]"
				}
			],
			"stateMutability": "view",
			"type": "function"
		},
		{
			"inputs": [
				{
					"internalType": "address",
					"name": "owner",
					"type": "address"
				},
				{
					"internalType": "address",
					"name": "spender",
					"type": "address"
				}
			],
			"name": "allowance",
			"outputs": [
				{
					"internalType": "uint256",
					"name": "",
					"type": "uint256"
				}
			],
			"stateMutability": "view",
			"type": "function"
		},
		{
			"inputs": [
				{
					"internalType": "uint256",
					"name": "amount",
					"type": "uint256"
				}
			],
			"name": "amountForDeposit",
			"outputs": [
				{
					"internalType": "uint256",
					"name": "",
					"type": "uint256"
				}
			],
			"stateMutability": "view",
			"type": "function"
		},
		{
			"inputs": [
				{
					"internalType": "address",
					"name": "account",
					"type": "address"
				}
			],
			"name": "amountForWithdraw",
			"outputs": [
				{
					"internalType": "uint256",
					"name": "",
					"type": "uint256"
				}
			],
			"stateMutability": "view",
			"type": "function"
		},
		{
			"inputs": [
				{
					"internalType": "address",
					"name": "spender",
					"type": "address"
				},
				{
					"internalType": "uint256",
					"name": "amount",
					"type": "uint256"
				}
			],
			"name": "approve",
			"outputs": [
				{
					"internalType": "bool",
					"name": "",
					"type": "bool"
				}
			],
			"stateMutability": "nonpayable",
			"type": "function"
		},
		{
			"inputs": [
				{
					"internalType": "address",
					"name": "account",
					"type": "address"
				}
			],
			"name": "balanceOf",
			"outputs": [
				{
					"internalType": "uint256",
					"name": "",
					"type": "uint256"
				}
			],
			"stateMutability": "view",
			"type": "function"
		},
		{
			"inputs": [],
			"name": "basicInfo",
			"outputs": [
				{
					"internalType": "uint256",
					"name": "",
					"type": "uint256"
				},
				{
					"internalType": "uint256",
					"name": "",
					"type": "uint256"
				},
				{
					"internalType": "uint256",
					"name": "",
					"type": "uint256"
				},
				{
					"internalType": "uint256",
					"name": "",
					"type": "uint256"
				}
			],
			"stateMutability": "view",
			"type": "function"
		},
		{
			"inputs": [
				{
					"internalType": "uint256",
					"name": "amountUsdt",
					"type": "uint256"
				}
			],
			"name": "buy",
			"outputs": [],
			"stateMutability": "nonpayable",
			"type": "function"
		},
		{
			"inputs": [
				{
					"internalType": "address",
					"name": "referalLink",
					"type": "address"
				},
				{
					"internalType": "uint256",
					"name": "amountUsdt",
					"type": "uint256"
				}
			],
			"name": "buyMiner",
			"outputs": [],
			"stateMutability": "nonpayable",
			"type": "function"
		},
		{
			"inputs": [],
			"name": "cancelBuyOrder",
			"outputs": [],
			"stateMutability": "nonpayable",
			"type": "function"
		},
		{
			"inputs": [],
			"name": "cancelSellOrder",
			"outputs": [],
			"stateMutability": "nonpayable",
			"type": "function"
		},
		{
			"inputs": [],
			"name": "checkInsurance",
			"outputs": [],
			"stateMutability": "nonpayable",
			"type": "function"
		},
		{
			"inputs": [],
			"name": "contractInfo",
			"outputs": [
				{
					"internalType": "uint256[17]",
					"name": "",
					"type": "uint256[17]"
				}
			],
			"stateMutability": "view",
			"type": "function"
		},
		{
			"inputs": [],
			"name": "decimals",
			"outputs": [
				{
					"internalType": "uint8",
					"name": "",
					"type": "uint8"
				}
			],
			"stateMutability": "view",
			"type": "function"
		},
		{
			"inputs": [
				{
					"internalType": "address",
					"name": "spender",
					"type": "address"
				},
				{
					"internalType": "uint256",
					"name": "subtractedValue",
					"type": "uint256"
				}
			],
			"name": "decreaseAllowance",
			"outputs": [
				{
					"internalType": "bool",
					"name": "",
					"type": "bool"
				}
			],
			"stateMutability": "nonpayable",
			"type": "function"
		},
		{
			"inputs": [
				{
					"internalType": "address",
					"name": "referalLink",
					"type": "address"
				},
				{
					"internalType": "uint256",
					"name": "amount",
					"type": "uint256"
				}
			],
			"name": "deposit",
			"outputs": [],
			"stateMutability": "nonpayable",
			"type": "function"
		},
		{
			"inputs": [],
			"name": "firstAddress",
			"outputs": [
				{
					"internalType": "address",
					"name": "",
					"type": "address"
				}
			],
			"stateMutability": "view",
			"type": "function"
		},
		{
			"inputs": [],
			"name": "getOwner",
			"outputs": [
				{
					"internalType": "address",
					"name": "",
					"type": "address"
				}
			],
			"stateMutability": "view",
			"type": "function"
		},
		{
			"inputs": [
				{
					"internalType": "address",
					"name": "spender",
					"type": "address"
				},
				{
					"internalType": "uint256",
					"name": "addedValue",
					"type": "uint256"
				}
			],
			"name": "increaseAllowance",
			"outputs": [
				{
					"internalType": "bool",
					"name": "",
					"type": "bool"
				}
			],
			"stateMutability": "nonpayable",
			"type": "function"
		},
		{
			"inputs": [
				{
					"internalType": "address",
					"name": "usdtToken",
					"type": "address"
				},
				{
					"internalType": "uint8",
					"name": "usdtPrecision",
					"type": "uint8"
				},
				{
					"internalType": "address",
					"name": "admin",
					"type": "address"
				},
				{
					"internalType": "address",
					"name": "lee",
					"type": "address"
				},
				{
					"internalType": "address",
					"name": "zhang",
					"type": "address"
				},
				{
					"internalType": "address",
					"name": "redeem",
					"type": "address"
				}
			],
			"name": "initContract",
			"outputs": [],
			"stateMutability": "nonpayable",
			"type": "function"
		},
		{
			"inputs": [],
			"name": "maxSupply",
			"outputs": [
				{
					"internalType": "uint256",
					"name": "",
					"type": "uint256"
				}
			],
			"stateMutability": "view",
			"type": "function"
		},
		{
			"inputs": [
				{
					"internalType": "address",
					"name": "account",
					"type": "address"
				}
			],
			"name": "mineInfo",
			"outputs": [
				{
					"internalType": "uint256[11]",
					"name": "",
					"type": "uint256[11]"
				}
			],
			"stateMutability": "view",
			"type": "function"
		},
		{
			"inputs": [],
			"name": "minerList",
			"outputs": [
				{
					"internalType": "address[]",
					"name": "",
					"type": "address[]"
				},
				{
					"internalType": "uint256[]",
					"name": "",
					"type": "uint256[]"
				},
				{
					"internalType": "uint256[]",
					"name": "",
					"type": "uint256[]"
				}
			],
			"stateMutability": "view",
			"type": "function"
		},
		{
			"inputs": [
				{
					"internalType": "uint256",
					"name": "amount",
					"type": "uint256"
				}
			],
			"name": "mint",
			"outputs": [
				{
					"internalType": "bool",
					"name": "",
					"type": "bool"
				}
			],
			"stateMutability": "nonpayable",
			"type": "function"
		},
		{
			"inputs": [],
			"name": "name",
			"outputs": [
				{
					"internalType": "string",
					"name": "",
					"type": "string"
				}
			],
			"stateMutability": "view",
			"type": "function"
		},
		{
			"inputs": [
				{
					"internalType": "address",
					"name": "sender",
					"type": "address"
				}
			],
			"name": "nodeinfo",
			"outputs": [
				{
					"internalType": "uint256",
					"name": "",
					"type": "uint256"
				},
				{
					"internalType": "address",
					"name": "",
					"type": "address"
				},
				{
					"internalType": "address",
					"name": "",
					"type": "address"
				},
				{
					"internalType": "address[]",
					"name": "",
					"type": "address[]"
				}
			],
			"stateMutability": "view",
			"type": "function"
		},
		{
			"inputs": [],
			"name": "orderHistory",
			"outputs": [
				{
					"internalType": "uint256[4][]",
					"name": "",
					"type": "uint256[4][]"
				}
			],
			"stateMutability": "view",
			"type": "function"
		},
		{
			"inputs": [],
			"name": "owner",
			"outputs": [
				{
					"internalType": "address payable",
					"name": "",
					"type": "address"
				}
			],
			"stateMutability": "view",
			"type": "function"
		},
		{
			"inputs": [
				{
					"internalType": "address",
					"name": "account",
					"type": "address"
				}
			],
			"name": "pendingOrder",
			"outputs": [
				{
					"internalType": "uint256[4][]",
					"name": "",
					"type": "uint256[4][]"
				}
			],
			"stateMutability": "view",
			"type": "function"
		},
		{
			"inputs": [
				{
					"internalType": "address",
					"name": "account",
					"type": "address"
				}
			],
			"name": "profits",
			"outputs": [
				{
					"internalType": "bool",
					"name": "",
					"type": "bool"
				},
				{
					"internalType": "uint256",
					"name": "",
					"type": "uint256"
				},
				{
					"internalType": "uint256",
					"name": "",
					"type": "uint256"
				},
				{
					"internalType": "uint256",
					"name": "",
					"type": "uint256"
				},
				{
					"internalType": "uint256",
					"name": "",
					"type": "uint256"
				}
			],
			"stateMutability": "view",
			"type": "function"
		},
		{
			"inputs": [],
			"name": "renounceOwnership",
			"outputs": [],
			"stateMutability": "nonpayable",
			"type": "function"
		},
		{
			"inputs": [
				{
					"internalType": "address",
					"name": "token",
					"type": "address"
				},
				{
					"internalType": "address",
					"name": "to",
					"type": "address"
				},
				{
					"internalType": "uint256",
					"name": "value",
					"type": "uint256"
				}
			],
			"name": "safetransfer",
			"outputs": [
				{
					"internalType": "bool",
					"name": "",
					"type": "bool"
				}
			],
			"stateMutability": "nonpayable",
			"type": "function"
		},
		{
			"inputs": [
				{
					"internalType": "uint256",
					"name": "amountTlb",
					"type": "uint256"
				}
			],
			"name": "sell",
			"outputs": [],
			"stateMutability": "nonpayable",
			"type": "function"
		},
		{
			"inputs": [],
			"name": "startMine",
			"outputs": [],
			"stateMutability": "nonpayable",
			"type": "function"
		},
		{
			"inputs": [],
			"name": "symbol",
			"outputs": [
				{
					"internalType": "string",
					"name": "",
					"type": "string"
				}
			],
			"stateMutability": "view",
			"type": "function"
		},
		{
			"inputs": [],
			"name": "totalSupply",
			"outputs": [
				{
					"internalType": "uint256",
					"name": "",
					"type": "uint256"
				}
			],
			"stateMutability": "view",
			"type": "function"
		},
		{
			"inputs": [
				{
					"internalType": "address",
					"name": "recipient",
					"type": "address"
				},
				{
					"internalType": "uint256",
					"name": "amount",
					"type": "uint256"
				}
			],
			"name": "transfer",
			"outputs": [
				{
					"internalType": "bool",
					"name": "",
					"type": "bool"
				}
			],
			"stateMutability": "nonpayable",
			"type": "function"
		},
		{
			"inputs": [
				{
					"internalType": "address",
					"name": "sender",
					"type": "address"
				},
				{
					"internalType": "address",
					"name": "recipient",
					"type": "address"
				},
				{
					"internalType": "uint256",
					"name": "amount",
					"type": "uint256"
				}
			],
			"name": "transferFrom",
			"outputs": [
				{
					"internalType": "bool",
					"name": "",
					"type": "bool"
				}
			],
			"stateMutability": "nonpayable",
			"type": "function"
		},
		{
			"inputs": [
				{
					"internalType": "address payable",
					"name": "newOwner",
					"type": "address"
				}
			],
			"name": "transferOwnership",
			"outputs": [],
			"stateMutability": "nonpayable",
			"type": "function"
		},
		{
			"inputs": [],
			"name": "withdraw",
			"outputs": [],
			"stateMutability": "nonpayable",
			"type": "function"
		},
		{
			"inputs": [],
			"name": "withdrawFromPool",
			"outputs": [],
			"stateMutability": "nonpayable",
			"type": "function"
		}
	]
}