{
	"data": {
		"bytecode": {
			"linkReferences": {},
			"object": "608060405260078054610100600160a81b031916749defb199a6cdbfbaffe8c1c712f469e5c900a4de001760ff60a81b1916600160a91b179081905560ff600160a81b90910416600a0a600881905561271060095560649004601655600a600854816200006857fe5b046017556018805465ffffffffffff60201b1963ffffffff19909116620f42401716905560006019819055601a805461ffff191690556301abbc00601b55601c81905542601d55610e10601e55601f81905560209081556040805161010081018252600160a0820181815260c083019190915260c860e08301528152815160608181018452600280835282860152609682850152828501919091528251808201845260038152600781860152606481850152828401528251808201845260088152600f818601526032818501528183015282519081018352601081526014938101849052918201929092526080820152620001689060469060056200083b565b5060405180608001604052806040518060800160405280600854613a980281526020016064815260200160648152602001601e81525081526020016040518060800160405280600854611d4c0281526020016032815260200160328152602001601481525081526020016040518060800160405280600854610dac0281526020016019815260200160198152602001600a81525081526020016040518060800160405280600854606402815260200160058152602001600a8152602001600581525081525060549060046200023f92919062000899565b503480156200024d57600080fd5b506040518060400160405280600b81526020016a544c42205374616b696e6760a81b815250604051806040016040528060038152602001622a262160e91b815250600464519577b0006000620002a8620006e360201b60201c565b600080546001600160a01b0319166001600160a01b0383169081178255604051929350917f8be0079c531659141344cd1fd0a4f28419497f9722a3daafe3b4186f6b6457e0908290a350835162000307906005906020870190620008f3565b5082516200031d906006906020860190620008f3565b506007805460ff191660ff93909316929092179091556004555060009050606462000347620006e7565b601402816200035257fe5b049050620003613382620006ed565b604a6040518060a00160405280600160ff16815260200160085460c8028152602001601060ff168152602001600160ff168152602001610898815250908060018154018082558091505060019003906000526020600020906004020160009091909190915060008201518160000160006101000a81548160ff021916908360ff1602179055506020820151816001015560408201518160020160006101000a81548160ff021916908360ff16021790555060608201518160020160016101000a81548160ff021916908360ff160217905550608082015181600301555050604a6040518060a00160405280600260ff1681526020016008546103e9028152602001600e60ff168152602001600260ff168152602001610834815250908060018154018082558091505060019003906000526020600020906004020160009091909190915060008201518160000160006101000a81548160ff021916908360ff1602179055506020820151816001015560408201518160020160006101000a81548160ff021916908360ff16021790555060608201518160020160016101000a81548160ff021916908360ff160217905550608082015181600301555050604a6040518060a00160405280600360ff1681526020016008546107d1028152602001600c60ff168152602001600360ff1681526020016107d0815250908060018154018082558091505060019003906000526020600020906004020160009091909190915060008201518160000160006101000a81548160ff021916908360ff1602179055506020820151816001015560408201518160020160006101000a81548160ff021916908360ff16021790555060608201518160020160016101000a81548160ff021916908360ff160217905550608082015181600301555050604a6040518060a00160405280600460ff168152602001600854611389028152602001600a60ff168152602001600460ff16815260200161076c815250908060018154018082558091505060019003906000526020600020906004020160009091909190915060008201518160000160006101000a81548160ff021916908360ff1602179055506020820151816001015560408201518160020160006101000a81548160ff021916908360ff16021790555060608201518160020160016101000a81548160ff021916908360ff1602179055506080820151816003015550505062000bc4565b3390565b60045490565b6001600160a01b0382166200071f5760405162461bcd60e51b8152600401620007169062000b4f565b60405180910390fd5b6004546200073e826003546200080c60201b620026761790919060201c565b106200075e5760405162461bcd60e51b8152600401620007169062000b86565b6200077a816003546200080c60201b620026761790919060201c565b6003556001600160a01b038216600090815260016020908152604090912054620007af918390620026766200080c821b17901c565b6001600160a01b0383166000818152600160205260408082209390935591519091907fddf252ad1be2c89b69c2b068fc378daa952ba7f163c4a11628f55a4df523b3ef906200080090859062000bbb565b60405180910390a35050565b600082820183811015620008345760405162461bcd60e51b8152600401620007169062000b18565b9392505050565b82805482825590600052602060002090810192821562000887579160200282015b828111156200088757825162000876908390600362000974565b50916020019190600101906200085c565b506200089592915062000a1d565b5090565b828054828255906000526020600020908101928215620008e5579160200282015b82811115620008e5578251620008d4908390600462000a3e565b5091602001919060010190620008ba565b506200089592915062000a7b565b828054600181600116156101000203166002900490600052602060002090601f016020900481019282601f106200093657805160ff191683800117855562000966565b8280016001018555821562000966579182015b828111156200096657825182559160200191906001019062000949565b506200089592915062000a9c565b82805482825590600052602060002090601f0160209004810192821562000a0f5791602002820160005b83821115620009de57835183826101000a81548160ff021916908360ff16021790555092602001926001016020816000010492830192600103026200099e565b801562000a0d5782816101000a81549060ff0219169055600101602081600001049283019260010302620009de565b505b506200089592915062000ab3565b808211156200089557600062000a34828262000ace565b5060010162000a1d565b8280548282559060005260206000209081019282156200096657916020028201828111156200096657825182559160200191906001019062000949565b808211156200089557600062000a92828262000af8565b5060010162000a7b565b5b8082111562000895576000815560010162000a9d565b5b808211156200089557805460ff1916815560010162000ab4565b50805460008255601f01602090049060005260206000209081019062000af5919062000a9c565b50565b508054600082559060005260206000209081019062000af5919062000a9c565b6020808252601b908201527f536166654d6174683a206164646974696f6e206f766572666c6f770000000000604082015260600190565b6020808252601f908201527f48524332303a206d696e7420746f20746865207a65726f206164647265737300604082015260600190565b6020808252818101527f48524332303a20616c72656164792072656163686564206d6178537570706c79604082015260600190565b90815260200190565b615ddf8062000bd46000396000f3fe608060405234801561001057600080fd5b506004361061029f5760003560e01c8063893d20e811610167578063cc85f080116100ce578063ed73ee2511610087578063ed73ee251461059f578063f2218f56146105a7578063f2fde38b146105ba578063f656f562146105cd578063f697ddb2146105e0578063fd125ece146105e85761029f565b8063cc85f08014610525578063d5abeb0114610549578063d96a094a14610551578063dd62ed3e14610564578063e4849b3214610577578063e87f2cce1461058a5761029f565b8063a0712d6811610120578063a0712d68146104a6578063a457c2d7146104b9578063a7310b58146104cc578063a9059cbb146104ec578063bdc42a7a146104ff578063c7111063146105125761029f565b8063893d20e8146104485780638a43bb011461045d5780638da5cb5b1461047057806395d89b411461047857806399eb9576146104805780639bf00117146104935761029f565b806336fdde7c1161020b57806347e7ef24116101c457806347e7ef24146103e75780635da4c926146103fa5780635ee4462c1461040d5780636cb444281461041557806370a082311461042d578063715018a6146104405761029f565b806336fdde7c146103a157806339509351146103a957806339b50688146103bc5780633ccfd60b146103c45780633eaaf86b146103cc578063440565af146103d45761029f565b806318160ddd1161025d57806318160ddd146103575780631e71615b1461035f57806322f4596f1461036757806323b872dd1461036f57806326c0e5c514610382578063313ce5671461038c5761029f565b80623f7a89146102a457806306fdde03146102cd578063095ea7b3146102e25780630e25a4411461030257806315c43aaf146103225780631701a82a14610337575b600080fd5b6102b76102b2366004615254565b61060a565b6040516102c491906154ba565b60405180910390f35b6102d5610927565b6040516102c49190615643565b6102f56102f03660046153b3565b6109bd565b6040516102c49190615613565b610315610310366004615254565b6109db565b6040516102c49190615c21565b61032a610a82565b6040516102c491906155c1565b61034a610345366004615254565b610b36565b6040516102c4919061558f565b610315610cb5565b6102b7610cbb565b610315610e66565b6102f561037d366004615373565b610e6c565b61038a610ef3565b005b610394610fdf565b6040516102c49190615ca5565b61038a610fe8565b6102f56103b73660046153b3565b6110b0565b61038a6110fe565b61038a611389565b61031561175c565b61038a6103e2366004615373565b611762565b61038a6103f53660046153b3565b61177e565b61038a6104083660046153b3565b6117e2565b61038a6117f0565b61041d611a3b565b6040516102c49493929190615c8a565b61031561043b366004615254565b611a9c565b61038a611ab7565b610450611b36565b6040516102c4919061544a565b61038a61046b3660046153b3565b611b45565b610450611b82565b6102d5611b91565b61031561048e3660046153fe565b611bf2565b61038a6104a1366004615373565b611c0d565b6102f56104b43660046153fe565b611c18565b6102f56104c73660046153b3565b611c68565b6104df6104da366004615254565b611cd0565b6040516102c491906155ea565b6102f56104fa3660046153b3565b611e4f565b61031561050d3660046153fe565b611e63565b61038a610520366004615373565b611e6e565b610538610533366004615254565b611e7a565b6040516102c495949392919061561e565b610315612204565b61038a61055f3660046153fe565b61220a565b610315610572366004615270565b612246565b61038a6105853660046153fe565b612271565b6105926122ad565b6040516102c49190615522565b61038a612463565b61038a6105b53660046152a8565b6124a1565b61038a6105c8366004615254565b612520565b61038a6105db366004615303565b61255e565b6104506125c7565b6105fb6105f6366004615254565b6125d6565b6040516102c493929190615c2a565b60606000805b6051548110156106645760006051828154811061062957fe5b6000918252602090912060049091020160018101549091506001600160a01b038681169116141561065b576001909201915b50600101610610565b5060005b6052548110156106bc5760006052828154811061068157fe5b6000918252602090912060049091020160018101549091506001600160a01b03868116911614156106b3576001909201915b50600101610668565b5060608167ffffffffffffffff811180156106d657600080fd5b5060405190808252806020026020018201604052801561071057816020015b6106fd615127565b8152602001906001900390816106f55790505b5090506000805b6051548110156108175760006051828154811061073057fe5b6000918252602090912060049091020160018101549091506001600160a01b038881169116141561080e57806000015484848151811061076c57fe5b602002602001015160006004811061078057fe5b6020020152835160009085908590811061079657fe5b60200260200101516001600481106107aa57fe5b6020020152600281015484518590859081106107c257fe5b60200260200101516002600481106107d657fe5b6020020152600381015484518590859081106107ee57fe5b602002602001015160036004811061080257fe5b60200201526001909201915b50600101610717565b5060005b60525481101561091b5760006052828154811061083457fe5b6000918252602090912060049091020160018101549091506001600160a01b038881169116141561091257806000015484848151811061087057fe5b602002602001015160006004811061088457fe5b6020020152835160019085908590811061089a57fe5b60200260200101516001600481106108ae57fe5b6020020152600281015484518590859081106108c657fe5b60200260200101516002600481106108da57fe5b6020020152600381015484518590859081106108f257fe5b602002602001015160036004811061090657fe5b60200201526001909201915b5060010161081b565b5090925050505b919050565b60058054604080516020601f60026000196101006001881615020190951694909404938401819004810282018101909252828152606093909290918301828280156109b35780601f10610988576101008083540402835291602001916109b3565b820191906000526020600020905b81548152906001019060200180831161099657829003601f168201915b5050505050905090565b60006109d16109ca6126a2565b84846126a6565b5060015b92915050565b600e546000906001600160a01b0383811691161480610a0757506012546001600160a01b038381169116145b80610a1f5750600a546001600160a01b038381169116145b15610a2c57506000610922565b610a34610fdf565b6001600160a01b03831660009081526049602052604090206001015460ff91909116600a0a906103e9600160201b90910461ffff1610610a75576002610a78565b60055b60ff160292915050565b610a8a615145565b600080610a9561275a565b91509150604051806101c001604052806017548152602001601c548152602001604c54815260200160035481526020016019548152602001601d548152602001610add6127d4565b81526020016057548152602001828152602001838152602001610b0060006127f1565b8152602001610b0f60016127f1565b8152602001610b1e60026127f1565b8152602001610b2d60036127f1565b90529250505090565b610b3e615164565b6001600160a01b038216600090815260566020526040812080549091908180610b6561275a565b91505060005b8554811015610bb95760556000878381548110610b8457fe5b60009182526020808320909101546001600160a01b031683528201929092526040019020600201549490940193600101610b6b565b506001600160a01b0387166000908152605560205260409020600381015415610c0a578054610c05576125808160030154430310610bf8576000610bfb565b60015b60ff169250610c0a565b600192505b600080610c168a6128a7565b9150915060008460001415610c2c576000610c47565b8461708002600954856002015461bb80020281610c4557fe5b045b6040805161016081018252600287015481526020810192909252855490820152606081019790975250608086019690965260a0850193909352600381015460c0850152600681015460e085015260040154610100840152506101208201526101408101919091529392505050565b60035490565b60606000600a60538054905011610cd457605354610cd7565b600a5b905060608167ffffffffffffffff81118015610cf257600080fd5b50604051908082528060200260200182016040528015610d2c57816020015b610d19615127565b815260200190600190039081610d115790505b50905060005b82811015610e5f5760538054600091908581038401908110610d5057fe5b90600052602060002001905080600081548110610d6957fe5b9060005260206000200154838381518110610d8057fe5b6020026020010151600060048110610d9457fe5b6020020152805481906001908110610da857fe5b9060005260206000200154838381518110610dbf57fe5b6020026020010151600160048110610dd357fe5b6020020152805481906002908110610de757fe5b9060005260206000200154838381518110610dfe57fe5b6020026020010151600260048110610e1257fe5b6020020152805481906003908110610e2657fe5b9060005260206000200154838381518110610e3d57fe5b6020026020010151600360048110610e5157fe5b602002015250600101610d32565b5091505090565b60045481565b6000610e7984848461295f565b610ee984610e856126a2565b610ee485604051806060016040528060288152602001615d60602891396001600160a01b038a16600090815260026020526040812090610ec36126a2565b6001600160a01b031681526020810191909152604001600020549190612a69565b6126a6565b5060019392505050565b6000610efd6126a2565b90506001600160a01b038116610f2e5760405162461bcd60e51b8152600401610f25906158c4565b60405180910390fd5b6001600160a01b038116600090815260556020526040812090610f50836128a7565b91505060008111610f735760405162461bcd60e51b8152600401610f25906158c4565b601b5481605854011115610f995760405162461bcd60e51b8152600401610f2590615be3565b815415610fa65743610fa9565b60005b600383015560048201805482019055600060058301556058805482019055610fd18382612a95565b610fda83612b76565b505050565b60075460ff1690565b601e54601d544203106110ae576014601c546020546103e8028161100857fe5b04101561109f57601e54601d5401601f5560006110236127d4565b905060646014820204610dac605083020460005b60455481101561109a576000604960006021846024811061105457fe5b01546001600160a01b031681526020810191909152604001600020601f54600101600682015590506023821461108a578261108c565b835b600b90910155600101611037565b505050505b42601d55600060208190556045555b565b60006109d16110bd6126a2565b84610ee485600260006110ce6126a2565b6001600160a01b03908116825260208083019390935260409182016000908120918c168152925290205490612676565b60006111086126a2565b90506001600160a01b0381166111305760405162461bcd60e51b8152600401610f25906158c4565b60008060005b6052548110156112db5760006052828154811061114f57fe5b6000918252602090912060049091020160018101549091506001600160a01b038681169116141561118e576003015460019093019291909101906112d3565b83156112d157605282815481106111a157fe5b9060005260206000209060040201600001546052858403815481106111c257fe5b600091825260209091206004909102015560528054839081106111e157fe5b906000526020600020906004020160010160009054906101000a90046001600160a01b031660528584038154811061121557fe5b906000526020600020906004020160010160006101000a8154816001600160a01b0302191690836001600160a01b031602179055506052828154811061125757fe5b90600052602060002090600402016002015460528584038154811061127857fe5b9060005260206000209060040201600201819055506052828154811061129a57fe5b9060005260206000209060040201600301546052858403815481106112bb57fe5b9060005260206000209060040201600301819055505b505b600101611136565b5081156113815760005b8281101561133b5760528054806112f857fe5b600082815260208120600460001990930192830201818155600181810180546001600160a01b0319169055600282018390556003909101919091559155016112e5565b5061134730848361295f565b7fa21a2a879c924a525cd3d043187d43e34b2573d79532750b8792307a7c2feadb8382604051611378929190615482565b60405180910390a15b610fda612d41565b60006113936126a2565b90506001600160a01b0381166113bb5760405162461bcd60e51b8152600401610f25906158c4565b60008060008060006113cc86611e7a565b9450945094509450945084156113f45760405162461bcd60e51b8152600401610f259061580c565b600a546001600160a01b0387811691161415611420576000600b55600c80548201905542600d55611702565b600e546001600160a01b038781169116141561144c576000600f55601080548201905542601155611702565b6012546001600160a01b0387811691161415611478576000601355601480548201905542601555611702565b6001600160a01b0386166000908152604960205260409020600a81015415611700576003810180548301905542600682015560006007820181905560088201819055600b82018190556001820154858701919060029083906005600160201b90910461ffff16106114e957866114ec565b60005b01816114f457fe5b0490508083600a015411156115a657600a830180548290039081905560009061151c90612e2b565b600185015490915060ff808316600160381b909204161461159457808460010160076101000a81548160ff021916908360ff1602179055506103e8604a6001830360ff168154811061156a57fe5b90600052602060002090600402016003015485600a0154028161158957fe5b0460098501556115a0565b60098401805483900390555b506115c4565b60018301805460ff60381b191690556000600a840181905560098401555b60018301546103e7600160201b90910461ffff1610156116ed5760018301546018546103e8604b8502049163ffffffff908116620f42400391828216600160201b90910490911611156116465763ffffffff81166000908152604860209081526040808320546001600160a01b0316835260499091529020600b018054830190555b506040805160608101825242815260208101928352600091810182815260508054600181018255935290517f5529612556959ef813dbe8d0ed29336ab75e80a9b7855030760b2917b01e568a60039093029283015591517f5529612556959ef813dbe8d0ed29336ab75e80a9b7855030760b2917b01e568b82015590517f5529612556959ef813dbe8d0ed29336ab75e80a9b7855030760b2917b01e568c909101556116fd565b604c80546103e860968502040190555b50505b505b801561174c576007546117249061010090046001600160a01b03168783612e79565b600061172f876109db565b9050801561174a576117418782612f67565b60198054820190555b505b611754612d41565b505050505050565b60035481565b6117758383611770846127f1565b613031565b610fda83613274565b60006117886126a2565b90506001600160a01b0381166117b05760405162461bcd60e51b8152600401610f25906158c4565b6001600160a01b0383166117d65760405162461bcd60e51b8152600401610f25906156e2565b610fda818484426134cf565b6117ec8282612a95565b5050565b60006117fa6126a2565b90506001600160a01b0381166118225760405162461bcd60e51b8152600401610f25906158c4565b60008060005b60515481101561198d5760006051828154811061184157fe5b6000918252602090912060049091020160018101549091506001600160a01b038681169116141561188057600301546001909301929190910190611985565b8315611983576051828154811061189357fe5b906000526020600020906004020160010160009054906101000a90046001600160a01b03166051858403815481106118c757fe5b906000526020600020906004020160010160006101000a8154816001600160a01b0302191690836001600160a01b031602179055506051828154811061190957fe5b90600052602060002090600402016002015460518584038154811061192a57fe5b9060005260206000209060040201600201819055506051828154811061194c57fe5b90600052602060002090600402016003015460518584038154811061196d57fe5b9060005260206000209060040201600301819055505b505b600101611828565b5081156113815760005b828110156119ed5760518054806119aa57fe5b600082815260208120600460001990930192830201818155600181810180546001600160a01b031916905560028201839055600390910191909155915501611997565b50600754611a0a9061010090046001600160a01b03168483612e79565b7f866cb17a996e44fad30a4450e43850706bfa73cbc9cc00561c44cd87e9f1503f8382604051611378929190615482565b600080808033611a49611b82565b6001600160a01b031614611a6f5760405162461bcd60e51b8152600401610f2590615a14565b5050601854601b54601f54600160401b830461ffff1695600160201b90930463ffffffff16945090925090565b6001600160a01b031660009081526001602052604090205490565b611abf6126a2565b6000546001600160a01b03908116911614611aec5760405162461bcd60e51b8152600401610f2590615a14565b600080546040516001600160a01b03909116907f8be0079c531659141344cd1fd0a4f28419497f9722a3daafe3b4186f6b6457e0908390a3600080546001600160a01b0319169055565b6000611b40611b82565b905090565b6000611b4f6126a2565b90506001600160a01b038116611b775760405162461bcd60e51b8152600401610f25906158c4565b610fda818484613031565b6000546001600160a01b031690565b60068054604080516020601f60026000196101006001881615020190951694909404938401819004810282018101909252828152606093909290918301828280156109b35780601f10610988576101008083540402835291602001916109b3565b6000601754600a02600954830281611c0657fe5b0492915050565b610fda8383836126a6565b6000611c226126a2565b6000546001600160a01b03908116911614611c4f5760405162461bcd60e51b8152600401610f2590615a14565b611c60611c5a6126a2565b83612a95565b506001919050565b60006109d1611c756126a2565b84610ee485604051806060016040528060258152602001615d3b6025913960026000611c9f6126a2565b6001600160a01b03908116825260208083019390935260409182016000908120918d16815292529020549190612a69565b611cd8615183565b6001600160a01b038216611cfe5760405162461bcd60e51b8152600401610f2590615adf565b600080600080600080600080611d138a611a9c565b600a549091506001600160a01b038b811691161415611d7e57600c546047549096506000908190611d4e906001600160a01b03166001613d07565b6047546001600160a01b031660009081526049602052604090206002015460019092019650019350611e0b915050565b600e546001600160a01b038b811691161415611d9e57600c549550611e0b565b6012546001600160a01b038b811691161415611dbe57600c549550611e0b565b6001600160a01b038a16600090815260496020526040812080546005820154600383015460028401546009850154939d509b509950909750955090611e04908c90613d07565b9094509250505b604080516101008101825298895260208901919091528701929092526060860194909452608085019290925260a084015260c083019190915260e082015292915050565b60006109d1611e5c6126a2565b848461295f565b60006109d5826127f1565b610fda838383426134cf565b600a546000908190819081908190819081908190819081906001600160a01b038c811691161415611f5d576047546001600160a01b031660009081526049602052604081206046805491926103e892611ecf57fe5b90600052602060002001600281548110611ee557fe5b90600052602060002090602091828204019190069054906101000a900460ff1660ff16611f16838460060154613ddf565b0281611f1e57fe5b04600a60010154019150611f306151a2565b6047546006830154611f4f916001600160a01b03169060016013613e88565b6040015194506121f2915050565b600e546001600160a01b038c811691161415611f7c5750600f546121f2565b6012546001600160a01b038c811691161415611f9b57506013546121f2565b6001600160a01b038b166000908152604960205260409020601f5460068201541095508515611fdc5760405162461bcd60e51b8152600401610f2590615869565b6001810154600160381b900460ff166120075760405162461bcd60e51b8152600401610f2590615ab2565b80600b015492506000604a60018360010160079054906101000a900460ff160360ff168154811061203457fe5b9060005260206000209060040201905061204c6151a2565b6120b38e8460060154600060468660020160019054906101000a900460ff1660ff168154811061207857fe5b9060005260206000200160018154811061208e57fe5b60009182526020918290209181049091015460ff601f9092166101000a900416613e88565b90506120c3838460060154613ddf565b6040820151600185015491985096506103e6600160201b90910461ffff161180156120ff575060018301546103ea600160201b90910461ffff16105b1561215e5760005b60505481101561215c5760006050828154811061212057fe5b9060005260206000209060030201905084600601548160000154111561215357610bb681600101548161214f57fe5b0496505b50600101612107565b505b6103e8826003015484600a0154028161217357fe5b04858260400151890101119750876121ee5760018301546005600160201b90910461ffff1610156121b257846103e861035289890102040193506121ee565b60018301546103e6600160201b90910461ffff1611156121e0576103e86103528888018701020493506121ee565b6103e8610352888801020493505b5050505b939a9299509097509550909350915050565b60045490565b60006122146126a2565b90506001600160a01b03811661223c5760405162461bcd60e51b8152600401610f25906158c4565b6117ec81836141a4565b6001600160a01b03918216600090815260026020908152604080832093909416825291909152205490565b600061227b6126a2565b90506001600160a01b0381166122a35760405162461bcd60e51b8152600401610f25906158c4565b6117ec8183614662565b606060006122b961275a565b50905060608167ffffffffffffffff811180156122d557600080fd5b5060405190808252806020026020018201604052801561230f57816020015b6122fc6151c3565b8152602001906001900390816122f45790505b5090506000805b60595481101561245a57436059828154811061232e57fe5b906000526020600020906004020160030154612580011115612452576059818154811061235757fe5b600091825260209091206004909102015483516001600160a01b039091169084908490811061238257fe5b60209081029190910101516001600160a01b03909116905260598054829081106123a857fe5b9060005260206000209060040201600101548383815181106123c657fe5b60200260200101516020018181525050605981815481106123e357fe5b90600052602060002090600402016002015483838151811061240157fe5b602002602001015160400181815250506059818154811061241e57fe5b90600052602060002090600402016003015483838151811061243c57fe5b6020908102919091010151606001526001909101905b600101612316565b50909250505090565b600061246d6126a2565b90506001600160a01b0381166124955760405162461bcd60e51b8152600401610f25906158c4565b61249e81613274565b50565b336124aa611b82565b6001600160a01b0316146124d05760405162461bcd60e51b8152600401610f2590615a14565b600a80546001600160a01b039586166001600160a01b0319918216179091556012805494861694821694909417909355600e805492851692841692909217909155604b8054919093169116179055565b6125286126a2565b6000546001600160a01b039081169116146125555760405162461bcd60e51b8152600401610f2590615a14565b61249e81614afb565b600780546001600160a01b0396871661010002610100600160a81b0319909116179055600a80549486166001600160a01b03199586161790556012805493861693851693909317909255600e8054918516918416919091179055604b8054919093169116179055565b6047546001600160a01b031681565b6001600160a01b038082166000908152604960209081526040808320600d810154600e90910180548351818602810186019094528084529495869560609561ffff600160a01b8604169594909216939183919083018282801561266257602002820191906000526020600020905b81546001600160a01b03168152600190910190602001808311612644575b505050505090509250925092509193909250565b60008282018381101561269b5760405162461bcd60e51b8152600401610f2590615832565b9392505050565b3390565b6001600160a01b0383166126cc5760405162461bcd60e51b8152600401610f2590615b5b565b6001600160a01b0382166126f25760405162461bcd60e51b8152600401610f259061573f565b6001600160a01b0380841660008181526002602090815260408083209487168084529490915290819020849055517f8c5be1e5ebec7d5bd14f71427d1e84f3dd0314c0f7b2291e5b200ac8c7c3b9259061274d908590615c21565b60405180910390a3505050565b60008060008060005b6059548110156127ca57436059828154811061277b57fe5b9060005260206000209060040201600301546125800111156127c25760598054600190940193829081106127ab57fe5b906000526020600020906004020160020154820191505b600101612763565b5090925090509091565b60006103e86127e1614b7c565b603202816127eb57fe5b04905090565b600060038211156128145760405162461bcd60e51b8152600401610f25906159ee565b600482101561289f57601854605480546103e892600160401b900461ffff1691908590811061283f57fe5b9060005260206000200160008154811061285557fe5b9060005260206000200154028161286857fe5b046054838154811061287657fe5b9060005260206000200160008154811061288c57fe5b9060005260206000200154019050610922565b506000919050565b6001600160a01b038116600090815260556020526040812060038101548291901561294f5760006128d661275a565b83549092501515905061292857600382015443036125808111156128f957506125805b80826170800284600201546009548461bb800202028161291557fe5b048460050154019450945050505061295a565b600082600301544303905080826170800284600201546009548461bb800202028161291557fe5b600501546000925090505b915091565b6001600160a01b0383166129855760405162461bcd60e51b8152600401610f25906157c7565b6001600160a01b0382166129ab5760405162461bcd60e51b8152600401610f2590615a49565b6129e881604051806060016040528060268152602001615d15602691396001600160a01b0386166000908152600160205260409020549190612a69565b6001600160a01b038085166000908152600160205260408082209390935590841681522054612a179082612676565b6001600160a01b0380841660008181526001602052604090819020939093559151908516907fddf252ad1be2c89b69c2b068fc378daa952ba7f163c4a11628f55a4df523b3ef9061274d908590615c21565b60008184841115612a8d5760405162461bcd60e51b8152600401610f259190615643565b505050900390565b6001600160a01b038216612abb5760405162461bcd60e51b8152600401610f259061588d565b600454600354612acb9083612676565b10612ae85760405162461bcd60e51b8152600401610f25906159b9565b600354612af59082612676565b6003556001600160a01b038216600090815260016020526040902054612b1b9082612676565b6001600160a01b0383166000818152600160205260408082209390935591519091907fddf252ad1be2c89b69c2b068fc378daa952ba7f163c4a11628f55a4df523b3ef90612b6a908590615c21565b60405180910390a35050565b6001600160a01b0381166000908152605a602052604090205480156117ec57805b605954811015612ce05760598181548110612bae57fe5b6000918252602090912060049091020154605980546001600160a01b0390921691848403908110612bdb57fe5b906000526020600020906004020160000160006101000a8154816001600160a01b0302191690836001600160a01b0316021790555060598181548110612c1d57fe5b906000526020600020906004020160010154605983830381548110612c3e57fe5b90600052602060002090600402016001018190555060598181548110612c6057fe5b906000526020600020906004020160020154605983830381548110612c8157fe5b90600052602060002090600402016002018190555060598181548110612ca357fe5b906000526020600020906004020160030154605983830381548110612cc457fe5b6000918252602090912060036004909202010155600101612b97565b506059805480612cec57fe5b6000828152602080822060046000199094019384020180546001600160a01b03191681556001810183905560028101839055600301829055919092556001600160a01b0384168252605a905260408120555050565b60008060006064604c5460050281612d5557fe5b04905060005b605254811015612e0c57600060528281548110612d7457fe5b9060005260206000209060040201905062015180816000015442031115612e0357601754600382015402808410612dfa57604c80548290039055600382015460075460018481015498019796909101959482900394612de5916001600160a01b036101009091048116911683612e79565b8560021415612df5575050612e0c565b612e01565b5050612e0c565b505b50600101612d5b565b508115610fda57604b54610fda9030906001600160a01b03168461295f565b604a546000905b8015612e7057604a6001820381548110612e4857fe5b9060005260206000209060040201600101548310612e67579050610922565b60001901612e32565b50600092915050565b60006060846001600160a01b031663a9059cbb8585604051602401612e9f929190615482565b6040516020818303038152906040529060e01b6020820180516001600160e01b038381831617835250505050604051612ed8919061542e565b6000604051808303816000865af19150503d8060008114612f15576040519150601f19603f3d011682016040523d82523d6000602084013e612f1a565b606091505b5091509150818015612f44575080511580612f44575080806020019051810190612f4491906153de565b612f605760405162461bcd60e51b8152600401610f2590615676565b5050505050565b6001600160a01b038216612f8d5760405162461bcd60e51b8152600401610f2590615978565b612fca81604051806060016040528060228152602001615d88602291396001600160a01b0385166000908152600160205260409020549190612a69565b6001600160a01b038316600090815260016020526040902055600354612ff09082614c02565b6003556040516000906001600160a01b038416907fddf252ad1be2c89b69c2b068fc378daa952ba7f163c4a11628f55a4df523b3ef90612b6a908590615c21565b6001600160a01b038084166000818152605560205260409020600a549092161461320e57600080613061846127f1565b905060006064601860089054906101000a900461ffff1661ffff1611156130b5576054858154811061308f57fe5b906000526020600020016003815481106130a557fe5b90600052602060002001546130e4565b605485815481106130c257fe5b906000526020600020016002815481106130d857fe5b90600052602060002001545b6007546103e882850204945090915061310d9061010090046001600160a01b0316883085614c44565b6001600160a01b038616156131c9576007546064605a850204906131409061010090046001600160a01b03168883612e79565b6002850154613198576001600160a01b038088166000818152605660209081526040822080546001818101835591845291909220018054938c166001600160a01b0319948516179055870180549092161790556131c7565b60018501546001600160a01b038881169116146131c75760405162461bcd60e51b8152600401610f2590615712565b505b50604c80546064600a9490940293909304909201909155600b80546103e860148402819004909101909155600f80549281029190910491820190556013805490910190555b6002810154613230576000815560028101829055605780546001019055613258565b60038101541561324d576000613245856128a7565b600584015550505b600281018054830190555b6000600382015542600682015561326e84612b76565b50505050565b6001600160a01b038116600090815260556020526040902060028101546132ad5760405162461bcd60e51b8152600401610f2590615b08565b6003810154156132cf5760405162461bcd60e51b8152600401610f259061594d565b6001600160a01b0382166000908152605a602052604090205480156133be5782605960018303815481106132ff57fe5b6000918252602090912060049091020180546001600160a01b0319166001600160a01b0392909216919091179055815460598054600019840190811061334157fe5b90600052602060002090600402016001018190555081600201546059600183038154811061336b57fe5b906000526020600020906004020160020181905550436059600183038154811061339157fe5b90600052602060002090600402016003018190555060006133b1846128a7565b6005850155506134c49050565b604080516080810182526001600160a01b03858116808352855460208085019182526002880154858701908152436060870190815260598054600181018255600082815298517fd73956b9e00d8f8bc5e44f7184df1387cdd652e7726b8ccda3db4859e02f31bf600490920291820180546001600160a01b031916919099161790975593517fd73956b9e00d8f8bc5e44f7184df1387cdd652e7726b8ccda3db4859e02f31c087015590517fd73956b9e00d8f8bc5e44f7184df1387cdd652e7726b8ccda3db4859e02f31c1860155517fd73956b9e00d8f8bc5e44f7184df1387cdd652e7726b8ccda3db4859e02f31c29094019390935554908352605a909152919020555b504360039091015550565b60185463ffffffff600160201b82048116911681106135005760405162461bcd60e51b8152600401610f2590615a8c565b63ffffffff811661353d57600a546001600160a01b038581169116146135385760405162461bcd60e51b8152600401610f2590615916565b6135d9565b600a8163ffffffff161015613579576047546001600160a01b038581169116146135385760405162461bcd60e51b8152600401610f25906156ad565b6001600160a01b038516600090815260496020526040902060050154156135d9576001600160a01b038581166000908152604960205260409020600c01548116908516146135d95760405162461bcd60e51b8152600401610f25906156e2565b6001600160a01b03851660009081526049602052604090206005015480156136315761271084101561362c57600854606402818503101561362c5760405162461bcd60e51b8152600401610f2590615b31565b613656565b60085460c8028410156136565760405162461bcd60e51b8152600401610f2590615b31565b600061366185611bf2565b90508061366d88611a9c565b101561368b5760405162461bcd60e51b8152600401610f25906158ee565b6007546136a89061010090046001600160a01b0316883088614c44565b6136b28782612f67565b60198054820190556001600160a01b03808816600090815260496020526040808220928916825290206006820154613a425760006136ee614d2d565b90506000601860049054906101000a900463ffffffff1663ffffffff1660011415613744575060018301805460ff60301b19169055604780546001600160a01b0319166001600160a01b038c1617905588613872565b6018546005600160401b90910461ffff1610156137b957506001838101805460ff60301b1916600160301b1790556001600160a01b038a811660009081526049602090815260408220600e01805494850181558252902090910180546001600160a01b031916918c1691909117905588613872565b60018401805460ff60301b19166602000000000000179055600d8301546003600160a01b90910461ffff9081168281049290069081166137fb578b925061382e565b61382b85600e018361ffff168154811061381157fe5b6000918252602090912001546001600160a01b0316614e67565b92505b50506001600160a01b0381811660009081526049602090815260408220600e01805460018101825590835291200180546001600160a01b031916918d169190911790555b82600d01601481819054906101000a900461ffff168092919060010191906101000a81548161ffff021916908361ffff16021790555050866306034e8b0163ffffffff1684600001819055508984600c0160006101000a8154816001600160a01b0302191690836001600160a01b03160217905550818460010160006101000a81548163ffffffff021916908363ffffffff160217905550601860089054906101000a900461ffff168460010160046101000a81548161ffff021916908361ffff1602179055508884600a018190555060008460040160006101000a81548160ff021916908315150217905550600084600b01819055508084600d0160006101000a8154816001600160a01b0302191690836001600160a01b03160217905550600084600d0160146101000a81548161ffff021916908361ffff1602179055506207aae78263ffffffff1611156139f25763ffffffff8216600090815260486020526040902080546001600160a01b0319166001600160a01b038d161790555b6018546040517f6932ac5f42401e77c40344f612fa5558d62470f6a92606e938a4743c566e6ce891613a33918e91600160201b900463ffffffff169061549b565b60405180910390a15050613ac2565b600482015460ff1680613a5a57508160060154601e54115b15613a72576000600783018190556008830155613ab7565b600080613a7e8b611e7a565b505050915091508115613a9e576000600785018190556008850155613ab4565b600784018190558015613ab457613ab484614ea8565b50505b600a82018054880190555b600582018790556006820186905560028201805488019055601c805488019055602080548801905542601d55600a820154600090613aff90612e2b565b90506103e8604a6001830360ff1681548110613b1757fe5b90600052602060002090600402016003015484600a01540281613b3657fe5b04600984015560018301805460ff808416600160381b0260ff60381b199092169190911790915560048401541615613b755760048301805460ff191690555b604c80546103e860128b02819004909101909155604d805460208b02839004019055600b805460148b02839004019055600f8054818b0292909204918201905560138054909101905560455460241415613c305760015b604554811015613c295760216001820360248110613be657fe5b01546001600160a01b03166021600019830160248110613c0257fe5b0180546001600160a01b0319166001600160a01b0392909216919091179055600101613bcc565b5060236045555b89602160455460248110613c4057fe5b0180546001600160a01b0319166001600160a01b039290921691909117905560458054600101905560026001840154600160301b900460ff166002811115613c8457fe5b1415613ceb576000600180840154600160301b900460ff166002811115613ca757fe5b1415613cb4575081613cda565b6000613cbf8b6150d8565b6001600160a01b031660009081526049602052604090209150505b600b0180546103e860288b02040190555b613cf3610fe8565b613cfb612d41565b50505050505050505050565b6001600160a01b038216600090815260496020526040812081908180805b600e840154811015613dd257600084600e018281548110613d4257fe5b6000918252602082200154600e870180546001600160a01b03909216935060499183919086908110613d7057fe5b60009182526020808320909101546001600160a01b03168352820192909252604001902090506013891015613dba57600080613daf848c600101613d07565b970196959095019450505b60020154600194850194930192919091019050613d25565b5090969095509350505050565b60008260060154821015613df557826006015491505b601f54821015613e07575060006109d5565b6000603c83420381613e1557fe5b049050601f548310613e7d576215f90081604a60018760010160079054906101000a900460ff160360ff1681548110613e4a57fe5b6000918252602090912060026004909202010154600a87015460ff909116020281613e7157fe5b04846007015401613e80565b60005b949350505050565b613e906151a2565b6001600160a01b03851660009081526049602052604081209084151580613ec457506047546001600160a01b038881169116145b613ee557600d820154600390600160a01b900461ffff160461ffff16613eeb565b600e8201545b905060008060008060005b8581101561417e57600087600e018281548110613f0f57fe5b6000918252602082200154600e8a0180546001600160a01b03909216935060499183919086908110613f3d57fe5b60009182526020808320909101546001600160a01b031683528201929092526040019020600481015490915060ff1661417457613f7a818e613ddf565b60018a810154919850600160381b90910460ff1610801590613f9a57508b155b15613ff9576103e86046600081548110613fb057fe5b90600052602060002001600281548110613fc657fe5b60009182526020918290209181049091015460ff601f9092166101000a900416880281613fef57fe5b0485019450614122565b600189810154600160381b900460ff161080159061401757508b6001145b1561402d576103e86046600181548110613fb057fe5b60018901546002600160381b90910460ff161080159061404e575060028c10155b801561405b575060068c11155b15614071576103e86046600281548110613fb057fe5b60018901546003600160381b90910460ff1610801590614092575060078c10155b801561409f5750600f8c11155b156140b5576103e86046600381548110613fb057fe5b60018901546004600160381b90910460ff1610614122576103e860466004815481106140dd57fe5b906000526020600020016002815481106140f357fe5b60009182526020918290209181049091015460ff601f9092166101000a90041688028161411c57fe5b04850194505b60018b038c1015614163576141356151a2565b614144838f8f6001018f613e88565b9050806000015185019450806020015187019650806040015186019550505b600281015495909501946001909301925b5050600101613ef6565b506040805160608101825291825260208201939093529182015298975050505050505050565b60006017546009548302816141b557fe5b6053546007549290910492508291600091906141e19061010090046001600160a01b0316873088614c44565b60005b605254811015614392576000605282815481106141fd57fe5b90600052602060002090600402019050848160030154106142d45760006009546103e80260175487026103e6028161423157fe5b600754600185015492909104925061425b916001600160a01b036101009092048216911683612e79565b6040805160808101825261271186018152600060208201819052918101889052426060820152605380546001818101835591909352909501946142b091600080516020615cf5833981519152019060046151f4565b5060038201805496909603958690556000956142cd576001909401935b5050614392565b60006009546103e8026017548360030154026103e602816142f157fe5b600754600185015492909104925061431b916001600160a01b036101009092048216911683612e79565b60408051608081018252612711860181526000602082018190526003850154928201929092524260608201526053805460018181018355919093529095019461437691600080516020615cf5833981519152019060046151f4565b50506003018054600090915590930392600192830192016141e4565b50811561450457815b6052548110156144a857605281815481106143b257fe5b906000526020600020906004020160010160009054906101000a90046001600160a01b03166052848303815481106143e657fe5b906000526020600020906004020160010160006101000a8154816001600160a01b0302191690836001600160a01b031602179055506052818154811061442857fe5b90600052602060002090600402016002015460528483038154811061444957fe5b9060005260206000209060040201600201819055506052818154811061446b57fe5b90600052602060002090600402016003015460528483038154811061448c57fe5b600091825260209091206003600490920201015560010161439b565b5060005b828110156145025760528054806144bf57fe5b600082815260208120600460001990930192830201818155600181810180546001600160a01b0319169055600282018390556003909101919091559155016144ac565b505b821561464d57600060095460175485028161451b57fe5b604080516080810182524281526001600160a01b038b8116602083019081528284018c815295909404606083018181526051805460018101825560009190915293517f994a4b4eddb300691ee19901712848b1114bad8a1a4ae195e5abe0ec38021b9460049095029485015594517f994a4b4eddb300691ee19901712848b1114bad8a1a4ae195e5abe0ec38021b95840180546001600160a01b031916919093161790915593517f994a4b4eddb300691ee19901712848b1114bad8a1a4ae195e5abe0ec38021b9682015591517f994a4b4eddb300691ee19901712848b1114bad8a1a4ae195e5abe0ec38021b9790920191909155519091507f2e63b61ed93a328967f80b447bc296cc3344b0b4cf419c417e252dd66af4c762906146439089908490615482565b60405180910390a1505b8284031561174c5761174c308785870361295f565b600060095460175483028161467357fe5b6053549190049150819060009061468b86308761295f565b60005b605154811015614812576000605182815481106146a757fe5b906000526020600020906004020190508481600301541061476c5760006017546009548702816146d357fe5b600184015491900491506146f29030906001600160a01b03168361295f565b6040805160808101825261271186018152600160208201819052918101839052426060820152605380548084018255600091909152919095019461474891600080516020615cf5833981519152019060046151f4565b506003820180549690960395869055600095614765576001909401935b5050614812565b60006017546009548360030154028161478157fe5b600184015491900491506147a09030906001600160a01b03168361295f565b604080516080810182526127118601815260016020820181905291810183905242606082015260538054808401825560009190915291909501946147f691600080516020615cf5833981519152019060046151f4565b505060030180546000909155909303926001928301920161468e565b50811561498457815b605154811015614928576051818154811061483257fe5b906000526020600020906004020160010160009054906101000a90046001600160a01b031660518483038154811061486657fe5b906000526020600020906004020160010160006101000a8154816001600160a01b0302191690836001600160a01b03160217905550605181815481106148a857fe5b9060005260206000209060040201600201546051848303815481106148c957fe5b906000526020600020906004020160020181905550605181815481106148eb57fe5b90600052602060002090600402016003015460518483038154811061490c57fe5b600091825260209091206003600490920201015560010161481b565b5060005b8281101561498257605180548061493f57fe5b600082815260208120600460001990930192830201818155600181810180546001600160a01b03191690556002820183905560039091019190915591550161492c565b505b8215614acd57600060175460095485028161499b57fe5b604080516080810182524281526001600160a01b038b8116602083019081528284018c815295909404606083018181526052805460018101825560009190915293517fa9144a5e7efd259b8b0d55467f4696ed47ec83317d61501b76366dbcca65ce7360049095029485015594517fa9144a5e7efd259b8b0d55467f4696ed47ec83317d61501b76366dbcca65ce74840180546001600160a01b031916919093161790915593517fa9144a5e7efd259b8b0d55467f4696ed47ec83317d61501b76366dbcca65ce7582015591517fa9144a5e7efd259b8b0d55467f4696ed47ec83317d61501b76366dbcca65ce7690920191909155519091507fe52393fb0bc93d5edf3ddb6ef44887d82b0b9553466f447cb9b8b409087e970590614ac39089908490615482565b60405180910390a1505b8284031561174c5760075461174c9061010090046001600160a01b0316876103e88688036103e60204612e79565b6001600160a01b038116614b215760405162461bcd60e51b8152600401610f2590615781565b600080546040516001600160a01b03808516939216917f8be0079c531659141344cd1fd0a4f28419497f9722a3daafe3b4186f6b6457e091a3600080546001600160a01b0319166001600160a01b0392909216919091179055565b6007546040516370a0823160e01b815260009161010090046001600160a01b0316906370a0823190614bb290309060040161544a565b60206040518083038186803b158015614bca57600080fd5b505afa158015614bde573d6000803e3d6000fd5b505050506040513d601f19601f82011682018060405250810190611b409190615416565b600061269b83836040518060400160405280601e81526020017f536166654d6174683a207375627472616374696f6e206f766572666c6f770000815250612a69565b60006060856001600160a01b03166323b872dd868686604051602401614c6c9392919061545e565b6040516020818303038152906040529060e01b6020820180516001600160e01b038381831617835250505050604051614ca5919061542e565b6000604051808303816000865af19150503d8060008114614ce2576040519150601f19603f3d011682016040523d82523d6000602084013e614ce7565b606091505b5091509150818015614d11575080511580614d11575080806020019051810190614d1191906153de565b6117545760405162461bcd60e51b8152600401610f2590615b9f565b6000806103e9601860089054906101000a900461ffff1661ffff1610614d6457601854600160401b900461ffff166107d003614d73565b601854600160401b900461ffff165b601a5461ffff918216925016811415614e16576018805469ffff0000000000000000198116600160401b9182900461ffff9081166001018116830291909117928390556040517f66d08156b35a3ddc911dafbc8b10ffdc4e5126b090253256cfa71a80f87aefee93614dea93900490911690615c12565b60405180910390a1614e00601754601654612676565b601755601a805461ffff19166001179055614e2f565b601a805461ffff8082166001011661ffff199091161790555b50506018805467ffffffff00000000198116600160201b9182900463ffffffff90811660010181168302919091179283905591041690565b6001600160a01b0381166000908152604960205260408120600e81015415614ea157614e9c81600e0160008154811061381157fe5b61269b565b5090919050565b600080805b601481101561326e57600a54600d8501546001600160a01b03908116911614614eff57600d8401546001600160a01b0316600090815260496020526040902060010154600160381b900460ff16614f02565b60045b925060018360ff1610158015614f185750806001145b15614f7c576103e86046600081548110614f2e57fe5b90600052602060002001600281548110614f4457fe5b90600052602060002090602091828204019190069054906101000a900460ff1660ff1685600701540281614f7457fe5b04915061507c565b60018360ff1610158015614f905750806002145b15614fa6576103e86046600181548110614f2e57fe5b60028360ff1610158015614fbb575060038110155b8015614fc8575060078111155b15614fde576103e86046600281548110614f2e57fe5b60038360ff1610158015614ff3575060088110155b8015615000575060108111155b15615016576103e86046600381548110614f2e57fe5b60048360ff161061507c576103e8604660048154811061503257fe5b9060005260206000200160028154811061504857fe5b90600052602060002090602091828204019190069054906101000a900460ff1660ff168560070154028161507857fe5b0491505b81156150d057600a54600d8501546001600160a01b03908116911614156150aa57600b80548301905561326e565b600d8401546001600160a01b031660009081526049602052604090206008018054830190555b600101614ead565b6001600160a01b0381166000908152604960205260408120600180820154600160301b900460ff16600281111561510b57fe5b14614ea157600d810154614e9c906001600160a01b03166150d8565b60405180608001604052806004906020820280368337509192915050565b604051806101c00160405280600e906020820280368337509192915050565b604051806101600160405280600b906020820280368337509192915050565b6040518061010001604052806008906020820280368337509192915050565b60405180606001604052806000815260200160008152602001600081525090565b604051806080016040528060006001600160a01b031681526020016000815260200160008152602001600081525090565b82805482825590600052602060002090810192821561522f579160200282015b8281111561522f578251825591602001919060010190615214565b5061523b92915061523f565b5090565b5b8082111561523b5760008155600101615240565b600060208284031215615265578081fd5b813561269b81615cdf565b60008060408385031215615282578081fd5b823561528d81615cdf565b9150602083013561529d81615cdf565b809150509250929050565b600080600080608085870312156152bd578182fd5b84356152c881615cdf565b935060208501356152d881615cdf565b925060408501356152e881615cdf565b915060608501356152f881615cdf565b939692955090935050565b600080600080600060a0868803121561531a578081fd5b853561532581615cdf565b9450602086013561533581615cdf565b9350604086013561534581615cdf565b9250606086013561535581615cdf565b9150608086013561536581615cdf565b809150509295509295909350565b600080600060608486031215615387578283fd5b833561539281615cdf565b925060208401356153a281615cdf565b929592945050506040919091013590565b600080604083850312156153c5578182fd5b82356153d081615cdf565b946020939093013593505050565b6000602082840312156153ef578081fd5b8151801515811461269b578182fd5b60006020828403121561540f578081fd5b5035919050565b600060208284031215615427578081fd5b5051919050565b60008251615440818460208701615cb3565b9190910192915050565b6001600160a01b0391909116815260200190565b6001600160a01b039384168152919092166020820152604081019190915260600190565b6001600160a01b03929092168252602082015260400190565b6001600160a01b0392909216825263ffffffff16602082015260400190565b6020808252825182820181905260009190848201906040850190845b8181101561551657835183875b6004811015615500578251825291870191908701906001016154e3565b50505092840192608092909201916001016154d6565b50909695505050505050565b602080825282518282018190526000919060409081850190868401855b8281101561558257815180516001600160a01b0316855286810151878601528581015186860152606090810151908501526080909301929085019060010161553f565b5091979650505050505050565b6101608101818360005b600b8110156155b8578151835260209283019290910190600101615599565b50505092915050565b6101c08101818360005b600e8110156155b85781518352602092830192909101906001016155cb565b6101008101818360005b60088110156155b85781518352602092830192909101906001016155f4565b901515815260200190565b9415158552602085019390935260408401919091526060830152608082015260a00190565b6000602082528251806020840152615662816040850160208701615cb3565b601f01601f19169190910160400192915050565b6020808252601f908201527f5472616e7366657248656c7065723a205452414e534645525f4641494c454400604082015260600190565b6020808252818101527f23204e656564704e6f64655f726566657265616c5f6c696e6b41646472657373604082015260600190565b6020808252601690820152752320696e76616c69645f7265666572616c5f6c696e6b60501b604082015260600190565b602080825260139082015272496e76616c69645f5265666572616c4c696e6b60681b604082015260600190565b60208082526022908201527f48524332303a20617070726f766520746f20746865207a65726f206164647265604082015261737360f01b606082015260800190565b60208082526026908201527f4f776e61626c653a206e6577206f776e657220697320746865207a65726f206160408201526564647265737360d01b606082015260800190565b60208082526025908201527f48524332303a207472616e736665722066726f6d20746865207a65726f206164604082015264647265737360d81b606082015260800190565b6020808252600c908201526b08c813dd995c999b1bddd95960a21b604082015260600190565b6020808252601b908201527f536166654d6174683a206164646974696f6e206f766572666c6f770000000000604082015260600190565b6020808252600a908201526913dd995c999b1bddd95960b21b604082015260600190565b6020808252601f908201527f48524332303a206d696e7420746f20746865207a65726f206164647265737300604082015260600190565b60208082526010908201526f119024b73b30b634b22fb9b2b73232b960811b604082015260600190565b6020808252600e908201526d11902732b2b22f989812afaa363160911b604082015260600190565b6020808252601a908201527f23204e6565645f41646d696e5f726566657265616c5f6c696e6b000000000000604082015260600190565b60208082526011908201527008c8105b1c9958591e57dcdd185c9d1959607a1b604082015260600190565b60208082526021908201527f48524332303a206275726e2066726f6d20746865207a65726f206164647265736040820152607360f81b606082015260800190565b6020808252818101527f48524332303a20616c72656164792072656163686564206d6178537570706c79604082015260600190565b6020808252600c908201526b34b73b30b634b22fba34b2b960a11b604082015260600190565b6020808252818101527f4f776e61626c653a2063616c6c6572206973206e6f7420746865206f776e6572604082015260600190565b60208082526023908201527f48524332303a207472616e7366657220746f20746865207a65726f206164647260408201526265737360e81b606082015260800190565b6020808252600c908201526b232066756c6c5f757365727360a01b604082015260600190565b60208082526013908201527232bc3832b1ba32b22fbb30b634b22fba34b2b960691b604082015260600190565b6020808252600f908201526e1a5b9d985b1a5917d858d8dbdd5b9d608a1b604082015260600190565b6020808252600f908201526e119024b73b30b634b22fb6b4b732b960891b604082015260600190565b60208082526010908201526f08c8151bdbd7d31bddd7d25b9d995cdd60821b604082015260600190565b60208082526024908201527f48524332303a20617070726f76652066726f6d20746865207a65726f206164646040820152637265737360e01b606082015260800190565b60208082526024908201527f5472616e7366657248656c7065723a205452414e534645525f46524f4d5f46416040820152631253115160e21b606082015260800190565b60208082526015908201527423206f766572666c6f775f746f74616c5f6d696e6560581b604082015260600190565b61ffff91909116815260200190565b90815260200190565b600060608201858352602060018060a01b0380871682860152606060408601528286518085526080870191508388019450855b81811015615c7b578551841683529484019491840191600101615c5d565b50909998505050505050505050565b93845260208401929092526040830152606082015260800190565b60ff91909116815260200190565b60005b83811015615cce578181015183820152602001615cb6565b8381111561326e5750506000910152565b6001600160a01b038116811461249e57600080fdfe4c83efb3982afbd500ab7c66d02b996df5fdc3d20660e61600390aad6d5f7f1e48524332303a207472616e7366657220616d6f756e7420657863656564732062616c616e636548524332303a2064656372656173656420616c6c6f77616e63652062656c6f77207a65726f48524332303a207472616e7366657220616d6f756e74206578636565647320616c6c6f77616e636548524332303a206275726e20616d6f756e7420657863656564732062616c616e6365a26469706673582212201843b9699da095621bea866e99d5df0c77a2d475ea9d89718df29f79f265868464736f6c634300060c0033",
			"opcodes": "PUSH1 0x80 PUSH1 0x40 MSTORE PUSH1 0x7 DUP1 SLOAD PUSH2 0x100 PUSH1 0x1 PUSH1 0xA8 SHL SUB NOT AND PUSH21 0x9DEFB199A6CDBFBAFFE8C1C712F469E5C900A4DE00 OR PUSH1 0xFF PUSH1 0xA8 SHL NOT AND PUSH1 0x1 PUSH1 0xA9 SHL OR SWAP1 DUP2 SWAP1 SSTORE PUSH1 0xFF PUSH1 0x1 PUSH1 0xA8 SHL SWAP1 SWAP2 DIV AND PUSH1 0xA EXP PUSH1 0x8 DUP2 SWAP1 SSTORE PUSH2 0x2710 PUSH1 0x9 SSTORE PUSH1 0x64 SWAP1 DIV PUSH1 0x16 SSTORE PUSH1 0xA PUSH1 0x8 SLOAD DUP2 PUSH3 0x68 JUMPI INVALID JUMPDEST DIV PUSH1 0x17 SSTORE PUSH1 0x18 DUP1 SLOAD PUSH6 0xFFFFFFFFFFFF PUSH1 0x20 SHL NOT PUSH4 0xFFFFFFFF NOT SWAP1 SWAP2 AND PUSH3 0xF4240 OR AND SWAP1 SSTORE PUSH1 0x0 PUSH1 0x19 DUP2 SWAP1 SSTORE PUSH1 0x1A DUP1 SLOAD PUSH2 0xFFFF NOT AND SWAP1 SSTORE PUSH4 0x1ABBC00 PUSH1 0x1B SSTORE PUSH1 0x1C DUP2 SWAP1 SSTORE TIMESTAMP PUSH1 0x1D SSTORE PUSH2 0xE10 PUSH1 0x1E SSTORE PUSH1 0x1F DUP2 SWAP1 SSTORE PUSH1 0x20 SWAP1 DUP2 SSTORE PUSH1 0x40 DUP1 MLOAD PUSH2 0x100 DUP2 ADD DUP3 MSTORE PUSH1 0x1 PUSH1 0xA0 DUP3 ADD DUP2 DUP2 MSTORE PUSH1 0xC0 DUP4 ADD SWAP2 SWAP1 SWAP2 MSTORE PUSH1 0xC8 PUSH1 0xE0 DUP4 ADD MSTORE DUP2 MSTORE DUP2 MLOAD PUSH1 0x60 DUP2 DUP2 ADD DUP5 MSTORE PUSH1 0x2 DUP1 DUP4 MSTORE DUP3 DUP7 ADD MSTORE PUSH1 0x96 DUP3 DUP6 ADD MSTORE DUP3 DUP6 ADD SWAP2 SWAP1 SWAP2 MSTORE DUP3 MLOAD DUP1 DUP3 ADD DUP5 MSTORE PUSH1 0x3 DUP2 MSTORE PUSH1 0x7 DUP2 DUP7 ADD MSTORE PUSH1 0x64 DUP2 DUP6 ADD MSTORE DUP3 DUP5 ADD MSTORE DUP3 MLOAD DUP1 DUP3 ADD DUP5 MSTORE PUSH1 0x8 DUP2 MSTORE PUSH1 0xF DUP2 DUP7 ADD MSTORE PUSH1 0x32 DUP2 DUP6 ADD MSTORE DUP2 DUP4 ADD MSTORE DUP3 MLOAD SWAP1 DUP2 ADD DUP4 MSTORE PUSH1 0x10 DUP2 MSTORE PUSH1 0x14 SWAP4 DUP2 ADD DUP5 SWAP1 MSTORE SWAP2 DUP3 ADD SWAP3 SWAP1 SWAP3 MSTORE PUSH1 0x80 DUP3 ADD MSTORE PUSH3 0x168 SWAP1 PUSH1 0x46 SWAP1 PUSH1 0x5 PUSH3 0x83B JUMP JUMPDEST POP PUSH1 0x40 MLOAD DUP1 PUSH1 0x80 ADD PUSH1 0x40 MSTORE DUP1 PUSH1 0x40 MLOAD DUP1 PUSH1 0x80 ADD PUSH1 0x40 MSTORE DUP1 PUSH1 0x8 SLOAD PUSH2 0x3A98 MUL DUP2 MSTORE PUSH1 0x20 ADD PUSH1 0x64 DUP2 MSTORE PUSH1 0x20 ADD PUSH1 0x64 DUP2 MSTORE PUSH1 0x20 ADD PUSH1 0x1E DUP2 MSTORE POP DUP2 MSTORE PUSH1 0x20 ADD PUSH1 0x40 MLOAD DUP1 PUSH1 0x80 ADD PUSH1 0x40 MSTORE DUP1 PUSH1 0x8 SLOAD PUSH2 0x1D4C MUL DUP2 MSTORE PUSH1 0x20 ADD PUSH1 0x32 DUP2 MSTORE PUSH1 0x20 ADD PUSH1 0x32 DUP2 MSTORE PUSH1 0x20 ADD PUSH1 0x14 DUP2 MSTORE POP DUP2 MSTORE PUSH1 0x20 ADD PUSH1 0x40 MLOAD DUP1 PUSH1 0x80 ADD PUSH1 0x40 MSTORE DUP1 PUSH1 0x8 SLOAD PUSH2 0xDAC MUL DUP2 MSTORE PUSH1 0x20 ADD PUSH1 0x19 DUP2 MSTORE PUSH1 0x20 ADD PUSH1 0x19 DUP2 MSTORE PUSH1 0x20 ADD PUSH1 0xA DUP2 MSTORE POP DUP2 MSTORE PUSH1 0x20 ADD PUSH1 0x40 MLOAD DUP1 PUSH1 0x80 ADD PUSH1 0x40 MSTORE DUP1 PUSH1 0x8 SLOAD PUSH1 0x64 MUL DUP2 MSTORE PUSH1 0x20 ADD PUSH1 0x5 DUP2 MSTORE PUSH1 0x20 ADD PUSH1 0xA DUP2 MSTORE PUSH1 0x20 ADD PUSH1 0x5 DUP2 MSTORE POP DUP2 MSTORE POP PUSH1 0x54 SWAP1 PUSH1 0x4 PUSH3 0x23F SWAP3 SWAP2 SWAP1 PUSH3 0x899 JUMP JUMPDEST POP CALLVALUE DUP1 ISZERO PUSH3 0x24D JUMPI PUSH1 0x0 DUP1 REVERT JUMPDEST POP PUSH1 0x40 MLOAD DUP1 PUSH1 0x40 ADD PUSH1 0x40 MSTORE DUP1 PUSH1 0xB DUP2 MSTORE PUSH1 0x20 ADD PUSH11 0x544C42205374616B696E67 PUSH1 0xA8 SHL DUP2 MSTORE POP PUSH1 0x40 MLOAD DUP1 PUSH1 0x40 ADD PUSH1 0x40 MSTORE DUP1 PUSH1 0x3 DUP2 MSTORE PUSH1 0x20 ADD PUSH3 0x2A2621 PUSH1 0xE9 SHL DUP2 MSTORE POP PUSH1 0x4 PUSH5 0x519577B000 PUSH1 0x0 PUSH3 0x2A8 PUSH3 0x6E3 PUSH1 0x20 SHL PUSH1 0x20 SHR JUMP JUMPDEST PUSH1 0x0 DUP1 SLOAD PUSH1 0x1 PUSH1 0x1 PUSH1 0xA0 SHL SUB NOT AND PUSH1 0x1 PUSH1 0x1 PUSH1 0xA0 SHL SUB DUP4 AND SWAP1 DUP2 OR DUP3 SSTORE PUSH1 0x40 MLOAD SWAP3 SWAP4 POP SWAP2 PUSH32 0x8BE0079C531659141344CD1FD0A4F28419497F9722A3DAAFE3B4186F6B6457E0 SWAP1 DUP3 SWAP1 LOG3 POP DUP4 MLOAD PUSH3 0x307 SWAP1 PUSH1 0x5 SWAP1 PUSH1 0x20 DUP8 ADD SWAP1 PUSH3 0x8F3 JUMP JUMPDEST POP DUP3 MLOAD PUSH3 0x31D SWAP1 PUSH1 0x6 SWAP1 PUSH1 0x20 DUP7 ADD SWAP1 PUSH3 0x8F3 JUMP JUMPDEST POP PUSH1 0x7 DUP1 SLOAD PUSH1 0xFF NOT AND PUSH1 0xFF SWAP4 SWAP1 SWAP4 AND SWAP3 SWAP1 SWAP3 OR SWAP1 SWAP2 SSTORE PUSH1 0x4 SSTORE POP PUSH1 0x0 SWAP1 POP PUSH1 0x64 PUSH3 0x347 PUSH3 0x6E7 JUMP JUMPDEST PUSH1 0x14 MUL DUP2 PUSH3 0x352 JUMPI INVALID JUMPDEST DIV SWAP1 POP PUSH3 0x361 CALLER DUP3 PUSH3 0x6ED JUMP JUMPDEST PUSH1 0x4A PUSH1 0x40 MLOAD DUP1 PUSH1 0xA0 ADD PUSH1 0x40 MSTORE DUP1 PUSH1 0x1 PUSH1 0xFF AND DUP2 MSTORE PUSH1 0x20 ADD PUSH1 0x8 SLOAD PUSH1 0xC8 MUL DUP2 MSTORE PUSH1 0x20 ADD PUSH1 0x10 PUSH1 0xFF AND DUP2 MSTORE PUSH1 0x20 ADD PUSH1 0x1 PUSH1 0xFF AND DUP2 MSTORE PUSH1 0x20 ADD PUSH2 0x898 DUP2 MSTORE POP SWAP1 DUP1 PUSH1 0x1 DUP2 SLOAD ADD DUP1 DUP3 SSTORE DUP1 SWAP2 POP POP PUSH1 0x1 SWAP1 SUB SWAP1 PUSH1 0x0 MSTORE PUSH1 0x20 PUSH1 0x0 KECCAK256 SWAP1 PUSH1 0x4 MUL ADD PUSH1 0x0 SWAP1 SWAP2 SWAP1 SWAP2 SWAP1 SWAP2 POP PUSH1 0x0 DUP3 ADD MLOAD DUP2 PUSH1 0x0 ADD PUSH1 0x0 PUSH2 0x100 EXP DUP2 SLOAD DUP2 PUSH1 0xFF MUL NOT AND SWAP1 DUP4 PUSH1 0xFF AND MUL OR SWAP1 SSTORE POP PUSH1 0x20 DUP3 ADD MLOAD DUP2 PUSH1 0x1 ADD SSTORE PUSH1 0x40 DUP3 ADD MLOAD DUP2 PUSH1 0x2 ADD PUSH1 0x0 PUSH2 0x100 EXP DUP2 SLOAD DUP2 PUSH1 0xFF MUL NOT AND SWAP1 DUP4 PUSH1 0xFF AND MUL OR SWAP1 SSTORE POP PUSH1 0x60 DUP3 ADD MLOAD DUP2 PUSH1 0x2 ADD PUSH1 0x1 PUSH2 0x100 EXP DUP2 SLOAD DUP2 PUSH1 0xFF MUL NOT AND SWAP1 DUP4 PUSH1 0xFF AND MUL OR SWAP1 SSTORE POP PUSH1 0x80 DUP3 ADD MLOAD DUP2 PUSH1 0x3 ADD SSTORE POP POP PUSH1 0x4A PUSH1 0x40 MLOAD DUP1 PUSH1 0xA0 ADD PUSH1 0x40 MSTORE DUP1 PUSH1 0x2 PUSH1 0xFF AND DUP2 MSTORE PUSH1 0x20 ADD PUSH1 0x8 SLOAD PUSH2 0x3E9 MUL DUP2 MSTORE PUSH1 0x20 ADD PUSH1 0xE PUSH1 0xFF AND DUP2 MSTORE PUSH1 0x20 ADD PUSH1 0x2 PUSH1 0xFF AND DUP2 MSTORE PUSH1 0x20 ADD PUSH2 0x834 DUP2 MSTORE POP SWAP1 DUP1 PUSH1 0x1 DUP2 SLOAD ADD DUP1 DUP3 SSTORE DUP1 SWAP2 POP POP PUSH1 0x1 SWAP1 SUB SWAP1 PUSH1 0x0 MSTORE PUSH1 0x20 PUSH1 0x0 KECCAK256 SWAP1 PUSH1 0x4 MUL ADD PUSH1 0x0 SWAP1 SWAP2 SWAP1 SWAP2 SWAP1 SWAP2 POP PUSH1 0x0 DUP3 ADD MLOAD DUP2 PUSH1 0x0 ADD PUSH1 0x0 PUSH2 0x100 EXP DUP2 SLOAD DUP2 PUSH1 0xFF MUL NOT AND SWAP1 DUP4 PUSH1 0xFF AND MUL OR SWAP1 SSTORE POP PUSH1 0x20 DUP3 ADD MLOAD DUP2 PUSH1 0x1 ADD SSTORE PUSH1 0x40 DUP3 ADD MLOAD DUP2 PUSH1 0x2 ADD PUSH1 0x0 PUSH2 0x100 EXP DUP2 SLOAD DUP2 PUSH1 0xFF MUL NOT AND SWAP1 DUP4 PUSH1 0xFF AND MUL OR SWAP1 SSTORE POP PUSH1 0x60 DUP3 ADD MLOAD DUP2 PUSH1 0x2 ADD PUSH1 0x1 PUSH2 0x100 EXP DUP2 SLOAD DUP2 PUSH1 0xFF MUL NOT AND SWAP1 DUP4 PUSH1 0xFF AND MUL OR SWAP1 SSTORE POP PUSH1 0x80 DUP3 ADD MLOAD DUP2 PUSH1 0x3 ADD SSTORE POP POP PUSH1 0x4A PUSH1 0x40 MLOAD DUP1 PUSH1 0xA0 ADD PUSH1 0x40 MSTORE DUP1 PUSH1 0x3 PUSH1 0xFF AND DUP2 MSTORE PUSH1 0x20 ADD PUSH1 0x8 SLOAD PUSH2 0x7D1 MUL DUP2 MSTORE PUSH1 0x20 ADD PUSH1 0xC PUSH1 0xFF AND DUP2 MSTORE PUSH1 0x20 ADD PUSH1 0x3 PUSH1 0xFF AND DUP2 MSTORE PUSH1 0x20 ADD PUSH2 0x7D0 DUP2 MSTORE POP SWAP1 DUP1 PUSH1 0x1 DUP2 SLOAD ADD DUP1 DUP3 SSTORE DUP1 SWAP2 POP POP PUSH1 0x1 SWAP1 SUB SWAP1 PUSH1 0x0 MSTORE PUSH1 0x20 PUSH1 0x0 KECCAK256 SWAP1 PUSH1 0x4 MUL ADD PUSH1 0x0 SWAP1 SWAP2 SWAP1 SWAP2 SWAP1 SWAP2 POP PUSH1 0x0 DUP3 ADD MLOAD DUP2 PUSH1 0x0 ADD PUSH1 0x0 PUSH2 0x100 EXP DUP2 SLOAD DUP2 PUSH1 0xFF MUL NOT AND SWAP1 DUP4 PUSH1 0xFF AND MUL OR SWAP1 SSTORE POP PUSH1 0x20 DUP3 ADD MLOAD DUP2 PUSH1 0x1 ADD SSTORE PUSH1 0x40 DUP3 ADD MLOAD DUP2 PUSH1 0x2 ADD PUSH1 0x0 PUSH2 0x100 EXP DUP2 SLOAD DUP2 PUSH1 0xFF MUL NOT AND SWAP1 DUP4 PUSH1 0xFF AND MUL OR SWAP1 SSTORE POP PUSH1 0x60 DUP3 ADD MLOAD DUP2 PUSH1 0x2 ADD PUSH1 0x1 PUSH2 0x100 EXP DUP2 SLOAD DUP2 PUSH1 0xFF MUL NOT AND SWAP1 DUP4 PUSH1 0xFF AND MUL OR SWAP1 SSTORE POP PUSH1 0x80 DUP3 ADD MLOAD DUP2 PUSH1 0x3 ADD SSTORE POP POP PUSH1 0x4A PUSH1 0x40 MLOAD DUP1 PUSH1 0xA0 ADD PUSH1 0x40 MSTORE DUP1 PUSH1 0x4 PUSH1 0xFF AND DUP2 MSTORE PUSH1 0x20 ADD PUSH1 0x8 SLOAD PUSH2 0x1389 MUL DUP2 MSTORE PUSH1 0x20 ADD PUSH1 0xA PUSH1 0xFF AND DUP2 MSTORE PUSH1 0x20 ADD PUSH1 0x4 PUSH1 0xFF AND DUP2 MSTORE PUSH1 0x20 ADD PUSH2 0x76C DUP2 MSTORE POP SWAP1 DUP1 PUSH1 0x1 DUP2 SLOAD ADD DUP1 DUP3 SSTORE DUP1 SWAP2 POP POP PUSH1 0x1 SWAP1 SUB SWAP1 PUSH1 0x0 MSTORE PUSH1 0x20 PUSH1 0x0 KECCAK256 SWAP1 PUSH1 0x4 MUL ADD PUSH1 0x0 SWAP1 SWAP2 SWAP1 SWAP2 SWAP1 SWAP2 POP PUSH1 0x0 DUP3 ADD MLOAD DUP2 PUSH1 0x0 ADD PUSH1 0x0 PUSH2 0x100 EXP DUP2 SLOAD DUP2 PUSH1 0xFF MUL NOT AND SWAP1 DUP4 PUSH1 0xFF AND MUL OR SWAP1 SSTORE POP PUSH1 0x20 DUP3 ADD MLOAD DUP2 PUSH1 0x1 ADD SSTORE PUSH1 0x40 DUP3 ADD MLOAD DUP2 PUSH1 0x2 ADD PUSH1 0x0 PUSH2 0x100 EXP DUP2 SLOAD DUP2 PUSH1 0xFF MUL NOT AND SWAP1 DUP4 PUSH1 0xFF AND MUL OR SWAP1 SSTORE POP PUSH1 0x60 DUP3 ADD MLOAD DUP2 PUSH1 0x2 ADD PUSH1 0x1 PUSH2 0x100 EXP DUP2 SLOAD DUP2 PUSH1 0xFF MUL NOT AND SWAP1 DUP4 PUSH1 0xFF AND MUL OR SWAP1 SSTORE POP PUSH1 0x80 DUP3 ADD MLOAD DUP2 PUSH1 0x3 ADD SSTORE POP POP POP PUSH3 0xBC4 JUMP JUMPDEST CALLER SWAP1 JUMP JUMPDEST PUSH1 0x4 SLOAD SWAP1 JUMP JUMPDEST PUSH1 0x1 PUSH1 0x1 PUSH1 0xA0 SHL SUB DUP3 AND PUSH3 0x71F JUMPI PUSH1 0x40 MLOAD PUSH3 0x461BCD PUSH1 0xE5 SHL DUP2 MSTORE PUSH1 0x4 ADD PUSH3 0x716 SWAP1 PUSH3 0xB4F JUMP JUMPDEST PUSH1 0x40 MLOAD DUP1 SWAP2 SUB SWAP1 REVERT JUMPDEST PUSH1 0x4 SLOAD PUSH3 0x73E DUP3 PUSH1 0x3 SLOAD PUSH3 0x80C PUSH1 0x20 SHL PUSH3 0x2676 OR SWAP1 SWAP2 SWAP1 PUSH1 0x20 SHR JUMP JUMPDEST LT PUSH3 0x75E JUMPI PUSH1 0x40 MLOAD PUSH3 0x461BCD PUSH1 0xE5 SHL DUP2 MSTORE PUSH1 0x4 ADD PUSH3 0x716 SWAP1 PUSH3 0xB86 JUMP JUMPDEST PUSH3 0x77A DUP2 PUSH1 0x3 SLOAD PUSH3 0x80C PUSH1 0x20 SHL PUSH3 0x2676 OR SWAP1 SWAP2 SWAP1 PUSH1 0x20 SHR JUMP JUMPDEST PUSH1 0x3 SSTORE PUSH1 0x1 PUSH1 0x1 PUSH1 0xA0 SHL SUB DUP3 AND PUSH1 0x0 SWAP1 DUP2 MSTORE PUSH1 0x1 PUSH1 0x20 SWAP1 DUP2 MSTORE PUSH1 0x40 SWAP1 SWAP2 KECCAK256 SLOAD PUSH3 0x7AF SWAP2 DUP4 SWAP1 PUSH3 0x2676 PUSH3 0x80C DUP3 SHL OR SWAP1 SHR JUMP JUMPDEST PUSH1 0x1 PUSH1 0x1 PUSH1 0xA0 SHL SUB DUP4 AND PUSH1 0x0 DUP2 DUP2 MSTORE PUSH1 0x1 PUSH1 0x20 MSTORE PUSH1 0x40 DUP1 DUP3 KECCAK256 SWAP4 SWAP1 SWAP4 SSTORE SWAP2 MLOAD SWAP1 SWAP2 SWAP1 PUSH32 0xDDF252AD1BE2C89B69C2B068FC378DAA952BA7F163C4A11628F55A4DF523B3EF SWAP1 PUSH3 0x800 SWAP1 DUP6 SWAP1 PUSH3 0xBBB JUMP JUMPDEST PUSH1 0x40 MLOAD DUP1 SWAP2 SUB SWAP1 LOG3 POP POP JUMP JUMPDEST PUSH1 0x0 DUP3 DUP3 ADD DUP4 DUP2 LT ISZERO PUSH3 0x834 JUMPI PUSH1 0x40 MLOAD PUSH3 0x461BCD PUSH1 0xE5 SHL DUP2 MSTORE PUSH1 0x4 ADD PUSH3 0x716 SWAP1 PUSH3 0xB18 JUMP JUMPDEST SWAP4 SWAP3 POP POP POP JUMP JUMPDEST DUP3 DUP1 SLOAD DUP3 DUP3 SSTORE SWAP1 PUSH1 0x0 MSTORE PUSH1 0x20 PUSH1 0x0 KECCAK256 SWAP1 DUP2 ADD SWAP3 DUP3 ISZERO PUSH3 0x887 JUMPI SWAP2 PUSH1 0x20 MUL DUP3 ADD JUMPDEST DUP3 DUP2 GT ISZERO PUSH3 0x887 JUMPI DUP3 MLOAD PUSH3 0x876 SWAP1 DUP4 SWAP1 PUSH1 0x3 PUSH3 0x974 JUMP JUMPDEST POP SWAP2 PUSH1 0x20 ADD SWAP2 SWAP1 PUSH1 0x1 ADD SWAP1 PUSH3 0x85C JUMP JUMPDEST POP PUSH3 0x895 SWAP3 SWAP2 POP PUSH3 0xA1D JUMP JUMPDEST POP SWAP1 JUMP JUMPDEST DUP3 DUP1 SLOAD DUP3 DUP3 SSTORE SWAP1 PUSH1 0x0 MSTORE PUSH1 0x20 PUSH1 0x0 KECCAK256 SWAP1 DUP2 ADD SWAP3 DUP3 ISZERO PUSH3 0x8E5 JUMPI SWAP2 PUSH1 0x20 MUL DUP3 ADD JUMPDEST DUP3 DUP2 GT ISZERO PUSH3 0x8E5 JUMPI DUP3 MLOAD PUSH3 0x8D4 SWAP1 DUP4 SWAP1 PUSH1 0x4 PUSH3 0xA3E JUMP JUMPDEST POP SWAP2 PUSH1 0x20 ADD SWAP2 SWAP1 PUSH1 0x1 ADD SWAP1 PUSH3 0x8BA JUMP JUMPDEST POP PUSH3 0x895 SWAP3 SWAP2 POP PUSH3 0xA7B JUMP JUMPDEST DUP3 DUP1 SLOAD PUSH1 0x1 DUP2 PUSH1 0x1 AND ISZERO PUSH2 0x100 MUL SUB AND PUSH1 0x2 SWAP1 DIV SWAP1 PUSH1 0x0 MSTORE PUSH1 0x20 PUSH1 0x0 KECCAK256 SWAP1 PUSH1 0x1F ADD PUSH1 0x20 SWAP1 DIV DUP2 ADD SWAP3 DUP3 PUSH1 0x1F LT PUSH3 0x936 JUMPI DUP1 MLOAD PUSH1 0xFF NOT AND DUP4 DUP1 ADD OR DUP6 SSTORE PUSH3 0x966 JUMP JUMPDEST DUP3 DUP1 ADD PUSH1 0x1 ADD DUP6 SSTORE DUP3 ISZERO PUSH3 0x966 JUMPI SWAP2 DUP3 ADD JUMPDEST DUP3 DUP2 GT ISZERO PUSH3 0x966 JUMPI DUP3 MLOAD DUP3 SSTORE SWAP2 PUSH1 0x20 ADD SWAP2 SWAP1 PUSH1 0x1 ADD SWAP1 PUSH3 0x949 JUMP JUMPDEST POP PUSH3 0x895 SWAP3 SWAP2 POP PUSH3 0xA9C JUMP JUMPDEST DUP3 DUP1 SLOAD DUP3 DUP3 SSTORE SWAP1 PUSH1 0x0 MSTORE PUSH1 0x20 PUSH1 0x0 KECCAK256 SWAP1 PUSH1 0x1F ADD PUSH1 0x20 SWAP1 DIV DUP2 ADD SWAP3 DUP3 ISZERO PUSH3 0xA0F JUMPI SWAP2 PUSH1 0x20 MUL DUP3 ADD PUSH1 0x0 JUMPDEST DUP4 DUP3 GT ISZERO PUSH3 0x9DE JUMPI DUP4 MLOAD DUP4 DUP3 PUSH2 0x100 EXP DUP2 SLOAD DUP2 PUSH1 0xFF MUL NOT AND SWAP1 DUP4 PUSH1 0xFF AND MUL OR SWAP1 SSTORE POP SWAP3 PUSH1 0x20 ADD SWAP3 PUSH1 0x1 ADD PUSH1 0x20 DUP2 PUSH1 0x0 ADD DIV SWAP3 DUP4 ADD SWAP3 PUSH1 0x1 SUB MUL PUSH3 0x99E JUMP JUMPDEST DUP1 ISZERO PUSH3 0xA0D JUMPI DUP3 DUP2 PUSH2 0x100 EXP DUP2 SLOAD SWAP1 PUSH1 0xFF MUL NOT AND SWAP1 SSTORE PUSH1 0x1 ADD PUSH1 0x20 DUP2 PUSH1 0x0 ADD DIV SWAP3 DUP4 ADD SWAP3 PUSH1 0x1 SUB MUL PUSH3 0x9DE JUMP JUMPDEST POP JUMPDEST POP PUSH3 0x895 SWAP3 SWAP2 POP PUSH3 0xAB3 JUMP JUMPDEST DUP1 DUP3 GT ISZERO PUSH3 0x895 JUMPI PUSH1 0x0 PUSH3 0xA34 DUP3 DUP3 PUSH3 0xACE JUMP JUMPDEST POP PUSH1 0x1 ADD PUSH3 0xA1D JUMP JUMPDEST DUP3 DUP1 SLOAD DUP3 DUP3 SSTORE SWAP1 PUSH1 0x0 MSTORE PUSH1 0x20 PUSH1 0x0 KECCAK256 SWAP1 DUP2 ADD SWAP3 DUP3 ISZERO PUSH3 0x966 JUMPI SWAP2 PUSH1 0x20 MUL DUP3 ADD DUP3 DUP2 GT ISZERO PUSH3 0x966 JUMPI DUP3 MLOAD DUP3 SSTORE SWAP2 PUSH1 0x20 ADD SWAP2 SWAP1 PUSH1 0x1 ADD SWAP1 PUSH3 0x949 JUMP JUMPDEST DUP1 DUP3 GT ISZERO PUSH3 0x895 JUMPI PUSH1 0x0 PUSH3 0xA92 DUP3 DUP3 PUSH3 0xAF8 JUMP JUMPDEST POP PUSH1 0x1 ADD PUSH3 0xA7B JUMP JUMPDEST JUMPDEST DUP1 DUP3 GT ISZERO PUSH3 0x895 JUMPI PUSH1 0x0 DUP2 SSTORE PUSH1 0x1 ADD PUSH3 0xA9D JUMP JUMPDEST JUMPDEST DUP1 DUP3 GT ISZERO PUSH3 0x895 JUMPI DUP1 SLOAD PUSH1 0xFF NOT AND DUP2 SSTORE PUSH1 0x1 ADD PUSH3 0xAB4 JUMP JUMPDEST POP DUP1 SLOAD PUSH1 0x0 DUP3 SSTORE PUSH1 0x1F ADD PUSH1 0x20 SWAP1 DIV SWAP1 PUSH1 0x0 MSTORE PUSH1 0x20 PUSH1 0x0 KECCAK256 SWAP1 DUP2 ADD SWAP1 PUSH3 0xAF5 SWAP2 SWAP1 PUSH3 0xA9C JUMP JUMPDEST POP JUMP JUMPDEST POP DUP1 SLOAD PUSH1 0x0 DUP3 SSTORE SWAP1 PUSH1 0x0 MSTORE PUSH1 0x20 PUSH1 0x0 KECCAK256 SWAP1 DUP2 ADD SWAP1 PUSH3 0xAF5 SWAP2 SWAP1 PUSH3 0xA9C JUMP JUMPDEST PUSH1 0x20 DUP1 DUP3 MSTORE PUSH1 0x1B SWAP1 DUP3 ADD MSTORE PUSH32 0x536166654D6174683A206164646974696F6E206F766572666C6F770000000000 PUSH1 0x40 DUP3 ADD MSTORE PUSH1 0x60 ADD SWAP1 JUMP JUMPDEST PUSH1 0x20 DUP1 DUP3 MSTORE PUSH1 0x1F SWAP1 DUP3 ADD MSTORE PUSH32 0x48524332303A206D696E7420746F20746865207A65726F206164647265737300 PUSH1 0x40 DUP3 ADD MSTORE PUSH1 0x60 ADD SWAP1 JUMP JUMPDEST PUSH1 0x20 DUP1 DUP3 MSTORE DUP2 DUP2 ADD MSTORE PUSH32 0x48524332303A20616C72656164792072656163686564206D6178537570706C79 PUSH1 0x40 DUP3 ADD MSTORE PUSH1 0x60 ADD SWAP1 JUMP JUMPDEST SWAP1 DUP2 MSTORE PUSH1 0x20 ADD SWAP1 JUMP JUMPDEST PUSH2 0x5DDF DUP1 PUSH3 0xBD4 PUSH1 0x0 CODECOPY PUSH1 0x0 RETURN INVALID PUSH1 0x80 PUSH1 0x40 MSTORE CALLVALUE DUP1 ISZERO PUSH2 0x10 JUMPI PUSH1 0x0 DUP1 REVERT JUMPDEST POP PUSH1 0x4 CALLDATASIZE LT PUSH2 0x29F JUMPI PUSH1 0x0 CALLDATALOAD PUSH1 0xE0 SHR DUP1 PUSH4 0x893D20E8 GT PUSH2 0x167 JUMPI DUP1 PUSH4 0xCC85F080 GT PUSH2 0xCE JUMPI DUP1 PUSH4 0xED73EE25 GT PUSH2 0x87 JUMPI DUP1 PUSH4 0xED73EE25 EQ PUSH2 0x59F JUMPI DUP1 PUSH4 0xF2218F56 EQ PUSH2 0x5A7 JUMPI DUP1 PUSH4 0xF2FDE38B EQ PUSH2 0x5BA JUMPI DUP1 PUSH4 0xF656F562 EQ PUSH2 0x5CD JUMPI DUP1 PUSH4 0xF697DDB2 EQ PUSH2 0x5E0 JUMPI DUP1 PUSH4 0xFD125ECE EQ PUSH2 0x5E8 JUMPI PUSH2 0x29F JUMP JUMPDEST DUP1 PUSH4 0xCC85F080 EQ PUSH2 0x525 JUMPI DUP1 PUSH4 0xD5ABEB01 EQ PUSH2 0x549 JUMPI DUP1 PUSH4 0xD96A094A EQ PUSH2 0x551 JUMPI DUP1 PUSH4 0xDD62ED3E EQ PUSH2 0x564 JUMPI DUP1 PUSH4 0xE4849B32 EQ PUSH2 0x577 JUMPI DUP1 PUSH4 0xE87F2CCE EQ PUSH2 0x58A JUMPI PUSH2 0x29F JUMP JUMPDEST DUP1 PUSH4 0xA0712D68 GT PUSH2 0x120 JUMPI DUP1 PUSH4 0xA0712D68 EQ PUSH2 0x4A6 JUMPI DUP1 PUSH4 0xA457C2D7 EQ PUSH2 0x4B9 JUMPI DUP1 PUSH4 0xA7310B58 EQ PUSH2 0x4CC JUMPI DUP1 PUSH4 0xA9059CBB EQ PUSH2 0x4EC JUMPI DUP1 PUSH4 0xBDC42A7A EQ PUSH2 0x4FF JUMPI DUP1 PUSH4 0xC7111063 EQ PUSH2 0x512 JUMPI PUSH2 0x29F JUMP JUMPDEST DUP1 PUSH4 0x893D20E8 EQ PUSH2 0x448 JUMPI DUP1 PUSH4 0x8A43BB01 EQ PUSH2 0x45D JUMPI DUP1 PUSH4 0x8DA5CB5B EQ PUSH2 0x470 JUMPI DUP1 PUSH4 0x95D89B41 EQ PUSH2 0x478 JUMPI DUP1 PUSH4 0x99EB9576 EQ PUSH2 0x480 JUMPI DUP1 PUSH4 0x9BF00117 EQ PUSH2 0x493 JUMPI PUSH2 0x29F JUMP JUMPDEST DUP1 PUSH4 0x36FDDE7C GT PUSH2 0x20B JUMPI DUP1 PUSH4 0x47E7EF24 GT PUSH2 0x1C4 JUMPI DUP1 PUSH4 0x47E7EF24 EQ PUSH2 0x3E7 JUMPI DUP1 PUSH4 0x5DA4C926 EQ PUSH2 0x3FA JUMPI DUP1 PUSH4 0x5EE4462C EQ PUSH2 0x40D JUMPI DUP1 PUSH4 0x6CB44428 EQ PUSH2 0x415 JUMPI DUP1 PUSH4 0x70A08231 EQ PUSH2 0x42D JUMPI DUP1 PUSH4 0x715018A6 EQ PUSH2 0x440 JUMPI PUSH2 0x29F JUMP JUMPDEST DUP1 PUSH4 0x36FDDE7C EQ PUSH2 0x3A1 JUMPI DUP1 PUSH4 0x39509351 EQ PUSH2 0x3A9 JUMPI DUP1 PUSH4 0x39B50688 EQ PUSH2 0x3BC JUMPI DUP1 PUSH4 0x3CCFD60B EQ PUSH2 0x3C4 JUMPI DUP1 PUSH4 0x3EAAF86B EQ PUSH2 0x3CC JUMPI DUP1 PUSH4 0x440565AF EQ PUSH2 0x3D4 JUMPI PUSH2 0x29F JUMP JUMPDEST DUP1 PUSH4 0x18160DDD GT PUSH2 0x25D JUMPI DUP1 PUSH4 0x18160DDD EQ PUSH2 0x357 JUMPI DUP1 PUSH4 0x1E71615B EQ PUSH2 0x35F JUMPI DUP1 PUSH4 0x22F4596F EQ PUSH2 0x367 JUMPI DUP1 PUSH4 0x23B872DD EQ PUSH2 0x36F JUMPI DUP1 PUSH4 0x26C0E5C5 EQ PUSH2 0x382 JUMPI DUP1 PUSH4 0x313CE567 EQ PUSH2 0x38C JUMPI PUSH2 0x29F JUMP JUMPDEST DUP1 PUSH3 0x3F7A89 EQ PUSH2 0x2A4 JUMPI DUP1 PUSH4 0x6FDDE03 EQ PUSH2 0x2CD JUMPI DUP1 PUSH4 0x95EA7B3 EQ PUSH2 0x2E2 JUMPI DUP1 PUSH4 0xE25A441 EQ PUSH2 0x302 JUMPI DUP1 PUSH4 0x15C43AAF EQ PUSH2 0x322 JUMPI DUP1 PUSH4 0x1701A82A EQ PUSH2 0x337 JUMPI JUMPDEST PUSH1 0x0 DUP1 REVERT JUMPDEST PUSH2 0x2B7 PUSH2 0x2B2 CALLDATASIZE PUSH1 0x4 PUSH2 0x5254 JUMP JUMPDEST PUSH2 0x60A JUMP JUMPDEST PUSH1 0x40 MLOAD PUSH2 0x2C4 SWAP2 SWAP1 PUSH2 0x54BA JUMP JUMPDEST PUSH1 0x40 MLOAD DUP1 SWAP2 SUB SWAP1 RETURN JUMPDEST PUSH2 0x2D5 PUSH2 0x927 JUMP JUMPDEST PUSH1 0x40 MLOAD PUSH2 0x2C4 SWAP2 SWAP1 PUSH2 0x5643 JUMP JUMPDEST PUSH2 0x2F5 PUSH2 0x2F0 CALLDATASIZE PUSH1 0x4 PUSH2 0x53B3 JUMP JUMPDEST PUSH2 0x9BD JUMP JUMPDEST PUSH1 0x40 MLOAD PUSH2 0x2C4 SWAP2 SWAP1 PUSH2 0x5613 JUMP JUMPDEST PUSH2 0x315 PUSH2 0x310 CALLDATASIZE PUSH1 0x4 PUSH2 0x5254 JUMP JUMPDEST PUSH2 0x9DB JUMP JUMPDEST PUSH1 0x40 MLOAD PUSH2 0x2C4 SWAP2 SWAP1 PUSH2 0x5C21 JUMP JUMPDEST PUSH2 0x32A PUSH2 0xA82 JUMP JUMPDEST PUSH1 0x40 MLOAD PUSH2 0x2C4 SWAP2 SWAP1 PUSH2 0x55C1 JUMP JUMPDEST PUSH2 0x34A PUSH2 0x345 CALLDATASIZE PUSH1 0x4 PUSH2 0x5254 JUMP JUMPDEST PUSH2 0xB36 JUMP JUMPDEST PUSH1 0x40 MLOAD PUSH2 0x2C4 SWAP2 SWAP1 PUSH2 0x558F JUMP JUMPDEST PUSH2 0x315 PUSH2 0xCB5 JUMP JUMPDEST PUSH2 0x2B7 PUSH2 0xCBB JUMP JUMPDEST PUSH2 0x315 PUSH2 0xE66 JUMP JUMPDEST PUSH2 0x2F5 PUSH2 0x37D CALLDATASIZE PUSH1 0x4 PUSH2 0x5373 JUMP JUMPDEST PUSH2 0xE6C JUMP JUMPDEST PUSH2 0x38A PUSH2 0xEF3 JUMP JUMPDEST STOP JUMPDEST PUSH2 0x394 PUSH2 0xFDF JUMP JUMPDEST PUSH1 0x40 MLOAD PUSH2 0x2C4 SWAP2 SWAP1 PUSH2 0x5CA5 JUMP JUMPDEST PUSH2 0x38A PUSH2 0xFE8 JUMP JUMPDEST PUSH2 0x2F5 PUSH2 0x3B7 CALLDATASIZE PUSH1 0x4 PUSH2 0x53B3 JUMP JUMPDEST PUSH2 0x10B0 JUMP JUMPDEST PUSH2 0x38A PUSH2 0x10FE JUMP JUMPDEST PUSH2 0x38A PUSH2 0x1389 JUMP JUMPDEST PUSH2 0x315 PUSH2 0x175C JUMP JUMPDEST PUSH2 0x38A PUSH2 0x3E2 CALLDATASIZE PUSH1 0x4 PUSH2 0x5373 JUMP JUMPDEST PUSH2 0x1762 JUMP JUMPDEST PUSH2 0x38A PUSH2 0x3F5 CALLDATASIZE PUSH1 0x4 PUSH2 0x53B3 JUMP JUMPDEST PUSH2 0x177E JUMP JUMPDEST PUSH2 0x38A PUSH2 0x408 CALLDATASIZE PUSH1 0x4 PUSH2 0x53B3 JUMP JUMPDEST PUSH2 0x17E2 JUMP JUMPDEST PUSH2 0x38A PUSH2 0x17F0 JUMP JUMPDEST PUSH2 0x41D PUSH2 0x1A3B JUMP JUMPDEST PUSH1 0x40 MLOAD PUSH2 0x2C4 SWAP5 SWAP4 SWAP3 SWAP2 SWAP1 PUSH2 0x5C8A JUMP JUMPDEST PUSH2 0x315 PUSH2 0x43B CALLDATASIZE PUSH1 0x4 PUSH2 0x5254 JUMP JUMPDEST PUSH2 0x1A9C JUMP JUMPDEST PUSH2 0x38A PUSH2 0x1AB7 JUMP JUMPDEST PUSH2 0x450 PUSH2 0x1B36 JUMP JUMPDEST PUSH1 0x40 MLOAD PUSH2 0x2C4 SWAP2 SWAP1 PUSH2 0x544A JUMP JUMPDEST PUSH2 0x38A PUSH2 0x46B CALLDATASIZE PUSH1 0x4 PUSH2 0x53B3 JUMP JUMPDEST PUSH2 0x1B45 JUMP JUMPDEST PUSH2 0x450 PUSH2 0x1B82 JUMP JUMPDEST PUSH2 0x2D5 PUSH2 0x1B91 JUMP JUMPDEST PUSH2 0x315 PUSH2 0x48E CALLDATASIZE PUSH1 0x4 PUSH2 0x53FE JUMP JUMPDEST PUSH2 0x1BF2 JUMP JUMPDEST PUSH2 0x38A PUSH2 0x4A1 CALLDATASIZE PUSH1 0x4 PUSH2 0x5373 JUMP JUMPDEST PUSH2 0x1C0D JUMP JUMPDEST PUSH2 0x2F5 PUSH2 0x4B4 CALLDATASIZE PUSH1 0x4 PUSH2 0x53FE JUMP JUMPDEST PUSH2 0x1C18 JUMP JUMPDEST PUSH2 0x2F5 PUSH2 0x4C7 CALLDATASIZE PUSH1 0x4 PUSH2 0x53B3 JUMP JUMPDEST PUSH2 0x1C68 JUMP JUMPDEST PUSH2 0x4DF PUSH2 0x4DA CALLDATASIZE PUSH1 0x4 PUSH2 0x5254 JUMP JUMPDEST PUSH2 0x1CD0 JUMP JUMPDEST PUSH1 0x40 MLOAD PUSH2 0x2C4 SWAP2 SWAP1 PUSH2 0x55EA JUMP JUMPDEST PUSH2 0x2F5 PUSH2 0x4FA CALLDATASIZE PUSH1 0x4 PUSH2 0x53B3 JUMP JUMPDEST PUSH2 0x1E4F JUMP JUMPDEST PUSH2 0x315 PUSH2 0x50D CALLDATASIZE PUSH1 0x4 PUSH2 0x53FE JUMP JUMPDEST PUSH2 0x1E63 JUMP JUMPDEST PUSH2 0x38A PUSH2 0x520 CALLDATASIZE PUSH1 0x4 PUSH2 0x5373 JUMP JUMPDEST PUSH2 0x1E6E JUMP JUMPDEST PUSH2 0x538 PUSH2 0x533 CALLDATASIZE PUSH1 0x4 PUSH2 0x5254 JUMP JUMPDEST PUSH2 0x1E7A JUMP JUMPDEST PUSH1 0x40 MLOAD PUSH2 0x2C4 SWAP6 SWAP5 SWAP4 SWAP3 SWAP2 SWAP1 PUSH2 0x561E JUMP JUMPDEST PUSH2 0x315 PUSH2 0x2204 JUMP JUMPDEST PUSH2 0x38A PUSH2 0x55F CALLDATASIZE PUSH1 0x4 PUSH2 0x53FE JUMP JUMPDEST PUSH2 0x220A JUMP JUMPDEST PUSH2 0x315 PUSH2 0x572 CALLDATASIZE PUSH1 0x4 PUSH2 0x5270 JUMP JUMPDEST PUSH2 0x2246 JUMP JUMPDEST PUSH2 0x38A PUSH2 0x585 CALLDATASIZE PUSH1 0x4 PUSH2 0x53FE JUMP JUMPDEST PUSH2 0x2271 JUMP JUMPDEST PUSH2 0x592 PUSH2 0x22AD JUMP JUMPDEST PUSH1 0x40 MLOAD PUSH2 0x2C4 SWAP2 SWAP1 PUSH2 0x5522 JUMP JUMPDEST PUSH2 0x38A PUSH2 0x2463 JUMP JUMPDEST PUSH2 0x38A PUSH2 0x5B5 CALLDATASIZE PUSH1 0x4 PUSH2 0x52A8 JUMP JUMPDEST PUSH2 0x24A1 JUMP JUMPDEST PUSH2 0x38A PUSH2 0x5C8 CALLDATASIZE PUSH1 0x4 PUSH2 0x5254 JUMP JUMPDEST PUSH2 0x2520 JUMP JUMPDEST PUSH2 0x38A PUSH2 0x5DB CALLDATASIZE PUSH1 0x4 PUSH2 0x5303 JUMP JUMPDEST PUSH2 0x255E JUMP JUMPDEST PUSH2 0x450 PUSH2 0x25C7 JUMP JUMPDEST PUSH2 0x5FB PUSH2 0x5F6 CALLDATASIZE PUSH1 0x4 PUSH2 0x5254 JUMP JUMPDEST PUSH2 0x25D6 JUMP JUMPDEST PUSH1 0x40 MLOAD PUSH2 0x2C4 SWAP4 SWAP3 SWAP2 SWAP1 PUSH2 0x5C2A JUMP JUMPDEST PUSH1 0x60 PUSH1 0x0 DUP1 JUMPDEST PUSH1 0x51 SLOAD DUP2 LT ISZERO PUSH2 0x664 JUMPI PUSH1 0x0 PUSH1 0x51 DUP3 DUP2 SLOAD DUP2 LT PUSH2 0x629 JUMPI INVALID JUMPDEST PUSH1 0x0 SWAP2 DUP3 MSTORE PUSH1 0x20 SWAP1 SWAP2 KECCAK256 PUSH1 0x4 SWAP1 SWAP2 MUL ADD PUSH1 0x1 DUP2 ADD SLOAD SWAP1 SWAP2 POP PUSH1 0x1 PUSH1 0x1 PUSH1 0xA0 SHL SUB DUP7 DUP2 AND SWAP2 AND EQ ISZERO PUSH2 0x65B JUMPI PUSH1 0x1 SWAP1 SWAP3 ADD SWAP2 JUMPDEST POP PUSH1 0x1 ADD PUSH2 0x610 JUMP JUMPDEST POP PUSH1 0x0 JUMPDEST PUSH1 0x52 SLOAD DUP2 LT ISZERO PUSH2 0x6BC JUMPI PUSH1 0x0 PUSH1 0x52 DUP3 DUP2 SLOAD DUP2 LT PUSH2 0x681 JUMPI INVALID JUMPDEST PUSH1 0x0 SWAP2 DUP3 MSTORE PUSH1 0x20 SWAP1 SWAP2 KECCAK256 PUSH1 0x4 SWAP1 SWAP2 MUL ADD PUSH1 0x1 DUP2 ADD SLOAD SWAP1 SWAP2 POP PUSH1 0x1 PUSH1 0x1 PUSH1 0xA0 SHL SUB DUP7 DUP2 AND SWAP2 AND EQ ISZERO PUSH2 0x6B3 JUMPI PUSH1 0x1 SWAP1 SWAP3 ADD SWAP2 JUMPDEST POP PUSH1 0x1 ADD PUSH2 0x668 JUMP JUMPDEST POP PUSH1 0x60 DUP2 PUSH8 0xFFFFFFFFFFFFFFFF DUP2 GT DUP1 ISZERO PUSH2 0x6D6 JUMPI PUSH1 0x0 DUP1 REVERT JUMPDEST POP PUSH1 0x40 MLOAD SWAP1 DUP1 DUP3 MSTORE DUP1 PUSH1 0x20 MUL PUSH1 0x20 ADD DUP3 ADD PUSH1 0x40 MSTORE DUP1 ISZERO PUSH2 0x710 JUMPI DUP2 PUSH1 0x20 ADD JUMPDEST PUSH2 0x6FD PUSH2 0x5127 JUMP JUMPDEST DUP2 MSTORE PUSH1 0x20 ADD SWAP1 PUSH1 0x1 SWAP1 SUB SWAP1 DUP2 PUSH2 0x6F5 JUMPI SWAP1 POP JUMPDEST POP SWAP1 POP PUSH1 0x0 DUP1 JUMPDEST PUSH1 0x51 SLOAD DUP2 LT ISZERO PUSH2 0x817 JUMPI PUSH1 0x0 PUSH1 0x51 DUP3 DUP2 SLOAD DUP2 LT PUSH2 0x730 JUMPI INVALID JUMPDEST PUSH1 0x0 SWAP2 DUP3 MSTORE PUSH1 0x20 SWAP1 SWAP2 KECCAK256 PUSH1 0x4 SWAP1 SWAP2 MUL ADD PUSH1 0x1 DUP2 ADD SLOAD SWAP1 SWAP2 POP PUSH1 0x1 PUSH1 0x1 PUSH1 0xA0 SHL SUB DUP9 DUP2 AND SWAP2 AND EQ ISZERO PUSH2 0x80E JUMPI DUP1 PUSH1 0x0 ADD SLOAD DUP5 DUP5 DUP2 MLOAD DUP2 LT PUSH2 0x76C JUMPI INVALID JUMPDEST PUSH1 0x20 MUL PUSH1 0x20 ADD ADD MLOAD PUSH1 0x0 PUSH1 0x4 DUP2 LT PUSH2 0x780 JUMPI INVALID JUMPDEST PUSH1 0x20 MUL ADD MSTORE DUP4 MLOAD PUSH1 0x0 SWAP1 DUP6 SWAP1 DUP6 SWAP1 DUP2 LT PUSH2 0x796 JUMPI INVALID JUMPDEST PUSH1 0x20 MUL PUSH1 0x20 ADD ADD MLOAD PUSH1 0x1 PUSH1 0x4 DUP2 LT PUSH2 0x7AA JUMPI INVALID JUMPDEST PUSH1 0x20 MUL ADD MSTORE PUSH1 0x2 DUP2 ADD SLOAD DUP5 MLOAD DUP6 SWAP1 DUP6 SWAP1 DUP2 LT PUSH2 0x7C2 JUMPI INVALID JUMPDEST PUSH1 0x20 MUL PUSH1 0x20 ADD ADD MLOAD PUSH1 0x2 PUSH1 0x4 DUP2 LT PUSH2 0x7D6 JUMPI INVALID JUMPDEST PUSH1 0x20 MUL ADD MSTORE PUSH1 0x3 DUP2 ADD SLOAD DUP5 MLOAD DUP6 SWAP1 DUP6 SWAP1 DUP2 LT PUSH2 0x7EE JUMPI INVALID JUMPDEST PUSH1 0x20 MUL PUSH1 0x20 ADD ADD MLOAD PUSH1 0x3 PUSH1 0x4 DUP2 LT PUSH2 0x802 JUMPI INVALID JUMPDEST PUSH1 0x20 MUL ADD MSTORE PUSH1 0x1 SWAP1 SWAP3 ADD SWAP2 JUMPDEST POP PUSH1 0x1 ADD PUSH2 0x717 JUMP JUMPDEST POP PUSH1 0x0 JUMPDEST PUSH1 0x52 SLOAD DUP2 LT ISZERO PUSH2 0x91B JUMPI PUSH1 0x0 PUSH1 0x52 DUP3 DUP2 SLOAD DUP2 LT PUSH2 0x834 JUMPI INVALID JUMPDEST PUSH1 0x0 SWAP2 DUP3 MSTORE PUSH1 0x20 SWAP1 SWAP2 KECCAK256 PUSH1 0x4 SWAP1 SWAP2 MUL ADD PUSH1 0x1 DUP2 ADD SLOAD SWAP1 SWAP2 POP PUSH1 0x1 PUSH1 0x1 PUSH1 0xA0 SHL SUB DUP9 DUP2 AND SWAP2 AND EQ ISZERO PUSH2 0x912 JUMPI DUP1 PUSH1 0x0 ADD SLOAD DUP5 DUP5 DUP2 MLOAD DUP2 LT PUSH2 0x870 JUMPI INVALID JUMPDEST PUSH1 0x20 MUL PUSH1 0x20 ADD ADD MLOAD PUSH1 0x0 PUSH1 0x4 DUP2 LT PUSH2 0x884 JUMPI INVALID JUMPDEST PUSH1 0x20 MUL ADD MSTORE DUP4 MLOAD PUSH1 0x1 SWAP1 DUP6 SWAP1 DUP6 SWAP1 DUP2 LT PUSH2 0x89A JUMPI INVALID JUMPDEST PUSH1 0x20 MUL PUSH1 0x20 ADD ADD MLOAD PUSH1 0x1 PUSH1 0x4 DUP2 LT PUSH2 0x8AE JUMPI INVALID JUMPDEST PUSH1 0x20 MUL ADD MSTORE PUSH1 0x2 DUP2 ADD SLOAD DUP5 MLOAD DUP6 SWAP1 DUP6 SWAP1 DUP2 LT PUSH2 0x8C6 JUMPI INVALID JUMPDEST PUSH1 0x20 MUL PUSH1 0x20 ADD ADD MLOAD PUSH1 0x2 PUSH1 0x4 DUP2 LT PUSH2 0x8DA JUMPI INVALID JUMPDEST PUSH1 0x20 MUL ADD MSTORE PUSH1 0x3 DUP2 ADD SLOAD DUP5 MLOAD DUP6 SWAP1 DUP6 SWAP1 DUP2 LT PUSH2 0x8F2 JUMPI INVALID JUMPDEST PUSH1 0x20 MUL PUSH1 0x20 ADD ADD MLOAD PUSH1 0x3 PUSH1 0x4 DUP2 LT PUSH2 0x906 JUMPI INVALID JUMPDEST PUSH1 0x20 MUL ADD MSTORE PUSH1 0x1 SWAP1 SWAP3 ADD SWAP2 JUMPDEST POP PUSH1 0x1 ADD PUSH2 0x81B JUMP JUMPDEST POP SWAP1 SWAP3 POP POP POP JUMPDEST SWAP2 SWAP1 POP JUMP JUMPDEST PUSH1 0x5 DUP1 SLOAD PUSH1 0x40 DUP1 MLOAD PUSH1 0x20 PUSH1 0x1F PUSH1 0x2 PUSH1 0x0 NOT PUSH2 0x100 PUSH1 0x1 DUP9 AND ISZERO MUL ADD SWAP1 SWAP6 AND SWAP5 SWAP1 SWAP5 DIV SWAP4 DUP5 ADD DUP2 SWAP1 DIV DUP2 MUL DUP3 ADD DUP2 ADD SWAP1 SWAP3 MSTORE DUP3 DUP2 MSTORE PUSH1 0x60 SWAP4 SWAP1 SWAP3 SWAP1 SWAP2 DUP4 ADD DUP3 DUP3 DUP1 ISZERO PUSH2 0x9B3 JUMPI DUP1 PUSH1 0x1F LT PUSH2 0x988 JUMPI PUSH2 0x100 DUP1 DUP4 SLOAD DIV MUL DUP4 MSTORE SWAP2 PUSH1 0x20 ADD SWAP2 PUSH2 0x9B3 JUMP JUMPDEST DUP3 ADD SWAP2 SWAP1 PUSH1 0x0 MSTORE PUSH1 0x20 PUSH1 0x0 KECCAK256 SWAP1 JUMPDEST DUP2 SLOAD DUP2 MSTORE SWAP1 PUSH1 0x1 ADD SWAP1 PUSH1 0x20 ADD DUP1 DUP4 GT PUSH2 0x996 JUMPI DUP3 SWAP1 SUB PUSH1 0x1F AND DUP3 ADD SWAP2 JUMPDEST POP POP POP POP POP SWAP1 POP SWAP1 JUMP JUMPDEST PUSH1 0x0 PUSH2 0x9D1 PUSH2 0x9CA PUSH2 0x26A2 JUMP JUMPDEST DUP5 DUP5 PUSH2 0x26A6 JUMP JUMPDEST POP PUSH1 0x1 JUMPDEST SWAP3 SWAP2 POP POP JUMP JUMPDEST PUSH1 0xE SLOAD PUSH1 0x0 SWAP1 PUSH1 0x1 PUSH1 0x1 PUSH1 0xA0 SHL SUB DUP4 DUP2 AND SWAP2 AND EQ DUP1 PUSH2 0xA07 JUMPI POP PUSH1 0x12 SLOAD PUSH1 0x1 PUSH1 0x1 PUSH1 0xA0 SHL SUB DUP4 DUP2 AND SWAP2 AND EQ JUMPDEST DUP1 PUSH2 0xA1F JUMPI POP PUSH1 0xA SLOAD PUSH1 0x1 PUSH1 0x1 PUSH1 0xA0 SHL SUB DUP4 DUP2 AND SWAP2 AND EQ JUMPDEST ISZERO PUSH2 0xA2C JUMPI POP PUSH1 0x0 PUSH2 0x922 JUMP JUMPDEST PUSH2 0xA34 PUSH2 0xFDF JUMP JUMPDEST PUSH1 0x1 PUSH1 0x1 PUSH1 0xA0 SHL SUB DUP4 AND PUSH1 0x0 SWAP1 DUP2 MSTORE PUSH1 0x49 PUSH1 0x20 MSTORE PUSH1 0x40 SWAP1 KECCAK256 PUSH1 0x1 ADD SLOAD PUSH1 0xFF SWAP2 SWAP1 SWAP2 AND PUSH1 0xA EXP SWAP1 PUSH2 0x3E9 PUSH1 0x1 PUSH1 0x20 SHL SWAP1 SWAP2 DIV PUSH2 0xFFFF AND LT PUSH2 0xA75 JUMPI PUSH1 0x2 PUSH2 0xA78 JUMP JUMPDEST PUSH1 0x5 JUMPDEST PUSH1 0xFF AND MUL SWAP3 SWAP2 POP POP JUMP JUMPDEST PUSH2 0xA8A PUSH2 0x5145 JUMP JUMPDEST PUSH1 0x0 DUP1 PUSH2 0xA95 PUSH2 0x275A JUMP JUMPDEST SWAP2 POP SWAP2 POP PUSH1 0x40 MLOAD DUP1 PUSH2 0x1C0 ADD PUSH1 0x40 MSTORE DUP1 PUSH1 0x17 SLOAD DUP2 MSTORE PUSH1 0x20 ADD PUSH1 0x1C SLOAD DUP2 MSTORE PUSH1 0x20 ADD PUSH1 0x4C SLOAD DUP2 MSTORE PUSH1 0x20 ADD PUSH1 0x3 SLOAD DUP2 MSTORE PUSH1 0x20 ADD PUSH1 0x19 SLOAD DUP2 MSTORE PUSH1 0x20 ADD PUSH1 0x1D SLOAD DUP2 MSTORE PUSH1 0x20 ADD PUSH2 0xADD PUSH2 0x27D4 JUMP JUMPDEST DUP2 MSTORE PUSH1 0x20 ADD PUSH1 0x57 SLOAD DUP2 MSTORE PUSH1 0x20 ADD DUP3 DUP2 MSTORE PUSH1 0x20 ADD DUP4 DUP2 MSTORE PUSH1 0x20 ADD PUSH2 0xB00 PUSH1 0x0 PUSH2 0x27F1 JUMP JUMPDEST DUP2 MSTORE PUSH1 0x20 ADD PUSH2 0xB0F PUSH1 0x1 PUSH2 0x27F1 JUMP JUMPDEST DUP2 MSTORE PUSH1 0x20 ADD PUSH2 0xB1E PUSH1 0x2 PUSH2 0x27F1 JUMP JUMPDEST DUP2 MSTORE PUSH1 0x20 ADD PUSH2 0xB2D PUSH1 0x3 PUSH2 0x27F1 JUMP JUMPDEST SWAP1 MSTORE SWAP3 POP POP POP SWAP1 JUMP JUMPDEST PUSH2 0xB3E PUSH2 0x5164 JUMP JUMPDEST PUSH1 0x1 PUSH1 0x1 PUSH1 0xA0 SHL SUB DUP3 AND PUSH1 0x0 SWAP1 DUP2 MSTORE PUSH1 0x56 PUSH1 0x20 MSTORE PUSH1 0x40 DUP2 KECCAK256 DUP1 SLOAD SWAP1 SWAP2 SWAP1 DUP2 DUP1 PUSH2 0xB65 PUSH2 0x275A JUMP JUMPDEST SWAP2 POP POP PUSH1 0x0 JUMPDEST DUP6 SLOAD DUP2 LT ISZERO PUSH2 0xBB9 JUMPI PUSH1 0x55 PUSH1 0x0 DUP8 DUP4 DUP2 SLOAD DUP2 LT PUSH2 0xB84 JUMPI INVALID JUMPDEST PUSH1 0x0 SWAP2 DUP3 MSTORE PUSH1 0x20 DUP1 DUP4 KECCAK256 SWAP1 SWAP2 ADD SLOAD PUSH1 0x1 PUSH1 0x1 PUSH1 0xA0 SHL SUB AND DUP4 MSTORE DUP3 ADD SWAP3 SWAP1 SWAP3 MSTORE PUSH1 0x40 ADD SWAP1 KECCAK256 PUSH1 0x2 ADD SLOAD SWAP5 SWAP1 SWAP5 ADD SWAP4 PUSH1 0x1 ADD PUSH2 0xB6B JUMP JUMPDEST POP PUSH1 0x1 PUSH1 0x1 PUSH1 0xA0 SHL SUB DUP8 AND PUSH1 0x0 SWAP1 DUP2 MSTORE PUSH1 0x55 PUSH1 0x20 MSTORE PUSH1 0x40 SWAP1 KECCAK256 PUSH1 0x3 DUP2 ADD SLOAD ISZERO PUSH2 0xC0A JUMPI DUP1 SLOAD PUSH2 0xC05 JUMPI PUSH2 0x2580 DUP2 PUSH1 0x3 ADD SLOAD NUMBER SUB LT PUSH2 0xBF8 JUMPI PUSH1 0x0 PUSH2 0xBFB JUMP JUMPDEST PUSH1 0x1 JUMPDEST PUSH1 0xFF AND SWAP3 POP PUSH2 0xC0A JUMP JUMPDEST PUSH1 0x1 SWAP3 POP JUMPDEST PUSH1 0x0 DUP1 PUSH2 0xC16 DUP11 PUSH2 0x28A7 JUMP JUMPDEST SWAP2 POP SWAP2 POP PUSH1 0x0 DUP5 PUSH1 0x0 EQ ISZERO PUSH2 0xC2C JUMPI PUSH1 0x0 PUSH2 0xC47 JUMP JUMPDEST DUP5 PUSH2 0x7080 MUL PUSH1 0x9 SLOAD DUP6 PUSH1 0x2 ADD SLOAD PUSH2 0xBB80 MUL MUL DUP2 PUSH2 0xC45 JUMPI INVALID JUMPDEST DIV JUMPDEST PUSH1 0x40 DUP1 MLOAD PUSH2 0x160 DUP2 ADD DUP3 MSTORE PUSH1 0x2 DUP8 ADD SLOAD DUP2 MSTORE PUSH1 0x20 DUP2 ADD SWAP3 SWAP1 SWAP3 MSTORE DUP6 SLOAD SWAP1 DUP3 ADD MSTORE PUSH1 0x60 DUP2 ADD SWAP8 SWAP1 SWAP8 MSTORE POP PUSH1 0x80 DUP7 ADD SWAP7 SWAP1 SWAP7 MSTORE PUSH1 0xA0 DUP6 ADD SWAP4 SWAP1 SWAP4 MSTORE PUSH1 0x3 DUP2 ADD SLOAD PUSH1 0xC0 DUP6 ADD MSTORE PUSH1 0x6 DUP2 ADD SLOAD PUSH1 0xE0 DUP6 ADD MSTORE PUSH1 0x4 ADD SLOAD PUSH2 0x100 DUP5 ADD MSTORE POP PUSH2 0x120 DUP3 ADD MSTORE PUSH2 0x140 DUP2 ADD SWAP2 SWAP1 SWAP2 MSTORE SWAP4 SWAP3 POP POP POP JUMP JUMPDEST PUSH1 0x3 SLOAD SWAP1 JUMP JUMPDEST PUSH1 0x60 PUSH1 0x0 PUSH1 0xA PUSH1 0x53 DUP1 SLOAD SWAP1 POP GT PUSH2 0xCD4 JUMPI PUSH1 0x53 SLOAD PUSH2 0xCD7 JUMP JUMPDEST PUSH1 0xA JUMPDEST SWAP1 POP PUSH1 0x60 DUP2 PUSH8 0xFFFFFFFFFFFFFFFF DUP2 GT DUP1 ISZERO PUSH2 0xCF2 JUMPI PUSH1 0x0 DUP1 REVERT JUMPDEST POP PUSH1 0x40 MLOAD SWAP1 DUP1 DUP3 MSTORE DUP1 PUSH1 0x20 MUL PUSH1 0x20 ADD DUP3 ADD PUSH1 0x40 MSTORE DUP1 ISZERO PUSH2 0xD2C JUMPI DUP2 PUSH1 0x20 ADD JUMPDEST PUSH2 0xD19 PUSH2 0x5127 JUMP JUMPDEST DUP2 MSTORE PUSH1 0x20 ADD SWAP1 PUSH1 0x1 SWAP1 SUB SWAP1 DUP2 PUSH2 0xD11 JUMPI SWAP1 POP JUMPDEST POP SWAP1 POP PUSH1 0x0 JUMPDEST DUP3 DUP2 LT ISZERO PUSH2 0xE5F JUMPI PUSH1 0x53 DUP1 SLOAD PUSH1 0x0 SWAP2 SWAP1 DUP6 DUP2 SUB DUP5 ADD SWAP1 DUP2 LT PUSH2 0xD50 JUMPI INVALID JUMPDEST SWAP1 PUSH1 0x0 MSTORE PUSH1 0x20 PUSH1 0x0 KECCAK256 ADD SWAP1 POP DUP1 PUSH1 0x0 DUP2 SLOAD DUP2 LT PUSH2 0xD69 JUMPI INVALID JUMPDEST SWAP1 PUSH1 0x0 MSTORE PUSH1 0x20 PUSH1 0x0 KECCAK256 ADD SLOAD DUP4 DUP4 DUP2 MLOAD DUP2 LT PUSH2 0xD80 JUMPI INVALID JUMPDEST PUSH1 0x20 MUL PUSH1 0x20 ADD ADD MLOAD PUSH1 0x0 PUSH1 0x4 DUP2 LT PUSH2 0xD94 JUMPI INVALID JUMPDEST PUSH1 0x20 MUL ADD MSTORE DUP1 SLOAD DUP2 SWAP1 PUSH1 0x1 SWAP1 DUP2 LT PUSH2 0xDA8 JUMPI INVALID JUMPDEST SWAP1 PUSH1 0x0 MSTORE PUSH1 0x20 PUSH1 0x0 KECCAK256 ADD SLOAD DUP4 DUP4 DUP2 MLOAD DUP2 LT PUSH2 0xDBF JUMPI INVALID JUMPDEST PUSH1 0x20 MUL PUSH1 0x20 ADD ADD MLOAD PUSH1 0x1 PUSH1 0x4 DUP2 LT PUSH2 0xDD3 JUMPI INVALID JUMPDEST PUSH1 0x20 MUL ADD MSTORE DUP1 SLOAD DUP2 SWAP1 PUSH1 0x2 SWAP1 DUP2 LT PUSH2 0xDE7 JUMPI INVALID JUMPDEST SWAP1 PUSH1 0x0 MSTORE PUSH1 0x20 PUSH1 0x0 KECCAK256 ADD SLOAD DUP4 DUP4 DUP2 MLOAD DUP2 LT PUSH2 0xDFE JUMPI INVALID JUMPDEST PUSH1 0x20 MUL PUSH1 0x20 ADD ADD MLOAD PUSH1 0x2 PUSH1 0x4 DUP2 LT PUSH2 0xE12 JUMPI INVALID JUMPDEST PUSH1 0x20 MUL ADD MSTORE DUP1 SLOAD DUP2 SWAP1 PUSH1 0x3 SWAP1 DUP2 LT PUSH2 0xE26 JUMPI INVALID JUMPDEST SWAP1 PUSH1 0x0 MSTORE PUSH1 0x20 PUSH1 0x0 KECCAK256 ADD SLOAD DUP4 DUP4 DUP2 MLOAD DUP2 LT PUSH2 0xE3D JUMPI INVALID JUMPDEST PUSH1 0x20 MUL PUSH1 0x20 ADD ADD MLOAD PUSH1 0x3 PUSH1 0x4 DUP2 LT PUSH2 0xE51 JUMPI INVALID JUMPDEST PUSH1 0x20 MUL ADD MSTORE POP PUSH1 0x1 ADD PUSH2 0xD32 JUMP JUMPDEST POP SWAP2 POP POP SWAP1 JUMP JUMPDEST PUSH1 0x4 SLOAD DUP2 JUMP JUMPDEST PUSH1 0x0 PUSH2 0xE79 DUP5 DUP5 DUP5 PUSH2 0x295F JUMP JUMPDEST PUSH2 0xEE9 DUP5 PUSH2 0xE85 PUSH2 0x26A2 JUMP JUMPDEST PUSH2 0xEE4 DUP6 PUSH1 0x40 MLOAD DUP1 PUSH1 0x60 ADD PUSH1 0x40 MSTORE DUP1 PUSH1 0x28 DUP2 MSTORE PUSH1 0x20 ADD PUSH2 0x5D60 PUSH1 0x28 SWAP2 CODECOPY PUSH1 0x1 PUSH1 0x1 PUSH1 0xA0 SHL SUB DUP11 AND PUSH1 0x0 SWAP1 DUP2 MSTORE PUSH1 0x2 PUSH1 0x20 MSTORE PUSH1 0x40 DUP2 KECCAK256 SWAP1 PUSH2 0xEC3 PUSH2 0x26A2 JUMP JUMPDEST PUSH1 0x1 PUSH1 0x1 PUSH1 0xA0 SHL SUB AND DUP2 MSTORE PUSH1 0x20 DUP2 ADD SWAP2 SWAP1 SWAP2 MSTORE PUSH1 0x40 ADD PUSH1 0x0 KECCAK256 SLOAD SWAP2 SWAP1 PUSH2 0x2A69 JUMP JUMPDEST PUSH2 0x26A6 JUMP JUMPDEST POP PUSH1 0x1 SWAP4 SWAP3 POP POP POP JUMP JUMPDEST PUSH1 0x0 PUSH2 0xEFD PUSH2 0x26A2 JUMP JUMPDEST SWAP1 POP PUSH1 0x1 PUSH1 0x1 PUSH1 0xA0 SHL SUB DUP2 AND PUSH2 0xF2E JUMPI PUSH1 0x40 MLOAD PUSH3 0x461BCD PUSH1 0xE5 SHL DUP2 MSTORE PUSH1 0x4 ADD PUSH2 0xF25 SWAP1 PUSH2 0x58C4 JUMP JUMPDEST PUSH1 0x40 MLOAD DUP1 SWAP2 SUB SWAP1 REVERT JUMPDEST PUSH1 0x1 PUSH1 0x1 PUSH1 0xA0 SHL SUB DUP2 AND PUSH1 0x0 SWAP1 DUP2 MSTORE PUSH1 0x55 PUSH1 0x20 MSTORE PUSH1 0x40 DUP2 KECCAK256 SWAP1 PUSH2 0xF50 DUP4 PUSH2 0x28A7 JUMP JUMPDEST SWAP2 POP POP PUSH1 0x0 DUP2 GT PUSH2 0xF73 JUMPI PUSH1 0x40 MLOAD PUSH3 0x461BCD PUSH1 0xE5 SHL DUP2 MSTORE PUSH1 0x4 ADD PUSH2 0xF25 SWAP1 PUSH2 0x58C4 JUMP JUMPDEST PUSH1 0x1B SLOAD DUP2 PUSH1 0x58 SLOAD ADD GT ISZERO PUSH2 0xF99 JUMPI PUSH1 0x40 MLOAD PUSH3 0x461BCD PUSH1 0xE5 SHL DUP2 MSTORE PUSH1 0x4 ADD PUSH2 0xF25 SWAP1 PUSH2 0x5BE3 JUMP JUMPDEST DUP2 SLOAD ISZERO PUSH2 0xFA6 JUMPI NUMBER PUSH2 0xFA9 JUMP JUMPDEST PUSH1 0x0 JUMPDEST PUSH1 0x3 DUP4 ADD SSTORE PUSH1 0x4 DUP3 ADD DUP1 SLOAD DUP3 ADD SWAP1 SSTORE PUSH1 0x0 PUSH1 0x5 DUP4 ADD SSTORE PUSH1 0x58 DUP1 SLOAD DUP3 ADD SWAP1 SSTORE PUSH2 0xFD1 DUP4 DUP3 PUSH2 0x2A95 JUMP JUMPDEST PUSH2 0xFDA DUP4 PUSH2 0x2B76 JUMP JUMPDEST POP POP POP JUMP JUMPDEST PUSH1 0x7 SLOAD PUSH1 0xFF AND SWAP1 JUMP JUMPDEST PUSH1 0x1E SLOAD PUSH1 0x1D SLOAD TIMESTAMP SUB LT PUSH2 0x10AE JUMPI PUSH1 0x14 PUSH1 0x1C SLOAD PUSH1 0x20 SLOAD PUSH2 0x3E8 MUL DUP2 PUSH2 0x1008 JUMPI INVALID JUMPDEST DIV LT ISZERO PUSH2 0x109F JUMPI PUSH1 0x1E SLOAD PUSH1 0x1D SLOAD ADD PUSH1 0x1F SSTORE PUSH1 0x0 PUSH2 0x1023 PUSH2 0x27D4 JUMP JUMPDEST SWAP1 POP PUSH1 0x64 PUSH1 0x14 DUP3 MUL DIV PUSH2 0xDAC PUSH1 0x50 DUP4 MUL DIV PUSH1 0x0 JUMPDEST PUSH1 0x45 SLOAD DUP2 LT ISZERO PUSH2 0x109A JUMPI PUSH1 0x0 PUSH1 0x49 PUSH1 0x0 PUSH1 0x21 DUP5 PUSH1 0x24 DUP2 LT PUSH2 0x1054 JUMPI INVALID JUMPDEST ADD SLOAD PUSH1 0x1 PUSH1 0x1 PUSH1 0xA0 SHL SUB AND DUP2 MSTORE PUSH1 0x20 DUP2 ADD SWAP2 SWAP1 SWAP2 MSTORE PUSH1 0x40 ADD PUSH1 0x0 KECCAK256 PUSH1 0x1F SLOAD PUSH1 0x1 ADD PUSH1 0x6 DUP3 ADD SSTORE SWAP1 POP PUSH1 0x23 DUP3 EQ PUSH2 0x108A JUMPI DUP3 PUSH2 0x108C JUMP JUMPDEST DUP4 JUMPDEST PUSH1 0xB SWAP1 SWAP2 ADD SSTORE PUSH1 0x1 ADD PUSH2 0x1037 JUMP JUMPDEST POP POP POP POP JUMPDEST TIMESTAMP PUSH1 0x1D SSTORE PUSH1 0x0 PUSH1 0x20 DUP2 SWAP1 SSTORE PUSH1 0x45 SSTORE JUMPDEST JUMP JUMPDEST PUSH1 0x0 PUSH2 0x9D1 PUSH2 0x10BD PUSH2 0x26A2 JUMP JUMPDEST DUP5 PUSH2 0xEE4 DUP6 PUSH1 0x2 PUSH1 0x0 PUSH2 0x10CE PUSH2 0x26A2 JUMP JUMPDEST PUSH1 0x1 PUSH1 0x1 PUSH1 0xA0 SHL SUB SWAP1 DUP2 AND DUP3 MSTORE PUSH1 0x20 DUP1 DUP4 ADD SWAP4 SWAP1 SWAP4 MSTORE PUSH1 0x40 SWAP2 DUP3 ADD PUSH1 0x0 SWAP1 DUP2 KECCAK256 SWAP2 DUP13 AND DUP2 MSTORE SWAP3 MSTORE SWAP1 KECCAK256 SLOAD SWAP1 PUSH2 0x2676 JUMP JUMPDEST PUSH1 0x0 PUSH2 0x1108 PUSH2 0x26A2 JUMP JUMPDEST SWAP1 POP PUSH1 0x1 PUSH1 0x1 PUSH1 0xA0 SHL SUB DUP2 AND PUSH2 0x1130 JUMPI PUSH1 0x40 MLOAD PUSH3 0x461BCD PUSH1 0xE5 SHL DUP2 MSTORE PUSH1 0x4 ADD PUSH2 0xF25 SWAP1 PUSH2 0x58C4 JUMP JUMPDEST PUSH1 0x0 DUP1 PUSH1 0x0 JUMPDEST PUSH1 0x52 SLOAD DUP2 LT ISZERO PUSH2 0x12DB JUMPI PUSH1 0x0 PUSH1 0x52 DUP3 DUP2 SLOAD DUP2 LT PUSH2 0x114F JUMPI INVALID JUMPDEST PUSH1 0x0 SWAP2 DUP3 MSTORE PUSH1 0x20 SWAP1 SWAP2 KECCAK256 PUSH1 0x4 SWAP1 SWAP2 MUL ADD PUSH1 0x1 DUP2 ADD SLOAD SWAP1 SWAP2 POP PUSH1 0x1 PUSH1 0x1 PUSH1 0xA0 SHL SUB DUP7 DUP2 AND SWAP2 AND EQ ISZERO PUSH2 0x118E JUMPI PUSH1 0x3 ADD SLOAD PUSH1 0x1 SWAP1 SWAP4 ADD SWAP3 SWAP2 SWAP1 SWAP2 ADD SWAP1 PUSH2 0x12D3 JUMP JUMPDEST DUP4 ISZERO PUSH2 0x12D1 JUMPI PUSH1 0x52 DUP3 DUP2 SLOAD DUP2 LT PUSH2 0x11A1 JUMPI INVALID JUMPDEST SWAP1 PUSH1 0x0 MSTORE PUSH1 0x20 PUSH1 0x0 KECCAK256 SWAP1 PUSH1 0x4 MUL ADD PUSH1 0x0 ADD SLOAD PUSH1 0x52 DUP6 DUP5 SUB DUP2 SLOAD DUP2 LT PUSH2 0x11C2 JUMPI INVALID JUMPDEST PUSH1 0x0 SWAP2 DUP3 MSTORE PUSH1 0x20 SWAP1 SWAP2 KECCAK256 PUSH1 0x4 SWAP1 SWAP2 MUL ADD SSTORE PUSH1 0x52 DUP1 SLOAD DUP4 SWAP1 DUP2 LT PUSH2 0x11E1 JUMPI INVALID JUMPDEST SWAP1 PUSH1 0x0 MSTORE PUSH1 0x20 PUSH1 0x0 KECCAK256 SWAP1 PUSH1 0x4 MUL ADD PUSH1 0x1 ADD PUSH1 0x0 SWAP1 SLOAD SWAP1 PUSH2 0x100 EXP SWAP1 DIV PUSH1 0x1 PUSH1 0x1 PUSH1 0xA0 SHL SUB AND PUSH1 0x52 DUP6 DUP5 SUB DUP2 SLOAD DUP2 LT PUSH2 0x1215 JUMPI INVALID JUMPDEST SWAP1 PUSH1 0x0 MSTORE PUSH1 0x20 PUSH1 0x0 KECCAK256 SWAP1 PUSH1 0x4 MUL ADD PUSH1 0x1 ADD PUSH1 0x0 PUSH2 0x100 EXP DUP2 SLOAD DUP2 PUSH1 0x1 PUSH1 0x1 PUSH1 0xA0 SHL SUB MUL NOT AND SWAP1 DUP4 PUSH1 0x1 PUSH1 0x1 PUSH1 0xA0 SHL SUB AND MUL OR SWAP1 SSTORE POP PUSH1 0x52 DUP3 DUP2 SLOAD DUP2 LT PUSH2 0x1257 JUMPI INVALID JUMPDEST SWAP1 PUSH1 0x0 MSTORE PUSH1 0x20 PUSH1 0x0 KECCAK256 SWAP1 PUSH1 0x4 MUL ADD PUSH1 0x2 ADD SLOAD PUSH1 0x52 DUP6 DUP5 SUB DUP2 SLOAD DUP2 LT PUSH2 0x1278 JUMPI INVALID JUMPDEST SWAP1 PUSH1 0x0 MSTORE PUSH1 0x20 PUSH1 0x0 KECCAK256 SWAP1 PUSH1 0x4 MUL ADD PUSH1 0x2 ADD DUP2 SWAP1 SSTORE POP PUSH1 0x52 DUP3 DUP2 SLOAD DUP2 LT PUSH2 0x129A JUMPI INVALID JUMPDEST SWAP1 PUSH1 0x0 MSTORE PUSH1 0x20 PUSH1 0x0 KECCAK256 SWAP1 PUSH1 0x4 MUL ADD PUSH1 0x3 ADD SLOAD PUSH1 0x52 DUP6 DUP5 SUB DUP2 SLOAD DUP2 LT PUSH2 0x12BB JUMPI INVALID JUMPDEST SWAP1 PUSH1 0x0 MSTORE PUSH1 0x20 PUSH1 0x0 KECCAK256 SWAP1 PUSH1 0x4 MUL ADD PUSH1 0x3 ADD DUP2 SWAP1 SSTORE POP JUMPDEST POP JUMPDEST PUSH1 0x1 ADD PUSH2 0x1136 JUMP JUMPDEST POP DUP2 ISZERO PUSH2 0x1381 JUMPI PUSH1 0x0 JUMPDEST DUP3 DUP2 LT ISZERO PUSH2 0x133B JUMPI PUSH1 0x52 DUP1 SLOAD DUP1 PUSH2 0x12F8 JUMPI INVALID JUMPDEST PUSH1 0x0 DUP3 DUP2 MSTORE PUSH1 0x20 DUP2 KECCAK256 PUSH1 0x4 PUSH1 0x0 NOT SWAP1 SWAP4 ADD SWAP3 DUP4 MUL ADD DUP2 DUP2 SSTORE PUSH1 0x1 DUP2 DUP2 ADD DUP1 SLOAD PUSH1 0x1 PUSH1 0x1 PUSH1 0xA0 SHL SUB NOT AND SWAP1 SSTORE PUSH1 0x2 DUP3 ADD DUP4 SWAP1 SSTORE PUSH1 0x3 SWAP1 SWAP2 ADD SWAP2 SWAP1 SWAP2 SSTORE SWAP2 SSTORE ADD PUSH2 0x12E5 JUMP JUMPDEST POP PUSH2 0x1347 ADDRESS DUP5 DUP4 PUSH2 0x295F JUMP JUMPDEST PUSH32 0xA21A2A879C924A525CD3D043187D43E34B2573D79532750B8792307A7C2FEADB DUP4 DUP3 PUSH1 0x40 MLOAD PUSH2 0x1378 SWAP3 SWAP2 SWAP1 PUSH2 0x5482 JUMP JUMPDEST PUSH1 0x40 MLOAD DUP1 SWAP2 SUB SWAP1 LOG1 JUMPDEST PUSH2 0xFDA PUSH2 0x2D41 JUMP JUMPDEST PUSH1 0x0 PUSH2 0x1393 PUSH2 0x26A2 JUMP JUMPDEST SWAP1 POP PUSH1 0x1 PUSH1 0x1 PUSH1 0xA0 SHL SUB DUP2 AND PUSH2 0x13BB JUMPI PUSH1 0x40 MLOAD PUSH3 0x461BCD PUSH1 0xE5 SHL DUP2 MSTORE PUSH1 0x4 ADD PUSH2 0xF25 SWAP1 PUSH2 0x58C4 JUMP JUMPDEST PUSH1 0x0 DUP1 PUSH1 0x0 DUP1 PUSH1 0x0 PUSH2 0x13CC DUP7 PUSH2 0x1E7A JUMP JUMPDEST SWAP5 POP SWAP5 POP SWAP5 POP SWAP5 POP SWAP5 POP DUP5 ISZERO PUSH2 0x13F4 JUMPI PUSH1 0x40 MLOAD PUSH3 0x461BCD PUSH1 0xE5 SHL DUP2 MSTORE PUSH1 0x4 ADD PUSH2 0xF25 SWAP1 PUSH2 0x580C JUMP JUMPDEST PUSH1 0xA SLOAD PUSH1 0x1 PUSH1 0x1 PUSH1 0xA0 SHL SUB DUP8 DUP2 AND SWAP2 AND EQ ISZERO PUSH2 0x1420 JUMPI PUSH1 0x0 PUSH1 0xB SSTORE PUSH1 0xC DUP1 SLOAD DUP3 ADD SWAP1 SSTORE TIMESTAMP PUSH1 0xD SSTORE PUSH2 0x1702 JUMP JUMPDEST PUSH1 0xE SLOAD PUSH1 0x1 PUSH1 0x1 PUSH1 0xA0 SHL SUB DUP8 DUP2 AND SWAP2 AND EQ ISZERO PUSH2 0x144C JUMPI PUSH1 0x0 PUSH1 0xF SSTORE PUSH1 0x10 DUP1 SLOAD DUP3 ADD SWAP1 SSTORE TIMESTAMP PUSH1 0x11 SSTORE PUSH2 0x1702 JUMP JUMPDEST PUSH1 0x12 SLOAD PUSH1 0x1 PUSH1 0x1 PUSH1 0xA0 SHL SUB DUP8 DUP2 AND SWAP2 AND EQ ISZERO PUSH2 0x1478 JUMPI PUSH1 0x0 PUSH1 0x13 SSTORE PUSH1 0x14 DUP1 SLOAD DUP3 ADD SWAP1 SSTORE TIMESTAMP PUSH1 0x15 SSTORE PUSH2 0x1702 JUMP JUMPDEST PUSH1 0x1 PUSH1 0x1 PUSH1 0xA0 SHL SUB DUP7 AND PUSH1 0x0 SWAP1 DUP2 MSTORE PUSH1 0x49 PUSH1 0x20 MSTORE PUSH1 0x40 SWAP1 KECCAK256 PUSH1 0xA DUP2 ADD SLOAD ISZERO PUSH2 0x1700 JUMPI PUSH1 0x3 DUP2 ADD DUP1 SLOAD DUP4 ADD SWAP1 SSTORE TIMESTAMP PUSH1 0x6 DUP3 ADD SSTORE PUSH1 0x0 PUSH1 0x7 DUP3 ADD DUP2 SWAP1 SSTORE PUSH1 0x8 DUP3 ADD DUP2 SWAP1 SSTORE PUSH1 0xB DUP3 ADD DUP2 SWAP1 SSTORE PUSH1 0x1 DUP3 ADD SLOAD DUP6 DUP8 ADD SWAP2 SWAP1 PUSH1 0x2 SWAP1 DUP4 SWAP1 PUSH1 0x5 PUSH1 0x1 PUSH1 0x20 SHL SWAP1 SWAP2 DIV PUSH2 0xFFFF AND LT PUSH2 0x14E9 JUMPI DUP7 PUSH2 0x14EC JUMP JUMPDEST PUSH1 0x0 JUMPDEST ADD DUP2 PUSH2 0x14F4 JUMPI INVALID JUMPDEST DIV SWAP1 POP DUP1 DUP4 PUSH1 0xA ADD SLOAD GT ISZERO PUSH2 0x15A6 JUMPI PUSH1 0xA DUP4 ADD DUP1 SLOAD DUP3 SWAP1 SUB SWAP1 DUP2 SWAP1 SSTORE PUSH1 0x0 SWAP1 PUSH2 0x151C SWAP1 PUSH2 0x2E2B JUMP JUMPDEST PUSH1 0x1 DUP6 ADD SLOAD SWAP1 SWAP2 POP PUSH1 0xFF DUP1 DUP4 AND PUSH1 0x1 PUSH1 0x38 SHL SWAP1 SWAP3 DIV AND EQ PUSH2 0x1594 JUMPI DUP1 DUP5 PUSH1 0x1 ADD PUSH1 0x7 PUSH2 0x100 EXP DUP2 SLOAD DUP2 PUSH1 0xFF MUL NOT AND SWAP1 DUP4 PUSH1 0xFF AND MUL OR SWAP1 SSTORE POP PUSH2 0x3E8 PUSH1 0x4A PUSH1 0x1 DUP4 SUB PUSH1 0xFF AND DUP2 SLOAD DUP2 LT PUSH2 0x156A JUMPI INVALID JUMPDEST SWAP1 PUSH1 0x0 MSTORE PUSH1 0x20 PUSH1 0x0 KECCAK256 SWAP1 PUSH1 0x4 MUL ADD PUSH1 0x3 ADD SLOAD DUP6 PUSH1 0xA ADD SLOAD MUL DUP2 PUSH2 0x1589 JUMPI INVALID JUMPDEST DIV PUSH1 0x9 DUP6 ADD SSTORE PUSH2 0x15A0 JUMP JUMPDEST PUSH1 0x9 DUP5 ADD DUP1 SLOAD DUP4 SWAP1 SUB SWAP1 SSTORE JUMPDEST POP PUSH2 0x15C4 JUMP JUMPDEST PUSH1 0x1 DUP4 ADD DUP1 SLOAD PUSH1 0xFF PUSH1 0x38 SHL NOT AND SWAP1 SSTORE PUSH1 0x0 PUSH1 0xA DUP5 ADD DUP2 SWAP1 SSTORE PUSH1 0x9 DUP5 ADD SSTORE JUMPDEST PUSH1 0x1 DUP4 ADD SLOAD PUSH2 0x3E7 PUSH1 0x1 PUSH1 0x20 SHL SWAP1 SWAP2 DIV PUSH2 0xFFFF AND LT ISZERO PUSH2 0x16ED JUMPI PUSH1 0x1 DUP4 ADD SLOAD PUSH1 0x18 SLOAD PUSH2 0x3E8 PUSH1 0x4B DUP6 MUL DIV SWAP2 PUSH4 0xFFFFFFFF SWAP1 DUP2 AND PUSH3 0xF4240 SUB SWAP2 DUP3 DUP3 AND PUSH1 0x1 PUSH1 0x20 SHL SWAP1 SWAP2 DIV SWAP1 SWAP2 AND GT ISZERO PUSH2 0x1646 JUMPI PUSH4 0xFFFFFFFF DUP2 AND PUSH1 0x0 SWAP1 DUP2 MSTORE PUSH1 0x48 PUSH1 0x20 SWAP1 DUP2 MSTORE PUSH1 0x40 DUP1 DUP4 KECCAK256 SLOAD PUSH1 0x1 PUSH1 0x1 PUSH1 0xA0 SHL SUB AND DUP4 MSTORE PUSH1 0x49 SWAP1 SWAP2 MSTORE SWAP1 KECCAK256 PUSH1 0xB ADD DUP1 SLOAD DUP4 ADD SWAP1 SSTORE JUMPDEST POP PUSH1 0x40 DUP1 MLOAD PUSH1 0x60 DUP2 ADD DUP3 MSTORE TIMESTAMP DUP2 MSTORE PUSH1 0x20 DUP2 ADD SWAP3 DUP4 MSTORE PUSH1 0x0 SWAP2 DUP2 ADD DUP3 DUP2 MSTORE PUSH1 0x50 DUP1 SLOAD PUSH1 0x1 DUP2 ADD DUP3 SSTORE SWAP4 MSTORE SWAP1 MLOAD PUSH32 0x5529612556959EF813DBE8D0ED29336AB75E80A9B7855030760B2917B01E568A PUSH1 0x3 SWAP1 SWAP4 MUL SWAP3 DUP4 ADD SSTORE SWAP2 MLOAD PUSH32 0x5529612556959EF813DBE8D0ED29336AB75E80A9B7855030760B2917B01E568B DUP3 ADD SSTORE SWAP1 MLOAD PUSH32 0x5529612556959EF813DBE8D0ED29336AB75E80A9B7855030760B2917B01E568C SWAP1 SWAP2 ADD SSTORE PUSH2 0x16FD JUMP JUMPDEST PUSH1 0x4C DUP1 SLOAD PUSH2 0x3E8 PUSH1 0x96 DUP6 MUL DIV ADD SWAP1 SSTORE JUMPDEST POP POP JUMPDEST POP JUMPDEST DUP1 ISZERO PUSH2 0x174C JUMPI PUSH1 0x7 SLOAD PUSH2 0x1724 SWAP1 PUSH2 0x100 SWAP1 DIV PUSH1 0x1 PUSH1 0x1 PUSH1 0xA0 SHL SUB AND DUP8 DUP4 PUSH2 0x2E79 JUMP JUMPDEST PUSH1 0x0 PUSH2 0x172F DUP8 PUSH2 0x9DB JUMP JUMPDEST SWAP1 POP DUP1 ISZERO PUSH2 0x174A JUMPI PUSH2 0x1741 DUP8 DUP3 PUSH2 0x2F67 JUMP JUMPDEST PUSH1 0x19 DUP1 SLOAD DUP3 ADD SWAP1 SSTORE JUMPDEST POP JUMPDEST PUSH2 0x1754 PUSH2 0x2D41 JUMP JUMPDEST POP POP POP POP POP POP JUMP JUMPDEST PUSH1 0x3 SLOAD DUP2 JUMP JUMPDEST PUSH2 0x1775 DUP4 DUP4 PUSH2 0x1770 DUP5 PUSH2 0x27F1 JUMP JUMPDEST PUSH2 0x3031 JUMP JUMPDEST PUSH2 0xFDA DUP4 PUSH2 0x3274 JUMP JUMPDEST PUSH1 0x0 PUSH2 0x1788 PUSH2 0x26A2 JUMP JUMPDEST SWAP1 POP PUSH1 0x1 PUSH1 0x1 PUSH1 0xA0 SHL SUB DUP2 AND PUSH2 0x17B0 JUMPI PUSH1 0x40 MLOAD PUSH3 0x461BCD PUSH1 0xE5 SHL DUP2 MSTORE PUSH1 0x4 ADD PUSH2 0xF25 SWAP1 PUSH2 0x58C4 JUMP JUMPDEST PUSH1 0x1 PUSH1 0x1 PUSH1 0xA0 SHL SUB DUP4 AND PUSH2 0x17D6 JUMPI PUSH1 0x40 MLOAD PUSH3 0x461BCD PUSH1 0xE5 SHL DUP2 MSTORE PUSH1 0x4 ADD PUSH2 0xF25 SWAP1 PUSH2 0x56E2 JUMP JUMPDEST PUSH2 0xFDA DUP2 DUP5 DUP5 TIMESTAMP PUSH2 0x34CF JUMP JUMPDEST PUSH2 0x17EC DUP3 DUP3 PUSH2 0x2A95 JUMP JUMPDEST POP POP JUMP JUMPDEST PUSH1 0x0 PUSH2 0x17FA PUSH2 0x26A2 JUMP JUMPDEST SWAP1 POP PUSH1 0x1 PUSH1 0x1 PUSH1 0xA0 SHL SUB DUP2 AND PUSH2 0x1822 JUMPI PUSH1 0x40 MLOAD PUSH3 0x461BCD PUSH1 0xE5 SHL DUP2 MSTORE PUSH1 0x4 ADD PUSH2 0xF25 SWAP1 PUSH2 0x58C4 JUMP JUMPDEST PUSH1 0x0 DUP1 PUSH1 0x0 JUMPDEST PUSH1 0x51 SLOAD DUP2 LT ISZERO PUSH2 0x198D JUMPI PUSH1 0x0 PUSH1 0x51 DUP3 DUP2 SLOAD DUP2 LT PUSH2 0x1841 JUMPI INVALID JUMPDEST PUSH1 0x0 SWAP2 DUP3 MSTORE PUSH1 0x20 SWAP1 SWAP2 KECCAK256 PUSH1 0x4 SWAP1 SWAP2 MUL ADD PUSH1 0x1 DUP2 ADD SLOAD SWAP1 SWAP2 POP PUSH1 0x1 PUSH1 0x1 PUSH1 0xA0 SHL SUB DUP7 DUP2 AND SWAP2 AND EQ ISZERO PUSH2 0x1880 JUMPI PUSH1 0x3 ADD SLOAD PUSH1 0x1 SWAP1 SWAP4 ADD SWAP3 SWAP2 SWAP1 SWAP2 ADD SWAP1 PUSH2 0x1985 JUMP JUMPDEST DUP4 ISZERO PUSH2 0x1983 JUMPI PUSH1 0x51 DUP3 DUP2 SLOAD DUP2 LT PUSH2 0x1893 JUMPI INVALID JUMPDEST SWAP1 PUSH1 0x0 MSTORE PUSH1 0x20 PUSH1 0x0 KECCAK256 SWAP1 PUSH1 0x4 MUL ADD PUSH1 0x1 ADD PUSH1 0x0 SWAP1 SLOAD SWAP1 PUSH2 0x100 EXP SWAP1 DIV PUSH1 0x1 PUSH1 0x1 PUSH1 0xA0 SHL SUB AND PUSH1 0x51 DUP6 DUP5 SUB DUP2 SLOAD DUP2 LT PUSH2 0x18C7 JUMPI INVALID JUMPDEST SWAP1 PUSH1 0x0 MSTORE PUSH1 0x20 PUSH1 0x0 KECCAK256 SWAP1 PUSH1 0x4 MUL ADD PUSH1 0x1 ADD PUSH1 0x0 PUSH2 0x100 EXP DUP2 SLOAD DUP2 PUSH1 0x1 PUSH1 0x1 PUSH1 0xA0 SHL SUB MUL NOT AND SWAP1 DUP4 PUSH1 0x1 PUSH1 0x1 PUSH1 0xA0 SHL SUB AND MUL OR SWAP1 SSTORE POP PUSH1 0x51 DUP3 DUP2 SLOAD DUP2 LT PUSH2 0x1909 JUMPI INVALID JUMPDEST SWAP1 PUSH1 0x0 MSTORE PUSH1 0x20 PUSH1 0x0 KECCAK256 SWAP1 PUSH1 0x4 MUL ADD PUSH1 0x2 ADD SLOAD PUSH1 0x51 DUP6 DUP5 SUB DUP2 SLOAD DUP2 LT PUSH2 0x192A JUMPI INVALID JUMPDEST SWAP1 PUSH1 0x0 MSTORE PUSH1 0x20 PUSH1 0x0 KECCAK256 SWAP1 PUSH1 0x4 MUL ADD PUSH1 0x2 ADD DUP2 SWAP1 SSTORE POP PUSH1 0x51 DUP3 DUP2 SLOAD DUP2 LT PUSH2 0x194C JUMPI INVALID JUMPDEST SWAP1 PUSH1 0x0 MSTORE PUSH1 0x20 PUSH1 0x0 KECCAK256 SWAP1 PUSH1 0x4 MUL ADD PUSH1 0x3 ADD SLOAD PUSH1 0x51 DUP6 DUP5 SUB DUP2 SLOAD DUP2 LT PUSH2 0x196D JUMPI INVALID JUMPDEST SWAP1 PUSH1 0x0 MSTORE PUSH1 0x20 PUSH1 0x0 KECCAK256 SWAP1 PUSH1 0x4 MUL ADD PUSH1 0x3 ADD DUP2 SWAP1 SSTORE POP JUMPDEST POP JUMPDEST PUSH1 0x1 ADD PUSH2 0x1828 JUMP JUMPDEST POP DUP2 ISZERO PUSH2 0x1381 JUMPI PUSH1 0x0 JUMPDEST DUP3 DUP2 LT ISZERO PUSH2 0x19ED JUMPI PUSH1 0x51 DUP1 SLOAD DUP1 PUSH2 0x19AA JUMPI INVALID JUMPDEST PUSH1 0x0 DUP3 DUP2 MSTORE PUSH1 0x20 DUP2 KECCAK256 PUSH1 0x4 PUSH1 0x0 NOT SWAP1 SWAP4 ADD SWAP3 DUP4 MUL ADD DUP2 DUP2 SSTORE PUSH1 0x1 DUP2 DUP2 ADD DUP1 SLOAD PUSH1 0x1 PUSH1 0x1 PUSH1 0xA0 SHL SUB NOT AND SWAP1 SSTORE PUSH1 0x2 DUP3 ADD DUP4 SWAP1 SSTORE PUSH1 0x3 SWAP1 SWAP2 ADD SWAP2 SWAP1 SWAP2 SSTORE SWAP2 SSTORE ADD PUSH2 0x1997 JUMP JUMPDEST POP PUSH1 0x7 SLOAD PUSH2 0x1A0A SWAP1 PUSH2 0x100 SWAP1 DIV PUSH1 0x1 PUSH1 0x1 PUSH1 0xA0 SHL SUB AND DUP5 DUP4 PUSH2 0x2E79 JUMP JUMPDEST PUSH32 0x866CB17A996E44FAD30A4450E43850706BFA73CBC9CC00561C44CD87E9F1503F DUP4 DUP3 PUSH1 0x40 MLOAD PUSH2 0x1378 SWAP3 SWAP2 SWAP1 PUSH2 0x5482 JUMP JUMPDEST PUSH1 0x0 DUP1 DUP1 DUP1 CALLER PUSH2 0x1A49 PUSH2 0x1B82 JUMP JUMPDEST PUSH1 0x1 PUSH1 0x1 PUSH1 0xA0 SHL SUB AND EQ PUSH2 0x1A6F JUMPI PUSH1 0x40 MLOAD PUSH3 0x461BCD PUSH1 0xE5 SHL DUP2 MSTORE PUSH1 0x4 ADD PUSH2 0xF25 SWAP1 PUSH2 0x5A14 JUMP JUMPDEST POP POP PUSH1 0x18 SLOAD PUSH1 0x1B SLOAD PUSH1 0x1F SLOAD PUSH1 0x1 PUSH1 0x40 SHL DUP4 DIV PUSH2 0xFFFF AND SWAP6 PUSH1 0x1 PUSH1 0x20 SHL SWAP1 SWAP4 DIV PUSH4 0xFFFFFFFF AND SWAP5 POP SWAP1 SWAP3 POP SWAP1 JUMP JUMPDEST PUSH1 0x1 PUSH1 0x1 PUSH1 0xA0 SHL SUB AND PUSH1 0x0 SWAP1 DUP2 MSTORE PUSH1 0x1 PUSH1 0x20 MSTORE PUSH1 0x40 SWAP1 KECCAK256 SLOAD SWAP1 JUMP JUMPDEST PUSH2 0x1ABF PUSH2 0x26A2 JUMP JUMPDEST PUSH1 0x0 SLOAD PUSH1 0x1 PUSH1 0x1 PUSH1 0xA0 SHL SUB SWAP1 DUP2 AND SWAP2 AND EQ PUSH2 0x1AEC JUMPI PUSH1 0x40 MLOAD PUSH3 0x461BCD PUSH1 0xE5 SHL DUP2 MSTORE PUSH1 0x4 ADD PUSH2 0xF25 SWAP1 PUSH2 0x5A14 JUMP JUMPDEST PUSH1 0x0 DUP1 SLOAD PUSH1 0x40 MLOAD PUSH1 0x1 PUSH1 0x1 PUSH1 0xA0 SHL SUB SWAP1 SWAP2 AND SWAP1 PUSH32 0x8BE0079C531659141344CD1FD0A4F28419497F9722A3DAAFE3B4186F6B6457E0 SWAP1 DUP4 SWAP1 LOG3 PUSH1 0x0 DUP1 SLOAD PUSH1 0x1 PUSH1 0x1 PUSH1 0xA0 SHL SUB NOT AND SWAP1 SSTORE JUMP JUMPDEST PUSH1 0x0 PUSH2 0x1B40 PUSH2 0x1B82 JUMP JUMPDEST SWAP1 POP SWAP1 JUMP JUMPDEST PUSH1 0x0 PUSH2 0x1B4F PUSH2 0x26A2 JUMP JUMPDEST SWAP1 POP PUSH1 0x1 PUSH1 0x1 PUSH1 0xA0 SHL SUB DUP2 AND PUSH2 0x1B77 JUMPI PUSH1 0x40 MLOAD PUSH3 0x461BCD PUSH1 0xE5 SHL DUP2 MSTORE PUSH1 0x4 ADD PUSH2 0xF25 SWAP1 PUSH2 0x58C4 JUMP JUMPDEST PUSH2 0xFDA DUP2 DUP5 DUP5 PUSH2 0x3031 JUMP JUMPDEST PUSH1 0x0 SLOAD PUSH1 0x1 PUSH1 0x1 PUSH1 0xA0 SHL SUB AND SWAP1 JUMP JUMPDEST PUSH1 0x6 DUP1 SLOAD PUSH1 0x40 DUP1 MLOAD PUSH1 0x20 PUSH1 0x1F PUSH1 0x2 PUSH1 0x0 NOT PUSH2 0x100 PUSH1 0x1 DUP9 AND ISZERO MUL ADD SWAP1 SWAP6 AND SWAP5 SWAP1 SWAP5 DIV SWAP4 DUP5 ADD DUP2 SWAP1 DIV DUP2 MUL DUP3 ADD DUP2 ADD SWAP1 SWAP3 MSTORE DUP3 DUP2 MSTORE PUSH1 0x60 SWAP4 SWAP1 SWAP3 SWAP1 SWAP2 DUP4 ADD DUP3 DUP3 DUP1 ISZERO PUSH2 0x9B3 JUMPI DUP1 PUSH1 0x1F LT PUSH2 0x988 JUMPI PUSH2 0x100 DUP1 DUP4 SLOAD DIV MUL DUP4 MSTORE SWAP2 PUSH1 0x20 ADD SWAP2 PUSH2 0x9B3 JUMP JUMPDEST PUSH1 0x0 PUSH1 0x17 SLOAD PUSH1 0xA MUL PUSH1 0x9 SLOAD DUP4 MUL DUP2 PUSH2 0x1C06 JUMPI INVALID JUMPDEST DIV SWAP3 SWAP2 POP POP JUMP JUMPDEST PUSH2 0xFDA DUP4 DUP4 DUP4 PUSH2 0x26A6 JUMP JUMPDEST PUSH1 0x0 PUSH2 0x1C22 PUSH2 0x26A2 JUMP JUMPDEST PUSH1 0x0 SLOAD PUSH1 0x1 PUSH1 0x1 PUSH1 0xA0 SHL SUB SWAP1 DUP2 AND SWAP2 AND EQ PUSH2 0x1C4F JUMPI PUSH1 0x40 MLOAD PUSH3 0x461BCD PUSH1 0xE5 SHL DUP2 MSTORE PUSH1 0x4 ADD PUSH2 0xF25 SWAP1 PUSH2 0x5A14 JUMP JUMPDEST PUSH2 0x1C60 PUSH2 0x1C5A PUSH2 0x26A2 JUMP JUMPDEST DUP4 PUSH2 0x2A95 JUMP JUMPDEST POP PUSH1 0x1 SWAP2 SWAP1 POP JUMP JUMPDEST PUSH1 0x0 PUSH2 0x9D1 PUSH2 0x1C75 PUSH2 0x26A2 JUMP JUMPDEST DUP5 PUSH2 0xEE4 DUP6 PUSH1 0x40 MLOAD DUP1 PUSH1 0x60 ADD PUSH1 0x40 MSTORE DUP1 PUSH1 0x25 DUP2 MSTORE PUSH1 0x20 ADD PUSH2 0x5D3B PUSH1 0x25 SWAP2 CODECOPY PUSH1 0x2 PUSH1 0x0 PUSH2 0x1C9F PUSH2 0x26A2 JUMP JUMPDEST PUSH1 0x1 PUSH1 0x1 PUSH1 0xA0 SHL SUB SWAP1 DUP2 AND DUP3 MSTORE PUSH1 0x20 DUP1 DUP4 ADD SWAP4 SWAP1 SWAP4 MSTORE PUSH1 0x40 SWAP2 DUP3 ADD PUSH1 0x0 SWAP1 DUP2 KECCAK256 SWAP2 DUP14 AND DUP2 MSTORE SWAP3 MSTORE SWAP1 KECCAK256 SLOAD SWAP2 SWAP1 PUSH2 0x2A69 JUMP JUMPDEST PUSH2 0x1CD8 PUSH2 0x5183 JUMP JUMPDEST PUSH1 0x1 PUSH1 0x1 PUSH1 0xA0 SHL SUB DUP3 AND PUSH2 0x1CFE JUMPI PUSH1 0x40 MLOAD PUSH3 0x461BCD PUSH1 0xE5 SHL DUP2 MSTORE PUSH1 0x4 ADD PUSH2 0xF25 SWAP1 PUSH2 0x5ADF JUMP JUMPDEST PUSH1 0x0 DUP1 PUSH1 0x0 DUP1 PUSH1 0x0 DUP1 PUSH1 0x0 DUP1 PUSH2 0x1D13 DUP11 PUSH2 0x1A9C JUMP JUMPDEST PUSH1 0xA SLOAD SWAP1 SWAP2 POP PUSH1 0x1 PUSH1 0x1 PUSH1 0xA0 SHL SUB DUP12 DUP2 AND SWAP2 AND EQ ISZERO PUSH2 0x1D7E JUMPI PUSH1 0xC SLOAD PUSH1 0x47 SLOAD SWAP1 SWAP7 POP PUSH1 0x0 SWAP1 DUP2 SWAP1 PUSH2 0x1D4E SWAP1 PUSH1 0x1 PUSH1 0x1 PUSH1 0xA0 SHL SUB AND PUSH1 0x1 PUSH2 0x3D07 JUMP JUMPDEST PUSH1 0x47 SLOAD PUSH1 0x1 PUSH1 0x1 PUSH1 0xA0 SHL SUB AND PUSH1 0x0 SWAP1 DUP2 MSTORE PUSH1 0x49 PUSH1 0x20 MSTORE PUSH1 0x40 SWAP1 KECCAK256 PUSH1 0x2 ADD SLOAD PUSH1 0x1 SWAP1 SWAP3 ADD SWAP7 POP ADD SWAP4 POP PUSH2 0x1E0B SWAP2 POP POP JUMP JUMPDEST PUSH1 0xE SLOAD PUSH1 0x1 PUSH1 0x1 PUSH1 0xA0 SHL SUB DUP12 DUP2 AND SWAP2 AND EQ ISZERO PUSH2 0x1D9E JUMPI PUSH1 0xC SLOAD SWAP6 POP PUSH2 0x1E0B JUMP JUMPDEST PUSH1 0x12 SLOAD PUSH1 0x1 PUSH1 0x1 PUSH1 0xA0 SHL SUB DUP12 DUP2 AND SWAP2 AND EQ ISZERO PUSH2 0x1DBE JUMPI PUSH1 0xC SLOAD SWAP6 POP PUSH2 0x1E0B JUMP JUMPDEST PUSH1 0x1 PUSH1 0x1 PUSH1 0xA0 SHL SUB DUP11 AND PUSH1 0x0 SWAP1 DUP2 MSTORE PUSH1 0x49 PUSH1 0x20 MSTORE PUSH1 0x40 DUP2 KECCAK256 DUP1 SLOAD PUSH1 0x5 DUP3 ADD SLOAD PUSH1 0x3 DUP4 ADD SLOAD PUSH1 0x2 DUP5 ADD SLOAD PUSH1 0x9 DUP6 ADD SLOAD SWAP4 SWAP14 POP SWAP12 POP SWAP10 POP SWAP1 SWAP8 POP SWAP6 POP SWAP1 PUSH2 0x1E04 SWAP1 DUP13 SWAP1 PUSH2 0x3D07 JUMP JUMPDEST SWAP1 SWAP5 POP SWAP3 POP POP JUMPDEST PUSH1 0x40 DUP1 MLOAD PUSH2 0x100 DUP2 ADD DUP3 MSTORE SWAP9 DUP10 MSTORE PUSH1 0x20 DUP10 ADD SWAP2 SWAP1 SWAP2 MSTORE DUP8 ADD SWAP3 SWAP1 SWAP3 MSTORE PUSH1 0x60 DUP7 ADD SWAP5 SWAP1 SWAP5 MSTORE PUSH1 0x80 DUP6 ADD SWAP3 SWAP1 SWAP3 MSTORE PUSH1 0xA0 DUP5 ADD MSTORE PUSH1 0xC0 DUP4 ADD SWAP2 SWAP1 SWAP2 MSTORE PUSH1 0xE0 DUP3 ADD MSTORE SWAP3 SWAP2 POP POP JUMP JUMPDEST PUSH1 0x0 PUSH2 0x9D1 PUSH2 0x1E5C PUSH2 0x26A2 JUMP JUMPDEST DUP5 DUP5 PUSH2 0x295F JUMP JUMPDEST PUSH1 0x0 PUSH2 0x9D5 DUP3 PUSH2 0x27F1 JUMP JUMPDEST PUSH2 0xFDA DUP4 DUP4 DUP4 TIMESTAMP PUSH2 0x34CF JUMP JUMPDEST PUSH1 0xA SLOAD PUSH1 0x0 SWAP1 DUP2 SWAP1 DUP2 SWAP1 DUP2 SWAP1 DUP2 SWAP1 DUP2 SWAP1 DUP2 SWAP1 DUP2 SWAP1 DUP2 SWAP1 DUP2 SWAP1 PUSH1 0x1 PUSH1 0x1 PUSH1 0xA0 SHL SUB DUP13 DUP2 AND SWAP2 AND EQ ISZERO PUSH2 0x1F5D JUMPI PUSH1 0x47 SLOAD PUSH1 0x1 PUSH1 0x1 PUSH1 0xA0 SHL SUB AND PUSH1 0x0 SWAP1 DUP2 MSTORE PUSH1 0x49 PUSH1 0x20 MSTORE PUSH1 0x40 DUP2 KECCAK256 PUSH1 0x46 DUP1 SLOAD SWAP2 SWAP3 PUSH2 0x3E8 SWAP3 PUSH2 0x1ECF JUMPI INVALID JUMPDEST SWAP1 PUSH1 0x0 MSTORE PUSH1 0x20 PUSH1 0x0 KECCAK256 ADD PUSH1 0x2 DUP2 SLOAD DUP2 LT PUSH2 0x1EE5 JUMPI INVALID JUMPDEST SWAP1 PUSH1 0x0 MSTORE PUSH1 0x20 PUSH1 0x0 KECCAK256 SWAP1 PUSH1 0x20 SWAP2 DUP3 DUP3 DIV ADD SWAP2 SWAP1 MOD SWAP1 SLOAD SWAP1 PUSH2 0x100 EXP SWAP1 DIV PUSH1 0xFF AND PUSH1 0xFF AND PUSH2 0x1F16 DUP4 DUP5 PUSH1 0x6 ADD SLOAD PUSH2 0x3DDF JUMP JUMPDEST MUL DUP2 PUSH2 0x1F1E JUMPI INVALID JUMPDEST DIV PUSH1 0xA PUSH1 0x1 ADD SLOAD ADD SWAP2 POP PUSH2 0x1F30 PUSH2 0x51A2 JUMP JUMPDEST PUSH1 0x47 SLOAD PUSH1 0x6 DUP4 ADD SLOAD PUSH2 0x1F4F SWAP2 PUSH1 0x1 PUSH1 0x1 PUSH1 0xA0 SHL SUB AND SWAP1 PUSH1 0x1 PUSH1 0x13 PUSH2 0x3E88 JUMP JUMPDEST PUSH1 0x40 ADD MLOAD SWAP5 POP PUSH2 0x21F2 SWAP2 POP POP JUMP JUMPDEST PUSH1 0xE SLOAD PUSH1 0x1 PUSH1 0x1 PUSH1 0xA0 SHL SUB DUP13 DUP2 AND SWAP2 AND EQ ISZERO PUSH2 0x1F7C JUMPI POP PUSH1 0xF SLOAD PUSH2 0x21F2 JUMP JUMPDEST PUSH1 0x12 SLOAD PUSH1 0x1 PUSH1 0x1 PUSH1 0xA0 SHL SUB DUP13 DUP2 AND SWAP2 AND EQ ISZERO PUSH2 0x1F9B JUMPI POP PUSH1 0x13 SLOAD PUSH2 0x21F2 JUMP JUMPDEST PUSH1 0x1 PUSH1 0x1 PUSH1 0xA0 SHL SUB DUP12 AND PUSH1 0x0 SWAP1 DUP2 MSTORE PUSH1 0x49 PUSH1 0x20 MSTORE PUSH1 0x40 SWAP1 KECCAK256 PUSH1 0x1F SLOAD PUSH1 0x6 DUP3 ADD SLOAD LT SWAP6 POP DUP6 ISZERO PUSH2 0x1FDC JUMPI PUSH1 0x40 MLOAD PUSH3 0x461BCD PUSH1 0xE5 SHL DUP2 MSTORE PUSH1 0x4 ADD PUSH2 0xF25 SWAP1 PUSH2 0x5869 JUMP JUMPDEST PUSH1 0x1 DUP2 ADD SLOAD PUSH1 0x1 PUSH1 0x38 SHL SWAP1 DIV PUSH1 0xFF AND PUSH2 0x2007 JUMPI PUSH1 0x40 MLOAD PUSH3 0x461BCD PUSH1 0xE5 SHL DUP2 MSTORE PUSH1 0x4 ADD PUSH2 0xF25 SWAP1 PUSH2 0x5AB2 JUMP JUMPDEST DUP1 PUSH1 0xB ADD SLOAD SWAP3 POP PUSH1 0x0 PUSH1 0x4A PUSH1 0x1 DUP4 PUSH1 0x1 ADD PUSH1 0x7 SWAP1 SLOAD SWAP1 PUSH2 0x100 EXP SWAP1 DIV PUSH1 0xFF AND SUB PUSH1 0xFF AND DUP2 SLOAD DUP2 LT PUSH2 0x2034 JUMPI INVALID JUMPDEST SWAP1 PUSH1 0x0 MSTORE PUSH1 0x20 PUSH1 0x0 KECCAK256 SWAP1 PUSH1 0x4 MUL ADD SWAP1 POP PUSH2 0x204C PUSH2 0x51A2 JUMP JUMPDEST PUSH2 0x20B3 DUP15 DUP5 PUSH1 0x6 ADD SLOAD PUSH1 0x0 PUSH1 0x46 DUP7 PUSH1 0x2 ADD PUSH1 0x1 SWAP1 SLOAD SWAP1 PUSH2 0x100 EXP SWAP1 DIV PUSH1 0xFF AND PUSH1 0xFF AND DUP2 SLOAD DUP2 LT PUSH2 0x2078 JUMPI INVALID JUMPDEST SWAP1 PUSH1 0x0 MSTORE PUSH1 0x20 PUSH1 0x0 KECCAK256 ADD PUSH1 0x1 DUP2 SLOAD DUP2 LT PUSH2 0x208E JUMPI INVALID JUMPDEST PUSH1 0x0 SWAP2 DUP3 MSTORE PUSH1 0x20 SWAP2 DUP3 SWAP1 KECCAK256 SWAP2 DUP2 DIV SWAP1 SWAP2 ADD SLOAD PUSH1 0xFF PUSH1 0x1F SWAP1 SWAP3 AND PUSH2 0x100 EXP SWAP1 DIV AND PUSH2 0x3E88 JUMP JUMPDEST SWAP1 POP PUSH2 0x20C3 DUP4 DUP5 PUSH1 0x6 ADD SLOAD PUSH2 0x3DDF JUMP JUMPDEST PUSH1 0x40 DUP3 ADD MLOAD PUSH1 0x1 DUP6 ADD SLOAD SWAP2 SWAP9 POP SWAP7 POP PUSH2 0x3E6 PUSH1 0x1 PUSH1 0x20 SHL SWAP1 SWAP2 DIV PUSH2 0xFFFF AND GT DUP1 ISZERO PUSH2 0x20FF JUMPI POP PUSH1 0x1 DUP4 ADD SLOAD PUSH2 0x3EA PUSH1 0x1 PUSH1 0x20 SHL SWAP1 SWAP2 DIV PUSH2 0xFFFF AND LT JUMPDEST ISZERO PUSH2 0x215E JUMPI PUSH1 0x0 JUMPDEST PUSH1 0x50 SLOAD DUP2 LT ISZERO PUSH2 0x215C JUMPI PUSH1 0x0 PUSH1 0x50 DUP3 DUP2 SLOAD DUP2 LT PUSH2 0x2120 JUMPI INVALID JUMPDEST SWAP1 PUSH1 0x0 MSTORE PUSH1 0x20 PUSH1 0x0 KECCAK256 SWAP1 PUSH1 0x3 MUL ADD SWAP1 POP DUP5 PUSH1 0x6 ADD SLOAD DUP2 PUSH1 0x0 ADD SLOAD GT ISZERO PUSH2 0x2153 JUMPI PUSH2 0xBB6 DUP2 PUSH1 0x1 ADD SLOAD DUP2 PUSH2 0x214F JUMPI INVALID JUMPDEST DIV SWAP7 POP JUMPDEST POP PUSH1 0x1 ADD PUSH2 0x2107 JUMP JUMPDEST POP JUMPDEST PUSH2 0x3E8 DUP3 PUSH1 0x3 ADD SLOAD DUP5 PUSH1 0xA ADD SLOAD MUL DUP2 PUSH2 0x2173 JUMPI INVALID JUMPDEST DIV DUP6 DUP3 PUSH1 0x40 ADD MLOAD DUP10 ADD ADD GT SWAP8 POP DUP8 PUSH2 0x21EE JUMPI PUSH1 0x1 DUP4 ADD SLOAD PUSH1 0x5 PUSH1 0x1 PUSH1 0x20 SHL SWAP1 SWAP2 DIV PUSH2 0xFFFF AND LT ISZERO PUSH2 0x21B2 JUMPI DUP5 PUSH2 0x3E8 PUSH2 0x352 DUP10 DUP10 ADD MUL DIV ADD SWAP4 POP PUSH2 0x21EE JUMP JUMPDEST PUSH1 0x1 DUP4 ADD SLOAD PUSH2 0x3E6 PUSH1 0x1 PUSH1 0x20 SHL SWAP1 SWAP2 DIV PUSH2 0xFFFF AND GT ISZERO PUSH2 0x21E0 JUMPI PUSH2 0x3E8 PUSH2 0x352 DUP9 DUP9 ADD DUP8 ADD MUL DIV SWAP4 POP PUSH2 0x21EE JUMP JUMPDEST PUSH2 0x3E8 PUSH2 0x352 DUP9 DUP9 ADD MUL DIV SWAP4 POP JUMPDEST POP POP POP JUMPDEST SWAP4 SWAP11 SWAP3 SWAP10 POP SWAP1 SWAP8 POP SWAP6 POP SWAP1 SWAP4 POP SWAP2 POP POP JUMP JUMPDEST PUSH1 0x4 SLOAD SWAP1 JUMP JUMPDEST PUSH1 0x0 PUSH2 0x2214 PUSH2 0x26A2 JUMP JUMPDEST SWAP1 POP PUSH1 0x1 PUSH1 0x1 PUSH1 0xA0 SHL SUB DUP2 AND PUSH2 0x223C JUMPI PUSH1 0x40 MLOAD PUSH3 0x461BCD PUSH1 0xE5 SHL DUP2 MSTORE PUSH1 0x4 ADD PUSH2 0xF25 SWAP1 PUSH2 0x58C4 JUMP JUMPDEST PUSH2 0x17EC DUP2 DUP4 PUSH2 0x41A4 JUMP JUMPDEST PUSH1 0x1 PUSH1 0x1 PUSH1 0xA0 SHL SUB SWAP2 DUP3 AND PUSH1 0x0 SWAP1 DUP2 MSTORE PUSH1 0x2 PUSH1 0x20 SWAP1 DUP2 MSTORE PUSH1 0x40 DUP1 DUP4 KECCAK256 SWAP4 SWAP1 SWAP5 AND DUP3 MSTORE SWAP2 SWAP1 SWAP2 MSTORE KECCAK256 SLOAD SWAP1 JUMP JUMPDEST PUSH1 0x0 PUSH2 0x227B PUSH2 0x26A2 JUMP JUMPDEST SWAP1 POP PUSH1 0x1 PUSH1 0x1 PUSH1 0xA0 SHL SUB DUP2 AND PUSH2 0x22A3 JUMPI PUSH1 0x40 MLOAD PUSH3 0x461BCD PUSH1 0xE5 SHL DUP2 MSTORE PUSH1 0x4 ADD PUSH2 0xF25 SWAP1 PUSH2 0x58C4 JUMP JUMPDEST PUSH2 0x17EC DUP2 DUP4 PUSH2 0x4662 JUMP JUMPDEST PUSH1 0x60 PUSH1 0x0 PUSH2 0x22B9 PUSH2 0x275A JUMP JUMPDEST POP SWAP1 POP PUSH1 0x60 DUP2 PUSH8 0xFFFFFFFFFFFFFFFF DUP2 GT DUP1 ISZERO PUSH2 0x22D5 JUMPI PUSH1 0x0 DUP1 REVERT JUMPDEST POP PUSH1 0x40 MLOAD SWAP1 DUP1 DUP3 MSTORE DUP1 PUSH1 0x20 MUL PUSH1 0x20 ADD DUP3 ADD PUSH1 0x40 MSTORE DUP1 ISZERO PUSH2 0x230F JUMPI DUP2 PUSH1 0x20 ADD JUMPDEST PUSH2 0x22FC PUSH2 0x51C3 JUMP JUMPDEST DUP2 MSTORE PUSH1 0x20 ADD SWAP1 PUSH1 0x1 SWAP1 SUB SWAP1 DUP2 PUSH2 0x22F4 JUMPI SWAP1 POP JUMPDEST POP SWAP1 POP PUSH1 0x0 DUP1 JUMPDEST PUSH1 0x59 SLOAD DUP2 LT ISZERO PUSH2 0x245A JUMPI NUMBER PUSH1 0x59 DUP3 DUP2 SLOAD DUP2 LT PUSH2 0x232E JUMPI INVALID JUMPDEST SWAP1 PUSH1 0x0 MSTORE PUSH1 0x20 PUSH1 0x0 KECCAK256 SWAP1 PUSH1 0x4 MUL ADD PUSH1 0x3 ADD SLOAD PUSH2 0x2580 ADD GT ISZERO PUSH2 0x2452 JUMPI PUSH1 0x59 DUP2 DUP2 SLOAD DUP2 LT PUSH2 0x2357 JUMPI INVALID JUMPDEST PUSH1 0x0 SWAP2 DUP3 MSTORE PUSH1 0x20 SWAP1 SWAP2 KECCAK256 PUSH1 0x4 SWAP1 SWAP2 MUL ADD SLOAD DUP4 MLOAD PUSH1 0x1 PUSH1 0x1 PUSH1 0xA0 SHL SUB SWAP1 SWAP2 AND SWAP1 DUP5 SWAP1 DUP5 SWAP1 DUP2 LT PUSH2 0x2382 JUMPI INVALID JUMPDEST PUSH1 0x20 SWAP1 DUP2 MUL SWAP2 SWAP1 SWAP2 ADD ADD MLOAD PUSH1 0x1 PUSH1 0x1 PUSH1 0xA0 SHL SUB SWAP1 SWAP2 AND SWAP1 MSTORE PUSH1 0x59 DUP1 SLOAD DUP3 SWAP1 DUP2 LT PUSH2 0x23A8 JUMPI INVALID JUMPDEST SWAP1 PUSH1 0x0 MSTORE PUSH1 0x20 PUSH1 0x0 KECCAK256 SWAP1 PUSH1 0x4 MUL ADD PUSH1 0x1 ADD SLOAD DUP4 DUP4 DUP2 MLOAD DUP2 LT PUSH2 0x23C6 JUMPI INVALID JUMPDEST PUSH1 0x20 MUL PUSH1 0x20 ADD ADD MLOAD PUSH1 0x20 ADD DUP2 DUP2 MSTORE POP POP PUSH1 0x59 DUP2 DUP2 SLOAD DUP2 LT PUSH2 0x23E3 JUMPI INVALID JUMPDEST SWAP1 PUSH1 0x0 MSTORE PUSH1 0x20 PUSH1 0x0 KECCAK256 SWAP1 PUSH1 0x4 MUL ADD PUSH1 0x2 ADD SLOAD DUP4 DUP4 DUP2 MLOAD DUP2 LT PUSH2 0x2401 JUMPI INVALID JUMPDEST PUSH1 0x20 MUL PUSH1 0x20 ADD ADD MLOAD PUSH1 0x40 ADD DUP2 DUP2 MSTORE POP POP PUSH1 0x59 DUP2 DUP2 SLOAD DUP2 LT PUSH2 0x241E JUMPI INVALID JUMPDEST SWAP1 PUSH1 0x0 MSTORE PUSH1 0x20 PUSH1 0x0 KECCAK256 SWAP1 PUSH1 0x4 MUL ADD PUSH1 0x3 ADD SLOAD DUP4 DUP4 DUP2 MLOAD DUP2 LT PUSH2 0x243C JUMPI INVALID JUMPDEST PUSH1 0x20 SWAP1 DUP2 MUL SWAP2 SWAP1 SWAP2 ADD ADD MLOAD PUSH1 0x60 ADD MSTORE PUSH1 0x1 SWAP1 SWAP2 ADD SWAP1 JUMPDEST PUSH1 0x1 ADD PUSH2 0x2316 JUMP JUMPDEST POP SWAP1 SWAP3 POP POP POP SWAP1 JUMP JUMPDEST PUSH1 0x0 PUSH2 0x246D PUSH2 0x26A2 JUMP JUMPDEST SWAP1 POP PUSH1 0x1 PUSH1 0x1 PUSH1 0xA0 SHL SUB DUP2 AND PUSH2 0x2495 JUMPI PUSH1 0x40 MLOAD PUSH3 0x461BCD PUSH1 0xE5 SHL DUP2 MSTORE PUSH1 0x4 ADD PUSH2 0xF25 SWAP1 PUSH2 0x58C4 JUMP JUMPDEST PUSH2 0x249E DUP2 PUSH2 0x3274 JUMP JUMPDEST POP JUMP JUMPDEST CALLER PUSH2 0x24AA PUSH2 0x1B82 JUMP JUMPDEST PUSH1 0x1 PUSH1 0x1 PUSH1 0xA0 SHL SUB AND EQ PUSH2 0x24D0 JUMPI PUSH1 0x40 MLOAD PUSH3 0x461BCD PUSH1 0xE5 SHL DUP2 MSTORE PUSH1 0x4 ADD PUSH2 0xF25 SWAP1 PUSH2 0x5A14 JUMP JUMPDEST PUSH1 0xA DUP1 SLOAD PUSH1 0x1 PUSH1 0x1 PUSH1 0xA0 SHL SUB SWAP6 DUP7 AND PUSH1 0x1 PUSH1 0x1 PUSH1 0xA0 SHL SUB NOT SWAP2 DUP3 AND OR SWAP1 SWAP2 SSTORE PUSH1 0x12 DUP1 SLOAD SWAP5 DUP7 AND SWAP5 DUP3 AND SWAP5 SWAP1 SWAP5 OR SWAP1 SWAP4 SSTORE PUSH1 0xE DUP1 SLOAD SWAP3 DUP6 AND SWAP3 DUP5 AND SWAP3 SWAP1 SWAP3 OR SWAP1 SWAP2 SSTORE PUSH1 0x4B DUP1 SLOAD SWAP2 SWAP1 SWAP4 AND SWAP2 AND OR SWAP1 SSTORE JUMP JUMPDEST PUSH2 0x2528 PUSH2 0x26A2 JUMP JUMPDEST PUSH1 0x0 SLOAD PUSH1 0x1 PUSH1 0x1 PUSH1 0xA0 SHL SUB SWAP1 DUP2 AND SWAP2 AND EQ PUSH2 0x2555 JUMPI PUSH1 0x40 MLOAD PUSH3 0x461BCD PUSH1 0xE5 SHL DUP2 MSTORE PUSH1 0x4 ADD PUSH2 0xF25 SWAP1 PUSH2 0x5A14 JUMP JUMPDEST PUSH2 0x249E DUP2 PUSH2 0x4AFB JUMP JUMPDEST PUSH1 0x7 DUP1 SLOAD PUSH1 0x1 PUSH1 0x1 PUSH1 0xA0 SHL SUB SWAP7 DUP8 AND PUSH2 0x100 MUL PUSH2 0x100 PUSH1 0x1 PUSH1 0xA8 SHL SUB NOT SWAP1 SWAP2 AND OR SWAP1 SSTORE PUSH1 0xA DUP1 SLOAD SWAP5 DUP7 AND PUSH1 0x1 PUSH1 0x1 PUSH1 0xA0 SHL SUB NOT SWAP6 DUP7 AND OR SWAP1 SSTORE PUSH1 0x12 DUP1 SLOAD SWAP4 DUP7 AND SWAP4 DUP6 AND SWAP4 SWAP1 SWAP4 OR SWAP1 SWAP3 SSTORE PUSH1 0xE DUP1 SLOAD SWAP2 DUP6 AND SWAP2 DUP5 AND SWAP2 SWAP1 SWAP2 OR SWAP1 SSTORE PUSH1 0x4B DUP1 SLOAD SWAP2 SWAP1 SWAP4 AND SWAP2 AND OR SWAP1 SSTORE JUMP JUMPDEST PUSH1 0x47 SLOAD PUSH1 0x1 PUSH1 0x1 PUSH1 0xA0 SHL SUB AND DUP2 JUMP JUMPDEST PUSH1 0x1 PUSH1 0x1 PUSH1 0xA0 SHL SUB DUP1 DUP3 AND PUSH1 0x0 SWAP1 DUP2 MSTORE PUSH1 0x49 PUSH1 0x20 SWAP1 DUP2 MSTORE PUSH1 0x40 DUP1 DUP4 KECCAK256 PUSH1 0xD DUP2 ADD SLOAD PUSH1 0xE SWAP1 SWAP2 ADD DUP1 SLOAD DUP4 MLOAD DUP2 DUP7 MUL DUP2 ADD DUP7 ADD SWAP1 SWAP5 MSTORE DUP1 DUP5 MSTORE SWAP5 SWAP6 DUP7 SWAP6 PUSH1 0x60 SWAP6 PUSH2 0xFFFF PUSH1 0x1 PUSH1 0xA0 SHL DUP7 DIV AND SWAP6 SWAP5 SWAP1 SWAP3 AND SWAP4 SWAP2 DUP4 SWAP2 SWAP1 DUP4 ADD DUP3 DUP3 DUP1 ISZERO PUSH2 0x2662 JUMPI PUSH1 0x20 MUL DUP3 ADD SWAP2 SWAP1 PUSH1 0x0 MSTORE PUSH1 0x20 PUSH1 0x0 KECCAK256 SWAP1 JUMPDEST DUP2 SLOAD PUSH1 0x1 PUSH1 0x1 PUSH1 0xA0 SHL SUB AND DUP2 MSTORE PUSH1 0x1 SWAP1 SWAP2 ADD SWAP1 PUSH1 0x20 ADD DUP1 DUP4 GT PUSH2 0x2644 JUMPI JUMPDEST POP POP POP POP POP SWAP1 POP SWAP3 POP SWAP3 POP SWAP3 POP SWAP2 SWAP4 SWAP1 SWAP3 POP JUMP JUMPDEST PUSH1 0x0 DUP3 DUP3 ADD DUP4 DUP2 LT ISZERO PUSH2 0x269B JUMPI PUSH1 0x40 MLOAD PUSH3 0x461BCD PUSH1 0xE5 SHL DUP2 MSTORE PUSH1 0x4 ADD PUSH2 0xF25 SWAP1 PUSH2 0x5832 JUMP JUMPDEST SWAP4 SWAP3 POP POP POP JUMP JUMPDEST CALLER SWAP1 JUMP JUMPDEST PUSH1 0x1 PUSH1 0x1 PUSH1 0xA0 SHL SUB DUP4 AND PUSH2 0x26CC JUMPI PUSH1 0x40 MLOAD PUSH3 0x461BCD PUSH1 0xE5 SHL DUP2 MSTORE PUSH1 0x4 ADD PUSH2 0xF25 SWAP1 PUSH2 0x5B5B JUMP JUMPDEST PUSH1 0x1 PUSH1 0x1 PUSH1 0xA0 SHL SUB DUP3 AND PUSH2 0x26F2 JUMPI PUSH1 0x40 MLOAD PUSH3 0x461BCD PUSH1 0xE5 SHL DUP2 MSTORE PUSH1 0x4 ADD PUSH2 0xF25 SWAP1 PUSH2 0x573F JUMP JUMPDEST PUSH1 0x1 PUSH1 0x1 PUSH1 0xA0 SHL SUB DUP1 DUP5 AND PUSH1 0x0 DUP2 DUP2 MSTORE PUSH1 0x2 PUSH1 0x20 SWAP1 DUP2 MSTORE PUSH1 0x40 DUP1 DUP4 KECCAK256 SWAP5 DUP8 AND DUP1 DUP5 MSTORE SWAP5 SWAP1 SWAP2 MSTORE SWAP1 DUP2 SWAP1 KECCAK256 DUP5 SWAP1 SSTORE MLOAD PUSH32 0x8C5BE1E5EBEC7D5BD14F71427D1E84F3DD0314C0F7B2291E5B200AC8C7C3B925 SWAP1 PUSH2 0x274D SWAP1 DUP6 SWAP1 PUSH2 0x5C21 JUMP JUMPDEST PUSH1 0x40 MLOAD DUP1 SWAP2 SUB SWAP1 LOG3 POP POP POP JUMP JUMPDEST PUSH1 0x0 DUP1 PUSH1 0x0 DUP1 PUSH1 0x0 JUMPDEST PUSH1 0x59 SLOAD DUP2 LT ISZERO PUSH2 0x27CA JUMPI NUMBER PUSH1 0x59 DUP3 DUP2 SLOAD DUP2 LT PUSH2 0x277B JUMPI INVALID JUMPDEST SWAP1 PUSH1 0x0 MSTORE PUSH1 0x20 PUSH1 0x0 KECCAK256 SWAP1 PUSH1 0x4 MUL ADD PUSH1 0x3 ADD SLOAD PUSH2 0x2580 ADD GT ISZERO PUSH2 0x27C2 JUMPI PUSH1 0x59 DUP1 SLOAD PUSH1 0x1 SWAP1 SWAP5 ADD SWAP4 DUP3 SWAP1 DUP2 LT PUSH2 0x27AB JUMPI INVALID JUMPDEST SWAP1 PUSH1 0x0 MSTORE PUSH1 0x20 PUSH1 0x0 KECCAK256 SWAP1 PUSH1 0x4 MUL ADD PUSH1 0x2 ADD SLOAD DUP3 ADD SWAP2 POP JUMPDEST PUSH1 0x1 ADD PUSH2 0x2763 JUMP JUMPDEST POP SWAP1 SWAP3 POP SWAP1 POP SWAP1 SWAP2 JUMP JUMPDEST PUSH1 0x0 PUSH2 0x3E8 PUSH2 0x27E1 PUSH2 0x4B7C JUMP JUMPDEST PUSH1 0x32 MUL DUP2 PUSH2 0x27EB JUMPI INVALID JUMPDEST DIV SWAP1 POP SWAP1 JUMP JUMPDEST PUSH1 0x0 PUSH1 0x3 DUP3 GT ISZERO PUSH2 0x2814 JUMPI PUSH1 0x40 MLOAD PUSH3 0x461BCD PUSH1 0xE5 SHL DUP2 MSTORE PUSH1 0x4 ADD PUSH2 0xF25 SWAP1 PUSH2 0x59EE JUMP JUMPDEST PUSH1 0x4 DUP3 LT ISZERO PUSH2 0x289F JUMPI PUSH1 0x18 SLOAD PUSH1 0x54 DUP1 SLOAD PUSH2 0x3E8 SWAP3 PUSH1 0x1 PUSH1 0x40 SHL SWAP1 DIV PUSH2 0xFFFF AND SWAP2 SWAP1 DUP6 SWAP1 DUP2 LT PUSH2 0x283F JUMPI INVALID JUMPDEST SWAP1 PUSH1 0x0 MSTORE PUSH1 0x20 PUSH1 0x0 KECCAK256 ADD PUSH1 0x0 DUP2 SLOAD DUP2 LT PUSH2 0x2855 JUMPI INVALID JUMPDEST SWAP1 PUSH1 0x0 MSTORE PUSH1 0x20 PUSH1 0x0 KECCAK256 ADD SLOAD MUL DUP2 PUSH2 0x2868 JUMPI INVALID JUMPDEST DIV PUSH1 0x54 DUP4 DUP2 SLOAD DUP2 LT PUSH2 0x2876 JUMPI INVALID JUMPDEST SWAP1 PUSH1 0x0 MSTORE PUSH1 0x20 PUSH1 0x0 KECCAK256 ADD PUSH1 0x0 DUP2 SLOAD DUP2 LT PUSH2 0x288C JUMPI INVALID JUMPDEST SWAP1 PUSH1 0x0 MSTORE PUSH1 0x20 PUSH1 0x0 KECCAK256 ADD SLOAD ADD SWAP1 POP PUSH2 0x922 JUMP JUMPDEST POP PUSH1 0x0 SWAP2 SWAP1 POP JUMP JUMPDEST PUSH1 0x1 PUSH1 0x1 PUSH1 0xA0 SHL SUB DUP2 AND PUSH1 0x0 SWAP1 DUP2 MSTORE PUSH1 0x55 PUSH1 0x20 MSTORE PUSH1 0x40 DUP2 KECCAK256 PUSH1 0x3 DUP2 ADD SLOAD DUP3 SWAP2 SWAP1 ISZERO PUSH2 0x294F JUMPI PUSH1 0x0 PUSH2 0x28D6 PUSH2 0x275A JUMP JUMPDEST DUP4 SLOAD SWAP1 SWAP3 POP ISZERO ISZERO SWAP1 POP PUSH2 0x2928 JUMPI PUSH1 0x3 DUP3 ADD SLOAD NUMBER SUB PUSH2 0x2580 DUP2 GT ISZERO PUSH2 0x28F9 JUMPI POP PUSH2 0x2580 JUMPDEST DUP1 DUP3 PUSH2 0x7080 MUL DUP5 PUSH1 0x2 ADD SLOAD PUSH1 0x9 SLOAD DUP5 PUSH2 0xBB80 MUL MUL MUL DUP2 PUSH2 0x2915 JUMPI INVALID JUMPDEST DIV DUP5 PUSH1 0x5 ADD SLOAD ADD SWAP5 POP SWAP5 POP POP POP POP PUSH2 0x295A JUMP JUMPDEST PUSH1 0x0 DUP3 PUSH1 0x3 ADD SLOAD NUMBER SUB SWAP1 POP DUP1 DUP3 PUSH2 0x7080 MUL DUP5 PUSH1 0x2 ADD SLOAD PUSH1 0x9 SLOAD DUP5 PUSH2 0xBB80 MUL MUL MUL DUP2 PUSH2 0x2915 JUMPI INVALID JUMPDEST PUSH1 0x5 ADD SLOAD PUSH1 0x0 SWAP3 POP SWAP1 POP JUMPDEST SWAP2 POP SWAP2 JUMP JUMPDEST PUSH1 0x1 PUSH1 0x1 PUSH1 0xA0 SHL SUB DUP4 AND PUSH2 0x2985 JUMPI PUSH1 0x40 MLOAD PUSH3 0x461BCD PUSH1 0xE5 SHL DUP2 MSTORE PUSH1 0x4 ADD PUSH2 0xF25 SWAP1 PUSH2 0x57C7 JUMP JUMPDEST PUSH1 0x1 PUSH1 0x1 PUSH1 0xA0 SHL SUB DUP3 AND PUSH2 0x29AB JUMPI PUSH1 0x40 MLOAD PUSH3 0x461BCD PUSH1 0xE5 SHL DUP2 MSTORE PUSH1 0x4 ADD PUSH2 0xF25 SWAP1 PUSH2 0x5A49 JUMP JUMPDEST PUSH2 0x29E8 DUP2 PUSH1 0x40 MLOAD DUP1 PUSH1 0x60 ADD PUSH1 0x40 MSTORE DUP1 PUSH1 0x26 DUP2 MSTORE PUSH1 0x20 ADD PUSH2 0x5D15 PUSH1 0x26 SWAP2 CODECOPY PUSH1 0x1 PUSH1 0x1 PUSH1 0xA0 SHL SUB DUP7 AND PUSH1 0x0 SWAP1 DUP2 MSTORE PUSH1 0x1 PUSH1 0x20 MSTORE PUSH1 0x40 SWAP1 KECCAK256 SLOAD SWAP2 SWAP1 PUSH2 0x2A69 JUMP JUMPDEST PUSH1 0x1 PUSH1 0x1 PUSH1 0xA0 SHL SUB DUP1 DUP6 AND PUSH1 0x0 SWAP1 DUP2 MSTORE PUSH1 0x1 PUSH1 0x20 MSTORE PUSH1 0x40 DUP1 DUP3 KECCAK256 SWAP4 SWAP1 SWAP4 SSTORE SWAP1 DUP5 AND DUP2 MSTORE KECCAK256 SLOAD PUSH2 0x2A17 SWAP1 DUP3 PUSH2 0x2676 JUMP JUMPDEST PUSH1 0x1 PUSH1 0x1 PUSH1 0xA0 SHL SUB DUP1 DUP5 AND PUSH1 0x0 DUP2 DUP2 MSTORE PUSH1 0x1 PUSH1 0x20 MSTORE PUSH1 0x40 SWAP1 DUP2 SWAP1 KECCAK256 SWAP4 SWAP1 SWAP4 SSTORE SWAP2 MLOAD SWAP1 DUP6 AND SWAP1 PUSH32 0xDDF252AD1BE2C89B69C2B068FC378DAA952BA7F163C4A11628F55A4DF523B3EF SWAP1 PUSH2 0x274D SWAP1 DUP6 SWAP1 PUSH2 0x5C21 JUMP JUMPDEST PUSH1 0x0 DUP2 DUP5 DUP5 GT ISZERO PUSH2 0x2A8D JUMPI PUSH1 0x40 MLOAD PUSH3 0x461BCD PUSH1 0xE5 SHL DUP2 MSTORE PUSH1 0x4 ADD PUSH2 0xF25 SWAP2 SWAP1 PUSH2 0x5643 JUMP JUMPDEST POP POP POP SWAP1 SUB SWAP1 JUMP JUMPDEST PUSH1 0x1 PUSH1 0x1 PUSH1 0xA0 SHL SUB DUP3 AND PUSH2 0x2ABB JUMPI PUSH1 0x40 MLOAD PUSH3 0x461BCD PUSH1 0xE5 SHL DUP2 MSTORE PUSH1 0x4 ADD PUSH2 0xF25 SWAP1 PUSH2 0x588D JUMP JUMPDEST PUSH1 0x4 SLOAD PUSH1 0x3 SLOAD PUSH2 0x2ACB SWAP1 DUP4 PUSH2 0x2676 JUMP JUMPDEST LT PUSH2 0x2AE8 JUMPI PUSH1 0x40 MLOAD PUSH3 0x461BCD PUSH1 0xE5 SHL DUP2 MSTORE PUSH1 0x4 ADD PUSH2 0xF25 SWAP1 PUSH2 0x59B9 JUMP JUMPDEST PUSH1 0x3 SLOAD PUSH2 0x2AF5 SWAP1 DUP3 PUSH2 0x2676 JUMP JUMPDEST PUSH1 0x3 SSTORE PUSH1 0x1 PUSH1 0x1 PUSH1 0xA0 SHL SUB DUP3 AND PUSH1 0x0 SWAP1 DUP2 MSTORE PUSH1 0x1 PUSH1 0x20 MSTORE PUSH1 0x40 SWAP1 KECCAK256 SLOAD PUSH2 0x2B1B SWAP1 DUP3 PUSH2 0x2676 JUMP JUMPDEST PUSH1 0x1 PUSH1 0x1 PUSH1 0xA0 SHL SUB DUP4 AND PUSH1 0x0 DUP2 DUP2 MSTORE PUSH1 0x1 PUSH1 0x20 MSTORE PUSH1 0x40 DUP1 DUP3 KECCAK256 SWAP4 SWAP1 SWAP4 SSTORE SWAP2 MLOAD SWAP1 SWAP2 SWAP1 PUSH32 0xDDF252AD1BE2C89B69C2B068FC378DAA952BA7F163C4A11628F55A4DF523B3EF SWAP1 PUSH2 0x2B6A SWAP1 DUP6 SWAP1 PUSH2 0x5C21 JUMP JUMPDEST PUSH1 0x40 MLOAD DUP1 SWAP2 SUB SWAP1 LOG3 POP POP JUMP JUMPDEST PUSH1 0x1 PUSH1 0x1 PUSH1 0xA0 SHL SUB DUP2 AND PUSH1 0x0 SWAP1 DUP2 MSTORE PUSH1 0x5A PUSH1 0x20 MSTORE PUSH1 0x40 SWAP1 KECCAK256 SLOAD DUP1 ISZERO PUSH2 0x17EC JUMPI DUP1 JUMPDEST PUSH1 0x59 SLOAD DUP2 LT ISZERO PUSH2 0x2CE0 JUMPI PUSH1 0x59 DUP2 DUP2 SLOAD DUP2 LT PUSH2 0x2BAE JUMPI INVALID JUMPDEST PUSH1 0x0 SWAP2 DUP3 MSTORE PUSH1 0x20 SWAP1 SWAP2 KECCAK256 PUSH1 0x4 SWAP1 SWAP2 MUL ADD SLOAD PUSH1 0x59 DUP1 SLOAD PUSH1 0x1 PUSH1 0x1 PUSH1 0xA0 SHL SUB SWAP1 SWAP3 AND SWAP2 DUP5 DUP5 SUB SWAP1 DUP2 LT PUSH2 0x2BDB JUMPI INVALID JUMPDEST SWAP1 PUSH1 0x0 MSTORE PUSH1 0x20 PUSH1 0x0 KECCAK256 SWAP1 PUSH1 0x4 MUL ADD PUSH1 0x0 ADD PUSH1 0x0 PUSH2 0x100 EXP DUP2 SLOAD DUP2 PUSH1 0x1 PUSH1 0x1 PUSH1 0xA0 SHL SUB MUL NOT AND SWAP1 DUP4 PUSH1 0x1 PUSH1 0x1 PUSH1 0xA0 SHL SUB AND MUL OR SWAP1 SSTORE POP PUSH1 0x59 DUP2 DUP2 SLOAD DUP2 LT PUSH2 0x2C1D JUMPI INVALID JUMPDEST SWAP1 PUSH1 0x0 MSTORE PUSH1 0x20 PUSH1 0x0 KECCAK256 SWAP1 PUSH1 0x4 MUL ADD PUSH1 0x1 ADD SLOAD PUSH1 0x59 DUP4 DUP4 SUB DUP2 SLOAD DUP2 LT PUSH2 0x2C3E JUMPI INVALID JUMPDEST SWAP1 PUSH1 0x0 MSTORE PUSH1 0x20 PUSH1 0x0 KECCAK256 SWAP1 PUSH1 0x4 MUL ADD PUSH1 0x1 ADD DUP2 SWAP1 SSTORE POP PUSH1 0x59 DUP2 DUP2 SLOAD DUP2 LT PUSH2 0x2C60 JUMPI INVALID JUMPDEST SWAP1 PUSH1 0x0 MSTORE PUSH1 0x20 PUSH1 0x0 KECCAK256 SWAP1 PUSH1 0x4 MUL ADD PUSH1 0x2 ADD SLOAD PUSH1 0x59 DUP4 DUP4 SUB DUP2 SLOAD DUP2 LT PUSH2 0x2C81 JUMPI INVALID JUMPDEST SWAP1 PUSH1 0x0 MSTORE PUSH1 0x20 PUSH1 0x0 KECCAK256 SWAP1 PUSH1 0x4 MUL ADD PUSH1 0x2 ADD DUP2 SWAP1 SSTORE POP PUSH1 0x59 DUP2 DUP2 SLOAD DUP2 LT PUSH2 0x2CA3 JUMPI INVALID JUMPDEST SWAP1 PUSH1 0x0 MSTORE PUSH1 0x20 PUSH1 0x0 KECCAK256 SWAP1 PUSH1 0x4 MUL ADD PUSH1 0x3 ADD SLOAD PUSH1 0x59 DUP4 DUP4 SUB DUP2 SLOAD DUP2 LT PUSH2 0x2CC4 JUMPI INVALID JUMPDEST PUSH1 0x0 SWAP2 DUP3 MSTORE PUSH1 0x20 SWAP1 SWAP2 KECCAK256 PUSH1 0x3 PUSH1 0x4 SWAP1 SWAP3 MUL ADD ADD SSTORE PUSH1 0x1 ADD PUSH2 0x2B97 JUMP JUMPDEST POP PUSH1 0x59 DUP1 SLOAD DUP1 PUSH2 0x2CEC JUMPI INVALID JUMPDEST PUSH1 0x0 DUP3 DUP2 MSTORE PUSH1 0x20 DUP1 DUP3 KECCAK256 PUSH1 0x4 PUSH1 0x0 NOT SWAP1 SWAP5 ADD SWAP4 DUP5 MUL ADD DUP1 SLOAD PUSH1 0x1 PUSH1 0x1 PUSH1 0xA0 SHL SUB NOT AND DUP2 SSTORE PUSH1 0x1 DUP2 ADD DUP4 SWAP1 SSTORE PUSH1 0x2 DUP2 ADD DUP4 SWAP1 SSTORE PUSH1 0x3 ADD DUP3 SWAP1 SSTORE SWAP2 SWAP1 SWAP3 SSTORE PUSH1 0x1 PUSH1 0x1 PUSH1 0xA0 SHL SUB DUP5 AND DUP3 MSTORE PUSH1 0x5A SWAP1 MSTORE PUSH1 0x40 DUP2 KECCAK256 SSTORE POP POP JUMP JUMPDEST PUSH1 0x0 DUP1 PUSH1 0x0 PUSH1 0x64 PUSH1 0x4C SLOAD PUSH1 0x5 MUL DUP2 PUSH2 0x2D55 JUMPI INVALID JUMPDEST DIV SWAP1 POP PUSH1 0x0 JUMPDEST PUSH1 0x52 SLOAD DUP2 LT ISZERO PUSH2 0x2E0C JUMPI PUSH1 0x0 PUSH1 0x52 DUP3 DUP2 SLOAD DUP2 LT PUSH2 0x2D74 JUMPI INVALID JUMPDEST SWAP1 PUSH1 0x0 MSTORE PUSH1 0x20 PUSH1 0x0 KECCAK256 SWAP1 PUSH1 0x4 MUL ADD SWAP1 POP PUSH3 0x15180 DUP2 PUSH1 0x0 ADD SLOAD TIMESTAMP SUB GT ISZERO PUSH2 0x2E03 JUMPI PUSH1 0x17 SLOAD PUSH1 0x3 DUP3 ADD SLOAD MUL DUP1 DUP5 LT PUSH2 0x2DFA JUMPI PUSH1 0x4C DUP1 SLOAD DUP3 SWAP1 SUB SWAP1 SSTORE PUSH1 0x3 DUP3 ADD SLOAD PUSH1 0x7 SLOAD PUSH1 0x1 DUP5 DUP2 ADD SLOAD SWAP9 ADD SWAP8 SWAP7 SWAP1 SWAP2 ADD SWAP6 SWAP5 DUP3 SWAP1 SUB SWAP5 PUSH2 0x2DE5 SWAP2 PUSH1 0x1 PUSH1 0x1 PUSH1 0xA0 SHL SUB PUSH2 0x100 SWAP1 SWAP2 DIV DUP2 AND SWAP2 AND DUP4 PUSH2 0x2E79 JUMP JUMPDEST DUP6 PUSH1 0x2 EQ ISZERO PUSH2 0x2DF5 JUMPI POP POP PUSH2 0x2E0C JUMP JUMPDEST PUSH2 0x2E01 JUMP JUMPDEST POP POP PUSH2 0x2E0C JUMP JUMPDEST POP JUMPDEST POP PUSH1 0x1 ADD PUSH2 0x2D5B JUMP JUMPDEST POP DUP2 ISZERO PUSH2 0xFDA JUMPI PUSH1 0x4B SLOAD PUSH2 0xFDA SWAP1 ADDRESS SWAP1 PUSH1 0x1 PUSH1 0x1 PUSH1 0xA0 SHL SUB AND DUP5 PUSH2 0x295F JUMP JUMPDEST PUSH1 0x4A SLOAD PUSH1 0x0 SWAP1 JUMPDEST DUP1 ISZERO PUSH2 0x2E70 JUMPI PUSH1 0x4A PUSH1 0x1 DUP3 SUB DUP2 SLOAD DUP2 LT PUSH2 0x2E48 JUMPI INVALID JUMPDEST SWAP1 PUSH1 0x0 MSTORE PUSH1 0x20 PUSH1 0x0 KECCAK256 SWAP1 PUSH1 0x4 MUL ADD PUSH1 0x1 ADD SLOAD DUP4 LT PUSH2 0x2E67 JUMPI SWAP1 POP PUSH2 0x922 JUMP JUMPDEST PUSH1 0x0 NOT ADD PUSH2 0x2E32 JUMP JUMPDEST POP PUSH1 0x0 SWAP3 SWAP2 POP POP JUMP JUMPDEST PUSH1 0x0 PUSH1 0x60 DUP5 PUSH1 0x1 PUSH1 0x1 PUSH1 0xA0 SHL SUB AND PUSH4 0xA9059CBB DUP6 DUP6 PUSH1 0x40 MLOAD PUSH1 0x24 ADD PUSH2 0x2E9F SWAP3 SWAP2 SWAP1 PUSH2 0x5482 JUMP JUMPDEST PUSH1 0x40 MLOAD PUSH1 0x20 DUP2 DUP4 SUB SUB DUP2 MSTORE SWAP1 PUSH1 0x40 MSTORE SWAP1 PUSH1 0xE0 SHL PUSH1 0x20 DUP3 ADD DUP1 MLOAD PUSH1 0x1 PUSH1 0x1 PUSH1 0xE0 SHL SUB DUP4 DUP2 DUP4 AND OR DUP4 MSTORE POP POP POP POP PUSH1 0x40 MLOAD PUSH2 0x2ED8 SWAP2 SWAP1 PUSH2 0x542E JUMP JUMPDEST PUSH1 0x0 PUSH1 0x40 MLOAD DUP1 DUP4 SUB DUP2 PUSH1 0x0 DUP7 GAS CALL SWAP2 POP POP RETURNDATASIZE DUP1 PUSH1 0x0 DUP2 EQ PUSH2 0x2F15 JUMPI PUSH1 0x40 MLOAD SWAP2 POP PUSH1 0x1F NOT PUSH1 0x3F RETURNDATASIZE ADD AND DUP3 ADD PUSH1 0x40 MSTORE RETURNDATASIZE DUP3 MSTORE RETURNDATASIZE PUSH1 0x0 PUSH1 0x20 DUP5 ADD RETURNDATACOPY PUSH2 0x2F1A JUMP JUMPDEST PUSH1 0x60 SWAP2 POP JUMPDEST POP SWAP2 POP SWAP2 POP DUP2 DUP1 ISZERO PUSH2 0x2F44 JUMPI POP DUP1 MLOAD ISZERO DUP1 PUSH2 0x2F44 JUMPI POP DUP1 DUP1 PUSH1 0x20 ADD SWAP1 MLOAD DUP2 ADD SWAP1 PUSH2 0x2F44 SWAP2 SWAP1 PUSH2 0x53DE JUMP JUMPDEST PUSH2 0x2F60 JUMPI PUSH1 0x40 MLOAD PUSH3 0x461BCD PUSH1 0xE5 SHL DUP2 MSTORE PUSH1 0x4 ADD PUSH2 0xF25 SWAP1 PUSH2 0x5676 JUMP JUMPDEST POP POP POP POP POP JUMP JUMPDEST PUSH1 0x1 PUSH1 0x1 PUSH1 0xA0 SHL SUB DUP3 AND PUSH2 0x2F8D JUMPI PUSH1 0x40 MLOAD PUSH3 0x461BCD PUSH1 0xE5 SHL DUP2 MSTORE PUSH1 0x4 ADD PUSH2 0xF25 SWAP1 PUSH2 0x5978 JUMP JUMPDEST PUSH2 0x2FCA DUP2 PUSH1 0x40 MLOAD DUP1 PUSH1 0x60 ADD PUSH1 0x40 MSTORE DUP1 PUSH1 0x22 DUP2 MSTORE PUSH1 0x20 ADD PUSH2 0x5D88 PUSH1 0x22 SWAP2 CODECOPY PUSH1 0x1 PUSH1 0x1 PUSH1 0xA0 SHL SUB DUP6 AND PUSH1 0x0 SWAP1 DUP2 MSTORE PUSH1 0x1 PUSH1 0x20 MSTORE PUSH1 0x40 SWAP1 KECCAK256 SLOAD SWAP2 SWAP1 PUSH2 0x2A69 JUMP JUMPDEST PUSH1 0x1 PUSH1 0x1 PUSH1 0xA0 SHL SUB DUP4 AND PUSH1 0x0 SWAP1 DUP2 MSTORE PUSH1 0x1 PUSH1 0x20 MSTORE PUSH1 0x40 SWAP1 KECCAK256 SSTORE PUSH1 0x3 SLOAD PUSH2 0x2FF0 SWAP1 DUP3 PUSH2 0x4C02 JUMP JUMPDEST PUSH1 0x3 SSTORE PUSH1 0x40 MLOAD PUSH1 0x0 SWAP1 PUSH1 0x1 PUSH1 0x1 PUSH1 0xA0 SHL SUB DUP5 AND SWAP1 PUSH32 0xDDF252AD1BE2C89B69C2B068FC378DAA952BA7F163C4A11628F55A4DF523B3EF SWAP1 PUSH2 0x2B6A SWAP1 DUP6 SWAP1 PUSH2 0x5C21 JUMP JUMPDEST PUSH1 0x1 PUSH1 0x1 PUSH1 0xA0 SHL SUB DUP1 DUP5 AND PUSH1 0x0 DUP2 DUP2 MSTORE PUSH1 0x55 PUSH1 0x20 MSTORE PUSH1 0x40 SWAP1 KECCAK256 PUSH1 0xA SLOAD SWAP1 SWAP3 AND EQ PUSH2 0x320E JUMPI PUSH1 0x0 DUP1 PUSH2 0x3061 DUP5 PUSH2 0x27F1 JUMP JUMPDEST SWAP1 POP PUSH1 0x0 PUSH1 0x64 PUSH1 0x18 PUSH1 0x8 SWAP1 SLOAD SWAP1 PUSH2 0x100 EXP SWAP1 DIV PUSH2 0xFFFF AND PUSH2 0xFFFF AND GT ISZERO PUSH2 0x30B5 JUMPI PUSH1 0x54 DUP6 DUP2 SLOAD DUP2 LT PUSH2 0x308F JUMPI INVALID JUMPDEST SWAP1 PUSH1 0x0 MSTORE PUSH1 0x20 PUSH1 0x0 KECCAK256 ADD PUSH1 0x3 DUP2 SLOAD DUP2 LT PUSH2 0x30A5 JUMPI INVALID JUMPDEST SWAP1 PUSH1 0x0 MSTORE PUSH1 0x20 PUSH1 0x0 KECCAK256 ADD SLOAD PUSH2 0x30E4 JUMP JUMPDEST PUSH1 0x54 DUP6 DUP2 SLOAD DUP2 LT PUSH2 0x30C2 JUMPI INVALID JUMPDEST SWAP1 PUSH1 0x0 MSTORE PUSH1 0x20 PUSH1 0x0 KECCAK256 ADD PUSH1 0x2 DUP2 SLOAD DUP2 LT PUSH2 0x30D8 JUMPI INVALID JUMPDEST SWAP1 PUSH1 0x0 MSTORE PUSH1 0x20 PUSH1 0x0 KECCAK256 ADD SLOAD JUMPDEST PUSH1 0x7 SLOAD PUSH2 0x3E8 DUP3 DUP6 MUL DIV SWAP5 POP SWAP1 SWAP2 POP PUSH2 0x310D SWAP1 PUSH2 0x100 SWAP1 DIV PUSH1 0x1 PUSH1 0x1 PUSH1 0xA0 SHL SUB AND DUP9 ADDRESS DUP6 PUSH2 0x4C44 JUMP JUMPDEST PUSH1 0x1 PUSH1 0x1 PUSH1 0xA0 SHL SUB DUP7 AND ISZERO PUSH2 0x31C9 JUMPI PUSH1 0x7 SLOAD PUSH1 0x64 PUSH1 0x5A DUP6 MUL DIV SWAP1 PUSH2 0x3140 SWAP1 PUSH2 0x100 SWAP1 DIV PUSH1 0x1 PUSH1 0x1 PUSH1 0xA0 SHL SUB AND DUP9 DUP4 PUSH2 0x2E79 JUMP JUMPDEST PUSH1 0x2 DUP6 ADD SLOAD PUSH2 0x3198 JUMPI PUSH1 0x1 PUSH1 0x1 PUSH1 0xA0 SHL SUB DUP1 DUP9 AND PUSH1 0x0 DUP2 DUP2 MSTORE PUSH1 0x56 PUSH1 0x20 SWAP1 DUP2 MSTORE PUSH1 0x40 DUP3 KECCAK256 DUP1 SLOAD PUSH1 0x1 DUP2 DUP2 ADD DUP4 SSTORE SWAP2 DUP5 MSTORE SWAP2 SWAP1 SWAP3 KECCAK256 ADD DUP1 SLOAD SWAP4 DUP13 AND PUSH1 0x1 PUSH1 0x1 PUSH1 0xA0 SHL SUB NOT SWAP5 DUP6 AND OR SWAP1 SSTORE DUP8 ADD DUP1 SLOAD SWAP1 SWAP3 AND OR SWAP1 SSTORE PUSH2 0x31C7 JUMP JUMPDEST PUSH1 0x1 DUP6 ADD SLOAD PUSH1 0x1 PUSH1 0x1 PUSH1 0xA0 SHL SUB DUP9 DUP2 AND SWAP2 AND EQ PUSH2 0x31C7 JUMPI PUSH1 0x40 MLOAD PUSH3 0x461BCD PUSH1 0xE5 SHL DUP2 MSTORE PUSH1 0x4 ADD PUSH2 0xF25 SWAP1 PUSH2 0x5712 JUMP JUMPDEST POP JUMPDEST POP PUSH1 0x4C DUP1 SLOAD PUSH1 0x64 PUSH1 0xA SWAP5 SWAP1 SWAP5 MUL SWAP4 SWAP1 SWAP4 DIV SWAP1 SWAP3 ADD SWAP1 SWAP2 SSTORE PUSH1 0xB DUP1 SLOAD PUSH2 0x3E8 PUSH1 0x14 DUP5 MUL DUP2 SWAP1 DIV SWAP1 SWAP2 ADD SWAP1 SWAP2 SSTORE PUSH1 0xF DUP1 SLOAD SWAP3 DUP2 MUL SWAP2 SWAP1 SWAP2 DIV SWAP2 DUP3 ADD SWAP1 SSTORE PUSH1 0x13 DUP1 SLOAD SWAP1 SWAP2 ADD SWAP1 SSTORE JUMPDEST PUSH1 0x2 DUP2 ADD SLOAD PUSH2 0x3230 JUMPI PUSH1 0x0 DUP2 SSTORE PUSH1 0x2 DUP2 ADD DUP3 SWAP1 SSTORE PUSH1 0x57 DUP1 SLOAD PUSH1 0x1 ADD SWAP1 SSTORE PUSH2 0x3258 JUMP JUMPDEST PUSH1 0x3 DUP2 ADD SLOAD ISZERO PUSH2 0x324D JUMPI PUSH1 0x0 PUSH2 0x3245 DUP6 PUSH2 0x28A7 JUMP JUMPDEST PUSH1 0x5 DUP5 ADD SSTORE POP POP JUMPDEST PUSH1 0x2 DUP2 ADD DUP1 SLOAD DUP4 ADD SWAP1 SSTORE JUMPDEST PUSH1 0x0 PUSH1 0x3 DUP3 ADD SSTORE TIMESTAMP PUSH1 0x6 DUP3 ADD SSTORE PUSH2 0x326E DUP5 PUSH2 0x2B76 JUMP JUMPDEST POP POP POP POP JUMP JUMPDEST PUSH1 0x1 PUSH1 0x1 PUSH1 0xA0 SHL SUB DUP2 AND PUSH1 0x0 SWAP1 DUP2 MSTORE PUSH1 0x55 PUSH1 0x20 MSTORE PUSH1 0x40 SWAP1 KECCAK256 PUSH1 0x2 DUP2 ADD SLOAD PUSH2 0x32AD JUMPI PUSH1 0x40 MLOAD PUSH3 0x461BCD PUSH1 0xE5 SHL DUP2 MSTORE PUSH1 0x4 ADD PUSH2 0xF25 SWAP1 PUSH2 0x5B08 JUMP JUMPDEST PUSH1 0x3 DUP2 ADD SLOAD ISZERO PUSH2 0x32CF JUMPI PUSH1 0x40 MLOAD PUSH3 0x461BCD PUSH1 0xE5 SHL DUP2 MSTORE PUSH1 0x4 ADD PUSH2 0xF25 SWAP1 PUSH2 0x594D JUMP JUMPDEST PUSH1 0x1 PUSH1 0x1 PUSH1 0xA0 SHL SUB DUP3 AND PUSH1 0x0 SWAP1 DUP2 MSTORE PUSH1 0x5A PUSH1 0x20 MSTORE PUSH1 0x40 SWAP1 KECCAK256 SLOAD DUP1 ISZERO PUSH2 0x33BE JUMPI DUP3 PUSH1 0x59 PUSH1 0x1 DUP4 SUB DUP2 SLOAD DUP2 LT PUSH2 0x32FF JUMPI INVALID JUMPDEST PUSH1 0x0 SWAP2 DUP3 MSTORE PUSH1 0x20 SWAP1 SWAP2 KECCAK256 PUSH1 0x4 SWAP1 SWAP2 MUL ADD DUP1 SLOAD PUSH1 0x1 PUSH1 0x1 PUSH1 0xA0 SHL SUB NOT AND PUSH1 0x1 PUSH1 0x1 PUSH1 0xA0 SHL SUB SWAP3 SWAP1 SWAP3 AND SWAP2 SWAP1 SWAP2 OR SWAP1 SSTORE DUP2 SLOAD PUSH1 0x59 DUP1 SLOAD PUSH1 0x0 NOT DUP5 ADD SWAP1 DUP2 LT PUSH2 0x3341 JUMPI INVALID JUMPDEST SWAP1 PUSH1 0x0 MSTORE PUSH1 0x20 PUSH1 0x0 KECCAK256 SWAP1 PUSH1 0x4 MUL ADD PUSH1 0x1 ADD DUP2 SWAP1 SSTORE POP DUP2 PUSH1 0x2 ADD SLOAD PUSH1 0x59 PUSH1 0x1 DUP4 SUB DUP2 SLOAD DUP2 LT PUSH2 0x336B JUMPI INVALID JUMPDEST SWAP1 PUSH1 0x0 MSTORE PUSH1 0x20 PUSH1 0x0 KECCAK256 SWAP1 PUSH1 0x4 MUL ADD PUSH1 0x2 ADD DUP2 SWAP1 SSTORE POP NUMBER PUSH1 0x59 PUSH1 0x1 DUP4 SUB DUP2 SLOAD DUP2 LT PUSH2 0x3391 JUMPI INVALID JUMPDEST SWAP1 PUSH1 0x0 MSTORE PUSH1 0x20 PUSH1 0x0 KECCAK256 SWAP1 PUSH1 0x4 MUL ADD PUSH1 0x3 ADD DUP2 SWAP1 SSTORE POP PUSH1 0x0 PUSH2 0x33B1 DUP5 PUSH2 0x28A7 JUMP JUMPDEST PUSH1 0x5 DUP6 ADD SSTORE POP PUSH2 0x34C4 SWAP1 POP JUMP JUMPDEST PUSH1 0x40 DUP1 MLOAD PUSH1 0x80 DUP2 ADD DUP3 MSTORE PUSH1 0x1 PUSH1 0x1 PUSH1 0xA0 SHL SUB DUP6 DUP2 AND DUP1 DUP4 MSTORE DUP6 SLOAD PUSH1 0x20 DUP1 DUP6 ADD SWAP2 DUP3 MSTORE PUSH1 0x2 DUP9 ADD SLOAD DUP6 DUP8 ADD SWAP1 DUP2 MSTORE NUMBER PUSH1 0x60 DUP8 ADD SWAP1 DUP2 MSTORE PUSH1 0x59 DUP1 SLOAD PUSH1 0x1 DUP2 ADD DUP3 SSTORE PUSH1 0x0 DUP3 DUP2 MSTORE SWAP9 MLOAD PUSH32 0xD73956B9E00D8F8BC5E44F7184DF1387CDD652E7726B8CCDA3DB4859E02F31BF PUSH1 0x4 SWAP1 SWAP3 MUL SWAP2 DUP3 ADD DUP1 SLOAD PUSH1 0x1 PUSH1 0x1 PUSH1 0xA0 SHL SUB NOT AND SWAP2 SWAP1 SWAP10 AND OR SWAP1 SWAP8 SSTORE SWAP4 MLOAD PUSH32 0xD73956B9E00D8F8BC5E44F7184DF1387CDD652E7726B8CCDA3DB4859E02F31C0 DUP8 ADD SSTORE SWAP1 MLOAD PUSH32 0xD73956B9E00D8F8BC5E44F7184DF1387CDD652E7726B8CCDA3DB4859E02F31C1 DUP7 ADD SSTORE MLOAD PUSH32 0xD73956B9E00D8F8BC5E44F7184DF1387CDD652E7726B8CCDA3DB4859E02F31C2 SWAP1 SWAP5 ADD SWAP4 SWAP1 SWAP4 SSTORE SLOAD SWAP1 DUP4 MSTORE PUSH1 0x5A SWAP1 SWAP2 MSTORE SWAP2 SWAP1 KECCAK256 SSTORE JUMPDEST POP NUMBER PUSH1 0x3 SWAP1 SWAP2 ADD SSTORE POP JUMP JUMPDEST PUSH1 0x18 SLOAD PUSH4 0xFFFFFFFF PUSH1 0x1 PUSH1 0x20 SHL DUP3 DIV DUP2 AND SWAP2 AND DUP2 LT PUSH2 0x3500 JUMPI PUSH1 0x40 MLOAD PUSH3 0x461BCD PUSH1 0xE5 SHL DUP2 MSTORE PUSH1 0x4 ADD PUSH2 0xF25 SWAP1 PUSH2 0x5A8C JUMP JUMPDEST PUSH4 0xFFFFFFFF DUP2 AND PUSH2 0x353D JUMPI PUSH1 0xA SLOAD PUSH1 0x1 PUSH1 0x1 PUSH1 0xA0 SHL SUB DUP6 DUP2 AND SWAP2 AND EQ PUSH2 0x3538 JUMPI PUSH1 0x40 MLOAD PUSH3 0x461BCD PUSH1 0xE5 SHL DUP2 MSTORE PUSH1 0x4 ADD PUSH2 0xF25 SWAP1 PUSH2 0x5916 JUMP JUMPDEST PUSH2 0x35D9 JUMP JUMPDEST PUSH1 0xA DUP2 PUSH4 0xFFFFFFFF AND LT ISZERO PUSH2 0x3579 JUMPI PUSH1 0x47 SLOAD PUSH1 0x1 PUSH1 0x1 PUSH1 0xA0 SHL SUB DUP6 DUP2 AND SWAP2 AND EQ PUSH2 0x3538 JUMPI PUSH1 0x40 MLOAD PUSH3 0x461BCD PUSH1 0xE5 SHL DUP2 MSTORE PUSH1 0x4 ADD PUSH2 0xF25 SWAP1 PUSH2 0x56AD JUMP JUMPDEST PUSH1 0x1 PUSH1 0x1 PUSH1 0xA0 SHL SUB DUP6 AND PUSH1 0x0 SWAP1 DUP2 MSTORE PUSH1 0x49 PUSH1 0x20 MSTORE PUSH1 0x40 SWAP1 KECCAK256 PUSH1 0x5 ADD SLOAD ISZERO PUSH2 0x35D9 JUMPI PUSH1 0x1 PUSH1 0x1 PUSH1 0xA0 SHL SUB DUP6 DUP2 AND PUSH1 0x0 SWAP1 DUP2 MSTORE PUSH1 0x49 PUSH1 0x20 MSTORE PUSH1 0x40 SWAP1 KECCAK256 PUSH1 0xC ADD SLOAD DUP2 AND SWAP1 DUP6 AND EQ PUSH2 0x35D9 JUMPI PUSH1 0x40 MLOAD PUSH3 0x461BCD PUSH1 0xE5 SHL DUP2 MSTORE PUSH1 0x4 ADD PUSH2 0xF25 SWAP1 PUSH2 0x56E2 JUMP JUMPDEST PUSH1 0x1 PUSH1 0x1 PUSH1 0xA0 SHL SUB DUP6 AND PUSH1 0x0 SWAP1 DUP2 MSTORE PUSH1 0x49 PUSH1 0x20 MSTORE PUSH1 0x40 SWAP1 KECCAK256 PUSH1 0x5 ADD SLOAD DUP1 ISZERO PUSH2 0x3631 JUMPI PUSH2 0x2710 DUP5 LT ISZERO PUSH2 0x362C JUMPI PUSH1 0x8 SLOAD PUSH1 0x64 MUL DUP2 DUP6 SUB LT ISZERO PUSH2 0x362C JUMPI PUSH1 0x40 MLOAD PUSH3 0x461BCD PUSH1 0xE5 SHL DUP2 MSTORE PUSH1 0x4 ADD PUSH2 0xF25 SWAP1 PUSH2 0x5B31 JUMP JUMPDEST PUSH2 0x3656 JUMP JUMPDEST PUSH1 0x8 SLOAD PUSH1 0xC8 MUL DUP5 LT ISZERO PUSH2 0x3656 JUMPI PUSH1 0x40 MLOAD PUSH3 0x461BCD PUSH1 0xE5 SHL DUP2 MSTORE PUSH1 0x4 ADD PUSH2 0xF25 SWAP1 PUSH2 0x5B31 JUMP JUMPDEST PUSH1 0x0 PUSH2 0x3661 DUP6 PUSH2 0x1BF2 JUMP JUMPDEST SWAP1 POP DUP1 PUSH2 0x366D DUP9 PUSH2 0x1A9C JUMP JUMPDEST LT ISZERO PUSH2 0x368B JUMPI PUSH1 0x40 MLOAD PUSH3 0x461BCD PUSH1 0xE5 SHL DUP2 MSTORE PUSH1 0x4 ADD PUSH2 0xF25 SWAP1 PUSH2 0x58EE JUMP JUMPDEST PUSH1 0x7 SLOAD PUSH2 0x36A8 SWAP1 PUSH2 0x100 SWAP1 DIV PUSH1 0x1 PUSH1 0x1 PUSH1 0xA0 SHL SUB AND DUP9 ADDRESS DUP9 PUSH2 0x4C44 JUMP JUMPDEST PUSH2 0x36B2 DUP8 DUP3 PUSH2 0x2F67 JUMP JUMPDEST PUSH1 0x19 DUP1 SLOAD DUP3 ADD SWAP1 SSTORE PUSH1 0x1 PUSH1 0x1 PUSH1 0xA0 SHL SUB DUP1 DUP9 AND PUSH1 0x0 SWAP1 DUP2 MSTORE PUSH1 0x49 PUSH1 0x20 MSTORE PUSH1 0x40 DUP1 DUP3 KECCAK256 SWAP3 DUP10 AND DUP3 MSTORE SWAP1 KECCAK256 PUSH1 0x6 DUP3 ADD SLOAD PUSH2 0x3A42 JUMPI PUSH1 0x0 PUSH2 0x36EE PUSH2 0x4D2D JUMP JUMPDEST SWAP1 POP PUSH1 0x0 PUSH1 0x18 PUSH1 0x4 SWAP1 SLOAD SWAP1 PUSH2 0x100 EXP SWAP1 DIV PUSH4 0xFFFFFFFF AND PUSH4 0xFFFFFFFF AND PUSH1 0x1 EQ ISZERO PUSH2 0x3744 JUMPI POP PUSH1 0x1 DUP4 ADD DUP1 SLOAD PUSH1 0xFF PUSH1 0x30 SHL NOT AND SWAP1 SSTORE PUSH1 0x47 DUP1 SLOAD PUSH1 0x1 PUSH1 0x1 PUSH1 0xA0 SHL SUB NOT AND PUSH1 0x1 PUSH1 0x1 PUSH1 0xA0 SHL SUB DUP13 AND OR SWAP1 SSTORE DUP9 PUSH2 0x3872 JUMP JUMPDEST PUSH1 0x18 SLOAD PUSH1 0x5 PUSH1 0x1 PUSH1 0x40 SHL SWAP1 SWAP2 DIV PUSH2 0xFFFF AND LT ISZERO PUSH2 0x37B9 JUMPI POP PUSH1 0x1 DUP4 DUP2 ADD DUP1 SLOAD PUSH1 0xFF PUSH1 0x30 SHL NOT AND PUSH1 0x1 PUSH1 0x30 SHL OR SWAP1 SSTORE PUSH1 0x1 PUSH1 0x1 PUSH1 0xA0 SHL SUB DUP11 DUP2 AND PUSH1 0x0 SWAP1 DUP2 MSTORE PUSH1 0x49 PUSH1 0x20 SWAP1 DUP2 MSTORE PUSH1 0x40 DUP3 KECCAK256 PUSH1 0xE ADD DUP1 SLOAD SWAP5 DUP6 ADD DUP2 SSTORE DUP3 MSTORE SWAP1 KECCAK256 SWAP1 SWAP2 ADD DUP1 SLOAD PUSH1 0x1 PUSH1 0x1 PUSH1 0xA0 SHL SUB NOT AND SWAP2 DUP13 AND SWAP2 SWAP1 SWAP2 OR SWAP1 SSTORE DUP9 PUSH2 0x3872 JUMP JUMPDEST PUSH1 0x1 DUP5 ADD DUP1 SLOAD PUSH1 0xFF PUSH1 0x30 SHL NOT AND PUSH7 0x2000000000000 OR SWAP1 SSTORE PUSH1 0xD DUP4 ADD SLOAD PUSH1 0x3 PUSH1 0x1 PUSH1 0xA0 SHL SWAP1 SWAP2 DIV PUSH2 0xFFFF SWAP1 DUP2 AND DUP3 DUP2 DIV SWAP3 SWAP1 MOD SWAP1 DUP2 AND PUSH2 0x37FB JUMPI DUP12 SWAP3 POP PUSH2 0x382E JUMP JUMPDEST PUSH2 0x382B DUP6 PUSH1 0xE ADD DUP4 PUSH2 0xFFFF AND DUP2 SLOAD DUP2 LT PUSH2 0x3811 JUMPI INVALID JUMPDEST PUSH1 0x0 SWAP2 DUP3 MSTORE PUSH1 0x20 SWAP1 SWAP2 KECCAK256 ADD SLOAD PUSH1 0x1 PUSH1 0x1 PUSH1 0xA0 SHL SUB AND PUSH2 0x4E67 JUMP JUMPDEST SWAP3 POP JUMPDEST POP POP PUSH1 0x1 PUSH1 0x1 PUSH1 0xA0 SHL SUB DUP2 DUP2 AND PUSH1 0x0 SWAP1 DUP2 MSTORE PUSH1 0x49 PUSH1 0x20 SWAP1 DUP2 MSTORE PUSH1 0x40 DUP3 KECCAK256 PUSH1 0xE ADD DUP1 SLOAD PUSH1 0x1 DUP2 ADD DUP3 SSTORE SWAP1 DUP4 MSTORE SWAP2 KECCAK256 ADD DUP1 SLOAD PUSH1 0x1 PUSH1 0x1 PUSH1 0xA0 SHL SUB NOT AND SWAP2 DUP14 AND SWAP2 SWAP1 SWAP2 OR SWAP1 SSTORE JUMPDEST DUP3 PUSH1 0xD ADD PUSH1 0x14 DUP2 DUP2 SWAP1 SLOAD SWAP1 PUSH2 0x100 EXP SWAP1 DIV PUSH2 0xFFFF AND DUP1 SWAP3 SWAP2 SWAP1 PUSH1 0x1 ADD SWAP2 SWAP1 PUSH2 0x100 EXP DUP2 SLOAD DUP2 PUSH2 0xFFFF MUL NOT AND SWAP1 DUP4 PUSH2 0xFFFF AND MUL OR SWAP1 SSTORE POP POP DUP7 PUSH4 0x6034E8B ADD PUSH4 0xFFFFFFFF AND DUP5 PUSH1 0x0 ADD DUP2 SWAP1 SSTORE POP DUP10 DUP5 PUSH1 0xC ADD PUSH1 0x0 PUSH2 0x100 EXP DUP2 SLOAD DUP2 PUSH1 0x1 PUSH1 0x1 PUSH1 0xA0 SHL SUB MUL NOT AND SWAP1 DUP4 PUSH1 0x1 PUSH1 0x1 PUSH1 0xA0 SHL SUB AND MUL OR SWAP1 SSTORE POP DUP2 DUP5 PUSH1 0x1 ADD PUSH1 0x0 PUSH2 0x100 EXP DUP2 SLOAD DUP2 PUSH4 0xFFFFFFFF MUL NOT AND SWAP1 DUP4 PUSH4 0xFFFFFFFF AND MUL OR SWAP1 SSTORE POP PUSH1 0x18 PUSH1 0x8 SWAP1 SLOAD SWAP1 PUSH2 0x100 EXP SWAP1 DIV PUSH2 0xFFFF AND DUP5 PUSH1 0x1 ADD PUSH1 0x4 PUSH2 0x100 EXP DUP2 SLOAD DUP2 PUSH2 0xFFFF MUL NOT AND SWAP1 DUP4 PUSH2 0xFFFF AND MUL OR SWAP1 SSTORE POP DUP9 DUP5 PUSH1 0xA ADD DUP2 SWAP1 SSTORE POP PUSH1 0x0 DUP5 PUSH1 0x4 ADD PUSH1 0x0 PUSH2 0x100 EXP DUP2 SLOAD DUP2 PUSH1 0xFF MUL NOT AND SWAP1 DUP4 ISZERO ISZERO MUL OR SWAP1 SSTORE POP PUSH1 0x0 DUP5 PUSH1 0xB ADD DUP2 SWAP1 SSTORE POP DUP1 DUP5 PUSH1 0xD ADD PUSH1 0x0 PUSH2 0x100 EXP DUP2 SLOAD DUP2 PUSH1 0x1 PUSH1 0x1 PUSH1 0xA0 SHL SUB MUL NOT AND SWAP1 DUP4 PUSH1 0x1 PUSH1 0x1 PUSH1 0xA0 SHL SUB AND MUL OR SWAP1 SSTORE POP PUSH1 0x0 DUP5 PUSH1 0xD ADD PUSH1 0x14 PUSH2 0x100 EXP DUP2 SLOAD DUP2 PUSH2 0xFFFF MUL NOT AND SWAP1 DUP4 PUSH2 0xFFFF AND MUL OR SWAP1 SSTORE POP PUSH3 0x7AAE7 DUP3 PUSH4 0xFFFFFFFF AND GT ISZERO PUSH2 0x39F2 JUMPI PUSH4 0xFFFFFFFF DUP3 AND PUSH1 0x0 SWAP1 DUP2 MSTORE PUSH1 0x48 PUSH1 0x20 MSTORE PUSH1 0x40 SWAP1 KECCAK256 DUP1 SLOAD PUSH1 0x1 PUSH1 0x1 PUSH1 0xA0 SHL SUB NOT AND PUSH1 0x1 PUSH1 0x1 PUSH1 0xA0 SHL SUB DUP14 AND OR SWAP1 SSTORE JUMPDEST PUSH1 0x18 SLOAD PUSH1 0x40 MLOAD PUSH32 0x6932AC5F42401E77C40344F612FA5558D62470F6A92606E938A4743C566E6CE8 SWAP2 PUSH2 0x3A33 SWAP2 DUP15 SWAP2 PUSH1 0x1 PUSH1 0x20 SHL SWAP1 DIV PUSH4 0xFFFFFFFF AND SWAP1 PUSH2 0x549B JUMP JUMPDEST PUSH1 0x40 MLOAD DUP1 SWAP2 SUB SWAP1 LOG1 POP POP PUSH2 0x3AC2 JUMP JUMPDEST PUSH1 0x4 DUP3 ADD SLOAD PUSH1 0xFF AND DUP1 PUSH2 0x3A5A JUMPI POP DUP2 PUSH1 0x6 ADD SLOAD PUSH1 0x1E SLOAD GT JUMPDEST ISZERO PUSH2 0x3A72 JUMPI PUSH1 0x0 PUSH1 0x7 DUP4 ADD DUP2 SWAP1 SSTORE PUSH1 0x8 DUP4 ADD SSTORE PUSH2 0x3AB7 JUMP JUMPDEST PUSH1 0x0 DUP1 PUSH2 0x3A7E DUP12 PUSH2 0x1E7A JUMP JUMPDEST POP POP POP SWAP2 POP SWAP2 POP DUP2 ISZERO PUSH2 0x3A9E JUMPI PUSH1 0x0 PUSH1 0x7 DUP6 ADD DUP2 SWAP1 SSTORE PUSH1 0x8 DUP6 ADD SSTORE PUSH2 0x3AB4 JUMP JUMPDEST PUSH1 0x7 DUP5 ADD DUP2 SWAP1 SSTORE DUP1 ISZERO PUSH2 0x3AB4 JUMPI PUSH2 0x3AB4 DUP5 PUSH2 0x4EA8 JUMP JUMPDEST POP POP JUMPDEST PUSH1 0xA DUP3 ADD DUP1 SLOAD DUP9 ADD SWAP1 SSTORE JUMPDEST PUSH1 0x5 DUP3 ADD DUP8 SWAP1 SSTORE PUSH1 0x6 DUP3 ADD DUP7 SWAP1 SSTORE PUSH1 0x2 DUP3 ADD DUP1 SLOAD DUP9 ADD SWAP1 SSTORE PUSH1 0x1C DUP1 SLOAD DUP9 ADD SWAP1 SSTORE PUSH1 0x20 DUP1 SLOAD DUP9 ADD SWAP1 SSTORE TIMESTAMP PUSH1 0x1D SSTORE PUSH1 0xA DUP3 ADD SLOAD PUSH1 0x0 SWAP1 PUSH2 0x3AFF SWAP1 PUSH2 0x2E2B JUMP JUMPDEST SWAP1 POP PUSH2 0x3E8 PUSH1 0x4A PUSH1 0x1 DUP4 SUB PUSH1 0xFF AND DUP2 SLOAD DUP2 LT PUSH2 0x3B17 JUMPI INVALID JUMPDEST SWAP1 PUSH1 0x0 MSTORE PUSH1 0x20 PUSH1 0x0 KECCAK256 SWAP1 PUSH1 0x4 MUL ADD PUSH1 0x3 ADD SLOAD DUP5 PUSH1 0xA ADD SLOAD MUL DUP2 PUSH2 0x3B36 JUMPI INVALID JUMPDEST DIV PUSH1 0x9 DUP5 ADD SSTORE PUSH1 0x1 DUP4 ADD DUP1 SLOAD PUSH1 0xFF DUP1 DUP5 AND PUSH1 0x1 PUSH1 0x38 SHL MUL PUSH1 0xFF PUSH1 0x38 SHL NOT SWAP1 SWAP3 AND SWAP2 SWAP1 SWAP2 OR SWAP1 SWAP2 SSTORE PUSH1 0x4 DUP5 ADD SLOAD AND ISZERO PUSH2 0x3B75 JUMPI PUSH1 0x4 DUP4 ADD DUP1 SLOAD PUSH1 0xFF NOT AND SWAP1 SSTORE JUMPDEST PUSH1 0x4C DUP1 SLOAD PUSH2 0x3E8 PUSH1 0x12 DUP12 MUL DUP2 SWAP1 DIV SWAP1 SWAP2 ADD SWAP1 SWAP2 SSTORE PUSH1 0x4D DUP1 SLOAD PUSH1 0x20 DUP12 MUL DUP4 SWAP1 DIV ADD SWAP1 SSTORE PUSH1 0xB DUP1 SLOAD PUSH1 0x14 DUP12 MUL DUP4 SWAP1 DIV ADD SWAP1 SSTORE PUSH1 0xF DUP1 SLOAD DUP2 DUP12 MUL SWAP3 SWAP1 SWAP3 DIV SWAP2 DUP3 ADD SWAP1 SSTORE PUSH1 0x13 DUP1 SLOAD SWAP1 SWAP2 ADD SWAP1 SSTORE PUSH1 0x45 SLOAD PUSH1 0x24 EQ ISZERO PUSH2 0x3C30 JUMPI PUSH1 0x1 JUMPDEST PUSH1 0x45 SLOAD DUP2 LT ISZERO PUSH2 0x3C29 JUMPI PUSH1 0x21 PUSH1 0x1 DUP3 SUB PUSH1 0x24 DUP2 LT PUSH2 0x3BE6 JUMPI INVALID JUMPDEST ADD SLOAD PUSH1 0x1 PUSH1 0x1 PUSH1 0xA0 SHL SUB AND PUSH1 0x21 PUSH1 0x0 NOT DUP4 ADD PUSH1 0x24 DUP2 LT PUSH2 0x3C02 JUMPI INVALID JUMPDEST ADD DUP1 SLOAD PUSH1 0x1 PUSH1 0x1 PUSH1 0xA0 SHL SUB NOT AND PUSH1 0x1 PUSH1 0x1 PUSH1 0xA0 SHL SUB SWAP3 SWAP1 SWAP3 AND SWAP2 SWAP1 SWAP2 OR SWAP1 SSTORE PUSH1 0x1 ADD PUSH2 0x3BCC JUMP JUMPDEST POP PUSH1 0x23 PUSH1 0x45 SSTORE JUMPDEST DUP10 PUSH1 0x21 PUSH1 0x45 SLOAD PUSH1 0x24 DUP2 LT PUSH2 0x3C40 JUMPI INVALID JUMPDEST ADD DUP1 SLOAD PUSH1 0x1 PUSH1 0x1 PUSH1 0xA0 SHL SUB NOT AND PUSH1 0x1 PUSH1 0x1 PUSH1 0xA0 SHL SUB SWAP3 SWAP1 SWAP3 AND SWAP2 SWAP1 SWAP2 OR SWAP1 SSTORE PUSH1 0x45 DUP1 SLOAD PUSH1 0x1 ADD SWAP1 SSTORE PUSH1 0x2 PUSH1 0x1 DUP5 ADD SLOAD PUSH1 0x1 PUSH1 0x30 SHL SWAP1 DIV PUSH1 0xFF AND PUSH1 0x2 DUP2 GT ISZERO PUSH2 0x3C84 JUMPI INVALID JUMPDEST EQ ISZERO PUSH2 0x3CEB JUMPI PUSH1 0x0 PUSH1 0x1 DUP1 DUP5 ADD SLOAD PUSH1 0x1 PUSH1 0x30 SHL SWAP1 DIV PUSH1 0xFF AND PUSH1 0x2 DUP2 GT ISZERO PUSH2 0x3CA7 JUMPI INVALID JUMPDEST EQ ISZERO PUSH2 0x3CB4 JUMPI POP DUP2 PUSH2 0x3CDA JUMP JUMPDEST PUSH1 0x0 PUSH2 0x3CBF DUP12 PUSH2 0x50D8 JUMP JUMPDEST PUSH1 0x1 PUSH1 0x1 PUSH1 0xA0 SHL SUB AND PUSH1 0x0 SWAP1 DUP2 MSTORE PUSH1 0x49 PUSH1 0x20 MSTORE PUSH1 0x40 SWAP1 KECCAK256 SWAP2 POP POP JUMPDEST PUSH1 0xB ADD DUP1 SLOAD PUSH2 0x3E8 PUSH1 0x28 DUP12 MUL DIV ADD SWAP1 SSTORE JUMPDEST PUSH2 0x3CF3 PUSH2 0xFE8 JUMP JUMPDEST PUSH2 0x3CFB PUSH2 0x2D41 JUMP JUMPDEST POP POP POP POP POP POP POP POP POP POP JUMP JUMPDEST PUSH1 0x1 PUSH1 0x1 PUSH1 0xA0 SHL SUB DUP3 AND PUSH1 0x0 SWAP1 DUP2 MSTORE PUSH1 0x49 PUSH1 0x20 MSTORE PUSH1 0x40 DUP2 KECCAK256 DUP2 SWAP1 DUP2 DUP1 DUP1 JUMPDEST PUSH1 0xE DUP5 ADD SLOAD DUP2 LT ISZERO PUSH2 0x3DD2 JUMPI PUSH1 0x0 DUP5 PUSH1 0xE ADD DUP3 DUP2 SLOAD DUP2 LT PUSH2 0x3D42 JUMPI INVALID JUMPDEST PUSH1 0x0 SWAP2 DUP3 MSTORE PUSH1 0x20 DUP3 KECCAK256 ADD SLOAD PUSH1 0xE DUP8 ADD DUP1 SLOAD PUSH1 0x1 PUSH1 0x1 PUSH1 0xA0 SHL SUB SWAP1 SWAP3 AND SWAP4 POP PUSH1 0x49 SWAP2 DUP4 SWAP2 SWAP1 DUP7 SWAP1 DUP2 LT PUSH2 0x3D70 JUMPI INVALID JUMPDEST PUSH1 0x0 SWAP2 DUP3 MSTORE PUSH1 0x20 DUP1 DUP4 KECCAK256 SWAP1 SWAP2 ADD SLOAD PUSH1 0x1 PUSH1 0x1 PUSH1 0xA0 SHL SUB AND DUP4 MSTORE DUP3 ADD SWAP3 SWAP1 SWAP3 MSTORE PUSH1 0x40 ADD SWAP1 KECCAK256 SWAP1 POP PUSH1 0x13 DUP10 LT ISZERO PUSH2 0x3DBA JUMPI PUSH1 0x0 DUP1 PUSH2 0x3DAF DUP5 DUP13 PUSH1 0x1 ADD PUSH2 0x3D07 JUMP JUMPDEST SWAP8 ADD SWAP7 SWAP6 SWAP1 SWAP6 ADD SWAP5 POP POP JUMPDEST PUSH1 0x2 ADD SLOAD PUSH1 0x1 SWAP5 DUP6 ADD SWAP5 SWAP4 ADD SWAP3 SWAP2 SWAP1 SWAP2 ADD SWAP1 POP PUSH2 0x3D25 JUMP JUMPDEST POP SWAP1 SWAP7 SWAP1 SWAP6 POP SWAP4 POP POP POP POP JUMP JUMPDEST PUSH1 0x0 DUP3 PUSH1 0x6 ADD SLOAD DUP3 LT ISZERO PUSH2 0x3DF5 JUMPI DUP3 PUSH1 0x6 ADD SLOAD SWAP2 POP JUMPDEST PUSH1 0x1F SLOAD DUP3 LT ISZERO PUSH2 0x3E07 JUMPI POP PUSH1 0x0 PUSH2 0x9D5 JUMP JUMPDEST PUSH1 0x0 PUSH1 0x3C DUP4 TIMESTAMP SUB DUP2 PUSH2 0x3E15 JUMPI INVALID JUMPDEST DIV SWAP1 POP PUSH1 0x1F SLOAD DUP4 LT PUSH2 0x3E7D JUMPI PUSH3 0x15F900 DUP2 PUSH1 0x4A PUSH1 0x1 DUP8 PUSH1 0x1 ADD PUSH1 0x7 SWAP1 SLOAD SWAP1 PUSH2 0x100 EXP SWAP1 DIV PUSH1 0xFF AND SUB PUSH1 0xFF AND DUP2 SLOAD DUP2 LT PUSH2 0x3E4A JUMPI INVALID JUMPDEST PUSH1 0x0 SWAP2 DUP3 MSTORE PUSH1 0x20 SWAP1 SWAP2 KECCAK256 PUSH1 0x2 PUSH1 0x4 SWAP1 SWAP3 MUL ADD ADD SLOAD PUSH1 0xA DUP8 ADD SLOAD PUSH1 0xFF SWAP1 SWAP2 AND MUL MUL DUP2 PUSH2 0x3E71 JUMPI INVALID JUMPDEST DIV DUP5 PUSH1 0x7 ADD SLOAD ADD PUSH2 0x3E80 JUMP JUMPDEST PUSH1 0x0 JUMPDEST SWAP5 SWAP4 POP POP POP POP JUMP JUMPDEST PUSH2 0x3E90 PUSH2 0x51A2 JUMP JUMPDEST PUSH1 0x1 PUSH1 0x1 PUSH1 0xA0 SHL SUB DUP6 AND PUSH1 0x0 SWAP1 DUP2 MSTORE PUSH1 0x49 PUSH1 0x20 MSTORE PUSH1 0x40 DUP2 KECCAK256 SWAP1 DUP5 ISZERO ISZERO DUP1 PUSH2 0x3EC4 JUMPI POP PUSH1 0x47 SLOAD PUSH1 0x1 PUSH1 0x1 PUSH1 0xA0 SHL SUB DUP9 DUP2 AND SWAP2 AND EQ JUMPDEST PUSH2 0x3EE5 JUMPI PUSH1 0xD DUP3 ADD SLOAD PUSH1 0x3 SWAP1 PUSH1 0x1 PUSH1 0xA0 SHL SWAP1 DIV PUSH2 0xFFFF AND DIV PUSH2 0xFFFF AND PUSH2 0x3EEB JUMP JUMPDEST PUSH1 0xE DUP3 ADD SLOAD JUMPDEST SWAP1 POP PUSH1 0x0 DUP1 PUSH1 0x0 DUP1 PUSH1 0x0 JUMPDEST DUP6 DUP2 LT ISZERO PUSH2 0x417E JUMPI PUSH1 0x0 DUP8 PUSH1 0xE ADD DUP3 DUP2 SLOAD DUP2 LT PUSH2 0x3F0F JUMPI INVALID JUMPDEST PUSH1 0x0 SWAP2 DUP3 MSTORE PUSH1 0x20 DUP3 KECCAK256 ADD SLOAD PUSH1 0xE DUP11 ADD DUP1 SLOAD PUSH1 0x1 PUSH1 0x1 PUSH1 0xA0 SHL SUB SWAP1 SWAP3 AND SWAP4 POP PUSH1 0x49 SWAP2 DUP4 SWAP2 SWAP1 DUP7 SWAP1 DUP2 LT PUSH2 0x3F3D JUMPI INVALID JUMPDEST PUSH1 0x0 SWAP2 DUP3 MSTORE PUSH1 0x20 DUP1 DUP4 KECCAK256 SWAP1 SWAP2 ADD SLOAD PUSH1 0x1 PUSH1 0x1 PUSH1 0xA0 SHL SUB AND DUP4 MSTORE DUP3 ADD SWAP3 SWAP1 SWAP3 MSTORE PUSH1 0x40 ADD SWAP1 KECCAK256 PUSH1 0x4 DUP2 ADD SLOAD SWAP1 SWAP2 POP PUSH1 0xFF AND PUSH2 0x4174 JUMPI PUSH2 0x3F7A DUP2 DUP15 PUSH2 0x3DDF JUMP JUMPDEST PUSH1 0x1 DUP11 DUP2 ADD SLOAD SWAP2 SWAP9 POP PUSH1 0x1 PUSH1 0x38 SHL SWAP1 SWAP2 DIV PUSH1 0xFF AND LT DUP1 ISZERO SWAP1 PUSH2 0x3F9A JUMPI POP DUP12 ISZERO JUMPDEST ISZERO PUSH2 0x3FF9 JUMPI PUSH2 0x3E8 PUSH1 0x46 PUSH1 0x0 DUP2 SLOAD DUP2 LT PUSH2 0x3FB0 JUMPI INVALID JUMPDEST SWAP1 PUSH1 0x0 MSTORE PUSH1 0x20 PUSH1 0x0 KECCAK256 ADD PUSH1 0x2 DUP2 SLOAD DUP2 LT PUSH2 0x3FC6 JUMPI INVALID JUMPDEST PUSH1 0x0 SWAP2 DUP3 MSTORE PUSH1 0x20 SWAP2 DUP3 SWAP1 KECCAK256 SWAP2 DUP2 DIV SWAP1 SWAP2 ADD SLOAD PUSH1 0xFF PUSH1 0x1F SWAP1 SWAP3 AND PUSH2 0x100 EXP SWAP1 DIV AND DUP9 MUL DUP2 PUSH2 0x3FEF JUMPI INVALID JUMPDEST DIV DUP6 ADD SWAP5 POP PUSH2 0x4122 JUMP JUMPDEST PUSH1 0x1 DUP10 DUP2 ADD SLOAD PUSH1 0x1 PUSH1 0x38 SHL SWAP1 DIV PUSH1 0xFF AND LT DUP1 ISZERO SWAP1 PUSH2 0x4017 JUMPI POP DUP12 PUSH1 0x1 EQ JUMPDEST ISZERO PUSH2 0x402D JUMPI PUSH2 0x3E8 PUSH1 0x46 PUSH1 0x1 DUP2 SLOAD DUP2 LT PUSH2 0x3FB0 JUMPI INVALID JUMPDEST PUSH1 0x1 DUP10 ADD SLOAD PUSH1 0x2 PUSH1 0x1 PUSH1 0x38 SHL SWAP1 SWAP2 DIV PUSH1 0xFF AND LT DUP1 ISZERO SWAP1 PUSH2 0x404E JUMPI POP PUSH1 0x2 DUP13 LT ISZERO JUMPDEST DUP1 ISZERO PUSH2 0x405B JUMPI POP PUSH1 0x6 DUP13 GT ISZERO JUMPDEST ISZERO PUSH2 0x4071 JUMPI PUSH2 0x3E8 PUSH1 0x46 PUSH1 0x2 DUP2 SLOAD DUP2 LT PUSH2 0x3FB0 JUMPI INVALID JUMPDEST PUSH1 0x1 DUP10 ADD SLOAD PUSH1 0x3 PUSH1 0x1 PUSH1 0x38 SHL SWAP1 SWAP2 DIV PUSH1 0xFF AND LT DUP1 ISZERO SWAP1 PUSH2 0x4092 JUMPI POP PUSH1 0x7 DUP13 LT ISZERO JUMPDEST DUP1 ISZERO PUSH2 0x409F JUMPI POP PUSH1 0xF DUP13 GT ISZERO JUMPDEST ISZERO PUSH2 0x40B5 JUMPI PUSH2 0x3E8 PUSH1 0x46 PUSH1 0x3 DUP2 SLOAD DUP2 LT PUSH2 0x3FB0 JUMPI INVALID JUMPDEST PUSH1 0x1 DUP10 ADD SLOAD PUSH1 0x4 PUSH1 0x1 PUSH1 0x38 SHL SWAP1 SWAP2 DIV PUSH1 0xFF AND LT PUSH2 0x4122 JUMPI PUSH2 0x3E8 PUSH1 0x46 PUSH1 0x4 DUP2 SLOAD DUP2 LT PUSH2 0x40DD JUMPI INVALID JUMPDEST SWAP1 PUSH1 0x0 MSTORE PUSH1 0x20 PUSH1 0x0 KECCAK256 ADD PUSH1 0x2 DUP2 SLOAD DUP2 LT PUSH2 0x40F3 JUMPI INVALID JUMPDEST PUSH1 0x0 SWAP2 DUP3 MSTORE PUSH1 0x20 SWAP2 DUP3 SWAP1 KECCAK256 SWAP2 DUP2 DIV SWAP1 SWAP2 ADD SLOAD PUSH1 0xFF PUSH1 0x1F SWAP1 SWAP3 AND PUSH2 0x100 EXP SWAP1 DIV AND DUP9 MUL DUP2 PUSH2 0x411C JUMPI INVALID JUMPDEST DIV DUP6 ADD SWAP5 POP JUMPDEST PUSH1 0x1 DUP12 SUB DUP13 LT ISZERO PUSH2 0x4163 JUMPI PUSH2 0x4135 PUSH2 0x51A2 JUMP JUMPDEST PUSH2 0x4144 DUP4 DUP16 DUP16 PUSH1 0x1 ADD DUP16 PUSH2 0x3E88 JUMP JUMPDEST SWAP1 POP DUP1 PUSH1 0x0 ADD MLOAD DUP6 ADD SWAP5 POP DUP1 PUSH1 0x20 ADD MLOAD DUP8 ADD SWAP7 POP DUP1 PUSH1 0x40 ADD MLOAD DUP7 ADD SWAP6 POP POP JUMPDEST PUSH1 0x2 DUP2 ADD SLOAD SWAP6 SWAP1 SWAP6 ADD SWAP5 PUSH1 0x1 SWAP1 SWAP4 ADD SWAP3 JUMPDEST POP POP PUSH1 0x1 ADD PUSH2 0x3EF6 JUMP JUMPDEST POP PUSH1 0x40 DUP1 MLOAD PUSH1 0x60 DUP2 ADD DUP3 MSTORE SWAP2 DUP3 MSTORE PUSH1 0x20 DUP3 ADD SWAP4 SWAP1 SWAP4 MSTORE SWAP2 DUP3 ADD MSTORE SWAP9 SWAP8 POP POP POP POP POP POP POP POP JUMP JUMPDEST PUSH1 0x0 PUSH1 0x17 SLOAD PUSH1 0x9 SLOAD DUP4 MUL DUP2 PUSH2 0x41B5 JUMPI INVALID JUMPDEST PUSH1 0x53 SLOAD PUSH1 0x7 SLOAD SWAP3 SWAP1 SWAP2 DIV SWAP3 POP DUP3 SWAP2 PUSH1 0x0 SWAP2 SWAP1 PUSH2 0x41E1 SWAP1 PUSH2 0x100 SWAP1 DIV PUSH1 0x1 PUSH1 0x1 PUSH1 0xA0 SHL SUB AND DUP8 ADDRESS DUP9 PUSH2 0x4C44 JUMP JUMPDEST PUSH1 0x0 JUMPDEST PUSH1 0x52 SLOAD DUP2 LT ISZERO PUSH2 0x4392 JUMPI PUSH1 0x0 PUSH1 0x52 DUP3 DUP2 SLOAD DUP2 LT PUSH2 0x41FD JUMPI INVALID JUMPDEST SWAP1 PUSH1 0x0 MSTORE PUSH1 0x20 PUSH1 0x0 KECCAK256 SWAP1 PUSH1 0x4 MUL ADD SWAP1 POP DUP5 DUP2 PUSH1 0x3 ADD SLOAD LT PUSH2 0x42D4 JUMPI PUSH1 0x0 PUSH1 0x9 SLOAD PUSH2 0x3E8 MUL PUSH1 0x17 SLOAD DUP8 MUL PUSH2 0x3E6 MUL DUP2 PUSH2 0x4231 JUMPI INVALID JUMPDEST PUSH1 0x7 SLOAD PUSH1 0x1 DUP6 ADD SLOAD SWAP3 SWAP1 SWAP2 DIV SWAP3 POP PUSH2 0x425B SWAP2 PUSH1 0x1 PUSH1 0x1 PUSH1 0xA0 SHL SUB PUSH2 0x100 SWAP1 SWAP3 DIV DUP3 AND SWAP2 AND DUP4 PUSH2 0x2E79 JUMP JUMPDEST PUSH1 0x40 DUP1 MLOAD PUSH1 0x80 DUP2 ADD DUP3 MSTORE PUSH2 0x2711 DUP7 ADD DUP2 MSTORE PUSH1 0x0 PUSH1 0x20 DUP3 ADD DUP2 SWAP1 MSTORE SWAP2 DUP2 ADD DUP9 SWAP1 MSTORE TIMESTAMP PUSH1 0x60 DUP3 ADD MSTORE PUSH1 0x53 DUP1 SLOAD PUSH1 0x1 DUP2 DUP2 ADD DUP4 SSTORE SWAP2 SWAP1 SWAP4 MSTORE SWAP1 SWAP6 ADD SWAP5 PUSH2 0x42B0 SWAP2 PUSH1 0x0 DUP1 MLOAD PUSH1 0x20 PUSH2 0x5CF5 DUP4 CODECOPY DUP2 MLOAD SWAP2 MSTORE ADD SWAP1 PUSH1 0x4 PUSH2 0x51F4 JUMP JUMPDEST POP PUSH1 0x3 DUP3 ADD DUP1 SLOAD SWAP7 SWAP1 SWAP7 SUB SWAP6 DUP7 SWAP1 SSTORE PUSH1 0x0 SWAP6 PUSH2 0x42CD JUMPI PUSH1 0x1 SWAP1 SWAP5 ADD SWAP4 JUMPDEST POP POP PUSH2 0x4392 JUMP JUMPDEST PUSH1 0x0 PUSH1 0x9 SLOAD PUSH2 0x3E8 MUL PUSH1 0x17 SLOAD DUP4 PUSH1 0x3 ADD SLOAD MUL PUSH2 0x3E6 MUL DUP2 PUSH2 0x42F1 JUMPI INVALID JUMPDEST PUSH1 0x7 SLOAD PUSH1 0x1 DUP6 ADD SLOAD SWAP3 SWAP1 SWAP2 DIV SWAP3 POP PUSH2 0x431B SWAP2 PUSH1 0x1 PUSH1 0x1 PUSH1 0xA0 SHL SUB PUSH2 0x100 SWAP1 SWAP3 DIV DUP3 AND SWAP2 AND DUP4 PUSH2 0x2E79 JUMP JUMPDEST PUSH1 0x40 DUP1 MLOAD PUSH1 0x80 DUP2 ADD DUP3 MSTORE PUSH2 0x2711 DUP7 ADD DUP2 MSTORE PUSH1 0x0 PUSH1 0x20 DUP3 ADD DUP2 SWAP1 MSTORE PUSH1 0x3 DUP6 ADD SLOAD SWAP3 DUP3 ADD SWAP3 SWAP1 SWAP3 MSTORE TIMESTAMP PUSH1 0x60 DUP3 ADD MSTORE PUSH1 0x53 DUP1 SLOAD PUSH1 0x1 DUP2 DUP2 ADD DUP4 SSTORE SWAP2 SWAP1 SWAP4 MSTORE SWAP1 SWAP6 ADD SWAP5 PUSH2 0x4376 SWAP2 PUSH1 0x0 DUP1 MLOAD PUSH1 0x20 PUSH2 0x5CF5 DUP4 CODECOPY DUP2 MLOAD SWAP2 MSTORE ADD SWAP1 PUSH1 0x4 PUSH2 0x51F4 JUMP JUMPDEST POP POP PUSH1 0x3 ADD DUP1 SLOAD PUSH1 0x0 SWAP1 SWAP2 SSTORE SWAP1 SWAP4 SUB SWAP3 PUSH1 0x1 SWAP3 DUP4 ADD SWAP3 ADD PUSH2 0x41E4 JUMP JUMPDEST POP DUP2 ISZERO PUSH2 0x4504 JUMPI DUP2 JUMPDEST PUSH1 0x52 SLOAD DUP2 LT ISZERO PUSH2 0x44A8 JUMPI PUSH1 0x52 DUP2 DUP2 SLOAD DUP2 LT PUSH2 0x43B2 JUMPI INVALID JUMPDEST SWAP1 PUSH1 0x0 MSTORE PUSH1 0x20 PUSH1 0x0 KECCAK256 SWAP1 PUSH1 0x4 MUL ADD PUSH1 0x1 ADD PUSH1 0x0 SWAP1 SLOAD SWAP1 PUSH2 0x100 EXP SWAP1 DIV PUSH1 0x1 PUSH1 0x1 PUSH1 0xA0 SHL SUB AND PUSH1 0x52 DUP5 DUP4 SUB DUP2 SLOAD DUP2 LT PUSH2 0x43E6 JUMPI INVALID JUMPDEST SWAP1 PUSH1 0x0 MSTORE PUSH1 0x20 PUSH1 0x0 KECCAK256 SWAP1 PUSH1 0x4 MUL ADD PUSH1 0x1 ADD PUSH1 0x0 PUSH2 0x100 EXP DUP2 SLOAD DUP2 PUSH1 0x1 PUSH1 0x1 PUSH1 0xA0 SHL SUB MUL NOT AND SWAP1 DUP4 PUSH1 0x1 PUSH1 0x1 PUSH1 0xA0 SHL SUB AND MUL OR SWAP1 SSTORE POP PUSH1 0x52 DUP2 DUP2 SLOAD DUP2 LT PUSH2 0x4428 JUMPI INVALID JUMPDEST SWAP1 PUSH1 0x0 MSTORE PUSH1 0x20 PUSH1 0x0 KECCAK256 SWAP1 PUSH1 0x4 MUL ADD PUSH1 0x2 ADD SLOAD PUSH1 0x52 DUP5 DUP4 SUB DUP2 SLOAD DUP2 LT PUSH2 0x4449 JUMPI INVALID JUMPDEST SWAP1 PUSH1 0x0 MSTORE PUSH1 0x20 PUSH1 0x0 KECCAK256 SWAP1 PUSH1 0x4 MUL ADD PUSH1 0x2 ADD DUP2 SWAP1 SSTORE POP PUSH1 0x52 DUP2 DUP2 SLOAD DUP2 LT PUSH2 0x446B JUMPI INVALID JUMPDEST SWAP1 PUSH1 0x0 MSTORE PUSH1 0x20 PUSH1 0x0 KECCAK256 SWAP1 PUSH1 0x4 MUL ADD PUSH1 0x3 ADD SLOAD PUSH1 0x52 DUP5 DUP4 SUB DUP2 SLOAD DUP2 LT PUSH2 0x448C JUMPI INVALID JUMPDEST PUSH1 0x0 SWAP2 DUP3 MSTORE PUSH1 0x20 SWAP1 SWAP2 KECCAK256 PUSH1 0x3 PUSH1 0x4 SWAP1 SWAP3 MUL ADD ADD SSTORE PUSH1 0x1 ADD PUSH2 0x439B JUMP JUMPDEST POP PUSH1 0x0 JUMPDEST DUP3 DUP2 LT ISZERO PUSH2 0x4502 JUMPI PUSH1 0x52 DUP1 SLOAD DUP1 PUSH2 0x44BF JUMPI INVALID JUMPDEST PUSH1 0x0 DUP3 DUP2 MSTORE PUSH1 0x20 DUP2 KECCAK256 PUSH1 0x4 PUSH1 0x0 NOT SWAP1 SWAP4 ADD SWAP3 DUP4 MUL ADD DUP2 DUP2 SSTORE PUSH1 0x1 DUP2 DUP2 ADD DUP1 SLOAD PUSH1 0x1 PUSH1 0x1 PUSH1 0xA0 SHL SUB NOT AND SWAP1 SSTORE PUSH1 0x2 DUP3 ADD DUP4 SWAP1 SSTORE PUSH1 0x3 SWAP1 SWAP2 ADD SWAP2 SWAP1 SWAP2 SSTORE SWAP2 SSTORE ADD PUSH2 0x44AC JUMP JUMPDEST POP JUMPDEST DUP3 ISZERO PUSH2 0x464D JUMPI PUSH1 0x0 PUSH1 0x9 SLOAD PUSH1 0x17 SLOAD DUP6 MUL DUP2 PUSH2 0x451B JUMPI INVALID JUMPDEST PUSH1 0x40 DUP1 MLOAD PUSH1 0x80 DUP2 ADD DUP3 MSTORE TIMESTAMP DUP2 MSTORE PUSH1 0x1 PUSH1 0x1 PUSH1 0xA0 SHL SUB DUP12 DUP2 AND PUSH1 0x20 DUP4 ADD SWAP1 DUP2 MSTORE DUP3 DUP5 ADD DUP13 DUP2 MSTORE SWAP6 SWAP1 SWAP5 DIV PUSH1 0x60 DUP4 ADD DUP2 DUP2 MSTORE PUSH1 0x51 DUP1 SLOAD PUSH1 0x1 DUP2 ADD DUP3 SSTORE PUSH1 0x0 SWAP2 SWAP1 SWAP2 MSTORE SWAP4 MLOAD PUSH32 0x994A4B4EDDB300691EE19901712848B1114BAD8A1A4AE195E5ABE0EC38021B94 PUSH1 0x4 SWAP1 SWAP6 MUL SWAP5 DUP6 ADD SSTORE SWAP5 MLOAD PUSH32 0x994A4B4EDDB300691EE19901712848B1114BAD8A1A4AE195E5ABE0EC38021B95 DUP5 ADD DUP1 SLOAD PUSH1 0x1 PUSH1 0x1 PUSH1 0xA0 SHL SUB NOT AND SWAP2 SWAP1 SWAP4 AND OR SWAP1 SWAP2 SSTORE SWAP4 MLOAD PUSH32 0x994A4B4EDDB300691EE19901712848B1114BAD8A1A4AE195E5ABE0EC38021B96 DUP3 ADD SSTORE SWAP2 MLOAD PUSH32 0x994A4B4EDDB300691EE19901712848B1114BAD8A1A4AE195E5ABE0EC38021B97 SWAP1 SWAP3 ADD SWAP2 SWAP1 SWAP2 SSTORE MLOAD SWAP1 SWAP2 POP PUSH32 0x2E63B61ED93A328967F80B447BC296CC3344B0B4CF419C417E252DD66AF4C762 SWAP1 PUSH2 0x4643 SWAP1 DUP10 SWAP1 DUP5 SWAP1 PUSH2 0x5482 JUMP JUMPDEST PUSH1 0x40 MLOAD DUP1 SWAP2 SUB SWAP1 LOG1 POP JUMPDEST DUP3 DUP5 SUB ISZERO PUSH2 0x174C JUMPI PUSH2 0x174C ADDRESS DUP8 DUP6 DUP8 SUB PUSH2 0x295F JUMP JUMPDEST PUSH1 0x0 PUSH1 0x9 SLOAD PUSH1 0x17 SLOAD DUP4 MUL DUP2 PUSH2 0x4673 JUMPI INVALID JUMPDEST PUSH1 0x53 SLOAD SWAP2 SWAP1 DIV SWAP2 POP DUP2 SWAP1 PUSH1 0x0 SWAP1 PUSH2 0x468B DUP7 ADDRESS DUP8 PUSH2 0x295F JUMP JUMPDEST PUSH1 0x0 JUMPDEST PUSH1 0x51 SLOAD DUP2 LT ISZERO PUSH2 0x4812 JUMPI PUSH1 0x0 PUSH1 0x51 DUP3 DUP2 SLOAD DUP2 LT PUSH2 0x46A7 JUMPI INVALID JUMPDEST SWAP1 PUSH1 0x0 MSTORE PUSH1 0x20 PUSH1 0x0 KECCAK256 SWAP1 PUSH1 0x4 MUL ADD SWAP1 POP DUP5 DUP2 PUSH1 0x3 ADD SLOAD LT PUSH2 0x476C JUMPI PUSH1 0x0 PUSH1 0x17 SLOAD PUSH1 0x9 SLOAD DUP8 MUL DUP2 PUSH2 0x46D3 JUMPI INVALID JUMPDEST PUSH1 0x1 DUP5 ADD SLOAD SWAP2 SWAP1 DIV SWAP2 POP PUSH2 0x46F2 SWAP1 ADDRESS SWAP1 PUSH1 0x1 PUSH1 0x1 PUSH1 0xA0 SHL SUB AND DUP4 PUSH2 0x295F JUMP JUMPDEST PUSH1 0x40 DUP1 MLOAD PUSH1 0x80 DUP2 ADD DUP3 MSTORE PUSH2 0x2711 DUP7 ADD DUP2 MSTORE PUSH1 0x1 PUSH1 0x20 DUP3 ADD DUP2 SWAP1 MSTORE SWAP2 DUP2 ADD DUP4 SWAP1 MSTORE TIMESTAMP PUSH1 0x60 DUP3 ADD MSTORE PUSH1 0x53 DUP1 SLOAD DUP1 DUP5 ADD DUP3 SSTORE PUSH1 0x0 SWAP2 SWAP1 SWAP2 MSTORE SWAP2 SWAP1 SWAP6 ADD SWAP5 PUSH2 0x4748 SWAP2 PUSH1 0x0 DUP1 MLOAD PUSH1 0x20 PUSH2 0x5CF5 DUP4 CODECOPY DUP2 MLOAD SWAP2 MSTORE ADD SWAP1 PUSH1 0x4 PUSH2 0x51F4 JUMP JUMPDEST POP PUSH1 0x3 DUP3 ADD DUP1 SLOAD SWAP7 SWAP1 SWAP7 SUB SWAP6 DUP7 SWAP1 SSTORE PUSH1 0x0 SWAP6 PUSH2 0x4765 JUMPI PUSH1 0x1 SWAP1 SWAP5 ADD SWAP4 JUMPDEST POP POP PUSH2 0x4812 JUMP JUMPDEST PUSH1 0x0 PUSH1 0x17 SLOAD PUSH1 0x9 SLOAD DUP4 PUSH1 0x3 ADD SLOAD MUL DUP2 PUSH2 0x4781 JUMPI INVALID JUMPDEST PUSH1 0x1 DUP5 ADD SLOAD SWAP2 SWAP1 DIV SWAP2 POP PUSH2 0x47A0 SWAP1 ADDRESS SWAP1 PUSH1 0x1 PUSH1 0x1 PUSH1 0xA0 SHL SUB AND DUP4 PUSH2 0x295F JUMP JUMPDEST PUSH1 0x40 DUP1 MLOAD PUSH1 0x80 DUP2 ADD DUP3 MSTORE PUSH2 0x2711 DUP7 ADD DUP2 MSTORE PUSH1 0x1 PUSH1 0x20 DUP3 ADD DUP2 SWAP1 MSTORE SWAP2 DUP2 ADD DUP4 SWAP1 MSTORE TIMESTAMP PUSH1 0x60 DUP3 ADD MSTORE PUSH1 0x53 DUP1 SLOAD DUP1 DUP5 ADD DUP3 SSTORE PUSH1 0x0 SWAP2 SWAP1 SWAP2 MSTORE SWAP2 SWAP1 SWAP6 ADD SWAP5 PUSH2 0x47F6 SWAP2 PUSH1 0x0 DUP1 MLOAD PUSH1 0x20 PUSH2 0x5CF5 DUP4 CODECOPY DUP2 MLOAD SWAP2 MSTORE ADD SWAP1 PUSH1 0x4 PUSH2 0x51F4 JUMP JUMPDEST POP POP PUSH1 0x3 ADD DUP1 SLOAD PUSH1 0x0 SWAP1 SWAP2 SSTORE SWAP1 SWAP4 SUB SWAP3 PUSH1 0x1 SWAP3 DUP4 ADD SWAP3 ADD PUSH2 0x468E JUMP JUMPDEST POP DUP2 ISZERO PUSH2 0x4984 JUMPI DUP2 JUMPDEST PUSH1 0x51 SLOAD DUP2 LT ISZERO PUSH2 0x4928 JUMPI PUSH1 0x51 DUP2 DUP2 SLOAD DUP2 LT PUSH2 0x4832 JUMPI INVALID JUMPDEST SWAP1 PUSH1 0x0 MSTORE PUSH1 0x20 PUSH1 0x0 KECCAK256 SWAP1 PUSH1 0x4 MUL ADD PUSH1 0x1 ADD PUSH1 0x0 SWAP1 SLOAD SWAP1 PUSH2 0x100 EXP SWAP1 DIV PUSH1 0x1 PUSH1 0x1 PUSH1 0xA0 SHL SUB AND PUSH1 0x51 DUP5 DUP4 SUB DUP2 SLOAD DUP2 LT PUSH2 0x4866 JUMPI INVALID JUMPDEST SWAP1 PUSH1 0x0 MSTORE PUSH1 0x20 PUSH1 0x0 KECCAK256 SWAP1 PUSH1 0x4 MUL ADD PUSH1 0x1 ADD PUSH1 0x0 PUSH2 0x100 EXP DUP2 SLOAD DUP2 PUSH1 0x1 PUSH1 0x1 PUSH1 0xA0 SHL SUB MUL NOT AND SWAP1 DUP4 PUSH1 0x1 PUSH1 0x1 PUSH1 0xA0 SHL SUB AND MUL OR SWAP1 SSTORE POP PUSH1 0x51 DUP2 DUP2 SLOAD DUP2 LT PUSH2 0x48A8 JUMPI INVALID JUMPDEST SWAP1 PUSH1 0x0 MSTORE PUSH1 0x20 PUSH1 0x0 KECCAK256 SWAP1 PUSH1 0x4 MUL ADD PUSH1 0x2 ADD SLOAD PUSH1 0x51 DUP5 DUP4 SUB DUP2 SLOAD DUP2 LT PUSH2 0x48C9 JUMPI INVALID JUMPDEST SWAP1 PUSH1 0x0 MSTORE PUSH1 0x20 PUSH1 0x0 KECCAK256 SWAP1 PUSH1 0x4 MUL ADD PUSH1 0x2 ADD DUP2 SWAP1 SSTORE POP PUSH1 0x51 DUP2 DUP2 SLOAD DUP2 LT PUSH2 0x48EB JUMPI INVALID JUMPDEST SWAP1 PUSH1 0x0 MSTORE PUSH1 0x20 PUSH1 0x0 KECCAK256 SWAP1 PUSH1 0x4 MUL ADD PUSH1 0x3 ADD SLOAD PUSH1 0x51 DUP5 DUP4 SUB DUP2 SLOAD DUP2 LT PUSH2 0x490C JUMPI INVALID JUMPDEST PUSH1 0x0 SWAP2 DUP3 MSTORE PUSH1 0x20 SWAP1 SWAP2 KECCAK256 PUSH1 0x3 PUSH1 0x4 SWAP1 SWAP3 MUL ADD ADD SSTORE PUSH1 0x1 ADD PUSH2 0x481B JUMP JUMPDEST POP PUSH1 0x0 JUMPDEST DUP3 DUP2 LT ISZERO PUSH2 0x4982 JUMPI PUSH1 0x51 DUP1 SLOAD DUP1 PUSH2 0x493F JUMPI INVALID JUMPDEST PUSH1 0x0 DUP3 DUP2 MSTORE PUSH1 0x20 DUP2 KECCAK256 PUSH1 0x4 PUSH1 0x0 NOT SWAP1 SWAP4 ADD SWAP3 DUP4 MUL ADD DUP2 DUP2 SSTORE PUSH1 0x1 DUP2 DUP2 ADD DUP1 SLOAD PUSH1 0x1 PUSH1 0x1 PUSH1 0xA0 SHL SUB NOT AND SWAP1 SSTORE PUSH1 0x2 DUP3 ADD DUP4 SWAP1 SSTORE PUSH1 0x3 SWAP1 SWAP2 ADD SWAP2 SWAP1 SWAP2 SSTORE SWAP2 SSTORE ADD PUSH2 0x492C JUMP JUMPDEST POP JUMPDEST DUP3 ISZERO PUSH2 0x4ACD JUMPI PUSH1 0x0 PUSH1 0x17 SLOAD PUSH1 0x9 SLOAD DUP6 MUL DUP2 PUSH2 0x499B JUMPI INVALID JUMPDEST PUSH1 0x40 DUP1 MLOAD PUSH1 0x80 DUP2 ADD DUP3 MSTORE TIMESTAMP DUP2 MSTORE PUSH1 0x1 PUSH1 0x1 PUSH1 0xA0 SHL SUB DUP12 DUP2 AND PUSH1 0x20 DUP4 ADD SWAP1 DUP2 MSTORE DUP3 DUP5 ADD DUP13 DUP2 MSTORE SWAP6 SWAP1 SWAP5 DIV PUSH1 0x60 DUP4 ADD DUP2 DUP2 MSTORE PUSH1 0x52 DUP1 SLOAD PUSH1 0x1 DUP2 ADD DUP3 SSTORE PUSH1 0x0 SWAP2 SWAP1 SWAP2 MSTORE SWAP4 MLOAD PUSH32 0xA9144A5E7EFD259B8B0D55467F4696ED47EC83317D61501B76366DBCCA65CE73 PUSH1 0x4 SWAP1 SWAP6 MUL SWAP5 DUP6 ADD SSTORE SWAP5 MLOAD PUSH32 0xA9144A5E7EFD259B8B0D55467F4696ED47EC83317D61501B76366DBCCA65CE74 DUP5 ADD DUP1 SLOAD PUSH1 0x1 PUSH1 0x1 PUSH1 0xA0 SHL SUB NOT AND SWAP2 SWAP1 SWAP4 AND OR SWAP1 SWAP2 SSTORE SWAP4 MLOAD PUSH32 0xA9144A5E7EFD259B8B0D55467F4696ED47EC83317D61501B76366DBCCA65CE75 DUP3 ADD SSTORE SWAP2 MLOAD PUSH32 0xA9144A5E7EFD259B8B0D55467F4696ED47EC83317D61501B76366DBCCA65CE76 SWAP1 SWAP3 ADD SWAP2 SWAP1 SWAP2 SSTORE MLOAD SWAP1 SWAP2 POP PUSH32 0xE52393FB0BC93D5EDF3DDB6EF44887D82B0B9553466F447CB9B8B409087E9705 SWAP1 PUSH2 0x4AC3 SWAP1 DUP10 SWAP1 DUP5 SWAP1 PUSH2 0x5482 JUMP JUMPDEST PUSH1 0x40 MLOAD DUP1 SWAP2 SUB SWAP1 LOG1 POP JUMPDEST DUP3 DUP5 SUB ISZERO PUSH2 0x174C JUMPI PUSH1 0x7 SLOAD PUSH2 0x174C SWAP1 PUSH2 0x100 SWAP1 DIV PUSH1 0x1 PUSH1 0x1 PUSH1 0xA0 SHL SUB AND DUP8 PUSH2 0x3E8 DUP7 DUP9 SUB PUSH2 0x3E6 MUL DIV PUSH2 0x2E79 JUMP JUMPDEST PUSH1 0x1 PUSH1 0x1 PUSH1 0xA0 SHL SUB DUP2 AND PUSH2 0x4B21 JUMPI PUSH1 0x40 MLOAD PUSH3 0x461BCD PUSH1 0xE5 SHL DUP2 MSTORE PUSH1 0x4 ADD PUSH2 0xF25 SWAP1 PUSH2 0x5781 JUMP JUMPDEST PUSH1 0x0 DUP1 SLOAD PUSH1 0x40 MLOAD PUSH1 0x1 PUSH1 0x1 PUSH1 0xA0 SHL SUB DUP1 DUP6 AND SWAP4 SWAP3 AND SWAP2 PUSH32 0x8BE0079C531659141344CD1FD0A4F28419497F9722A3DAAFE3B4186F6B6457E0 SWAP2 LOG3 PUSH1 0x0 DUP1 SLOAD PUSH1 0x1 PUSH1 0x1 PUSH1 0xA0 SHL SUB NOT AND PUSH1 0x1 PUSH1 0x1 PUSH1 0xA0 SHL SUB SWAP3 SWAP1 SWAP3 AND SWAP2 SWAP1 SWAP2 OR SWAP1 SSTORE JUMP JUMPDEST PUSH1 0x7 SLOAD PUSH1 0x40 MLOAD PUSH4 0x70A08231 PUSH1 0xE0 SHL DUP2 MSTORE PUSH1 0x0 SWAP2 PUSH2 0x100 SWAP1 DIV PUSH1 0x1 PUSH1 0x1 PUSH1 0xA0 SHL SUB AND SWAP1 PUSH4 0x70A08231 SWAP1 PUSH2 0x4BB2 SWAP1 ADDRESS SWAP1 PUSH1 0x4 ADD PUSH2 0x544A JUMP JUMPDEST PUSH1 0x20 PUSH1 0x40 MLOAD DUP1 DUP4 SUB DUP2 DUP7 DUP1 EXTCODESIZE ISZERO DUP1 ISZERO PUSH2 0x4BCA JUMPI PUSH1 0x0 DUP1 REVERT JUMPDEST POP GAS STATICCALL ISZERO DUP1 ISZERO PUSH2 0x4BDE JUMPI RETURNDATASIZE PUSH1 0x0 DUP1 RETURNDATACOPY RETURNDATASIZE PUSH1 0x0 REVERT JUMPDEST POP POP POP POP PUSH1 0x40 MLOAD RETURNDATASIZE PUSH1 0x1F NOT PUSH1 0x1F DUP3 ADD AND DUP3 ADD DUP1 PUSH1 0x40 MSTORE POP DUP2 ADD SWAP1 PUSH2 0x1B40 SWAP2 SWAP1 PUSH2 0x5416 JUMP JUMPDEST PUSH1 0x0 PUSH2 0x269B DUP4 DUP4 PUSH1 0x40 MLOAD DUP1 PUSH1 0x40 ADD PUSH1 0x40 MSTORE DUP1 PUSH1 0x1E DUP2 MSTORE PUSH1 0x20 ADD PUSH32 0x536166654D6174683A207375627472616374696F6E206F766572666C6F770000 DUP2 MSTORE POP PUSH2 0x2A69 JUMP JUMPDEST PUSH1 0x0 PUSH1 0x60 DUP6 PUSH1 0x1 PUSH1 0x1 PUSH1 0xA0 SHL SUB AND PUSH4 0x23B872DD DUP7 DUP7 DUP7 PUSH1 0x40 MLOAD PUSH1 0x24 ADD PUSH2 0x4C6C SWAP4 SWAP3 SWAP2 SWAP1 PUSH2 0x545E JUMP JUMPDEST PUSH1 0x40 MLOAD PUSH1 0x20 DUP2 DUP4 SUB SUB DUP2 MSTORE SWAP1 PUSH1 0x40 MSTORE SWAP1 PUSH1 0xE0 SHL PUSH1 0x20 DUP3 ADD DUP1 MLOAD PUSH1 0x1 PUSH1 0x1 PUSH1 0xE0 SHL SUB DUP4 DUP2 DUP4 AND OR DUP4 MSTORE POP POP POP POP PUSH1 0x40 MLOAD PUSH2 0x4CA5 SWAP2 SWAP1 PUSH2 0x542E JUMP JUMPDEST PUSH1 0x0 PUSH1 0x40 MLOAD DUP1 DUP4 SUB DUP2 PUSH1 0x0 DUP7 GAS CALL SWAP2 POP POP RETURNDATASIZE DUP1 PUSH1 0x0 DUP2 EQ PUSH2 0x4CE2 JUMPI PUSH1 0x40 MLOAD SWAP2 POP PUSH1 0x1F NOT PUSH1 0x3F RETURNDATASIZE ADD AND DUP3 ADD PUSH1 0x40 MSTORE RETURNDATASIZE DUP3 MSTORE RETURNDATASIZE PUSH1 0x0 PUSH1 0x20 DUP5 ADD RETURNDATACOPY PUSH2 0x4CE7 JUMP JUMPDEST PUSH1 0x60 SWAP2 POP JUMPDEST POP SWAP2 POP SWAP2 POP DUP2 DUP1 ISZERO PUSH2 0x4D11 JUMPI POP DUP1 MLOAD ISZERO DUP1 PUSH2 0x4D11 JUMPI POP DUP1 DUP1 PUSH1 0x20 ADD SWAP1 MLOAD DUP2 ADD SWAP1 PUSH2 0x4D11 SWAP2 SWAP1 PUSH2 0x53DE JUMP JUMPDEST PUSH2 0x1754 JUMPI PUSH1 0x40 MLOAD PUSH3 0x461BCD PUSH1 0xE5 SHL DUP2 MSTORE PUSH1 0x4 ADD PUSH2 0xF25 SWAP1 PUSH2 0x5B9F JUMP JUMPDEST PUSH1 0x0 DUP1 PUSH2 0x3E9 PUSH1 0x18 PUSH1 0x8 SWAP1 SLOAD SWAP1 PUSH2 0x100 EXP SWAP1 DIV PUSH2 0xFFFF AND PUSH2 0xFFFF AND LT PUSH2 0x4D64 JUMPI PUSH1 0x18 SLOAD PUSH1 0x1 PUSH1 0x40 SHL SWAP1 DIV PUSH2 0xFFFF AND PUSH2 0x7D0 SUB PUSH2 0x4D73 JUMP JUMPDEST PUSH1 0x18 SLOAD PUSH1 0x1 PUSH1 0x40 SHL SWAP1 DIV PUSH2 0xFFFF AND JUMPDEST PUSH1 0x1A SLOAD PUSH2 0xFFFF SWAP2 DUP3 AND SWAP3 POP AND DUP2 EQ ISZERO PUSH2 0x4E16 JUMPI PUSH1 0x18 DUP1 SLOAD PUSH10 0xFFFF0000000000000000 NOT DUP2 AND PUSH1 0x1 PUSH1 0x40 SHL SWAP2 DUP3 SWAP1 DIV PUSH2 0xFFFF SWAP1 DUP2 AND PUSH1 0x1 ADD DUP2 AND DUP4 MUL SWAP2 SWAP1 SWAP2 OR SWAP3 DUP4 SWAP1 SSTORE PUSH1 0x40 MLOAD PUSH32 0x66D08156B35A3DDC911DAFBC8B10FFDC4E5126B090253256CFA71A80F87AEFEE SWAP4 PUSH2 0x4DEA SWAP4 SWAP1 DIV SWAP1 SWAP2 AND SWAP1 PUSH2 0x5C12 JUMP JUMPDEST PUSH1 0x40 MLOAD DUP1 SWAP2 SUB SWAP1 LOG1 PUSH2 0x4E00 PUSH1 0x17 SLOAD PUSH1 0x16 SLOAD PUSH2 0x2676 JUMP JUMPDEST PUSH1 0x17 SSTORE PUSH1 0x1A DUP1 SLOAD PUSH2 0xFFFF NOT AND PUSH1 0x1 OR SWAP1 SSTORE PUSH2 0x4E2F JUMP JUMPDEST PUSH1 0x1A DUP1 SLOAD PUSH2 0xFFFF DUP1 DUP3 AND PUSH1 0x1 ADD AND PUSH2 0xFFFF NOT SWAP1 SWAP2 AND OR SWAP1 SSTORE JUMPDEST POP POP PUSH1 0x18 DUP1 SLOAD PUSH8 0xFFFFFFFF00000000 NOT DUP2 AND PUSH1 0x1 PUSH1 0x20 SHL SWAP2 DUP3 SWAP1 DIV PUSH4 0xFFFFFFFF SWAP1 DUP2 AND PUSH1 0x1 ADD DUP2 AND DUP4 MUL SWAP2 SWAP1 SWAP2 OR SWAP3 DUP4 SWAP1 SSTORE SWAP2 DIV AND SWAP1 JUMP JUMPDEST PUSH1 0x1 PUSH1 0x1 PUSH1 0xA0 SHL SUB DUP2 AND PUSH1 0x0 SWAP1 DUP2 MSTORE PUSH1 0x49 PUSH1 0x20 MSTORE PUSH1 0x40 DUP2 KECCAK256 PUSH1 0xE DUP2 ADD SLOAD ISZERO PUSH2 0x4EA1 JUMPI PUSH2 0x4E9C DUP2 PUSH1 0xE ADD PUSH1 0x0 DUP2 SLOAD DUP2 LT PUSH2 0x3811 JUMPI INVALID JUMPDEST PUSH2 0x269B JUMP JUMPDEST POP SWAP1 SWAP2 SWAP1 POP JUMP JUMPDEST PUSH1 0x0 DUP1 DUP1 JUMPDEST PUSH1 0x14 DUP2 LT ISZERO PUSH2 0x326E JUMPI PUSH1 0xA SLOAD PUSH1 0xD DUP6 ADD SLOAD PUSH1 0x1 PUSH1 0x1 PUSH1 0xA0 SHL SUB SWAP1 DUP2 AND SWAP2 AND EQ PUSH2 0x4EFF JUMPI PUSH1 0xD DUP5 ADD SLOAD PUSH1 0x1 PUSH1 0x1 PUSH1 0xA0 SHL SUB AND PUSH1 0x0 SWAP1 DUP2 MSTORE PUSH1 0x49 PUSH1 0x20 MSTORE PUSH1 0x40 SWAP1 KECCAK256 PUSH1 0x1 ADD SLOAD PUSH1 0x1 PUSH1 0x38 SHL SWAP1 DIV PUSH1 0xFF AND PUSH2 0x4F02 JUMP JUMPDEST PUSH1 0x4 JUMPDEST SWAP3 POP PUSH1 0x1 DUP4 PUSH1 0xFF AND LT ISZERO DUP1 ISZERO PUSH2 0x4F18 JUMPI POP DUP1 PUSH1 0x1 EQ JUMPDEST ISZERO PUSH2 0x4F7C JUMPI PUSH2 0x3E8 PUSH1 0x46 PUSH1 0x0 DUP2 SLOAD DUP2 LT PUSH2 0x4F2E JUMPI INVALID JUMPDEST SWAP1 PUSH1 0x0 MSTORE PUSH1 0x20 PUSH1 0x0 KECCAK256 ADD PUSH1 0x2 DUP2 SLOAD DUP2 LT PUSH2 0x4F44 JUMPI INVALID JUMPDEST SWAP1 PUSH1 0x0 MSTORE PUSH1 0x20 PUSH1 0x0 KECCAK256 SWAP1 PUSH1 0x20 SWAP2 DUP3 DUP3 DIV ADD SWAP2 SWAP1 MOD SWAP1 SLOAD SWAP1 PUSH2 0x100 EXP SWAP1 DIV PUSH1 0xFF AND PUSH1 0xFF AND DUP6 PUSH1 0x7 ADD SLOAD MUL DUP2 PUSH2 0x4F74 JUMPI INVALID JUMPDEST DIV SWAP2 POP PUSH2 0x507C JUMP JUMPDEST PUSH1 0x1 DUP4 PUSH1 0xFF AND LT ISZERO DUP1 ISZERO PUSH2 0x4F90 JUMPI POP DUP1 PUSH1 0x2 EQ JUMPDEST ISZERO PUSH2 0x4FA6 JUMPI PUSH2 0x3E8 PUSH1 0x46 PUSH1 0x1 DUP2 SLOAD DUP2 LT PUSH2 0x4F2E JUMPI INVALID JUMPDEST PUSH1 0x2 DUP4 PUSH1 0xFF AND LT ISZERO DUP1 ISZERO PUSH2 0x4FBB JUMPI POP PUSH1 0x3 DUP2 LT ISZERO JUMPDEST DUP1 ISZERO PUSH2 0x4FC8 JUMPI POP PUSH1 0x7 DUP2 GT ISZERO JUMPDEST ISZERO PUSH2 0x4FDE JUMPI PUSH2 0x3E8 PUSH1 0x46 PUSH1 0x2 DUP2 SLOAD DUP2 LT PUSH2 0x4F2E JUMPI INVALID JUMPDEST PUSH1 0x3 DUP4 PUSH1 0xFF AND LT ISZERO DUP1 ISZERO PUSH2 0x4FF3 JUMPI POP PUSH1 0x8 DUP2 LT ISZERO JUMPDEST DUP1 ISZERO PUSH2 0x5000 JUMPI POP PUSH1 0x10 DUP2 GT ISZERO JUMPDEST ISZERO PUSH2 0x5016 JUMPI PUSH2 0x3E8 PUSH1 0x46 PUSH1 0x3 DUP2 SLOAD DUP2 LT PUSH2 0x4F2E JUMPI INVALID JUMPDEST PUSH1 0x4 DUP4 PUSH1 0xFF AND LT PUSH2 0x507C JUMPI PUSH2 0x3E8 PUSH1 0x46 PUSH1 0x4 DUP2 SLOAD DUP2 LT PUSH2 0x5032 JUMPI INVALID JUMPDEST SWAP1 PUSH1 0x0 MSTORE PUSH1 0x20 PUSH1 0x0 KECCAK256 ADD PUSH1 0x2 DUP2 SLOAD DUP2 LT PUSH2 0x5048 JUMPI INVALID JUMPDEST SWAP1 PUSH1 0x0 MSTORE PUSH1 0x20 PUSH1 0x0 KECCAK256 SWAP1 PUSH1 0x20 SWAP2 DUP3 DUP3 DIV ADD SWAP2 SWAP1 MOD SWAP1 SLOAD SWAP1 PUSH2 0x100 EXP SWAP1 DIV PUSH1 0xFF AND PUSH1 0xFF AND DUP6 PUSH1 0x7 ADD SLOAD MUL DUP2 PUSH2 0x5078 JUMPI INVALID JUMPDEST DIV SWAP2 POP JUMPDEST DUP2 ISZERO PUSH2 0x50D0 JUMPI PUSH1 0xA SLOAD PUSH1 0xD DUP6 ADD SLOAD PUSH1 0x1 PUSH1 0x1 PUSH1 0xA0 SHL SUB SWAP1 DUP2 AND SWAP2 AND EQ ISZERO PUSH2 0x50AA JUMPI PUSH1 0xB DUP1 SLOAD DUP4 ADD SWAP1 SSTORE PUSH2 0x326E JUMP JUMPDEST PUSH1 0xD DUP5 ADD SLOAD PUSH1 0x1 PUSH1 0x1 PUSH1 0xA0 SHL SUB AND PUSH1 0x0 SWAP1 DUP2 MSTORE PUSH1 0x49 PUSH1 0x20 MSTORE PUSH1 0x40 SWAP1 KECCAK256 PUSH1 0x8 ADD DUP1 SLOAD DUP4 ADD SWAP1 SSTORE JUMPDEST PUSH1 0x1 ADD PUSH2 0x4EAD JUMP JUMPDEST PUSH1 0x1 PUSH1 0x1 PUSH1 0xA0 SHL SUB DUP2 AND PUSH1 0x0 SWAP1 DUP2 MSTORE PUSH1 0x49 PUSH1 0x20 MSTORE PUSH1 0x40 DUP2 KECCAK256 PUSH1 0x1 DUP1 DUP3 ADD SLOAD PUSH1 0x1 PUSH1 0x30 SHL SWAP1 DIV PUSH1 0xFF AND PUSH1 0x2 DUP2 GT ISZERO PUSH2 0x510B JUMPI INVALID JUMPDEST EQ PUSH2 0x4EA1 JUMPI PUSH1 0xD DUP2 ADD SLOAD PUSH2 0x4E9C SWAP1 PUSH1 0x1 PUSH1 0x1 PUSH1 0xA0 SHL SUB AND PUSH2 0x50D8 JUMP JUMPDEST PUSH1 0x40 MLOAD DUP1 PUSH1 0x80 ADD PUSH1 0x40 MSTORE DUP1 PUSH1 0x4 SWAP1 PUSH1 0x20 DUP3 MUL DUP1 CALLDATASIZE DUP4 CALLDATACOPY POP SWAP2 SWAP3 SWAP2 POP POP JUMP JUMPDEST PUSH1 0x40 MLOAD DUP1 PUSH2 0x1C0 ADD PUSH1 0x40 MSTORE DUP1 PUSH1 0xE SWAP1 PUSH1 0x20 DUP3 MUL DUP1 CALLDATASIZE DUP4 CALLDATACOPY POP SWAP2 SWAP3 SWAP2 POP POP JUMP JUMPDEST PUSH1 0x40 MLOAD DUP1 PUSH2 0x160 ADD PUSH1 0x40 MSTORE DUP1 PUSH1 0xB SWAP1 PUSH1 0x20 DUP3 MUL DUP1 CALLDATASIZE DUP4 CALLDATACOPY POP SWAP2 SWAP3 SWAP2 POP POP JUMP JUMPDEST PUSH1 0x40 MLOAD DUP1 PUSH2 0x100 ADD PUSH1 0x40 MSTORE DUP1 PUSH1 0x8 SWAP1 PUSH1 0x20 DUP3 MUL DUP1 CALLDATASIZE DUP4 CALLDATACOPY POP SWAP2 SWAP3 SWAP2 POP POP JUMP JUMPDEST PUSH1 0x40 MLOAD DUP1 PUSH1 0x60 ADD PUSH1 0x40 MSTORE DUP1 PUSH1 0x0 DUP2 MSTORE PUSH1 0x20 ADD PUSH1 0x0 DUP2 MSTORE PUSH1 0x20 ADD PUSH1 0x0 DUP2 MSTORE POP SWAP1 JUMP JUMPDEST PUSH1 0x40 MLOAD DUP1 PUSH1 0x80 ADD PUSH1 0x40 MSTORE DUP1 PUSH1 0x0 PUSH1 0x1 PUSH1 0x1 PUSH1 0xA0 SHL SUB AND DUP2 MSTORE PUSH1 0x20 ADD PUSH1 0x0 DUP2 MSTORE PUSH1 0x20 ADD PUSH1 0x0 DUP2 MSTORE PUSH1 0x20 ADD PUSH1 0x0 DUP2 MSTORE POP SWAP1 JUMP JUMPDEST DUP3 DUP1 SLOAD DUP3 DUP3 SSTORE SWAP1 PUSH1 0x0 MSTORE PUSH1 0x20 PUSH1 0x0 KECCAK256 SWAP1 DUP2 ADD SWAP3 DUP3 ISZERO PUSH2 0x522F JUMPI SWAP2 PUSH1 0x20 MUL DUP3 ADD JUMPDEST DUP3 DUP2 GT ISZERO PUSH2 0x522F JUMPI DUP3 MLOAD DUP3 SSTORE SWAP2 PUSH1 0x20 ADD SWAP2 SWAP1 PUSH1 0x1 ADD SWAP1 PUSH2 0x5214 JUMP JUMPDEST POP PUSH2 0x523B SWAP3 SWAP2 POP PUSH2 0x523F JUMP JUMPDEST POP SWAP1 JUMP JUMPDEST JUMPDEST DUP1 DUP3 GT ISZERO PUSH2 0x523B JUMPI PUSH1 0x0 DUP2 SSTORE PUSH1 0x1 ADD PUSH2 0x5240 JUMP JUMPDEST PUSH1 0x0 PUSH1 0x20 DUP3 DUP5 SUB SLT ISZERO PUSH2 0x5265 JUMPI DUP1 DUP2 REVERT JUMPDEST DUP2 CALLDATALOAD PUSH2 0x269B DUP2 PUSH2 0x5CDF JUMP JUMPDEST PUSH1 0x0 DUP1 PUSH1 0x40 DUP4 DUP6 SUB SLT ISZERO PUSH2 0x5282 JUMPI DUP1 DUP2 REVERT JUMPDEST DUP3 CALLDATALOAD PUSH2 0x528D DUP2 PUSH2 0x5CDF JUMP JUMPDEST SWAP2 POP PUSH1 0x20 DUP4 ADD CALLDATALOAD PUSH2 0x529D DUP2 PUSH2 0x5CDF JUMP JUMPDEST DUP1 SWAP2 POP POP SWAP3 POP SWAP3 SWAP1 POP JUMP JUMPDEST PUSH1 0x0 DUP1 PUSH1 0x0 DUP1 PUSH1 0x80 DUP6 DUP8 SUB SLT ISZERO PUSH2 0x52BD JUMPI DUP2 DUP3 REVERT JUMPDEST DUP5 CALLDATALOAD PUSH2 0x52C8 DUP2 PUSH2 0x5CDF JUMP JUMPDEST SWAP4 POP PUSH1 0x20 DUP6 ADD CALLDATALOAD PUSH2 0x52D8 DUP2 PUSH2 0x5CDF JUMP JUMPDEST SWAP3 POP PUSH1 0x40 DUP6 ADD CALLDATALOAD PUSH2 0x52E8 DUP2 PUSH2 0x5CDF JUMP JUMPDEST SWAP2 POP PUSH1 0x60 DUP6 ADD CALLDATALOAD PUSH2 0x52F8 DUP2 PUSH2 0x5CDF JUMP JUMPDEST SWAP4 SWAP7 SWAP3 SWAP6 POP SWAP1 SWAP4 POP POP JUMP JUMPDEST PUSH1 0x0 DUP1 PUSH1 0x0 DUP1 PUSH1 0x0 PUSH1 0xA0 DUP7 DUP9 SUB SLT ISZERO PUSH2 0x531A JUMPI DUP1 DUP2 REVERT JUMPDEST DUP6 CALLDATALOAD PUSH2 0x5325 DUP2 PUSH2 0x5CDF JUMP JUMPDEST SWAP5 POP PUSH1 0x20 DUP7 ADD CALLDATALOAD PUSH2 0x5335 DUP2 PUSH2 0x5CDF JUMP JUMPDEST SWAP4 POP PUSH1 0x40 DUP7 ADD CALLDATALOAD PUSH2 0x5345 DUP2 PUSH2 0x5CDF JUMP JUMPDEST SWAP3 POP PUSH1 0x60 DUP7 ADD CALLDATALOAD PUSH2 0x5355 DUP2 PUSH2 0x5CDF JUMP JUMPDEST SWAP2 POP PUSH1 0x80 DUP7 ADD CALLDATALOAD PUSH2 0x5365 DUP2 PUSH2 0x5CDF JUMP JUMPDEST DUP1 SWAP2 POP POP SWAP3 SWAP6 POP SWAP3 SWAP6 SWAP1 SWAP4 POP JUMP JUMPDEST PUSH1 0x0 DUP1 PUSH1 0x0 PUSH1 0x60 DUP5 DUP7 SUB SLT ISZERO PUSH2 0x5387 JUMPI DUP3 DUP4 REVERT JUMPDEST DUP4 CALLDATALOAD PUSH2 0x5392 DUP2 PUSH2 0x5CDF JUMP JUMPDEST SWAP3 POP PUSH1 0x20 DUP5 ADD CALLDATALOAD PUSH2 0x53A2 DUP2 PUSH2 0x5CDF JUMP JUMPDEST SWAP3 SWAP6 SWAP3 SWAP5 POP POP POP PUSH1 0x40 SWAP2 SWAP1 SWAP2 ADD CALLDATALOAD SWAP1 JUMP JUMPDEST PUSH1 0x0 DUP1 PUSH1 0x40 DUP4 DUP6 SUB SLT ISZERO PUSH2 0x53C5 JUMPI DUP2 DUP3 REVERT JUMPDEST DUP3 CALLDATALOAD PUSH2 0x53D0 DUP2 PUSH2 0x5CDF JUMP JUMPDEST SWAP5 PUSH1 0x20 SWAP4 SWAP1 SWAP4 ADD CALLDATALOAD SWAP4 POP POP POP JUMP JUMPDEST PUSH1 0x0 PUSH1 0x20 DUP3 DUP5 SUB SLT ISZERO PUSH2 0x53EF JUMPI DUP1 DUP2 REVERT JUMPDEST DUP2 MLOAD DUP1 ISZERO ISZERO DUP2 EQ PUSH2 0x269B JUMPI DUP2 DUP3 REVERT JUMPDEST PUSH1 0x0 PUSH1 0x20 DUP3 DUP5 SUB SLT ISZERO PUSH2 0x540F JUMPI DUP1 DUP2 REVERT JUMPDEST POP CALLDATALOAD SWAP2 SWAP1 POP JUMP JUMPDEST PUSH1 0x0 PUSH1 0x20 DUP3 DUP5 SUB SLT ISZERO PUSH2 0x5427 JUMPI DUP1 DUP2 REVERT JUMPDEST POP MLOAD SWAP2 SWAP1 POP JUMP JUMPDEST PUSH1 0x0 DUP3 MLOAD PUSH2 0x5440 DUP2 DUP5 PUSH1 0x20 DUP8 ADD PUSH2 0x5CB3 JUMP JUMPDEST SWAP2 SWAP1 SWAP2 ADD SWAP3 SWAP2 POP POP JUMP JUMPDEST PUSH1 0x1 PUSH1 0x1 PUSH1 0xA0 SHL SUB SWAP2 SWAP1 SWAP2 AND DUP2 MSTORE PUSH1 0x20 ADD SWAP1 JUMP JUMPDEST PUSH1 0x1 PUSH1 0x1 PUSH1 0xA0 SHL SUB SWAP4 DUP5 AND DUP2 MSTORE SWAP2 SWAP1 SWAP3 AND PUSH1 0x20 DUP3 ADD MSTORE PUSH1 0x40 DUP2 ADD SWAP2 SWAP1 SWAP2 MSTORE PUSH1 0x60 ADD SWAP1 JUMP JUMPDEST PUSH1 0x1 PUSH1 0x1 PUSH1 0xA0 SHL SUB SWAP3 SWAP1 SWAP3 AND DUP3 MSTORE PUSH1 0x20 DUP3 ADD MSTORE PUSH1 0x40 ADD SWAP1 JUMP JUMPDEST PUSH1 0x1 PUSH1 0x1 PUSH1 0xA0 SHL SUB SWAP3 SWAP1 SWAP3 AND DUP3 MSTORE PUSH4 0xFFFFFFFF AND PUSH1 0x20 DUP3 ADD MSTORE PUSH1 0x40 ADD SWAP1 JUMP JUMPDEST PUSH1 0x20 DUP1 DUP3 MSTORE DUP3 MLOAD DUP3 DUP3 ADD DUP2 SWAP1 MSTORE PUSH1 0x0 SWAP2 SWAP1 DUP5 DUP3 ADD SWAP1 PUSH1 0x40 DUP6 ADD SWAP1 DUP5 JUMPDEST DUP2 DUP2 LT ISZERO PUSH2 0x5516 JUMPI DUP4 MLOAD DUP4 DUP8 JUMPDEST PUSH1 0x4 DUP2 LT ISZERO PUSH2 0x5500 JUMPI DUP3 MLOAD DUP3 MSTORE SWAP2 DUP8 ADD SWAP2 SWAP1 DUP8 ADD SWAP1 PUSH1 0x1 ADD PUSH2 0x54E3 JUMP JUMPDEST POP POP POP SWAP3 DUP5 ADD SWAP3 PUSH1 0x80 SWAP3 SWAP1 SWAP3 ADD SWAP2 PUSH1 0x1 ADD PUSH2 0x54D6 JUMP JUMPDEST POP SWAP1 SWAP7 SWAP6 POP POP POP POP POP POP JUMP JUMPDEST PUSH1 0x20 DUP1 DUP3 MSTORE DUP3 MLOAD DUP3 DUP3 ADD DUP2 SWAP1 MSTORE PUSH1 0x0 SWAP2 SWAP1 PUSH1 0x40 SWAP1 DUP2 DUP6 ADD SWAP1 DUP7 DUP5 ADD DUP6 JUMPDEST DUP3 DUP2 LT ISZERO PUSH2 0x5582 JUMPI DUP2 MLOAD DUP1 MLOAD PUSH1 0x1 PUSH1 0x1 PUSH1 0xA0 SHL SUB AND DUP6 MSTORE DUP7 DUP2 ADD MLOAD DUP8 DUP7 ADD MSTORE DUP6 DUP2 ADD MLOAD DUP7 DUP7 ADD MSTORE PUSH1 0x60 SWAP1 DUP2 ADD MLOAD SWAP1 DUP6 ADD MSTORE PUSH1 0x80 SWAP1 SWAP4 ADD SWAP3 SWAP1 DUP6 ADD SWAP1 PUSH1 0x1 ADD PUSH2 0x553F JUMP JUMPDEST POP SWAP2 SWAP8 SWAP7 POP POP POP POP POP POP POP JUMP JUMPDEST PUSH2 0x160 DUP2 ADD DUP2 DUP4 PUSH1 0x0 JUMPDEST PUSH1 0xB DUP2 LT ISZERO PUSH2 0x55B8 JUMPI DUP2 MLOAD DUP4 MSTORE PUSH1 0x20 SWAP3 DUP4 ADD SWAP3 SWAP1 SWAP2 ADD SWAP1 PUSH1 0x1 ADD PUSH2 0x5599 JUMP JUMPDEST POP POP POP SWAP3 SWAP2 POP POP JUMP JUMPDEST PUSH2 0x1C0 DUP2 ADD DUP2 DUP4 PUSH1 0x0 JUMPDEST PUSH1 0xE DUP2 LT ISZERO PUSH2 0x55B8 JUMPI DUP2 MLOAD DUP4 MSTORE PUSH1 0x20 SWAP3 DUP4 ADD SWAP3 SWAP1 SWAP2 ADD SWAP1 PUSH1 0x1 ADD PUSH2 0x55CB JUMP JUMPDEST PUSH2 0x100 DUP2 ADD DUP2 DUP4 PUSH1 0x0 JUMPDEST PUSH1 0x8 DUP2 LT ISZERO PUSH2 0x55B8 JUMPI DUP2 MLOAD DUP4 MSTORE PUSH1 0x20 SWAP3 DUP4 ADD SWAP3 SWAP1 SWAP2 ADD SWAP1 PUSH1 0x1 ADD PUSH2 0x55F4 JUMP JUMPDEST SWAP1 ISZERO ISZERO DUP2 MSTORE PUSH1 0x20 ADD SWAP1 JUMP JUMPDEST SWAP5 ISZERO ISZERO DUP6 MSTORE PUSH1 0x20 DUP6 ADD SWAP4 SWAP1 SWAP4 MSTORE PUSH1 0x40 DUP5 ADD SWAP2 SWAP1 SWAP2 MSTORE PUSH1 0x60 DUP4 ADD MSTORE PUSH1 0x80 DUP3 ADD MSTORE PUSH1 0xA0 ADD SWAP1 JUMP JUMPDEST PUSH1 0x0 PUSH1 0x20 DUP3 MSTORE DUP3 MLOAD DUP1 PUSH1 0x20 DUP5 ADD MSTORE PUSH2 0x5662 DUP2 PUSH1 0x40 DUP6 ADD PUSH1 0x20 DUP8 ADD PUSH2 0x5CB3 JUMP JUMPDEST PUSH1 0x1F ADD PUSH1 0x1F NOT AND SWAP2 SWAP1 SWAP2 ADD PUSH1 0x40 ADD SWAP3 SWAP2 POP POP JUMP JUMPDEST PUSH1 0x20 DUP1 DUP3 MSTORE PUSH1 0x1F SWAP1 DUP3 ADD MSTORE PUSH32 0x5472616E7366657248656C7065723A205452414E534645525F4641494C454400 PUSH1 0x40 DUP3 ADD MSTORE PUSH1 0x60 ADD SWAP1 JUMP JUMPDEST PUSH1 0x20 DUP1 DUP3 MSTORE DUP2 DUP2 ADD MSTORE PUSH32 0x23204E656564704E6F64655F726566657265616C5F6C696E6B41646472657373 PUSH1 0x40 DUP3 ADD MSTORE PUSH1 0x60 ADD SWAP1 JUMP JUMPDEST PUSH1 0x20 DUP1 DUP3 MSTORE PUSH1 0x16 SWAP1 DUP3 ADD MSTORE PUSH22 0x2320696E76616C69645F7265666572616C5F6C696E6B PUSH1 0x50 SHL PUSH1 0x40 DUP3 ADD MSTORE PUSH1 0x60 ADD SWAP1 JUMP JUMPDEST PUSH1 0x20 DUP1 DUP3 MSTORE PUSH1 0x13 SWAP1 DUP3 ADD MSTORE PUSH19 0x496E76616C69645F5265666572616C4C696E6B PUSH1 0x68 SHL PUSH1 0x40 DUP3 ADD MSTORE PUSH1 0x60 ADD SWAP1 JUMP JUMPDEST PUSH1 0x20 DUP1 DUP3 MSTORE PUSH1 0x22 SWAP1 DUP3 ADD MSTORE PUSH32 0x48524332303A20617070726F766520746F20746865207A65726F206164647265 PUSH1 0x40 DUP3 ADD MSTORE PUSH2 0x7373 PUSH1 0xF0 SHL PUSH1 0x60 DUP3 ADD MSTORE PUSH1 0x80 ADD SWAP1 JUMP JUMPDEST PUSH1 0x20 DUP1 DUP3 MSTORE PUSH1 0x26 SWAP1 DUP3 ADD MSTORE PUSH32 0x4F776E61626C653A206E6577206F776E657220697320746865207A65726F2061 PUSH1 0x40 DUP3 ADD MSTORE PUSH6 0x646472657373 PUSH1 0xD0 SHL PUSH1 0x60 DUP3 ADD MSTORE PUSH1 0x80 ADD SWAP1 JUMP JUMPDEST PUSH1 0x20 DUP1 DUP3 MSTORE PUSH1 0x25 SWAP1 DUP3 ADD MSTORE PUSH32 0x48524332303A207472616E736665722066726F6D20746865207A65726F206164 PUSH1 0x40 DUP3 ADD MSTORE PUSH5 0x6472657373 PUSH1 0xD8 SHL PUSH1 0x60 DUP3 ADD MSTORE PUSH1 0x80 ADD SWAP1 JUMP JUMPDEST PUSH1 0x20 DUP1 DUP3 MSTORE PUSH1 0xC SWAP1 DUP3 ADD MSTORE PUSH12 0x8C813DD995C999B1BDDD959 PUSH1 0xA2 SHL PUSH1 0x40 DUP3 ADD MSTORE PUSH1 0x60 ADD SWAP1 JUMP JUMPDEST PUSH1 0x20 DUP1 DUP3 MSTORE PUSH1 0x1B SWAP1 DUP3 ADD MSTORE PUSH32 0x536166654D6174683A206164646974696F6E206F766572666C6F770000000000 PUSH1 0x40 DUP3 ADD MSTORE PUSH1 0x60 ADD SWAP1 JUMP JUMPDEST PUSH1 0x20 DUP1 DUP3 MSTORE PUSH1 0xA SWAP1 DUP3 ADD MSTORE PUSH10 0x13DD995C999B1BDDD959 PUSH1 0xB2 SHL PUSH1 0x40 DUP3 ADD MSTORE PUSH1 0x60 ADD SWAP1 JUMP JUMPDEST PUSH1 0x20 DUP1 DUP3 MSTORE PUSH1 0x1F SWAP1 DUP3 ADD MSTORE PUSH32 0x48524332303A206D696E7420746F20746865207A65726F206164647265737300 PUSH1 0x40 DUP3 ADD MSTORE PUSH1 0x60 ADD SWAP1 JUMP JUMPDEST PUSH1 0x20 DUP1 DUP3 MSTORE PUSH1 0x10 SWAP1 DUP3 ADD MSTORE PUSH16 0x119024B73B30B634B22FB9B2B73232B9 PUSH1 0x81 SHL PUSH1 0x40 DUP3 ADD MSTORE PUSH1 0x60 ADD SWAP1 JUMP JUMPDEST PUSH1 0x20 DUP1 DUP3 MSTORE PUSH1 0xE SWAP1 DUP3 ADD MSTORE PUSH14 0x11902732B2B22F989812AFAA3631 PUSH1 0x91 SHL PUSH1 0x40 DUP3 ADD MSTORE PUSH1 0x60 ADD SWAP1 JUMP JUMPDEST PUSH1 0x20 DUP1 DUP3 MSTORE PUSH1 0x1A SWAP1 DUP3 ADD MSTORE PUSH32 0x23204E6565645F41646D696E5F726566657265616C5F6C696E6B000000000000 PUSH1 0x40 DUP3 ADD MSTORE PUSH1 0x60 ADD SWAP1 JUMP JUMPDEST PUSH1 0x20 DUP1 DUP3 MSTORE PUSH1 0x11 SWAP1 DUP3 ADD MSTORE PUSH17 0x8C8105B1C9958591E57DCDD185C9D1959 PUSH1 0x7A SHL PUSH1 0x40 DUP3 ADD MSTORE PUSH1 0x60 ADD SWAP1 JUMP JUMPDEST PUSH1 0x20 DUP1 DUP3 MSTORE PUSH1 0x21 SWAP1 DUP3 ADD MSTORE PUSH32 0x48524332303A206275726E2066726F6D20746865207A65726F20616464726573 PUSH1 0x40 DUP3 ADD MSTORE PUSH1 0x73 PUSH1 0xF8 SHL PUSH1 0x60 DUP3 ADD MSTORE PUSH1 0x80 ADD SWAP1 JUMP JUMPDEST PUSH1 0x20 DUP1 DUP3 MSTORE DUP2 DUP2 ADD MSTORE PUSH32 0x48524332303A20616C72656164792072656163686564206D6178537570706C79 PUSH1 0x40 DUP3 ADD MSTORE PUSH1 0x60 ADD SWAP1 JUMP JUMPDEST PUSH1 0x20 DUP1 DUP3 MSTORE PUSH1 0xC SWAP1 DUP3 ADD MSTORE PUSH12 0x34B73B30B634B22FBA34B2B9 PUSH1 0xA1 SHL PUSH1 0x40 DUP3 ADD MSTORE PUSH1 0x60 ADD SWAP1 JUMP JUMPDEST PUSH1 0x20 DUP1 DUP3 MSTORE DUP2 DUP2 ADD MSTORE PUSH32 0x4F776E61626C653A2063616C6C6572206973206E6F7420746865206F776E6572 PUSH1 0x40 DUP3 ADD MSTORE PUSH1 0x60 ADD SWAP1 JUMP JUMPDEST PUSH1 0x20 DUP1 DUP3 MSTORE PUSH1 0x23 SWAP1 DUP3 ADD MSTORE PUSH32 0x48524332303A207472616E7366657220746F20746865207A65726F2061646472 PUSH1 0x40 DUP3 ADD MSTORE PUSH3 0x657373 PUSH1 0xE8 SHL PUSH1 0x60 DUP3 ADD MSTORE PUSH1 0x80 ADD SWAP1 JUMP JUMPDEST PUSH1 0x20 DUP1 DUP3 MSTORE PUSH1 0xC SWAP1 DUP3 ADD MSTORE PUSH12 0x232066756C6C5F7573657273 PUSH1 0xA0 SHL PUSH1 0x40 DUP3 ADD MSTORE PUSH1 0x60 ADD SWAP1 JUMP JUMPDEST PUSH1 0x20 DUP1 DUP3 MSTORE PUSH1 0x13 SWAP1 DUP3 ADD MSTORE PUSH19 0x32BC3832B1BA32B22FBB30B634B22FBA34B2B9 PUSH1 0x69 SHL PUSH1 0x40 DUP3 ADD MSTORE PUSH1 0x60 ADD SWAP1 JUMP JUMPDEST PUSH1 0x20 DUP1 DUP3 MSTORE PUSH1 0xF SWAP1 DUP3 ADD MSTORE PUSH15 0x1A5B9D985B1A5917D858D8DBDD5B9D PUSH1 0x8A SHL PUSH1 0x40 DUP3 ADD MSTORE PUSH1 0x60 ADD SWAP1 JUMP JUMPDEST PUSH1 0x20 DUP1 DUP3 MSTORE PUSH1 0xF SWAP1 DUP3 ADD MSTORE PUSH15 0x119024B73B30B634B22FB6B4B732B9 PUSH1 0x89 SHL PUSH1 0x40 DUP3 ADD MSTORE PUSH1 0x60 ADD SWAP1 JUMP JUMPDEST PUSH1 0x20 DUP1 DUP3 MSTORE PUSH1 0x10 SWAP1 DUP3 ADD MSTORE PUSH16 0x8C8151BDBD7D31BDDD7D25B9D995CDD PUSH1 0x82 SHL PUSH1 0x40 DUP3 ADD MSTORE PUSH1 0x60 ADD SWAP1 JUMP JUMPDEST PUSH1 0x20 DUP1 DUP3 MSTORE PUSH1 0x24 SWAP1 DUP3 ADD MSTORE PUSH32 0x48524332303A20617070726F76652066726F6D20746865207A65726F20616464 PUSH1 0x40 DUP3 ADD MSTORE PUSH4 0x72657373 PUSH1 0xE0 SHL PUSH1 0x60 DUP3 ADD MSTORE PUSH1 0x80 ADD SWAP1 JUMP JUMPDEST PUSH1 0x20 DUP1 DUP3 MSTORE PUSH1 0x24 SWAP1 DUP3 ADD MSTORE PUSH32 0x5472616E7366657248656C7065723A205452414E534645525F46524F4D5F4641 PUSH1 0x40 DUP3 ADD MSTORE PUSH4 0x12531151 PUSH1 0xE2 SHL PUSH1 0x60 DUP3 ADD MSTORE PUSH1 0x80 ADD SWAP1 JUMP JUMPDEST PUSH1 0x20 DUP1 DUP3 MSTORE PUSH1 0x15 SWAP1 DUP3 ADD MSTORE PUSH21 0x23206F766572666C6F775F746F74616C5F6D696E65 PUSH1 0x58 SHL PUSH1 0x40 DUP3 ADD MSTORE PUSH1 0x60 ADD SWAP1 JUMP JUMPDEST PUSH2 0xFFFF SWAP2 SWAP1 SWAP2 AND DUP2 MSTORE PUSH1 0x20 ADD SWAP1 JUMP JUMPDEST SWAP1 DUP2 MSTORE PUSH1 0x20 ADD SWAP1 JUMP JUMPDEST PUSH1 0x0 PUSH1 0x60 DUP3 ADD DUP6 DUP4 MSTORE PUSH1 0x20 PUSH1 0x1 DUP1 PUSH1 0xA0 SHL SUB DUP1 DUP8 AND DUP3 DUP7 ADD MSTORE PUSH1 0x60 PUSH1 0x40 DUP7 ADD MSTORE DUP3 DUP7 MLOAD DUP1 DUP6 MSTORE PUSH1 0x80 DUP8 ADD SWAP2 POP DUP4 DUP9 ADD SWAP5 POP DUP6 JUMPDEST DUP2 DUP2 LT ISZERO PUSH2 0x5C7B JUMPI DUP6 MLOAD DUP5 AND DUP4 MSTORE SWAP5 DUP5 ADD SWAP5 SWAP2 DUP5 ADD SWAP2 PUSH1 0x1 ADD PUSH2 0x5C5D JUMP JUMPDEST POP SWAP1 SWAP10 SWAP9 POP POP POP POP POP POP POP POP POP JUMP JUMPDEST SWAP4 DUP5 MSTORE PUSH1 0x20 DUP5 ADD SWAP3 SWAP1 SWAP3 MSTORE PUSH1 0x40 DUP4 ADD MSTORE PUSH1 0x60 DUP3 ADD MSTORE PUSH1 0x80 ADD SWAP1 JUMP JUMPDEST PUSH1 0xFF SWAP2 SWAP1 SWAP2 AND DUP2 MSTORE PUSH1 0x20 ADD SWAP1 JUMP JUMPDEST PUSH1 0x0 JUMPDEST DUP4 DUP2 LT ISZERO PUSH2 0x5CCE JUMPI DUP2 DUP2 ADD MLOAD DUP4 DUP3 ADD MSTORE PUSH1 0x20 ADD PUSH2 0x5CB6 JUMP JUMPDEST DUP4 DUP2 GT ISZERO PUSH2 0x326E JUMPI POP POP PUSH1 0x0 SWAP2 ADD MSTORE JUMP JUMPDEST PUSH1 0x1 PUSH1 0x1 PUSH1 0xA0 SHL SUB DUP2 AND DUP2 EQ PUSH2 0x249E JUMPI PUSH1 0x0 DUP1 REVERT INVALID 0x4C DUP4 0xEF 0xB3 SWAP9 0x2A 0xFB 0xD5 STOP 0xAB PUSH29 0x66D02B996DF5FDC3D20660E61600390AAD6D5F7F1E48524332303A2074 PUSH19 0x616E7366657220616D6F756E74206578636565 PUSH5 0x732062616C PUSH2 0x6E63 PUSH6 0x48524332303A KECCAK256 PUSH5 0x6563726561 PUSH20 0x656420616C6C6F77616E63652062656C6F77207A PUSH6 0x726F48524332 ADDRESS GASPRICE KECCAK256 PUSH21 0x72616E7366657220616D6F756E7420657863656564 PUSH20 0x20616C6C6F77616E636548524332303A20627572 PUSH15 0x20616D6F756E742065786365656473 KECCAK256 PUSH3 0x616C61 PUSH15 0x6365A26469706673582212201843B9 PUSH10 0x9DA095621BEA866E99D5 0xDF 0xC PUSH24 0xA2D475EA9D89718DF29F79F265868464736F6C634300060C STOP CALLER "
		},
		"gasEstimates": {
			"creation": {
				"codeDepositCost": "4806200",
				"executionCost": "infinite",
				"totalCost": "infinite"
			},
			"external": {
				"_maxSupply()": "1118",
				"_test_MinerPrice(uint256)": "6548",
				"_test_admin(address,address,address,address,address)": "infinite",
				"_test_approve(address,address,uint256)": "infinite",
				"_test_buyMiner(address,address,uint256)": "infinite",
				"_test_deposit(address,address,uint256)": "infinite",
				"_test_mint(address,uint256)": "infinite",
				"_totalSupply()": "1162",
				"accountInfo(address)": "infinite",
				"allowance(address,address)": "infinite",
				"amountForDeposit(uint256)": "2090",
				"amountForWithdraw(address)": "6500",
				"approve(address,uint256)": "22669",
				"balanceOf(address)": "1397",
				"basicInfoAdmin()": "3774",
				"buy(uint256)": "infinite",
				"buyMiner(address,uint256)": "infinite",
				"cancelBuyOrder()": "infinite",
				"cancelSellOrder()": "infinite",
				"checkInsurance()": "infinite",
				"contractInfo()": "infinite",
				"decimals()": "1202",
				"decreaseAllowance(address,uint256)": "infinite",
				"deposit(address,uint256)": "infinite",
				"firstAddress()": "1202",
				"getOwner()": "1151",
				"increaseAllowance(address,uint256)": "infinite",
				"maxSupply()": "1095",
				"mineInfo(address)": "infinite",
				"minerList()": "infinite",
				"mint(uint256)": "infinite",
				"name()": "infinite",
				"nodeinfo(address)": "infinite",
				"orderHistory()": "infinite",
				"owner()": "1160",
				"pendingOrder(address)": "infinite",
				"profits(address)": "infinite",
				"renounceOwnership()": "24359",
				"sell(uint256)": "infinite",
				"setAdmin(address,address,address,address)": "infinite",
				"startMine()": "infinite",
				"symbol()": "infinite",
				"totalSupply()": "1074",
				"transfer(address,uint256)": "infinite",
				"transferFrom(address,address,uint256)": "infinite",
				"transferOwnership(address)": "infinite",
				"withdraw()": "infinite",
				"withdrawFromPool()": "infinite"
			},
			"internal": {
				"_buy(address,uint256)": "infinite",
				"_buyMiner(address,address,uint256)": "infinite",
				"_childrenInfo(address,uint256,uint256,uint256)": "infinite",
				"_childrenInfoAll(address,uint256)": "infinite",
				"_deposit(address,address,uint256,uint256)": "infinite",
				"_insuranceAmount()": "infinite",
				"_minerPrice(uint256)": "infinite",
				"_minerRealPower()": "infinite",
				"_pendingPool(address)": "infinite",
				"_processSellOrder()": "infinite",
				"_sell(address,uint256)": "infinite",
				"_startMine(address)": "infinite",
				"_staticRewardOf(struct ITLB10.Node storage pointer,uint256)": "7660",
				"_stopMining(address)": "infinite",
				"_totalUsdtBalance()": "infinite",
				"_updateDynamicRewardsAllParentNode(struct ITLB10.Node storage pointer)": "infinite",
				"addUserToPrism()": "infinite",
				"getLastInBranch(address)": "infinite",
				"getShareholderInBranch(address)": "infinite",
				"getTier(uint256)": "infinite"
			}
		},
		"methodIdentifiers": {
			"_maxSupply()": "22f4596f",
			"_test_MinerPrice(uint256)": "bdc42a7a",
			"_test_admin(address,address,address,address,address)": "f656f562",
			"_test_approve(address,address,uint256)": "9bf00117",
			"_test_buyMiner(address,address,uint256)": "440565af",
			"_test_deposit(address,address,uint256)": "c7111063",
			"_test_mint(address,uint256)": "5da4c926",
			"_totalSupply()": "3eaaf86b",
			"accountInfo(address)": "a7310b58",
			"allowance(address,address)": "dd62ed3e",
			"amountForDeposit(uint256)": "99eb9576",
			"amountForWithdraw(address)": "0e25a441",
			"approve(address,uint256)": "095ea7b3",
			"balanceOf(address)": "70a08231",
			"basicInfoAdmin()": "6cb44428",
			"buy(uint256)": "d96a094a",
			"buyMiner(address,uint256)": "8a43bb01",
			"cancelBuyOrder()": "5ee4462c",
			"cancelSellOrder()": "39b50688",
			"checkInsurance()": "36fdde7c",
			"contractInfo()": "15c43aaf",
			"decimals()": "313ce567",
			"decreaseAllowance(address,uint256)": "a457c2d7",
			"deposit(address,uint256)": "47e7ef24",
			"firstAddress()": "f697ddb2",
			"getOwner()": "893d20e8",
			"increaseAllowance(address,uint256)": "39509351",
			"maxSupply()": "d5abeb01",
			"mineInfo(address)": "1701a82a",
			"minerList()": "e87f2cce",
			"mint(uint256)": "a0712d68",
			"name()": "06fdde03",
			"nodeinfo(address)": "fd125ece",
			"orderHistory()": "1e71615b",
			"owner()": "8da5cb5b",
			"pendingOrder(address)": "003f7a89",
			"profits(address)": "cc85f080",
			"renounceOwnership()": "715018a6",
			"sell(uint256)": "e4849b32",
			"setAdmin(address,address,address,address)": "f2218f56",
			"startMine()": "ed73ee25",
			"symbol()": "95d89b41",
			"totalSupply()": "18160ddd",
			"transfer(address,uint256)": "a9059cbb",
			"transferFrom(address,address,uint256)": "23b872dd",
			"transferOwnership(address)": "f2fde38b",
			"withdraw()": "3ccfd60b",
			"withdrawFromPool()": "26c0e5c5"
		}
	},
	"abi": [
		{
			"inputs": [],
			"stateMutability": "nonpayable",
			"type": "constructor"
		},
		{
			"anonymous": false,
			"inputs": [
				{
					"indexed": false,
					"internalType": "uint256",
					"name": "layer",
					"type": "uint256"
				}
			],
			"name": "AddLayer",
			"type": "event"
		},
		{
			"anonymous": false,
			"inputs": [
				{
					"indexed": false,
					"internalType": "address",
					"name": "guest",
					"type": "address"
				},
				{
					"indexed": false,
					"internalType": "uint256",
					"name": "amount",
					"type": "uint256"
				}
			],
			"name": "AddUser",
			"type": "event"
		},
		{
			"anonymous": false,
			"inputs": [
				{
					"indexed": true,
					"internalType": "address",
					"name": "owner",
					"type": "address"
				},
				{
					"indexed": true,
					"internalType": "address",
					"name": "spender",
					"type": "address"
				},
				{
					"indexed": false,
					"internalType": "uint256",
					"name": "value",
					"type": "uint256"
				}
			],
			"name": "Approval",
			"type": "event"
		},
		{
			"anonymous": false,
			"inputs": [
				{
					"indexed": false,
					"internalType": "address",
					"name": "guest",
					"type": "address"
				},
				{
					"indexed": false,
					"internalType": "uint256",
					"name": "amount",
					"type": "uint256"
				}
			],
			"name": "BuyOrderAdded",
			"type": "event"
		},
		{
			"anonymous": false,
			"inputs": [
				{
					"indexed": false,
					"internalType": "address",
					"name": "guest",
					"type": "address"
				},
				{
					"indexed": false,
					"internalType": "uint256",
					"name": "amount",
					"type": "uint256"
				}
			],
			"name": "BuyOrderCancelled",
			"type": "event"
		},
		{
			"anonymous": false,
			"inputs": [
				{
					"indexed": true,
					"internalType": "address",
					"name": "previousOwner",
					"type": "address"
				},
				{
					"indexed": true,
					"internalType": "address",
					"name": "newOwner",
					"type": "address"
				}
			],
			"name": "OwnershipTransferred",
			"type": "event"
		},
		{
			"anonymous": false,
			"inputs": [
				{
					"indexed": false,
					"internalType": "address",
					"name": "guest",
					"type": "address"
				},
				{
					"indexed": false,
					"internalType": "uint256",
					"name": "amount",
					"type": "uint256"
				}
			],
			"name": "SellOrderAdded",
			"type": "event"
		},
		{
			"anonymous": false,
			"inputs": [
				{
					"indexed": false,
					"internalType": "address",
					"name": "guest",
					"type": "address"
				},
				{
					"indexed": false,
					"internalType": "uint256",
					"name": "amount",
					"type": "uint256"
				}
			],
			"name": "SellOrderCancelled",
			"type": "event"
		},
		{
			"anonymous": false,
			"inputs": [
				{
					"indexed": true,
					"internalType": "address",
					"name": "from",
					"type": "address"
				},
				{
					"indexed": true,
					"internalType": "address",
					"name": "to",
					"type": "address"
				},
				{
					"indexed": false,
					"internalType": "uint256",
					"name": "value",
					"type": "uint256"
				}
			],
			"name": "Transfer",
			"type": "event"
		},
		{
			"inputs": [],
			"name": "_maxSupply",
			"outputs": [
				{
					"internalType": "uint256",
					"name": "",
					"type": "uint256"
				}
			],
			"stateMutability": "view",
			"type": "function"
		},
		{
			"inputs": [
				{
					"internalType": "uint256",
					"name": "tier",
					"type": "uint256"
				}
			],
			"name": "_test_MinerPrice",
			"outputs": [
				{
					"internalType": "uint256",
					"name": "",
					"type": "uint256"
				}
			],
			"stateMutability": "view",
			"type": "function"
		},
		{
			"inputs": [
				{
					"internalType": "address",
					"name": "usdtAddress",
					"type": "address"
				},
				{
					"internalType": "address",
					"name": "adminAddress",
					"type": "address"
				},
				{
					"internalType": "address",
					"name": "lee",
					"type": "address"
				},
				{
					"internalType": "address",
					"name": "zhang",
					"type": "address"
				},
				{
					"internalType": "address",
					"name": "redeem",
					"type": "address"
				}
			],
			"name": "_test_admin",
			"outputs": [],
			"stateMutability": "nonpayable",
			"type": "function"
		},
		{
			"inputs": [
				{
					"internalType": "address",
					"name": "sender",
					"type": "address"
				},
				{
					"internalType": "address",
					"name": "spender",
					"type": "address"
				},
				{
					"internalType": "uint256",
					"name": "amount",
					"type": "uint256"
				}
			],
			"name": "_test_approve",
			"outputs": [],
			"stateMutability": "nonpayable",
			"type": "function"
		},
		{
			"inputs": [
				{
					"internalType": "address",
					"name": "sender",
					"type": "address"
				},
				{
					"internalType": "address",
					"name": "referalLink",
					"type": "address"
				},
				{
					"internalType": "uint256",
					"name": "tier",
					"type": "uint256"
				}
			],
			"name": "_test_buyMiner",
			"outputs": [],
			"stateMutability": "nonpayable",
			"type": "function"
		},
		{
			"inputs": [
				{
					"internalType": "address",
					"name": "sender",
					"type": "address"
				},
				{
					"internalType": "address",
					"name": "referalLink",
					"type": "address"
				},
				{
					"internalType": "uint256",
					"name": "amount",
					"type": "uint256"
				}
			],
			"name": "_test_deposit",
			"outputs": [],
			"stateMutability": "nonpayable",
			"type": "function"
		},
		{
			"inputs": [
				{
					"internalType": "address",
					"name": "sender",
					"type": "address"
				},
				{
					"internalType": "uint256",
					"name": "amount",
					"type": "uint256"
				}
			],
			"name": "_test_mint",
			"outputs": [],
			"stateMutability": "nonpayable",
			"type": "function"
		},
		{
			"inputs": [],
			"name": "_totalSupply",
			"outputs": [
				{
					"internalType": "uint256",
					"name": "",
					"type": "uint256"
				}
			],
			"stateMutability": "view",
			"type": "function"
		},
		{
			"inputs": [
				{
					"internalType": "address",
					"name": "account",
					"type": "address"
				}
			],
			"name": "accountInfo",
			"outputs": [
				{
					"internalType": "uint256[8]",
					"name": "",
					"type": "uint256[8]"
				}
			],
			"stateMutability": "view",
			"type": "function"
		},
		{
			"inputs": [
				{
					"internalType": "address",
					"name": "owner",
					"type": "address"
				},
				{
					"internalType": "address",
					"name": "spender",
					"type": "address"
				}
			],
			"name": "allowance",
			"outputs": [
				{
					"internalType": "uint256",
					"name": "",
					"type": "uint256"
				}
			],
			"stateMutability": "view",
			"type": "function"
		},
		{
			"inputs": [
				{
					"internalType": "uint256",
					"name": "amount",
					"type": "uint256"
				}
			],
			"name": "amountForDeposit",
			"outputs": [
				{
					"internalType": "uint256",
					"name": "",
					"type": "uint256"
				}
			],
			"stateMutability": "view",
			"type": "function"
		},
		{
			"inputs": [
				{
					"internalType": "address",
					"name": "account",
					"type": "address"
				}
			],
			"name": "amountForWithdraw",
			"outputs": [
				{
					"internalType": "uint256",
					"name": "",
					"type": "uint256"
				}
			],
			"stateMutability": "view",
			"type": "function"
		},
		{
			"inputs": [
				{
					"internalType": "address",
					"name": "spender",
					"type": "address"
				},
				{
					"internalType": "uint256",
					"name": "amount",
					"type": "uint256"
				}
			],
			"name": "approve",
			"outputs": [
				{
					"internalType": "bool",
					"name": "",
					"type": "bool"
				}
			],
			"stateMutability": "nonpayable",
			"type": "function"
		},
		{
			"inputs": [
				{
					"internalType": "address",
					"name": "account",
					"type": "address"
				}
			],
			"name": "balanceOf",
			"outputs": [
				{
					"internalType": "uint256",
					"name": "",
					"type": "uint256"
				}
			],
			"stateMutability": "view",
			"type": "function"
		},
		{
			"inputs": [],
			"name": "basicInfoAdmin",
			"outputs": [
				{
					"internalType": "uint256",
					"name": "",
					"type": "uint256"
				},
				{
					"internalType": "uint256",
					"name": "",
					"type": "uint256"
				},
				{
					"internalType": "uint256",
					"name": "",
					"type": "uint256"
				},
				{
					"internalType": "uint256",
					"name": "",
					"type": "uint256"
				}
			],
			"stateMutability": "view",
			"type": "function"
		},
		{
			"inputs": [
				{
					"internalType": "uint256",
					"name": "amountUsdt",
					"type": "uint256"
				}
			],
			"name": "buy",
			"outputs": [],
			"stateMutability": "nonpayable",
			"type": "function"
		},
		{
			"inputs": [
				{
					"internalType": "address",
					"name": "referalLink",
					"type": "address"
				},
				{
					"internalType": "uint256",
					"name": "amountUsdt",
					"type": "uint256"
				}
			],
			"name": "buyMiner",
			"outputs": [],
			"stateMutability": "nonpayable",
			"type": "function"
		},
		{
			"inputs": [],
			"name": "cancelBuyOrder",
			"outputs": [],
			"stateMutability": "nonpayable",
			"type": "function"
		},
		{
			"inputs": [],
			"name": "cancelSellOrder",
			"outputs": [],
			"stateMutability": "nonpayable",
			"type": "function"
		},
		{
			"inputs": [],
			"name": "checkInsurance",
			"outputs": [],
			"stateMutability": "nonpayable",
			"type": "function"
		},
		{
			"inputs": [],
			"name": "contractInfo",
			"outputs": [
				{
					"internalType": "uint256[14]",
					"name": "",
					"type": "uint256[14]"
				}
			],
			"stateMutability": "view",
			"type": "function"
		},
		{
			"inputs": [],
			"name": "decimals",
			"outputs": [
				{
					"internalType": "uint8",
					"name": "",
					"type": "uint8"
				}
			],
			"stateMutability": "view",
			"type": "function"
		},
		{
			"inputs": [
				{
					"internalType": "address",
					"name": "spender",
					"type": "address"
				},
				{
					"internalType": "uint256",
					"name": "subtractedValue",
					"type": "uint256"
				}
			],
			"name": "decreaseAllowance",
			"outputs": [
				{
					"internalType": "bool",
					"name": "",
					"type": "bool"
				}
			],
			"stateMutability": "nonpayable",
			"type": "function"
		},
		{
			"inputs": [
				{
					"internalType": "address",
					"name": "referalLink",
					"type": "address"
				},
				{
					"internalType": "uint256",
					"name": "amount",
					"type": "uint256"
				}
			],
			"name": "deposit",
			"outputs": [],
			"stateMutability": "nonpayable",
			"type": "function"
		},
		{
			"inputs": [],
			"name": "firstAddress",
			"outputs": [
				{
					"internalType": "address",
					"name": "",
					"type": "address"
				}
			],
			"stateMutability": "view",
			"type": "function"
		},
		{
			"inputs": [],
			"name": "getOwner",
			"outputs": [
				{
					"internalType": "address",
					"name": "",
					"type": "address"
				}
			],
			"stateMutability": "view",
			"type": "function"
		},
		{
			"inputs": [
				{
					"internalType": "address",
					"name": "spender",
					"type": "address"
				},
				{
					"internalType": "uint256",
					"name": "addedValue",
					"type": "uint256"
				}
			],
			"name": "increaseAllowance",
			"outputs": [
				{
					"internalType": "bool",
					"name": "",
					"type": "bool"
				}
			],
			"stateMutability": "nonpayable",
			"type": "function"
		},
		{
			"inputs": [],
			"name": "maxSupply",
			"outputs": [
				{
					"internalType": "uint256",
					"name": "",
					"type": "uint256"
				}
			],
			"stateMutability": "view",
			"type": "function"
		},
		{
			"inputs": [
				{
					"internalType": "address",
					"name": "account",
					"type": "address"
				}
			],
			"name": "mineInfo",
			"outputs": [
				{
					"internalType": "uint256[11]",
					"name": "",
					"type": "uint256[11]"
				}
			],
			"stateMutability": "view",
			"type": "function"
		},
		{
			"inputs": [],
			"name": "minerList",
			"outputs": [
				{
					"components": [
						{
							"internalType": "address",
							"name": "account",
							"type": "address"
						},
						{
							"internalType": "uint256",
							"name": "mineType",
							"type": "uint256"
						},
						{
							"internalType": "uint256",
							"name": "tier",
							"type": "uint256"
						},
						{
							"internalType": "uint256",
							"name": "lastBlock",
							"type": "uint256"
						}
					],
					"internalType": "struct ITLB10.WorkingMiner[]",
					"name": "",
					"type": "tuple[]"
				}
			],
			"stateMutability": "view",
			"type": "function"
		},
		{
			"inputs": [
				{
					"internalType": "uint256",
					"name": "amount",
					"type": "uint256"
				}
			],
			"name": "mint",
			"outputs": [
				{
					"internalType": "bool",
					"name": "",
					"type": "bool"
				}
			],
			"stateMutability": "nonpayable",
			"type": "function"
		},
		{
			"inputs": [],
			"name": "name",
			"outputs": [
				{
					"internalType": "string",
					"name": "",
					"type": "string"
				}
			],
			"stateMutability": "view",
			"type": "function"
		},
		{
			"inputs": [
				{
					"internalType": "address",
					"name": "sender",
					"type": "address"
				}
			],
			"name": "nodeinfo",
			"outputs": [
				{
					"internalType": "uint256",
					"name": "",
					"type": "uint256"
				},
				{
					"internalType": "address",
					"name": "",
					"type": "address"
				},
				{
					"internalType": "address[]",
					"name": "",
					"type": "address[]"
				}
			],
			"stateMutability": "view",
			"type": "function"
		},
		{
			"inputs": [],
			"name": "orderHistory",
			"outputs": [
				{
					"internalType": "uint256[4][]",
					"name": "",
					"type": "uint256[4][]"
				}
			],
			"stateMutability": "view",
			"type": "function"
		},
		{
			"inputs": [],
			"name": "owner",
			"outputs": [
				{
					"internalType": "address payable",
					"name": "",
					"type": "address"
				}
			],
			"stateMutability": "view",
			"type": "function"
		},
		{
			"inputs": [
				{
					"internalType": "address",
					"name": "account",
					"type": "address"
				}
			],
			"name": "pendingOrder",
			"outputs": [
				{
					"internalType": "uint256[4][]",
					"name": "",
					"type": "uint256[4][]"
				}
			],
			"stateMutability": "view",
			"type": "function"
		},
		{
			"inputs": [
				{
					"internalType": "address",
					"name": "account",
					"type": "address"
				}
			],
			"name": "profits",
			"outputs": [
				{
					"internalType": "bool",
					"name": "",
					"type": "bool"
				},
				{
					"internalType": "uint256",
					"name": "",
					"type": "uint256"
				},
				{
					"internalType": "uint256",
					"name": "",
					"type": "uint256"
				},
				{
					"internalType": "uint256",
					"name": "",
					"type": "uint256"
				},
				{
					"internalType": "uint256",
					"name": "",
					"type": "uint256"
				}
			],
			"stateMutability": "view",
			"type": "function"
		},
		{
			"inputs": [],
			"name": "renounceOwnership",
			"outputs": [],
			"stateMutability": "nonpayable",
			"type": "function"
		},
		{
			"inputs": [
				{
					"internalType": "uint256",
					"name": "amountTlb",
					"type": "uint256"
				}
			],
			"name": "sell",
			"outputs": [],
			"stateMutability": "nonpayable",
			"type": "function"
		},
		{
			"inputs": [
				{
					"internalType": "address",
					"name": "admin",
					"type": "address"
				},
				{
					"internalType": "address",
					"name": "lee",
					"type": "address"
				},
				{
					"internalType": "address",
					"name": "zhang",
					"type": "address"
				},
				{
					"internalType": "address",
					"name": "redeem",
					"type": "address"
				}
			],
			"name": "setAdmin",
			"outputs": [],
			"stateMutability": "nonpayable",
			"type": "function"
		},
		{
			"inputs": [],
			"name": "startMine",
			"outputs": [],
			"stateMutability": "nonpayable",
			"type": "function"
		},
		{
			"inputs": [],
			"name": "symbol",
			"outputs": [
				{
					"internalType": "string",
					"name": "",
					"type": "string"
				}
			],
			"stateMutability": "view",
			"type": "function"
		},
		{
			"inputs": [],
			"name": "totalSupply",
			"outputs": [
				{
					"internalType": "uint256",
					"name": "",
					"type": "uint256"
				}
			],
			"stateMutability": "view",
			"type": "function"
		},
		{
			"inputs": [
				{
					"internalType": "address",
					"name": "recipient",
					"type": "address"
				},
				{
					"internalType": "uint256",
					"name": "amount",
					"type": "uint256"
				}
			],
			"name": "transfer",
			"outputs": [
				{
					"internalType": "bool",
					"name": "",
					"type": "bool"
				}
			],
			"stateMutability": "nonpayable",
			"type": "function"
		},
		{
			"inputs": [
				{
					"internalType": "address",
					"name": "sender",
					"type": "address"
				},
				{
					"internalType": "address",
					"name": "recipient",
					"type": "address"
				},
				{
					"internalType": "uint256",
					"name": "amount",
					"type": "uint256"
				}
			],
			"name": "transferFrom",
			"outputs": [
				{
					"internalType": "bool",
					"name": "",
					"type": "bool"
				}
			],
			"stateMutability": "nonpayable",
			"type": "function"
		},
		{
			"inputs": [
				{
					"internalType": "address payable",
					"name": "newOwner",
					"type": "address"
				}
			],
			"name": "transferOwnership",
			"outputs": [],
			"stateMutability": "nonpayable",
			"type": "function"
		},
		{
			"inputs": [],
			"name": "withdraw",
			"outputs": [],
			"stateMutability": "nonpayable",
			"type": "function"
		},
		{
			"inputs": [],
			"name": "withdrawFromPool",
			"outputs": [],
			"stateMutability": "nonpayable",
			"type": "function"
		}
	]
}